{
	"contracts/Intermediate/modifiers.sol": {
		"modifierExample": {
			"abi": [
				{
					"inputs": [],
					"name": "check1",
					"outputs": [
						{
							"internalType": "uint256",
							"name": "",
							"type": "uint256"
						}
					],
					"stateMutability": "pure",
					"type": "function"
				},
				{
					"inputs": [],
					"name": "check2",
					"outputs": [
						{
							"internalType": "uint256",
							"name": "",
							"type": "uint256"
						}
					],
					"stateMutability": "pure",
					"type": "function"
				},
				{
					"inputs": [],
					"name": "check3",
					"outputs": [
						{
							"internalType": "uint256",
							"name": "",
							"type": "uint256"
						}
					],
					"stateMutability": "pure",
					"type": "function"
				}
			],
			"devdoc": {
				"kind": "dev",
				"methods": {},
				"version": 1
			},
			"evm": {
				"assembly": "    /* \"contracts/Intermediate/modifiers.sol\":74:604  contract modifierExample{... */\n  mstore(0x40, 0x80)\n  callvalue\n  dup1\n  iszero\n  tag_1\n  jumpi\n  revert(0x00, 0x00)\ntag_1:\n  pop\n  dataSize(sub_0)\n  dup1\n  dataOffset(sub_0)\n  0x00\n  codecopy\n  0x00\n  return\nstop\n\nsub_0: assembly {\n        /* \"contracts/Intermediate/modifiers.sol\":74:604  contract modifierExample{... */\n      mstore(0x40, 0x80)\n      callvalue\n      dup1\n      iszero\n      tag_1\n      jumpi\n      revert(0x00, 0x00)\n    tag_1:\n      pop\n      jumpi(tag_2, lt(calldatasize, 0x04))\n      shr(0xe0, calldataload(0x00))\n      dup1\n      0x1b5e8b93\n      eq\n      tag_3\n      jumpi\n      dup1\n      0x89ac3851\n      eq\n      tag_4\n      jumpi\n      dup1\n      0xa548daf6\n      eq\n      tag_5\n      jumpi\n    tag_2:\n      revert(0x00, 0x00)\n        /* \"contracts/Intermediate/modifiers.sol\":303:396  function check1() public pure onlyTrue onlyFase returns (uint){... */\n    tag_3:\n      tag_6\n      tag_7\n      jump\t// in\n    tag_6:\n      mload(0x40)\n      tag_8\n      swap2\n      swap1\n      tag_9\n      jump\t// in\n    tag_8:\n      mload(0x40)\n      dup1\n      swap2\n      sub\n      swap1\n      return\n        /* \"contracts/Intermediate/modifiers.sol\":507:601  function check3() public pure onlyTrue onlyFase returns (uint){... */\n    tag_4:\n      tag_10\n      tag_11\n      jump\t// in\n    tag_10:\n      mload(0x40)\n      tag_12\n      swap2\n      swap1\n      tag_9\n      jump\t// in\n    tag_12:\n      mload(0x40)\n      dup1\n      swap2\n      sub\n      swap1\n      return\n        /* \"contracts/Intermediate/modifiers.sol\":404:499  function check2() public pure onlyTrue onlyFase returns (uint){... */\n    tag_5:\n      tag_13\n      tag_14\n      jump\t// in\n    tag_13:\n      mload(0x40)\n      tag_15\n      swap2\n      swap1\n      tag_9\n      jump\t// in\n    tag_15:\n      mload(0x40)\n      dup1\n      swap2\n      sub\n      swap1\n      return\n        /* \"contracts/Intermediate/modifiers.sol\":303:396  function check1() public pure onlyTrue onlyFase returns (uint){... */\n    tag_7:\n        /* \"contracts/Intermediate/modifiers.sol\":360:364  uint */\n      0x00\n        /* \"contracts/Intermediate/modifiers.sol\":150:154  true */\n      0x01\n        /* \"contracts/Intermediate/modifiers.sol\":143:154  false==true */\n      iszero\n      iszero\n        /* \"contracts/Intermediate/modifiers.sol\":143:148  false */\n      0x00\n        /* \"contracts/Intermediate/modifiers.sol\":143:154  false==true */\n      iszero\n      iszero\n      eq\n        /* \"contracts/Intermediate/modifiers.sol\":135:177  require(false==true, \"false  is not true\") */\n      tag_17\n      jumpi\n      mload(0x40)\n      0x08c379a000000000000000000000000000000000000000000000000000000000\n      dup2\n      mstore\n      0x04\n      add\n      tag_18\n      swap1\n      tag_19\n      jump\t// in\n    tag_18:\n      mload(0x40)\n      dup1\n      swap2\n      sub\n      swap1\n      revert\n    tag_17:\n        /* \"contracts/Intermediate/modifiers.sol\":250:255  false */\n      0x00\n        /* \"contracts/Intermediate/modifiers.sol\":242:255  true == false */\n      iszero\n      iszero\n        /* \"contracts/Intermediate/modifiers.sol\":242:246  true */\n      0x01\n        /* \"contracts/Intermediate/modifiers.sol\":242:255  true == false */\n      iszero\n      iszero\n      eq\n        /* \"contracts/Intermediate/modifiers.sol\":234:277  require(true == false, \"true is not false\") */\n      tag_21\n      jumpi\n      mload(0x40)\n      0x08c379a000000000000000000000000000000000000000000000000000000000\n      dup2\n      mstore\n      0x04\n      add\n      tag_22\n      swap1\n      tag_23\n      jump\t// in\n    tag_22:\n      mload(0x40)\n      dup1\n      swap2\n      sub\n      swap1\n      revert\n    tag_21:\n        /* \"contracts/Intermediate/modifiers.sol\":387:388  1 */\n      0x01\n        /* \"contracts/Intermediate/modifiers.sol\":380:388  return 1 */\n      swap1\n      pop\n        /* \"contracts/Intermediate/modifiers.sol\":303:396  function check1() public pure onlyTrue onlyFase returns (uint){... */\n      swap1\n      jump\t// out\n        /* \"contracts/Intermediate/modifiers.sol\":507:601  function check3() public pure onlyTrue onlyFase returns (uint){... */\n    tag_11:\n        /* \"contracts/Intermediate/modifiers.sol\":564:568  uint */\n      0x00\n        /* \"contracts/Intermediate/modifiers.sol\":150:154  true */\n      0x01\n        /* \"contracts/Intermediate/modifiers.sol\":143:154  false==true */\n      iszero\n      iszero\n        /* \"contracts/Intermediate/modifiers.sol\":143:148  false */\n      0x00\n        /* \"contracts/Intermediate/modifiers.sol\":143:154  false==true */\n      iszero\n      iszero\n      eq\n        /* \"contracts/Intermediate/modifiers.sol\":135:177  require(false==true, \"false  is not true\") */\n      tag_26\n      jumpi\n      mload(0x40)\n      0x08c379a000000000000000000000000000000000000000000000000000000000\n      dup2\n      mstore\n      0x04\n      add\n      tag_27\n      swap1\n      tag_19\n      jump\t// in\n    tag_27:\n      mload(0x40)\n      dup1\n      swap2\n      sub\n      swap1\n      revert\n    tag_26:\n        /* \"contracts/Intermediate/modifiers.sol\":250:255  false */\n      0x00\n        /* \"contracts/Intermediate/modifiers.sol\":242:255  true == false */\n      iszero\n      iszero\n        /* \"contracts/Intermediate/modifiers.sol\":242:246  true */\n      0x01\n        /* \"contracts/Intermediate/modifiers.sol\":242:255  true == false */\n      iszero\n      iszero\n      eq\n        /* \"contracts/Intermediate/modifiers.sol\":234:277  require(true == false, \"true is not false\") */\n      tag_29\n      jumpi\n      mload(0x40)\n      0x08c379a000000000000000000000000000000000000000000000000000000000\n      dup2\n      mstore\n      0x04\n      add\n      tag_30\n      swap1\n      tag_23\n      jump\t// in\n    tag_30:\n      mload(0x40)\n      dup1\n      swap2\n      sub\n      swap1\n      revert\n    tag_29:\n        /* \"contracts/Intermediate/modifiers.sol\":592:593  3 */\n      0x03\n        /* \"contracts/Intermediate/modifiers.sol\":585:593  return 3 */\n      swap1\n      pop\n        /* \"contracts/Intermediate/modifiers.sol\":507:601  function check3() public pure onlyTrue onlyFase returns (uint){... */\n      swap1\n      jump\t// out\n        /* \"contracts/Intermediate/modifiers.sol\":404:499  function check2() public pure onlyTrue onlyFase returns (uint){... */\n    tag_14:\n        /* \"contracts/Intermediate/modifiers.sol\":461:465  uint */\n      0x00\n        /* \"contracts/Intermediate/modifiers.sol\":150:154  true */\n      0x01\n        /* \"contracts/Intermediate/modifiers.sol\":143:154  false==true */\n      iszero\n      iszero\n        /* \"contracts/Intermediate/modifiers.sol\":143:148  false */\n      0x00\n        /* \"contracts/Intermediate/modifiers.sol\":143:154  false==true */\n      iszero\n      iszero\n      eq\n        /* \"contracts/Intermediate/modifiers.sol\":135:177  require(false==true, \"false  is not true\") */\n      tag_33\n      jumpi\n      mload(0x40)\n      0x08c379a000000000000000000000000000000000000000000000000000000000\n      dup2\n      mstore\n      0x04\n      add\n      tag_34\n      swap1\n      tag_19\n      jump\t// in\n    tag_34:\n      mload(0x40)\n      dup1\n      swap2\n      sub\n      swap1\n      revert\n    tag_33:\n        /* \"contracts/Intermediate/modifiers.sol\":250:255  false */\n      0x00\n        /* \"contracts/Intermediate/modifiers.sol\":242:255  true == false */\n      iszero\n      iszero\n        /* \"contracts/Intermediate/modifiers.sol\":242:246  true */\n      0x01\n        /* \"contracts/Intermediate/modifiers.sol\":242:255  true == false */\n      iszero\n      iszero\n      eq\n        /* \"contracts/Intermediate/modifiers.sol\":234:277  require(true == false, \"true is not false\") */\n      tag_36\n      jumpi\n      mload(0x40)\n      0x08c379a000000000000000000000000000000000000000000000000000000000\n      dup2\n      mstore\n      0x04\n      add\n      tag_37\n      swap1\n      tag_23\n      jump\t// in\n    tag_37:\n      mload(0x40)\n      dup1\n      swap2\n      sub\n      swap1\n      revert\n    tag_36:\n        /* \"contracts/Intermediate/modifiers.sol\":490:491  2 */\n      0x02\n        /* \"contracts/Intermediate/modifiers.sol\":483:491  return 2 */\n      swap1\n      pop\n        /* \"contracts/Intermediate/modifiers.sol\":404:499  function check2() public pure onlyTrue onlyFase returns (uint){... */\n      swap1\n      jump\t// out\n        /* \"#utility.yul\":7:84   */\n    tag_39:\n        /* \"#utility.yul\":44:51   */\n      0x00\n        /* \"#utility.yul\":73:78   */\n      dup2\n        /* \"#utility.yul\":62:78   */\n      swap1\n      pop\n        /* \"#utility.yul\":7:84   */\n      swap2\n      swap1\n      pop\n      jump\t// out\n        /* \"#utility.yul\":90:208   */\n    tag_40:\n        /* \"#utility.yul\":177:201   */\n      tag_49\n        /* \"#utility.yul\":195:200   */\n      dup2\n        /* \"#utility.yul\":177:201   */\n      tag_39\n      jump\t// in\n    tag_49:\n        /* \"#utility.yul\":172:175   */\n      dup3\n        /* \"#utility.yul\":165:202   */\n      mstore\n        /* \"#utility.yul\":90:208   */\n      pop\n      pop\n      jump\t// out\n        /* \"#utility.yul\":214:436   */\n    tag_9:\n        /* \"#utility.yul\":307:311   */\n      0x00\n        /* \"#utility.yul\":345:347   */\n      0x20\n        /* \"#utility.yul\":334:343   */\n      dup3\n        /* \"#utility.yul\":330:348   */\n      add\n        /* \"#utility.yul\":322:348   */\n      swap1\n      pop\n        /* \"#utility.yul\":358:429   */\n      tag_51\n        /* \"#utility.yul\":426:427   */\n      0x00\n        /* \"#utility.yul\":415:424   */\n      dup4\n        /* \"#utility.yul\":411:428   */\n      add\n        /* \"#utility.yul\":402:408   */\n      dup5\n        /* \"#utility.yul\":358:429   */\n      tag_40\n      jump\t// in\n    tag_51:\n        /* \"#utility.yul\":214:436   */\n      swap3\n      swap2\n      pop\n      pop\n      jump\t// out\n        /* \"#utility.yul\":442:611   */\n    tag_41:\n        /* \"#utility.yul\":526:537   */\n      0x00\n        /* \"#utility.yul\":560:566   */\n      dup3\n        /* \"#utility.yul\":555:558   */\n      dup3\n        /* \"#utility.yul\":548:567   */\n      mstore\n        /* \"#utility.yul\":600:604   */\n      0x20\n        /* \"#utility.yul\":595:598   */\n      dup3\n        /* \"#utility.yul\":591:605   */\n      add\n        /* \"#utility.yul\":576:605   */\n      swap1\n      pop\n        /* \"#utility.yul\":442:611   */\n      swap3\n      swap2\n      pop\n      pop\n      jump\t// out\n        /* \"#utility.yul\":617:785   */\n    tag_42:\n        /* \"#utility.yul\":757:777   */\n      0x66616c736520206973206e6f7420747275650000000000000000000000000000\n        /* \"#utility.yul\":753:754   */\n      0x00\n        /* \"#utility.yul\":745:751   */\n      dup3\n        /* \"#utility.yul\":741:755   */\n      add\n        /* \"#utility.yul\":734:778   */\n      mstore\n        /* \"#utility.yul\":617:785   */\n      pop\n      jump\t// out\n        /* \"#utility.yul\":791:1157   */\n    tag_43:\n        /* \"#utility.yul\":933:936   */\n      0x00\n        /* \"#utility.yul\":954:1021   */\n      tag_55\n        /* \"#utility.yul\":1018:1020   */\n      0x12\n        /* \"#utility.yul\":1013:1016   */\n      dup4\n        /* \"#utility.yul\":954:1021   */\n      tag_41\n      jump\t// in\n    tag_55:\n        /* \"#utility.yul\":947:1021   */\n      swap2\n      pop\n        /* \"#utility.yul\":1030:1123   */\n      tag_56\n        /* \"#utility.yul\":1119:1122   */\n      dup3\n        /* \"#utility.yul\":1030:1123   */\n      tag_42\n      jump\t// in\n    tag_56:\n        /* \"#utility.yul\":1148:1150   */\n      0x20\n        /* \"#utility.yul\":1143:1146   */\n      dup3\n        /* \"#utility.yul\":1139:1151   */\n      add\n        /* \"#utility.yul\":1132:1151   */\n      swap1\n      pop\n        /* \"#utility.yul\":791:1157   */\n      swap2\n      swap1\n      pop\n      jump\t// out\n        /* \"#utility.yul\":1163:1582   */\n    tag_19:\n        /* \"#utility.yul\":1329:1333   */\n      0x00\n        /* \"#utility.yul\":1367:1369   */\n      0x20\n        /* \"#utility.yul\":1356:1365   */\n      dup3\n        /* \"#utility.yul\":1352:1370   */\n      add\n        /* \"#utility.yul\":1344:1370   */\n      swap1\n      pop\n        /* \"#utility.yul\":1416:1425   */\n      dup2\n        /* \"#utility.yul\":1410:1414   */\n      dup2\n        /* \"#utility.yul\":1406:1426   */\n      sub\n        /* \"#utility.yul\":1402:1403   */\n      0x00\n        /* \"#utility.yul\":1391:1400   */\n      dup4\n        /* \"#utility.yul\":1387:1404   */\n      add\n        /* \"#utility.yul\":1380:1427   */\n      mstore\n        /* \"#utility.yul\":1444:1575   */\n      tag_58\n        /* \"#utility.yul\":1570:1574   */\n      dup2\n        /* \"#utility.yul\":1444:1575   */\n      tag_43\n      jump\t// in\n    tag_58:\n        /* \"#utility.yul\":1436:1575   */\n      swap1\n      pop\n        /* \"#utility.yul\":1163:1582   */\n      swap2\n      swap1\n      pop\n      jump\t// out\n        /* \"#utility.yul\":1588:1755   */\n    tag_44:\n        /* \"#utility.yul\":1728:1747   */\n      0x74727565206973206e6f742066616c7365000000000000000000000000000000\n        /* \"#utility.yul\":1724:1725   */\n      0x00\n        /* \"#utility.yul\":1716:1722   */\n      dup3\n        /* \"#utility.yul\":1712:1726   */\n      add\n        /* \"#utility.yul\":1705:1748   */\n      mstore\n        /* \"#utility.yul\":1588:1755   */\n      pop\n      jump\t// out\n        /* \"#utility.yul\":1761:2127   */\n    tag_45:\n        /* \"#utility.yul\":1903:1906   */\n      0x00\n        /* \"#utility.yul\":1924:1991   */\n      tag_61\n        /* \"#utility.yul\":1988:1990   */\n      0x11\n        /* \"#utility.yul\":1983:1986   */\n      dup4\n        /* \"#utility.yul\":1924:1991   */\n      tag_41\n      jump\t// in\n    tag_61:\n        /* \"#utility.yul\":1917:1991   */\n      swap2\n      pop\n        /* \"#utility.yul\":2000:2093   */\n      tag_62\n        /* \"#utility.yul\":2089:2092   */\n      dup3\n        /* \"#utility.yul\":2000:2093   */\n      tag_44\n      jump\t// in\n    tag_62:\n        /* \"#utility.yul\":2118:2120   */\n      0x20\n        /* \"#utility.yul\":2113:2116   */\n      dup3\n        /* \"#utility.yul\":2109:2121   */\n      add\n        /* \"#utility.yul\":2102:2121   */\n      swap1\n      pop\n        /* \"#utility.yul\":1761:2127   */\n      swap2\n      swap1\n      pop\n      jump\t// out\n        /* \"#utility.yul\":2133:2552   */\n    tag_23:\n        /* \"#utility.yul\":2299:2303   */\n      0x00\n        /* \"#utility.yul\":2337:2339   */\n      0x20\n        /* \"#utility.yul\":2326:2335   */\n      dup3\n        /* \"#utility.yul\":2322:2340   */\n      add\n        /* \"#utility.yul\":2314:2340   */\n      swap1\n      pop\n        /* \"#utility.yul\":2386:2395   */\n      dup2\n        /* \"#utility.yul\":2380:2384   */\n      dup2\n        /* \"#utility.yul\":2376:2396   */\n      sub\n        /* \"#utility.yul\":2372:2373   */\n      0x00\n        /* \"#utility.yul\":2361:2370   */\n      dup4\n        /* \"#utility.yul\":2357:2374   */\n      add\n        /* \"#utility.yul\":2350:2397   */\n      mstore\n        /* \"#utility.yul\":2414:2545   */\n      tag_64\n        /* \"#utility.yul\":2540:2544   */\n      dup2\n        /* \"#utility.yul\":2414:2545   */\n      tag_45\n      jump\t// in\n    tag_64:\n        /* \"#utility.yul\":2406:2545   */\n      swap1\n      pop\n        /* \"#utility.yul\":2133:2552   */\n      swap2\n      swap1\n      pop\n      jump\t// out\n\n    auxdata: 0xa2646970667358221220f6854283b39c136925d3eb4793711c0527400259d5723ff16a7151e2d343d75064736f6c634300081e0033\n}\n",
				"bytecode": {
					"linkReferences": {},
					"object": "6080604052348015600e575f5ffd5b506103a68061001c5f395ff3fe608060405234801561000f575f5ffd5b506004361061003f575f3560e01c80631b5e8b931461004357806389ac385114610061578063a548daf61461007f575b5f5ffd5b61004b61009d565b6040516100589190610277565b60405180910390f35b610069610133565b6040516100769190610277565b60405180910390f35b6100876101c9565b6040516100949190610277565b60405180910390f35b5f600115155f1515146100e5576040517f08c379a00000000000000000000000000000000000000000000000000000000081526004016100dc906102ea565b60405180910390fd5b5f1515600115151461012c576040517f08c379a000000000000000000000000000000000000000000000000000000000815260040161012390610352565b60405180910390fd5b6001905090565b5f600115155f15151461017b576040517f08c379a0000000000000000000000000000000000000000000000000000000008152600401610172906102ea565b60405180910390fd5b5f151560011515146101c2576040517f08c379a00000000000000000000000000000000000000000000000000000000081526004016101b990610352565b60405180910390fd5b6003905090565b5f600115155f151514610211576040517f08c379a0000000000000000000000000000000000000000000000000000000008152600401610208906102ea565b60405180910390fd5b5f15156001151514610258576040517f08c379a000000000000000000000000000000000000000000000000000000000815260040161024f90610352565b60405180910390fd5b6002905090565b5f819050919050565b6102718161025f565b82525050565b5f60208201905061028a5f830184610268565b92915050565b5f82825260208201905092915050565b7f66616c736520206973206e6f74207472756500000000000000000000000000005f82015250565b5f6102d4601283610290565b91506102df826102a0565b602082019050919050565b5f6020820190508181035f830152610301816102c8565b9050919050565b7f74727565206973206e6f742066616c73650000000000000000000000000000005f82015250565b5f61033c601183610290565b915061034782610308565b602082019050919050565b5f6020820190508181035f83015261036981610330565b905091905056fea2646970667358221220f6854283b39c136925d3eb4793711c0527400259d5723ff16a7151e2d343d75064736f6c634300081e0033",
					"opcodes": "PUSH1 0x80 PUSH1 0x40 MSTORE CALLVALUE DUP1 ISZERO PUSH1 0xE JUMPI PUSH0 PUSH0 REVERT JUMPDEST POP PUSH2 0x3A6 DUP1 PUSH2 0x1C PUSH0 CODECOPY PUSH0 RETURN INVALID PUSH1 0x80 PUSH1 0x40 MSTORE CALLVALUE DUP1 ISZERO PUSH2 0xF JUMPI PUSH0 PUSH0 REVERT JUMPDEST POP PUSH1 0x4 CALLDATASIZE LT PUSH2 0x3F JUMPI PUSH0 CALLDATALOAD PUSH1 0xE0 SHR DUP1 PUSH4 0x1B5E8B93 EQ PUSH2 0x43 JUMPI DUP1 PUSH4 0x89AC3851 EQ PUSH2 0x61 JUMPI DUP1 PUSH4 0xA548DAF6 EQ PUSH2 0x7F JUMPI JUMPDEST PUSH0 PUSH0 REVERT JUMPDEST PUSH2 0x4B PUSH2 0x9D JUMP JUMPDEST PUSH1 0x40 MLOAD PUSH2 0x58 SWAP2 SWAP1 PUSH2 0x277 JUMP JUMPDEST PUSH1 0x40 MLOAD DUP1 SWAP2 SUB SWAP1 RETURN JUMPDEST PUSH2 0x69 PUSH2 0x133 JUMP JUMPDEST PUSH1 0x40 MLOAD PUSH2 0x76 SWAP2 SWAP1 PUSH2 0x277 JUMP JUMPDEST PUSH1 0x40 MLOAD DUP1 SWAP2 SUB SWAP1 RETURN JUMPDEST PUSH2 0x87 PUSH2 0x1C9 JUMP JUMPDEST PUSH1 0x40 MLOAD PUSH2 0x94 SWAP2 SWAP1 PUSH2 0x277 JUMP JUMPDEST PUSH1 0x40 MLOAD DUP1 SWAP2 SUB SWAP1 RETURN JUMPDEST PUSH0 PUSH1 0x1 ISZERO ISZERO PUSH0 ISZERO ISZERO EQ PUSH2 0xE5 JUMPI PUSH1 0x40 MLOAD PUSH32 0x8C379A000000000000000000000000000000000000000000000000000000000 DUP2 MSTORE PUSH1 0x4 ADD PUSH2 0xDC SWAP1 PUSH2 0x2EA JUMP JUMPDEST PUSH1 0x40 MLOAD DUP1 SWAP2 SUB SWAP1 REVERT JUMPDEST PUSH0 ISZERO ISZERO PUSH1 0x1 ISZERO ISZERO EQ PUSH2 0x12C JUMPI PUSH1 0x40 MLOAD PUSH32 0x8C379A000000000000000000000000000000000000000000000000000000000 DUP2 MSTORE PUSH1 0x4 ADD PUSH2 0x123 SWAP1 PUSH2 0x352 JUMP JUMPDEST PUSH1 0x40 MLOAD DUP1 SWAP2 SUB SWAP1 REVERT JUMPDEST PUSH1 0x1 SWAP1 POP SWAP1 JUMP JUMPDEST PUSH0 PUSH1 0x1 ISZERO ISZERO PUSH0 ISZERO ISZERO EQ PUSH2 0x17B JUMPI PUSH1 0x40 MLOAD PUSH32 0x8C379A000000000000000000000000000000000000000000000000000000000 DUP2 MSTORE PUSH1 0x4 ADD PUSH2 0x172 SWAP1 PUSH2 0x2EA JUMP JUMPDEST PUSH1 0x40 MLOAD DUP1 SWAP2 SUB SWAP1 REVERT JUMPDEST PUSH0 ISZERO ISZERO PUSH1 0x1 ISZERO ISZERO EQ PUSH2 0x1C2 JUMPI PUSH1 0x40 MLOAD PUSH32 0x8C379A000000000000000000000000000000000000000000000000000000000 DUP2 MSTORE PUSH1 0x4 ADD PUSH2 0x1B9 SWAP1 PUSH2 0x352 JUMP JUMPDEST PUSH1 0x40 MLOAD DUP1 SWAP2 SUB SWAP1 REVERT JUMPDEST PUSH1 0x3 SWAP1 POP SWAP1 JUMP JUMPDEST PUSH0 PUSH1 0x1 ISZERO ISZERO PUSH0 ISZERO ISZERO EQ PUSH2 0x211 JUMPI PUSH1 0x40 MLOAD PUSH32 0x8C379A000000000000000000000000000000000000000000000000000000000 DUP2 MSTORE PUSH1 0x4 ADD PUSH2 0x208 SWAP1 PUSH2 0x2EA JUMP JUMPDEST PUSH1 0x40 MLOAD DUP1 SWAP2 SUB SWAP1 REVERT JUMPDEST PUSH0 ISZERO ISZERO PUSH1 0x1 ISZERO ISZERO EQ PUSH2 0x258 JUMPI PUSH1 0x40 MLOAD PUSH32 0x8C379A000000000000000000000000000000000000000000000000000000000 DUP2 MSTORE PUSH1 0x4 ADD PUSH2 0x24F SWAP1 PUSH2 0x352 JUMP JUMPDEST PUSH1 0x40 MLOAD DUP1 SWAP2 SUB SWAP1 REVERT JUMPDEST PUSH1 0x2 SWAP1 POP SWAP1 JUMP JUMPDEST PUSH0 DUP2 SWAP1 POP SWAP2 SWAP1 POP JUMP JUMPDEST PUSH2 0x271 DUP2 PUSH2 0x25F JUMP JUMPDEST DUP3 MSTORE POP POP JUMP JUMPDEST PUSH0 PUSH1 0x20 DUP3 ADD SWAP1 POP PUSH2 0x28A PUSH0 DUP4 ADD DUP5 PUSH2 0x268 JUMP JUMPDEST SWAP3 SWAP2 POP POP JUMP JUMPDEST PUSH0 DUP3 DUP3 MSTORE PUSH1 0x20 DUP3 ADD SWAP1 POP SWAP3 SWAP2 POP POP JUMP JUMPDEST PUSH32 0x66616C736520206973206E6F7420747275650000000000000000000000000000 PUSH0 DUP3 ADD MSTORE POP JUMP JUMPDEST PUSH0 PUSH2 0x2D4 PUSH1 0x12 DUP4 PUSH2 0x290 JUMP JUMPDEST SWAP2 POP PUSH2 0x2DF DUP3 PUSH2 0x2A0 JUMP JUMPDEST PUSH1 0x20 DUP3 ADD SWAP1 POP SWAP2 SWAP1 POP JUMP JUMPDEST PUSH0 PUSH1 0x20 DUP3 ADD SWAP1 POP DUP2 DUP2 SUB PUSH0 DUP4 ADD MSTORE PUSH2 0x301 DUP2 PUSH2 0x2C8 JUMP JUMPDEST SWAP1 POP SWAP2 SWAP1 POP JUMP JUMPDEST PUSH32 0x74727565206973206E6F742066616C7365000000000000000000000000000000 PUSH0 DUP3 ADD MSTORE POP JUMP JUMPDEST PUSH0 PUSH2 0x33C PUSH1 0x11 DUP4 PUSH2 0x290 JUMP JUMPDEST SWAP2 POP PUSH2 0x347 DUP3 PUSH2 0x308 JUMP JUMPDEST PUSH1 0x20 DUP3 ADD SWAP1 POP SWAP2 SWAP1 POP JUMP JUMPDEST PUSH0 PUSH1 0x20 DUP3 ADD SWAP1 POP DUP2 DUP2 SUB PUSH0 DUP4 ADD MSTORE PUSH2 0x369 DUP2 PUSH2 0x330 JUMP JUMPDEST SWAP1 POP SWAP2 SWAP1 POP JUMP INVALID LOG2 PUSH5 0x6970667358 0x22 SLT KECCAK256 0xF6 DUP6 TIMESTAMP DUP4 0xB3 SWAP13 SGT PUSH10 0x25D3EB4793711C052740 MUL MSIZE 0xD5 PUSH19 0x3FF16A7151E2D343D75064736F6C634300081E STOP CALLER "
				},
				"gasEstimates": {
					"creation": {
						"codeDepositCost": "186800",
						"executionCost": "230",
						"totalCost": "187030"
					},
					"external": {
						"check1()": "441",
						"check2()": "485",
						"check3()": "463"
					}
				},
				"methodIdentifiers": {
					"check1()": "1b5e8b93",
					"check2()": "a548daf6",
					"check3()": "89ac3851"
				}
			},
			"storageLayout": {
				"storage": [],
				"types": null
			},
			"userdoc": {
				"kind": "user",
				"methods": {},
				"version": 1
			}
		}
	}
}