{
	"contracts/Intermediate/mapping.sol": {
		"mappingExample": {
			"abi": [
				{
					"inputs": [
						{
							"internalType": "uint256",
							"name": "_value",
							"type": "uint256"
						},
						{
							"internalType": "string",
							"name": "_key",
							"type": "string"
						}
					],
					"name": "insertData",
					"outputs": [],
					"stateMutability": "nonpayable",
					"type": "function"
				},
				{
					"inputs": [
						{
							"internalType": "uint256",
							"name": "_value",
							"type": "uint256"
						}
					],
					"name": "removeValue",
					"outputs": [],
					"stateMutability": "nonpayable",
					"type": "function"
				},
				{
					"inputs": [
						{
							"internalType": "uint256",
							"name": "",
							"type": "uint256"
						}
					],
					"name": "studentDetails",
					"outputs": [
						{
							"internalType": "string",
							"name": "",
							"type": "string"
						}
					],
					"stateMutability": "view",
					"type": "function"
				}
			],
			"devdoc": {
				"kind": "dev",
				"methods": {},
				"version": 1
			},
			"evm": {
				"assembly": "    /* \"contracts/Intermediate/mapping.sol\":74:372  contract mappingExample{... */\n  mstore(0x40, 0x80)\n  callvalue\n  dup1\n  iszero\n  tag_1\n  jumpi\n  revert(0x00, 0x00)\ntag_1:\n  pop\n  dataSize(sub_0)\n  dup1\n  dataOffset(sub_0)\n  0x00\n  codecopy\n  0x00\n  return\nstop\n\nsub_0: assembly {\n        /* \"contracts/Intermediate/mapping.sol\":74:372  contract mappingExample{... */\n      mstore(0x40, 0x80)\n      callvalue\n      dup1\n      iszero\n      tag_1\n      jumpi\n      revert(0x00, 0x00)\n    tag_1:\n      pop\n      jumpi(tag_2, lt(calldatasize, 0x04))\n      shr(0xe0, calldataload(0x00))\n      dup1\n      0x32fa92b2\n      eq\n      tag_3\n      jumpi\n      dup1\n      0xd5427123\n      eq\n      tag_4\n      jumpi\n      dup1\n      0xd5fb052f\n      eq\n      tag_5\n      jumpi\n    tag_2:\n      revert(0x00, 0x00)\n        /* \"contracts/Intermediate/mapping.sol\":274:365  function removeValue(uint _value) external {... */\n    tag_3:\n      tag_6\n      0x04\n      dup1\n      calldatasize\n      sub\n      dup2\n      add\n      swap1\n      tag_7\n      swap2\n      swap1\n      tag_8\n      jump\t// in\n    tag_7:\n      tag_9\n      jump\t// in\n    tag_6:\n      stop\n        /* \"contracts/Intermediate/mapping.sol\":156:268  function insertData(uint _value , string memory _key) external {... */\n    tag_4:\n      tag_10\n      0x04\n      dup1\n      calldatasize\n      sub\n      dup2\n      add\n      swap1\n      tag_11\n      swap2\n      swap1\n      tag_12\n      jump\t// in\n    tag_11:\n      tag_13\n      jump\t// in\n    tag_10:\n      stop\n        /* \"contracts/Intermediate/mapping.sol\":104:149  mapping(uint => string) public studentDetails */\n    tag_5:\n      tag_14\n      0x04\n      dup1\n      calldatasize\n      sub\n      dup2\n      add\n      swap1\n      tag_15\n      swap2\n      swap1\n      tag_8\n      jump\t// in\n    tag_15:\n      tag_16\n      jump\t// in\n    tag_14:\n      mload(0x40)\n      tag_17\n      swap2\n      swap1\n      tag_18\n      jump\t// in\n    tag_17:\n      mload(0x40)\n      dup1\n      swap2\n      sub\n      swap1\n      return\n        /* \"contracts/Intermediate/mapping.sol\":274:365  function removeValue(uint _value) external {... */\n    tag_9:\n        /* \"contracts/Intermediate/mapping.sol\":335:349  studentDetails */\n      0x00\n        /* \"contracts/Intermediate/mapping.sol\":335:357  studentDetails[_value] */\n      0x00\n        /* \"contracts/Intermediate/mapping.sol\":350:356  _value */\n      dup3\n        /* \"contracts/Intermediate/mapping.sol\":335:357  studentDetails[_value] */\n      dup2\n      mstore\n      0x20\n      add\n      swap1\n      dup2\n      mstore\n      0x20\n      add\n      0x00\n      keccak256\n      0x00\n        /* \"contracts/Intermediate/mapping.sol\":328:357  delete studentDetails[_value] */\n      tag_20\n      swap2\n      swap1\n      tag_21\n      jump\t// in\n    tag_20:\n        /* \"contracts/Intermediate/mapping.sol\":274:365  function removeValue(uint _value) external {... */\n      pop\n      jump\t// out\n        /* \"contracts/Intermediate/mapping.sol\":156:268  function insertData(uint _value , string memory _key) external {... */\n    tag_13:\n        /* \"contracts/Intermediate/mapping.sol\":256:260  _key */\n      dup1\n        /* \"contracts/Intermediate/mapping.sol\":230:244  studentDetails */\n      0x00\n        /* \"contracts/Intermediate/mapping.sol\":230:253  studentDetails [_value] */\n      0x00\n        /* \"contracts/Intermediate/mapping.sol\":246:252  _value */\n      dup5\n        /* \"contracts/Intermediate/mapping.sol\":230:253  studentDetails [_value] */\n      dup2\n      mstore\n      0x20\n      add\n      swap1\n      dup2\n      mstore\n      0x20\n      add\n      0x00\n      keccak256\n        /* \"contracts/Intermediate/mapping.sol\":230:260  studentDetails [_value] = _key */\n      swap1\n      dup2\n      tag_23\n      swap2\n      swap1\n      tag_24\n      jump\t// in\n    tag_23:\n      pop\n        /* \"contracts/Intermediate/mapping.sol\":156:268  function insertData(uint _value , string memory _key) external {... */\n      pop\n      pop\n      jump\t// out\n        /* \"contracts/Intermediate/mapping.sol\":104:149  mapping(uint => string) public studentDetails */\n    tag_16:\n      mstore(0x20, 0x00)\n      dup1\n      0x00\n      mstore\n      keccak256(0x00, 0x40)\n      0x00\n      swap2\n      pop\n      swap1\n      pop\n      dup1\n      sload\n      tag_25\n      swap1\n      tag_26\n      jump\t// in\n    tag_25:\n      dup1\n      0x1f\n      add\n      0x20\n      dup1\n      swap2\n      div\n      mul\n      0x20\n      add\n      mload(0x40)\n      swap1\n      dup2\n      add\n      0x40\n      mstore\n      dup1\n      swap3\n      swap2\n      swap1\n      dup2\n      dup2\n      mstore\n      0x20\n      add\n      dup3\n      dup1\n      sload\n      tag_27\n      swap1\n      tag_26\n      jump\t// in\n    tag_27:\n      dup1\n      iszero\n      tag_28\n      jumpi\n      dup1\n      0x1f\n      lt\n      tag_29\n      jumpi\n      0x0100\n      dup1\n      dup4\n      sload\n      div\n      mul\n      dup4\n      mstore\n      swap2\n      0x20\n      add\n      swap2\n      jump(tag_28)\n    tag_29:\n      dup3\n      add\n      swap2\n      swap1\n      0x00\n      mstore\n      keccak256(0x00, 0x20)\n      swap1\n    tag_30:\n      dup2\n      sload\n      dup2\n      mstore\n      swap1\n      0x01\n      add\n      swap1\n      0x20\n      add\n      dup1\n      dup4\n      gt\n      tag_30\n      jumpi\n      dup3\n      swap1\n      sub\n      0x1f\n      and\n      dup3\n      add\n      swap2\n    tag_28:\n      pop\n      pop\n      pop\n      pop\n      pop\n      dup2\n      jump\t// out\n    tag_21:\n      pop\n      dup1\n      sload\n      tag_31\n      swap1\n      tag_26\n      jump\t// in\n    tag_31:\n      0x00\n      dup3\n      sstore\n      dup1\n      0x1f\n      lt\n      tag_33\n      jumpi\n      pop\n      jump(tag_32)\n    tag_33:\n      0x1f\n      add\n      0x20\n      swap1\n      div\n      swap1\n      0x00\n      mstore\n      keccak256(0x00, 0x20)\n      swap1\n      dup2\n      add\n      swap1\n      tag_34\n      swap2\n      swap1\n      tag_35\n      jump\t// in\n    tag_34:\n    tag_32:\n      pop\n      jump\t// out\n    tag_35:\n    tag_36:\n      dup1\n      dup3\n      gt\n      iszero\n      tag_37\n      jumpi\n      0x00\n      dup2\n      0x00\n      swap1\n      sstore\n      pop\n      0x01\n      add\n      jump(tag_36)\n    tag_37:\n      pop\n      swap1\n      jump\t// out\n        /* \"#utility.yul\":7:82   */\n    tag_38:\n        /* \"#utility.yul\":40:46   */\n      0x00\n        /* \"#utility.yul\":73:75   */\n      0x40\n        /* \"#utility.yul\":67:76   */\n      mload\n        /* \"#utility.yul\":57:76   */\n      swap1\n      pop\n        /* \"#utility.yul\":7:82   */\n      swap1\n      jump\t// out\n        /* \"#utility.yul\":88:205   */\n    tag_39:\n        /* \"#utility.yul\":197:198   */\n      0x00\n        /* \"#utility.yul\":194:195   */\n      0x00\n        /* \"#utility.yul\":187:199   */\n      revert\n        /* \"#utility.yul\":211:328   */\n    tag_40:\n        /* \"#utility.yul\":320:321   */\n      0x00\n        /* \"#utility.yul\":317:318   */\n      0x00\n        /* \"#utility.yul\":310:322   */\n      revert\n        /* \"#utility.yul\":334:411   */\n    tag_41:\n        /* \"#utility.yul\":371:378   */\n      0x00\n        /* \"#utility.yul\":400:405   */\n      dup2\n        /* \"#utility.yul\":389:405   */\n      swap1\n      pop\n        /* \"#utility.yul\":334:411   */\n      swap2\n      swap1\n      pop\n      jump\t// out\n        /* \"#utility.yul\":417:539   */\n    tag_42:\n        /* \"#utility.yul\":490:514   */\n      tag_80\n        /* \"#utility.yul\":508:513   */\n      dup2\n        /* \"#utility.yul\":490:514   */\n      tag_41\n      jump\t// in\n    tag_80:\n        /* \"#utility.yul\":483:488   */\n      dup2\n        /* \"#utility.yul\":480:515   */\n      eq\n        /* \"#utility.yul\":470:533   */\n      tag_81\n      jumpi\n        /* \"#utility.yul\":529:530   */\n      0x00\n        /* \"#utility.yul\":526:527   */\n      0x00\n        /* \"#utility.yul\":519:531   */\n      revert\n        /* \"#utility.yul\":470:533   */\n    tag_81:\n        /* \"#utility.yul\":417:539   */\n      pop\n      jump\t// out\n        /* \"#utility.yul\":545:684   */\n    tag_43:\n        /* \"#utility.yul\":591:596   */\n      0x00\n        /* \"#utility.yul\":629:635   */\n      dup2\n        /* \"#utility.yul\":616:636   */\n      calldataload\n        /* \"#utility.yul\":607:636   */\n      swap1\n      pop\n        /* \"#utility.yul\":645:678   */\n      tag_83\n        /* \"#utility.yul\":672:677   */\n      dup2\n        /* \"#utility.yul\":645:678   */\n      tag_42\n      jump\t// in\n    tag_83:\n        /* \"#utility.yul\":545:684   */\n      swap3\n      swap2\n      pop\n      pop\n      jump\t// out\n        /* \"#utility.yul\":690:1019   */\n    tag_8:\n        /* \"#utility.yul\":749:755   */\n      0x00\n        /* \"#utility.yul\":798:800   */\n      0x20\n        /* \"#utility.yul\":786:795   */\n      dup3\n        /* \"#utility.yul\":777:784   */\n      dup5\n        /* \"#utility.yul\":773:796   */\n      sub\n        /* \"#utility.yul\":769:801   */\n      slt\n        /* \"#utility.yul\":766:885   */\n      iszero\n      tag_85\n      jumpi\n        /* \"#utility.yul\":804:883   */\n      tag_86\n      tag_39\n      jump\t// in\n    tag_86:\n        /* \"#utility.yul\":766:885   */\n    tag_85:\n        /* \"#utility.yul\":924:925   */\n      0x00\n        /* \"#utility.yul\":949:1002   */\n      tag_87\n        /* \"#utility.yul\":994:1001   */\n      dup5\n        /* \"#utility.yul\":985:991   */\n      dup3\n        /* \"#utility.yul\":974:983   */\n      dup6\n        /* \"#utility.yul\":970:992   */\n      add\n        /* \"#utility.yul\":949:1002   */\n      tag_43\n      jump\t// in\n    tag_87:\n        /* \"#utility.yul\":939:1002   */\n      swap2\n      pop\n        /* \"#utility.yul\":895:1012   */\n      pop\n        /* \"#utility.yul\":690:1019   */\n      swap3\n      swap2\n      pop\n      pop\n      jump\t// out\n        /* \"#utility.yul\":1025:1142   */\n    tag_44:\n        /* \"#utility.yul\":1134:1135   */\n      0x00\n        /* \"#utility.yul\":1131:1132   */\n      0x00\n        /* \"#utility.yul\":1124:1136   */\n      revert\n        /* \"#utility.yul\":1148:1265   */\n    tag_45:\n        /* \"#utility.yul\":1257:1258   */\n      0x00\n        /* \"#utility.yul\":1254:1255   */\n      0x00\n        /* \"#utility.yul\":1247:1259   */\n      revert\n        /* \"#utility.yul\":1271:1373   */\n    tag_46:\n        /* \"#utility.yul\":1312:1318   */\n      0x00\n        /* \"#utility.yul\":1363:1365   */\n      0x1f\n        /* \"#utility.yul\":1359:1366   */\n      not\n        /* \"#utility.yul\":1354:1356   */\n      0x1f\n        /* \"#utility.yul\":1347:1352   */\n      dup4\n        /* \"#utility.yul\":1343:1357   */\n      add\n        /* \"#utility.yul\":1339:1367   */\n      and\n        /* \"#utility.yul\":1329:1367   */\n      swap1\n      pop\n        /* \"#utility.yul\":1271:1373   */\n      swap2\n      swap1\n      pop\n      jump\t// out\n        /* \"#utility.yul\":1379:1559   */\n    tag_47:\n        /* \"#utility.yul\":1427:1504   */\n      0x4e487b7100000000000000000000000000000000000000000000000000000000\n        /* \"#utility.yul\":1424:1425   */\n      0x00\n        /* \"#utility.yul\":1417:1505   */\n      mstore\n        /* \"#utility.yul\":1524:1528   */\n      0x41\n        /* \"#utility.yul\":1521:1522   */\n      0x04\n        /* \"#utility.yul\":1514:1529   */\n      mstore\n        /* \"#utility.yul\":1548:1552   */\n      0x24\n        /* \"#utility.yul\":1545:1546   */\n      0x00\n        /* \"#utility.yul\":1538:1553   */\n      revert\n        /* \"#utility.yul\":1565:1846   */\n    tag_48:\n        /* \"#utility.yul\":1648:1675   */\n      tag_93\n        /* \"#utility.yul\":1670:1674   */\n      dup3\n        /* \"#utility.yul\":1648:1675   */\n      tag_46\n      jump\t// in\n    tag_93:\n        /* \"#utility.yul\":1640:1646   */\n      dup2\n        /* \"#utility.yul\":1636:1676   */\n      add\n        /* \"#utility.yul\":1778:1784   */\n      dup2\n        /* \"#utility.yul\":1766:1776   */\n      dup2\n        /* \"#utility.yul\":1763:1785   */\n      lt\n        /* \"#utility.yul\":1742:1760   */\n      0xffffffffffffffff\n        /* \"#utility.yul\":1730:1740   */\n      dup3\n        /* \"#utility.yul\":1727:1761   */\n      gt\n        /* \"#utility.yul\":1724:1786   */\n      or\n        /* \"#utility.yul\":1721:1809   */\n      iszero\n      tag_94\n      jumpi\n        /* \"#utility.yul\":1789:1807   */\n      tag_95\n      tag_47\n      jump\t// in\n    tag_95:\n        /* \"#utility.yul\":1721:1809   */\n    tag_94:\n        /* \"#utility.yul\":1829:1839   */\n      dup1\n        /* \"#utility.yul\":1825:1827   */\n      0x40\n        /* \"#utility.yul\":1818:1840   */\n      mstore\n        /* \"#utility.yul\":1608:1846   */\n      pop\n        /* \"#utility.yul\":1565:1846   */\n      pop\n      pop\n      jump\t// out\n        /* \"#utility.yul\":1852:1981   */\n    tag_49:\n        /* \"#utility.yul\":1886:1892   */\n      0x00\n        /* \"#utility.yul\":1913:1933   */\n      tag_97\n      tag_38\n      jump\t// in\n    tag_97:\n        /* \"#utility.yul\":1903:1933   */\n      swap1\n      pop\n        /* \"#utility.yul\":1942:1975   */\n      tag_98\n        /* \"#utility.yul\":1970:1974   */\n      dup3\n        /* \"#utility.yul\":1962:1968   */\n      dup3\n        /* \"#utility.yul\":1942:1975   */\n      tag_48\n      jump\t// in\n    tag_98:\n        /* \"#utility.yul\":1852:1981   */\n      swap2\n      swap1\n      pop\n      jump\t// out\n        /* \"#utility.yul\":1987:2295   */\n    tag_50:\n        /* \"#utility.yul\":2049:2053   */\n      0x00\n        /* \"#utility.yul\":2139:2157   */\n      0xffffffffffffffff\n        /* \"#utility.yul\":2131:2137   */\n      dup3\n        /* \"#utility.yul\":2128:2158   */\n      gt\n        /* \"#utility.yul\":2125:2181   */\n      iszero\n      tag_100\n      jumpi\n        /* \"#utility.yul\":2161:2179   */\n      tag_101\n      tag_47\n      jump\t// in\n    tag_101:\n        /* \"#utility.yul\":2125:2181   */\n    tag_100:\n        /* \"#utility.yul\":2199:2228   */\n      tag_102\n        /* \"#utility.yul\":2221:2227   */\n      dup3\n        /* \"#utility.yul\":2199:2228   */\n      tag_46\n      jump\t// in\n    tag_102:\n        /* \"#utility.yul\":2191:2228   */\n      swap1\n      pop\n        /* \"#utility.yul\":2283:2287   */\n      0x20\n        /* \"#utility.yul\":2277:2281   */\n      dup2\n        /* \"#utility.yul\":2273:2288   */\n      add\n        /* \"#utility.yul\":2265:2288   */\n      swap1\n      pop\n        /* \"#utility.yul\":1987:2295   */\n      swap2\n      swap1\n      pop\n      jump\t// out\n        /* \"#utility.yul\":2301:2449   */\n    tag_51:\n        /* \"#utility.yul\":2399:2405   */\n      dup3\n        /* \"#utility.yul\":2394:2397   */\n      dup2\n        /* \"#utility.yul\":2389:2392   */\n      dup4\n        /* \"#utility.yul\":2376:2406   */\n      calldatacopy\n        /* \"#utility.yul\":2440:2441   */\n      0x00\n        /* \"#utility.yul\":2431:2437   */\n      dup4\n        /* \"#utility.yul\":2426:2429   */\n      dup4\n        /* \"#utility.yul\":2422:2438   */\n      add\n        /* \"#utility.yul\":2415:2442   */\n      mstore\n        /* \"#utility.yul\":2301:2449   */\n      pop\n      pop\n      pop\n      jump\t// out\n        /* \"#utility.yul\":2455:2880   */\n    tag_52:\n        /* \"#utility.yul\":2533:2538   */\n      0x00\n        /* \"#utility.yul\":2558:2624   */\n      tag_105\n        /* \"#utility.yul\":2574:2623   */\n      tag_106\n        /* \"#utility.yul\":2616:2622   */\n      dup5\n        /* \"#utility.yul\":2574:2623   */\n      tag_50\n      jump\t// in\n    tag_106:\n        /* \"#utility.yul\":2558:2624   */\n      tag_49\n      jump\t// in\n    tag_105:\n        /* \"#utility.yul\":2549:2624   */\n      swap1\n      pop\n        /* \"#utility.yul\":2647:2653   */\n      dup3\n        /* \"#utility.yul\":2640:2645   */\n      dup2\n        /* \"#utility.yul\":2633:2654   */\n      mstore\n        /* \"#utility.yul\":2685:2689   */\n      0x20\n        /* \"#utility.yul\":2678:2683   */\n      dup2\n        /* \"#utility.yul\":2674:2690   */\n      add\n        /* \"#utility.yul\":2723:2726   */\n      dup5\n        /* \"#utility.yul\":2714:2720   */\n      dup5\n        /* \"#utility.yul\":2709:2712   */\n      dup5\n        /* \"#utility.yul\":2705:2721   */\n      add\n        /* \"#utility.yul\":2702:2727   */\n      gt\n        /* \"#utility.yul\":2699:2811   */\n      iszero\n      tag_107\n      jumpi\n        /* \"#utility.yul\":2730:2809   */\n      tag_108\n      tag_45\n      jump\t// in\n    tag_108:\n        /* \"#utility.yul\":2699:2811   */\n    tag_107:\n        /* \"#utility.yul\":2820:2874   */\n      tag_109\n        /* \"#utility.yul\":2867:2873   */\n      dup5\n        /* \"#utility.yul\":2862:2865   */\n      dup3\n        /* \"#utility.yul\":2857:2860   */\n      dup6\n        /* \"#utility.yul\":2820:2874   */\n      tag_51\n      jump\t// in\n    tag_109:\n        /* \"#utility.yul\":2539:2880   */\n      pop\n        /* \"#utility.yul\":2455:2880   */\n      swap4\n      swap3\n      pop\n      pop\n      pop\n      jump\t// out\n        /* \"#utility.yul\":2900:3240   */\n    tag_53:\n        /* \"#utility.yul\":2956:2961   */\n      0x00\n        /* \"#utility.yul\":3005:3008   */\n      dup3\n        /* \"#utility.yul\":2998:3002   */\n      0x1f\n        /* \"#utility.yul\":2990:2996   */\n      dup4\n        /* \"#utility.yul\":2986:3003   */\n      add\n        /* \"#utility.yul\":2982:3009   */\n      slt\n        /* \"#utility.yul\":2972:3094   */\n      tag_111\n      jumpi\n        /* \"#utility.yul\":3013:3092   */\n      tag_112\n      tag_44\n      jump\t// in\n    tag_112:\n        /* \"#utility.yul\":2972:3094   */\n    tag_111:\n        /* \"#utility.yul\":3130:3136   */\n      dup2\n        /* \"#utility.yul\":3117:3137   */\n      calldataload\n        /* \"#utility.yul\":3155:3234   */\n      tag_113\n        /* \"#utility.yul\":3230:3233   */\n      dup5\n        /* \"#utility.yul\":3222:3228   */\n      dup3\n        /* \"#utility.yul\":3215:3219   */\n      0x20\n        /* \"#utility.yul\":3207:3213   */\n      dup7\n        /* \"#utility.yul\":3203:3220   */\n      add\n        /* \"#utility.yul\":3155:3234   */\n      tag_52\n      jump\t// in\n    tag_113:\n        /* \"#utility.yul\":3146:3234   */\n      swap2\n      pop\n        /* \"#utility.yul\":2962:3240   */\n      pop\n        /* \"#utility.yul\":2900:3240   */\n      swap3\n      swap2\n      pop\n      pop\n      jump\t// out\n        /* \"#utility.yul\":3246:3900   */\n    tag_12:\n        /* \"#utility.yul\":3324:3330   */\n      0x00\n        /* \"#utility.yul\":3332:3338   */\n      0x00\n        /* \"#utility.yul\":3381:3383   */\n      0x40\n        /* \"#utility.yul\":3369:3378   */\n      dup4\n        /* \"#utility.yul\":3360:3367   */\n      dup6\n        /* \"#utility.yul\":3356:3379   */\n      sub\n        /* \"#utility.yul\":3352:3384   */\n      slt\n        /* \"#utility.yul\":3349:3468   */\n      iszero\n      tag_115\n      jumpi\n        /* \"#utility.yul\":3387:3466   */\n      tag_116\n      tag_39\n      jump\t// in\n    tag_116:\n        /* \"#utility.yul\":3349:3468   */\n    tag_115:\n        /* \"#utility.yul\":3507:3508   */\n      0x00\n        /* \"#utility.yul\":3532:3585   */\n      tag_117\n        /* \"#utility.yul\":3577:3584   */\n      dup6\n        /* \"#utility.yul\":3568:3574   */\n      dup3\n        /* \"#utility.yul\":3557:3566   */\n      dup7\n        /* \"#utility.yul\":3553:3575   */\n      add\n        /* \"#utility.yul\":3532:3585   */\n      tag_43\n      jump\t// in\n    tag_117:\n        /* \"#utility.yul\":3522:3585   */\n      swap3\n      pop\n        /* \"#utility.yul\":3478:3595   */\n      pop\n        /* \"#utility.yul\":3662:3664   */\n      0x20\n        /* \"#utility.yul\":3651:3660   */\n      dup4\n        /* \"#utility.yul\":3647:3665   */\n      add\n        /* \"#utility.yul\":3634:3666   */\n      calldataload\n        /* \"#utility.yul\":3693:3711   */\n      0xffffffffffffffff\n        /* \"#utility.yul\":3685:3691   */\n      dup2\n        /* \"#utility.yul\":3682:3712   */\n      gt\n        /* \"#utility.yul\":3679:3796   */\n      iszero\n      tag_118\n      jumpi\n        /* \"#utility.yul\":3715:3794   */\n      tag_119\n      tag_40\n      jump\t// in\n    tag_119:\n        /* \"#utility.yul\":3679:3796   */\n    tag_118:\n        /* \"#utility.yul\":3820:3883   */\n      tag_120\n        /* \"#utility.yul\":3875:3882   */\n      dup6\n        /* \"#utility.yul\":3866:3872   */\n      dup3\n        /* \"#utility.yul\":3855:3864   */\n      dup7\n        /* \"#utility.yul\":3851:3873   */\n      add\n        /* \"#utility.yul\":3820:3883   */\n      tag_53\n      jump\t// in\n    tag_120:\n        /* \"#utility.yul\":3810:3883   */\n      swap2\n      pop\n        /* \"#utility.yul\":3605:3893   */\n      pop\n        /* \"#utility.yul\":3246:3900   */\n      swap3\n      pop\n      swap3\n      swap1\n      pop\n      jump\t// out\n        /* \"#utility.yul\":3906:4005   */\n    tag_54:\n        /* \"#utility.yul\":3958:3964   */\n      0x00\n        /* \"#utility.yul\":3992:3997   */\n      dup2\n        /* \"#utility.yul\":3986:3998   */\n      mload\n        /* \"#utility.yul\":3976:3998   */\n      swap1\n      pop\n        /* \"#utility.yul\":3906:4005   */\n      swap2\n      swap1\n      pop\n      jump\t// out\n        /* \"#utility.yul\":4011:4180   */\n    tag_55:\n        /* \"#utility.yul\":4095:4106   */\n      0x00\n        /* \"#utility.yul\":4129:4135   */\n      dup3\n        /* \"#utility.yul\":4124:4127   */\n      dup3\n        /* \"#utility.yul\":4117:4136   */\n      mstore\n        /* \"#utility.yul\":4169:4173   */\n      0x20\n        /* \"#utility.yul\":4164:4167   */\n      dup3\n        /* \"#utility.yul\":4160:4174   */\n      add\n        /* \"#utility.yul\":4145:4174   */\n      swap1\n      pop\n        /* \"#utility.yul\":4011:4180   */\n      swap3\n      swap2\n      pop\n      pop\n      jump\t// out\n        /* \"#utility.yul\":4186:4325   */\n    tag_56:\n        /* \"#utility.yul\":4275:4281   */\n      dup3\n        /* \"#utility.yul\":4270:4273   */\n      dup2\n        /* \"#utility.yul\":4265:4268   */\n      dup4\n        /* \"#utility.yul\":4259:4282   */\n      mcopy\n        /* \"#utility.yul\":4316:4317   */\n      0x00\n        /* \"#utility.yul\":4307:4313   */\n      dup4\n        /* \"#utility.yul\":4302:4305   */\n      dup4\n        /* \"#utility.yul\":4298:4314   */\n      add\n        /* \"#utility.yul\":4291:4318   */\n      mstore\n        /* \"#utility.yul\":4186:4325   */\n      pop\n      pop\n      pop\n      jump\t// out\n        /* \"#utility.yul\":4331:4708   */\n    tag_57:\n        /* \"#utility.yul\":4419:4422   */\n      0x00\n        /* \"#utility.yul\":4447:4486   */\n      tag_125\n        /* \"#utility.yul\":4480:4485   */\n      dup3\n        /* \"#utility.yul\":4447:4486   */\n      tag_54\n      jump\t// in\n    tag_125:\n        /* \"#utility.yul\":4502:4573   */\n      tag_126\n        /* \"#utility.yul\":4566:4572   */\n      dup2\n        /* \"#utility.yul\":4561:4564   */\n      dup6\n        /* \"#utility.yul\":4502:4573   */\n      tag_55\n      jump\t// in\n    tag_126:\n        /* \"#utility.yul\":4495:4573   */\n      swap4\n      pop\n        /* \"#utility.yul\":4582:4647   */\n      tag_127\n        /* \"#utility.yul\":4640:4646   */\n      dup2\n        /* \"#utility.yul\":4635:4638   */\n      dup6\n        /* \"#utility.yul\":4628:4632   */\n      0x20\n        /* \"#utility.yul\":4621:4626   */\n      dup7\n        /* \"#utility.yul\":4617:4633   */\n      add\n        /* \"#utility.yul\":4582:4647   */\n      tag_56\n      jump\t// in\n    tag_127:\n        /* \"#utility.yul\":4672:4701   */\n      tag_128\n        /* \"#utility.yul\":4694:4700   */\n      dup2\n        /* \"#utility.yul\":4672:4701   */\n      tag_46\n      jump\t// in\n    tag_128:\n        /* \"#utility.yul\":4667:4670   */\n      dup5\n        /* \"#utility.yul\":4663:4702   */\n      add\n        /* \"#utility.yul\":4656:4702   */\n      swap2\n      pop\n        /* \"#utility.yul\":4423:4708   */\n      pop\n        /* \"#utility.yul\":4331:4708   */\n      swap3\n      swap2\n      pop\n      pop\n      jump\t// out\n        /* \"#utility.yul\":4714:5027   */\n    tag_18:\n        /* \"#utility.yul\":4827:4831   */\n      0x00\n        /* \"#utility.yul\":4865:4867   */\n      0x20\n        /* \"#utility.yul\":4854:4863   */\n      dup3\n        /* \"#utility.yul\":4850:4868   */\n      add\n        /* \"#utility.yul\":4842:4868   */\n      swap1\n      pop\n        /* \"#utility.yul\":4914:4923   */\n      dup2\n        /* \"#utility.yul\":4908:4912   */\n      dup2\n        /* \"#utility.yul\":4904:4924   */\n      sub\n        /* \"#utility.yul\":4900:4901   */\n      0x00\n        /* \"#utility.yul\":4889:4898   */\n      dup4\n        /* \"#utility.yul\":4885:4902   */\n      add\n        /* \"#utility.yul\":4878:4925   */\n      mstore\n        /* \"#utility.yul\":4942:5020   */\n      tag_130\n        /* \"#utility.yul\":5015:5019   */\n      dup2\n        /* \"#utility.yul\":5006:5012   */\n      dup5\n        /* \"#utility.yul\":4942:5020   */\n      tag_57\n      jump\t// in\n    tag_130:\n        /* \"#utility.yul\":4934:5020   */\n      swap1\n      pop\n        /* \"#utility.yul\":4714:5027   */\n      swap3\n      swap2\n      pop\n      pop\n      jump\t// out\n        /* \"#utility.yul\":5033:5213   */\n    tag_58:\n        /* \"#utility.yul\":5081:5158   */\n      0x4e487b7100000000000000000000000000000000000000000000000000000000\n        /* \"#utility.yul\":5078:5079   */\n      0x00\n        /* \"#utility.yul\":5071:5159   */\n      mstore\n        /* \"#utility.yul\":5178:5182   */\n      0x22\n        /* \"#utility.yul\":5175:5176   */\n      0x04\n        /* \"#utility.yul\":5168:5183   */\n      mstore\n        /* \"#utility.yul\":5202:5206   */\n      0x24\n        /* \"#utility.yul\":5199:5200   */\n      0x00\n        /* \"#utility.yul\":5192:5207   */\n      revert\n        /* \"#utility.yul\":5219:5539   */\n    tag_26:\n        /* \"#utility.yul\":5263:5269   */\n      0x00\n        /* \"#utility.yul\":5300:5301   */\n      0x02\n        /* \"#utility.yul\":5294:5298   */\n      dup3\n        /* \"#utility.yul\":5290:5302   */\n      div\n        /* \"#utility.yul\":5280:5302   */\n      swap1\n      pop\n        /* \"#utility.yul\":5347:5348   */\n      0x01\n        /* \"#utility.yul\":5341:5345   */\n      dup3\n        /* \"#utility.yul\":5337:5349   */\n      and\n        /* \"#utility.yul\":5368:5386   */\n      dup1\n        /* \"#utility.yul\":5358:5439   */\n      tag_133\n      jumpi\n        /* \"#utility.yul\":5424:5428   */\n      0x7f\n        /* \"#utility.yul\":5416:5422   */\n      dup3\n        /* \"#utility.yul\":5412:5429   */\n      and\n        /* \"#utility.yul\":5402:5429   */\n      swap2\n      pop\n        /* \"#utility.yul\":5358:5439   */\n    tag_133:\n        /* \"#utility.yul\":5486:5488   */\n      0x20\n        /* \"#utility.yul\":5478:5484   */\n      dup3\n        /* \"#utility.yul\":5475:5489   */\n      lt\n        /* \"#utility.yul\":5455:5473   */\n      dup2\n        /* \"#utility.yul\":5452:5490   */\n      sub\n        /* \"#utility.yul\":5449:5533   */\n      tag_134\n      jumpi\n        /* \"#utility.yul\":5505:5523   */\n      tag_135\n      tag_58\n      jump\t// in\n    tag_135:\n        /* \"#utility.yul\":5449:5533   */\n    tag_134:\n        /* \"#utility.yul\":5270:5539   */\n      pop\n        /* \"#utility.yul\":5219:5539   */\n      swap2\n      swap1\n      pop\n      jump\t// out\n        /* \"#utility.yul\":5545:5686   */\n    tag_59:\n        /* \"#utility.yul\":5594:5598   */\n      0x00\n        /* \"#utility.yul\":5617:5620   */\n      dup2\n        /* \"#utility.yul\":5609:5620   */\n      swap1\n      pop\n        /* \"#utility.yul\":5640:5643   */\n      dup2\n        /* \"#utility.yul\":5637:5638   */\n      0x00\n        /* \"#utility.yul\":5630:5644   */\n      mstore\n        /* \"#utility.yul\":5674:5678   */\n      0x20\n        /* \"#utility.yul\":5671:5672   */\n      0x00\n        /* \"#utility.yul\":5661:5679   */\n      keccak256\n        /* \"#utility.yul\":5653:5679   */\n      swap1\n      pop\n        /* \"#utility.yul\":5545:5686   */\n      swap2\n      swap1\n      pop\n      jump\t// out\n        /* \"#utility.yul\":5692:5785   */\n    tag_60:\n        /* \"#utility.yul\":5729:5735   */\n      0x00\n        /* \"#utility.yul\":5776:5778   */\n      0x20\n        /* \"#utility.yul\":5771:5773   */\n      0x1f\n        /* \"#utility.yul\":5764:5769   */\n      dup4\n        /* \"#utility.yul\":5760:5774   */\n      add\n        /* \"#utility.yul\":5756:5779   */\n      div\n        /* \"#utility.yul\":5746:5779   */\n      swap1\n      pop\n        /* \"#utility.yul\":5692:5785   */\n      swap2\n      swap1\n      pop\n      jump\t// out\n        /* \"#utility.yul\":5791:5898   */\n    tag_61:\n        /* \"#utility.yul\":5835:5843   */\n      0x00\n        /* \"#utility.yul\":5885:5890   */\n      dup3\n        /* \"#utility.yul\":5879:5883   */\n      dup3\n        /* \"#utility.yul\":5875:5891   */\n      shl\n        /* \"#utility.yul\":5854:5891   */\n      swap1\n      pop\n        /* \"#utility.yul\":5791:5898   */\n      swap3\n      swap2\n      pop\n      pop\n      jump\t// out\n        /* \"#utility.yul\":5904:6297   */\n    tag_62:\n        /* \"#utility.yul\":5973:5979   */\n      0x00\n        /* \"#utility.yul\":6023:6024   */\n      0x08\n        /* \"#utility.yul\":6011:6021   */\n      dup4\n        /* \"#utility.yul\":6007:6025   */\n      mul\n        /* \"#utility.yul\":6046:6143   */\n      tag_140\n        /* \"#utility.yul\":6076:6142   */\n      0xffffffffffffffffffffffffffffffffffffffffffffffffffffffffffffffff\n        /* \"#utility.yul\":6065:6074   */\n      dup3\n        /* \"#utility.yul\":6046:6143   */\n      tag_61\n      jump\t// in\n    tag_140:\n        /* \"#utility.yul\":6164:6203   */\n      tag_141\n        /* \"#utility.yul\":6194:6202   */\n      dup7\n        /* \"#utility.yul\":6183:6192   */\n      dup4\n        /* \"#utility.yul\":6164:6203   */\n      tag_61\n      jump\t// in\n    tag_141:\n        /* \"#utility.yul\":6152:6203   */\n      swap6\n      pop\n        /* \"#utility.yul\":6236:6240   */\n      dup1\n        /* \"#utility.yul\":6232:6241   */\n      not\n        /* \"#utility.yul\":6225:6230   */\n      dup5\n        /* \"#utility.yul\":6221:6242   */\n      and\n        /* \"#utility.yul\":6212:6242   */\n      swap4\n      pop\n        /* \"#utility.yul\":6285:6289   */\n      dup1\n        /* \"#utility.yul\":6275:6283   */\n      dup7\n        /* \"#utility.yul\":6271:6290   */\n      and\n        /* \"#utility.yul\":6264:6269   */\n      dup5\n        /* \"#utility.yul\":6261:6291   */\n      or\n        /* \"#utility.yul\":6251:6291   */\n      swap3\n      pop\n        /* \"#utility.yul\":5980:6297   */\n      pop\n      pop\n        /* \"#utility.yul\":5904:6297   */\n      swap4\n      swap3\n      pop\n      pop\n      pop\n      jump\t// out\n        /* \"#utility.yul\":6303:6363   */\n    tag_63:\n        /* \"#utility.yul\":6331:6334   */\n      0x00\n        /* \"#utility.yul\":6352:6357   */\n      dup2\n        /* \"#utility.yul\":6345:6357   */\n      swap1\n      pop\n        /* \"#utility.yul\":6303:6363   */\n      swap2\n      swap1\n      pop\n      jump\t// out\n        /* \"#utility.yul\":6369:6511   */\n    tag_64:\n        /* \"#utility.yul\":6419:6428   */\n      0x00\n        /* \"#utility.yul\":6452:6505   */\n      tag_144\n        /* \"#utility.yul\":6470:6504   */\n      tag_145\n        /* \"#utility.yul\":6479:6503   */\n      tag_146\n        /* \"#utility.yul\":6497:6502   */\n      dup5\n        /* \"#utility.yul\":6479:6503   */\n      tag_41\n      jump\t// in\n    tag_146:\n        /* \"#utility.yul\":6470:6504   */\n      tag_63\n      jump\t// in\n    tag_145:\n        /* \"#utility.yul\":6452:6505   */\n      tag_41\n      jump\t// in\n    tag_144:\n        /* \"#utility.yul\":6439:6505   */\n      swap1\n      pop\n        /* \"#utility.yul\":6369:6511   */\n      swap2\n      swap1\n      pop\n      jump\t// out\n        /* \"#utility.yul\":6517:6592   */\n    tag_65:\n        /* \"#utility.yul\":6560:6563   */\n      0x00\n        /* \"#utility.yul\":6581:6586   */\n      dup2\n        /* \"#utility.yul\":6574:6586   */\n      swap1\n      pop\n        /* \"#utility.yul\":6517:6592   */\n      swap2\n      swap1\n      pop\n      jump\t// out\n        /* \"#utility.yul\":6598:6867   */\n    tag_66:\n        /* \"#utility.yul\":6708:6747   */\n      tag_149\n        /* \"#utility.yul\":6739:6746   */\n      dup4\n        /* \"#utility.yul\":6708:6747   */\n      tag_64\n      jump\t// in\n    tag_149:\n        /* \"#utility.yul\":6769:6860   */\n      tag_150\n        /* \"#utility.yul\":6818:6859   */\n      tag_151\n        /* \"#utility.yul\":6842:6858   */\n      dup3\n        /* \"#utility.yul\":6818:6859   */\n      tag_65\n      jump\t// in\n    tag_151:\n        /* \"#utility.yul\":6810:6816   */\n      dup5\n        /* \"#utility.yul\":6803:6807   */\n      dup5\n        /* \"#utility.yul\":6797:6808   */\n      sload\n        /* \"#utility.yul\":6769:6860   */\n      tag_62\n      jump\t// in\n    tag_150:\n        /* \"#utility.yul\":6763:6767   */\n      dup3\n        /* \"#utility.yul\":6756:6861   */\n      sstore\n        /* \"#utility.yul\":6674:6867   */\n      pop\n        /* \"#utility.yul\":6598:6867   */\n      pop\n      pop\n      pop\n      jump\t// out\n        /* \"#utility.yul\":6873:6946   */\n    tag_67:\n        /* \"#utility.yul\":6918:6921   */\n      0x00\n        /* \"#utility.yul\":6939:6940   */\n      0x00\n        /* \"#utility.yul\":6932:6940   */\n      swap1\n      pop\n        /* \"#utility.yul\":6873:6946   */\n      swap1\n      jump\t// out\n        /* \"#utility.yul\":6952:7141   */\n    tag_68:\n        /* \"#utility.yul\":7029:7061   */\n      tag_154\n      tag_67\n      jump\t// in\n    tag_154:\n        /* \"#utility.yul\":7070:7135   */\n      tag_155\n        /* \"#utility.yul\":7128:7134   */\n      dup2\n        /* \"#utility.yul\":7120:7126   */\n      dup5\n        /* \"#utility.yul\":7114:7118   */\n      dup5\n        /* \"#utility.yul\":7070:7135   */\n      tag_66\n      jump\t// in\n    tag_155:\n        /* \"#utility.yul\":7005:7141   */\n      pop\n        /* \"#utility.yul\":6952:7141   */\n      pop\n      pop\n      jump\t// out\n        /* \"#utility.yul\":7147:7333   */\n    tag_69:\n        /* \"#utility.yul\":7207:7327   */\n    tag_157:\n        /* \"#utility.yul\":7224:7227   */\n      dup2\n        /* \"#utility.yul\":7217:7222   */\n      dup2\n        /* \"#utility.yul\":7214:7228   */\n      lt\n        /* \"#utility.yul\":7207:7327   */\n      iszero\n      tag_159\n      jumpi\n        /* \"#utility.yul\":7278:7317   */\n      tag_160\n        /* \"#utility.yul\":7315:7316   */\n      0x00\n        /* \"#utility.yul\":7308:7313   */\n      dup3\n        /* \"#utility.yul\":7278:7317   */\n      tag_68\n      jump\t// in\n    tag_160:\n        /* \"#utility.yul\":7251:7252   */\n      0x01\n        /* \"#utility.yul\":7244:7249   */\n      dup2\n        /* \"#utility.yul\":7240:7253   */\n      add\n        /* \"#utility.yul\":7231:7253   */\n      swap1\n      pop\n        /* \"#utility.yul\":7207:7327   */\n      jump(tag_157)\n    tag_159:\n        /* \"#utility.yul\":7147:7333   */\n      pop\n      pop\n      jump\t// out\n        /* \"#utility.yul\":7339:7882   */\n    tag_70:\n        /* \"#utility.yul\":7440:7442   */\n      0x1f\n        /* \"#utility.yul\":7435:7438   */\n      dup3\n        /* \"#utility.yul\":7432:7443   */\n      gt\n        /* \"#utility.yul\":7429:7875   */\n      iszero\n      tag_162\n      jumpi\n        /* \"#utility.yul\":7474:7512   */\n      tag_163\n        /* \"#utility.yul\":7506:7511   */\n      dup2\n        /* \"#utility.yul\":7474:7512   */\n      tag_59\n      jump\t// in\n    tag_163:\n        /* \"#utility.yul\":7558:7587   */\n      tag_164\n        /* \"#utility.yul\":7576:7586   */\n      dup5\n        /* \"#utility.yul\":7558:7587   */\n      tag_60\n      jump\t// in\n    tag_164:\n        /* \"#utility.yul\":7548:7556   */\n      dup2\n        /* \"#utility.yul\":7544:7588   */\n      add\n        /* \"#utility.yul\":7741:7743   */\n      0x20\n        /* \"#utility.yul\":7729:7739   */\n      dup6\n        /* \"#utility.yul\":7726:7744   */\n      lt\n        /* \"#utility.yul\":7723:7772   */\n      iszero\n      tag_165\n      jumpi\n        /* \"#utility.yul\":7762:7770   */\n      dup2\n        /* \"#utility.yul\":7747:7770   */\n      swap1\n      pop\n        /* \"#utility.yul\":7723:7772   */\n    tag_165:\n        /* \"#utility.yul\":7785:7865   */\n      tag_166\n        /* \"#utility.yul\":7841:7863   */\n      tag_167\n        /* \"#utility.yul\":7859:7862   */\n      dup6\n        /* \"#utility.yul\":7841:7863   */\n      tag_60\n      jump\t// in\n    tag_167:\n        /* \"#utility.yul\":7831:7839   */\n      dup4\n        /* \"#utility.yul\":7827:7864   */\n      add\n        /* \"#utility.yul\":7814:7825   */\n      dup3\n        /* \"#utility.yul\":7785:7865   */\n      tag_69\n      jump\t// in\n    tag_166:\n        /* \"#utility.yul\":7444:7875   */\n      pop\n      pop\n        /* \"#utility.yul\":7429:7875   */\n    tag_162:\n        /* \"#utility.yul\":7339:7882   */\n      pop\n      pop\n      pop\n      jump\t// out\n        /* \"#utility.yul\":7888:8005   */\n    tag_71:\n        /* \"#utility.yul\":7942:7950   */\n      0x00\n        /* \"#utility.yul\":7992:7997   */\n      dup3\n        /* \"#utility.yul\":7986:7990   */\n      dup3\n        /* \"#utility.yul\":7982:7998   */\n      shr\n        /* \"#utility.yul\":7961:7998   */\n      swap1\n      pop\n        /* \"#utility.yul\":7888:8005   */\n      swap3\n      swap2\n      pop\n      pop\n      jump\t// out\n        /* \"#utility.yul\":8011:8180   */\n    tag_72:\n        /* \"#utility.yul\":8055:8061   */\n      0x00\n        /* \"#utility.yul\":8088:8139   */\n      tag_170\n        /* \"#utility.yul\":8136:8137   */\n      0x00\n        /* \"#utility.yul\":8132:8138   */\n      not\n        /* \"#utility.yul\":8124:8129   */\n      dup5\n        /* \"#utility.yul\":8121:8122   */\n      0x08\n        /* \"#utility.yul\":8117:8130   */\n      mul\n        /* \"#utility.yul\":8088:8139   */\n      tag_71\n      jump\t// in\n    tag_170:\n        /* \"#utility.yul\":8084:8140   */\n      not\n        /* \"#utility.yul\":8169:8173   */\n      dup1\n        /* \"#utility.yul\":8163:8167   */\n      dup4\n        /* \"#utility.yul\":8159:8174   */\n      and\n        /* \"#utility.yul\":8149:8174   */\n      swap2\n      pop\n        /* \"#utility.yul\":8062:8180   */\n      pop\n        /* \"#utility.yul\":8011:8180   */\n      swap3\n      swap2\n      pop\n      pop\n      jump\t// out\n        /* \"#utility.yul\":8185:8480   */\n    tag_73:\n        /* \"#utility.yul\":8261:8265   */\n      0x00\n        /* \"#utility.yul\":8407:8436   */\n      tag_172\n        /* \"#utility.yul\":8432:8435   */\n      dup4\n        /* \"#utility.yul\":8426:8430   */\n      dup4\n        /* \"#utility.yul\":8407:8436   */\n      tag_72\n      jump\t// in\n    tag_172:\n        /* \"#utility.yul\":8399:8436   */\n      swap2\n      pop\n        /* \"#utility.yul\":8469:8472   */\n      dup3\n        /* \"#utility.yul\":8466:8467   */\n      0x02\n        /* \"#utility.yul\":8462:8473   */\n      mul\n        /* \"#utility.yul\":8456:8460   */\n      dup3\n        /* \"#utility.yul\":8453:8474   */\n      or\n        /* \"#utility.yul\":8445:8474   */\n      swap1\n      pop\n        /* \"#utility.yul\":8185:8480   */\n      swap3\n      swap2\n      pop\n      pop\n      jump\t// out\n        /* \"#utility.yul\":8485:9880   */\n    tag_24:\n        /* \"#utility.yul\":8602:8639   */\n      tag_174\n        /* \"#utility.yul\":8635:8638   */\n      dup3\n        /* \"#utility.yul\":8602:8639   */\n      tag_54\n      jump\t// in\n    tag_174:\n        /* \"#utility.yul\":8704:8722   */\n      0xffffffffffffffff\n        /* \"#utility.yul\":8696:8702   */\n      dup2\n        /* \"#utility.yul\":8693:8723   */\n      gt\n        /* \"#utility.yul\":8690:8746   */\n      iszero\n      tag_175\n      jumpi\n        /* \"#utility.yul\":8726:8744   */\n      tag_176\n      tag_47\n      jump\t// in\n    tag_176:\n        /* \"#utility.yul\":8690:8746   */\n    tag_175:\n        /* \"#utility.yul\":8770:8808   */\n      tag_177\n        /* \"#utility.yul\":8802:8806   */\n      dup3\n        /* \"#utility.yul\":8796:8807   */\n      sload\n        /* \"#utility.yul\":8770:8808   */\n      tag_26\n      jump\t// in\n    tag_177:\n        /* \"#utility.yul\":8855:8922   */\n      tag_178\n        /* \"#utility.yul\":8915:8921   */\n      dup3\n        /* \"#utility.yul\":8907:8913   */\n      dup3\n        /* \"#utility.yul\":8901:8905   */\n      dup6\n        /* \"#utility.yul\":8855:8922   */\n      tag_70\n      jump\t// in\n    tag_178:\n        /* \"#utility.yul\":8949:8950   */\n      0x00\n        /* \"#utility.yul\":8973:8977   */\n      0x20\n        /* \"#utility.yul\":8960:8977   */\n      swap1\n      pop\n        /* \"#utility.yul\":9005:9007   */\n      0x1f\n        /* \"#utility.yul\":8997:9003   */\n      dup4\n        /* \"#utility.yul\":8994:9008   */\n      gt\n        /* \"#utility.yul\":9022:9023   */\n      0x01\n        /* \"#utility.yul\":9017:9635   */\n      dup2\n      eq\n      tag_180\n      jumpi\n        /* \"#utility.yul\":9679:9680   */\n      0x00\n        /* \"#utility.yul\":9696:9702   */\n      dup5\n        /* \"#utility.yul\":9693:9770   */\n      iszero\n      tag_181\n      jumpi\n        /* \"#utility.yul\":9745:9754   */\n      dup3\n        /* \"#utility.yul\":9740:9743   */\n      dup8\n        /* \"#utility.yul\":9736:9755   */\n      add\n        /* \"#utility.yul\":9730:9756   */\n      mload\n        /* \"#utility.yul\":9721:9756   */\n      swap1\n      pop\n        /* \"#utility.yul\":9693:9770   */\n    tag_181:\n        /* \"#utility.yul\":9796:9863   */\n      tag_182\n        /* \"#utility.yul\":9856:9862   */\n      dup6\n        /* \"#utility.yul\":9849:9854   */\n      dup3\n        /* \"#utility.yul\":9796:9863   */\n      tag_73\n      jump\t// in\n    tag_182:\n        /* \"#utility.yul\":9790:9794   */\n      dup7\n        /* \"#utility.yul\":9783:9864   */\n      sstore\n        /* \"#utility.yul\":9652:9874   */\n      pop\n        /* \"#utility.yul\":8987:9874   */\n      jump(tag_179)\n        /* \"#utility.yul\":9017:9635   */\n    tag_180:\n        /* \"#utility.yul\":9069:9073   */\n      0x1f\n        /* \"#utility.yul\":9065:9074   */\n      not\n        /* \"#utility.yul\":9057:9063   */\n      dup5\n        /* \"#utility.yul\":9053:9075   */\n      and\n        /* \"#utility.yul\":9103:9140   */\n      tag_183\n        /* \"#utility.yul\":9135:9139   */\n      dup7\n        /* \"#utility.yul\":9103:9140   */\n      tag_59\n      jump\t// in\n    tag_183:\n        /* \"#utility.yul\":9162:9163   */\n      0x00\n        /* \"#utility.yul\":9176:9384   */\n    tag_184:\n        /* \"#utility.yul\":9190:9197   */\n      dup3\n        /* \"#utility.yul\":9187:9188   */\n      dup2\n        /* \"#utility.yul\":9184:9198   */\n      lt\n        /* \"#utility.yul\":9176:9384   */\n      iszero\n      tag_186\n      jumpi\n        /* \"#utility.yul\":9269:9278   */\n      dup5\n        /* \"#utility.yul\":9264:9267   */\n      dup10\n        /* \"#utility.yul\":9260:9279   */\n      add\n        /* \"#utility.yul\":9254:9280   */\n      mload\n        /* \"#utility.yul\":9246:9252   */\n      dup3\n        /* \"#utility.yul\":9239:9281   */\n      sstore\n        /* \"#utility.yul\":9320:9321   */\n      0x01\n        /* \"#utility.yul\":9312:9318   */\n      dup3\n        /* \"#utility.yul\":9308:9322   */\n      add\n        /* \"#utility.yul\":9298:9322   */\n      swap2\n      pop\n        /* \"#utility.yul\":9367:9369   */\n      0x20\n        /* \"#utility.yul\":9356:9365   */\n      dup6\n        /* \"#utility.yul\":9352:9370   */\n      add\n        /* \"#utility.yul\":9339:9370   */\n      swap5\n      pop\n        /* \"#utility.yul\":9213:9217   */\n      0x20\n        /* \"#utility.yul\":9210:9211   */\n      dup2\n        /* \"#utility.yul\":9206:9218   */\n      add\n        /* \"#utility.yul\":9201:9218   */\n      swap1\n      pop\n        /* \"#utility.yul\":9176:9384   */\n      jump(tag_184)\n    tag_186:\n        /* \"#utility.yul\":9412:9418   */\n      dup7\n        /* \"#utility.yul\":9403:9410   */\n      dup4\n        /* \"#utility.yul\":9400:9419   */\n      lt\n        /* \"#utility.yul\":9397:9576   */\n      iszero\n      tag_187\n      jumpi\n        /* \"#utility.yul\":9470:9479   */\n      dup5\n        /* \"#utility.yul\":9465:9468   */\n      dup10\n        /* \"#utility.yul\":9461:9480   */\n      add\n        /* \"#utility.yul\":9455:9481   */\n      mload\n        /* \"#utility.yul\":9513:9561   */\n      tag_188\n        /* \"#utility.yul\":9555:9559   */\n      0x1f\n        /* \"#utility.yul\":9547:9553   */\n      dup10\n        /* \"#utility.yul\":9543:9560   */\n      and\n        /* \"#utility.yul\":9532:9541   */\n      dup3\n        /* \"#utility.yul\":9513:9561   */\n      tag_72\n      jump\t// in\n    tag_188:\n        /* \"#utility.yul\":9505:9511   */\n      dup4\n        /* \"#utility.yul\":9498:9562   */\n      sstore\n        /* \"#utility.yul\":9420:9576   */\n      pop\n        /* \"#utility.yul\":9397:9576   */\n    tag_187:\n        /* \"#utility.yul\":9622:9623   */\n      0x01\n        /* \"#utility.yul\":9618:9619   */\n      0x02\n        /* \"#utility.yul\":9610:9616   */\n      dup9\n        /* \"#utility.yul\":9606:9620   */\n      mul\n        /* \"#utility.yul\":9602:9624   */\n      add\n        /* \"#utility.yul\":9596:9600   */\n      dup9\n        /* \"#utility.yul\":9589:9625   */\n      sstore\n        /* \"#utility.yul\":9024:9635   */\n      pop\n      pop\n      pop\n        /* \"#utility.yul\":8987:9874   */\n    tag_179:\n      pop\n        /* \"#utility.yul\":8577:9880   */\n      pop\n      pop\n      pop\n        /* \"#utility.yul\":8485:9880   */\n      pop\n      pop\n      jump\t// out\n\n    auxdata: 0xa26469706673582212208ea84b84fe0d9b45997651bf4b86ebd809f920f550778fc4e33bd7e2c8136b2264736f6c634300081e0033\n}\n",
				"bytecode": {
					"linkReferences": {},
					"object": "6080604052348015600e575f5ffd5b506107648061001c5f395ff3fe608060405234801561000f575f5ffd5b506004361061003f575f3560e01c806332fa92b214610043578063d54271231461005f578063d5fb052f1461007b575b5f5ffd5b61005d60048036038101906100589190610221565b6100ab565b005b61007960048036038101906100749190610388565b6100c9565b005b61009560048036038101906100909190610221565b6100eb565b6040516100a29190610442565b60405180910390f35b5f5f8281526020019081526020015f205f6100c69190610185565b50565b805f5f8481526020019081526020015f2090816100e6919061065f565b505050565b5f602052805f5260405f205f9150905080546101069061048f565b80601f01602080910402602001604051908101604052809291908181526020018280546101329061048f565b801561017d5780601f106101545761010080835404028352916020019161017d565b820191905f5260205f20905b81548152906001019060200180831161016057829003601f168201915b505050505081565b5080546101919061048f565b5f825580601f106101a257506101bf565b601f0160209004905f5260205f20908101906101be91906101c2565b5b50565b5b808211156101d9575f815f9055506001016101c3565b5090565b5f604051905090565b5f5ffd5b5f5ffd5b5f819050919050565b610200816101ee565b811461020a575f5ffd5b50565b5f8135905061021b816101f7565b92915050565b5f60208284031215610236576102356101e6565b5b5f6102438482850161020d565b91505092915050565b5f5ffd5b5f5ffd5b5f601f19601f8301169050919050565b7f4e487b71000000000000000000000000000000000000000000000000000000005f52604160045260245ffd5b61029a82610254565b810181811067ffffffffffffffff821117156102b9576102b8610264565b5b80604052505050565b5f6102cb6101dd565b90506102d78282610291565b919050565b5f67ffffffffffffffff8211156102f6576102f5610264565b5b6102ff82610254565b9050602081019050919050565b828183375f83830152505050565b5f61032c610327846102dc565b6102c2565b90508281526020810184848401111561034857610347610250565b5b61035384828561030c565b509392505050565b5f82601f83011261036f5761036e61024c565b5b813561037f84826020860161031a565b91505092915050565b5f5f6040838503121561039e5761039d6101e6565b5b5f6103ab8582860161020d565b925050602083013567ffffffffffffffff8111156103cc576103cb6101ea565b5b6103d88582860161035b565b9150509250929050565b5f81519050919050565b5f82825260208201905092915050565b8281835e5f83830152505050565b5f610414826103e2565b61041e81856103ec565b935061042e8185602086016103fc565b61043781610254565b840191505092915050565b5f6020820190508181035f83015261045a818461040a565b905092915050565b7f4e487b71000000000000000000000000000000000000000000000000000000005f52602260045260245ffd5b5f60028204905060018216806104a657607f821691505b6020821081036104b9576104b8610462565b5b50919050565b5f819050815f5260205f209050919050565b5f6020601f8301049050919050565b5f82821b905092915050565b5f6008830261051b7fffffffffffffffffffffffffffffffffffffffffffffffffffffffffffffffff826104e0565b61052586836104e0565b95508019841693508086168417925050509392505050565b5f819050919050565b5f61056061055b610556846101ee565b61053d565b6101ee565b9050919050565b5f819050919050565b61057983610546565b61058d61058582610567565b8484546104ec565b825550505050565b5f5f905090565b6105a4610595565b6105af818484610570565b505050565b5b818110156105d2576105c75f8261059c565b6001810190506105b5565b5050565b601f821115610617576105e8816104bf565b6105f1846104d1565b81016020851015610600578190505b61061461060c856104d1565b8301826105b4565b50505b505050565b5f82821c905092915050565b5f6106375f198460080261061c565b1980831691505092915050565b5f61064f8383610628565b9150826002028217905092915050565b610668826103e2565b67ffffffffffffffff81111561068157610680610264565b5b61068b825461048f565b6106968282856105d6565b5f60209050601f8311600181146106c7575f84156106b5578287015190505b6106bf8582610644565b865550610726565b601f1984166106d5866104bf565b5f5b828110156106fc578489015182556001820191506020850194506020810190506106d7565b868310156107195784890151610715601f891682610628565b8355505b6001600288020188555050505b50505050505056fea26469706673582212208ea84b84fe0d9b45997651bf4b86ebd809f920f550778fc4e33bd7e2c8136b2264736f6c634300081e0033",
					"opcodes": "PUSH1 0x80 PUSH1 0x40 MSTORE CALLVALUE DUP1 ISZERO PUSH1 0xE JUMPI PUSH0 PUSH0 REVERT JUMPDEST POP PUSH2 0x764 DUP1 PUSH2 0x1C PUSH0 CODECOPY PUSH0 RETURN INVALID PUSH1 0x80 PUSH1 0x40 MSTORE CALLVALUE DUP1 ISZERO PUSH2 0xF JUMPI PUSH0 PUSH0 REVERT JUMPDEST POP PUSH1 0x4 CALLDATASIZE LT PUSH2 0x3F JUMPI PUSH0 CALLDATALOAD PUSH1 0xE0 SHR DUP1 PUSH4 0x32FA92B2 EQ PUSH2 0x43 JUMPI DUP1 PUSH4 0xD5427123 EQ PUSH2 0x5F JUMPI DUP1 PUSH4 0xD5FB052F EQ PUSH2 0x7B JUMPI JUMPDEST PUSH0 PUSH0 REVERT JUMPDEST PUSH2 0x5D PUSH1 0x4 DUP1 CALLDATASIZE SUB DUP2 ADD SWAP1 PUSH2 0x58 SWAP2 SWAP1 PUSH2 0x221 JUMP JUMPDEST PUSH2 0xAB JUMP JUMPDEST STOP JUMPDEST PUSH2 0x79 PUSH1 0x4 DUP1 CALLDATASIZE SUB DUP2 ADD SWAP1 PUSH2 0x74 SWAP2 SWAP1 PUSH2 0x388 JUMP JUMPDEST PUSH2 0xC9 JUMP JUMPDEST STOP JUMPDEST PUSH2 0x95 PUSH1 0x4 DUP1 CALLDATASIZE SUB DUP2 ADD SWAP1 PUSH2 0x90 SWAP2 SWAP1 PUSH2 0x221 JUMP JUMPDEST PUSH2 0xEB JUMP JUMPDEST PUSH1 0x40 MLOAD PUSH2 0xA2 SWAP2 SWAP1 PUSH2 0x442 JUMP JUMPDEST PUSH1 0x40 MLOAD DUP1 SWAP2 SUB SWAP1 RETURN JUMPDEST PUSH0 PUSH0 DUP3 DUP2 MSTORE PUSH1 0x20 ADD SWAP1 DUP2 MSTORE PUSH1 0x20 ADD PUSH0 KECCAK256 PUSH0 PUSH2 0xC6 SWAP2 SWAP1 PUSH2 0x185 JUMP JUMPDEST POP JUMP JUMPDEST DUP1 PUSH0 PUSH0 DUP5 DUP2 MSTORE PUSH1 0x20 ADD SWAP1 DUP2 MSTORE PUSH1 0x20 ADD PUSH0 KECCAK256 SWAP1 DUP2 PUSH2 0xE6 SWAP2 SWAP1 PUSH2 0x65F JUMP JUMPDEST POP POP POP JUMP JUMPDEST PUSH0 PUSH1 0x20 MSTORE DUP1 PUSH0 MSTORE PUSH1 0x40 PUSH0 KECCAK256 PUSH0 SWAP2 POP SWAP1 POP DUP1 SLOAD PUSH2 0x106 SWAP1 PUSH2 0x48F JUMP JUMPDEST DUP1 PUSH1 0x1F ADD PUSH1 0x20 DUP1 SWAP2 DIV MUL PUSH1 0x20 ADD PUSH1 0x40 MLOAD SWAP1 DUP2 ADD PUSH1 0x40 MSTORE DUP1 SWAP3 SWAP2 SWAP1 DUP2 DUP2 MSTORE PUSH1 0x20 ADD DUP3 DUP1 SLOAD PUSH2 0x132 SWAP1 PUSH2 0x48F JUMP JUMPDEST DUP1 ISZERO PUSH2 0x17D JUMPI DUP1 PUSH1 0x1F LT PUSH2 0x154 JUMPI PUSH2 0x100 DUP1 DUP4 SLOAD DIV MUL DUP4 MSTORE SWAP2 PUSH1 0x20 ADD SWAP2 PUSH2 0x17D JUMP JUMPDEST DUP3 ADD SWAP2 SWAP1 PUSH0 MSTORE PUSH1 0x20 PUSH0 KECCAK256 SWAP1 JUMPDEST DUP2 SLOAD DUP2 MSTORE SWAP1 PUSH1 0x1 ADD SWAP1 PUSH1 0x20 ADD DUP1 DUP4 GT PUSH2 0x160 JUMPI DUP3 SWAP1 SUB PUSH1 0x1F AND DUP3 ADD SWAP2 JUMPDEST POP POP POP POP POP DUP2 JUMP JUMPDEST POP DUP1 SLOAD PUSH2 0x191 SWAP1 PUSH2 0x48F JUMP JUMPDEST PUSH0 DUP3 SSTORE DUP1 PUSH1 0x1F LT PUSH2 0x1A2 JUMPI POP PUSH2 0x1BF JUMP JUMPDEST PUSH1 0x1F ADD PUSH1 0x20 SWAP1 DIV SWAP1 PUSH0 MSTORE PUSH1 0x20 PUSH0 KECCAK256 SWAP1 DUP2 ADD SWAP1 PUSH2 0x1BE SWAP2 SWAP1 PUSH2 0x1C2 JUMP JUMPDEST JUMPDEST POP JUMP JUMPDEST JUMPDEST DUP1 DUP3 GT ISZERO PUSH2 0x1D9 JUMPI PUSH0 DUP2 PUSH0 SWAP1 SSTORE POP PUSH1 0x1 ADD PUSH2 0x1C3 JUMP JUMPDEST POP SWAP1 JUMP JUMPDEST PUSH0 PUSH1 0x40 MLOAD SWAP1 POP SWAP1 JUMP JUMPDEST PUSH0 PUSH0 REVERT JUMPDEST PUSH0 PUSH0 REVERT JUMPDEST PUSH0 DUP2 SWAP1 POP SWAP2 SWAP1 POP JUMP JUMPDEST PUSH2 0x200 DUP2 PUSH2 0x1EE JUMP JUMPDEST DUP2 EQ PUSH2 0x20A JUMPI PUSH0 PUSH0 REVERT JUMPDEST POP JUMP JUMPDEST PUSH0 DUP2 CALLDATALOAD SWAP1 POP PUSH2 0x21B DUP2 PUSH2 0x1F7 JUMP JUMPDEST SWAP3 SWAP2 POP POP JUMP JUMPDEST PUSH0 PUSH1 0x20 DUP3 DUP5 SUB SLT ISZERO PUSH2 0x236 JUMPI PUSH2 0x235 PUSH2 0x1E6 JUMP JUMPDEST JUMPDEST PUSH0 PUSH2 0x243 DUP5 DUP3 DUP6 ADD PUSH2 0x20D JUMP JUMPDEST SWAP2 POP POP SWAP3 SWAP2 POP POP JUMP JUMPDEST PUSH0 PUSH0 REVERT JUMPDEST PUSH0 PUSH0 REVERT JUMPDEST PUSH0 PUSH1 0x1F NOT PUSH1 0x1F DUP4 ADD AND SWAP1 POP SWAP2 SWAP1 POP JUMP JUMPDEST PUSH32 0x4E487B7100000000000000000000000000000000000000000000000000000000 PUSH0 MSTORE PUSH1 0x41 PUSH1 0x4 MSTORE PUSH1 0x24 PUSH0 REVERT JUMPDEST PUSH2 0x29A DUP3 PUSH2 0x254 JUMP JUMPDEST DUP2 ADD DUP2 DUP2 LT PUSH8 0xFFFFFFFFFFFFFFFF DUP3 GT OR ISZERO PUSH2 0x2B9 JUMPI PUSH2 0x2B8 PUSH2 0x264 JUMP JUMPDEST JUMPDEST DUP1 PUSH1 0x40 MSTORE POP POP POP JUMP JUMPDEST PUSH0 PUSH2 0x2CB PUSH2 0x1DD JUMP JUMPDEST SWAP1 POP PUSH2 0x2D7 DUP3 DUP3 PUSH2 0x291 JUMP JUMPDEST SWAP2 SWAP1 POP JUMP JUMPDEST PUSH0 PUSH8 0xFFFFFFFFFFFFFFFF DUP3 GT ISZERO PUSH2 0x2F6 JUMPI PUSH2 0x2F5 PUSH2 0x264 JUMP JUMPDEST JUMPDEST PUSH2 0x2FF DUP3 PUSH2 0x254 JUMP JUMPDEST SWAP1 POP PUSH1 0x20 DUP2 ADD SWAP1 POP SWAP2 SWAP1 POP JUMP JUMPDEST DUP3 DUP2 DUP4 CALLDATACOPY PUSH0 DUP4 DUP4 ADD MSTORE POP POP POP JUMP JUMPDEST PUSH0 PUSH2 0x32C PUSH2 0x327 DUP5 PUSH2 0x2DC JUMP JUMPDEST PUSH2 0x2C2 JUMP JUMPDEST SWAP1 POP DUP3 DUP2 MSTORE PUSH1 0x20 DUP2 ADD DUP5 DUP5 DUP5 ADD GT ISZERO PUSH2 0x348 JUMPI PUSH2 0x347 PUSH2 0x250 JUMP JUMPDEST JUMPDEST PUSH2 0x353 DUP5 DUP3 DUP6 PUSH2 0x30C JUMP JUMPDEST POP SWAP4 SWAP3 POP POP POP JUMP JUMPDEST PUSH0 DUP3 PUSH1 0x1F DUP4 ADD SLT PUSH2 0x36F JUMPI PUSH2 0x36E PUSH2 0x24C JUMP JUMPDEST JUMPDEST DUP2 CALLDATALOAD PUSH2 0x37F DUP5 DUP3 PUSH1 0x20 DUP7 ADD PUSH2 0x31A JUMP JUMPDEST SWAP2 POP POP SWAP3 SWAP2 POP POP JUMP JUMPDEST PUSH0 PUSH0 PUSH1 0x40 DUP4 DUP6 SUB SLT ISZERO PUSH2 0x39E JUMPI PUSH2 0x39D PUSH2 0x1E6 JUMP JUMPDEST JUMPDEST PUSH0 PUSH2 0x3AB DUP6 DUP3 DUP7 ADD PUSH2 0x20D JUMP JUMPDEST SWAP3 POP POP PUSH1 0x20 DUP4 ADD CALLDATALOAD PUSH8 0xFFFFFFFFFFFFFFFF DUP2 GT ISZERO PUSH2 0x3CC JUMPI PUSH2 0x3CB PUSH2 0x1EA JUMP JUMPDEST JUMPDEST PUSH2 0x3D8 DUP6 DUP3 DUP7 ADD PUSH2 0x35B JUMP JUMPDEST SWAP2 POP POP SWAP3 POP SWAP3 SWAP1 POP JUMP JUMPDEST PUSH0 DUP2 MLOAD SWAP1 POP SWAP2 SWAP1 POP JUMP JUMPDEST PUSH0 DUP3 DUP3 MSTORE PUSH1 0x20 DUP3 ADD SWAP1 POP SWAP3 SWAP2 POP POP JUMP JUMPDEST DUP3 DUP2 DUP4 MCOPY PUSH0 DUP4 DUP4 ADD MSTORE POP POP POP JUMP JUMPDEST PUSH0 PUSH2 0x414 DUP3 PUSH2 0x3E2 JUMP JUMPDEST PUSH2 0x41E DUP2 DUP6 PUSH2 0x3EC JUMP JUMPDEST SWAP4 POP PUSH2 0x42E DUP2 DUP6 PUSH1 0x20 DUP7 ADD PUSH2 0x3FC JUMP JUMPDEST PUSH2 0x437 DUP2 PUSH2 0x254 JUMP JUMPDEST DUP5 ADD SWAP2 POP POP SWAP3 SWAP2 POP POP JUMP JUMPDEST PUSH0 PUSH1 0x20 DUP3 ADD SWAP1 POP DUP2 DUP2 SUB PUSH0 DUP4 ADD MSTORE PUSH2 0x45A DUP2 DUP5 PUSH2 0x40A JUMP JUMPDEST SWAP1 POP SWAP3 SWAP2 POP POP JUMP JUMPDEST PUSH32 0x4E487B7100000000000000000000000000000000000000000000000000000000 PUSH0 MSTORE PUSH1 0x22 PUSH1 0x4 MSTORE PUSH1 0x24 PUSH0 REVERT JUMPDEST PUSH0 PUSH1 0x2 DUP3 DIV SWAP1 POP PUSH1 0x1 DUP3 AND DUP1 PUSH2 0x4A6 JUMPI PUSH1 0x7F DUP3 AND SWAP2 POP JUMPDEST PUSH1 0x20 DUP3 LT DUP2 SUB PUSH2 0x4B9 JUMPI PUSH2 0x4B8 PUSH2 0x462 JUMP JUMPDEST JUMPDEST POP SWAP2 SWAP1 POP JUMP JUMPDEST PUSH0 DUP2 SWAP1 POP DUP2 PUSH0 MSTORE PUSH1 0x20 PUSH0 KECCAK256 SWAP1 POP SWAP2 SWAP1 POP JUMP JUMPDEST PUSH0 PUSH1 0x20 PUSH1 0x1F DUP4 ADD DIV SWAP1 POP SWAP2 SWAP1 POP JUMP JUMPDEST PUSH0 DUP3 DUP3 SHL SWAP1 POP SWAP3 SWAP2 POP POP JUMP JUMPDEST PUSH0 PUSH1 0x8 DUP4 MUL PUSH2 0x51B PUSH32 0xFFFFFFFFFFFFFFFFFFFFFFFFFFFFFFFFFFFFFFFFFFFFFFFFFFFFFFFFFFFFFFFF DUP3 PUSH2 0x4E0 JUMP JUMPDEST PUSH2 0x525 DUP7 DUP4 PUSH2 0x4E0 JUMP JUMPDEST SWAP6 POP DUP1 NOT DUP5 AND SWAP4 POP DUP1 DUP7 AND DUP5 OR SWAP3 POP POP POP SWAP4 SWAP3 POP POP POP JUMP JUMPDEST PUSH0 DUP2 SWAP1 POP SWAP2 SWAP1 POP JUMP JUMPDEST PUSH0 PUSH2 0x560 PUSH2 0x55B PUSH2 0x556 DUP5 PUSH2 0x1EE JUMP JUMPDEST PUSH2 0x53D JUMP JUMPDEST PUSH2 0x1EE JUMP JUMPDEST SWAP1 POP SWAP2 SWAP1 POP JUMP JUMPDEST PUSH0 DUP2 SWAP1 POP SWAP2 SWAP1 POP JUMP JUMPDEST PUSH2 0x579 DUP4 PUSH2 0x546 JUMP JUMPDEST PUSH2 0x58D PUSH2 0x585 DUP3 PUSH2 0x567 JUMP JUMPDEST DUP5 DUP5 SLOAD PUSH2 0x4EC JUMP JUMPDEST DUP3 SSTORE POP POP POP POP JUMP JUMPDEST PUSH0 PUSH0 SWAP1 POP SWAP1 JUMP JUMPDEST PUSH2 0x5A4 PUSH2 0x595 JUMP JUMPDEST PUSH2 0x5AF DUP2 DUP5 DUP5 PUSH2 0x570 JUMP JUMPDEST POP POP POP JUMP JUMPDEST JUMPDEST DUP2 DUP2 LT ISZERO PUSH2 0x5D2 JUMPI PUSH2 0x5C7 PUSH0 DUP3 PUSH2 0x59C JUMP JUMPDEST PUSH1 0x1 DUP2 ADD SWAP1 POP PUSH2 0x5B5 JUMP JUMPDEST POP POP JUMP JUMPDEST PUSH1 0x1F DUP3 GT ISZERO PUSH2 0x617 JUMPI PUSH2 0x5E8 DUP2 PUSH2 0x4BF JUMP JUMPDEST PUSH2 0x5F1 DUP5 PUSH2 0x4D1 JUMP JUMPDEST DUP2 ADD PUSH1 0x20 DUP6 LT ISZERO PUSH2 0x600 JUMPI DUP2 SWAP1 POP JUMPDEST PUSH2 0x614 PUSH2 0x60C DUP6 PUSH2 0x4D1 JUMP JUMPDEST DUP4 ADD DUP3 PUSH2 0x5B4 JUMP JUMPDEST POP POP JUMPDEST POP POP POP JUMP JUMPDEST PUSH0 DUP3 DUP3 SHR SWAP1 POP SWAP3 SWAP2 POP POP JUMP JUMPDEST PUSH0 PUSH2 0x637 PUSH0 NOT DUP5 PUSH1 0x8 MUL PUSH2 0x61C JUMP JUMPDEST NOT DUP1 DUP4 AND SWAP2 POP POP SWAP3 SWAP2 POP POP JUMP JUMPDEST PUSH0 PUSH2 0x64F DUP4 DUP4 PUSH2 0x628 JUMP JUMPDEST SWAP2 POP DUP3 PUSH1 0x2 MUL DUP3 OR SWAP1 POP SWAP3 SWAP2 POP POP JUMP JUMPDEST PUSH2 0x668 DUP3 PUSH2 0x3E2 JUMP JUMPDEST PUSH8 0xFFFFFFFFFFFFFFFF DUP2 GT ISZERO PUSH2 0x681 JUMPI PUSH2 0x680 PUSH2 0x264 JUMP JUMPDEST JUMPDEST PUSH2 0x68B DUP3 SLOAD PUSH2 0x48F JUMP JUMPDEST PUSH2 0x696 DUP3 DUP3 DUP6 PUSH2 0x5D6 JUMP JUMPDEST PUSH0 PUSH1 0x20 SWAP1 POP PUSH1 0x1F DUP4 GT PUSH1 0x1 DUP2 EQ PUSH2 0x6C7 JUMPI PUSH0 DUP5 ISZERO PUSH2 0x6B5 JUMPI DUP3 DUP8 ADD MLOAD SWAP1 POP JUMPDEST PUSH2 0x6BF DUP6 DUP3 PUSH2 0x644 JUMP JUMPDEST DUP7 SSTORE POP PUSH2 0x726 JUMP JUMPDEST PUSH1 0x1F NOT DUP5 AND PUSH2 0x6D5 DUP7 PUSH2 0x4BF JUMP JUMPDEST PUSH0 JUMPDEST DUP3 DUP2 LT ISZERO PUSH2 0x6FC JUMPI DUP5 DUP10 ADD MLOAD DUP3 SSTORE PUSH1 0x1 DUP3 ADD SWAP2 POP PUSH1 0x20 DUP6 ADD SWAP5 POP PUSH1 0x20 DUP2 ADD SWAP1 POP PUSH2 0x6D7 JUMP JUMPDEST DUP7 DUP4 LT ISZERO PUSH2 0x719 JUMPI DUP5 DUP10 ADD MLOAD PUSH2 0x715 PUSH1 0x1F DUP10 AND DUP3 PUSH2 0x628 JUMP JUMPDEST DUP4 SSTORE POP JUMPDEST PUSH1 0x1 PUSH1 0x2 DUP9 MUL ADD DUP9 SSTORE POP POP POP JUMPDEST POP POP POP POP POP POP JUMP INVALID LOG2 PUSH5 0x6970667358 0x22 SLT KECCAK256 DUP15 0xA8 0x4B DUP5 INVALID 0xD SWAP12 GASLIMIT SWAP10 PUSH23 0x51BF4B86EBD809F920F550778FC4E33BD7E2C8136B2264 PUSH20 0x6F6C634300081E00330000000000000000000000 "
				},
				"gasEstimates": {
					"creation": {
						"codeDepositCost": "378400",
						"executionCost": "416",
						"totalCost": "378816"
					},
					"external": {
						"insertData(uint256,string)": "infinite",
						"removeValue(uint256)": "infinite",
						"studentDetails(uint256)": "infinite"
					}
				},
				"methodIdentifiers": {
					"insertData(uint256,string)": "d5427123",
					"removeValue(uint256)": "32fa92b2",
					"studentDetails(uint256)": "d5fb052f"
				}
			},
			"storageLayout": {
				"storage": [
					{
						"astId": 5,
						"contract": "contracts/Intermediate/mapping.sol:mappingExample",
						"label": "studentDetails",
						"offset": 0,
						"slot": "0",
						"type": "t_mapping(t_uint256,t_string_storage)"
					}
				],
				"types": {
					"t_mapping(t_uint256,t_string_storage)": {
						"encoding": "mapping",
						"key": "t_uint256",
						"label": "mapping(uint256 => string)",
						"numberOfBytes": "32",
						"value": "t_string_storage"
					},
					"t_string_storage": {
						"encoding": "bytes",
						"label": "string",
						"numberOfBytes": "32"
					},
					"t_uint256": {
						"encoding": "inplace",
						"label": "uint256",
						"numberOfBytes": "32"
					}
				}
			},
			"userdoc": {
				"kind": "user",
				"methods": {},
				"version": 1
			}
		}
	}
}