{
	"contracts/votingProject/voting.sol": {
		"Vote": {
			"abi": [
				{
					"inputs": [],
					"stateMutability": "nonpayable",
					"type": "constructor"
				},
				{
					"inputs": [],
					"name": "announceVotingResult",
					"outputs": [],
					"stateMutability": "nonpayable",
					"type": "function"
				},
				{
					"inputs": [
						{
							"internalType": "uint256",
							"name": "_voterId",
							"type": "uint256"
						},
						{
							"internalType": "uint256",
							"name": "_candidateId",
							"type": "uint256"
						}
					],
					"name": "castVote",
					"outputs": [],
					"stateMutability": "nonpayable",
					"type": "function"
				},
				{
					"inputs": [],
					"name": "electionCommission",
					"outputs": [
						{
							"internalType": "address",
							"name": "",
							"type": "address"
						}
					],
					"stateMutability": "view",
					"type": "function"
				},
				{
					"inputs": [],
					"name": "emergencyStopVotin",
					"outputs": [],
					"stateMutability": "nonpayable",
					"type": "function"
				},
				{
					"inputs": [],
					"name": "getCandidateList",
					"outputs": [
						{
							"components": [
								{
									"internalType": "string",
									"name": "name",
									"type": "string"
								},
								{
									"internalType": "string",
									"name": "party",
									"type": "string"
								},
								{
									"internalType": "uint256",
									"name": "age",
									"type": "uint256"
								},
								{
									"internalType": "enum Vote.Gender",
									"name": "gender",
									"type": "uint8"
								},
								{
									"internalType": "uint256",
									"name": "candidateId",
									"type": "uint256"
								},
								{
									"internalType": "address",
									"name": "candidateAddress",
									"type": "address"
								},
								{
									"internalType": "uint256",
									"name": "votes",
									"type": "uint256"
								}
							],
							"internalType": "struct Vote.Candidate[]",
							"name": "",
							"type": "tuple[]"
						}
					],
					"stateMutability": "view",
					"type": "function"
				},
				{
					"inputs": [],
					"name": "getVoterList",
					"outputs": [
						{
							"components": [
								{
									"internalType": "string",
									"name": "name",
									"type": "string"
								},
								{
									"internalType": "uint256",
									"name": "age",
									"type": "uint256"
								},
								{
									"internalType": "uint256",
									"name": "voterId",
									"type": "uint256"
								},
								{
									"internalType": "enum Vote.Gender",
									"name": "gender",
									"type": "uint8"
								},
								{
									"internalType": "uint256",
									"name": "voterCandidateId",
									"type": "uint256"
								},
								{
									"internalType": "address",
									"name": "voterAddress",
									"type": "address"
								}
							],
							"internalType": "struct Vote.Voter[]",
							"name": "",
							"type": "tuple[]"
						}
					],
					"stateMutability": "view",
					"type": "function"
				},
				{
					"inputs": [],
					"name": "getVotingStatus",
					"outputs": [
						{
							"internalType": "enum Vote.VotingStatus",
							"name": "",
							"type": "uint8"
						}
					],
					"stateMutability": "view",
					"type": "function"
				},
				{
					"inputs": [
						{
							"internalType": "string",
							"name": "_name",
							"type": "string"
						},
						{
							"internalType": "string",
							"name": "_party",
							"type": "string"
						},
						{
							"internalType": "uint256",
							"name": "_age",
							"type": "uint256"
						},
						{
							"internalType": "enum Vote.Gender",
							"name": "_gender",
							"type": "uint8"
						}
					],
					"name": "registerCandidate",
					"outputs": [],
					"stateMutability": "nonpayable",
					"type": "function"
				},
				{
					"inputs": [
						{
							"internalType": "string",
							"name": "_name",
							"type": "string"
						},
						{
							"internalType": "uint256",
							"name": "_age",
							"type": "uint256"
						},
						{
							"internalType": "enum Vote.Gender",
							"name": "_gender",
							"type": "uint8"
						}
					],
					"name": "registerVoter",
					"outputs": [],
					"stateMutability": "nonpayable",
					"type": "function"
				},
				{
					"inputs": [
						{
							"internalType": "uint256",
							"name": "_startTimeDuration",
							"type": "uint256"
						},
						{
							"internalType": "uint256",
							"name": "_endTimeDuration",
							"type": "uint256"
						}
					],
					"name": "setVotingPeriod",
					"outputs": [],
					"stateMutability": "nonpayable",
					"type": "function"
				},
				{
					"inputs": [],
					"name": "winner",
					"outputs": [
						{
							"internalType": "address",
							"name": "",
							"type": "address"
						}
					],
					"stateMutability": "view",
					"type": "function"
				}
			],
			"devdoc": {
				"kind": "dev",
				"methods": {},
				"version": 1
			},
			"evm": {
				"assembly": "    /* \"contracts/votingProject/voting.sol\":74:5311  contract Vote{... */\n  mstore(0x40, 0x80)\n    /* \"contracts/votingProject/voting.sol\":566:567  1 */\n  0x01\n    /* \"contracts/votingProject/voting.sol\":547:567  uint nextVoterId = 1 */\n  0x02\n  sstore\n    /* \"contracts/votingProject/voting.sol\":597:598  1 */\n  0x01\n    /* \"contracts/votingProject/voting.sol\":574:598  uint nextCandidateId = 1 */\n  0x03\n  sstore\n    /* \"contracts/votingProject/voting.sol\":885:948  constructor(){... */\n  callvalue\n  dup1\n  iszero\n  tag_1\n  jumpi\n  revert(0x00, 0x00)\ntag_1:\n  pop\n    /* \"contracts/votingProject/voting.sol\":930:940  msg.sender */\n  caller\n    /* \"contracts/votingProject/voting.sol\":909:927  electionCommission */\n  0x00\n  0x00\n    /* \"contracts/votingProject/voting.sol\":909:940  electionCommission = msg.sender */\n  0x0100\n  exp\n  dup2\n  sload\n  dup2\n  0xffffffffffffffffffffffffffffffffffffffff\n  mul\n  not\n  and\n  swap1\n  dup4\n  0xffffffffffffffffffffffffffffffffffffffff\n  and\n  mul\n  or\n  swap1\n  sstore\n  pop\n    /* \"contracts/votingProject/voting.sol\":74:5311  contract Vote{... */\n  dataSize(sub_0)\n  dup1\n  dataOffset(sub_0)\n  0x00\n  codecopy\n  0x00\n  return\nstop\n\nsub_0: assembly {\n        /* \"contracts/votingProject/voting.sol\":74:5311  contract Vote{... */\n      mstore(0x40, 0x80)\n      callvalue\n      dup1\n      iszero\n      tag_1\n      jumpi\n      revert(0x00, 0x00)\n    tag_1:\n      pop\n      jumpi(tag_2, lt(calldatasize, 0x04))\n      shr(0xe0, calldataload(0x00))\n      dup1\n      0x982c777d\n      gt\n      tag_14\n      jumpi\n      dup1\n      0x982c777d\n      eq\n      tag_8\n      jumpi\n      dup1\n      0xa15a36c7\n      eq\n      tag_9\n      jumpi\n      dup1\n      0xaab46b7f\n      eq\n      tag_10\n      jumpi\n      dup1\n      0xb28d92ae\n      eq\n      tag_11\n      jumpi\n      dup1\n      0xdfbf53ae\n      eq\n      tag_12\n      jumpi\n      dup1\n      0xfdbc4006\n      eq\n      tag_13\n      jumpi\n      jump(tag_2)\n    tag_14:\n      dup1\n      0x2c0a3f89\n      eq\n      tag_3\n      jumpi\n      dup1\n      0x2d7ecc88\n      eq\n      tag_4\n      jumpi\n      dup1\n      0x581c281c\n      eq\n      tag_5\n      jumpi\n      dup1\n      0x6ce2ccc0\n      eq\n      tag_6\n      jumpi\n      dup1\n      0x81ba732f\n      eq\n      tag_7\n      jumpi\n    tag_2:\n      revert(0x00, 0x00)\n        /* \"contracts/votingProject/voting.sol\":3686:4233  function castVote (uint _voterId, uint _candidateId) external isVotingOver(){... */\n    tag_3:\n      tag_15\n      0x04\n      dup1\n      calldatasize\n      sub\n      dup2\n      add\n      swap1\n      tag_16\n      swap2\n      swap1\n      tag_17\n      jump\t// in\n    tag_16:\n      tag_18\n      jump\t// in\n    tag_15:\n      stop\n        /* \"contracts/votingProject/voting.sol\":5213:5304  function emergencyStopVotin() public onlyCommissioner(){... */\n    tag_4:\n      tag_19\n      tag_20\n      jump\t// in\n    tag_19:\n      stop\n        /* \"contracts/votingProject/voting.sol\":4547:4870  function getVotingStatus() public view returns (VotingStatus){... */\n    tag_5:\n      tag_21\n      tag_22\n      jump\t// in\n    tag_21:\n      mload(0x40)\n      tag_23\n      swap2\n      swap1\n      tag_24\n      jump\t// in\n    tag_23:\n      mload(0x40)\n      dup1\n      swap2\n      sub\n      swap1\n      return\n        /* \"contracts/votingProject/voting.sol\":4880:5205  function announceVotingResult() external onlyCommissioner(){... */\n    tag_6:\n      tag_25\n      tag_26\n      jump\t// in\n    tag_25:\n      stop\n        /* \"contracts/votingProject/voting.sol\":2968:3361  function registerVoter(string calldata _name, uint _age, Gender _gender) external isValidAge (_age){... */\n    tag_7:\n      tag_27\n      0x04\n      dup1\n      calldatasize\n      sub\n      dup2\n      add\n      swap1\n      tag_28\n      swap2\n      swap1\n      tag_29\n      jump\t// in\n    tag_28:\n      tag_30\n      jump\t// in\n    tag_27:\n      stop\n        /* \"contracts/votingProject/voting.sol\":1338:2093  function registerCandidate(string calldata _name, string calldata _party, uint _age, Gender _gender)external isValidAge(_age){... */\n    tag_8:\n      tag_31\n      0x04\n      dup1\n      calldatasize\n      sub\n      dup2\n      add\n      swap1\n      tag_32\n      swap2\n      swap1\n      tag_33\n      jump\t// in\n    tag_32:\n      tag_34\n      jump\t// in\n    tag_31:\n      stop\n        /* \"contracts/votingProject/voting.sol\":4243:4539  function setVotingPeriod(uint _startTimeDuration, uint _endTimeDuration) external onlyCommissioner(){... */\n    tag_9:\n      tag_35\n      0x04\n      dup1\n      calldatasize\n      sub\n      dup2\n      add\n      swap1\n      tag_36\n      swap2\n      swap1\n      tag_17\n      jump\t// in\n    tag_36:\n      tag_37\n      jump\t// in\n    tag_35:\n      stop\n        /* \"contracts/votingProject/voting.sol\":478:511  address public electionCommission */\n    tag_10:\n      tag_38\n      tag_39\n      jump\t// in\n    tag_38:\n      mload(0x40)\n      tag_40\n      swap2\n      swap1\n      tag_41\n      jump\t// in\n    tag_40:\n      mload(0x40)\n      dup1\n      swap2\n      sub\n      swap1\n      return\n        /* \"contracts/votingProject/voting.sol\":3371:3678  function getVoterList() public view returns (Voter[] memory){... */\n    tag_11:\n      tag_42\n      tag_43\n      jump\t// in\n    tag_42:\n      mload(0x40)\n      tag_44\n      swap2\n      swap1\n      tag_45\n      jump\t// in\n    tag_44:\n      mload(0x40)\n      dup1\n      swap2\n      sub\n      swap1\n      return\n        /* \"contracts/votingProject/voting.sol\":518:539  address public winner */\n    tag_12:\n      tag_46\n      tag_47\n      jump\t// in\n    tag_46:\n      mload(0x40)\n      tag_48\n      swap2\n      swap1\n      tag_41\n      jump\t// in\n    tag_48:\n      mload(0x40)\n      dup1\n      swap2\n      sub\n      swap1\n      return\n        /* \"contracts/votingProject/voting.sol\":2384:2691  function getCandidateList() public view returns(Candidate[] memory){... */\n    tag_13:\n      tag_49\n      tag_50\n      jump\t// in\n    tag_49:\n      mload(0x40)\n      tag_51\n      swap2\n      swap1\n      tag_52\n      jump\t// in\n    tag_51:\n      mload(0x40)\n      dup1\n      swap2\n      sub\n      swap1\n      return\n        /* \"contracts/votingProject/voting.sol\":3686:4233  function castVote (uint _voterId, uint _candidateId) external isVotingOver(){... */\n    tag_18:\n        /* \"contracts/votingProject/voting.sol\":1016:1023  endTime */\n      sload(0x05)\n        /* \"contracts/votingProject/voting.sol\":999:1014  block.timestamp */\n      timestamp\n        /* \"contracts/votingProject/voting.sol\":999:1023  block.timestamp<=endTime */\n      gt\n      iszero\n        /* \"contracts/votingProject/voting.sol\":999:1045  block.timestamp<=endTime && stopVoting ==false */\n      dup1\n      iszero\n      tag_54\n      jumpi\n      pop\n        /* \"contracts/votingProject/voting.sol\":1040:1045  false */\n      0x00\n        /* \"contracts/votingProject/voting.sol\":1027:1045  stopVoting ==false */\n      iszero\n      iszero\n        /* \"contracts/votingProject/voting.sol\":1027:1037  stopVoting */\n      0x06\n      0x00\n      swap1\n      sload\n      swap1\n      0x0100\n      exp\n      swap1\n      div\n      0xff\n      and\n        /* \"contracts/votingProject/voting.sol\":1027:1045  stopVoting ==false */\n      iszero\n      iszero\n      eq\n        /* \"contracts/votingProject/voting.sol\":999:1045  block.timestamp<=endTime && stopVoting ==false */\n    tag_54:\n        /* \"contracts/votingProject/voting.sol\":991:1070  require(block.timestamp<=endTime && stopVoting ==false , \"Voting time is Over\") */\n      tag_55\n      jumpi\n      mload(0x40)\n      0x08c379a000000000000000000000000000000000000000000000000000000000\n      dup2\n      mstore\n      0x04\n      add\n      tag_56\n      swap1\n      tag_57\n      jump\t// in\n    tag_56:\n      mload(0x40)\n      dup1\n      swap2\n      sub\n      swap1\n      revert\n    tag_55:\n        /* \"contracts/votingProject/voting.sol\":3799:3808  startTime */\n      sload(0x04)\n        /* \"contracts/votingProject/voting.sol\":3781:3796  block.timestamp */\n      timestamp\n        /* \"contracts/votingProject/voting.sol\":3781:3808  block.timestamp>= startTime */\n      lt\n      iszero\n        /* \"contracts/votingProject/voting.sol\":3773:3839  require(block.timestamp>= startTime ,\"Voting has not started yet\") */\n      tag_59\n      jumpi\n      mload(0x40)\n      0x08c379a000000000000000000000000000000000000000000000000000000000\n      dup2\n      mstore\n      0x04\n      add\n      tag_60\n      swap1\n      tag_61\n      jump\t// in\n    tag_60:\n      mload(0x40)\n      dup1\n      swap2\n      sub\n      swap1\n      revert\n    tag_59:\n        /* \"contracts/votingProject/voting.sol\":3900:3901  0 */\n      0x00\n        /* \"contracts/votingProject/voting.sol\":3858:3870  voterDetails */\n      0x07\n        /* \"contracts/votingProject/voting.sol\":3858:3880  voterDetails[_voterId] */\n      0x00\n        /* \"contracts/votingProject/voting.sol\":3871:3879  _voterId */\n      dup5\n        /* \"contracts/votingProject/voting.sol\":3858:3880  voterDetails[_voterId] */\n      dup2\n      mstore\n      0x20\n      add\n      swap1\n      dup2\n      mstore\n      0x20\n      add\n      0x00\n      keccak256\n        /* \"contracts/votingProject/voting.sol\":3858:3897  voterDetails[_voterId].voterCandidateId */\n      0x04\n      add\n      sload\n        /* \"contracts/votingProject/voting.sol\":3858:3901  voterDetails[_voterId].voterCandidateId ==0 */\n      eq\n        /* \"contracts/votingProject/voting.sol\":3850:3929  require(voterDetails[_voterId].voterCandidateId ==0 ,\"You have already voted \") */\n      tag_62\n      jumpi\n      mload(0x40)\n      0x08c379a000000000000000000000000000000000000000000000000000000000\n      dup2\n      mstore\n      0x04\n      add\n      tag_63\n      swap1\n      tag_64\n      jump\t// in\n    tag_63:\n      mload(0x40)\n      dup1\n      swap2\n      sub\n      swap1\n      revert\n    tag_62:\n        /* \"contracts/votingProject/voting.sol\":3987:3997  msg.sender */\n      caller\n        /* \"contracts/votingProject/voting.sol\":3948:3997  voterDetails[_voterId].voterAddress == msg.sender */\n      0xffffffffffffffffffffffffffffffffffffffff\n      and\n        /* \"contracts/votingProject/voting.sol\":3948:3960  voterDetails */\n      0x07\n        /* \"contracts/votingProject/voting.sol\":3948:3970  voterDetails[_voterId] */\n      0x00\n        /* \"contracts/votingProject/voting.sol\":3961:3969  _voterId */\n      dup5\n        /* \"contracts/votingProject/voting.sol\":3948:3970  voterDetails[_voterId] */\n      dup2\n      mstore\n      0x20\n      add\n      swap1\n      dup2\n      mstore\n      0x20\n      add\n      0x00\n      keccak256\n        /* \"contracts/votingProject/voting.sol\":3948:3983  voterDetails[_voterId].voterAddress */\n      0x05\n      add\n      0x00\n      swap1\n      sload\n      swap1\n      0x0100\n      exp\n      swap1\n      div\n      0xffffffffffffffffffffffffffffffffffffffff\n      and\n        /* \"contracts/votingProject/voting.sol\":3948:3997  voterDetails[_voterId].voterAddress == msg.sender */\n      0xffffffffffffffffffffffffffffffffffffffff\n      and\n      eq\n        /* \"contracts/votingProject/voting.sol\":3940:4023  require(voterDetails[_voterId].voterAddress == msg.sender,\"You are not authorized\") */\n      tag_65\n      jumpi\n      mload(0x40)\n      0x08c379a000000000000000000000000000000000000000000000000000000000\n      dup2\n      mstore\n      0x04\n      add\n      tag_66\n      swap1\n      tag_67\n      jump\t// in\n    tag_66:\n      mload(0x40)\n      dup1\n      swap2\n      sub\n      swap1\n      revert\n    tag_65:\n        /* \"contracts/votingProject/voting.sol\":4056:4057  1 */\n      0x01\n        /* \"contracts/votingProject/voting.sol\":4042:4054  _candidateId */\n      dup2\n        /* \"contracts/votingProject/voting.sol\":4042:4057  _candidateId>=1 */\n      lt\n      iszero\n        /* \"contracts/votingProject/voting.sol\":4042:4076  _candidateId>=1 && _candidateId <3 */\n      dup1\n      iszero\n      tag_68\n      jumpi\n      pop\n        /* \"contracts/votingProject/voting.sol\":4075:4076  3 */\n      0x03\n        /* \"contracts/votingProject/voting.sol\":4061:4073  _candidateId */\n      dup2\n        /* \"contracts/votingProject/voting.sol\":4061:4076  _candidateId <3 */\n      lt\n        /* \"contracts/votingProject/voting.sol\":4042:4076  _candidateId>=1 && _candidateId <3 */\n    tag_68:\n        /* \"contracts/votingProject/voting.sol\":4034:4109  require(_candidateId>=1 && _candidateId <3 ,\"Camdidate Id is not Correct \") */\n      tag_69\n      jumpi\n      mload(0x40)\n      0x08c379a000000000000000000000000000000000000000000000000000000000\n      dup2\n      mstore\n      0x04\n      add\n      tag_70\n      swap1\n      tag_71\n      jump\t// in\n    tag_70:\n      mload(0x40)\n      dup1\n      swap2\n      sub\n      swap1\n      revert\n    tag_69:\n        /* \"contracts/votingProject/voting.sol\":4163:4175  _candidateId */\n      dup1\n        /* \"contracts/votingProject/voting.sol\":4120:4132  voterDetails */\n      0x07\n        /* \"contracts/votingProject/voting.sol\":4120:4143  voterDetails [_voterId] */\n      0x00\n        /* \"contracts/votingProject/voting.sol\":4134:4142  _voterId */\n      dup5\n        /* \"contracts/votingProject/voting.sol\":4120:4143  voterDetails [_voterId] */\n      dup2\n      mstore\n      0x20\n      add\n      swap1\n      dup2\n      mstore\n      0x20\n      add\n      0x00\n      keccak256\n        /* \"contracts/votingProject/voting.sol\":4120:4160  voterDetails [_voterId].voterCandidateId */\n      0x04\n      add\n        /* \"contracts/votingProject/voting.sol\":4120:4175  voterDetails [_voterId].voterCandidateId = _candidateId */\n      dup2\n      swap1\n      sstore\n      pop\n        /* \"contracts/votingProject/voting.sol\":4187:4203  candidateDetails */\n      0x08\n        /* \"contracts/votingProject/voting.sol\":4187:4217  candidateDetails[_candidateId] */\n      0x00\n        /* \"contracts/votingProject/voting.sol\":4204:4216  _candidateId */\n      dup3\n        /* \"contracts/votingProject/voting.sol\":4187:4217  candidateDetails[_candidateId] */\n      dup2\n      mstore\n      0x20\n      add\n      swap1\n      dup2\n      mstore\n      0x20\n      add\n      0x00\n      keccak256\n        /* \"contracts/votingProject/voting.sol\":4187:4223  candidateDetails[_candidateId].votes */\n      0x06\n      add\n      0x00\n        /* \"contracts/votingProject/voting.sol\":4187:4225  candidateDetails[_candidateId].votes++ */\n      dup2\n      sload\n      dup1\n      swap3\n      swap2\n      swap1\n      tag_72\n      swap1\n      tag_73\n      jump\t// in\n    tag_72:\n      swap2\n      swap1\n      pop\n      sstore\n      pop\n        /* \"contracts/votingProject/voting.sol\":3686:4233  function castVote (uint _voterId, uint _candidateId) external isVotingOver(){... */\n      pop\n      pop\n      jump\t// out\n        /* \"contracts/votingProject/voting.sol\":5213:5304  function emergencyStopVotin() public onlyCommissioner(){... */\n    tag_20:\n        /* \"contracts/votingProject/voting.sol\":1157:1175  electionCommission */\n      0x00\n      0x00\n      swap1\n      sload\n      swap1\n      0x0100\n      exp\n      swap1\n      div\n      0xffffffffffffffffffffffffffffffffffffffff\n      and\n        /* \"contracts/votingProject/voting.sol\":1145:1175  msg.sender==electionCommission */\n      0xffffffffffffffffffffffffffffffffffffffff\n      and\n        /* \"contracts/votingProject/voting.sol\":1145:1155  msg.sender */\n      caller\n        /* \"contracts/votingProject/voting.sol\":1145:1175  msg.sender==electionCommission */\n      0xffffffffffffffffffffffffffffffffffffffff\n      and\n      eq\n        /* \"contracts/votingProject/voting.sol\":1137:1194  require(msg.sender==electionCommission, \"Not Authurized\") */\n      tag_75\n      jumpi\n      mload(0x40)\n      0x08c379a000000000000000000000000000000000000000000000000000000000\n      dup2\n      mstore\n      0x04\n      add\n      tag_76\n      swap1\n      tag_77\n      jump\t// in\n    tag_76:\n      mload(0x40)\n      dup1\n      swap2\n      sub\n      swap1\n      revert\n    tag_75:\n        /* \"contracts/votingProject/voting.sol\":5292:5296  true */\n      0x01\n        /* \"contracts/votingProject/voting.sol\":5279:5289  stopVoting */\n      0x06\n      0x00\n        /* \"contracts/votingProject/voting.sol\":5279:5296  stopVoting = true */\n      0x0100\n      exp\n      dup2\n      sload\n      dup2\n      0xff\n      mul\n      not\n      and\n      swap1\n      dup4\n      iszero\n      iszero\n      mul\n      or\n      swap1\n      sstore\n      pop\n        /* \"contracts/votingProject/voting.sol\":5213:5304  function emergencyStopVotin() public onlyCommissioner(){... */\n      jump\t// out\n        /* \"contracts/votingProject/voting.sol\":4547:4870  function getVotingStatus() public view returns (VotingStatus){... */\n    tag_22:\n        /* \"contracts/votingProject/voting.sol\":4595:4607  VotingStatus */\n      0x00\n        /* \"contracts/votingProject/voting.sol\":4635:4636  0 */\n      0x00\n        /* \"contracts/votingProject/voting.sol\":4622:4631  startTime */\n      sload(0x04)\n        /* \"contracts/votingProject/voting.sol\":4622:4636  startTime == 0 */\n      sub\n        /* \"contracts/votingProject/voting.sol\":4619:4863  if(startTime == 0){... */\n      tag_80\n      jumpi\n        /* \"contracts/votingProject/voting.sol\":4659:4682  VotingStatus.NotStarted */\n      0x00\n        /* \"contracts/votingProject/voting.sol\":4652:4682  return VotingStatus.NotStarted */\n      swap1\n      pop\n      jump(tag_79)\n        /* \"contracts/votingProject/voting.sol\":4619:4863  if(startTime == 0){... */\n    tag_80:\n        /* \"contracts/votingProject/voting.sol\":4711:4726  block.timestamp */\n      timestamp\n        /* \"contracts/votingProject/voting.sol\":4703:4710  endTime */\n      sload(0x05)\n        /* \"contracts/votingProject/voting.sol\":4703:4726  endTime>block.timestamp */\n      gt\n        /* \"contracts/votingProject/voting.sol\":4703:4749  endTime>block.timestamp && stopVoting == false */\n      dup1\n      iszero\n      tag_82\n      jumpi\n      pop\n        /* \"contracts/votingProject/voting.sol\":4744:4749  false */\n      0x00\n        /* \"contracts/votingProject/voting.sol\":4730:4749  stopVoting == false */\n      iszero\n      iszero\n        /* \"contracts/votingProject/voting.sol\":4730:4740  stopVoting */\n      0x06\n      0x00\n      swap1\n      sload\n      swap1\n      0x0100\n      exp\n      swap1\n      div\n      0xff\n      and\n        /* \"contracts/votingProject/voting.sol\":4730:4749  stopVoting == false */\n      iszero\n      iszero\n      eq\n        /* \"contracts/votingProject/voting.sol\":4703:4749  endTime>block.timestamp && stopVoting == false */\n    tag_82:\n        /* \"contracts/votingProject/voting.sol\":4699:4863  if (endTime>block.timestamp && stopVoting == false){... */\n      iszero\n      tag_83\n      jumpi\n        /* \"contracts/votingProject/voting.sol\":4772:4795  VotingStatus.Inprogress */\n      0x01\n        /* \"contracts/votingProject/voting.sol\":4765:4795  return VotingStatus.Inprogress */\n      swap1\n      pop\n      jump(tag_79)\n        /* \"contracts/votingProject/voting.sol\":4699:4863  if (endTime>block.timestamp && stopVoting == false){... */\n    tag_83:\n        /* \"contracts/votingProject/voting.sol\":4833:4851  VotingStatus.Ended */\n      0x02\n        /* \"contracts/votingProject/voting.sol\":4826:4851  return VotingStatus.Ended */\n      swap1\n      pop\n        /* \"contracts/votingProject/voting.sol\":4547:4870  function getVotingStatus() public view returns (VotingStatus){... */\n    tag_79:\n      swap1\n      jump\t// out\n        /* \"contracts/votingProject/voting.sol\":4880:5205  function announceVotingResult() external onlyCommissioner(){... */\n    tag_26:\n        /* \"contracts/votingProject/voting.sol\":1157:1175  electionCommission */\n      0x00\n      0x00\n      swap1\n      sload\n      swap1\n      0x0100\n      exp\n      swap1\n      div\n      0xffffffffffffffffffffffffffffffffffffffff\n      and\n        /* \"contracts/votingProject/voting.sol\":1145:1175  msg.sender==electionCommission */\n      0xffffffffffffffffffffffffffffffffffffffff\n      and\n        /* \"contracts/votingProject/voting.sol\":1145:1155  msg.sender */\n      caller\n        /* \"contracts/votingProject/voting.sol\":1145:1175  msg.sender==electionCommission */\n      0xffffffffffffffffffffffffffffffffffffffff\n      and\n      eq\n        /* \"contracts/votingProject/voting.sol\":1137:1194  require(msg.sender==electionCommission, \"Not Authurized\") */\n      tag_86\n      jumpi\n      mload(0x40)\n      0x08c379a000000000000000000000000000000000000000000000000000000000\n      dup2\n      mstore\n      0x04\n      add\n      tag_87\n      swap1\n      tag_77\n      jump\t// in\n    tag_87:\n      mload(0x40)\n      dup1\n      swap2\n      sub\n      swap1\n      revert\n    tag_86:\n        /* \"contracts/votingProject/voting.sol\":4950:4958  uint max */\n      0x00\n        /* \"contracts/votingProject/voting.sol\":4961:4962  0 */\n      0x00\n        /* \"contracts/votingProject/voting.sol\":4950:4962  uint max = 0 */\n      swap1\n      pop\n        /* \"contracts/votingProject/voting.sol\":4977:4983  uint i */\n      0x00\n        /* \"contracts/votingProject/voting.sol\":4986:4987  1 */\n      0x01\n        /* \"contracts/votingProject/voting.sol\":4977:4987  uint i = 1 */\n      swap1\n      pop\n        /* \"contracts/votingProject/voting.sol\":4973:5198  for(uint i = 1; i<nextCandidateId;i++){... */\n    tag_89:\n        /* \"contracts/votingProject/voting.sol\":4991:5006  nextCandidateId */\n      sload(0x03)\n        /* \"contracts/votingProject/voting.sol\":4989:4990  i */\n      dup2\n        /* \"contracts/votingProject/voting.sol\":4989:5006  i<nextCandidateId */\n      lt\n        /* \"contracts/votingProject/voting.sol\":4973:5198  for(uint i = 1; i<nextCandidateId;i++){... */\n      iszero\n      tag_90\n      jumpi\n        /* \"contracts/votingProject/voting.sol\":5055:5058  max */\n      dup2\n        /* \"contracts/votingProject/voting.sol\":5029:5045  candidateDetails */\n      0x08\n        /* \"contracts/votingProject/voting.sol\":5029:5048  candidateDetails[i] */\n      0x00\n        /* \"contracts/votingProject/voting.sol\":5046:5047  i */\n      dup4\n        /* \"contracts/votingProject/voting.sol\":5029:5048  candidateDetails[i] */\n      dup2\n      mstore\n      0x20\n      add\n      swap1\n      dup2\n      mstore\n      0x20\n      add\n      0x00\n      keccak256\n        /* \"contracts/votingProject/voting.sol\":5029:5054  candidateDetails[i].votes */\n      0x06\n      add\n      sload\n        /* \"contracts/votingProject/voting.sol\":5029:5058  candidateDetails[i].votes>max */\n      gt\n        /* \"contracts/votingProject/voting.sol\":5026:5187  if(candidateDetails[i].votes>max){... */\n      iszero\n      tag_92\n      jumpi\n        /* \"contracts/votingProject/voting.sol\":5083:5099  candidateDetails */\n      0x08\n        /* \"contracts/votingProject/voting.sol\":5083:5102  candidateDetails[i] */\n      0x00\n        /* \"contracts/votingProject/voting.sol\":5100:5101  i */\n      dup3\n        /* \"contracts/votingProject/voting.sol\":5083:5102  candidateDetails[i] */\n      dup2\n      mstore\n      0x20\n      add\n      swap1\n      dup2\n      mstore\n      0x20\n      add\n      0x00\n      keccak256\n        /* \"contracts/votingProject/voting.sol\":5083:5108  candidateDetails[i].votes */\n      0x06\n      add\n      sload\n        /* \"contracts/votingProject/voting.sol\":5078:5108  max= candidateDetails[i].votes */\n      swap2\n      pop\n        /* \"contracts/votingProject/voting.sol\":5135:5151  candidateDetails */\n      0x08\n        /* \"contracts/votingProject/voting.sol\":5135:5154  candidateDetails[i] */\n      0x00\n        /* \"contracts/votingProject/voting.sol\":5152:5153  i */\n      dup3\n        /* \"contracts/votingProject/voting.sol\":5135:5154  candidateDetails[i] */\n      dup2\n      mstore\n      0x20\n      add\n      swap1\n      dup2\n      mstore\n      0x20\n      add\n      0x00\n      keccak256\n        /* \"contracts/votingProject/voting.sol\":5135:5171  candidateDetails[i].candidateAddress */\n      0x05\n      add\n      0x00\n      swap1\n      sload\n      swap1\n      0x0100\n      exp\n      swap1\n      div\n      0xffffffffffffffffffffffffffffffffffffffff\n      and\n        /* \"contracts/votingProject/voting.sol\":5127:5133  winner */\n      0x01\n      0x00\n        /* \"contracts/votingProject/voting.sol\":5127:5171  winner= candidateDetails[i].candidateAddress */\n      0x0100\n      exp\n      dup2\n      sload\n      dup2\n      0xffffffffffffffffffffffffffffffffffffffff\n      mul\n      not\n      and\n      swap1\n      dup4\n      0xffffffffffffffffffffffffffffffffffffffff\n      and\n      mul\n      or\n      swap1\n      sstore\n      pop\n        /* \"contracts/votingProject/voting.sol\":5026:5187  if(candidateDetails[i].votes>max){... */\n    tag_92:\n        /* \"contracts/votingProject/voting.sol\":5007:5010  i++ */\n      dup1\n      dup1\n      0x01\n      add\n      swap2\n      pop\n      pop\n        /* \"contracts/votingProject/voting.sol\":4973:5198  for(uint i = 1; i<nextCandidateId;i++){... */\n      jump(tag_89)\n    tag_90:\n      pop\n        /* \"contracts/votingProject/voting.sol\":4939:5205  {... */\n      pop\n        /* \"contracts/votingProject/voting.sol\":4880:5205  function announceVotingResult() external onlyCommissioner(){... */\n      jump\t// out\n        /* \"contracts/votingProject/voting.sol\":2968:3361  function registerVoter(string calldata _name, uint _age, Gender _gender) external isValidAge (_age){... */\n    tag_30:\n        /* \"contracts/votingProject/voting.sol\":3062:3066  _age */\n      dup2\n        /* \"contracts/votingProject/voting.sol\":1279:1281  18 */\n      0x12\n        /* \"contracts/votingProject/voting.sol\":1272:1276  _age */\n      dup2\n        /* \"contracts/votingProject/voting.sol\":1272:1281  _age >=18 */\n      lt\n      iszero\n        /* \"contracts/votingProject/voting.sol\":1263:1310  require (_age >=18 , \"not eligible for Voting\") */\n      tag_94\n      jumpi\n      mload(0x40)\n      0x08c379a000000000000000000000000000000000000000000000000000000000\n      dup2\n      mstore\n      0x04\n      add\n      tag_95\n      swap1\n      tag_96\n      jump\t// in\n    tag_95:\n      mload(0x40)\n      dup1\n      swap2\n      sub\n      swap1\n      revert\n    tag_94:\n        /* \"contracts/votingProject/voting.sol\":3086:3118  isVoterNotRegistered(msg.sender) */\n      tag_98\n        /* \"contracts/votingProject/voting.sol\":3107:3117  msg.sender */\n      caller\n        /* \"contracts/votingProject/voting.sol\":3086:3106  isVoterNotRegistered */\n      tag_99\n        /* \"contracts/votingProject/voting.sol\":3086:3118  isVoterNotRegistered(msg.sender) */\n      jump\t// in\n    tag_98:\n        /* \"contracts/votingProject/voting.sol\":3078:3148  require(isVoterNotRegistered(msg.sender),\"You are already Registered\") */\n      tag_100\n      jumpi\n      mload(0x40)\n      0x08c379a000000000000000000000000000000000000000000000000000000000\n      dup2\n      mstore\n      0x04\n      add\n      tag_101\n      swap1\n      tag_102\n      jump\t// in\n    tag_101:\n      mload(0x40)\n      dup1\n      swap2\n      sub\n      swap1\n      revert\n    tag_100:\n        /* \"contracts/votingProject/voting.sol\":3188:3329  Voter({... */\n      mload(0x40)\n      dup1\n      0xc0\n      add\n      0x40\n      mstore\n      dup1\n        /* \"contracts/votingProject/voting.sol\":3214:3219  _name */\n      dup7\n      dup7\n        /* \"contracts/votingProject/voting.sol\":3188:3329  Voter({... */\n      dup1\n      dup1\n      0x1f\n      add\n      0x20\n      dup1\n      swap2\n      div\n      mul\n      0x20\n      add\n      mload(0x40)\n      swap1\n      dup2\n      add\n      0x40\n      mstore\n      dup1\n      swap4\n      swap3\n      swap2\n      swap1\n      dup2\n      dup2\n      mstore\n      0x20\n      add\n      dup4\n      dup4\n      dup1\n      dup3\n      dup5\n      calldatacopy\n      0x00\n      dup2\n      dup5\n      add\n      mstore\n      not(0x1f)\n      0x1f\n      dup3\n      add\n      and\n      swap1\n      pop\n      dup1\n      dup4\n      add\n      swap3\n      pop\n      pop\n      pop\n      pop\n      pop\n      pop\n      pop\n      dup2\n      mstore\n      0x20\n      add\n        /* \"contracts/votingProject/voting.sol\":3226:3230  _age */\n      dup5\n        /* \"contracts/votingProject/voting.sol\":3188:3329  Voter({... */\n      dup2\n      mstore\n      0x20\n      add\n        /* \"contracts/votingProject/voting.sol\":3242:3253  nextVoterId */\n      sload(0x02)\n        /* \"contracts/votingProject/voting.sol\":3188:3329  Voter({... */\n      dup2\n      mstore\n      0x20\n      add\n        /* \"contracts/votingProject/voting.sol\":3264:3271  _gender */\n      dup4\n        /* \"contracts/votingProject/voting.sol\":3188:3329  Voter({... */\n      0x03\n      dup2\n      gt\n      iszero\n      tag_103\n      jumpi\n      tag_104\n      tag_105\n      jump\t// in\n    tag_104:\n    tag_103:\n      dup2\n      mstore\n      0x20\n      add\n        /* \"contracts/votingProject/voting.sol\":3290:3291  0 */\n      0x00\n        /* \"contracts/votingProject/voting.sol\":3188:3329  Voter({... */\n      dup2\n      mstore\n      0x20\n      add\n        /* \"contracts/votingProject/voting.sol\":3306:3316  msg.sender */\n      caller\n        /* \"contracts/votingProject/voting.sol\":3188:3329  Voter({... */\n      0xffffffffffffffffffffffffffffffffffffffff\n      and\n      dup2\n      mstore\n      pop\n        /* \"contracts/votingProject/voting.sol\":3159:3171  voterDetails */\n      0x07\n        /* \"contracts/votingProject/voting.sol\":3159:3185  voterDetails [nextVoterId] */\n      0x00\n        /* \"contracts/votingProject/voting.sol\":3173:3184  nextVoterId */\n      sload(0x02)\n        /* \"contracts/votingProject/voting.sol\":3159:3185  voterDetails [nextVoterId] */\n      dup2\n      mstore\n      0x20\n      add\n      swap1\n      dup2\n      mstore\n      0x20\n      add\n      0x00\n      keccak256\n        /* \"contracts/votingProject/voting.sol\":3159:3329  voterDetails [nextVoterId] = Voter({... */\n      0x00\n      dup3\n      add\n      mload\n      dup2\n      0x00\n      add\n      swap1\n      dup2\n      tag_106\n      swap2\n      swap1\n      tag_107\n      jump\t// in\n    tag_106:\n      pop\n      0x20\n      dup3\n      add\n      mload\n      dup2\n      0x01\n      add\n      sstore\n      0x40\n      dup3\n      add\n      mload\n      dup2\n      0x02\n      add\n      sstore\n      0x60\n      dup3\n      add\n      mload\n      dup2\n      0x03\n      add\n      exp(0x0100, 0x00)\n      dup2\n      sload\n      dup2\n      0xff\n      mul\n      not\n      and\n      swap1\n      dup4\n      0x03\n      dup2\n      gt\n      iszero\n      tag_108\n      jumpi\n      tag_109\n      tag_105\n      jump\t// in\n    tag_109:\n    tag_108:\n      mul\n      or\n      swap1\n      sstore\n      pop\n      0x80\n      dup3\n      add\n      mload\n      dup2\n      0x04\n      add\n      sstore\n      0xa0\n      dup3\n      add\n      mload\n      dup2\n      0x05\n      add\n      exp(0x0100, 0x00)\n      dup2\n      sload\n      dup2\n      0xffffffffffffffffffffffffffffffffffffffff\n      mul\n      not\n      and\n      swap1\n      dup4\n      0xffffffffffffffffffffffffffffffffffffffff\n      and\n      mul\n      or\n      swap1\n      sstore\n      pop\n      swap1\n      pop\n      pop\n        /* \"contracts/votingProject/voting.sol\":3340:3351  nextVoterId */\n      0x02\n      0x00\n        /* \"contracts/votingProject/voting.sol\":3340:3353  nextVoterId++ */\n      dup2\n      sload\n      dup1\n      swap3\n      swap2\n      swap1\n      tag_110\n      swap1\n      tag_73\n      jump\t// in\n    tag_110:\n      swap2\n      swap1\n      pop\n      sstore\n      pop\n        /* \"contracts/votingProject/voting.sol\":2968:3361  function registerVoter(string calldata _name, uint _age, Gender _gender) external isValidAge (_age){... */\n      pop\n      pop\n      pop\n      pop\n      pop\n      jump\t// out\n        /* \"contracts/votingProject/voting.sol\":1338:2093  function registerCandidate(string calldata _name, string calldata _party, uint _age, Gender _gender)external isValidAge(_age){... */\n    tag_34:\n        /* \"contracts/votingProject/voting.sol\":1458:1462  _age */\n      dup2\n        /* \"contracts/votingProject/voting.sol\":1279:1281  18 */\n      0x12\n        /* \"contracts/votingProject/voting.sol\":1272:1276  _age */\n      dup2\n        /* \"contracts/votingProject/voting.sol\":1272:1281  _age >=18 */\n      lt\n      iszero\n        /* \"contracts/votingProject/voting.sol\":1263:1310  require (_age >=18 , \"not eligible for Voting\") */\n      tag_112\n      jumpi\n      mload(0x40)\n      0x08c379a000000000000000000000000000000000000000000000000000000000\n      dup2\n      mstore\n      0x04\n      add\n      tag_113\n      swap1\n      tag_96\n      jump\t// in\n    tag_113:\n      mload(0x40)\n      dup1\n      swap2\n      sub\n      swap1\n      revert\n    tag_112:\n        /* \"contracts/votingProject/voting.sol\":1489:1525  isCandidateNotRegistered(msg.sender) */\n      tag_115\n        /* \"contracts/votingProject/voting.sol\":1514:1524  msg.sender */\n      caller\n        /* \"contracts/votingProject/voting.sol\":1489:1513  isCandidateNotRegistered */\n      tag_116\n        /* \"contracts/votingProject/voting.sol\":1489:1525  isCandidateNotRegistered(msg.sender) */\n      jump\t// in\n    tag_115:\n        /* \"contracts/votingProject/voting.sol\":1480:1555  require (isCandidateNotRegistered(msg.sender),\"You are already registered\") */\n      tag_117\n      jumpi\n      mload(0x40)\n      0x08c379a000000000000000000000000000000000000000000000000000000000\n      dup2\n      mstore\n      0x04\n      add\n      tag_118\n      swap1\n      tag_119\n      jump\t// in\n    tag_118:\n      mload(0x40)\n      dup1\n      swap2\n      sub\n      swap1\n      revert\n    tag_117:\n        /* \"contracts/votingProject/voting.sol\":1595:1596  3 */\n      0x03\n        /* \"contracts/votingProject/voting.sol\":1579:1594  nextCandidateId */\n      dup1\n      sload\n        /* \"contracts/votingProject/voting.sol\":1579:1596  nextCandidateId<3 */\n      lt\n        /* \"contracts/votingProject/voting.sol\":1570:1627  require (nextCandidateId<3,\"Candidate Registration Full\") */\n      tag_120\n      jumpi\n      mload(0x40)\n      0x08c379a000000000000000000000000000000000000000000000000000000000\n      dup2\n      mstore\n      0x04\n      add\n      tag_121\n      swap1\n      tag_122\n      jump\t// in\n    tag_121:\n      mload(0x40)\n      dup1\n      swap2\n      sub\n      swap1\n      revert\n    tag_120:\n        /* \"contracts/votingProject/voting.sol\":1664:1682  electionCommission */\n      0x00\n      0x00\n      swap1\n      sload\n      swap1\n      0x0100\n      exp\n      swap1\n      div\n      0xffffffffffffffffffffffffffffffffffffffff\n      and\n        /* \"contracts/votingProject/voting.sol\":1651:1682  msg.sender!= electionCommission */\n      0xffffffffffffffffffffffffffffffffffffffff\n      and\n        /* \"contracts/votingProject/voting.sol\":1651:1661  msg.sender */\n      caller\n        /* \"contracts/votingProject/voting.sol\":1651:1682  msg.sender!= electionCommission */\n      0xffffffffffffffffffffffffffffffffffffffff\n      and\n      sub\n        /* \"contracts/votingProject/voting.sol\":1642:1729  require (msg.sender!= electionCommission,\"Election Commission not allowed to register\") */\n      tag_123\n      jumpi\n      mload(0x40)\n      0x08c379a000000000000000000000000000000000000000000000000000000000\n      dup2\n      mstore\n      0x04\n      add\n      tag_124\n      swap1\n      tag_125\n      jump\t// in\n    tag_124:\n      mload(0x40)\n      dup1\n      swap2\n      sub\n      swap1\n      revert\n    tag_123:\n        /* \"contracts/votingProject/voting.sol\":1781:2051  Candidate({... */\n      mload(0x40)\n      dup1\n      0xe0\n      add\n      0x40\n      mstore\n      dup1\n        /* \"contracts/votingProject/voting.sol\":1817:1822  _name */\n      dup9\n      dup9\n        /* \"contracts/votingProject/voting.sol\":1781:2051  Candidate({... */\n      dup1\n      dup1\n      0x1f\n      add\n      0x20\n      dup1\n      swap2\n      div\n      mul\n      0x20\n      add\n      mload(0x40)\n      swap1\n      dup2\n      add\n      0x40\n      mstore\n      dup1\n      swap4\n      swap3\n      swap2\n      swap1\n      dup2\n      dup2\n      mstore\n      0x20\n      add\n      dup4\n      dup4\n      dup1\n      dup3\n      dup5\n      calldatacopy\n      0x00\n      dup2\n      dup5\n      add\n      mstore\n      not(0x1f)\n      0x1f\n      dup3\n      add\n      and\n      swap1\n      pop\n      dup1\n      dup4\n      add\n      swap3\n      pop\n      pop\n      pop\n      pop\n      pop\n      pop\n      pop\n      dup2\n      mstore\n      0x20\n      add\n        /* \"contracts/votingProject/voting.sol\":1847:1853  _party */\n      dup7\n      dup7\n        /* \"contracts/votingProject/voting.sol\":1781:2051  Candidate({... */\n      dup1\n      dup1\n      0x1f\n      add\n      0x20\n      dup1\n      swap2\n      div\n      mul\n      0x20\n      add\n      mload(0x40)\n      swap1\n      dup2\n      add\n      0x40\n      mstore\n      dup1\n      swap4\n      swap3\n      swap2\n      swap1\n      dup2\n      dup2\n      mstore\n      0x20\n      add\n      dup4\n      dup4\n      dup1\n      dup3\n      dup5\n      calldatacopy\n      0x00\n      dup2\n      dup5\n      add\n      mstore\n      not(0x1f)\n      0x1f\n      dup3\n      add\n      and\n      swap1\n      pop\n      dup1\n      dup4\n      add\n      swap3\n      pop\n      pop\n      pop\n      pop\n      pop\n      pop\n      pop\n      dup2\n      mstore\n      0x20\n      add\n        /* \"contracts/votingProject/voting.sol\":1876:1880  _age */\n      dup5\n        /* \"contracts/votingProject/voting.sol\":1781:2051  Candidate({... */\n      dup2\n      mstore\n      0x20\n      add\n        /* \"contracts/votingProject/voting.sol\":1906:1913  _gender */\n      dup4\n        /* \"contracts/votingProject/voting.sol\":1781:2051  Candidate({... */\n      0x03\n      dup2\n      gt\n      iszero\n      tag_126\n      jumpi\n      tag_127\n      tag_105\n      jump\t// in\n    tag_127:\n    tag_126:\n      dup2\n      mstore\n      0x20\n      add\n        /* \"contracts/votingProject/voting.sol\":1946:1961  nextCandidateId */\n      sload(0x03)\n        /* \"contracts/votingProject/voting.sol\":1781:2051  Candidate({... */\n      dup2\n      mstore\n      0x20\n      add\n        /* \"contracts/votingProject/voting.sol\":1997:2007  msg.sender */\n      caller\n        /* \"contracts/votingProject/voting.sol\":1781:2051  Candidate({... */\n      0xffffffffffffffffffffffffffffffffffffffff\n      and\n      dup2\n      mstore\n      0x20\n      add\n        /* \"contracts/votingProject/voting.sol\":2034:2035  0 */\n      0x00\n        /* \"contracts/votingProject/voting.sol\":1781:2051  Candidate({... */\n      dup2\n      mstore\n      pop\n        /* \"contracts/votingProject/voting.sol\":1746:1762  candidateDetails */\n      0x08\n        /* \"contracts/votingProject/voting.sol\":1746:1779  candidateDetails[nextCandidateId] */\n      0x00\n        /* \"contracts/votingProject/voting.sol\":1763:1778  nextCandidateId */\n      sload(0x03)\n        /* \"contracts/votingProject/voting.sol\":1746:1779  candidateDetails[nextCandidateId] */\n      dup2\n      mstore\n      0x20\n      add\n      swap1\n      dup2\n      mstore\n      0x20\n      add\n      0x00\n      keccak256\n        /* \"contracts/votingProject/voting.sol\":1746:2051  candidateDetails[nextCandidateId]= Candidate({... */\n      0x00\n      dup3\n      add\n      mload\n      dup2\n      0x00\n      add\n      swap1\n      dup2\n      tag_128\n      swap2\n      swap1\n      tag_107\n      jump\t// in\n    tag_128:\n      pop\n      0x20\n      dup3\n      add\n      mload\n      dup2\n      0x01\n      add\n      swap1\n      dup2\n      tag_129\n      swap2\n      swap1\n      tag_107\n      jump\t// in\n    tag_129:\n      pop\n      0x40\n      dup3\n      add\n      mload\n      dup2\n      0x02\n      add\n      sstore\n      0x60\n      dup3\n      add\n      mload\n      dup2\n      0x03\n      add\n      exp(0x0100, 0x00)\n      dup2\n      sload\n      dup2\n      0xff\n      mul\n      not\n      and\n      swap1\n      dup4\n      0x03\n      dup2\n      gt\n      iszero\n      tag_130\n      jumpi\n      tag_131\n      tag_105\n      jump\t// in\n    tag_131:\n    tag_130:\n      mul\n      or\n      swap1\n      sstore\n      pop\n      0x80\n      dup3\n      add\n      mload\n      dup2\n      0x04\n      add\n      sstore\n      0xa0\n      dup3\n      add\n      mload\n      dup2\n      0x05\n      add\n      exp(0x0100, 0x00)\n      dup2\n      sload\n      dup2\n      0xffffffffffffffffffffffffffffffffffffffff\n      mul\n      not\n      and\n      swap1\n      dup4\n      0xffffffffffffffffffffffffffffffffffffffff\n      and\n      mul\n      or\n      swap1\n      sstore\n      pop\n      0xc0\n      dup3\n      add\n      mload\n      dup2\n      0x06\n      add\n      sstore\n      swap1\n      pop\n      pop\n        /* \"contracts/votingProject/voting.sol\":2068:2083  nextCandidateId */\n      0x03\n      0x00\n        /* \"contracts/votingProject/voting.sol\":2068:2085  nextCandidateId++ */\n      dup2\n      sload\n      dup1\n      swap3\n      swap2\n      swap1\n      tag_132\n      swap1\n      tag_73\n      jump\t// in\n    tag_132:\n      swap2\n      swap1\n      pop\n      sstore\n      pop\n        /* \"contracts/votingProject/voting.sol\":1338:2093  function registerCandidate(string calldata _name, string calldata _party, uint _age, Gender _gender)external isValidAge(_age){... */\n      pop\n      pop\n      pop\n      pop\n      pop\n      pop\n      pop\n      jump\t// out\n        /* \"contracts/votingProject/voting.sol\":4243:4539  function setVotingPeriod(uint _startTimeDuration, uint _endTimeDuration) external onlyCommissioner(){... */\n    tag_37:\n        /* \"contracts/votingProject/voting.sol\":1157:1175  electionCommission */\n      0x00\n      0x00\n      swap1\n      sload\n      swap1\n      0x0100\n      exp\n      swap1\n      div\n      0xffffffffffffffffffffffffffffffffffffffff\n      and\n        /* \"contracts/votingProject/voting.sol\":1145:1175  msg.sender==electionCommission */\n      0xffffffffffffffffffffffffffffffffffffffff\n      and\n        /* \"contracts/votingProject/voting.sol\":1145:1155  msg.sender */\n      caller\n        /* \"contracts/votingProject/voting.sol\":1145:1175  msg.sender==electionCommission */\n      0xffffffffffffffffffffffffffffffffffffffff\n      and\n      eq\n        /* \"contracts/votingProject/voting.sol\":1137:1194  require(msg.sender==electionCommission, \"Not Authurized\") */\n      tag_134\n      jumpi\n      mload(0x40)\n      0x08c379a000000000000000000000000000000000000000000000000000000000\n      dup2\n      mstore\n      0x04\n      add\n      tag_135\n      swap1\n      tag_77\n      jump\t// in\n    tag_135:\n      mload(0x40)\n      dup1\n      swap2\n      sub\n      swap1\n      revert\n    tag_134:\n        /* \"contracts/votingProject/voting.sol\":4380:4384  3600 */\n      0x0e10\n        /* \"contracts/votingProject/voting.sol\":4363:4379  _endTimeDuration */\n      dup2\n        /* \"contracts/votingProject/voting.sol\":4363:4384  _endTimeDuration>3600 */\n      gt\n        /* \"contracts/votingProject/voting.sol\":4354:4432  require (_endTimeDuration>3600,\"_endTimeDuration must be greater than 1 Hour\") */\n      tag_137\n      jumpi\n      mload(0x40)\n      0x08c379a000000000000000000000000000000000000000000000000000000000\n      dup2\n      mstore\n      0x04\n      add\n      tag_138\n      swap1\n      tag_139\n      jump\t// in\n    tag_138:\n      mload(0x40)\n      dup1\n      swap2\n      sub\n      swap1\n      revert\n    tag_137:\n        /* \"contracts/votingProject/voting.sol\":4466:4484  _startTimeDuration */\n      dup2\n        /* \"contracts/votingProject/voting.sol\":4455:4465  1720799550 */\n      0x6691513e\n        /* \"contracts/votingProject/voting.sol\":4455:4484  1720799550+_startTimeDuration */\n      tag_140\n      swap2\n      swap1\n      tag_141\n      jump\t// in\n    tag_140:\n        /* \"contracts/votingProject/voting.sol\":4443:4452  startTime */\n      0x04\n        /* \"contracts/votingProject/voting.sol\":4443:4484  startTime = 1720799550+_startTimeDuration */\n      dup2\n      swap1\n      sstore\n      pop\n        /* \"contracts/votingProject/voting.sol\":4515:4531  _endTimeDuration */\n      dup1\n        /* \"contracts/votingProject/voting.sol\":4505:4514  startTime */\n      sload(0x04)\n        /* \"contracts/votingProject/voting.sol\":4505:4531  startTime+_endTimeDuration */\n      tag_142\n      swap2\n      swap1\n      tag_141\n      jump\t// in\n    tag_142:\n        /* \"contracts/votingProject/voting.sol\":4495:4502  endTime */\n      0x05\n        /* \"contracts/votingProject/voting.sol\":4495:4531  endTime = startTime+_endTimeDuration */\n      dup2\n      swap1\n      sstore\n      pop\n        /* \"contracts/votingProject/voting.sol\":4243:4539  function setVotingPeriod(uint _startTimeDuration, uint _endTimeDuration) external onlyCommissioner(){... */\n      pop\n      pop\n      jump\t// out\n        /* \"contracts/votingProject/voting.sol\":478:511  address public electionCommission */\n    tag_39:\n      0x00\n      0x00\n      swap1\n      sload\n      swap1\n      0x0100\n      exp\n      swap1\n      div\n      0xffffffffffffffffffffffffffffffffffffffff\n      and\n      dup2\n      jump\t// out\n        /* \"contracts/votingProject/voting.sol\":3371:3678  function getVoterList() public view returns (Voter[] memory){... */\n    tag_43:\n        /* \"contracts/votingProject/voting.sol\":3416:3430  Voter[] memory */\n      0x60\n        /* \"contracts/votingProject/voting.sol\":3442:3456  uint lengthArr */\n      0x00\n        /* \"contracts/votingProject/voting.sol\":3471:3472  1 */\n      0x01\n        /* \"contracts/votingProject/voting.sol\":3459:3470  nextVoterId */\n      sload(0x02)\n        /* \"contracts/votingProject/voting.sol\":3459:3472  nextVoterId-1 */\n      tag_144\n      swap2\n      swap1\n      tag_145\n      jump\t// in\n    tag_144:\n        /* \"contracts/votingProject/voting.sol\":3442:3472  uint lengthArr = nextVoterId-1 */\n      swap1\n      pop\n        /* \"contracts/votingProject/voting.sol\":3483:3507  Voter[] memory voterList */\n      0x00\n        /* \"contracts/votingProject/voting.sol\":3522:3531  lengthArr */\n      dup2\n        /* \"contracts/votingProject/voting.sol\":3510:3532  new Voter[](lengthArr) */\n      0xffffffffffffffff\n      dup2\n      gt\n      iszero\n      tag_146\n      jumpi\n      tag_147\n      tag_148\n      jump\t// in\n    tag_147:\n    tag_146:\n      mload(0x40)\n      swap1\n      dup1\n      dup3\n      mstore\n      dup1\n      0x20\n      mul\n      0x20\n      add\n      dup3\n      add\n      0x40\n      mstore\n      dup1\n      iszero\n      tag_149\n      jumpi\n      dup2\n      0x20\n      add\n    tag_150:\n      tag_151\n      tag_152\n      jump\t// in\n    tag_151:\n      dup2\n      mstore\n      0x20\n      add\n      swap1\n      0x01\n      swap1\n      sub\n      swap1\n      dup2\n      tag_150\n      jumpi\n      swap1\n      pop\n    tag_149:\n      pop\n        /* \"contracts/votingProject/voting.sol\":3483:3532  Voter[] memory voterList = new Voter[](lengthArr) */\n      swap1\n      pop\n        /* \"contracts/votingProject/voting.sol\":3547:3553  uint i */\n      0x00\n        /* \"contracts/votingProject/voting.sol\":3556:3557  0 */\n      0x00\n        /* \"contracts/votingProject/voting.sol\":3547:3557  uint i = 0 */\n      swap1\n      pop\n        /* \"contracts/votingProject/voting.sol\":3543:3644  for(uint i = 0 ; i<voterList.length;  i++){... */\n    tag_153:\n        /* \"contracts/votingProject/voting.sol\":3562:3571  voterList */\n      dup2\n        /* \"contracts/votingProject/voting.sol\":3562:3578  voterList.length */\n      mload\n        /* \"contracts/votingProject/voting.sol\":3560:3561  i */\n      dup2\n        /* \"contracts/votingProject/voting.sol\":3560:3578  i<voterList.length */\n      lt\n        /* \"contracts/votingProject/voting.sol\":3543:3644  for(uint i = 0 ; i<voterList.length;  i++){... */\n      iszero\n      tag_154\n      jumpi\n        /* \"contracts/votingProject/voting.sol\":3615:3627  voterDetails */\n      0x07\n        /* \"contracts/votingProject/voting.sol\":3615:3632  voterDetails[i+1] */\n      0x00\n        /* \"contracts/votingProject/voting.sol\":3630:3631  1 */\n      0x01\n        /* \"contracts/votingProject/voting.sol\":3628:3629  i */\n      dup4\n        /* \"contracts/votingProject/voting.sol\":3628:3631  i+1 */\n      tag_156\n      swap2\n      swap1\n      tag_141\n      jump\t// in\n    tag_156:\n        /* \"contracts/votingProject/voting.sol\":3615:3632  voterDetails[i+1] */\n      dup2\n      mstore\n      0x20\n      add\n      swap1\n      dup2\n      mstore\n      0x20\n      add\n      0x00\n      keccak256\n        /* \"contracts/votingProject/voting.sol\":3600:3632  voterList[i] = voterDetails[i+1] */\n      mload(0x40)\n      dup1\n      0xc0\n      add\n      0x40\n      mstore\n      swap1\n      dup2\n      0x00\n      dup3\n      add\n      dup1\n      sload\n      tag_157\n      swap1\n      tag_158\n      jump\t// in\n    tag_157:\n      dup1\n      0x1f\n      add\n      0x20\n      dup1\n      swap2\n      div\n      mul\n      0x20\n      add\n      mload(0x40)\n      swap1\n      dup2\n      add\n      0x40\n      mstore\n      dup1\n      swap3\n      swap2\n      swap1\n      dup2\n      dup2\n      mstore\n      0x20\n      add\n      dup3\n      dup1\n      sload\n      tag_159\n      swap1\n      tag_158\n      jump\t// in\n    tag_159:\n      dup1\n      iszero\n      tag_160\n      jumpi\n      dup1\n      0x1f\n      lt\n      tag_161\n      jumpi\n      0x0100\n      dup1\n      dup4\n      sload\n      div\n      mul\n      dup4\n      mstore\n      swap2\n      0x20\n      add\n      swap2\n      jump(tag_160)\n    tag_161:\n      dup3\n      add\n      swap2\n      swap1\n      0x00\n      mstore\n      keccak256(0x00, 0x20)\n      swap1\n    tag_162:\n      dup2\n      sload\n      dup2\n      mstore\n      swap1\n      0x01\n      add\n      swap1\n      0x20\n      add\n      dup1\n      dup4\n      gt\n      tag_162\n      jumpi\n      dup3\n      swap1\n      sub\n      0x1f\n      and\n      dup3\n      add\n      swap2\n    tag_160:\n      pop\n      pop\n      pop\n      pop\n      pop\n      dup2\n      mstore\n      0x20\n      add\n      0x01\n      dup3\n      add\n      sload\n      dup2\n      mstore\n      0x20\n      add\n      0x02\n      dup3\n      add\n      sload\n      dup2\n      mstore\n      0x20\n      add\n      0x03\n      dup3\n      add\n      0x00\n      swap1\n      sload\n      swap1\n      0x0100\n      exp\n      swap1\n      div\n      0xff\n      and\n      0x03\n      dup2\n      gt\n      iszero\n      tag_163\n      jumpi\n      tag_164\n      tag_105\n      jump\t// in\n    tag_164:\n    tag_163:\n      0x03\n      dup2\n      gt\n      iszero\n      tag_165\n      jumpi\n      tag_166\n      tag_105\n      jump\t// in\n    tag_166:\n    tag_165:\n      dup2\n      mstore\n      0x20\n      add\n      0x04\n      dup3\n      add\n      sload\n      dup2\n      mstore\n      0x20\n      add\n      0x05\n      dup3\n      add\n      0x00\n      swap1\n      sload\n      swap1\n      0x0100\n      exp\n      swap1\n      div\n      0xffffffffffffffffffffffffffffffffffffffff\n      and\n      0xffffffffffffffffffffffffffffffffffffffff\n      and\n      0xffffffffffffffffffffffffffffffffffffffff\n      and\n      dup2\n      mstore\n      pop\n      pop\n        /* \"contracts/votingProject/voting.sol\":3600:3609  voterList */\n      dup3\n        /* \"contracts/votingProject/voting.sol\":3610:3611  i */\n      dup3\n        /* \"contracts/votingProject/voting.sol\":3600:3612  voterList[i] */\n      dup2\n      mload\n      dup2\n      lt\n      tag_167\n      jumpi\n      tag_168\n      tag_169\n      jump\t// in\n    tag_168:\n    tag_167:\n      0x20\n      mul\n      0x20\n      add\n      add\n        /* \"contracts/votingProject/voting.sol\":3600:3632  voterList[i] = voterDetails[i+1] */\n      dup2\n      swap1\n      mstore\n      pop\n        /* \"contracts/votingProject/voting.sol\":3581:3584  i++ */\n      dup1\n      dup1\n      0x01\n      add\n      swap2\n      pop\n      pop\n        /* \"contracts/votingProject/voting.sol\":3543:3644  for(uint i = 0 ; i<voterList.length;  i++){... */\n      jump(tag_153)\n    tag_154:\n      pop\n        /* \"contracts/votingProject/voting.sol\":3661:3670  voterList */\n      dup1\n        /* \"contracts/votingProject/voting.sol\":3654:3670  return voterList */\n      swap3\n      pop\n      pop\n      pop\n        /* \"contracts/votingProject/voting.sol\":3371:3678  function getVoterList() public view returns (Voter[] memory){... */\n      swap1\n      jump\t// out\n        /* \"contracts/votingProject/voting.sol\":518:539  address public winner */\n    tag_47:\n      0x01\n      0x00\n      swap1\n      sload\n      swap1\n      0x0100\n      exp\n      swap1\n      div\n      0xffffffffffffffffffffffffffffffffffffffff\n      and\n      dup2\n      jump\t// out\n        /* \"contracts/votingProject/voting.sol\":2384:2691  function getCandidateList() public view returns(Candidate[] memory){... */\n    tag_50:\n        /* \"contracts/votingProject/voting.sol\":2432:2450  Candidate[] memory */\n      0x60\n        /* \"contracts/votingProject/voting.sol\":2462:2495  Candidate [] memory candidateList */\n      0x00\n        /* \"contracts/votingProject/voting.sol\":2530:2531  1 */\n      0x01\n        /* \"contracts/votingProject/voting.sol\":2514:2529  nextCandidateId */\n      sload(0x03)\n        /* \"contracts/votingProject/voting.sol\":2514:2531  nextCandidateId-1 */\n      tag_171\n      swap2\n      swap1\n      tag_145\n      jump\t// in\n    tag_171:\n        /* \"contracts/votingProject/voting.sol\":2498:2532  new Candidate[](nextCandidateId-1) */\n      0xffffffffffffffff\n      dup2\n      gt\n      iszero\n      tag_172\n      jumpi\n      tag_173\n      tag_148\n      jump\t// in\n    tag_173:\n    tag_172:\n      mload(0x40)\n      swap1\n      dup1\n      dup3\n      mstore\n      dup1\n      0x20\n      mul\n      0x20\n      add\n      dup3\n      add\n      0x40\n      mstore\n      dup1\n      iszero\n      tag_174\n      jumpi\n      dup2\n      0x20\n      add\n    tag_175:\n      tag_176\n      tag_177\n      jump\t// in\n    tag_176:\n      dup2\n      mstore\n      0x20\n      add\n      swap1\n      0x01\n      swap1\n      sub\n      swap1\n      dup2\n      tag_175\n      jumpi\n      swap1\n      pop\n    tag_174:\n      pop\n        /* \"contracts/votingProject/voting.sol\":2462:2532  Candidate [] memory candidateList = new Candidate[](nextCandidateId-1) */\n      swap1\n      pop\n        /* \"contracts/votingProject/voting.sol\":2547:2553  uint i */\n      0x00\n        /* \"contracts/votingProject/voting.sol\":2556:2557  0 */\n      0x00\n        /* \"contracts/votingProject/voting.sol\":2547:2557  uint i = 0 */\n      swap1\n      pop\n        /* \"contracts/votingProject/voting.sol\":2543:2653  for(uint i = 0;i< candidateList.length;i++){... */\n    tag_178:\n        /* \"contracts/votingProject/voting.sol\":2561:2574  candidateList */\n      dup2\n        /* \"contracts/votingProject/voting.sol\":2561:2581  candidateList.length */\n      mload\n        /* \"contracts/votingProject/voting.sol\":2558:2559  i */\n      dup2\n        /* \"contracts/votingProject/voting.sol\":2558:2581  i< candidateList.length */\n      lt\n        /* \"contracts/votingProject/voting.sol\":2543:2653  for(uint i = 0;i< candidateList.length;i++){... */\n      iszero\n      tag_179\n      jumpi\n        /* \"contracts/votingProject/voting.sol\":2620:2636  candidateDetails */\n      0x08\n        /* \"contracts/votingProject/voting.sol\":2620:2641  candidateDetails[i+1] */\n      0x00\n        /* \"contracts/votingProject/voting.sol\":2639:2640  1 */\n      0x01\n        /* \"contracts/votingProject/voting.sol\":2637:2638  i */\n      dup4\n        /* \"contracts/votingProject/voting.sol\":2637:2640  i+1 */\n      tag_181\n      swap2\n      swap1\n      tag_141\n      jump\t// in\n    tag_181:\n        /* \"contracts/votingProject/voting.sol\":2620:2641  candidateDetails[i+1] */\n      dup2\n      mstore\n      0x20\n      add\n      swap1\n      dup2\n      mstore\n      0x20\n      add\n      0x00\n      keccak256\n        /* \"contracts/votingProject/voting.sol\":2601:2641  candidateList[i] = candidateDetails[i+1] */\n      mload(0x40)\n      dup1\n      0xe0\n      add\n      0x40\n      mstore\n      swap1\n      dup2\n      0x00\n      dup3\n      add\n      dup1\n      sload\n      tag_182\n      swap1\n      tag_158\n      jump\t// in\n    tag_182:\n      dup1\n      0x1f\n      add\n      0x20\n      dup1\n      swap2\n      div\n      mul\n      0x20\n      add\n      mload(0x40)\n      swap1\n      dup2\n      add\n      0x40\n      mstore\n      dup1\n      swap3\n      swap2\n      swap1\n      dup2\n      dup2\n      mstore\n      0x20\n      add\n      dup3\n      dup1\n      sload\n      tag_183\n      swap1\n      tag_158\n      jump\t// in\n    tag_183:\n      dup1\n      iszero\n      tag_184\n      jumpi\n      dup1\n      0x1f\n      lt\n      tag_185\n      jumpi\n      0x0100\n      dup1\n      dup4\n      sload\n      div\n      mul\n      dup4\n      mstore\n      swap2\n      0x20\n      add\n      swap2\n      jump(tag_184)\n    tag_185:\n      dup3\n      add\n      swap2\n      swap1\n      0x00\n      mstore\n      keccak256(0x00, 0x20)\n      swap1\n    tag_186:\n      dup2\n      sload\n      dup2\n      mstore\n      swap1\n      0x01\n      add\n      swap1\n      0x20\n      add\n      dup1\n      dup4\n      gt\n      tag_186\n      jumpi\n      dup3\n      swap1\n      sub\n      0x1f\n      and\n      dup3\n      add\n      swap2\n    tag_184:\n      pop\n      pop\n      pop\n      pop\n      pop\n      dup2\n      mstore\n      0x20\n      add\n      0x01\n      dup3\n      add\n      dup1\n      sload\n      tag_187\n      swap1\n      tag_158\n      jump\t// in\n    tag_187:\n      dup1\n      0x1f\n      add\n      0x20\n      dup1\n      swap2\n      div\n      mul\n      0x20\n      add\n      mload(0x40)\n      swap1\n      dup2\n      add\n      0x40\n      mstore\n      dup1\n      swap3\n      swap2\n      swap1\n      dup2\n      dup2\n      mstore\n      0x20\n      add\n      dup3\n      dup1\n      sload\n      tag_188\n      swap1\n      tag_158\n      jump\t// in\n    tag_188:\n      dup1\n      iszero\n      tag_189\n      jumpi\n      dup1\n      0x1f\n      lt\n      tag_190\n      jumpi\n      0x0100\n      dup1\n      dup4\n      sload\n      div\n      mul\n      dup4\n      mstore\n      swap2\n      0x20\n      add\n      swap2\n      jump(tag_189)\n    tag_190:\n      dup3\n      add\n      swap2\n      swap1\n      0x00\n      mstore\n      keccak256(0x00, 0x20)\n      swap1\n    tag_191:\n      dup2\n      sload\n      dup2\n      mstore\n      swap1\n      0x01\n      add\n      swap1\n      0x20\n      add\n      dup1\n      dup4\n      gt\n      tag_191\n      jumpi\n      dup3\n      swap1\n      sub\n      0x1f\n      and\n      dup3\n      add\n      swap2\n    tag_189:\n      pop\n      pop\n      pop\n      pop\n      pop\n      dup2\n      mstore\n      0x20\n      add\n      0x02\n      dup3\n      add\n      sload\n      dup2\n      mstore\n      0x20\n      add\n      0x03\n      dup3\n      add\n      0x00\n      swap1\n      sload\n      swap1\n      0x0100\n      exp\n      swap1\n      div\n      0xff\n      and\n      0x03\n      dup2\n      gt\n      iszero\n      tag_192\n      jumpi\n      tag_193\n      tag_105\n      jump\t// in\n    tag_193:\n    tag_192:\n      0x03\n      dup2\n      gt\n      iszero\n      tag_194\n      jumpi\n      tag_195\n      tag_105\n      jump\t// in\n    tag_195:\n    tag_194:\n      dup2\n      mstore\n      0x20\n      add\n      0x04\n      dup3\n      add\n      sload\n      dup2\n      mstore\n      0x20\n      add\n      0x05\n      dup3\n      add\n      0x00\n      swap1\n      sload\n      swap1\n      0x0100\n      exp\n      swap1\n      div\n      0xffffffffffffffffffffffffffffffffffffffff\n      and\n      0xffffffffffffffffffffffffffffffffffffffff\n      and\n      0xffffffffffffffffffffffffffffffffffffffff\n      and\n      dup2\n      mstore\n      0x20\n      add\n      0x06\n      dup3\n      add\n      sload\n      dup2\n      mstore\n      pop\n      pop\n        /* \"contracts/votingProject/voting.sol\":2601:2614  candidateList */\n      dup3\n        /* \"contracts/votingProject/voting.sol\":2615:2616  i */\n      dup3\n        /* \"contracts/votingProject/voting.sol\":2601:2617  candidateList[i] */\n      dup2\n      mload\n      dup2\n      lt\n      tag_196\n      jumpi\n      tag_197\n      tag_169\n      jump\t// in\n    tag_197:\n    tag_196:\n      0x20\n      mul\n      0x20\n      add\n      add\n        /* \"contracts/votingProject/voting.sol\":2601:2641  candidateList[i] = candidateDetails[i+1] */\n      dup2\n      swap1\n      mstore\n      pop\n        /* \"contracts/votingProject/voting.sol\":2582:2585  i++ */\n      dup1\n      dup1\n      0x01\n      add\n      swap2\n      pop\n      pop\n        /* \"contracts/votingProject/voting.sol\":2543:2653  for(uint i = 0;i< candidateList.length;i++){... */\n      jump(tag_178)\n    tag_179:\n      pop\n        /* \"contracts/votingProject/voting.sol\":2670:2683  candidateList */\n      dup1\n        /* \"contracts/votingProject/voting.sol\":2663:2683  return candidateList */\n      swap2\n      pop\n      pop\n        /* \"contracts/votingProject/voting.sol\":2384:2691  function getCandidateList() public view returns(Candidate[] memory){... */\n      swap1\n      jump\t// out\n        /* \"contracts/votingProject/voting.sol\":2699:2960  function isVoterNotRegistered (address _person) private view returns(bool){... */\n    tag_99:\n        /* \"contracts/votingProject/voting.sol\":2768:2772  bool */\n      0x00\n        /* \"contracts/votingProject/voting.sol\":2788:2794  uint i */\n      0x00\n        /* \"contracts/votingProject/voting.sol\":2795:2796  1 */\n      0x01\n        /* \"contracts/votingProject/voting.sol\":2788:2796  uint i=1 */\n      swap1\n      pop\n        /* \"contracts/votingProject/voting.sol\":2784:2931  for(uint i=1;i<nextVoterId;i++){... */\n    tag_199:\n        /* \"contracts/votingProject/voting.sol\":2799:2810  nextVoterId */\n      sload(0x02)\n        /* \"contracts/votingProject/voting.sol\":2797:2798  i */\n      dup2\n        /* \"contracts/votingProject/voting.sol\":2797:2810  i<nextVoterId */\n      lt\n        /* \"contracts/votingProject/voting.sol\":2784:2931  for(uint i=1;i<nextVoterId;i++){... */\n      iszero\n      tag_200\n      jumpi\n        /* \"contracts/votingProject/voting.sol\":2865:2872  _person */\n      dup3\n        /* \"contracts/votingProject/voting.sol\":2833:2872  voterDetails[i].voterAddress == _person */\n      0xffffffffffffffffffffffffffffffffffffffff\n      and\n        /* \"contracts/votingProject/voting.sol\":2833:2845  voterDetails */\n      0x07\n        /* \"contracts/votingProject/voting.sol\":2833:2848  voterDetails[i] */\n      0x00\n        /* \"contracts/votingProject/voting.sol\":2846:2847  i */\n      dup4\n        /* \"contracts/votingProject/voting.sol\":2833:2848  voterDetails[i] */\n      dup2\n      mstore\n      0x20\n      add\n      swap1\n      dup2\n      mstore\n      0x20\n      add\n      0x00\n      keccak256\n        /* \"contracts/votingProject/voting.sol\":2833:2861  voterDetails[i].voterAddress */\n      0x05\n      add\n      0x00\n      swap1\n      sload\n      swap1\n      0x0100\n      exp\n      swap1\n      div\n      0xffffffffffffffffffffffffffffffffffffffff\n      and\n        /* \"contracts/votingProject/voting.sol\":2833:2872  voterDetails[i].voterAddress == _person */\n      0xffffffffffffffffffffffffffffffffffffffff\n      and\n      sub\n        /* \"contracts/votingProject/voting.sol\":2830:2920  if(voterDetails[i].voterAddress == _person){... */\n      tag_202\n      jumpi\n        /* \"contracts/votingProject/voting.sol\":2899:2904  false */\n      0x00\n        /* \"contracts/votingProject/voting.sol\":2892:2904  return false */\n      swap2\n      pop\n      pop\n      jump(tag_198)\n        /* \"contracts/votingProject/voting.sol\":2830:2920  if(voterDetails[i].voterAddress == _person){... */\n    tag_202:\n        /* \"contracts/votingProject/voting.sol\":2811:2814  i++ */\n      dup1\n      dup1\n      0x01\n      add\n      swap2\n      pop\n      pop\n        /* \"contracts/votingProject/voting.sol\":2784:2931  for(uint i=1;i<nextVoterId;i++){... */\n      jump(tag_199)\n    tag_200:\n      pop\n        /* \"contracts/votingProject/voting.sol\":2948:2952  true */\n      0x01\n        /* \"contracts/votingProject/voting.sol\":2941:2952  return true */\n      swap1\n      pop\n        /* \"contracts/votingProject/voting.sol\":2699:2960  function isVoterNotRegistered (address _person) private view returns(bool){... */\n    tag_198:\n      swap2\n      swap1\n      pop\n      jump\t// out\n        /* \"contracts/votingProject/voting.sol\":2101:2376  function isCandidateNotRegistered(address _person) private view returns (bool){... */\n    tag_116:\n        /* \"contracts/votingProject/voting.sol\":2174:2178  bool */\n      0x00\n        /* \"contracts/votingProject/voting.sol\":2194:2200  uint i */\n      0x00\n        /* \"contracts/votingProject/voting.sol\":2201:2202  1 */\n      0x01\n        /* \"contracts/votingProject/voting.sol\":2194:2202  uint i=1 */\n      swap1\n      pop\n        /* \"contracts/votingProject/voting.sol\":2190:2347  for(uint i=1;i<nextCandidateId;i++){... */\n    tag_204:\n        /* \"contracts/votingProject/voting.sol\":2205:2220  nextCandidateId */\n      sload(0x03)\n        /* \"contracts/votingProject/voting.sol\":2203:2204  i */\n      dup2\n        /* \"contracts/votingProject/voting.sol\":2203:2220  i<nextCandidateId */\n      lt\n        /* \"contracts/votingProject/voting.sol\":2190:2347  for(uint i=1;i<nextCandidateId;i++){... */\n      iszero\n      tag_205\n      jumpi\n        /* \"contracts/votingProject/voting.sol\":2281:2288  _person */\n      dup3\n        /* \"contracts/votingProject/voting.sol\":2243:2288  candidateDetails[i].candidateAddress==_person */\n      0xffffffffffffffffffffffffffffffffffffffff\n      and\n        /* \"contracts/votingProject/voting.sol\":2243:2259  candidateDetails */\n      0x08\n        /* \"contracts/votingProject/voting.sol\":2243:2262  candidateDetails[i] */\n      0x00\n        /* \"contracts/votingProject/voting.sol\":2260:2261  i */\n      dup4\n        /* \"contracts/votingProject/voting.sol\":2243:2262  candidateDetails[i] */\n      dup2\n      mstore\n      0x20\n      add\n      swap1\n      dup2\n      mstore\n      0x20\n      add\n      0x00\n      keccak256\n        /* \"contracts/votingProject/voting.sol\":2243:2279  candidateDetails[i].candidateAddress */\n      0x05\n      add\n      0x00\n      swap1\n      sload\n      swap1\n      0x0100\n      exp\n      swap1\n      div\n      0xffffffffffffffffffffffffffffffffffffffff\n      and\n        /* \"contracts/votingProject/voting.sol\":2243:2288  candidateDetails[i].candidateAddress==_person */\n      0xffffffffffffffffffffffffffffffffffffffff\n      and\n      sub\n        /* \"contracts/votingProject/voting.sol\":2240:2336  if(candidateDetails[i].candidateAddress==_person){... */\n      tag_207\n      jumpi\n        /* \"contracts/votingProject/voting.sol\":2315:2320  false */\n      0x00\n        /* \"contracts/votingProject/voting.sol\":2308:2320  return false */\n      swap2\n      pop\n      pop\n      jump(tag_203)\n        /* \"contracts/votingProject/voting.sol\":2240:2336  if(candidateDetails[i].candidateAddress==_person){... */\n    tag_207:\n        /* \"contracts/votingProject/voting.sol\":2221:2224  i++ */\n      dup1\n      dup1\n      0x01\n      add\n      swap2\n      pop\n      pop\n        /* \"contracts/votingProject/voting.sol\":2190:2347  for(uint i=1;i<nextCandidateId;i++){... */\n      jump(tag_204)\n    tag_205:\n      pop\n        /* \"contracts/votingProject/voting.sol\":2364:2368  true */\n      0x01\n        /* \"contracts/votingProject/voting.sol\":2357:2368  return true */\n      swap1\n      pop\n        /* \"contracts/votingProject/voting.sol\":2101:2376  function isCandidateNotRegistered(address _person) private view returns (bool){... */\n    tag_203:\n      swap2\n      swap1\n      pop\n      jump\t// out\n    tag_152:\n      mload(0x40)\n      dup1\n      0xc0\n      add\n      0x40\n      mstore\n      dup1\n      0x60\n      dup2\n      mstore\n      0x20\n      add\n      0x00\n      dup2\n      mstore\n      0x20\n      add\n      0x00\n      dup2\n      mstore\n      0x20\n      add\n      0x00\n      0x03\n      dup2\n      gt\n      iszero\n      tag_208\n      jumpi\n      tag_209\n      tag_105\n      jump\t// in\n    tag_209:\n    tag_208:\n      dup2\n      mstore\n      0x20\n      add\n      0x00\n      dup2\n      mstore\n      0x20\n      add\n      and(0xffffffffffffffffffffffffffffffffffffffff, 0x00)\n      dup2\n      mstore\n      pop\n      swap1\n      jump\t// out\n    tag_177:\n      mload(0x40)\n      dup1\n      0xe0\n      add\n      0x40\n      mstore\n      dup1\n      0x60\n      dup2\n      mstore\n      0x20\n      add\n      0x60\n      dup2\n      mstore\n      0x20\n      add\n      0x00\n      dup2\n      mstore\n      0x20\n      add\n      0x00\n      0x03\n      dup2\n      gt\n      iszero\n      tag_210\n      jumpi\n      tag_211\n      tag_105\n      jump\t// in\n    tag_211:\n    tag_210:\n      dup2\n      mstore\n      0x20\n      add\n      0x00\n      dup2\n      mstore\n      0x20\n      add\n      and(0xffffffffffffffffffffffffffffffffffffffff, 0x00)\n      dup2\n      mstore\n      0x20\n      add\n      0x00\n      dup2\n      mstore\n      pop\n      swap1\n      jump\t// out\n        /* \"#utility.yul\":88:205   */\n    tag_213:\n        /* \"#utility.yul\":197:198   */\n      0x00\n        /* \"#utility.yul\":194:195   */\n      0x00\n        /* \"#utility.yul\":187:199   */\n      revert\n        /* \"#utility.yul\":211:328   */\n    tag_214:\n        /* \"#utility.yul\":320:321   */\n      0x00\n        /* \"#utility.yul\":317:318   */\n      0x00\n        /* \"#utility.yul\":310:322   */\n      revert\n        /* \"#utility.yul\":334:411   */\n    tag_215:\n        /* \"#utility.yul\":371:378   */\n      0x00\n        /* \"#utility.yul\":400:405   */\n      dup2\n        /* \"#utility.yul\":389:405   */\n      swap1\n      pop\n        /* \"#utility.yul\":334:411   */\n      swap2\n      swap1\n      pop\n      jump\t// out\n        /* \"#utility.yul\":417:539   */\n    tag_216:\n        /* \"#utility.yul\":490:514   */\n      tag_304\n        /* \"#utility.yul\":508:513   */\n      dup2\n        /* \"#utility.yul\":490:514   */\n      tag_215\n      jump\t// in\n    tag_304:\n        /* \"#utility.yul\":483:488   */\n      dup2\n        /* \"#utility.yul\":480:515   */\n      eq\n        /* \"#utility.yul\":470:533   */\n      tag_305\n      jumpi\n        /* \"#utility.yul\":529:530   */\n      0x00\n        /* \"#utility.yul\":526:527   */\n      0x00\n        /* \"#utility.yul\":519:531   */\n      revert\n        /* \"#utility.yul\":470:533   */\n    tag_305:\n        /* \"#utility.yul\":417:539   */\n      pop\n      jump\t// out\n        /* \"#utility.yul\":545:684   */\n    tag_217:\n        /* \"#utility.yul\":591:596   */\n      0x00\n        /* \"#utility.yul\":629:635   */\n      dup2\n        /* \"#utility.yul\":616:636   */\n      calldataload\n        /* \"#utility.yul\":607:636   */\n      swap1\n      pop\n        /* \"#utility.yul\":645:678   */\n      tag_307\n        /* \"#utility.yul\":672:677   */\n      dup2\n        /* \"#utility.yul\":645:678   */\n      tag_216\n      jump\t// in\n    tag_307:\n        /* \"#utility.yul\":545:684   */\n      swap3\n      swap2\n      pop\n      pop\n      jump\t// out\n        /* \"#utility.yul\":690:1164   */\n    tag_17:\n        /* \"#utility.yul\":758:764   */\n      0x00\n        /* \"#utility.yul\":766:772   */\n      0x00\n        /* \"#utility.yul\":815:817   */\n      0x40\n        /* \"#utility.yul\":803:812   */\n      dup4\n        /* \"#utility.yul\":794:801   */\n      dup6\n        /* \"#utility.yul\":790:813   */\n      sub\n        /* \"#utility.yul\":786:818   */\n      slt\n        /* \"#utility.yul\":783:902   */\n      iszero\n      tag_309\n      jumpi\n        /* \"#utility.yul\":821:900   */\n      tag_310\n      tag_213\n      jump\t// in\n    tag_310:\n        /* \"#utility.yul\":783:902   */\n    tag_309:\n        /* \"#utility.yul\":941:942   */\n      0x00\n        /* \"#utility.yul\":966:1019   */\n      tag_311\n        /* \"#utility.yul\":1011:1018   */\n      dup6\n        /* \"#utility.yul\":1002:1008   */\n      dup3\n        /* \"#utility.yul\":991:1000   */\n      dup7\n        /* \"#utility.yul\":987:1009   */\n      add\n        /* \"#utility.yul\":966:1019   */\n      tag_217\n      jump\t// in\n    tag_311:\n        /* \"#utility.yul\":956:1019   */\n      swap3\n      pop\n        /* \"#utility.yul\":912:1029   */\n      pop\n        /* \"#utility.yul\":1068:1070   */\n      0x20\n        /* \"#utility.yul\":1094:1147   */\n      tag_312\n        /* \"#utility.yul\":1139:1146   */\n      dup6\n        /* \"#utility.yul\":1130:1136   */\n      dup3\n        /* \"#utility.yul\":1119:1128   */\n      dup7\n        /* \"#utility.yul\":1115:1137   */\n      add\n        /* \"#utility.yul\":1094:1147   */\n      tag_217\n      jump\t// in\n    tag_312:\n        /* \"#utility.yul\":1084:1147   */\n      swap2\n      pop\n        /* \"#utility.yul\":1039:1157   */\n      pop\n        /* \"#utility.yul\":690:1164   */\n      swap3\n      pop\n      swap3\n      swap1\n      pop\n      jump\t// out\n        /* \"#utility.yul\":1170:1350   */\n    tag_105:\n        /* \"#utility.yul\":1218:1295   */\n      0x4e487b7100000000000000000000000000000000000000000000000000000000\n        /* \"#utility.yul\":1215:1216   */\n      0x00\n        /* \"#utility.yul\":1208:1296   */\n      mstore\n        /* \"#utility.yul\":1315:1319   */\n      0x21\n        /* \"#utility.yul\":1312:1313   */\n      0x04\n        /* \"#utility.yul\":1305:1320   */\n      mstore\n        /* \"#utility.yul\":1339:1343   */\n      0x24\n        /* \"#utility.yul\":1336:1337   */\n      0x00\n        /* \"#utility.yul\":1329:1344   */\n      revert\n        /* \"#utility.yul\":1356:1476   */\n    tag_218:\n        /* \"#utility.yul\":1444:1445   */\n      0x03\n        /* \"#utility.yul\":1437:1442   */\n      dup2\n        /* \"#utility.yul\":1434:1446   */\n      lt\n        /* \"#utility.yul\":1424:1470   */\n      tag_315\n      jumpi\n        /* \"#utility.yul\":1450:1468   */\n      tag_316\n      tag_105\n      jump\t// in\n    tag_316:\n        /* \"#utility.yul\":1424:1470   */\n    tag_315:\n        /* \"#utility.yul\":1356:1476   */\n      pop\n      jump\t// out\n        /* \"#utility.yul\":1482:1623   */\n    tag_219:\n        /* \"#utility.yul\":1534:1541   */\n      0x00\n        /* \"#utility.yul\":1563:1568   */\n      dup2\n        /* \"#utility.yul\":1552:1568   */\n      swap1\n      pop\n        /* \"#utility.yul\":1569:1617   */\n      tag_318\n        /* \"#utility.yul\":1611:1616   */\n      dup3\n        /* \"#utility.yul\":1569:1617   */\n      tag_218\n      jump\t// in\n    tag_318:\n        /* \"#utility.yul\":1482:1623   */\n      swap2\n      swap1\n      pop\n      jump\t// out\n        /* \"#utility.yul\":1629:1770   */\n    tag_220:\n        /* \"#utility.yul\":1692:1701   */\n      0x00\n        /* \"#utility.yul\":1725:1764   */\n      tag_320\n        /* \"#utility.yul\":1758:1763   */\n      dup3\n        /* \"#utility.yul\":1725:1764   */\n      tag_219\n      jump\t// in\n    tag_320:\n        /* \"#utility.yul\":1712:1764   */\n      swap1\n      pop\n        /* \"#utility.yul\":1629:1770   */\n      swap2\n      swap1\n      pop\n      jump\t// out\n        /* \"#utility.yul\":1776:1933   */\n    tag_221:\n        /* \"#utility.yul\":1876:1926   */\n      tag_322\n        /* \"#utility.yul\":1920:1925   */\n      dup2\n        /* \"#utility.yul\":1876:1926   */\n      tag_220\n      jump\t// in\n    tag_322:\n        /* \"#utility.yul\":1871:1874   */\n      dup3\n        /* \"#utility.yul\":1864:1927   */\n      mstore\n        /* \"#utility.yul\":1776:1933   */\n      pop\n      pop\n      jump\t// out\n        /* \"#utility.yul\":1939:2187   */\n    tag_24:\n        /* \"#utility.yul\":2045:2049   */\n      0x00\n        /* \"#utility.yul\":2083:2085   */\n      0x20\n        /* \"#utility.yul\":2072:2081   */\n      dup3\n        /* \"#utility.yul\":2068:2086   */\n      add\n        /* \"#utility.yul\":2060:2086   */\n      swap1\n      pop\n        /* \"#utility.yul\":2096:2180   */\n      tag_324\n        /* \"#utility.yul\":2177:2178   */\n      0x00\n        /* \"#utility.yul\":2166:2175   */\n      dup4\n        /* \"#utility.yul\":2162:2179   */\n      add\n        /* \"#utility.yul\":2153:2159   */\n      dup5\n        /* \"#utility.yul\":2096:2180   */\n      tag_221\n      jump\t// in\n    tag_324:\n        /* \"#utility.yul\":1939:2187   */\n      swap3\n      swap2\n      pop\n      pop\n      jump\t// out\n        /* \"#utility.yul\":2193:2310   */\n    tag_222:\n        /* \"#utility.yul\":2302:2303   */\n      0x00\n        /* \"#utility.yul\":2299:2300   */\n      0x00\n        /* \"#utility.yul\":2292:2304   */\n      revert\n        /* \"#utility.yul\":2316:2433   */\n    tag_223:\n        /* \"#utility.yul\":2425:2426   */\n      0x00\n        /* \"#utility.yul\":2422:2423   */\n      0x00\n        /* \"#utility.yul\":2415:2427   */\n      revert\n        /* \"#utility.yul\":2439:2556   */\n    tag_224:\n        /* \"#utility.yul\":2548:2549   */\n      0x00\n        /* \"#utility.yul\":2545:2546   */\n      0x00\n        /* \"#utility.yul\":2538:2550   */\n      revert\n        /* \"#utility.yul\":2576:3129   */\n    tag_225:\n        /* \"#utility.yul\":2634:2642   */\n      0x00\n        /* \"#utility.yul\":2644:2650   */\n      0x00\n        /* \"#utility.yul\":2694:2697   */\n      dup4\n        /* \"#utility.yul\":2687:2691   */\n      0x1f\n        /* \"#utility.yul\":2679:2685   */\n      dup5\n        /* \"#utility.yul\":2675:2692   */\n      add\n        /* \"#utility.yul\":2671:2698   */\n      slt\n        /* \"#utility.yul\":2661:2783   */\n      tag_329\n      jumpi\n        /* \"#utility.yul\":2702:2781   */\n      tag_330\n      tag_222\n      jump\t// in\n    tag_330:\n        /* \"#utility.yul\":2661:2783   */\n    tag_329:\n        /* \"#utility.yul\":2815:2821   */\n      dup3\n        /* \"#utility.yul\":2802:2822   */\n      calldataload\n        /* \"#utility.yul\":2792:2822   */\n      swap1\n      pop\n        /* \"#utility.yul\":2845:2863   */\n      0xffffffffffffffff\n        /* \"#utility.yul\":2837:2843   */\n      dup2\n        /* \"#utility.yul\":2834:2864   */\n      gt\n        /* \"#utility.yul\":2831:2948   */\n      iszero\n      tag_331\n      jumpi\n        /* \"#utility.yul\":2867:2946   */\n      tag_332\n      tag_223\n      jump\t// in\n    tag_332:\n        /* \"#utility.yul\":2831:2948   */\n    tag_331:\n        /* \"#utility.yul\":2981:2985   */\n      0x20\n        /* \"#utility.yul\":2973:2979   */\n      dup4\n        /* \"#utility.yul\":2969:2986   */\n      add\n        /* \"#utility.yul\":2957:2986   */\n      swap2\n      pop\n        /* \"#utility.yul\":3035:3038   */\n      dup4\n        /* \"#utility.yul\":3027:3031   */\n      0x01\n        /* \"#utility.yul\":3019:3025   */\n      dup3\n        /* \"#utility.yul\":3015:3032   */\n      mul\n        /* \"#utility.yul\":3005:3013   */\n      dup4\n        /* \"#utility.yul\":3001:3033   */\n      add\n        /* \"#utility.yul\":2998:3039   */\n      gt\n        /* \"#utility.yul\":2995:3123   */\n      iszero\n      tag_333\n      jumpi\n        /* \"#utility.yul\":3042:3121   */\n      tag_334\n      tag_224\n      jump\t// in\n    tag_334:\n        /* \"#utility.yul\":2995:3123   */\n    tag_333:\n        /* \"#utility.yul\":2576:3129   */\n      swap3\n      pop\n      swap3\n      swap1\n      pop\n      jump\t// out\n        /* \"#utility.yul\":3135:3243   */\n    tag_226:\n        /* \"#utility.yul\":3217:3218   */\n      0x04\n        /* \"#utility.yul\":3210:3215   */\n      dup2\n        /* \"#utility.yul\":3207:3219   */\n      lt\n        /* \"#utility.yul\":3197:3237   */\n      tag_336\n      jumpi\n        /* \"#utility.yul\":3233:3234   */\n      0x00\n        /* \"#utility.yul\":3230:3231   */\n      0x00\n        /* \"#utility.yul\":3223:3235   */\n      revert\n        /* \"#utility.yul\":3197:3237   */\n    tag_336:\n        /* \"#utility.yul\":3135:3243   */\n      pop\n      jump\t// out\n        /* \"#utility.yul\":3249:3406   */\n    tag_227:\n        /* \"#utility.yul\":3304:3309   */\n      0x00\n        /* \"#utility.yul\":3342:3348   */\n      dup2\n        /* \"#utility.yul\":3329:3349   */\n      calldataload\n        /* \"#utility.yul\":3320:3349   */\n      swap1\n      pop\n        /* \"#utility.yul\":3358:3400   */\n      tag_338\n        /* \"#utility.yul\":3394:3399   */\n      dup2\n        /* \"#utility.yul\":3358:3400   */\n      tag_226\n      jump\t// in\n    tag_338:\n        /* \"#utility.yul\":3249:3406   */\n      swap3\n      swap2\n      pop\n      pop\n      jump\t// out\n        /* \"#utility.yul\":3412:4249   */\n    tag_29:\n        /* \"#utility.yul\":3510:3516   */\n      0x00\n        /* \"#utility.yul\":3518:3524   */\n      0x00\n        /* \"#utility.yul\":3526:3532   */\n      0x00\n        /* \"#utility.yul\":3534:3540   */\n      0x00\n        /* \"#utility.yul\":3583:3585   */\n      0x60\n        /* \"#utility.yul\":3571:3580   */\n      dup6\n        /* \"#utility.yul\":3562:3569   */\n      dup8\n        /* \"#utility.yul\":3558:3581   */\n      sub\n        /* \"#utility.yul\":3554:3586   */\n      slt\n        /* \"#utility.yul\":3551:3670   */\n      iszero\n      tag_340\n      jumpi\n        /* \"#utility.yul\":3589:3668   */\n      tag_341\n      tag_213\n      jump\t// in\n    tag_341:\n        /* \"#utility.yul\":3551:3670   */\n    tag_340:\n        /* \"#utility.yul\":3737:3738   */\n      0x00\n        /* \"#utility.yul\":3726:3735   */\n      dup6\n        /* \"#utility.yul\":3722:3739   */\n      add\n        /* \"#utility.yul\":3709:3740   */\n      calldataload\n        /* \"#utility.yul\":3767:3785   */\n      0xffffffffffffffff\n        /* \"#utility.yul\":3759:3765   */\n      dup2\n        /* \"#utility.yul\":3756:3786   */\n      gt\n        /* \"#utility.yul\":3753:3870   */\n      iszero\n      tag_342\n      jumpi\n        /* \"#utility.yul\":3789:3868   */\n      tag_343\n      tag_214\n      jump\t// in\n    tag_343:\n        /* \"#utility.yul\":3753:3870   */\n    tag_342:\n        /* \"#utility.yul\":3902:3967   */\n      tag_344\n        /* \"#utility.yul\":3959:3966   */\n      dup8\n        /* \"#utility.yul\":3950:3956   */\n      dup3\n        /* \"#utility.yul\":3939:3948   */\n      dup9\n        /* \"#utility.yul\":3935:3957   */\n      add\n        /* \"#utility.yul\":3902:3967   */\n      tag_225\n      jump\t// in\n    tag_344:\n        /* \"#utility.yul\":3884:3967   */\n      swap5\n      pop\n      swap5\n      pop\n        /* \"#utility.yul\":3680:3977   */\n      pop\n        /* \"#utility.yul\":4016:4018   */\n      0x20\n        /* \"#utility.yul\":4042:4095   */\n      tag_345\n        /* \"#utility.yul\":4087:4094   */\n      dup8\n        /* \"#utility.yul\":4078:4084   */\n      dup3\n        /* \"#utility.yul\":4067:4076   */\n      dup9\n        /* \"#utility.yul\":4063:4085   */\n      add\n        /* \"#utility.yul\":4042:4095   */\n      tag_217\n      jump\t// in\n    tag_345:\n        /* \"#utility.yul\":4032:4095   */\n      swap3\n      pop\n        /* \"#utility.yul\":3987:4105   */\n      pop\n        /* \"#utility.yul\":4144:4146   */\n      0x40\n        /* \"#utility.yul\":4170:4232   */\n      tag_346\n        /* \"#utility.yul\":4224:4231   */\n      dup8\n        /* \"#utility.yul\":4215:4221   */\n      dup3\n        /* \"#utility.yul\":4204:4213   */\n      dup9\n        /* \"#utility.yul\":4200:4222   */\n      add\n        /* \"#utility.yul\":4170:4232   */\n      tag_227\n      jump\t// in\n    tag_346:\n        /* \"#utility.yul\":4160:4232   */\n      swap2\n      pop\n        /* \"#utility.yul\":4115:4242   */\n      pop\n        /* \"#utility.yul\":3412:4249   */\n      swap3\n      swap6\n      swap2\n      swap5\n      pop\n      swap3\n      pop\n      jump\t// out\n        /* \"#utility.yul\":4255:5438   */\n    tag_33:\n        /* \"#utility.yul\":4374:4380   */\n      0x00\n        /* \"#utility.yul\":4382:4388   */\n      0x00\n        /* \"#utility.yul\":4390:4396   */\n      0x00\n        /* \"#utility.yul\":4398:4404   */\n      0x00\n        /* \"#utility.yul\":4406:4412   */\n      0x00\n        /* \"#utility.yul\":4414:4420   */\n      0x00\n        /* \"#utility.yul\":4463:4466   */\n      0x80\n        /* \"#utility.yul\":4451:4460   */\n      dup8\n        /* \"#utility.yul\":4442:4449   */\n      dup10\n        /* \"#utility.yul\":4438:4461   */\n      sub\n        /* \"#utility.yul\":4434:4467   */\n      slt\n        /* \"#utility.yul\":4431:4551   */\n      iszero\n      tag_348\n      jumpi\n        /* \"#utility.yul\":4470:4549   */\n      tag_349\n      tag_213\n      jump\t// in\n    tag_349:\n        /* \"#utility.yul\":4431:4551   */\n    tag_348:\n        /* \"#utility.yul\":4618:4619   */\n      0x00\n        /* \"#utility.yul\":4607:4616   */\n      dup8\n        /* \"#utility.yul\":4603:4620   */\n      add\n        /* \"#utility.yul\":4590:4621   */\n      calldataload\n        /* \"#utility.yul\":4648:4666   */\n      0xffffffffffffffff\n        /* \"#utility.yul\":4640:4646   */\n      dup2\n        /* \"#utility.yul\":4637:4667   */\n      gt\n        /* \"#utility.yul\":4634:4751   */\n      iszero\n      tag_350\n      jumpi\n        /* \"#utility.yul\":4670:4749   */\n      tag_351\n      tag_214\n      jump\t// in\n    tag_351:\n        /* \"#utility.yul\":4634:4751   */\n    tag_350:\n        /* \"#utility.yul\":4783:4848   */\n      tag_352\n        /* \"#utility.yul\":4840:4847   */\n      dup10\n        /* \"#utility.yul\":4831:4837   */\n      dup3\n        /* \"#utility.yul\":4820:4829   */\n      dup11\n        /* \"#utility.yul\":4816:4838   */\n      add\n        /* \"#utility.yul\":4783:4848   */\n      tag_225\n      jump\t// in\n    tag_352:\n        /* \"#utility.yul\":4765:4848   */\n      swap7\n      pop\n      swap7\n      pop\n        /* \"#utility.yul\":4561:4858   */\n      pop\n        /* \"#utility.yul\":4925:4927   */\n      0x20\n        /* \"#utility.yul\":4914:4923   */\n      dup8\n        /* \"#utility.yul\":4910:4928   */\n      add\n        /* \"#utility.yul\":4897:4929   */\n      calldataload\n        /* \"#utility.yul\":4956:4974   */\n      0xffffffffffffffff\n        /* \"#utility.yul\":4948:4954   */\n      dup2\n        /* \"#utility.yul\":4945:4975   */\n      gt\n        /* \"#utility.yul\":4942:5059   */\n      iszero\n      tag_353\n      jumpi\n        /* \"#utility.yul\":4978:5057   */\n      tag_354\n      tag_214\n      jump\t// in\n    tag_354:\n        /* \"#utility.yul\":4942:5059   */\n    tag_353:\n        /* \"#utility.yul\":5091:5156   */\n      tag_355\n        /* \"#utility.yul\":5148:5155   */\n      dup10\n        /* \"#utility.yul\":5139:5145   */\n      dup3\n        /* \"#utility.yul\":5128:5137   */\n      dup11\n        /* \"#utility.yul\":5124:5146   */\n      add\n        /* \"#utility.yul\":5091:5156   */\n      tag_225\n      jump\t// in\n    tag_355:\n        /* \"#utility.yul\":5073:5156   */\n      swap5\n      pop\n      swap5\n      pop\n        /* \"#utility.yul\":4868:5166   */\n      pop\n        /* \"#utility.yul\":5205:5207   */\n      0x40\n        /* \"#utility.yul\":5231:5284   */\n      tag_356\n        /* \"#utility.yul\":5276:5283   */\n      dup10\n        /* \"#utility.yul\":5267:5273   */\n      dup3\n        /* \"#utility.yul\":5256:5265   */\n      dup11\n        /* \"#utility.yul\":5252:5274   */\n      add\n        /* \"#utility.yul\":5231:5284   */\n      tag_217\n      jump\t// in\n    tag_356:\n        /* \"#utility.yul\":5221:5284   */\n      swap3\n      pop\n        /* \"#utility.yul\":5176:5294   */\n      pop\n        /* \"#utility.yul\":5333:5335   */\n      0x60\n        /* \"#utility.yul\":5359:5421   */\n      tag_357\n        /* \"#utility.yul\":5413:5420   */\n      dup10\n        /* \"#utility.yul\":5404:5410   */\n      dup3\n        /* \"#utility.yul\":5393:5402   */\n      dup11\n        /* \"#utility.yul\":5389:5411   */\n      add\n        /* \"#utility.yul\":5359:5421   */\n      tag_227\n      jump\t// in\n    tag_357:\n        /* \"#utility.yul\":5349:5421   */\n      swap2\n      pop\n        /* \"#utility.yul\":5304:5431   */\n      pop\n        /* \"#utility.yul\":4255:5438   */\n      swap3\n      swap6\n      pop\n      swap3\n      swap6\n      pop\n      swap3\n      swap6\n      jump\t// out\n        /* \"#utility.yul\":5444:5570   */\n    tag_228:\n        /* \"#utility.yul\":5481:5488   */\n      0x00\n        /* \"#utility.yul\":5521:5563   */\n      0xffffffffffffffffffffffffffffffffffffffff\n        /* \"#utility.yul\":5514:5519   */\n      dup3\n        /* \"#utility.yul\":5510:5564   */\n      and\n        /* \"#utility.yul\":5499:5564   */\n      swap1\n      pop\n        /* \"#utility.yul\":5444:5570   */\n      swap2\n      swap1\n      pop\n      jump\t// out\n        /* \"#utility.yul\":5576:5672   */\n    tag_229:\n        /* \"#utility.yul\":5613:5620   */\n      0x00\n        /* \"#utility.yul\":5642:5666   */\n      tag_360\n        /* \"#utility.yul\":5660:5665   */\n      dup3\n        /* \"#utility.yul\":5642:5666   */\n      tag_228\n      jump\t// in\n    tag_360:\n        /* \"#utility.yul\":5631:5666   */\n      swap1\n      pop\n        /* \"#utility.yul\":5576:5672   */\n      swap2\n      swap1\n      pop\n      jump\t// out\n        /* \"#utility.yul\":5678:5796   */\n    tag_230:\n        /* \"#utility.yul\":5765:5789   */\n      tag_362\n        /* \"#utility.yul\":5783:5788   */\n      dup2\n        /* \"#utility.yul\":5765:5789   */\n      tag_229\n      jump\t// in\n    tag_362:\n        /* \"#utility.yul\":5760:5763   */\n      dup3\n        /* \"#utility.yul\":5753:5790   */\n      mstore\n        /* \"#utility.yul\":5678:5796   */\n      pop\n      pop\n      jump\t// out\n        /* \"#utility.yul\":5802:6024   */\n    tag_41:\n        /* \"#utility.yul\":5895:5899   */\n      0x00\n        /* \"#utility.yul\":5933:5935   */\n      0x20\n        /* \"#utility.yul\":5922:5931   */\n      dup3\n        /* \"#utility.yul\":5918:5936   */\n      add\n        /* \"#utility.yul\":5910:5936   */\n      swap1\n      pop\n        /* \"#utility.yul\":5946:6017   */\n      tag_364\n        /* \"#utility.yul\":6014:6015   */\n      0x00\n        /* \"#utility.yul\":6003:6012   */\n      dup4\n        /* \"#utility.yul\":5999:6016   */\n      add\n        /* \"#utility.yul\":5990:5996   */\n      dup5\n        /* \"#utility.yul\":5946:6017   */\n      tag_230\n      jump\t// in\n    tag_364:\n        /* \"#utility.yul\":5802:6024   */\n      swap3\n      swap2\n      pop\n      pop\n      jump\t// out\n        /* \"#utility.yul\":6030:6165   */\n    tag_231:\n        /* \"#utility.yul\":6118:6124   */\n      0x00\n        /* \"#utility.yul\":6152:6157   */\n      dup2\n        /* \"#utility.yul\":6146:6158   */\n      mload\n        /* \"#utility.yul\":6136:6158   */\n      swap1\n      pop\n        /* \"#utility.yul\":6030:6165   */\n      swap2\n      swap1\n      pop\n      jump\t// out\n        /* \"#utility.yul\":6171:6376   */\n    tag_232:\n        /* \"#utility.yul\":6291:6302   */\n      0x00\n        /* \"#utility.yul\":6325:6331   */\n      dup3\n        /* \"#utility.yul\":6320:6323   */\n      dup3\n        /* \"#utility.yul\":6313:6332   */\n      mstore\n        /* \"#utility.yul\":6365:6369   */\n      0x20\n        /* \"#utility.yul\":6360:6363   */\n      dup3\n        /* \"#utility.yul\":6356:6370   */\n      add\n        /* \"#utility.yul\":6341:6370   */\n      swap1\n      pop\n        /* \"#utility.yul\":6171:6376   */\n      swap3\n      swap2\n      pop\n      pop\n      jump\t// out\n        /* \"#utility.yul\":6382:6535   */\n    tag_233:\n        /* \"#utility.yul\":6470:6474   */\n      0x00\n        /* \"#utility.yul\":6493:6496   */\n      dup2\n        /* \"#utility.yul\":6485:6496   */\n      swap1\n      pop\n        /* \"#utility.yul\":6523:6527   */\n      0x20\n        /* \"#utility.yul\":6518:6521   */\n      dup3\n        /* \"#utility.yul\":6514:6528   */\n      add\n        /* \"#utility.yul\":6506:6528   */\n      swap1\n      pop\n        /* \"#utility.yul\":6382:6535   */\n      swap2\n      swap1\n      pop\n      jump\t// out\n        /* \"#utility.yul\":6541:6640   */\n    tag_234:\n        /* \"#utility.yul\":6593:6599   */\n      0x00\n        /* \"#utility.yul\":6627:6632   */\n      dup2\n        /* \"#utility.yul\":6621:6633   */\n      mload\n        /* \"#utility.yul\":6611:6633   */\n      swap1\n      pop\n        /* \"#utility.yul\":6541:6640   */\n      swap2\n      swap1\n      pop\n      jump\t// out\n        /* \"#utility.yul\":6646:6805   */\n    tag_235:\n        /* \"#utility.yul\":6720:6731   */\n      0x00\n        /* \"#utility.yul\":6754:6760   */\n      dup3\n        /* \"#utility.yul\":6749:6752   */\n      dup3\n        /* \"#utility.yul\":6742:6761   */\n      mstore\n        /* \"#utility.yul\":6794:6798   */\n      0x20\n        /* \"#utility.yul\":6789:6792   */\n      dup3\n        /* \"#utility.yul\":6785:6799   */\n      add\n        /* \"#utility.yul\":6770:6799   */\n      swap1\n      pop\n        /* \"#utility.yul\":6646:6805   */\n      swap3\n      swap2\n      pop\n      pop\n      jump\t// out\n        /* \"#utility.yul\":6811:6950   */\n    tag_236:\n        /* \"#utility.yul\":6900:6906   */\n      dup3\n        /* \"#utility.yul\":6895:6898   */\n      dup2\n        /* \"#utility.yul\":6890:6893   */\n      dup4\n        /* \"#utility.yul\":6884:6907   */\n      mcopy\n        /* \"#utility.yul\":6941:6942   */\n      0x00\n        /* \"#utility.yul\":6932:6938   */\n      dup4\n        /* \"#utility.yul\":6927:6930   */\n      dup4\n        /* \"#utility.yul\":6923:6939   */\n      add\n        /* \"#utility.yul\":6916:6943   */\n      mstore\n        /* \"#utility.yul\":6811:6950   */\n      pop\n      pop\n      pop\n      jump\t// out\n        /* \"#utility.yul\":6956:7058   */\n    tag_237:\n        /* \"#utility.yul\":6997:7003   */\n      0x00\n        /* \"#utility.yul\":7048:7050   */\n      0x1f\n        /* \"#utility.yul\":7044:7051   */\n      not\n        /* \"#utility.yul\":7039:7041   */\n      0x1f\n        /* \"#utility.yul\":7032:7037   */\n      dup4\n        /* \"#utility.yul\":7028:7042   */\n      add\n        /* \"#utility.yul\":7024:7052   */\n      and\n        /* \"#utility.yul\":7014:7052   */\n      swap1\n      pop\n        /* \"#utility.yul\":6956:7058   */\n      swap2\n      swap1\n      pop\n      jump\t// out\n        /* \"#utility.yul\":7064:7421   */\n    tag_238:\n        /* \"#utility.yul\":7142:7145   */\n      0x00\n        /* \"#utility.yul\":7170:7209   */\n      tag_373\n        /* \"#utility.yul\":7203:7208   */\n      dup3\n        /* \"#utility.yul\":7170:7209   */\n      tag_234\n      jump\t// in\n    tag_373:\n        /* \"#utility.yul\":7225:7286   */\n      tag_374\n        /* \"#utility.yul\":7279:7285   */\n      dup2\n        /* \"#utility.yul\":7274:7277   */\n      dup6\n        /* \"#utility.yul\":7225:7286   */\n      tag_235\n      jump\t// in\n    tag_374:\n        /* \"#utility.yul\":7218:7286   */\n      swap4\n      pop\n        /* \"#utility.yul\":7295:7360   */\n      tag_375\n        /* \"#utility.yul\":7353:7359   */\n      dup2\n        /* \"#utility.yul\":7348:7351   */\n      dup6\n        /* \"#utility.yul\":7341:7345   */\n      0x20\n        /* \"#utility.yul\":7334:7339   */\n      dup7\n        /* \"#utility.yul\":7330:7346   */\n      add\n        /* \"#utility.yul\":7295:7360   */\n      tag_236\n      jump\t// in\n    tag_375:\n        /* \"#utility.yul\":7385:7414   */\n      tag_376\n        /* \"#utility.yul\":7407:7413   */\n      dup2\n        /* \"#utility.yul\":7385:7414   */\n      tag_237\n      jump\t// in\n    tag_376:\n        /* \"#utility.yul\":7380:7383   */\n      dup5\n        /* \"#utility.yul\":7376:7415   */\n      add\n        /* \"#utility.yul\":7369:7415   */\n      swap2\n      pop\n        /* \"#utility.yul\":7146:7421   */\n      pop\n        /* \"#utility.yul\":7064:7421   */\n      swap3\n      swap2\n      pop\n      pop\n      jump\t// out\n        /* \"#utility.yul\":7427:7535   */\n    tag_239:\n        /* \"#utility.yul\":7504:7528   */\n      tag_378\n        /* \"#utility.yul\":7522:7527   */\n      dup2\n        /* \"#utility.yul\":7504:7528   */\n      tag_215\n      jump\t// in\n    tag_378:\n        /* \"#utility.yul\":7499:7502   */\n      dup3\n        /* \"#utility.yul\":7492:7529   */\n      mstore\n        /* \"#utility.yul\":7427:7535   */\n      pop\n      pop\n      jump\t// out\n        /* \"#utility.yul\":7541:7655   */\n    tag_240:\n        /* \"#utility.yul\":7623:7624   */\n      0x04\n        /* \"#utility.yul\":7616:7621   */\n      dup2\n        /* \"#utility.yul\":7613:7625   */\n      lt\n        /* \"#utility.yul\":7603:7649   */\n      tag_380\n      jumpi\n        /* \"#utility.yul\":7629:7647   */\n      tag_381\n      tag_105\n      jump\t// in\n    tag_381:\n        /* \"#utility.yul\":7603:7649   */\n    tag_380:\n        /* \"#utility.yul\":7541:7655   */\n      pop\n      jump\t// out\n        /* \"#utility.yul\":7661:7790   */\n    tag_241:\n        /* \"#utility.yul\":7707:7714   */\n      0x00\n        /* \"#utility.yul\":7736:7741   */\n      dup2\n        /* \"#utility.yul\":7725:7741   */\n      swap1\n      pop\n        /* \"#utility.yul\":7742:7784   */\n      tag_383\n        /* \"#utility.yul\":7778:7783   */\n      dup3\n        /* \"#utility.yul\":7742:7784   */\n      tag_240\n      jump\t// in\n    tag_383:\n        /* \"#utility.yul\":7661:7790   */\n      swap2\n      swap1\n      pop\n      jump\t// out\n        /* \"#utility.yul\":7796:7925   */\n    tag_242:\n        /* \"#utility.yul\":7853:7862   */\n      0x00\n        /* \"#utility.yul\":7886:7919   */\n      tag_385\n        /* \"#utility.yul\":7913:7918   */\n      dup3\n        /* \"#utility.yul\":7886:7919   */\n      tag_241\n      jump\t// in\n    tag_385:\n        /* \"#utility.yul\":7873:7919   */\n      swap1\n      pop\n        /* \"#utility.yul\":7796:7925   */\n      swap2\n      swap1\n      pop\n      jump\t// out\n        /* \"#utility.yul\":7931:8066   */\n    tag_243:\n        /* \"#utility.yul\":8015:8059   */\n      tag_387\n        /* \"#utility.yul\":8053:8058   */\n      dup2\n        /* \"#utility.yul\":8015:8059   */\n      tag_242\n      jump\t// in\n    tag_387:\n        /* \"#utility.yul\":8010:8013   */\n      dup3\n        /* \"#utility.yul\":8003:8060   */\n      mstore\n        /* \"#utility.yul\":7931:8066   */\n      pop\n      pop\n      jump\t// out\n        /* \"#utility.yul\":8072:8180   */\n    tag_244:\n        /* \"#utility.yul\":8149:8173   */\n      tag_389\n        /* \"#utility.yul\":8167:8172   */\n      dup2\n        /* \"#utility.yul\":8149:8173   */\n      tag_229\n      jump\t// in\n    tag_389:\n        /* \"#utility.yul\":8144:8147   */\n      dup3\n        /* \"#utility.yul\":8137:8174   */\n      mstore\n        /* \"#utility.yul\":8072:8180   */\n      pop\n      pop\n      jump\t// out\n        /* \"#utility.yul\":8232:9547   */\n    tag_245:\n        /* \"#utility.yul\":8333:8336   */\n      0x00\n        /* \"#utility.yul\":8369:8373   */\n      0xc0\n        /* \"#utility.yul\":8364:8367   */\n      dup4\n        /* \"#utility.yul\":8360:8374   */\n      add\n        /* \"#utility.yul\":8456:8460   */\n      0x00\n        /* \"#utility.yul\":8449:8454   */\n      dup4\n        /* \"#utility.yul\":8445:8461   */\n      add\n        /* \"#utility.yul\":8439:8462   */\n      mload\n        /* \"#utility.yul\":8509:8512   */\n      dup5\n        /* \"#utility.yul\":8503:8507   */\n      dup3\n        /* \"#utility.yul\":8499:8513   */\n      sub\n        /* \"#utility.yul\":8492:8496   */\n      0x00\n        /* \"#utility.yul\":8487:8490   */\n      dup7\n        /* \"#utility.yul\":8483:8497   */\n      add\n        /* \"#utility.yul\":8476:8514   */\n      mstore\n        /* \"#utility.yul\":8535:8608   */\n      tag_391\n        /* \"#utility.yul\":8603:8607   */\n      dup3\n        /* \"#utility.yul\":8589:8601   */\n      dup3\n        /* \"#utility.yul\":8535:8608   */\n      tag_238\n      jump\t// in\n    tag_391:\n        /* \"#utility.yul\":8527:8608   */\n      swap2\n      pop\n        /* \"#utility.yul\":8384:8619   */\n      pop\n        /* \"#utility.yul\":8700:8704   */\n      0x20\n        /* \"#utility.yul\":8693:8698   */\n      dup4\n        /* \"#utility.yul\":8689:8705   */\n      add\n        /* \"#utility.yul\":8683:8706   */\n      mload\n        /* \"#utility.yul\":8719:8782   */\n      tag_392\n        /* \"#utility.yul\":8776:8780   */\n      0x20\n        /* \"#utility.yul\":8771:8774   */\n      dup7\n        /* \"#utility.yul\":8767:8781   */\n      add\n        /* \"#utility.yul\":8753:8765   */\n      dup3\n        /* \"#utility.yul\":8719:8782   */\n      tag_239\n      jump\t// in\n    tag_392:\n        /* \"#utility.yul\":8629:8792   */\n      pop\n        /* \"#utility.yul\":8877:8881   */\n      0x40\n        /* \"#utility.yul\":8870:8875   */\n      dup4\n        /* \"#utility.yul\":8866:8882   */\n      add\n        /* \"#utility.yul\":8860:8883   */\n      mload\n        /* \"#utility.yul\":8896:8959   */\n      tag_393\n        /* \"#utility.yul\":8953:8957   */\n      0x40\n        /* \"#utility.yul\":8948:8951   */\n      dup7\n        /* \"#utility.yul\":8944:8958   */\n      add\n        /* \"#utility.yul\":8930:8942   */\n      dup3\n        /* \"#utility.yul\":8896:8959   */\n      tag_239\n      jump\t// in\n    tag_393:\n        /* \"#utility.yul\":8802:8969   */\n      pop\n        /* \"#utility.yul\":9053:9057   */\n      0x60\n        /* \"#utility.yul\":9046:9051   */\n      dup4\n        /* \"#utility.yul\":9042:9058   */\n      add\n        /* \"#utility.yul\":9036:9059   */\n      mload\n        /* \"#utility.yul\":9072:9142   */\n      tag_394\n        /* \"#utility.yul\":9136:9140   */\n      0x60\n        /* \"#utility.yul\":9131:9134   */\n      dup7\n        /* \"#utility.yul\":9127:9141   */\n      add\n        /* \"#utility.yul\":9113:9125   */\n      dup3\n        /* \"#utility.yul\":9072:9142   */\n      tag_243\n      jump\t// in\n    tag_394:\n        /* \"#utility.yul\":8979:9152   */\n      pop\n        /* \"#utility.yul\":9246:9250   */\n      0x80\n        /* \"#utility.yul\":9239:9244   */\n      dup4\n        /* \"#utility.yul\":9235:9251   */\n      add\n        /* \"#utility.yul\":9229:9252   */\n      mload\n        /* \"#utility.yul\":9265:9328   */\n      tag_395\n        /* \"#utility.yul\":9322:9326   */\n      0x80\n        /* \"#utility.yul\":9317:9320   */\n      dup7\n        /* \"#utility.yul\":9313:9327   */\n      add\n        /* \"#utility.yul\":9299:9311   */\n      dup3\n        /* \"#utility.yul\":9265:9328   */\n      tag_239\n      jump\t// in\n    tag_395:\n        /* \"#utility.yul\":9162:9338   */\n      pop\n        /* \"#utility.yul\":9428:9432   */\n      0xa0\n        /* \"#utility.yul\":9421:9426   */\n      dup4\n        /* \"#utility.yul\":9417:9433   */\n      add\n        /* \"#utility.yul\":9411:9434   */\n      mload\n        /* \"#utility.yul\":9447:9510   */\n      tag_396\n        /* \"#utility.yul\":9504:9508   */\n      0xa0\n        /* \"#utility.yul\":9499:9502   */\n      dup7\n        /* \"#utility.yul\":9495:9509   */\n      add\n        /* \"#utility.yul\":9481:9493   */\n      dup3\n        /* \"#utility.yul\":9447:9510   */\n      tag_244\n      jump\t// in\n    tag_396:\n        /* \"#utility.yul\":9348:9520   */\n      pop\n        /* \"#utility.yul\":9537:9541   */\n      dup1\n        /* \"#utility.yul\":9530:9541   */\n      swap2\n      pop\n        /* \"#utility.yul\":8338:9547   */\n      pop\n        /* \"#utility.yul\":8232:9547   */\n      swap3\n      swap2\n      pop\n      pop\n      jump\t// out\n        /* \"#utility.yul\":9553:9793   */\n    tag_246:\n        /* \"#utility.yul\":9664:9674   */\n      0x00\n        /* \"#utility.yul\":9699:9787   */\n      tag_398\n        /* \"#utility.yul\":9783:9786   */\n      dup4\n        /* \"#utility.yul\":9775:9781   */\n      dup4\n        /* \"#utility.yul\":9699:9787   */\n      tag_245\n      jump\t// in\n    tag_398:\n        /* \"#utility.yul\":9685:9787   */\n      swap1\n      pop\n        /* \"#utility.yul\":9553:9793   */\n      swap3\n      swap2\n      pop\n      pop\n      jump\t// out\n        /* \"#utility.yul\":9799:9933   */\n    tag_247:\n        /* \"#utility.yul\":9890:9894   */\n      0x00\n        /* \"#utility.yul\":9922:9926   */\n      0x20\n        /* \"#utility.yul\":9917:9920   */\n      dup3\n        /* \"#utility.yul\":9913:9927   */\n      add\n        /* \"#utility.yul\":9905:9927   */\n      swap1\n      pop\n        /* \"#utility.yul\":9799:9933   */\n      swap2\n      swap1\n      pop\n      jump\t// out\n        /* \"#utility.yul\":9989:11068   */\n    tag_248:\n        /* \"#utility.yul\":10150:10153   */\n      0x00\n        /* \"#utility.yul\":10179:10254   */\n      tag_401\n        /* \"#utility.yul\":10248:10253   */\n      dup3\n        /* \"#utility.yul\":10179:10254   */\n      tag_231\n      jump\t// in\n    tag_401:\n        /* \"#utility.yul\":10270:10377   */\n      tag_402\n        /* \"#utility.yul\":10370:10376   */\n      dup2\n        /* \"#utility.yul\":10365:10368   */\n      dup6\n        /* \"#utility.yul\":10270:10377   */\n      tag_232\n      jump\t// in\n    tag_402:\n        /* \"#utility.yul\":10263:10377   */\n      swap4\n      pop\n        /* \"#utility.yul\":10403:10406   */\n      dup4\n        /* \"#utility.yul\":10448:10452   */\n      0x20\n        /* \"#utility.yul\":10440:10446   */\n      dup3\n        /* \"#utility.yul\":10436:10453   */\n      mul\n        /* \"#utility.yul\":10431:10434   */\n      dup6\n        /* \"#utility.yul\":10427:10454   */\n      add\n        /* \"#utility.yul\":10478:10555   */\n      tag_403\n        /* \"#utility.yul\":10549:10554   */\n      dup6\n        /* \"#utility.yul\":10478:10555   */\n      tag_233\n      jump\t// in\n    tag_403:\n        /* \"#utility.yul\":10578:10585   */\n      dup1\n        /* \"#utility.yul\":10609:10610   */\n      0x00\n        /* \"#utility.yul\":10594:11023   */\n    tag_404:\n        /* \"#utility.yul\":10619:10625   */\n      dup6\n        /* \"#utility.yul\":10616:10617   */\n      dup2\n        /* \"#utility.yul\":10613:10626   */\n      lt\n        /* \"#utility.yul\":10594:11023   */\n      iszero\n      tag_406\n      jumpi\n        /* \"#utility.yul\":10690:10699   */\n      dup5\n        /* \"#utility.yul\":10684:10688   */\n      dup5\n        /* \"#utility.yul\":10680:10700   */\n      sub\n        /* \"#utility.yul\":10675:10678   */\n      dup10\n        /* \"#utility.yul\":10668:10701   */\n      mstore\n        /* \"#utility.yul\":10741:10747   */\n      dup2\n        /* \"#utility.yul\":10735:10748   */\n      mload\n        /* \"#utility.yul\":10769:10875   */\n      tag_407\n        /* \"#utility.yul\":10870:10874   */\n      dup6\n        /* \"#utility.yul\":10855:10868   */\n      dup3\n        /* \"#utility.yul\":10769:10875   */\n      tag_246\n      jump\t// in\n    tag_407:\n        /* \"#utility.yul\":10761:10875   */\n      swap5\n      pop\n        /* \"#utility.yul\":10898:10979   */\n      tag_408\n        /* \"#utility.yul\":10972:10978   */\n      dup4\n        /* \"#utility.yul\":10898:10979   */\n      tag_247\n      jump\t// in\n    tag_408:\n        /* \"#utility.yul\":10888:10979   */\n      swap3\n      pop\n        /* \"#utility.yul\":11008:11012   */\n      0x20\n        /* \"#utility.yul\":11003:11006   */\n      dup11\n        /* \"#utility.yul\":10999:11013   */\n      add\n        /* \"#utility.yul\":10992:11013   */\n      swap10\n      pop\n        /* \"#utility.yul\":10654:11023   */\n      pop\n        /* \"#utility.yul\":10641:10642   */\n      0x01\n        /* \"#utility.yul\":10638:10639   */\n      dup2\n        /* \"#utility.yul\":10634:10643   */\n      add\n        /* \"#utility.yul\":10629:10643   */\n      swap1\n      pop\n        /* \"#utility.yul\":10594:11023   */\n      jump(tag_404)\n    tag_406:\n        /* \"#utility.yul\":10598:10612   */\n      pop\n        /* \"#utility.yul\":11039:11043   */\n      dup3\n        /* \"#utility.yul\":11032:11043   */\n      swap8\n      pop\n        /* \"#utility.yul\":11059:11062   */\n      dup8\n        /* \"#utility.yul\":11052:11062   */\n      swap6\n      pop\n        /* \"#utility.yul\":10155:11068   */\n      pop\n      pop\n      pop\n      pop\n      pop\n        /* \"#utility.yul\":9989:11068   */\n      swap3\n      swap2\n      pop\n      pop\n      jump\t// out\n        /* \"#utility.yul\":11074:11531   */\n    tag_45:\n        /* \"#utility.yul\":11259:11263   */\n      0x00\n        /* \"#utility.yul\":11297:11299   */\n      0x20\n        /* \"#utility.yul\":11286:11295   */\n      dup3\n        /* \"#utility.yul\":11282:11300   */\n      add\n        /* \"#utility.yul\":11274:11300   */\n      swap1\n      pop\n        /* \"#utility.yul\":11346:11355   */\n      dup2\n        /* \"#utility.yul\":11340:11344   */\n      dup2\n        /* \"#utility.yul\":11336:11356   */\n      sub\n        /* \"#utility.yul\":11332:11333   */\n      0x00\n        /* \"#utility.yul\":11321:11330   */\n      dup4\n        /* \"#utility.yul\":11317:11334   */\n      add\n        /* \"#utility.yul\":11310:11357   */\n      mstore\n        /* \"#utility.yul\":11374:11524   */\n      tag_410\n        /* \"#utility.yul\":11519:11523   */\n      dup2\n        /* \"#utility.yul\":11510:11516   */\n      dup5\n        /* \"#utility.yul\":11374:11524   */\n      tag_248\n      jump\t// in\n    tag_410:\n        /* \"#utility.yul\":11366:11524   */\n      swap1\n      pop\n        /* \"#utility.yul\":11074:11531   */\n      swap3\n      swap2\n      pop\n      pop\n      jump\t// out\n        /* \"#utility.yul\":11537:11676   */\n    tag_249:\n        /* \"#utility.yul\":11629:11635   */\n      0x00\n        /* \"#utility.yul\":11663:11668   */\n      dup2\n        /* \"#utility.yul\":11657:11669   */\n      mload\n        /* \"#utility.yul\":11647:11669   */\n      swap1\n      pop\n        /* \"#utility.yul\":11537:11676   */\n      swap2\n      swap1\n      pop\n      jump\t// out\n        /* \"#utility.yul\":11682:11891   */\n    tag_250:\n        /* \"#utility.yul\":11806:11817   */\n      0x00\n        /* \"#utility.yul\":11840:11846   */\n      dup3\n        /* \"#utility.yul\":11835:11838   */\n      dup3\n        /* \"#utility.yul\":11828:11847   */\n      mstore\n        /* \"#utility.yul\":11880:11884   */\n      0x20\n        /* \"#utility.yul\":11875:11878   */\n      dup3\n        /* \"#utility.yul\":11871:11885   */\n      add\n        /* \"#utility.yul\":11856:11885   */\n      swap1\n      pop\n        /* \"#utility.yul\":11682:11891   */\n      swap3\n      swap2\n      pop\n      pop\n      jump\t// out\n        /* \"#utility.yul\":11897:12054   */\n    tag_251:\n        /* \"#utility.yul\":11989:11993   */\n      0x00\n        /* \"#utility.yul\":12012:12015   */\n      dup2\n        /* \"#utility.yul\":12004:12015   */\n      swap1\n      pop\n        /* \"#utility.yul\":12042:12046   */\n      0x20\n        /* \"#utility.yul\":12037:12040   */\n      dup3\n        /* \"#utility.yul\":12033:12047   */\n      add\n        /* \"#utility.yul\":12025:12047   */\n      swap1\n      pop\n        /* \"#utility.yul\":11897:12054   */\n      swap2\n      swap1\n      pop\n      jump\t// out\n        /* \"#utility.yul\":12114:13680   */\n    tag_252:\n        /* \"#utility.yul\":12223:12226   */\n      0x00\n        /* \"#utility.yul\":12259:12263   */\n      0xe0\n        /* \"#utility.yul\":12254:12257   */\n      dup4\n        /* \"#utility.yul\":12250:12264   */\n      add\n        /* \"#utility.yul\":12346:12350   */\n      0x00\n        /* \"#utility.yul\":12339:12344   */\n      dup4\n        /* \"#utility.yul\":12335:12351   */\n      add\n        /* \"#utility.yul\":12329:12352   */\n      mload\n        /* \"#utility.yul\":12399:12402   */\n      dup5\n        /* \"#utility.yul\":12393:12397   */\n      dup3\n        /* \"#utility.yul\":12389:12403   */\n      sub\n        /* \"#utility.yul\":12382:12386   */\n      0x00\n        /* \"#utility.yul\":12377:12380   */\n      dup7\n        /* \"#utility.yul\":12373:12387   */\n      add\n        /* \"#utility.yul\":12366:12404   */\n      mstore\n        /* \"#utility.yul\":12425:12498   */\n      tag_415\n        /* \"#utility.yul\":12493:12497   */\n      dup3\n        /* \"#utility.yul\":12479:12491   */\n      dup3\n        /* \"#utility.yul\":12425:12498   */\n      tag_238\n      jump\t// in\n    tag_415:\n        /* \"#utility.yul\":12417:12498   */\n      swap2\n      pop\n        /* \"#utility.yul\":12274:12509   */\n      pop\n        /* \"#utility.yul\":12592:12596   */\n      0x20\n        /* \"#utility.yul\":12585:12590   */\n      dup4\n        /* \"#utility.yul\":12581:12597   */\n      add\n        /* \"#utility.yul\":12575:12598   */\n      mload\n        /* \"#utility.yul\":12645:12648   */\n      dup5\n        /* \"#utility.yul\":12639:12643   */\n      dup3\n        /* \"#utility.yul\":12635:12649   */\n      sub\n        /* \"#utility.yul\":12628:12632   */\n      0x20\n        /* \"#utility.yul\":12623:12626   */\n      dup7\n        /* \"#utility.yul\":12619:12633   */\n      add\n        /* \"#utility.yul\":12612:12650   */\n      mstore\n        /* \"#utility.yul\":12671:12744   */\n      tag_416\n        /* \"#utility.yul\":12739:12743   */\n      dup3\n        /* \"#utility.yul\":12725:12737   */\n      dup3\n        /* \"#utility.yul\":12671:12744   */\n      tag_238\n      jump\t// in\n    tag_416:\n        /* \"#utility.yul\":12663:12744   */\n      swap2\n      pop\n        /* \"#utility.yul\":12519:12755   */\n      pop\n        /* \"#utility.yul\":12836:12840   */\n      0x40\n        /* \"#utility.yul\":12829:12834   */\n      dup4\n        /* \"#utility.yul\":12825:12841   */\n      add\n        /* \"#utility.yul\":12819:12842   */\n      mload\n        /* \"#utility.yul\":12855:12918   */\n      tag_417\n        /* \"#utility.yul\":12912:12916   */\n      0x40\n        /* \"#utility.yul\":12907:12910   */\n      dup7\n        /* \"#utility.yul\":12903:12917   */\n      add\n        /* \"#utility.yul\":12889:12901   */\n      dup3\n        /* \"#utility.yul\":12855:12918   */\n      tag_239\n      jump\t// in\n    tag_417:\n        /* \"#utility.yul\":12765:12928   */\n      pop\n        /* \"#utility.yul\":13012:13016   */\n      0x60\n        /* \"#utility.yul\":13005:13010   */\n      dup4\n        /* \"#utility.yul\":13001:13017   */\n      add\n        /* \"#utility.yul\":12995:13018   */\n      mload\n        /* \"#utility.yul\":13031:13101   */\n      tag_418\n        /* \"#utility.yul\":13095:13099   */\n      0x60\n        /* \"#utility.yul\":13090:13093   */\n      dup7\n        /* \"#utility.yul\":13086:13100   */\n      add\n        /* \"#utility.yul\":13072:13084   */\n      dup3\n        /* \"#utility.yul\":13031:13101   */\n      tag_243\n      jump\t// in\n    tag_418:\n        /* \"#utility.yul\":12938:13111   */\n      pop\n        /* \"#utility.yul\":13200:13204   */\n      0x80\n        /* \"#utility.yul\":13193:13198   */\n      dup4\n        /* \"#utility.yul\":13189:13205   */\n      add\n        /* \"#utility.yul\":13183:13206   */\n      mload\n        /* \"#utility.yul\":13219:13282   */\n      tag_419\n        /* \"#utility.yul\":13276:13280   */\n      0x80\n        /* \"#utility.yul\":13271:13274   */\n      dup7\n        /* \"#utility.yul\":13267:13281   */\n      add\n        /* \"#utility.yul\":13253:13265   */\n      dup3\n        /* \"#utility.yul\":13219:13282   */\n      tag_239\n      jump\t// in\n    tag_419:\n        /* \"#utility.yul\":13121:13292   */\n      pop\n        /* \"#utility.yul\":13386:13390   */\n      0xa0\n        /* \"#utility.yul\":13379:13384   */\n      dup4\n        /* \"#utility.yul\":13375:13391   */\n      add\n        /* \"#utility.yul\":13369:13392   */\n      mload\n        /* \"#utility.yul\":13405:13468   */\n      tag_420\n        /* \"#utility.yul\":13462:13466   */\n      0xa0\n        /* \"#utility.yul\":13457:13460   */\n      dup7\n        /* \"#utility.yul\":13453:13467   */\n      add\n        /* \"#utility.yul\":13439:13451   */\n      dup3\n        /* \"#utility.yul\":13405:13468   */\n      tag_244\n      jump\t// in\n    tag_420:\n        /* \"#utility.yul\":13302:13478   */\n      pop\n        /* \"#utility.yul\":13561:13565   */\n      0xc0\n        /* \"#utility.yul\":13554:13559   */\n      dup4\n        /* \"#utility.yul\":13550:13566   */\n      add\n        /* \"#utility.yul\":13544:13567   */\n      mload\n        /* \"#utility.yul\":13580:13643   */\n      tag_421\n        /* \"#utility.yul\":13637:13641   */\n      0xc0\n        /* \"#utility.yul\":13632:13635   */\n      dup7\n        /* \"#utility.yul\":13628:13642   */\n      add\n        /* \"#utility.yul\":13614:13626   */\n      dup3\n        /* \"#utility.yul\":13580:13643   */\n      tag_239\n      jump\t// in\n    tag_421:\n        /* \"#utility.yul\":13488:13653   */\n      pop\n        /* \"#utility.yul\":13670:13674   */\n      dup1\n        /* \"#utility.yul\":13663:13674   */\n      swap2\n      pop\n        /* \"#utility.yul\":12228:13680   */\n      pop\n        /* \"#utility.yul\":12114:13680   */\n      swap3\n      swap2\n      pop\n      pop\n      jump\t// out\n        /* \"#utility.yul\":13686:13942   */\n    tag_253:\n        /* \"#utility.yul\":13805:13815   */\n      0x00\n        /* \"#utility.yul\":13840:13936   */\n      tag_423\n        /* \"#utility.yul\":13932:13935   */\n      dup4\n        /* \"#utility.yul\":13924:13930   */\n      dup4\n        /* \"#utility.yul\":13840:13936   */\n      tag_252\n      jump\t// in\n    tag_423:\n        /* \"#utility.yul\":13826:13936   */\n      swap1\n      pop\n        /* \"#utility.yul\":13686:13942   */\n      swap3\n      swap2\n      pop\n      pop\n      jump\t// out\n        /* \"#utility.yul\":13948:14086   */\n    tag_254:\n        /* \"#utility.yul\":14043:14047   */\n      0x00\n        /* \"#utility.yul\":14075:14079   */\n      0x20\n        /* \"#utility.yul\":14070:14073   */\n      dup3\n        /* \"#utility.yul\":14066:14080   */\n      add\n        /* \"#utility.yul\":14058:14080   */\n      swap1\n      pop\n        /* \"#utility.yul\":13948:14086   */\n      swap2\n      swap1\n      pop\n      jump\t// out\n        /* \"#utility.yul\":14150:15261   */\n    tag_255:\n        /* \"#utility.yul\":14319:14322   */\n      0x00\n        /* \"#utility.yul\":14348:14427   */\n      tag_426\n        /* \"#utility.yul\":14421:14426   */\n      dup3\n        /* \"#utility.yul\":14348:14427   */\n      tag_249\n      jump\t// in\n    tag_426:\n        /* \"#utility.yul\":14443:14554   */\n      tag_427\n        /* \"#utility.yul\":14547:14553   */\n      dup2\n        /* \"#utility.yul\":14542:14545   */\n      dup6\n        /* \"#utility.yul\":14443:14554   */\n      tag_250\n      jump\t// in\n    tag_427:\n        /* \"#utility.yul\":14436:14554   */\n      swap4\n      pop\n        /* \"#utility.yul\":14580:14583   */\n      dup4\n        /* \"#utility.yul\":14625:14629   */\n      0x20\n        /* \"#utility.yul\":14617:14623   */\n      dup3\n        /* \"#utility.yul\":14613:14630   */\n      mul\n        /* \"#utility.yul\":14608:14611   */\n      dup6\n        /* \"#utility.yul\":14604:14631   */\n      add\n        /* \"#utility.yul\":14655:14736   */\n      tag_428\n        /* \"#utility.yul\":14730:14735   */\n      dup6\n        /* \"#utility.yul\":14655:14736   */\n      tag_251\n      jump\t// in\n    tag_428:\n        /* \"#utility.yul\":14759:14766   */\n      dup1\n        /* \"#utility.yul\":14790:14791   */\n      0x00\n        /* \"#utility.yul\":14775:15216   */\n    tag_429:\n        /* \"#utility.yul\":14800:14806   */\n      dup6\n        /* \"#utility.yul\":14797:14798   */\n      dup2\n        /* \"#utility.yul\":14794:14807   */\n      lt\n        /* \"#utility.yul\":14775:15216   */\n      iszero\n      tag_431\n      jumpi\n        /* \"#utility.yul\":14871:14880   */\n      dup5\n        /* \"#utility.yul\":14865:14869   */\n      dup5\n        /* \"#utility.yul\":14861:14881   */\n      sub\n        /* \"#utility.yul\":14856:14859   */\n      dup10\n        /* \"#utility.yul\":14849:14882   */\n      mstore\n        /* \"#utility.yul\":14922:14928   */\n      dup2\n        /* \"#utility.yul\":14916:14929   */\n      mload\n        /* \"#utility.yul\":14950:15064   */\n      tag_432\n        /* \"#utility.yul\":15059:15063   */\n      dup6\n        /* \"#utility.yul\":15044:15057   */\n      dup3\n        /* \"#utility.yul\":14950:15064   */\n      tag_253\n      jump\t// in\n    tag_432:\n        /* \"#utility.yul\":14942:15064   */\n      swap5\n      pop\n        /* \"#utility.yul\":15087:15172   */\n      tag_433\n        /* \"#utility.yul\":15165:15171   */\n      dup4\n        /* \"#utility.yul\":15087:15172   */\n      tag_254\n      jump\t// in\n    tag_433:\n        /* \"#utility.yul\":15077:15172   */\n      swap3\n      pop\n        /* \"#utility.yul\":15201:15205   */\n      0x20\n        /* \"#utility.yul\":15196:15199   */\n      dup11\n        /* \"#utility.yul\":15192:15206   */\n      add\n        /* \"#utility.yul\":15185:15206   */\n      swap10\n      pop\n        /* \"#utility.yul\":14835:15216   */\n      pop\n        /* \"#utility.yul\":14822:14823   */\n      0x01\n        /* \"#utility.yul\":14819:14820   */\n      dup2\n        /* \"#utility.yul\":14815:14824   */\n      add\n        /* \"#utility.yul\":14810:14824   */\n      swap1\n      pop\n        /* \"#utility.yul\":14775:15216   */\n      jump(tag_429)\n    tag_431:\n        /* \"#utility.yul\":14779:14793   */\n      pop\n        /* \"#utility.yul\":15232:15236   */\n      dup3\n        /* \"#utility.yul\":15225:15236   */\n      swap8\n      pop\n        /* \"#utility.yul\":15252:15255   */\n      dup8\n        /* \"#utility.yul\":15245:15255   */\n      swap6\n      pop\n        /* \"#utility.yul\":14324:15261   */\n      pop\n      pop\n      pop\n      pop\n      pop\n        /* \"#utility.yul\":14150:15261   */\n      swap3\n      swap2\n      pop\n      pop\n      jump\t// out\n        /* \"#utility.yul\":15267:15740   */\n    tag_52:\n        /* \"#utility.yul\":15460:15464   */\n      0x00\n        /* \"#utility.yul\":15498:15500   */\n      0x20\n        /* \"#utility.yul\":15487:15496   */\n      dup3\n        /* \"#utility.yul\":15483:15501   */\n      add\n        /* \"#utility.yul\":15475:15501   */\n      swap1\n      pop\n        /* \"#utility.yul\":15547:15556   */\n      dup2\n        /* \"#utility.yul\":15541:15545   */\n      dup2\n        /* \"#utility.yul\":15537:15557   */\n      sub\n        /* \"#utility.yul\":15533:15534   */\n      0x00\n        /* \"#utility.yul\":15522:15531   */\n      dup4\n        /* \"#utility.yul\":15518:15535   */\n      add\n        /* \"#utility.yul\":15511:15558   */\n      mstore\n        /* \"#utility.yul\":15575:15733   */\n      tag_435\n        /* \"#utility.yul\":15728:15732   */\n      dup2\n        /* \"#utility.yul\":15719:15725   */\n      dup5\n        /* \"#utility.yul\":15575:15733   */\n      tag_255\n      jump\t// in\n    tag_435:\n        /* \"#utility.yul\":15567:15733   */\n      swap1\n      pop\n        /* \"#utility.yul\":15267:15740   */\n      swap3\n      swap2\n      pop\n      pop\n      jump\t// out\n        /* \"#utility.yul\":15746:15915   */\n    tag_256:\n        /* \"#utility.yul\":15830:15841   */\n      0x00\n        /* \"#utility.yul\":15864:15870   */\n      dup3\n        /* \"#utility.yul\":15859:15862   */\n      dup3\n        /* \"#utility.yul\":15852:15871   */\n      mstore\n        /* \"#utility.yul\":15904:15908   */\n      0x20\n        /* \"#utility.yul\":15899:15902   */\n      dup3\n        /* \"#utility.yul\":15895:15909   */\n      add\n        /* \"#utility.yul\":15880:15909   */\n      swap1\n      pop\n        /* \"#utility.yul\":15746:15915   */\n      swap3\n      swap2\n      pop\n      pop\n      jump\t// out\n        /* \"#utility.yul\":15921:16090   */\n    tag_257:\n        /* \"#utility.yul\":16061:16082   */\n      0x566f74696e672074696d65206973204f76657200000000000000000000000000\n        /* \"#utility.yul\":16057:16058   */\n      0x00\n        /* \"#utility.yul\":16049:16055   */\n      dup3\n        /* \"#utility.yul\":16045:16059   */\n      add\n        /* \"#utility.yul\":16038:16083   */\n      mstore\n        /* \"#utility.yul\":15921:16090   */\n      pop\n      jump\t// out\n        /* \"#utility.yul\":16096:16462   */\n    tag_258:\n        /* \"#utility.yul\":16238:16241   */\n      0x00\n        /* \"#utility.yul\":16259:16326   */\n      tag_439\n        /* \"#utility.yul\":16323:16325   */\n      0x13\n        /* \"#utility.yul\":16318:16321   */\n      dup4\n        /* \"#utility.yul\":16259:16326   */\n      tag_256\n      jump\t// in\n    tag_439:\n        /* \"#utility.yul\":16252:16326   */\n      swap2\n      pop\n        /* \"#utility.yul\":16335:16428   */\n      tag_440\n        /* \"#utility.yul\":16424:16427   */\n      dup3\n        /* \"#utility.yul\":16335:16428   */\n      tag_257\n      jump\t// in\n    tag_440:\n        /* \"#utility.yul\":16453:16455   */\n      0x20\n        /* \"#utility.yul\":16448:16451   */\n      dup3\n        /* \"#utility.yul\":16444:16456   */\n      add\n        /* \"#utility.yul\":16437:16456   */\n      swap1\n      pop\n        /* \"#utility.yul\":16096:16462   */\n      swap2\n      swap1\n      pop\n      jump\t// out\n        /* \"#utility.yul\":16468:16887   */\n    tag_57:\n        /* \"#utility.yul\":16634:16638   */\n      0x00\n        /* \"#utility.yul\":16672:16674   */\n      0x20\n        /* \"#utility.yul\":16661:16670   */\n      dup3\n        /* \"#utility.yul\":16657:16675   */\n      add\n        /* \"#utility.yul\":16649:16675   */\n      swap1\n      pop\n        /* \"#utility.yul\":16721:16730   */\n      dup2\n        /* \"#utility.yul\":16715:16719   */\n      dup2\n        /* \"#utility.yul\":16711:16731   */\n      sub\n        /* \"#utility.yul\":16707:16708   */\n      0x00\n        /* \"#utility.yul\":16696:16705   */\n      dup4\n        /* \"#utility.yul\":16692:16709   */\n      add\n        /* \"#utility.yul\":16685:16732   */\n      mstore\n        /* \"#utility.yul\":16749:16880   */\n      tag_442\n        /* \"#utility.yul\":16875:16879   */\n      dup2\n        /* \"#utility.yul\":16749:16880   */\n      tag_258\n      jump\t// in\n    tag_442:\n        /* \"#utility.yul\":16741:16880   */\n      swap1\n      pop\n        /* \"#utility.yul\":16468:16887   */\n      swap2\n      swap1\n      pop\n      jump\t// out\n        /* \"#utility.yul\":16893:17069   */\n    tag_259:\n        /* \"#utility.yul\":17033:17061   */\n      0x566f74696e6720686173206e6f74207374617274656420796574000000000000\n        /* \"#utility.yul\":17029:17030   */\n      0x00\n        /* \"#utility.yul\":17021:17027   */\n      dup3\n        /* \"#utility.yul\":17017:17031   */\n      add\n        /* \"#utility.yul\":17010:17062   */\n      mstore\n        /* \"#utility.yul\":16893:17069   */\n      pop\n      jump\t// out\n        /* \"#utility.yul\":17075:17441   */\n    tag_260:\n        /* \"#utility.yul\":17217:17220   */\n      0x00\n        /* \"#utility.yul\":17238:17305   */\n      tag_445\n        /* \"#utility.yul\":17302:17304   */\n      0x1a\n        /* \"#utility.yul\":17297:17300   */\n      dup4\n        /* \"#utility.yul\":17238:17305   */\n      tag_256\n      jump\t// in\n    tag_445:\n        /* \"#utility.yul\":17231:17305   */\n      swap2\n      pop\n        /* \"#utility.yul\":17314:17407   */\n      tag_446\n        /* \"#utility.yul\":17403:17406   */\n      dup3\n        /* \"#utility.yul\":17314:17407   */\n      tag_259\n      jump\t// in\n    tag_446:\n        /* \"#utility.yul\":17432:17434   */\n      0x20\n        /* \"#utility.yul\":17427:17430   */\n      dup3\n        /* \"#utility.yul\":17423:17435   */\n      add\n        /* \"#utility.yul\":17416:17435   */\n      swap1\n      pop\n        /* \"#utility.yul\":17075:17441   */\n      swap2\n      swap1\n      pop\n      jump\t// out\n        /* \"#utility.yul\":17447:17866   */\n    tag_61:\n        /* \"#utility.yul\":17613:17617   */\n      0x00\n        /* \"#utility.yul\":17651:17653   */\n      0x20\n        /* \"#utility.yul\":17640:17649   */\n      dup3\n        /* \"#utility.yul\":17636:17654   */\n      add\n        /* \"#utility.yul\":17628:17654   */\n      swap1\n      pop\n        /* \"#utility.yul\":17700:17709   */\n      dup2\n        /* \"#utility.yul\":17694:17698   */\n      dup2\n        /* \"#utility.yul\":17690:17710   */\n      sub\n        /* \"#utility.yul\":17686:17687   */\n      0x00\n        /* \"#utility.yul\":17675:17684   */\n      dup4\n        /* \"#utility.yul\":17671:17688   */\n      add\n        /* \"#utility.yul\":17664:17711   */\n      mstore\n        /* \"#utility.yul\":17728:17859   */\n      tag_448\n        /* \"#utility.yul\":17854:17858   */\n      dup2\n        /* \"#utility.yul\":17728:17859   */\n      tag_260\n      jump\t// in\n    tag_448:\n        /* \"#utility.yul\":17720:17859   */\n      swap1\n      pop\n        /* \"#utility.yul\":17447:17866   */\n      swap2\n      swap1\n      pop\n      jump\t// out\n        /* \"#utility.yul\":17872:18045   */\n    tag_261:\n        /* \"#utility.yul\":18012:18037   */\n      0x596f75206861766520616c726561647920766f74656420000000000000000000\n        /* \"#utility.yul\":18008:18009   */\n      0x00\n        /* \"#utility.yul\":18000:18006   */\n      dup3\n        /* \"#utility.yul\":17996:18010   */\n      add\n        /* \"#utility.yul\":17989:18038   */\n      mstore\n        /* \"#utility.yul\":17872:18045   */\n      pop\n      jump\t// out\n        /* \"#utility.yul\":18051:18417   */\n    tag_262:\n        /* \"#utility.yul\":18193:18196   */\n      0x00\n        /* \"#utility.yul\":18214:18281   */\n      tag_451\n        /* \"#utility.yul\":18278:18280   */\n      0x17\n        /* \"#utility.yul\":18273:18276   */\n      dup4\n        /* \"#utility.yul\":18214:18281   */\n      tag_256\n      jump\t// in\n    tag_451:\n        /* \"#utility.yul\":18207:18281   */\n      swap2\n      pop\n        /* \"#utility.yul\":18290:18383   */\n      tag_452\n        /* \"#utility.yul\":18379:18382   */\n      dup3\n        /* \"#utility.yul\":18290:18383   */\n      tag_261\n      jump\t// in\n    tag_452:\n        /* \"#utility.yul\":18408:18410   */\n      0x20\n        /* \"#utility.yul\":18403:18406   */\n      dup3\n        /* \"#utility.yul\":18399:18411   */\n      add\n        /* \"#utility.yul\":18392:18411   */\n      swap1\n      pop\n        /* \"#utility.yul\":18051:18417   */\n      swap2\n      swap1\n      pop\n      jump\t// out\n        /* \"#utility.yul\":18423:18842   */\n    tag_64:\n        /* \"#utility.yul\":18589:18593   */\n      0x00\n        /* \"#utility.yul\":18627:18629   */\n      0x20\n        /* \"#utility.yul\":18616:18625   */\n      dup3\n        /* \"#utility.yul\":18612:18630   */\n      add\n        /* \"#utility.yul\":18604:18630   */\n      swap1\n      pop\n        /* \"#utility.yul\":18676:18685   */\n      dup2\n        /* \"#utility.yul\":18670:18674   */\n      dup2\n        /* \"#utility.yul\":18666:18686   */\n      sub\n        /* \"#utility.yul\":18662:18663   */\n      0x00\n        /* \"#utility.yul\":18651:18660   */\n      dup4\n        /* \"#utility.yul\":18647:18664   */\n      add\n        /* \"#utility.yul\":18640:18687   */\n      mstore\n        /* \"#utility.yul\":18704:18835   */\n      tag_454\n        /* \"#utility.yul\":18830:18834   */\n      dup2\n        /* \"#utility.yul\":18704:18835   */\n      tag_262\n      jump\t// in\n    tag_454:\n        /* \"#utility.yul\":18696:18835   */\n      swap1\n      pop\n        /* \"#utility.yul\":18423:18842   */\n      swap2\n      swap1\n      pop\n      jump\t// out\n        /* \"#utility.yul\":18848:19020   */\n    tag_263:\n        /* \"#utility.yul\":18988:19012   */\n      0x596f7520617265206e6f7420617574686f72697a656400000000000000000000\n        /* \"#utility.yul\":18984:18985   */\n      0x00\n        /* \"#utility.yul\":18976:18982   */\n      dup3\n        /* \"#utility.yul\":18972:18986   */\n      add\n        /* \"#utility.yul\":18965:19013   */\n      mstore\n        /* \"#utility.yul\":18848:19020   */\n      pop\n      jump\t// out\n        /* \"#utility.yul\":19026:19392   */\n    tag_264:\n        /* \"#utility.yul\":19168:19171   */\n      0x00\n        /* \"#utility.yul\":19189:19256   */\n      tag_457\n        /* \"#utility.yul\":19253:19255   */\n      0x16\n        /* \"#utility.yul\":19248:19251   */\n      dup4\n        /* \"#utility.yul\":19189:19256   */\n      tag_256\n      jump\t// in\n    tag_457:\n        /* \"#utility.yul\":19182:19256   */\n      swap2\n      pop\n        /* \"#utility.yul\":19265:19358   */\n      tag_458\n        /* \"#utility.yul\":19354:19357   */\n      dup3\n        /* \"#utility.yul\":19265:19358   */\n      tag_263\n      jump\t// in\n    tag_458:\n        /* \"#utility.yul\":19383:19385   */\n      0x20\n        /* \"#utility.yul\":19378:19381   */\n      dup3\n        /* \"#utility.yul\":19374:19386   */\n      add\n        /* \"#utility.yul\":19367:19386   */\n      swap1\n      pop\n        /* \"#utility.yul\":19026:19392   */\n      swap2\n      swap1\n      pop\n      jump\t// out\n        /* \"#utility.yul\":19398:19817   */\n    tag_67:\n        /* \"#utility.yul\":19564:19568   */\n      0x00\n        /* \"#utility.yul\":19602:19604   */\n      0x20\n        /* \"#utility.yul\":19591:19600   */\n      dup3\n        /* \"#utility.yul\":19587:19605   */\n      add\n        /* \"#utility.yul\":19579:19605   */\n      swap1\n      pop\n        /* \"#utility.yul\":19651:19660   */\n      dup2\n        /* \"#utility.yul\":19645:19649   */\n      dup2\n        /* \"#utility.yul\":19641:19661   */\n      sub\n        /* \"#utility.yul\":19637:19638   */\n      0x00\n        /* \"#utility.yul\":19626:19635   */\n      dup4\n        /* \"#utility.yul\":19622:19639   */\n      add\n        /* \"#utility.yul\":19615:19662   */\n      mstore\n        /* \"#utility.yul\":19679:19810   */\n      tag_460\n        /* \"#utility.yul\":19805:19809   */\n      dup2\n        /* \"#utility.yul\":19679:19810   */\n      tag_264\n      jump\t// in\n    tag_460:\n        /* \"#utility.yul\":19671:19810   */\n      swap1\n      pop\n        /* \"#utility.yul\":19398:19817   */\n      swap2\n      swap1\n      pop\n      jump\t// out\n        /* \"#utility.yul\":19823:20001   */\n    tag_265:\n        /* \"#utility.yul\":19963:19993   */\n      0x43616d646964617465204964206973206e6f7420436f72726563742000000000\n        /* \"#utility.yul\":19959:19960   */\n      0x00\n        /* \"#utility.yul\":19951:19957   */\n      dup3\n        /* \"#utility.yul\":19947:19961   */\n      add\n        /* \"#utility.yul\":19940:19994   */\n      mstore\n        /* \"#utility.yul\":19823:20001   */\n      pop\n      jump\t// out\n        /* \"#utility.yul\":20007:20373   */\n    tag_266:\n        /* \"#utility.yul\":20149:20152   */\n      0x00\n        /* \"#utility.yul\":20170:20237   */\n      tag_463\n        /* \"#utility.yul\":20234:20236   */\n      0x1c\n        /* \"#utility.yul\":20229:20232   */\n      dup4\n        /* \"#utility.yul\":20170:20237   */\n      tag_256\n      jump\t// in\n    tag_463:\n        /* \"#utility.yul\":20163:20237   */\n      swap2\n      pop\n        /* \"#utility.yul\":20246:20339   */\n      tag_464\n        /* \"#utility.yul\":20335:20338   */\n      dup3\n        /* \"#utility.yul\":20246:20339   */\n      tag_265\n      jump\t// in\n    tag_464:\n        /* \"#utility.yul\":20364:20366   */\n      0x20\n        /* \"#utility.yul\":20359:20362   */\n      dup3\n        /* \"#utility.yul\":20355:20367   */\n      add\n        /* \"#utility.yul\":20348:20367   */\n      swap1\n      pop\n        /* \"#utility.yul\":20007:20373   */\n      swap2\n      swap1\n      pop\n      jump\t// out\n        /* \"#utility.yul\":20379:20798   */\n    tag_71:\n        /* \"#utility.yul\":20545:20549   */\n      0x00\n        /* \"#utility.yul\":20583:20585   */\n      0x20\n        /* \"#utility.yul\":20572:20581   */\n      dup3\n        /* \"#utility.yul\":20568:20586   */\n      add\n        /* \"#utility.yul\":20560:20586   */\n      swap1\n      pop\n        /* \"#utility.yul\":20632:20641   */\n      dup2\n        /* \"#utility.yul\":20626:20630   */\n      dup2\n        /* \"#utility.yul\":20622:20642   */\n      sub\n        /* \"#utility.yul\":20618:20619   */\n      0x00\n        /* \"#utility.yul\":20607:20616   */\n      dup4\n        /* \"#utility.yul\":20603:20620   */\n      add\n        /* \"#utility.yul\":20596:20643   */\n      mstore\n        /* \"#utility.yul\":20660:20791   */\n      tag_466\n        /* \"#utility.yul\":20786:20790   */\n      dup2\n        /* \"#utility.yul\":20660:20791   */\n      tag_266\n      jump\t// in\n    tag_466:\n        /* \"#utility.yul\":20652:20791   */\n      swap1\n      pop\n        /* \"#utility.yul\":20379:20798   */\n      swap2\n      swap1\n      pop\n      jump\t// out\n        /* \"#utility.yul\":20804:20984   */\n    tag_267:\n        /* \"#utility.yul\":20852:20929   */\n      0x4e487b7100000000000000000000000000000000000000000000000000000000\n        /* \"#utility.yul\":20849:20850   */\n      0x00\n        /* \"#utility.yul\":20842:20930   */\n      mstore\n        /* \"#utility.yul\":20949:20953   */\n      0x11\n        /* \"#utility.yul\":20946:20947   */\n      0x04\n        /* \"#utility.yul\":20939:20954   */\n      mstore\n        /* \"#utility.yul\":20973:20977   */\n      0x24\n        /* \"#utility.yul\":20970:20971   */\n      0x00\n        /* \"#utility.yul\":20963:20978   */\n      revert\n        /* \"#utility.yul\":20990:21223   */\n    tag_73:\n        /* \"#utility.yul\":21029:21032   */\n      0x00\n        /* \"#utility.yul\":21052:21076   */\n      tag_469\n        /* \"#utility.yul\":21070:21075   */\n      dup3\n        /* \"#utility.yul\":21052:21076   */\n      tag_215\n      jump\t// in\n    tag_469:\n        /* \"#utility.yul\":21043:21076   */\n      swap2\n      pop\n        /* \"#utility.yul\":21098:21164   */\n      0xffffffffffffffffffffffffffffffffffffffffffffffffffffffffffffffff\n        /* \"#utility.yul\":21091:21096   */\n      dup3\n        /* \"#utility.yul\":21088:21165   */\n      sub\n        /* \"#utility.yul\":21085:21188   */\n      tag_470\n      jumpi\n        /* \"#utility.yul\":21168:21186   */\n      tag_471\n      tag_267\n      jump\t// in\n    tag_471:\n        /* \"#utility.yul\":21085:21188   */\n    tag_470:\n        /* \"#utility.yul\":21215:21216   */\n      0x01\n        /* \"#utility.yul\":21208:21213   */\n      dup3\n        /* \"#utility.yul\":21204:21217   */\n      add\n        /* \"#utility.yul\":21197:21217   */\n      swap1\n      pop\n        /* \"#utility.yul\":20990:21223   */\n      swap2\n      swap1\n      pop\n      jump\t// out\n        /* \"#utility.yul\":21229:21393   */\n    tag_268:\n        /* \"#utility.yul\":21369:21385   */\n      0x4e6f7420417574687572697a6564000000000000000000000000000000000000\n        /* \"#utility.yul\":21365:21366   */\n      0x00\n        /* \"#utility.yul\":21357:21363   */\n      dup3\n        /* \"#utility.yul\":21353:21367   */\n      add\n        /* \"#utility.yul\":21346:21386   */\n      mstore\n        /* \"#utility.yul\":21229:21393   */\n      pop\n      jump\t// out\n        /* \"#utility.yul\":21399:21765   */\n    tag_269:\n        /* \"#utility.yul\":21541:21544   */\n      0x00\n        /* \"#utility.yul\":21562:21629   */\n      tag_474\n        /* \"#utility.yul\":21626:21628   */\n      0x0e\n        /* \"#utility.yul\":21621:21624   */\n      dup4\n        /* \"#utility.yul\":21562:21629   */\n      tag_256\n      jump\t// in\n    tag_474:\n        /* \"#utility.yul\":21555:21629   */\n      swap2\n      pop\n        /* \"#utility.yul\":21638:21731   */\n      tag_475\n        /* \"#utility.yul\":21727:21730   */\n      dup3\n        /* \"#utility.yul\":21638:21731   */\n      tag_268\n      jump\t// in\n    tag_475:\n        /* \"#utility.yul\":21756:21758   */\n      0x20\n        /* \"#utility.yul\":21751:21754   */\n      dup3\n        /* \"#utility.yul\":21747:21759   */\n      add\n        /* \"#utility.yul\":21740:21759   */\n      swap1\n      pop\n        /* \"#utility.yul\":21399:21765   */\n      swap2\n      swap1\n      pop\n      jump\t// out\n        /* \"#utility.yul\":21771:22190   */\n    tag_77:\n        /* \"#utility.yul\":21937:21941   */\n      0x00\n        /* \"#utility.yul\":21975:21977   */\n      0x20\n        /* \"#utility.yul\":21964:21973   */\n      dup3\n        /* \"#utility.yul\":21960:21978   */\n      add\n        /* \"#utility.yul\":21952:21978   */\n      swap1\n      pop\n        /* \"#utility.yul\":22024:22033   */\n      dup2\n        /* \"#utility.yul\":22018:22022   */\n      dup2\n        /* \"#utility.yul\":22014:22034   */\n      sub\n        /* \"#utility.yul\":22010:22011   */\n      0x00\n        /* \"#utility.yul\":21999:22008   */\n      dup4\n        /* \"#utility.yul\":21995:22012   */\n      add\n        /* \"#utility.yul\":21988:22035   */\n      mstore\n        /* \"#utility.yul\":22052:22183   */\n      tag_477\n        /* \"#utility.yul\":22178:22182   */\n      dup2\n        /* \"#utility.yul\":22052:22183   */\n      tag_269\n      jump\t// in\n    tag_477:\n        /* \"#utility.yul\":22044:22183   */\n      swap1\n      pop\n        /* \"#utility.yul\":21771:22190   */\n      swap2\n      swap1\n      pop\n      jump\t// out\n        /* \"#utility.yul\":22196:22369   */\n    tag_270:\n        /* \"#utility.yul\":22336:22361   */\n      0x6e6f7420656c696769626c6520666f7220566f74696e67000000000000000000\n        /* \"#utility.yul\":22332:22333   */\n      0x00\n        /* \"#utility.yul\":22324:22330   */\n      dup3\n        /* \"#utility.yul\":22320:22334   */\n      add\n        /* \"#utility.yul\":22313:22362   */\n      mstore\n        /* \"#utility.yul\":22196:22369   */\n      pop\n      jump\t// out\n        /* \"#utility.yul\":22375:22741   */\n    tag_271:\n        /* \"#utility.yul\":22517:22520   */\n      0x00\n        /* \"#utility.yul\":22538:22605   */\n      tag_480\n        /* \"#utility.yul\":22602:22604   */\n      0x17\n        /* \"#utility.yul\":22597:22600   */\n      dup4\n        /* \"#utility.yul\":22538:22605   */\n      tag_256\n      jump\t// in\n    tag_480:\n        /* \"#utility.yul\":22531:22605   */\n      swap2\n      pop\n        /* \"#utility.yul\":22614:22707   */\n      tag_481\n        /* \"#utility.yul\":22703:22706   */\n      dup3\n        /* \"#utility.yul\":22614:22707   */\n      tag_270\n      jump\t// in\n    tag_481:\n        /* \"#utility.yul\":22732:22734   */\n      0x20\n        /* \"#utility.yul\":22727:22730   */\n      dup3\n        /* \"#utility.yul\":22723:22735   */\n      add\n        /* \"#utility.yul\":22716:22735   */\n      swap1\n      pop\n        /* \"#utility.yul\":22375:22741   */\n      swap2\n      swap1\n      pop\n      jump\t// out\n        /* \"#utility.yul\":22747:23166   */\n    tag_96:\n        /* \"#utility.yul\":22913:22917   */\n      0x00\n        /* \"#utility.yul\":22951:22953   */\n      0x20\n        /* \"#utility.yul\":22940:22949   */\n      dup3\n        /* \"#utility.yul\":22936:22954   */\n      add\n        /* \"#utility.yul\":22928:22954   */\n      swap1\n      pop\n        /* \"#utility.yul\":23000:23009   */\n      dup2\n        /* \"#utility.yul\":22994:22998   */\n      dup2\n        /* \"#utility.yul\":22990:23010   */\n      sub\n        /* \"#utility.yul\":22986:22987   */\n      0x00\n        /* \"#utility.yul\":22975:22984   */\n      dup4\n        /* \"#utility.yul\":22971:22988   */\n      add\n        /* \"#utility.yul\":22964:23011   */\n      mstore\n        /* \"#utility.yul\":23028:23159   */\n      tag_483\n        /* \"#utility.yul\":23154:23158   */\n      dup2\n        /* \"#utility.yul\":23028:23159   */\n      tag_271\n      jump\t// in\n    tag_483:\n        /* \"#utility.yul\":23020:23159   */\n      swap1\n      pop\n        /* \"#utility.yul\":22747:23166   */\n      swap2\n      swap1\n      pop\n      jump\t// out\n        /* \"#utility.yul\":23172:23348   */\n    tag_272:\n        /* \"#utility.yul\":23312:23340   */\n      0x596f752061726520616c72656164792052656769737465726564000000000000\n        /* \"#utility.yul\":23308:23309   */\n      0x00\n        /* \"#utility.yul\":23300:23306   */\n      dup3\n        /* \"#utility.yul\":23296:23310   */\n      add\n        /* \"#utility.yul\":23289:23341   */\n      mstore\n        /* \"#utility.yul\":23172:23348   */\n      pop\n      jump\t// out\n        /* \"#utility.yul\":23354:23720   */\n    tag_273:\n        /* \"#utility.yul\":23496:23499   */\n      0x00\n        /* \"#utility.yul\":23517:23584   */\n      tag_486\n        /* \"#utility.yul\":23581:23583   */\n      0x1a\n        /* \"#utility.yul\":23576:23579   */\n      dup4\n        /* \"#utility.yul\":23517:23584   */\n      tag_256\n      jump\t// in\n    tag_486:\n        /* \"#utility.yul\":23510:23584   */\n      swap2\n      pop\n        /* \"#utility.yul\":23593:23686   */\n      tag_487\n        /* \"#utility.yul\":23682:23685   */\n      dup3\n        /* \"#utility.yul\":23593:23686   */\n      tag_272\n      jump\t// in\n    tag_487:\n        /* \"#utility.yul\":23711:23713   */\n      0x20\n        /* \"#utility.yul\":23706:23709   */\n      dup3\n        /* \"#utility.yul\":23702:23714   */\n      add\n        /* \"#utility.yul\":23695:23714   */\n      swap1\n      pop\n        /* \"#utility.yul\":23354:23720   */\n      swap2\n      swap1\n      pop\n      jump\t// out\n        /* \"#utility.yul\":23726:24145   */\n    tag_102:\n        /* \"#utility.yul\":23892:23896   */\n      0x00\n        /* \"#utility.yul\":23930:23932   */\n      0x20\n        /* \"#utility.yul\":23919:23928   */\n      dup3\n        /* \"#utility.yul\":23915:23933   */\n      add\n        /* \"#utility.yul\":23907:23933   */\n      swap1\n      pop\n        /* \"#utility.yul\":23979:23988   */\n      dup2\n        /* \"#utility.yul\":23973:23977   */\n      dup2\n        /* \"#utility.yul\":23969:23989   */\n      sub\n        /* \"#utility.yul\":23965:23966   */\n      0x00\n        /* \"#utility.yul\":23954:23963   */\n      dup4\n        /* \"#utility.yul\":23950:23967   */\n      add\n        /* \"#utility.yul\":23943:23990   */\n      mstore\n        /* \"#utility.yul\":24007:24138   */\n      tag_489\n        /* \"#utility.yul\":24133:24137   */\n      dup2\n        /* \"#utility.yul\":24007:24138   */\n      tag_273\n      jump\t// in\n    tag_489:\n        /* \"#utility.yul\":23999:24138   */\n      swap1\n      pop\n        /* \"#utility.yul\":23726:24145   */\n      swap2\n      swap1\n      pop\n      jump\t// out\n        /* \"#utility.yul\":24151:24331   */\n    tag_148:\n        /* \"#utility.yul\":24199:24276   */\n      0x4e487b7100000000000000000000000000000000000000000000000000000000\n        /* \"#utility.yul\":24196:24197   */\n      0x00\n        /* \"#utility.yul\":24189:24277   */\n      mstore\n        /* \"#utility.yul\":24296:24300   */\n      0x41\n        /* \"#utility.yul\":24293:24294   */\n      0x04\n        /* \"#utility.yul\":24286:24301   */\n      mstore\n        /* \"#utility.yul\":24320:24324   */\n      0x24\n        /* \"#utility.yul\":24317:24318   */\n      0x00\n        /* \"#utility.yul\":24310:24325   */\n      revert\n        /* \"#utility.yul\":24337:24517   */\n    tag_274:\n        /* \"#utility.yul\":24385:24462   */\n      0x4e487b7100000000000000000000000000000000000000000000000000000000\n        /* \"#utility.yul\":24382:24383   */\n      0x00\n        /* \"#utility.yul\":24375:24463   */\n      mstore\n        /* \"#utility.yul\":24482:24486   */\n      0x22\n        /* \"#utility.yul\":24479:24480   */\n      0x04\n        /* \"#utility.yul\":24472:24487   */\n      mstore\n        /* \"#utility.yul\":24506:24510   */\n      0x24\n        /* \"#utility.yul\":24503:24504   */\n      0x00\n        /* \"#utility.yul\":24496:24511   */\n      revert\n        /* \"#utility.yul\":24523:24843   */\n    tag_158:\n        /* \"#utility.yul\":24567:24573   */\n      0x00\n        /* \"#utility.yul\":24604:24605   */\n      0x02\n        /* \"#utility.yul\":24598:24602   */\n      dup3\n        /* \"#utility.yul\":24594:24606   */\n      div\n        /* \"#utility.yul\":24584:24606   */\n      swap1\n      pop\n        /* \"#utility.yul\":24651:24652   */\n      0x01\n        /* \"#utility.yul\":24645:24649   */\n      dup3\n        /* \"#utility.yul\":24641:24653   */\n      and\n        /* \"#utility.yul\":24672:24690   */\n      dup1\n        /* \"#utility.yul\":24662:24743   */\n      tag_493\n      jumpi\n        /* \"#utility.yul\":24728:24732   */\n      0x7f\n        /* \"#utility.yul\":24720:24726   */\n      dup3\n        /* \"#utility.yul\":24716:24733   */\n      and\n        /* \"#utility.yul\":24706:24733   */\n      swap2\n      pop\n        /* \"#utility.yul\":24662:24743   */\n    tag_493:\n        /* \"#utility.yul\":24790:24792   */\n      0x20\n        /* \"#utility.yul\":24782:24788   */\n      dup3\n        /* \"#utility.yul\":24779:24793   */\n      lt\n        /* \"#utility.yul\":24759:24777   */\n      dup2\n        /* \"#utility.yul\":24756:24794   */\n      sub\n        /* \"#utility.yul\":24753:24837   */\n      tag_494\n      jumpi\n        /* \"#utility.yul\":24809:24827   */\n      tag_495\n      tag_274\n      jump\t// in\n    tag_495:\n        /* \"#utility.yul\":24753:24837   */\n    tag_494:\n        /* \"#utility.yul\":24574:24843   */\n      pop\n        /* \"#utility.yul\":24523:24843   */\n      swap2\n      swap1\n      pop\n      jump\t// out\n        /* \"#utility.yul\":24849:24990   */\n    tag_275:\n        /* \"#utility.yul\":24898:24902   */\n      0x00\n        /* \"#utility.yul\":24921:24924   */\n      dup2\n        /* \"#utility.yul\":24913:24924   */\n      swap1\n      pop\n        /* \"#utility.yul\":24944:24947   */\n      dup2\n        /* \"#utility.yul\":24941:24942   */\n      0x00\n        /* \"#utility.yul\":24934:24948   */\n      mstore\n        /* \"#utility.yul\":24978:24982   */\n      0x20\n        /* \"#utility.yul\":24975:24976   */\n      0x00\n        /* \"#utility.yul\":24965:24983   */\n      keccak256\n        /* \"#utility.yul\":24957:24983   */\n      swap1\n      pop\n        /* \"#utility.yul\":24849:24990   */\n      swap2\n      swap1\n      pop\n      jump\t// out\n        /* \"#utility.yul\":24996:25089   */\n    tag_276:\n        /* \"#utility.yul\":25033:25039   */\n      0x00\n        /* \"#utility.yul\":25080:25082   */\n      0x20\n        /* \"#utility.yul\":25075:25077   */\n      0x1f\n        /* \"#utility.yul\":25068:25073   */\n      dup4\n        /* \"#utility.yul\":25064:25078   */\n      add\n        /* \"#utility.yul\":25060:25083   */\n      div\n        /* \"#utility.yul\":25050:25083   */\n      swap1\n      pop\n        /* \"#utility.yul\":24996:25089   */\n      swap2\n      swap1\n      pop\n      jump\t// out\n        /* \"#utility.yul\":25095:25202   */\n    tag_277:\n        /* \"#utility.yul\":25139:25147   */\n      0x00\n        /* \"#utility.yul\":25189:25194   */\n      dup3\n        /* \"#utility.yul\":25183:25187   */\n      dup3\n        /* \"#utility.yul\":25179:25195   */\n      shl\n        /* \"#utility.yul\":25158:25195   */\n      swap1\n      pop\n        /* \"#utility.yul\":25095:25202   */\n      swap3\n      swap2\n      pop\n      pop\n      jump\t// out\n        /* \"#utility.yul\":25208:25601   */\n    tag_278:\n        /* \"#utility.yul\":25277:25283   */\n      0x00\n        /* \"#utility.yul\":25327:25328   */\n      0x08\n        /* \"#utility.yul\":25315:25325   */\n      dup4\n        /* \"#utility.yul\":25311:25329   */\n      mul\n        /* \"#utility.yul\":25350:25447   */\n      tag_500\n        /* \"#utility.yul\":25380:25446   */\n      0xffffffffffffffffffffffffffffffffffffffffffffffffffffffffffffffff\n        /* \"#utility.yul\":25369:25378   */\n      dup3\n        /* \"#utility.yul\":25350:25447   */\n      tag_277\n      jump\t// in\n    tag_500:\n        /* \"#utility.yul\":25468:25507   */\n      tag_501\n        /* \"#utility.yul\":25498:25506   */\n      dup7\n        /* \"#utility.yul\":25487:25496   */\n      dup4\n        /* \"#utility.yul\":25468:25507   */\n      tag_277\n      jump\t// in\n    tag_501:\n        /* \"#utility.yul\":25456:25507   */\n      swap6\n      pop\n        /* \"#utility.yul\":25540:25544   */\n      dup1\n        /* \"#utility.yul\":25536:25545   */\n      not\n        /* \"#utility.yul\":25529:25534   */\n      dup5\n        /* \"#utility.yul\":25525:25546   */\n      and\n        /* \"#utility.yul\":25516:25546   */\n      swap4\n      pop\n        /* \"#utility.yul\":25589:25593   */\n      dup1\n        /* \"#utility.yul\":25579:25587   */\n      dup7\n        /* \"#utility.yul\":25575:25594   */\n      and\n        /* \"#utility.yul\":25568:25573   */\n      dup5\n        /* \"#utility.yul\":25565:25595   */\n      or\n        /* \"#utility.yul\":25555:25595   */\n      swap3\n      pop\n        /* \"#utility.yul\":25284:25601   */\n      pop\n      pop\n        /* \"#utility.yul\":25208:25601   */\n      swap4\n      swap3\n      pop\n      pop\n      pop\n      jump\t// out\n        /* \"#utility.yul\":25607:25667   */\n    tag_279:\n        /* \"#utility.yul\":25635:25638   */\n      0x00\n        /* \"#utility.yul\":25656:25661   */\n      dup2\n        /* \"#utility.yul\":25649:25661   */\n      swap1\n      pop\n        /* \"#utility.yul\":25607:25667   */\n      swap2\n      swap1\n      pop\n      jump\t// out\n        /* \"#utility.yul\":25673:25815   */\n    tag_280:\n        /* \"#utility.yul\":25723:25732   */\n      0x00\n        /* \"#utility.yul\":25756:25809   */\n      tag_504\n        /* \"#utility.yul\":25774:25808   */\n      tag_505\n        /* \"#utility.yul\":25783:25807   */\n      tag_506\n        /* \"#utility.yul\":25801:25806   */\n      dup5\n        /* \"#utility.yul\":25783:25807   */\n      tag_215\n      jump\t// in\n    tag_506:\n        /* \"#utility.yul\":25774:25808   */\n      tag_279\n      jump\t// in\n    tag_505:\n        /* \"#utility.yul\":25756:25809   */\n      tag_215\n      jump\t// in\n    tag_504:\n        /* \"#utility.yul\":25743:25809   */\n      swap1\n      pop\n        /* \"#utility.yul\":25673:25815   */\n      swap2\n      swap1\n      pop\n      jump\t// out\n        /* \"#utility.yul\":25821:25896   */\n    tag_281:\n        /* \"#utility.yul\":25864:25867   */\n      0x00\n        /* \"#utility.yul\":25885:25890   */\n      dup2\n        /* \"#utility.yul\":25878:25890   */\n      swap1\n      pop\n        /* \"#utility.yul\":25821:25896   */\n      swap2\n      swap1\n      pop\n      jump\t// out\n        /* \"#utility.yul\":25902:26171   */\n    tag_282:\n        /* \"#utility.yul\":26012:26051   */\n      tag_509\n        /* \"#utility.yul\":26043:26050   */\n      dup4\n        /* \"#utility.yul\":26012:26051   */\n      tag_280\n      jump\t// in\n    tag_509:\n        /* \"#utility.yul\":26073:26164   */\n      tag_510\n        /* \"#utility.yul\":26122:26163   */\n      tag_511\n        /* \"#utility.yul\":26146:26162   */\n      dup3\n        /* \"#utility.yul\":26122:26163   */\n      tag_281\n      jump\t// in\n    tag_511:\n        /* \"#utility.yul\":26114:26120   */\n      dup5\n        /* \"#utility.yul\":26107:26111   */\n      dup5\n        /* \"#utility.yul\":26101:26112   */\n      sload\n        /* \"#utility.yul\":26073:26164   */\n      tag_278\n      jump\t// in\n    tag_510:\n        /* \"#utility.yul\":26067:26071   */\n      dup3\n        /* \"#utility.yul\":26060:26165   */\n      sstore\n        /* \"#utility.yul\":25978:26171   */\n      pop\n        /* \"#utility.yul\":25902:26171   */\n      pop\n      pop\n      pop\n      jump\t// out\n        /* \"#utility.yul\":26177:26250   */\n    tag_283:\n        /* \"#utility.yul\":26222:26225   */\n      0x00\n        /* \"#utility.yul\":26243:26244   */\n      0x00\n        /* \"#utility.yul\":26236:26244   */\n      swap1\n      pop\n        /* \"#utility.yul\":26177:26250   */\n      swap1\n      jump\t// out\n        /* \"#utility.yul\":26256:26445   */\n    tag_284:\n        /* \"#utility.yul\":26333:26365   */\n      tag_514\n      tag_283\n      jump\t// in\n    tag_514:\n        /* \"#utility.yul\":26374:26439   */\n      tag_515\n        /* \"#utility.yul\":26432:26438   */\n      dup2\n        /* \"#utility.yul\":26424:26430   */\n      dup5\n        /* \"#utility.yul\":26418:26422   */\n      dup5\n        /* \"#utility.yul\":26374:26439   */\n      tag_282\n      jump\t// in\n    tag_515:\n        /* \"#utility.yul\":26309:26445   */\n      pop\n        /* \"#utility.yul\":26256:26445   */\n      pop\n      pop\n      jump\t// out\n        /* \"#utility.yul\":26451:26637   */\n    tag_285:\n        /* \"#utility.yul\":26511:26631   */\n    tag_517:\n        /* \"#utility.yul\":26528:26531   */\n      dup2\n        /* \"#utility.yul\":26521:26526   */\n      dup2\n        /* \"#utility.yul\":26518:26532   */\n      lt\n        /* \"#utility.yul\":26511:26631   */\n      iszero\n      tag_519\n      jumpi\n        /* \"#utility.yul\":26582:26621   */\n      tag_520\n        /* \"#utility.yul\":26619:26620   */\n      0x00\n        /* \"#utility.yul\":26612:26617   */\n      dup3\n        /* \"#utility.yul\":26582:26621   */\n      tag_284\n      jump\t// in\n    tag_520:\n        /* \"#utility.yul\":26555:26556   */\n      0x01\n        /* \"#utility.yul\":26548:26553   */\n      dup2\n        /* \"#utility.yul\":26544:26557   */\n      add\n        /* \"#utility.yul\":26535:26557   */\n      swap1\n      pop\n        /* \"#utility.yul\":26511:26631   */\n      jump(tag_517)\n    tag_519:\n        /* \"#utility.yul\":26451:26637   */\n      pop\n      pop\n      jump\t// out\n        /* \"#utility.yul\":26643:27186   */\n    tag_286:\n        /* \"#utility.yul\":26744:26746   */\n      0x1f\n        /* \"#utility.yul\":26739:26742   */\n      dup3\n        /* \"#utility.yul\":26736:26747   */\n      gt\n        /* \"#utility.yul\":26733:27179   */\n      iszero\n      tag_522\n      jumpi\n        /* \"#utility.yul\":26778:26816   */\n      tag_523\n        /* \"#utility.yul\":26810:26815   */\n      dup2\n        /* \"#utility.yul\":26778:26816   */\n      tag_275\n      jump\t// in\n    tag_523:\n        /* \"#utility.yul\":26862:26891   */\n      tag_524\n        /* \"#utility.yul\":26880:26890   */\n      dup5\n        /* \"#utility.yul\":26862:26891   */\n      tag_276\n      jump\t// in\n    tag_524:\n        /* \"#utility.yul\":26852:26860   */\n      dup2\n        /* \"#utility.yul\":26848:26892   */\n      add\n        /* \"#utility.yul\":27045:27047   */\n      0x20\n        /* \"#utility.yul\":27033:27043   */\n      dup6\n        /* \"#utility.yul\":27030:27048   */\n      lt\n        /* \"#utility.yul\":27027:27076   */\n      iszero\n      tag_525\n      jumpi\n        /* \"#utility.yul\":27066:27074   */\n      dup2\n        /* \"#utility.yul\":27051:27074   */\n      swap1\n      pop\n        /* \"#utility.yul\":27027:27076   */\n    tag_525:\n        /* \"#utility.yul\":27089:27169   */\n      tag_526\n        /* \"#utility.yul\":27145:27167   */\n      tag_527\n        /* \"#utility.yul\":27163:27166   */\n      dup6\n        /* \"#utility.yul\":27145:27167   */\n      tag_276\n      jump\t// in\n    tag_527:\n        /* \"#utility.yul\":27135:27143   */\n      dup4\n        /* \"#utility.yul\":27131:27168   */\n      add\n        /* \"#utility.yul\":27118:27129   */\n      dup3\n        /* \"#utility.yul\":27089:27169   */\n      tag_285\n      jump\t// in\n    tag_526:\n        /* \"#utility.yul\":26748:27179   */\n      pop\n      pop\n        /* \"#utility.yul\":26733:27179   */\n    tag_522:\n        /* \"#utility.yul\":26643:27186   */\n      pop\n      pop\n      pop\n      jump\t// out\n        /* \"#utility.yul\":27192:27309   */\n    tag_287:\n        /* \"#utility.yul\":27246:27254   */\n      0x00\n        /* \"#utility.yul\":27296:27301   */\n      dup3\n        /* \"#utility.yul\":27290:27294   */\n      dup3\n        /* \"#utility.yul\":27286:27302   */\n      shr\n        /* \"#utility.yul\":27265:27302   */\n      swap1\n      pop\n        /* \"#utility.yul\":27192:27309   */\n      swap3\n      swap2\n      pop\n      pop\n      jump\t// out\n        /* \"#utility.yul\":27315:27484   */\n    tag_288:\n        /* \"#utility.yul\":27359:27365   */\n      0x00\n        /* \"#utility.yul\":27392:27443   */\n      tag_530\n        /* \"#utility.yul\":27440:27441   */\n      0x00\n        /* \"#utility.yul\":27436:27442   */\n      not\n        /* \"#utility.yul\":27428:27433   */\n      dup5\n        /* \"#utility.yul\":27425:27426   */\n      0x08\n        /* \"#utility.yul\":27421:27434   */\n      mul\n        /* \"#utility.yul\":27392:27443   */\n      tag_287\n      jump\t// in\n    tag_530:\n        /* \"#utility.yul\":27388:27444   */\n      not\n        /* \"#utility.yul\":27473:27477   */\n      dup1\n        /* \"#utility.yul\":27467:27471   */\n      dup4\n        /* \"#utility.yul\":27463:27478   */\n      and\n        /* \"#utility.yul\":27453:27478   */\n      swap2\n      pop\n        /* \"#utility.yul\":27366:27484   */\n      pop\n        /* \"#utility.yul\":27315:27484   */\n      swap3\n      swap2\n      pop\n      pop\n      jump\t// out\n        /* \"#utility.yul\":27489:27784   */\n    tag_289:\n        /* \"#utility.yul\":27565:27569   */\n      0x00\n        /* \"#utility.yul\":27711:27740   */\n      tag_532\n        /* \"#utility.yul\":27736:27739   */\n      dup4\n        /* \"#utility.yul\":27730:27734   */\n      dup4\n        /* \"#utility.yul\":27711:27740   */\n      tag_288\n      jump\t// in\n    tag_532:\n        /* \"#utility.yul\":27703:27740   */\n      swap2\n      pop\n        /* \"#utility.yul\":27773:27776   */\n      dup3\n        /* \"#utility.yul\":27770:27771   */\n      0x02\n        /* \"#utility.yul\":27766:27777   */\n      mul\n        /* \"#utility.yul\":27760:27764   */\n      dup3\n        /* \"#utility.yul\":27757:27778   */\n      or\n        /* \"#utility.yul\":27749:27778   */\n      swap1\n      pop\n        /* \"#utility.yul\":27489:27784   */\n      swap3\n      swap2\n      pop\n      pop\n      jump\t// out\n        /* \"#utility.yul\":27789:29184   */\n    tag_107:\n        /* \"#utility.yul\":27906:27943   */\n      tag_534\n        /* \"#utility.yul\":27939:27942   */\n      dup3\n        /* \"#utility.yul\":27906:27943   */\n      tag_234\n      jump\t// in\n    tag_534:\n        /* \"#utility.yul\":28008:28026   */\n      0xffffffffffffffff\n        /* \"#utility.yul\":28000:28006   */\n      dup2\n        /* \"#utility.yul\":27997:28027   */\n      gt\n        /* \"#utility.yul\":27994:28050   */\n      iszero\n      tag_535\n      jumpi\n        /* \"#utility.yul\":28030:28048   */\n      tag_536\n      tag_148\n      jump\t// in\n    tag_536:\n        /* \"#utility.yul\":27994:28050   */\n    tag_535:\n        /* \"#utility.yul\":28074:28112   */\n      tag_537\n        /* \"#utility.yul\":28106:28110   */\n      dup3\n        /* \"#utility.yul\":28100:28111   */\n      sload\n        /* \"#utility.yul\":28074:28112   */\n      tag_158\n      jump\t// in\n    tag_537:\n        /* \"#utility.yul\":28159:28226   */\n      tag_538\n        /* \"#utility.yul\":28219:28225   */\n      dup3\n        /* \"#utility.yul\":28211:28217   */\n      dup3\n        /* \"#utility.yul\":28205:28209   */\n      dup6\n        /* \"#utility.yul\":28159:28226   */\n      tag_286\n      jump\t// in\n    tag_538:\n        /* \"#utility.yul\":28253:28254   */\n      0x00\n        /* \"#utility.yul\":28277:28281   */\n      0x20\n        /* \"#utility.yul\":28264:28281   */\n      swap1\n      pop\n        /* \"#utility.yul\":28309:28311   */\n      0x1f\n        /* \"#utility.yul\":28301:28307   */\n      dup4\n        /* \"#utility.yul\":28298:28312   */\n      gt\n        /* \"#utility.yul\":28326:28327   */\n      0x01\n        /* \"#utility.yul\":28321:28939   */\n      dup2\n      eq\n      tag_540\n      jumpi\n        /* \"#utility.yul\":28983:28984   */\n      0x00\n        /* \"#utility.yul\":29000:29006   */\n      dup5\n        /* \"#utility.yul\":28997:29074   */\n      iszero\n      tag_541\n      jumpi\n        /* \"#utility.yul\":29049:29058   */\n      dup3\n        /* \"#utility.yul\":29044:29047   */\n      dup8\n        /* \"#utility.yul\":29040:29059   */\n      add\n        /* \"#utility.yul\":29034:29060   */\n      mload\n        /* \"#utility.yul\":29025:29060   */\n      swap1\n      pop\n        /* \"#utility.yul\":28997:29074   */\n    tag_541:\n        /* \"#utility.yul\":29100:29167   */\n      tag_542\n        /* \"#utility.yul\":29160:29166   */\n      dup6\n        /* \"#utility.yul\":29153:29158   */\n      dup3\n        /* \"#utility.yul\":29100:29167   */\n      tag_289\n      jump\t// in\n    tag_542:\n        /* \"#utility.yul\":29094:29098   */\n      dup7\n        /* \"#utility.yul\":29087:29168   */\n      sstore\n        /* \"#utility.yul\":28956:29178   */\n      pop\n        /* \"#utility.yul\":28291:29178   */\n      jump(tag_539)\n        /* \"#utility.yul\":28321:28939   */\n    tag_540:\n        /* \"#utility.yul\":28373:28377   */\n      0x1f\n        /* \"#utility.yul\":28369:28378   */\n      not\n        /* \"#utility.yul\":28361:28367   */\n      dup5\n        /* \"#utility.yul\":28357:28379   */\n      and\n        /* \"#utility.yul\":28407:28444   */\n      tag_543\n        /* \"#utility.yul\":28439:28443   */\n      dup7\n        /* \"#utility.yul\":28407:28444   */\n      tag_275\n      jump\t// in\n    tag_543:\n        /* \"#utility.yul\":28466:28467   */\n      0x00\n        /* \"#utility.yul\":28480:28688   */\n    tag_544:\n        /* \"#utility.yul\":28494:28501   */\n      dup3\n        /* \"#utility.yul\":28491:28492   */\n      dup2\n        /* \"#utility.yul\":28488:28502   */\n      lt\n        /* \"#utility.yul\":28480:28688   */\n      iszero\n      tag_546\n      jumpi\n        /* \"#utility.yul\":28573:28582   */\n      dup5\n        /* \"#utility.yul\":28568:28571   */\n      dup10\n        /* \"#utility.yul\":28564:28583   */\n      add\n        /* \"#utility.yul\":28558:28584   */\n      mload\n        /* \"#utility.yul\":28550:28556   */\n      dup3\n        /* \"#utility.yul\":28543:28585   */\n      sstore\n        /* \"#utility.yul\":28624:28625   */\n      0x01\n        /* \"#utility.yul\":28616:28622   */\n      dup3\n        /* \"#utility.yul\":28612:28626   */\n      add\n        /* \"#utility.yul\":28602:28626   */\n      swap2\n      pop\n        /* \"#utility.yul\":28671:28673   */\n      0x20\n        /* \"#utility.yul\":28660:28669   */\n      dup6\n        /* \"#utility.yul\":28656:28674   */\n      add\n        /* \"#utility.yul\":28643:28674   */\n      swap5\n      pop\n        /* \"#utility.yul\":28517:28521   */\n      0x20\n        /* \"#utility.yul\":28514:28515   */\n      dup2\n        /* \"#utility.yul\":28510:28522   */\n      add\n        /* \"#utility.yul\":28505:28522   */\n      swap1\n      pop\n        /* \"#utility.yul\":28480:28688   */\n      jump(tag_544)\n    tag_546:\n        /* \"#utility.yul\":28716:28722   */\n      dup7\n        /* \"#utility.yul\":28707:28714   */\n      dup4\n        /* \"#utility.yul\":28704:28723   */\n      lt\n        /* \"#utility.yul\":28701:28880   */\n      iszero\n      tag_547\n      jumpi\n        /* \"#utility.yul\":28774:28783   */\n      dup5\n        /* \"#utility.yul\":28769:28772   */\n      dup10\n        /* \"#utility.yul\":28765:28784   */\n      add\n        /* \"#utility.yul\":28759:28785   */\n      mload\n        /* \"#utility.yul\":28817:28865   */\n      tag_548\n        /* \"#utility.yul\":28859:28863   */\n      0x1f\n        /* \"#utility.yul\":28851:28857   */\n      dup10\n        /* \"#utility.yul\":28847:28864   */\n      and\n        /* \"#utility.yul\":28836:28845   */\n      dup3\n        /* \"#utility.yul\":28817:28865   */\n      tag_288\n      jump\t// in\n    tag_548:\n        /* \"#utility.yul\":28809:28815   */\n      dup4\n        /* \"#utility.yul\":28802:28866   */\n      sstore\n        /* \"#utility.yul\":28724:28880   */\n      pop\n        /* \"#utility.yul\":28701:28880   */\n    tag_547:\n        /* \"#utility.yul\":28926:28927   */\n      0x01\n        /* \"#utility.yul\":28922:28923   */\n      0x02\n        /* \"#utility.yul\":28914:28920   */\n      dup9\n        /* \"#utility.yul\":28910:28924   */\n      mul\n        /* \"#utility.yul\":28906:28928   */\n      add\n        /* \"#utility.yul\":28900:28904   */\n      dup9\n        /* \"#utility.yul\":28893:28929   */\n      sstore\n        /* \"#utility.yul\":28328:28939   */\n      pop\n      pop\n      pop\n        /* \"#utility.yul\":28291:29178   */\n    tag_539:\n      pop\n        /* \"#utility.yul\":27881:29184   */\n      pop\n      pop\n      pop\n        /* \"#utility.yul\":27789:29184   */\n      pop\n      pop\n      jump\t// out\n        /* \"#utility.yul\":29190:29366   */\n    tag_290:\n        /* \"#utility.yul\":29330:29358   */\n      0x596f752061726520616c72656164792072656769737465726564000000000000\n        /* \"#utility.yul\":29326:29327   */\n      0x00\n        /* \"#utility.yul\":29318:29324   */\n      dup3\n        /* \"#utility.yul\":29314:29328   */\n      add\n        /* \"#utility.yul\":29307:29359   */\n      mstore\n        /* \"#utility.yul\":29190:29366   */\n      pop\n      jump\t// out\n        /* \"#utility.yul\":29372:29738   */\n    tag_291:\n        /* \"#utility.yul\":29514:29517   */\n      0x00\n        /* \"#utility.yul\":29535:29602   */\n      tag_551\n        /* \"#utility.yul\":29599:29601   */\n      0x1a\n        /* \"#utility.yul\":29594:29597   */\n      dup4\n        /* \"#utility.yul\":29535:29602   */\n      tag_256\n      jump\t// in\n    tag_551:\n        /* \"#utility.yul\":29528:29602   */\n      swap2\n      pop\n        /* \"#utility.yul\":29611:29704   */\n      tag_552\n        /* \"#utility.yul\":29700:29703   */\n      dup3\n        /* \"#utility.yul\":29611:29704   */\n      tag_290\n      jump\t// in\n    tag_552:\n        /* \"#utility.yul\":29729:29731   */\n      0x20\n        /* \"#utility.yul\":29724:29727   */\n      dup3\n        /* \"#utility.yul\":29720:29732   */\n      add\n        /* \"#utility.yul\":29713:29732   */\n      swap1\n      pop\n        /* \"#utility.yul\":29372:29738   */\n      swap2\n      swap1\n      pop\n      jump\t// out\n        /* \"#utility.yul\":29744:30163   */\n    tag_119:\n        /* \"#utility.yul\":29910:29914   */\n      0x00\n        /* \"#utility.yul\":29948:29950   */\n      0x20\n        /* \"#utility.yul\":29937:29946   */\n      dup3\n        /* \"#utility.yul\":29933:29951   */\n      add\n        /* \"#utility.yul\":29925:29951   */\n      swap1\n      pop\n        /* \"#utility.yul\":29997:30006   */\n      dup2\n        /* \"#utility.yul\":29991:29995   */\n      dup2\n        /* \"#utility.yul\":29987:30007   */\n      sub\n        /* \"#utility.yul\":29983:29984   */\n      0x00\n        /* \"#utility.yul\":29972:29981   */\n      dup4\n        /* \"#utility.yul\":29968:29985   */\n      add\n        /* \"#utility.yul\":29961:30008   */\n      mstore\n        /* \"#utility.yul\":30025:30156   */\n      tag_554\n        /* \"#utility.yul\":30151:30155   */\n      dup2\n        /* \"#utility.yul\":30025:30156   */\n      tag_291\n      jump\t// in\n    tag_554:\n        /* \"#utility.yul\":30017:30156   */\n      swap1\n      pop\n        /* \"#utility.yul\":29744:30163   */\n      swap2\n      swap1\n      pop\n      jump\t// out\n        /* \"#utility.yul\":30169:30346   */\n    tag_292:\n        /* \"#utility.yul\":30309:30338   */\n      0x43616e64696461746520526567697374726174696f6e2046756c6c0000000000\n        /* \"#utility.yul\":30305:30306   */\n      0x00\n        /* \"#utility.yul\":30297:30303   */\n      dup3\n        /* \"#utility.yul\":30293:30307   */\n      add\n        /* \"#utility.yul\":30286:30339   */\n      mstore\n        /* \"#utility.yul\":30169:30346   */\n      pop\n      jump\t// out\n        /* \"#utility.yul\":30352:30718   */\n    tag_293:\n        /* \"#utility.yul\":30494:30497   */\n      0x00\n        /* \"#utility.yul\":30515:30582   */\n      tag_557\n        /* \"#utility.yul\":30579:30581   */\n      0x1b\n        /* \"#utility.yul\":30574:30577   */\n      dup4\n        /* \"#utility.yul\":30515:30582   */\n      tag_256\n      jump\t// in\n    tag_557:\n        /* \"#utility.yul\":30508:30582   */\n      swap2\n      pop\n        /* \"#utility.yul\":30591:30684   */\n      tag_558\n        /* \"#utility.yul\":30680:30683   */\n      dup3\n        /* \"#utility.yul\":30591:30684   */\n      tag_292\n      jump\t// in\n    tag_558:\n        /* \"#utility.yul\":30709:30711   */\n      0x20\n        /* \"#utility.yul\":30704:30707   */\n      dup3\n        /* \"#utility.yul\":30700:30712   */\n      add\n        /* \"#utility.yul\":30693:30712   */\n      swap1\n      pop\n        /* \"#utility.yul\":30352:30718   */\n      swap2\n      swap1\n      pop\n      jump\t// out\n        /* \"#utility.yul\":30724:31143   */\n    tag_122:\n        /* \"#utility.yul\":30890:30894   */\n      0x00\n        /* \"#utility.yul\":30928:30930   */\n      0x20\n        /* \"#utility.yul\":30917:30926   */\n      dup3\n        /* \"#utility.yul\":30913:30931   */\n      add\n        /* \"#utility.yul\":30905:30931   */\n      swap1\n      pop\n        /* \"#utility.yul\":30977:30986   */\n      dup2\n        /* \"#utility.yul\":30971:30975   */\n      dup2\n        /* \"#utility.yul\":30967:30987   */\n      sub\n        /* \"#utility.yul\":30963:30964   */\n      0x00\n        /* \"#utility.yul\":30952:30961   */\n      dup4\n        /* \"#utility.yul\":30948:30965   */\n      add\n        /* \"#utility.yul\":30941:30988   */\n      mstore\n        /* \"#utility.yul\":31005:31136   */\n      tag_560\n        /* \"#utility.yul\":31131:31135   */\n      dup2\n        /* \"#utility.yul\":31005:31136   */\n      tag_293\n      jump\t// in\n    tag_560:\n        /* \"#utility.yul\":30997:31136   */\n      swap1\n      pop\n        /* \"#utility.yul\":30724:31143   */\n      swap2\n      swap1\n      pop\n      jump\t// out\n        /* \"#utility.yul\":31149:31379   */\n    tag_294:\n        /* \"#utility.yul\":31289:31323   */\n      0x456c656374696f6e20436f6d6d697373696f6e206e6f7420616c6c6f77656420\n        /* \"#utility.yul\":31285:31286   */\n      0x00\n        /* \"#utility.yul\":31277:31283   */\n      dup3\n        /* \"#utility.yul\":31273:31287   */\n      add\n        /* \"#utility.yul\":31266:31324   */\n      mstore\n        /* \"#utility.yul\":31358:31371   */\n      0x746f207265676973746572000000000000000000000000000000000000000000\n        /* \"#utility.yul\":31353:31355   */\n      0x20\n        /* \"#utility.yul\":31345:31351   */\n      dup3\n        /* \"#utility.yul\":31341:31356   */\n      add\n        /* \"#utility.yul\":31334:31372   */\n      mstore\n        /* \"#utility.yul\":31149:31379   */\n      pop\n      jump\t// out\n        /* \"#utility.yul\":31385:31751   */\n    tag_295:\n        /* \"#utility.yul\":31527:31530   */\n      0x00\n        /* \"#utility.yul\":31548:31615   */\n      tag_563\n        /* \"#utility.yul\":31612:31614   */\n      0x2b\n        /* \"#utility.yul\":31607:31610   */\n      dup4\n        /* \"#utility.yul\":31548:31615   */\n      tag_256\n      jump\t// in\n    tag_563:\n        /* \"#utility.yul\":31541:31615   */\n      swap2\n      pop\n        /* \"#utility.yul\":31624:31717   */\n      tag_564\n        /* \"#utility.yul\":31713:31716   */\n      dup3\n        /* \"#utility.yul\":31624:31717   */\n      tag_294\n      jump\t// in\n    tag_564:\n        /* \"#utility.yul\":31742:31744   */\n      0x40\n        /* \"#utility.yul\":31737:31740   */\n      dup3\n        /* \"#utility.yul\":31733:31745   */\n      add\n        /* \"#utility.yul\":31726:31745   */\n      swap1\n      pop\n        /* \"#utility.yul\":31385:31751   */\n      swap2\n      swap1\n      pop\n      jump\t// out\n        /* \"#utility.yul\":31757:32176   */\n    tag_125:\n        /* \"#utility.yul\":31923:31927   */\n      0x00\n        /* \"#utility.yul\":31961:31963   */\n      0x20\n        /* \"#utility.yul\":31950:31959   */\n      dup3\n        /* \"#utility.yul\":31946:31964   */\n      add\n        /* \"#utility.yul\":31938:31964   */\n      swap1\n      pop\n        /* \"#utility.yul\":32010:32019   */\n      dup2\n        /* \"#utility.yul\":32004:32008   */\n      dup2\n        /* \"#utility.yul\":32000:32020   */\n      sub\n        /* \"#utility.yul\":31996:31997   */\n      0x00\n        /* \"#utility.yul\":31985:31994   */\n      dup4\n        /* \"#utility.yul\":31981:31998   */\n      add\n        /* \"#utility.yul\":31974:32021   */\n      mstore\n        /* \"#utility.yul\":32038:32169   */\n      tag_566\n        /* \"#utility.yul\":32164:32168   */\n      dup2\n        /* \"#utility.yul\":32038:32169   */\n      tag_295\n      jump\t// in\n    tag_566:\n        /* \"#utility.yul\":32030:32169   */\n      swap1\n      pop\n        /* \"#utility.yul\":31757:32176   */\n      swap2\n      swap1\n      pop\n      jump\t// out\n        /* \"#utility.yul\":32182:32413   */\n    tag_296:\n        /* \"#utility.yul\":32322:32356   */\n      0x5f656e6454696d654475726174696f6e206d7573742062652067726561746572\n        /* \"#utility.yul\":32318:32319   */\n      0x00\n        /* \"#utility.yul\":32310:32316   */\n      dup3\n        /* \"#utility.yul\":32306:32320   */\n      add\n        /* \"#utility.yul\":32299:32357   */\n      mstore\n        /* \"#utility.yul\":32391:32405   */\n      0x207468616e203120486f75720000000000000000000000000000000000000000\n        /* \"#utility.yul\":32386:32388   */\n      0x20\n        /* \"#utility.yul\":32378:32384   */\n      dup3\n        /* \"#utility.yul\":32374:32389   */\n      add\n        /* \"#utility.yul\":32367:32406   */\n      mstore\n        /* \"#utility.yul\":32182:32413   */\n      pop\n      jump\t// out\n        /* \"#utility.yul\":32419:32785   */\n    tag_297:\n        /* \"#utility.yul\":32561:32564   */\n      0x00\n        /* \"#utility.yul\":32582:32649   */\n      tag_569\n        /* \"#utility.yul\":32646:32648   */\n      0x2c\n        /* \"#utility.yul\":32641:32644   */\n      dup4\n        /* \"#utility.yul\":32582:32649   */\n      tag_256\n      jump\t// in\n    tag_569:\n        /* \"#utility.yul\":32575:32649   */\n      swap2\n      pop\n        /* \"#utility.yul\":32658:32751   */\n      tag_570\n        /* \"#utility.yul\":32747:32750   */\n      dup3\n        /* \"#utility.yul\":32658:32751   */\n      tag_296\n      jump\t// in\n    tag_570:\n        /* \"#utility.yul\":32776:32778   */\n      0x40\n        /* \"#utility.yul\":32771:32774   */\n      dup3\n        /* \"#utility.yul\":32767:32779   */\n      add\n        /* \"#utility.yul\":32760:32779   */\n      swap1\n      pop\n        /* \"#utility.yul\":32419:32785   */\n      swap2\n      swap1\n      pop\n      jump\t// out\n        /* \"#utility.yul\":32791:33210   */\n    tag_139:\n        /* \"#utility.yul\":32957:32961   */\n      0x00\n        /* \"#utility.yul\":32995:32997   */\n      0x20\n        /* \"#utility.yul\":32984:32993   */\n      dup3\n        /* \"#utility.yul\":32980:32998   */\n      add\n        /* \"#utility.yul\":32972:32998   */\n      swap1\n      pop\n        /* \"#utility.yul\":33044:33053   */\n      dup2\n        /* \"#utility.yul\":33038:33042   */\n      dup2\n        /* \"#utility.yul\":33034:33054   */\n      sub\n        /* \"#utility.yul\":33030:33031   */\n      0x00\n        /* \"#utility.yul\":33019:33028   */\n      dup4\n        /* \"#utility.yul\":33015:33032   */\n      add\n        /* \"#utility.yul\":33008:33055   */\n      mstore\n        /* \"#utility.yul\":33072:33203   */\n      tag_572\n        /* \"#utility.yul\":33198:33202   */\n      dup2\n        /* \"#utility.yul\":33072:33203   */\n      tag_297\n      jump\t// in\n    tag_572:\n        /* \"#utility.yul\":33064:33203   */\n      swap1\n      pop\n        /* \"#utility.yul\":32791:33210   */\n      swap2\n      swap1\n      pop\n      jump\t// out\n        /* \"#utility.yul\":33216:33407   */\n    tag_141:\n        /* \"#utility.yul\":33256:33259   */\n      0x00\n        /* \"#utility.yul\":33275:33295   */\n      tag_574\n        /* \"#utility.yul\":33293:33294   */\n      dup3\n        /* \"#utility.yul\":33275:33295   */\n      tag_215\n      jump\t// in\n    tag_574:\n        /* \"#utility.yul\":33270:33295   */\n      swap2\n      pop\n        /* \"#utility.yul\":33309:33329   */\n      tag_575\n        /* \"#utility.yul\":33327:33328   */\n      dup4\n        /* \"#utility.yul\":33309:33329   */\n      tag_215\n      jump\t// in\n    tag_575:\n        /* \"#utility.yul\":33304:33329   */\n      swap3\n      pop\n        /* \"#utility.yul\":33352:33353   */\n      dup3\n        /* \"#utility.yul\":33349:33350   */\n      dup3\n        /* \"#utility.yul\":33345:33354   */\n      add\n        /* \"#utility.yul\":33338:33354   */\n      swap1\n      pop\n        /* \"#utility.yul\":33373:33376   */\n      dup1\n        /* \"#utility.yul\":33370:33371   */\n      dup3\n        /* \"#utility.yul\":33367:33377   */\n      gt\n        /* \"#utility.yul\":33364:33400   */\n      iszero\n      tag_576\n      jumpi\n        /* \"#utility.yul\":33380:33398   */\n      tag_577\n      tag_267\n      jump\t// in\n    tag_577:\n        /* \"#utility.yul\":33364:33400   */\n    tag_576:\n        /* \"#utility.yul\":33216:33407   */\n      swap3\n      swap2\n      pop\n      pop\n      jump\t// out\n        /* \"#utility.yul\":33413:33607   */\n    tag_145:\n        /* \"#utility.yul\":33453:33457   */\n      0x00\n        /* \"#utility.yul\":33473:33493   */\n      tag_579\n        /* \"#utility.yul\":33491:33492   */\n      dup3\n        /* \"#utility.yul\":33473:33493   */\n      tag_215\n      jump\t// in\n    tag_579:\n        /* \"#utility.yul\":33468:33493   */\n      swap2\n      pop\n        /* \"#utility.yul\":33507:33527   */\n      tag_580\n        /* \"#utility.yul\":33525:33526   */\n      dup4\n        /* \"#utility.yul\":33507:33527   */\n      tag_215\n      jump\t// in\n    tag_580:\n        /* \"#utility.yul\":33502:33527   */\n      swap3\n      pop\n        /* \"#utility.yul\":33551:33552   */\n      dup3\n        /* \"#utility.yul\":33548:33549   */\n      dup3\n        /* \"#utility.yul\":33544:33553   */\n      sub\n        /* \"#utility.yul\":33536:33553   */\n      swap1\n      pop\n        /* \"#utility.yul\":33575:33576   */\n      dup2\n        /* \"#utility.yul\":33569:33573   */\n      dup2\n        /* \"#utility.yul\":33566:33577   */\n      gt\n        /* \"#utility.yul\":33563:33600   */\n      iszero\n      tag_581\n      jumpi\n        /* \"#utility.yul\":33580:33598   */\n      tag_582\n      tag_267\n      jump\t// in\n    tag_582:\n        /* \"#utility.yul\":33563:33600   */\n    tag_581:\n        /* \"#utility.yul\":33413:33607   */\n      swap3\n      swap2\n      pop\n      pop\n      jump\t// out\n        /* \"#utility.yul\":33613:33793   */\n    tag_169:\n        /* \"#utility.yul\":33661:33738   */\n      0x4e487b7100000000000000000000000000000000000000000000000000000000\n        /* \"#utility.yul\":33658:33659   */\n      0x00\n        /* \"#utility.yul\":33651:33739   */\n      mstore\n        /* \"#utility.yul\":33758:33762   */\n      0x32\n        /* \"#utility.yul\":33755:33756   */\n      0x04\n        /* \"#utility.yul\":33748:33763   */\n      mstore\n        /* \"#utility.yul\":33782:33786   */\n      0x24\n        /* \"#utility.yul\":33779:33780   */\n      0x00\n        /* \"#utility.yul\":33772:33787   */\n      revert\n\n    auxdata: 0xa2646970667358221220d141395ae6e2f9105333111a4fbd6d31087df4ac02caa42dbfd546f23a4d606164736f6c634300081e0033\n}\n",
				"bytecode": {
					"linkReferences": {},
					"object": "6080604052600160025560016003553480156018575f5ffd5b50335f5f6101000a81548173ffffffffffffffffffffffffffffffffffffffff021916908373ffffffffffffffffffffffffffffffffffffffff160217905550612374806100655f395ff3fe608060405234801561000f575f5ffd5b50600436106100a7575f3560e01c8063982c777d1161006f578063982c777d14610115578063a15a36c714610131578063aab46b7f1461014d578063b28d92ae1461016b578063dfbf53ae14610189578063fdbc4006146101a7576100a7565b80632c0a3f89146100ab5780632d7ecc88146100c7578063581c281c146100d15780636ce2ccc0146100ef57806381ba732f146100f9575b5f5ffd5b6100c560048036038101906100c09190611398565b6101c5565b005b6100cf6103f9565b005b6100d96104a3565b6040516100e69190611449565b60405180910390f35b6100f76104ed565b005b610113600480360381019061010e91906114e6565b610647565b005b61012f600480360381019061012a9190611557565b610849565b005b61014b60048036038101906101469190611398565b610b7e565b005b610155610c7e565b6040516101629190611639565b60405180910390f35b610173610ca2565b6040516101809190611867565b60405180910390f35b610191610eb3565b60405161019e9190611639565b60405180910390f35b6101af610ed8565b6040516101bc91906119e2565b60405180910390f35b60055442111580156101e857505f151560065f9054906101000a900460ff161515145b610227576040517f08c379a000000000000000000000000000000000000000000000000000000000815260040161021e90611a5c565b60405180910390fd5b60045442101561026c576040517f08c379a000000000000000000000000000000000000000000000000000000000815260040161026390611ac4565b60405180910390fd5b5f60075f8481526020019081526020015f2060040154146102c2576040517f08c379a00000000000000000000000000000000000000000000000000000000081526004016102b990611b2c565b60405180910390fd5b3373ffffffffffffffffffffffffffffffffffffffff1660075f8481526020019081526020015f206005015f9054906101000a900473ffffffffffffffffffffffffffffffffffffffff1673ffffffffffffffffffffffffffffffffffffffff1614610363576040517f08c379a000000000000000000000000000000000000000000000000000000000815260040161035a90611b94565b60405180910390fd5b600181101580156103745750600381105b6103b3576040517f08c379a00000000000000000000000000000000000000000000000000000000081526004016103aa90611bfc565b60405180910390fd5b8060075f8481526020019081526020015f206004018190555060085f8281526020019081526020015f206006015f8154809291906103f090611c47565b91905055505050565b5f5f9054906101000a900473ffffffffffffffffffffffffffffffffffffffff1673ffffffffffffffffffffffffffffffffffffffff163373ffffffffffffffffffffffffffffffffffffffff1614610487576040517f08c379a000000000000000000000000000000000000000000000000000000000815260040161047e90611cd8565b60405180910390fd5b600160065f6101000a81548160ff021916908315150217905550565b5f5f600454036104b5575f90506104ea565b426005541180156104d757505f151560065f9054906101000a900460ff161515145b156104e557600190506104ea565b600290505b90565b5f5f9054906101000a900473ffffffffffffffffffffffffffffffffffffffff1673ffffffffffffffffffffffffffffffffffffffff163373ffffffffffffffffffffffffffffffffffffffff161461057b576040517f08c379a000000000000000000000000000000000000000000000000000000000815260040161057290611cd8565b60405180910390fd5b5f5f90505f600190505b600354811015610643578160085f8381526020019081526020015f206006015411156106365760085f8281526020019081526020015f2060060154915060085f8281526020019081526020015f206005015f9054906101000a900473ffffffffffffffffffffffffffffffffffffffff1660015f6101000a81548173ffffffffffffffffffffffffffffffffffffffff021916908373ffffffffffffffffffffffffffffffffffffffff1602179055505b8080600101915050610585565b5050565b81601281101561068c576040517f08c379a000000000000000000000000000000000000000000000000000000000815260040161068390611d40565b60405180910390fd5b61069533611174565b6106d4576040517f08c379a00000000000000000000000000000000000000000000000000000000081526004016106cb90611da8565b60405180910390fd5b6040518060c0016040528086868080601f0160208091040260200160405190810160405280939291908181526020018383808284375f81840152601f19601f8201169050808301925050505050505081526020018481526020016002548152602001836003811115610749576107486113d6565b5b81526020015f81526020013373ffffffffffffffffffffffffffffffffffffffff1681525060075f60025481526020019081526020015f205f820151815f0190816107949190611ff0565b5060208201518160010155604082015181600201556060820151816003015f6101000a81548160ff021916908360038111156107d3576107d26113d6565b5b02179055506080820151816004015560a0820151816005015f6101000a81548173ffffffffffffffffffffffffffffffffffffffff021916908373ffffffffffffffffffffffffffffffffffffffff16021790555090505060025f81548092919061083d90611c47565b91905055505050505050565b81601281101561088e576040517f08c379a000000000000000000000000000000000000000000000000000000000815260040161088590611d40565b60405180910390fd5b6108973361120c565b6108d6576040517f08c379a00000000000000000000000000000000000000000000000000000000081526004016108cd90612109565b60405180910390fd5b600380541061091a576040517f08c379a000000000000000000000000000000000000000000000000000000000815260040161091190612171565b60405180910390fd5b5f5f9054906101000a900473ffffffffffffffffffffffffffffffffffffffff1673ffffffffffffffffffffffffffffffffffffffff163373ffffffffffffffffffffffffffffffffffffffff16036109a8576040517f08c379a000000000000000000000000000000000000000000000000000000000815260040161099f906121ff565b60405180910390fd5b6040518060e0016040528088888080601f0160208091040260200160405190810160405280939291908181526020018383808284375f81840152601f19601f82011690508083019250505050505050815260200186868080601f0160208091040260200160405190810160405280939291908181526020018383808284375f81840152601f19601f820116905080830192505050505050508152602001848152602001836003811115610a5e57610a5d6113d6565b5b815260200160035481526020013373ffffffffffffffffffffffffffffffffffffffff1681526020015f81525060085f60035481526020019081526020015f205f820151815f019081610ab19190611ff0565b506020820151816001019081610ac79190611ff0565b50604082015181600201556060820151816003015f6101000a81548160ff02191690836003811115610afc57610afb6113d6565b5b02179055506080820151816004015560a0820151816005015f6101000a81548173ffffffffffffffffffffffffffffffffffffffff021916908373ffffffffffffffffffffffffffffffffffffffff16021790555060c0820151816006015590505060035f815480929190610b7090611c47565b919050555050505050505050565b5f5f9054906101000a900473ffffffffffffffffffffffffffffffffffffffff1673ffffffffffffffffffffffffffffffffffffffff163373ffffffffffffffffffffffffffffffffffffffff1614610c0c576040517f08c379a0000000000000000000000000000000000000000000000000000000008152600401610c0390611cd8565b60405180910390fd5b610e108111610c50576040517f08c379a0000000000000000000000000000000000000000000000000000000008152600401610c479061228d565b60405180910390fd5b81636691513e610c6091906122ab565b60048190555080600454610c7491906122ab565b6005819055505050565b5f5f9054906101000a900473ffffffffffffffffffffffffffffffffffffffff1681565b60605f6001600254610cb491906122de565b90505f8167ffffffffffffffff811115610cd157610cd0611dc6565b5b604051908082528060200260200182016040528015610d0a57816020015b610cf76112a4565b815260200190600190039081610cef5790505b5090505f5f90505b8151811015610eaa5760075f600183610d2b91906122ab565b81526020019081526020015f206040518060c00160405290815f82018054610d5290611e20565b80601f0160208091040260200160405190810160405280929190818152602001828054610d7e90611e20565b8015610dc95780601f10610da057610100808354040283529160200191610dc9565b820191905f5260205f20905b815481529060010190602001808311610dac57829003601f168201915b505050505081526020016001820154815260200160028201548152602001600382015f9054906101000a900460ff166003811115610e0a57610e096113d6565b5b6003811115610e1c57610e1b6113d6565b5b815260200160048201548152602001600582015f9054906101000a900473ffffffffffffffffffffffffffffffffffffffff1673ffffffffffffffffffffffffffffffffffffffff1673ffffffffffffffffffffffffffffffffffffffff1681525050828281518110610e9257610e91612311565b5b60200260200101819052508080600101915050610d12565b50809250505090565b60015f9054906101000a900473ffffffffffffffffffffffffffffffffffffffff1681565b60605f6001600354610eea91906122de565b67ffffffffffffffff811115610f0357610f02611dc6565b5b604051908082528060200260200182016040528015610f3c57816020015b610f296112fd565b815260200190600190039081610f215790505b5090505f5f90505b815181101561116c5760085f600183610f5d91906122ab565b81526020019081526020015f206040518060e00160405290815f82018054610f8490611e20565b80601f0160208091040260200160405190810160405280929190818152602001828054610fb090611e20565b8015610ffb5780601f10610fd257610100808354040283529160200191610ffb565b820191905f5260205f20905b815481529060010190602001808311610fde57829003601f168201915b5050505050815260200160018201805461101490611e20565b80601f016020809104026020016040519081016040528092919081815260200182805461104090611e20565b801561108b5780601f106110625761010080835404028352916020019161108b565b820191905f5260205f20905b81548152906001019060200180831161106e57829003601f168201915b5050505050815260200160028201548152602001600382015f9054906101000a900460ff1660038111156110c2576110c16113d6565b5b60038111156110d4576110d36113d6565b5b815260200160048201548152602001600582015f9054906101000a900473ffffffffffffffffffffffffffffffffffffffff1673ffffffffffffffffffffffffffffffffffffffff1673ffffffffffffffffffffffffffffffffffffffff16815260200160068201548152505082828151811061115457611153612311565b5b60200260200101819052508080600101915050610f44565b508091505090565b5f5f600190505b600254811015611201578273ffffffffffffffffffffffffffffffffffffffff1660075f8381526020019081526020015f206005015f9054906101000a900473ffffffffffffffffffffffffffffffffffffffff1673ffffffffffffffffffffffffffffffffffffffff16036111f4575f915050611207565b808060010191505061117b565b50600190505b919050565b5f5f600190505b600354811015611299578273ffffffffffffffffffffffffffffffffffffffff1660085f8381526020019081526020015f206005015f9054906101000a900473ffffffffffffffffffffffffffffffffffffffff1673ffffffffffffffffffffffffffffffffffffffff160361128c575f91505061129f565b8080600101915050611213565b50600190505b919050565b6040518060c00160405280606081526020015f81526020015f81526020015f60038111156112d5576112d46113d6565b5b81526020015f81526020015f73ffffffffffffffffffffffffffffffffffffffff1681525090565b6040518060e0016040528060608152602001606081526020015f81526020015f600381111561132f5761132e6113d6565b5b81526020015f81526020015f73ffffffffffffffffffffffffffffffffffffffff1681526020015f81525090565b5f5ffd5b5f5ffd5b5f819050919050565b61137781611365565b8114611381575f5ffd5b50565b5f813590506113928161136e565b92915050565b5f5f604083850312156113ae576113ad61135d565b5b5f6113bb85828601611384565b92505060206113cc85828601611384565b9150509250929050565b7f4e487b71000000000000000000000000000000000000000000000000000000005f52602160045260245ffd5b60038110611414576114136113d6565b5b50565b5f81905061142482611403565b919050565b5f61143382611417565b9050919050565b61144381611429565b82525050565b5f60208201905061145c5f83018461143a565b92915050565b5f5ffd5b5f5ffd5b5f5ffd5b5f5f83601f84011261148357611482611462565b5b8235905067ffffffffffffffff8111156114a05761149f611466565b5b6020830191508360018202830111156114bc576114bb61146a565b5b9250929050565b600481106114cf575f5ffd5b50565b5f813590506114e0816114c3565b92915050565b5f5f5f5f606085870312156114fe576114fd61135d565b5b5f85013567ffffffffffffffff81111561151b5761151a611361565b5b6115278782880161146e565b9450945050602061153a87828801611384565b925050604061154b878288016114d2565b91505092959194509250565b5f5f5f5f5f5f608087890312156115715761157061135d565b5b5f87013567ffffffffffffffff81111561158e5761158d611361565b5b61159a89828a0161146e565b9650965050602087013567ffffffffffffffff8111156115bd576115bc611361565b5b6115c989828a0161146e565b945094505060406115dc89828a01611384565b92505060606115ed89828a016114d2565b9150509295509295509295565b5f73ffffffffffffffffffffffffffffffffffffffff82169050919050565b5f611623826115fa565b9050919050565b61163381611619565b82525050565b5f60208201905061164c5f83018461162a565b92915050565b5f81519050919050565b5f82825260208201905092915050565b5f819050602082019050919050565b5f81519050919050565b5f82825260208201905092915050565b8281835e5f83830152505050565b5f601f19601f8301169050919050565b5f6116bd8261167b565b6116c78185611685565b93506116d7818560208601611695565b6116e0816116a3565b840191505092915050565b6116f481611365565b82525050565b6004811061170b5761170a6113d6565b5b50565b5f81905061171b826116fa565b919050565b5f61172a8261170e565b9050919050565b61173a81611720565b82525050565b61174981611619565b82525050565b5f60c083015f8301518482035f86015261176982826116b3565b915050602083015161177e60208601826116eb565b50604083015161179160408601826116eb565b5060608301516117a46060860182611731565b5060808301516117b760808601826116eb565b5060a08301516117ca60a0860182611740565b508091505092915050565b5f6117e0838361174f565b905092915050565b5f602082019050919050565b5f6117fe82611652565b611808818561165c565b93508360208202850161181a8561166c565b805f5b85811015611855578484038952815161183685826117d5565b9450611841836117e8565b925060208a0199505060018101905061181d565b50829750879550505050505092915050565b5f6020820190508181035f83015261187f81846117f4565b905092915050565b5f81519050919050565b5f82825260208201905092915050565b5f819050602082019050919050565b5f60e083015f8301518482035f8601526118ca82826116b3565b915050602083015184820360208601526118e482826116b3565b91505060408301516118f960408601826116eb565b50606083015161190c6060860182611731565b50608083015161191f60808601826116eb565b5060a083015161193260a0860182611740565b5060c083015161194560c08601826116eb565b508091505092915050565b5f61195b83836118b0565b905092915050565b5f602082019050919050565b5f61197982611887565b6119838185611891565b935083602082028501611995856118a1565b805f5b858110156119d057848403895281516119b18582611950565b94506119bc83611963565b925060208a01995050600181019050611998565b50829750879550505050505092915050565b5f6020820190508181035f8301526119fa818461196f565b905092915050565b5f82825260208201905092915050565b7f566f74696e672074696d65206973204f766572000000000000000000000000005f82015250565b5f611a46601383611a02565b9150611a5182611a12565b602082019050919050565b5f6020820190508181035f830152611a7381611a3a565b9050919050565b7f566f74696e6720686173206e6f742073746172746564207965740000000000005f82015250565b5f611aae601a83611a02565b9150611ab982611a7a565b602082019050919050565b5f6020820190508181035f830152611adb81611aa2565b9050919050565b7f596f75206861766520616c726561647920766f746564200000000000000000005f82015250565b5f611b16601783611a02565b9150611b2182611ae2565b602082019050919050565b5f6020820190508181035f830152611b4381611b0a565b9050919050565b7f596f7520617265206e6f7420617574686f72697a6564000000000000000000005f82015250565b5f611b7e601683611a02565b9150611b8982611b4a565b602082019050919050565b5f6020820190508181035f830152611bab81611b72565b9050919050565b7f43616d646964617465204964206973206e6f7420436f727265637420000000005f82015250565b5f611be6601c83611a02565b9150611bf182611bb2565b602082019050919050565b5f6020820190508181035f830152611c1381611bda565b9050919050565b7f4e487b71000000000000000000000000000000000000000000000000000000005f52601160045260245ffd5b5f611c5182611365565b91507fffffffffffffffffffffffffffffffffffffffffffffffffffffffffffffffff8203611c8357611c82611c1a565b5b600182019050919050565b7f4e6f7420417574687572697a65640000000000000000000000000000000000005f82015250565b5f611cc2600e83611a02565b9150611ccd82611c8e565b602082019050919050565b5f6020820190508181035f830152611cef81611cb6565b9050919050565b7f6e6f7420656c696769626c6520666f7220566f74696e670000000000000000005f82015250565b5f611d2a601783611a02565b9150611d3582611cf6565b602082019050919050565b5f6020820190508181035f830152611d5781611d1e565b9050919050565b7f596f752061726520616c726561647920526567697374657265640000000000005f82015250565b5f611d92601a83611a02565b9150611d9d82611d5e565b602082019050919050565b5f6020820190508181035f830152611dbf81611d86565b9050919050565b7f4e487b71000000000000000000000000000000000000000000000000000000005f52604160045260245ffd5b7f4e487b71000000000000000000000000000000000000000000000000000000005f52602260045260245ffd5b5f6002820490506001821680611e3757607f821691505b602082108103611e4a57611e49611df3565b5b50919050565b5f819050815f5260205f209050919050565b5f6020601f8301049050919050565b5f82821b905092915050565b5f60088302611eac7fffffffffffffffffffffffffffffffffffffffffffffffffffffffffffffffff82611e71565b611eb68683611e71565b95508019841693508086168417925050509392505050565b5f819050919050565b5f611ef1611eec611ee784611365565b611ece565b611365565b9050919050565b5f819050919050565b611f0a83611ed7565b611f1e611f1682611ef8565b848454611e7d565b825550505050565b5f5f905090565b611f35611f26565b611f40818484611f01565b505050565b5b81811015611f6357611f585f82611f2d565b600181019050611f46565b5050565b601f821115611fa857611f7981611e50565b611f8284611e62565b81016020851015611f91578190505b611fa5611f9d85611e62565b830182611f45565b50505b505050565b5f82821c905092915050565b5f611fc85f1984600802611fad565b1980831691505092915050565b5f611fe08383611fb9565b9150826002028217905092915050565b611ff98261167b565b67ffffffffffffffff81111561201257612011611dc6565b5b61201c8254611e20565b612027828285611f67565b5f60209050601f831160018114612058575f8415612046578287015190505b6120508582611fd5565b8655506120b7565b601f19841661206686611e50565b5f5b8281101561208d57848901518255600182019150602085019450602081019050612068565b868310156120aa57848901516120a6601f891682611fb9565b8355505b6001600288020188555050505b505050505050565b7f596f752061726520616c726561647920726567697374657265640000000000005f82015250565b5f6120f3601a83611a02565b91506120fe826120bf565b602082019050919050565b5f6020820190508181035f830152612120816120e7565b9050919050565b7f43616e64696461746520526567697374726174696f6e2046756c6c00000000005f82015250565b5f61215b601b83611a02565b915061216682612127565b602082019050919050565b5f6020820190508181035f8301526121888161214f565b9050919050565b7f456c656374696f6e20436f6d6d697373696f6e206e6f7420616c6c6f776564205f8201527f746f207265676973746572000000000000000000000000000000000000000000602082015250565b5f6121e9602b83611a02565b91506121f48261218f565b604082019050919050565b5f6020820190508181035f830152612216816121dd565b9050919050565b7f5f656e6454696d654475726174696f6e206d75737420626520677265617465725f8201527f207468616e203120486f75720000000000000000000000000000000000000000602082015250565b5f612277602c83611a02565b91506122828261221d565b604082019050919050565b5f6020820190508181035f8301526122a48161226b565b9050919050565b5f6122b582611365565b91506122c083611365565b92508282019050808211156122d8576122d7611c1a565b5b92915050565b5f6122e882611365565b91506122f383611365565b925082820390508181111561230b5761230a611c1a565b5b92915050565b7f4e487b71000000000000000000000000000000000000000000000000000000005f52603260045260245ffdfea2646970667358221220d141395ae6e2f9105333111a4fbd6d31087df4ac02caa42dbfd546f23a4d606164736f6c634300081e0033",
					"opcodes": "PUSH1 0x80 PUSH1 0x40 MSTORE PUSH1 0x1 PUSH1 0x2 SSTORE PUSH1 0x1 PUSH1 0x3 SSTORE CALLVALUE DUP1 ISZERO PUSH1 0x18 JUMPI PUSH0 PUSH0 REVERT JUMPDEST POP CALLER PUSH0 PUSH0 PUSH2 0x100 EXP DUP2 SLOAD DUP2 PUSH20 0xFFFFFFFFFFFFFFFFFFFFFFFFFFFFFFFFFFFFFFFF MUL NOT AND SWAP1 DUP4 PUSH20 0xFFFFFFFFFFFFFFFFFFFFFFFFFFFFFFFFFFFFFFFF AND MUL OR SWAP1 SSTORE POP PUSH2 0x2374 DUP1 PUSH2 0x65 PUSH0 CODECOPY PUSH0 RETURN INVALID PUSH1 0x80 PUSH1 0x40 MSTORE CALLVALUE DUP1 ISZERO PUSH2 0xF JUMPI PUSH0 PUSH0 REVERT JUMPDEST POP PUSH1 0x4 CALLDATASIZE LT PUSH2 0xA7 JUMPI PUSH0 CALLDATALOAD PUSH1 0xE0 SHR DUP1 PUSH4 0x982C777D GT PUSH2 0x6F JUMPI DUP1 PUSH4 0x982C777D EQ PUSH2 0x115 JUMPI DUP1 PUSH4 0xA15A36C7 EQ PUSH2 0x131 JUMPI DUP1 PUSH4 0xAAB46B7F EQ PUSH2 0x14D JUMPI DUP1 PUSH4 0xB28D92AE EQ PUSH2 0x16B JUMPI DUP1 PUSH4 0xDFBF53AE EQ PUSH2 0x189 JUMPI DUP1 PUSH4 0xFDBC4006 EQ PUSH2 0x1A7 JUMPI PUSH2 0xA7 JUMP JUMPDEST DUP1 PUSH4 0x2C0A3F89 EQ PUSH2 0xAB JUMPI DUP1 PUSH4 0x2D7ECC88 EQ PUSH2 0xC7 JUMPI DUP1 PUSH4 0x581C281C EQ PUSH2 0xD1 JUMPI DUP1 PUSH4 0x6CE2CCC0 EQ PUSH2 0xEF JUMPI DUP1 PUSH4 0x81BA732F EQ PUSH2 0xF9 JUMPI JUMPDEST PUSH0 PUSH0 REVERT JUMPDEST PUSH2 0xC5 PUSH1 0x4 DUP1 CALLDATASIZE SUB DUP2 ADD SWAP1 PUSH2 0xC0 SWAP2 SWAP1 PUSH2 0x1398 JUMP JUMPDEST PUSH2 0x1C5 JUMP JUMPDEST STOP JUMPDEST PUSH2 0xCF PUSH2 0x3F9 JUMP JUMPDEST STOP JUMPDEST PUSH2 0xD9 PUSH2 0x4A3 JUMP JUMPDEST PUSH1 0x40 MLOAD PUSH2 0xE6 SWAP2 SWAP1 PUSH2 0x1449 JUMP JUMPDEST PUSH1 0x40 MLOAD DUP1 SWAP2 SUB SWAP1 RETURN JUMPDEST PUSH2 0xF7 PUSH2 0x4ED JUMP JUMPDEST STOP JUMPDEST PUSH2 0x113 PUSH1 0x4 DUP1 CALLDATASIZE SUB DUP2 ADD SWAP1 PUSH2 0x10E SWAP2 SWAP1 PUSH2 0x14E6 JUMP JUMPDEST PUSH2 0x647 JUMP JUMPDEST STOP JUMPDEST PUSH2 0x12F PUSH1 0x4 DUP1 CALLDATASIZE SUB DUP2 ADD SWAP1 PUSH2 0x12A SWAP2 SWAP1 PUSH2 0x1557 JUMP JUMPDEST PUSH2 0x849 JUMP JUMPDEST STOP JUMPDEST PUSH2 0x14B PUSH1 0x4 DUP1 CALLDATASIZE SUB DUP2 ADD SWAP1 PUSH2 0x146 SWAP2 SWAP1 PUSH2 0x1398 JUMP JUMPDEST PUSH2 0xB7E JUMP JUMPDEST STOP JUMPDEST PUSH2 0x155 PUSH2 0xC7E JUMP JUMPDEST PUSH1 0x40 MLOAD PUSH2 0x162 SWAP2 SWAP1 PUSH2 0x1639 JUMP JUMPDEST PUSH1 0x40 MLOAD DUP1 SWAP2 SUB SWAP1 RETURN JUMPDEST PUSH2 0x173 PUSH2 0xCA2 JUMP JUMPDEST PUSH1 0x40 MLOAD PUSH2 0x180 SWAP2 SWAP1 PUSH2 0x1867 JUMP JUMPDEST PUSH1 0x40 MLOAD DUP1 SWAP2 SUB SWAP1 RETURN JUMPDEST PUSH2 0x191 PUSH2 0xEB3 JUMP JUMPDEST PUSH1 0x40 MLOAD PUSH2 0x19E SWAP2 SWAP1 PUSH2 0x1639 JUMP JUMPDEST PUSH1 0x40 MLOAD DUP1 SWAP2 SUB SWAP1 RETURN JUMPDEST PUSH2 0x1AF PUSH2 0xED8 JUMP JUMPDEST PUSH1 0x40 MLOAD PUSH2 0x1BC SWAP2 SWAP1 PUSH2 0x19E2 JUMP JUMPDEST PUSH1 0x40 MLOAD DUP1 SWAP2 SUB SWAP1 RETURN JUMPDEST PUSH1 0x5 SLOAD TIMESTAMP GT ISZERO DUP1 ISZERO PUSH2 0x1E8 JUMPI POP PUSH0 ISZERO ISZERO PUSH1 0x6 PUSH0 SWAP1 SLOAD SWAP1 PUSH2 0x100 EXP SWAP1 DIV PUSH1 0xFF AND ISZERO ISZERO EQ JUMPDEST PUSH2 0x227 JUMPI PUSH1 0x40 MLOAD PUSH32 0x8C379A000000000000000000000000000000000000000000000000000000000 DUP2 MSTORE PUSH1 0x4 ADD PUSH2 0x21E SWAP1 PUSH2 0x1A5C JUMP JUMPDEST PUSH1 0x40 MLOAD DUP1 SWAP2 SUB SWAP1 REVERT JUMPDEST PUSH1 0x4 SLOAD TIMESTAMP LT ISZERO PUSH2 0x26C JUMPI PUSH1 0x40 MLOAD PUSH32 0x8C379A000000000000000000000000000000000000000000000000000000000 DUP2 MSTORE PUSH1 0x4 ADD PUSH2 0x263 SWAP1 PUSH2 0x1AC4 JUMP JUMPDEST PUSH1 0x40 MLOAD DUP1 SWAP2 SUB SWAP1 REVERT JUMPDEST PUSH0 PUSH1 0x7 PUSH0 DUP5 DUP2 MSTORE PUSH1 0x20 ADD SWAP1 DUP2 MSTORE PUSH1 0x20 ADD PUSH0 KECCAK256 PUSH1 0x4 ADD SLOAD EQ PUSH2 0x2C2 JUMPI PUSH1 0x40 MLOAD PUSH32 0x8C379A000000000000000000000000000000000000000000000000000000000 DUP2 MSTORE PUSH1 0x4 ADD PUSH2 0x2B9 SWAP1 PUSH2 0x1B2C JUMP JUMPDEST PUSH1 0x40 MLOAD DUP1 SWAP2 SUB SWAP1 REVERT JUMPDEST CALLER PUSH20 0xFFFFFFFFFFFFFFFFFFFFFFFFFFFFFFFFFFFFFFFF AND PUSH1 0x7 PUSH0 DUP5 DUP2 MSTORE PUSH1 0x20 ADD SWAP1 DUP2 MSTORE PUSH1 0x20 ADD PUSH0 KECCAK256 PUSH1 0x5 ADD PUSH0 SWAP1 SLOAD SWAP1 PUSH2 0x100 EXP SWAP1 DIV PUSH20 0xFFFFFFFFFFFFFFFFFFFFFFFFFFFFFFFFFFFFFFFF AND PUSH20 0xFFFFFFFFFFFFFFFFFFFFFFFFFFFFFFFFFFFFFFFF AND EQ PUSH2 0x363 JUMPI PUSH1 0x40 MLOAD PUSH32 0x8C379A000000000000000000000000000000000000000000000000000000000 DUP2 MSTORE PUSH1 0x4 ADD PUSH2 0x35A SWAP1 PUSH2 0x1B94 JUMP JUMPDEST PUSH1 0x40 MLOAD DUP1 SWAP2 SUB SWAP1 REVERT JUMPDEST PUSH1 0x1 DUP2 LT ISZERO DUP1 ISZERO PUSH2 0x374 JUMPI POP PUSH1 0x3 DUP2 LT JUMPDEST PUSH2 0x3B3 JUMPI PUSH1 0x40 MLOAD PUSH32 0x8C379A000000000000000000000000000000000000000000000000000000000 DUP2 MSTORE PUSH1 0x4 ADD PUSH2 0x3AA SWAP1 PUSH2 0x1BFC JUMP JUMPDEST PUSH1 0x40 MLOAD DUP1 SWAP2 SUB SWAP1 REVERT JUMPDEST DUP1 PUSH1 0x7 PUSH0 DUP5 DUP2 MSTORE PUSH1 0x20 ADD SWAP1 DUP2 MSTORE PUSH1 0x20 ADD PUSH0 KECCAK256 PUSH1 0x4 ADD DUP2 SWAP1 SSTORE POP PUSH1 0x8 PUSH0 DUP3 DUP2 MSTORE PUSH1 0x20 ADD SWAP1 DUP2 MSTORE PUSH1 0x20 ADD PUSH0 KECCAK256 PUSH1 0x6 ADD PUSH0 DUP2 SLOAD DUP1 SWAP3 SWAP2 SWAP1 PUSH2 0x3F0 SWAP1 PUSH2 0x1C47 JUMP JUMPDEST SWAP2 SWAP1 POP SSTORE POP POP POP JUMP JUMPDEST PUSH0 PUSH0 SWAP1 SLOAD SWAP1 PUSH2 0x100 EXP SWAP1 DIV PUSH20 0xFFFFFFFFFFFFFFFFFFFFFFFFFFFFFFFFFFFFFFFF AND PUSH20 0xFFFFFFFFFFFFFFFFFFFFFFFFFFFFFFFFFFFFFFFF AND CALLER PUSH20 0xFFFFFFFFFFFFFFFFFFFFFFFFFFFFFFFFFFFFFFFF AND EQ PUSH2 0x487 JUMPI PUSH1 0x40 MLOAD PUSH32 0x8C379A000000000000000000000000000000000000000000000000000000000 DUP2 MSTORE PUSH1 0x4 ADD PUSH2 0x47E SWAP1 PUSH2 0x1CD8 JUMP JUMPDEST PUSH1 0x40 MLOAD DUP1 SWAP2 SUB SWAP1 REVERT JUMPDEST PUSH1 0x1 PUSH1 0x6 PUSH0 PUSH2 0x100 EXP DUP2 SLOAD DUP2 PUSH1 0xFF MUL NOT AND SWAP1 DUP4 ISZERO ISZERO MUL OR SWAP1 SSTORE POP JUMP JUMPDEST PUSH0 PUSH0 PUSH1 0x4 SLOAD SUB PUSH2 0x4B5 JUMPI PUSH0 SWAP1 POP PUSH2 0x4EA JUMP JUMPDEST TIMESTAMP PUSH1 0x5 SLOAD GT DUP1 ISZERO PUSH2 0x4D7 JUMPI POP PUSH0 ISZERO ISZERO PUSH1 0x6 PUSH0 SWAP1 SLOAD SWAP1 PUSH2 0x100 EXP SWAP1 DIV PUSH1 0xFF AND ISZERO ISZERO EQ JUMPDEST ISZERO PUSH2 0x4E5 JUMPI PUSH1 0x1 SWAP1 POP PUSH2 0x4EA JUMP JUMPDEST PUSH1 0x2 SWAP1 POP JUMPDEST SWAP1 JUMP JUMPDEST PUSH0 PUSH0 SWAP1 SLOAD SWAP1 PUSH2 0x100 EXP SWAP1 DIV PUSH20 0xFFFFFFFFFFFFFFFFFFFFFFFFFFFFFFFFFFFFFFFF AND PUSH20 0xFFFFFFFFFFFFFFFFFFFFFFFFFFFFFFFFFFFFFFFF AND CALLER PUSH20 0xFFFFFFFFFFFFFFFFFFFFFFFFFFFFFFFFFFFFFFFF AND EQ PUSH2 0x57B JUMPI PUSH1 0x40 MLOAD PUSH32 0x8C379A000000000000000000000000000000000000000000000000000000000 DUP2 MSTORE PUSH1 0x4 ADD PUSH2 0x572 SWAP1 PUSH2 0x1CD8 JUMP JUMPDEST PUSH1 0x40 MLOAD DUP1 SWAP2 SUB SWAP1 REVERT JUMPDEST PUSH0 PUSH0 SWAP1 POP PUSH0 PUSH1 0x1 SWAP1 POP JUMPDEST PUSH1 0x3 SLOAD DUP2 LT ISZERO PUSH2 0x643 JUMPI DUP2 PUSH1 0x8 PUSH0 DUP4 DUP2 MSTORE PUSH1 0x20 ADD SWAP1 DUP2 MSTORE PUSH1 0x20 ADD PUSH0 KECCAK256 PUSH1 0x6 ADD SLOAD GT ISZERO PUSH2 0x636 JUMPI PUSH1 0x8 PUSH0 DUP3 DUP2 MSTORE PUSH1 0x20 ADD SWAP1 DUP2 MSTORE PUSH1 0x20 ADD PUSH0 KECCAK256 PUSH1 0x6 ADD SLOAD SWAP2 POP PUSH1 0x8 PUSH0 DUP3 DUP2 MSTORE PUSH1 0x20 ADD SWAP1 DUP2 MSTORE PUSH1 0x20 ADD PUSH0 KECCAK256 PUSH1 0x5 ADD PUSH0 SWAP1 SLOAD SWAP1 PUSH2 0x100 EXP SWAP1 DIV PUSH20 0xFFFFFFFFFFFFFFFFFFFFFFFFFFFFFFFFFFFFFFFF AND PUSH1 0x1 PUSH0 PUSH2 0x100 EXP DUP2 SLOAD DUP2 PUSH20 0xFFFFFFFFFFFFFFFFFFFFFFFFFFFFFFFFFFFFFFFF MUL NOT AND SWAP1 DUP4 PUSH20 0xFFFFFFFFFFFFFFFFFFFFFFFFFFFFFFFFFFFFFFFF AND MUL OR SWAP1 SSTORE POP JUMPDEST DUP1 DUP1 PUSH1 0x1 ADD SWAP2 POP POP PUSH2 0x585 JUMP JUMPDEST POP POP JUMP JUMPDEST DUP2 PUSH1 0x12 DUP2 LT ISZERO PUSH2 0x68C JUMPI PUSH1 0x40 MLOAD PUSH32 0x8C379A000000000000000000000000000000000000000000000000000000000 DUP2 MSTORE PUSH1 0x4 ADD PUSH2 0x683 SWAP1 PUSH2 0x1D40 JUMP JUMPDEST PUSH1 0x40 MLOAD DUP1 SWAP2 SUB SWAP1 REVERT JUMPDEST PUSH2 0x695 CALLER PUSH2 0x1174 JUMP JUMPDEST PUSH2 0x6D4 JUMPI PUSH1 0x40 MLOAD PUSH32 0x8C379A000000000000000000000000000000000000000000000000000000000 DUP2 MSTORE PUSH1 0x4 ADD PUSH2 0x6CB SWAP1 PUSH2 0x1DA8 JUMP JUMPDEST PUSH1 0x40 MLOAD DUP1 SWAP2 SUB SWAP1 REVERT JUMPDEST PUSH1 0x40 MLOAD DUP1 PUSH1 0xC0 ADD PUSH1 0x40 MSTORE DUP1 DUP7 DUP7 DUP1 DUP1 PUSH1 0x1F ADD PUSH1 0x20 DUP1 SWAP2 DIV MUL PUSH1 0x20 ADD PUSH1 0x40 MLOAD SWAP1 DUP2 ADD PUSH1 0x40 MSTORE DUP1 SWAP4 SWAP3 SWAP2 SWAP1 DUP2 DUP2 MSTORE PUSH1 0x20 ADD DUP4 DUP4 DUP1 DUP3 DUP5 CALLDATACOPY PUSH0 DUP2 DUP5 ADD MSTORE PUSH1 0x1F NOT PUSH1 0x1F DUP3 ADD AND SWAP1 POP DUP1 DUP4 ADD SWAP3 POP POP POP POP POP POP POP DUP2 MSTORE PUSH1 0x20 ADD DUP5 DUP2 MSTORE PUSH1 0x20 ADD PUSH1 0x2 SLOAD DUP2 MSTORE PUSH1 0x20 ADD DUP4 PUSH1 0x3 DUP2 GT ISZERO PUSH2 0x749 JUMPI PUSH2 0x748 PUSH2 0x13D6 JUMP JUMPDEST JUMPDEST DUP2 MSTORE PUSH1 0x20 ADD PUSH0 DUP2 MSTORE PUSH1 0x20 ADD CALLER PUSH20 0xFFFFFFFFFFFFFFFFFFFFFFFFFFFFFFFFFFFFFFFF AND DUP2 MSTORE POP PUSH1 0x7 PUSH0 PUSH1 0x2 SLOAD DUP2 MSTORE PUSH1 0x20 ADD SWAP1 DUP2 MSTORE PUSH1 0x20 ADD PUSH0 KECCAK256 PUSH0 DUP3 ADD MLOAD DUP2 PUSH0 ADD SWAP1 DUP2 PUSH2 0x794 SWAP2 SWAP1 PUSH2 0x1FF0 JUMP JUMPDEST POP PUSH1 0x20 DUP3 ADD MLOAD DUP2 PUSH1 0x1 ADD SSTORE PUSH1 0x40 DUP3 ADD MLOAD DUP2 PUSH1 0x2 ADD SSTORE PUSH1 0x60 DUP3 ADD MLOAD DUP2 PUSH1 0x3 ADD PUSH0 PUSH2 0x100 EXP DUP2 SLOAD DUP2 PUSH1 0xFF MUL NOT AND SWAP1 DUP4 PUSH1 0x3 DUP2 GT ISZERO PUSH2 0x7D3 JUMPI PUSH2 0x7D2 PUSH2 0x13D6 JUMP JUMPDEST JUMPDEST MUL OR SWAP1 SSTORE POP PUSH1 0x80 DUP3 ADD MLOAD DUP2 PUSH1 0x4 ADD SSTORE PUSH1 0xA0 DUP3 ADD MLOAD DUP2 PUSH1 0x5 ADD PUSH0 PUSH2 0x100 EXP DUP2 SLOAD DUP2 PUSH20 0xFFFFFFFFFFFFFFFFFFFFFFFFFFFFFFFFFFFFFFFF MUL NOT AND SWAP1 DUP4 PUSH20 0xFFFFFFFFFFFFFFFFFFFFFFFFFFFFFFFFFFFFFFFF AND MUL OR SWAP1 SSTORE POP SWAP1 POP POP PUSH1 0x2 PUSH0 DUP2 SLOAD DUP1 SWAP3 SWAP2 SWAP1 PUSH2 0x83D SWAP1 PUSH2 0x1C47 JUMP JUMPDEST SWAP2 SWAP1 POP SSTORE POP POP POP POP POP POP JUMP JUMPDEST DUP2 PUSH1 0x12 DUP2 LT ISZERO PUSH2 0x88E JUMPI PUSH1 0x40 MLOAD PUSH32 0x8C379A000000000000000000000000000000000000000000000000000000000 DUP2 MSTORE PUSH1 0x4 ADD PUSH2 0x885 SWAP1 PUSH2 0x1D40 JUMP JUMPDEST PUSH1 0x40 MLOAD DUP1 SWAP2 SUB SWAP1 REVERT JUMPDEST PUSH2 0x897 CALLER PUSH2 0x120C JUMP JUMPDEST PUSH2 0x8D6 JUMPI PUSH1 0x40 MLOAD PUSH32 0x8C379A000000000000000000000000000000000000000000000000000000000 DUP2 MSTORE PUSH1 0x4 ADD PUSH2 0x8CD SWAP1 PUSH2 0x2109 JUMP JUMPDEST PUSH1 0x40 MLOAD DUP1 SWAP2 SUB SWAP1 REVERT JUMPDEST PUSH1 0x3 DUP1 SLOAD LT PUSH2 0x91A JUMPI PUSH1 0x40 MLOAD PUSH32 0x8C379A000000000000000000000000000000000000000000000000000000000 DUP2 MSTORE PUSH1 0x4 ADD PUSH2 0x911 SWAP1 PUSH2 0x2171 JUMP JUMPDEST PUSH1 0x40 MLOAD DUP1 SWAP2 SUB SWAP1 REVERT JUMPDEST PUSH0 PUSH0 SWAP1 SLOAD SWAP1 PUSH2 0x100 EXP SWAP1 DIV PUSH20 0xFFFFFFFFFFFFFFFFFFFFFFFFFFFFFFFFFFFFFFFF AND PUSH20 0xFFFFFFFFFFFFFFFFFFFFFFFFFFFFFFFFFFFFFFFF AND CALLER PUSH20 0xFFFFFFFFFFFFFFFFFFFFFFFFFFFFFFFFFFFFFFFF AND SUB PUSH2 0x9A8 JUMPI PUSH1 0x40 MLOAD PUSH32 0x8C379A000000000000000000000000000000000000000000000000000000000 DUP2 MSTORE PUSH1 0x4 ADD PUSH2 0x99F SWAP1 PUSH2 0x21FF JUMP JUMPDEST PUSH1 0x40 MLOAD DUP1 SWAP2 SUB SWAP1 REVERT JUMPDEST PUSH1 0x40 MLOAD DUP1 PUSH1 0xE0 ADD PUSH1 0x40 MSTORE DUP1 DUP9 DUP9 DUP1 DUP1 PUSH1 0x1F ADD PUSH1 0x20 DUP1 SWAP2 DIV MUL PUSH1 0x20 ADD PUSH1 0x40 MLOAD SWAP1 DUP2 ADD PUSH1 0x40 MSTORE DUP1 SWAP4 SWAP3 SWAP2 SWAP1 DUP2 DUP2 MSTORE PUSH1 0x20 ADD DUP4 DUP4 DUP1 DUP3 DUP5 CALLDATACOPY PUSH0 DUP2 DUP5 ADD MSTORE PUSH1 0x1F NOT PUSH1 0x1F DUP3 ADD AND SWAP1 POP DUP1 DUP4 ADD SWAP3 POP POP POP POP POP POP POP DUP2 MSTORE PUSH1 0x20 ADD DUP7 DUP7 DUP1 DUP1 PUSH1 0x1F ADD PUSH1 0x20 DUP1 SWAP2 DIV MUL PUSH1 0x20 ADD PUSH1 0x40 MLOAD SWAP1 DUP2 ADD PUSH1 0x40 MSTORE DUP1 SWAP4 SWAP3 SWAP2 SWAP1 DUP2 DUP2 MSTORE PUSH1 0x20 ADD DUP4 DUP4 DUP1 DUP3 DUP5 CALLDATACOPY PUSH0 DUP2 DUP5 ADD MSTORE PUSH1 0x1F NOT PUSH1 0x1F DUP3 ADD AND SWAP1 POP DUP1 DUP4 ADD SWAP3 POP POP POP POP POP POP POP DUP2 MSTORE PUSH1 0x20 ADD DUP5 DUP2 MSTORE PUSH1 0x20 ADD DUP4 PUSH1 0x3 DUP2 GT ISZERO PUSH2 0xA5E JUMPI PUSH2 0xA5D PUSH2 0x13D6 JUMP JUMPDEST JUMPDEST DUP2 MSTORE PUSH1 0x20 ADD PUSH1 0x3 SLOAD DUP2 MSTORE PUSH1 0x20 ADD CALLER PUSH20 0xFFFFFFFFFFFFFFFFFFFFFFFFFFFFFFFFFFFFFFFF AND DUP2 MSTORE PUSH1 0x20 ADD PUSH0 DUP2 MSTORE POP PUSH1 0x8 PUSH0 PUSH1 0x3 SLOAD DUP2 MSTORE PUSH1 0x20 ADD SWAP1 DUP2 MSTORE PUSH1 0x20 ADD PUSH0 KECCAK256 PUSH0 DUP3 ADD MLOAD DUP2 PUSH0 ADD SWAP1 DUP2 PUSH2 0xAB1 SWAP2 SWAP1 PUSH2 0x1FF0 JUMP JUMPDEST POP PUSH1 0x20 DUP3 ADD MLOAD DUP2 PUSH1 0x1 ADD SWAP1 DUP2 PUSH2 0xAC7 SWAP2 SWAP1 PUSH2 0x1FF0 JUMP JUMPDEST POP PUSH1 0x40 DUP3 ADD MLOAD DUP2 PUSH1 0x2 ADD SSTORE PUSH1 0x60 DUP3 ADD MLOAD DUP2 PUSH1 0x3 ADD PUSH0 PUSH2 0x100 EXP DUP2 SLOAD DUP2 PUSH1 0xFF MUL NOT AND SWAP1 DUP4 PUSH1 0x3 DUP2 GT ISZERO PUSH2 0xAFC JUMPI PUSH2 0xAFB PUSH2 0x13D6 JUMP JUMPDEST JUMPDEST MUL OR SWAP1 SSTORE POP PUSH1 0x80 DUP3 ADD MLOAD DUP2 PUSH1 0x4 ADD SSTORE PUSH1 0xA0 DUP3 ADD MLOAD DUP2 PUSH1 0x5 ADD PUSH0 PUSH2 0x100 EXP DUP2 SLOAD DUP2 PUSH20 0xFFFFFFFFFFFFFFFFFFFFFFFFFFFFFFFFFFFFFFFF MUL NOT AND SWAP1 DUP4 PUSH20 0xFFFFFFFFFFFFFFFFFFFFFFFFFFFFFFFFFFFFFFFF AND MUL OR SWAP1 SSTORE POP PUSH1 0xC0 DUP3 ADD MLOAD DUP2 PUSH1 0x6 ADD SSTORE SWAP1 POP POP PUSH1 0x3 PUSH0 DUP2 SLOAD DUP1 SWAP3 SWAP2 SWAP1 PUSH2 0xB70 SWAP1 PUSH2 0x1C47 JUMP JUMPDEST SWAP2 SWAP1 POP SSTORE POP POP POP POP POP POP POP POP JUMP JUMPDEST PUSH0 PUSH0 SWAP1 SLOAD SWAP1 PUSH2 0x100 EXP SWAP1 DIV PUSH20 0xFFFFFFFFFFFFFFFFFFFFFFFFFFFFFFFFFFFFFFFF AND PUSH20 0xFFFFFFFFFFFFFFFFFFFFFFFFFFFFFFFFFFFFFFFF AND CALLER PUSH20 0xFFFFFFFFFFFFFFFFFFFFFFFFFFFFFFFFFFFFFFFF AND EQ PUSH2 0xC0C JUMPI PUSH1 0x40 MLOAD PUSH32 0x8C379A000000000000000000000000000000000000000000000000000000000 DUP2 MSTORE PUSH1 0x4 ADD PUSH2 0xC03 SWAP1 PUSH2 0x1CD8 JUMP JUMPDEST PUSH1 0x40 MLOAD DUP1 SWAP2 SUB SWAP1 REVERT JUMPDEST PUSH2 0xE10 DUP2 GT PUSH2 0xC50 JUMPI PUSH1 0x40 MLOAD PUSH32 0x8C379A000000000000000000000000000000000000000000000000000000000 DUP2 MSTORE PUSH1 0x4 ADD PUSH2 0xC47 SWAP1 PUSH2 0x228D JUMP JUMPDEST PUSH1 0x40 MLOAD DUP1 SWAP2 SUB SWAP1 REVERT JUMPDEST DUP2 PUSH4 0x6691513E PUSH2 0xC60 SWAP2 SWAP1 PUSH2 0x22AB JUMP JUMPDEST PUSH1 0x4 DUP2 SWAP1 SSTORE POP DUP1 PUSH1 0x4 SLOAD PUSH2 0xC74 SWAP2 SWAP1 PUSH2 0x22AB JUMP JUMPDEST PUSH1 0x5 DUP2 SWAP1 SSTORE POP POP POP JUMP JUMPDEST PUSH0 PUSH0 SWAP1 SLOAD SWAP1 PUSH2 0x100 EXP SWAP1 DIV PUSH20 0xFFFFFFFFFFFFFFFFFFFFFFFFFFFFFFFFFFFFFFFF AND DUP2 JUMP JUMPDEST PUSH1 0x60 PUSH0 PUSH1 0x1 PUSH1 0x2 SLOAD PUSH2 0xCB4 SWAP2 SWAP1 PUSH2 0x22DE JUMP JUMPDEST SWAP1 POP PUSH0 DUP2 PUSH8 0xFFFFFFFFFFFFFFFF DUP2 GT ISZERO PUSH2 0xCD1 JUMPI PUSH2 0xCD0 PUSH2 0x1DC6 JUMP JUMPDEST JUMPDEST PUSH1 0x40 MLOAD SWAP1 DUP1 DUP3 MSTORE DUP1 PUSH1 0x20 MUL PUSH1 0x20 ADD DUP3 ADD PUSH1 0x40 MSTORE DUP1 ISZERO PUSH2 0xD0A JUMPI DUP2 PUSH1 0x20 ADD JUMPDEST PUSH2 0xCF7 PUSH2 0x12A4 JUMP JUMPDEST DUP2 MSTORE PUSH1 0x20 ADD SWAP1 PUSH1 0x1 SWAP1 SUB SWAP1 DUP2 PUSH2 0xCEF JUMPI SWAP1 POP JUMPDEST POP SWAP1 POP PUSH0 PUSH0 SWAP1 POP JUMPDEST DUP2 MLOAD DUP2 LT ISZERO PUSH2 0xEAA JUMPI PUSH1 0x7 PUSH0 PUSH1 0x1 DUP4 PUSH2 0xD2B SWAP2 SWAP1 PUSH2 0x22AB JUMP JUMPDEST DUP2 MSTORE PUSH1 0x20 ADD SWAP1 DUP2 MSTORE PUSH1 0x20 ADD PUSH0 KECCAK256 PUSH1 0x40 MLOAD DUP1 PUSH1 0xC0 ADD PUSH1 0x40 MSTORE SWAP1 DUP2 PUSH0 DUP3 ADD DUP1 SLOAD PUSH2 0xD52 SWAP1 PUSH2 0x1E20 JUMP JUMPDEST DUP1 PUSH1 0x1F ADD PUSH1 0x20 DUP1 SWAP2 DIV MUL PUSH1 0x20 ADD PUSH1 0x40 MLOAD SWAP1 DUP2 ADD PUSH1 0x40 MSTORE DUP1 SWAP3 SWAP2 SWAP1 DUP2 DUP2 MSTORE PUSH1 0x20 ADD DUP3 DUP1 SLOAD PUSH2 0xD7E SWAP1 PUSH2 0x1E20 JUMP JUMPDEST DUP1 ISZERO PUSH2 0xDC9 JUMPI DUP1 PUSH1 0x1F LT PUSH2 0xDA0 JUMPI PUSH2 0x100 DUP1 DUP4 SLOAD DIV MUL DUP4 MSTORE SWAP2 PUSH1 0x20 ADD SWAP2 PUSH2 0xDC9 JUMP JUMPDEST DUP3 ADD SWAP2 SWAP1 PUSH0 MSTORE PUSH1 0x20 PUSH0 KECCAK256 SWAP1 JUMPDEST DUP2 SLOAD DUP2 MSTORE SWAP1 PUSH1 0x1 ADD SWAP1 PUSH1 0x20 ADD DUP1 DUP4 GT PUSH2 0xDAC JUMPI DUP3 SWAP1 SUB PUSH1 0x1F AND DUP3 ADD SWAP2 JUMPDEST POP POP POP POP POP DUP2 MSTORE PUSH1 0x20 ADD PUSH1 0x1 DUP3 ADD SLOAD DUP2 MSTORE PUSH1 0x20 ADD PUSH1 0x2 DUP3 ADD SLOAD DUP2 MSTORE PUSH1 0x20 ADD PUSH1 0x3 DUP3 ADD PUSH0 SWAP1 SLOAD SWAP1 PUSH2 0x100 EXP SWAP1 DIV PUSH1 0xFF AND PUSH1 0x3 DUP2 GT ISZERO PUSH2 0xE0A JUMPI PUSH2 0xE09 PUSH2 0x13D6 JUMP JUMPDEST JUMPDEST PUSH1 0x3 DUP2 GT ISZERO PUSH2 0xE1C JUMPI PUSH2 0xE1B PUSH2 0x13D6 JUMP JUMPDEST JUMPDEST DUP2 MSTORE PUSH1 0x20 ADD PUSH1 0x4 DUP3 ADD SLOAD DUP2 MSTORE PUSH1 0x20 ADD PUSH1 0x5 DUP3 ADD PUSH0 SWAP1 SLOAD SWAP1 PUSH2 0x100 EXP SWAP1 DIV PUSH20 0xFFFFFFFFFFFFFFFFFFFFFFFFFFFFFFFFFFFFFFFF AND PUSH20 0xFFFFFFFFFFFFFFFFFFFFFFFFFFFFFFFFFFFFFFFF AND PUSH20 0xFFFFFFFFFFFFFFFFFFFFFFFFFFFFFFFFFFFFFFFF AND DUP2 MSTORE POP POP DUP3 DUP3 DUP2 MLOAD DUP2 LT PUSH2 0xE92 JUMPI PUSH2 0xE91 PUSH2 0x2311 JUMP JUMPDEST JUMPDEST PUSH1 0x20 MUL PUSH1 0x20 ADD ADD DUP2 SWAP1 MSTORE POP DUP1 DUP1 PUSH1 0x1 ADD SWAP2 POP POP PUSH2 0xD12 JUMP JUMPDEST POP DUP1 SWAP3 POP POP POP SWAP1 JUMP JUMPDEST PUSH1 0x1 PUSH0 SWAP1 SLOAD SWAP1 PUSH2 0x100 EXP SWAP1 DIV PUSH20 0xFFFFFFFFFFFFFFFFFFFFFFFFFFFFFFFFFFFFFFFF AND DUP2 JUMP JUMPDEST PUSH1 0x60 PUSH0 PUSH1 0x1 PUSH1 0x3 SLOAD PUSH2 0xEEA SWAP2 SWAP1 PUSH2 0x22DE JUMP JUMPDEST PUSH8 0xFFFFFFFFFFFFFFFF DUP2 GT ISZERO PUSH2 0xF03 JUMPI PUSH2 0xF02 PUSH2 0x1DC6 JUMP JUMPDEST JUMPDEST PUSH1 0x40 MLOAD SWAP1 DUP1 DUP3 MSTORE DUP1 PUSH1 0x20 MUL PUSH1 0x20 ADD DUP3 ADD PUSH1 0x40 MSTORE DUP1 ISZERO PUSH2 0xF3C JUMPI DUP2 PUSH1 0x20 ADD JUMPDEST PUSH2 0xF29 PUSH2 0x12FD JUMP JUMPDEST DUP2 MSTORE PUSH1 0x20 ADD SWAP1 PUSH1 0x1 SWAP1 SUB SWAP1 DUP2 PUSH2 0xF21 JUMPI SWAP1 POP JUMPDEST POP SWAP1 POP PUSH0 PUSH0 SWAP1 POP JUMPDEST DUP2 MLOAD DUP2 LT ISZERO PUSH2 0x116C JUMPI PUSH1 0x8 PUSH0 PUSH1 0x1 DUP4 PUSH2 0xF5D SWAP2 SWAP1 PUSH2 0x22AB JUMP JUMPDEST DUP2 MSTORE PUSH1 0x20 ADD SWAP1 DUP2 MSTORE PUSH1 0x20 ADD PUSH0 KECCAK256 PUSH1 0x40 MLOAD DUP1 PUSH1 0xE0 ADD PUSH1 0x40 MSTORE SWAP1 DUP2 PUSH0 DUP3 ADD DUP1 SLOAD PUSH2 0xF84 SWAP1 PUSH2 0x1E20 JUMP JUMPDEST DUP1 PUSH1 0x1F ADD PUSH1 0x20 DUP1 SWAP2 DIV MUL PUSH1 0x20 ADD PUSH1 0x40 MLOAD SWAP1 DUP2 ADD PUSH1 0x40 MSTORE DUP1 SWAP3 SWAP2 SWAP1 DUP2 DUP2 MSTORE PUSH1 0x20 ADD DUP3 DUP1 SLOAD PUSH2 0xFB0 SWAP1 PUSH2 0x1E20 JUMP JUMPDEST DUP1 ISZERO PUSH2 0xFFB JUMPI DUP1 PUSH1 0x1F LT PUSH2 0xFD2 JUMPI PUSH2 0x100 DUP1 DUP4 SLOAD DIV MUL DUP4 MSTORE SWAP2 PUSH1 0x20 ADD SWAP2 PUSH2 0xFFB JUMP JUMPDEST DUP3 ADD SWAP2 SWAP1 PUSH0 MSTORE PUSH1 0x20 PUSH0 KECCAK256 SWAP1 JUMPDEST DUP2 SLOAD DUP2 MSTORE SWAP1 PUSH1 0x1 ADD SWAP1 PUSH1 0x20 ADD DUP1 DUP4 GT PUSH2 0xFDE JUMPI DUP3 SWAP1 SUB PUSH1 0x1F AND DUP3 ADD SWAP2 JUMPDEST POP POP POP POP POP DUP2 MSTORE PUSH1 0x20 ADD PUSH1 0x1 DUP3 ADD DUP1 SLOAD PUSH2 0x1014 SWAP1 PUSH2 0x1E20 JUMP JUMPDEST DUP1 PUSH1 0x1F ADD PUSH1 0x20 DUP1 SWAP2 DIV MUL PUSH1 0x20 ADD PUSH1 0x40 MLOAD SWAP1 DUP2 ADD PUSH1 0x40 MSTORE DUP1 SWAP3 SWAP2 SWAP1 DUP2 DUP2 MSTORE PUSH1 0x20 ADD DUP3 DUP1 SLOAD PUSH2 0x1040 SWAP1 PUSH2 0x1E20 JUMP JUMPDEST DUP1 ISZERO PUSH2 0x108B JUMPI DUP1 PUSH1 0x1F LT PUSH2 0x1062 JUMPI PUSH2 0x100 DUP1 DUP4 SLOAD DIV MUL DUP4 MSTORE SWAP2 PUSH1 0x20 ADD SWAP2 PUSH2 0x108B JUMP JUMPDEST DUP3 ADD SWAP2 SWAP1 PUSH0 MSTORE PUSH1 0x20 PUSH0 KECCAK256 SWAP1 JUMPDEST DUP2 SLOAD DUP2 MSTORE SWAP1 PUSH1 0x1 ADD SWAP1 PUSH1 0x20 ADD DUP1 DUP4 GT PUSH2 0x106E JUMPI DUP3 SWAP1 SUB PUSH1 0x1F AND DUP3 ADD SWAP2 JUMPDEST POP POP POP POP POP DUP2 MSTORE PUSH1 0x20 ADD PUSH1 0x2 DUP3 ADD SLOAD DUP2 MSTORE PUSH1 0x20 ADD PUSH1 0x3 DUP3 ADD PUSH0 SWAP1 SLOAD SWAP1 PUSH2 0x100 EXP SWAP1 DIV PUSH1 0xFF AND PUSH1 0x3 DUP2 GT ISZERO PUSH2 0x10C2 JUMPI PUSH2 0x10C1 PUSH2 0x13D6 JUMP JUMPDEST JUMPDEST PUSH1 0x3 DUP2 GT ISZERO PUSH2 0x10D4 JUMPI PUSH2 0x10D3 PUSH2 0x13D6 JUMP JUMPDEST JUMPDEST DUP2 MSTORE PUSH1 0x20 ADD PUSH1 0x4 DUP3 ADD SLOAD DUP2 MSTORE PUSH1 0x20 ADD PUSH1 0x5 DUP3 ADD PUSH0 SWAP1 SLOAD SWAP1 PUSH2 0x100 EXP SWAP1 DIV PUSH20 0xFFFFFFFFFFFFFFFFFFFFFFFFFFFFFFFFFFFFFFFF AND PUSH20 0xFFFFFFFFFFFFFFFFFFFFFFFFFFFFFFFFFFFFFFFF AND PUSH20 0xFFFFFFFFFFFFFFFFFFFFFFFFFFFFFFFFFFFFFFFF AND DUP2 MSTORE PUSH1 0x20 ADD PUSH1 0x6 DUP3 ADD SLOAD DUP2 MSTORE POP POP DUP3 DUP3 DUP2 MLOAD DUP2 LT PUSH2 0x1154 JUMPI PUSH2 0x1153 PUSH2 0x2311 JUMP JUMPDEST JUMPDEST PUSH1 0x20 MUL PUSH1 0x20 ADD ADD DUP2 SWAP1 MSTORE POP DUP1 DUP1 PUSH1 0x1 ADD SWAP2 POP POP PUSH2 0xF44 JUMP JUMPDEST POP DUP1 SWAP2 POP POP SWAP1 JUMP JUMPDEST PUSH0 PUSH0 PUSH1 0x1 SWAP1 POP JUMPDEST PUSH1 0x2 SLOAD DUP2 LT ISZERO PUSH2 0x1201 JUMPI DUP3 PUSH20 0xFFFFFFFFFFFFFFFFFFFFFFFFFFFFFFFFFFFFFFFF AND PUSH1 0x7 PUSH0 DUP4 DUP2 MSTORE PUSH1 0x20 ADD SWAP1 DUP2 MSTORE PUSH1 0x20 ADD PUSH0 KECCAK256 PUSH1 0x5 ADD PUSH0 SWAP1 SLOAD SWAP1 PUSH2 0x100 EXP SWAP1 DIV PUSH20 0xFFFFFFFFFFFFFFFFFFFFFFFFFFFFFFFFFFFFFFFF AND PUSH20 0xFFFFFFFFFFFFFFFFFFFFFFFFFFFFFFFFFFFFFFFF AND SUB PUSH2 0x11F4 JUMPI PUSH0 SWAP2 POP POP PUSH2 0x1207 JUMP JUMPDEST DUP1 DUP1 PUSH1 0x1 ADD SWAP2 POP POP PUSH2 0x117B JUMP JUMPDEST POP PUSH1 0x1 SWAP1 POP JUMPDEST SWAP2 SWAP1 POP JUMP JUMPDEST PUSH0 PUSH0 PUSH1 0x1 SWAP1 POP JUMPDEST PUSH1 0x3 SLOAD DUP2 LT ISZERO PUSH2 0x1299 JUMPI DUP3 PUSH20 0xFFFFFFFFFFFFFFFFFFFFFFFFFFFFFFFFFFFFFFFF AND PUSH1 0x8 PUSH0 DUP4 DUP2 MSTORE PUSH1 0x20 ADD SWAP1 DUP2 MSTORE PUSH1 0x20 ADD PUSH0 KECCAK256 PUSH1 0x5 ADD PUSH0 SWAP1 SLOAD SWAP1 PUSH2 0x100 EXP SWAP1 DIV PUSH20 0xFFFFFFFFFFFFFFFFFFFFFFFFFFFFFFFFFFFFFFFF AND PUSH20 0xFFFFFFFFFFFFFFFFFFFFFFFFFFFFFFFFFFFFFFFF AND SUB PUSH2 0x128C JUMPI PUSH0 SWAP2 POP POP PUSH2 0x129F JUMP JUMPDEST DUP1 DUP1 PUSH1 0x1 ADD SWAP2 POP POP PUSH2 0x1213 JUMP JUMPDEST POP PUSH1 0x1 SWAP1 POP JUMPDEST SWAP2 SWAP1 POP JUMP JUMPDEST PUSH1 0x40 MLOAD DUP1 PUSH1 0xC0 ADD PUSH1 0x40 MSTORE DUP1 PUSH1 0x60 DUP2 MSTORE PUSH1 0x20 ADD PUSH0 DUP2 MSTORE PUSH1 0x20 ADD PUSH0 DUP2 MSTORE PUSH1 0x20 ADD PUSH0 PUSH1 0x3 DUP2 GT ISZERO PUSH2 0x12D5 JUMPI PUSH2 0x12D4 PUSH2 0x13D6 JUMP JUMPDEST JUMPDEST DUP2 MSTORE PUSH1 0x20 ADD PUSH0 DUP2 MSTORE PUSH1 0x20 ADD PUSH0 PUSH20 0xFFFFFFFFFFFFFFFFFFFFFFFFFFFFFFFFFFFFFFFF AND DUP2 MSTORE POP SWAP1 JUMP JUMPDEST PUSH1 0x40 MLOAD DUP1 PUSH1 0xE0 ADD PUSH1 0x40 MSTORE DUP1 PUSH1 0x60 DUP2 MSTORE PUSH1 0x20 ADD PUSH1 0x60 DUP2 MSTORE PUSH1 0x20 ADD PUSH0 DUP2 MSTORE PUSH1 0x20 ADD PUSH0 PUSH1 0x3 DUP2 GT ISZERO PUSH2 0x132F JUMPI PUSH2 0x132E PUSH2 0x13D6 JUMP JUMPDEST JUMPDEST DUP2 MSTORE PUSH1 0x20 ADD PUSH0 DUP2 MSTORE PUSH1 0x20 ADD PUSH0 PUSH20 0xFFFFFFFFFFFFFFFFFFFFFFFFFFFFFFFFFFFFFFFF AND DUP2 MSTORE PUSH1 0x20 ADD PUSH0 DUP2 MSTORE POP SWAP1 JUMP JUMPDEST PUSH0 PUSH0 REVERT JUMPDEST PUSH0 PUSH0 REVERT JUMPDEST PUSH0 DUP2 SWAP1 POP SWAP2 SWAP1 POP JUMP JUMPDEST PUSH2 0x1377 DUP2 PUSH2 0x1365 JUMP JUMPDEST DUP2 EQ PUSH2 0x1381 JUMPI PUSH0 PUSH0 REVERT JUMPDEST POP JUMP JUMPDEST PUSH0 DUP2 CALLDATALOAD SWAP1 POP PUSH2 0x1392 DUP2 PUSH2 0x136E JUMP JUMPDEST SWAP3 SWAP2 POP POP JUMP JUMPDEST PUSH0 PUSH0 PUSH1 0x40 DUP4 DUP6 SUB SLT ISZERO PUSH2 0x13AE JUMPI PUSH2 0x13AD PUSH2 0x135D JUMP JUMPDEST JUMPDEST PUSH0 PUSH2 0x13BB DUP6 DUP3 DUP7 ADD PUSH2 0x1384 JUMP JUMPDEST SWAP3 POP POP PUSH1 0x20 PUSH2 0x13CC DUP6 DUP3 DUP7 ADD PUSH2 0x1384 JUMP JUMPDEST SWAP2 POP POP SWAP3 POP SWAP3 SWAP1 POP JUMP JUMPDEST PUSH32 0x4E487B7100000000000000000000000000000000000000000000000000000000 PUSH0 MSTORE PUSH1 0x21 PUSH1 0x4 MSTORE PUSH1 0x24 PUSH0 REVERT JUMPDEST PUSH1 0x3 DUP2 LT PUSH2 0x1414 JUMPI PUSH2 0x1413 PUSH2 0x13D6 JUMP JUMPDEST JUMPDEST POP JUMP JUMPDEST PUSH0 DUP2 SWAP1 POP PUSH2 0x1424 DUP3 PUSH2 0x1403 JUMP JUMPDEST SWAP2 SWAP1 POP JUMP JUMPDEST PUSH0 PUSH2 0x1433 DUP3 PUSH2 0x1417 JUMP JUMPDEST SWAP1 POP SWAP2 SWAP1 POP JUMP JUMPDEST PUSH2 0x1443 DUP2 PUSH2 0x1429 JUMP JUMPDEST DUP3 MSTORE POP POP JUMP JUMPDEST PUSH0 PUSH1 0x20 DUP3 ADD SWAP1 POP PUSH2 0x145C PUSH0 DUP4 ADD DUP5 PUSH2 0x143A JUMP JUMPDEST SWAP3 SWAP2 POP POP JUMP JUMPDEST PUSH0 PUSH0 REVERT JUMPDEST PUSH0 PUSH0 REVERT JUMPDEST PUSH0 PUSH0 REVERT JUMPDEST PUSH0 PUSH0 DUP4 PUSH1 0x1F DUP5 ADD SLT PUSH2 0x1483 JUMPI PUSH2 0x1482 PUSH2 0x1462 JUMP JUMPDEST JUMPDEST DUP3 CALLDATALOAD SWAP1 POP PUSH8 0xFFFFFFFFFFFFFFFF DUP2 GT ISZERO PUSH2 0x14A0 JUMPI PUSH2 0x149F PUSH2 0x1466 JUMP JUMPDEST JUMPDEST PUSH1 0x20 DUP4 ADD SWAP2 POP DUP4 PUSH1 0x1 DUP3 MUL DUP4 ADD GT ISZERO PUSH2 0x14BC JUMPI PUSH2 0x14BB PUSH2 0x146A JUMP JUMPDEST JUMPDEST SWAP3 POP SWAP3 SWAP1 POP JUMP JUMPDEST PUSH1 0x4 DUP2 LT PUSH2 0x14CF JUMPI PUSH0 PUSH0 REVERT JUMPDEST POP JUMP JUMPDEST PUSH0 DUP2 CALLDATALOAD SWAP1 POP PUSH2 0x14E0 DUP2 PUSH2 0x14C3 JUMP JUMPDEST SWAP3 SWAP2 POP POP JUMP JUMPDEST PUSH0 PUSH0 PUSH0 PUSH0 PUSH1 0x60 DUP6 DUP8 SUB SLT ISZERO PUSH2 0x14FE JUMPI PUSH2 0x14FD PUSH2 0x135D JUMP JUMPDEST JUMPDEST PUSH0 DUP6 ADD CALLDATALOAD PUSH8 0xFFFFFFFFFFFFFFFF DUP2 GT ISZERO PUSH2 0x151B JUMPI PUSH2 0x151A PUSH2 0x1361 JUMP JUMPDEST JUMPDEST PUSH2 0x1527 DUP8 DUP3 DUP9 ADD PUSH2 0x146E JUMP JUMPDEST SWAP5 POP SWAP5 POP POP PUSH1 0x20 PUSH2 0x153A DUP8 DUP3 DUP9 ADD PUSH2 0x1384 JUMP JUMPDEST SWAP3 POP POP PUSH1 0x40 PUSH2 0x154B DUP8 DUP3 DUP9 ADD PUSH2 0x14D2 JUMP JUMPDEST SWAP2 POP POP SWAP3 SWAP6 SWAP2 SWAP5 POP SWAP3 POP JUMP JUMPDEST PUSH0 PUSH0 PUSH0 PUSH0 PUSH0 PUSH0 PUSH1 0x80 DUP8 DUP10 SUB SLT ISZERO PUSH2 0x1571 JUMPI PUSH2 0x1570 PUSH2 0x135D JUMP JUMPDEST JUMPDEST PUSH0 DUP8 ADD CALLDATALOAD PUSH8 0xFFFFFFFFFFFFFFFF DUP2 GT ISZERO PUSH2 0x158E JUMPI PUSH2 0x158D PUSH2 0x1361 JUMP JUMPDEST JUMPDEST PUSH2 0x159A DUP10 DUP3 DUP11 ADD PUSH2 0x146E JUMP JUMPDEST SWAP7 POP SWAP7 POP POP PUSH1 0x20 DUP8 ADD CALLDATALOAD PUSH8 0xFFFFFFFFFFFFFFFF DUP2 GT ISZERO PUSH2 0x15BD JUMPI PUSH2 0x15BC PUSH2 0x1361 JUMP JUMPDEST JUMPDEST PUSH2 0x15C9 DUP10 DUP3 DUP11 ADD PUSH2 0x146E JUMP JUMPDEST SWAP5 POP SWAP5 POP POP PUSH1 0x40 PUSH2 0x15DC DUP10 DUP3 DUP11 ADD PUSH2 0x1384 JUMP JUMPDEST SWAP3 POP POP PUSH1 0x60 PUSH2 0x15ED DUP10 DUP3 DUP11 ADD PUSH2 0x14D2 JUMP JUMPDEST SWAP2 POP POP SWAP3 SWAP6 POP SWAP3 SWAP6 POP SWAP3 SWAP6 JUMP JUMPDEST PUSH0 PUSH20 0xFFFFFFFFFFFFFFFFFFFFFFFFFFFFFFFFFFFFFFFF DUP3 AND SWAP1 POP SWAP2 SWAP1 POP JUMP JUMPDEST PUSH0 PUSH2 0x1623 DUP3 PUSH2 0x15FA JUMP JUMPDEST SWAP1 POP SWAP2 SWAP1 POP JUMP JUMPDEST PUSH2 0x1633 DUP2 PUSH2 0x1619 JUMP JUMPDEST DUP3 MSTORE POP POP JUMP JUMPDEST PUSH0 PUSH1 0x20 DUP3 ADD SWAP1 POP PUSH2 0x164C PUSH0 DUP4 ADD DUP5 PUSH2 0x162A JUMP JUMPDEST SWAP3 SWAP2 POP POP JUMP JUMPDEST PUSH0 DUP2 MLOAD SWAP1 POP SWAP2 SWAP1 POP JUMP JUMPDEST PUSH0 DUP3 DUP3 MSTORE PUSH1 0x20 DUP3 ADD SWAP1 POP SWAP3 SWAP2 POP POP JUMP JUMPDEST PUSH0 DUP2 SWAP1 POP PUSH1 0x20 DUP3 ADD SWAP1 POP SWAP2 SWAP1 POP JUMP JUMPDEST PUSH0 DUP2 MLOAD SWAP1 POP SWAP2 SWAP1 POP JUMP JUMPDEST PUSH0 DUP3 DUP3 MSTORE PUSH1 0x20 DUP3 ADD SWAP1 POP SWAP3 SWAP2 POP POP JUMP JUMPDEST DUP3 DUP2 DUP4 MCOPY PUSH0 DUP4 DUP4 ADD MSTORE POP POP POP JUMP JUMPDEST PUSH0 PUSH1 0x1F NOT PUSH1 0x1F DUP4 ADD AND SWAP1 POP SWAP2 SWAP1 POP JUMP JUMPDEST PUSH0 PUSH2 0x16BD DUP3 PUSH2 0x167B JUMP JUMPDEST PUSH2 0x16C7 DUP2 DUP6 PUSH2 0x1685 JUMP JUMPDEST SWAP4 POP PUSH2 0x16D7 DUP2 DUP6 PUSH1 0x20 DUP7 ADD PUSH2 0x1695 JUMP JUMPDEST PUSH2 0x16E0 DUP2 PUSH2 0x16A3 JUMP JUMPDEST DUP5 ADD SWAP2 POP POP SWAP3 SWAP2 POP POP JUMP JUMPDEST PUSH2 0x16F4 DUP2 PUSH2 0x1365 JUMP JUMPDEST DUP3 MSTORE POP POP JUMP JUMPDEST PUSH1 0x4 DUP2 LT PUSH2 0x170B JUMPI PUSH2 0x170A PUSH2 0x13D6 JUMP JUMPDEST JUMPDEST POP JUMP JUMPDEST PUSH0 DUP2 SWAP1 POP PUSH2 0x171B DUP3 PUSH2 0x16FA JUMP JUMPDEST SWAP2 SWAP1 POP JUMP JUMPDEST PUSH0 PUSH2 0x172A DUP3 PUSH2 0x170E JUMP JUMPDEST SWAP1 POP SWAP2 SWAP1 POP JUMP JUMPDEST PUSH2 0x173A DUP2 PUSH2 0x1720 JUMP JUMPDEST DUP3 MSTORE POP POP JUMP JUMPDEST PUSH2 0x1749 DUP2 PUSH2 0x1619 JUMP JUMPDEST DUP3 MSTORE POP POP JUMP JUMPDEST PUSH0 PUSH1 0xC0 DUP4 ADD PUSH0 DUP4 ADD MLOAD DUP5 DUP3 SUB PUSH0 DUP7 ADD MSTORE PUSH2 0x1769 DUP3 DUP3 PUSH2 0x16B3 JUMP JUMPDEST SWAP2 POP POP PUSH1 0x20 DUP4 ADD MLOAD PUSH2 0x177E PUSH1 0x20 DUP7 ADD DUP3 PUSH2 0x16EB JUMP JUMPDEST POP PUSH1 0x40 DUP4 ADD MLOAD PUSH2 0x1791 PUSH1 0x40 DUP7 ADD DUP3 PUSH2 0x16EB JUMP JUMPDEST POP PUSH1 0x60 DUP4 ADD MLOAD PUSH2 0x17A4 PUSH1 0x60 DUP7 ADD DUP3 PUSH2 0x1731 JUMP JUMPDEST POP PUSH1 0x80 DUP4 ADD MLOAD PUSH2 0x17B7 PUSH1 0x80 DUP7 ADD DUP3 PUSH2 0x16EB JUMP JUMPDEST POP PUSH1 0xA0 DUP4 ADD MLOAD PUSH2 0x17CA PUSH1 0xA0 DUP7 ADD DUP3 PUSH2 0x1740 JUMP JUMPDEST POP DUP1 SWAP2 POP POP SWAP3 SWAP2 POP POP JUMP JUMPDEST PUSH0 PUSH2 0x17E0 DUP4 DUP4 PUSH2 0x174F JUMP JUMPDEST SWAP1 POP SWAP3 SWAP2 POP POP JUMP JUMPDEST PUSH0 PUSH1 0x20 DUP3 ADD SWAP1 POP SWAP2 SWAP1 POP JUMP JUMPDEST PUSH0 PUSH2 0x17FE DUP3 PUSH2 0x1652 JUMP JUMPDEST PUSH2 0x1808 DUP2 DUP6 PUSH2 0x165C JUMP JUMPDEST SWAP4 POP DUP4 PUSH1 0x20 DUP3 MUL DUP6 ADD PUSH2 0x181A DUP6 PUSH2 0x166C JUMP JUMPDEST DUP1 PUSH0 JUMPDEST DUP6 DUP2 LT ISZERO PUSH2 0x1855 JUMPI DUP5 DUP5 SUB DUP10 MSTORE DUP2 MLOAD PUSH2 0x1836 DUP6 DUP3 PUSH2 0x17D5 JUMP JUMPDEST SWAP5 POP PUSH2 0x1841 DUP4 PUSH2 0x17E8 JUMP JUMPDEST SWAP3 POP PUSH1 0x20 DUP11 ADD SWAP10 POP POP PUSH1 0x1 DUP2 ADD SWAP1 POP PUSH2 0x181D JUMP JUMPDEST POP DUP3 SWAP8 POP DUP8 SWAP6 POP POP POP POP POP POP SWAP3 SWAP2 POP POP JUMP JUMPDEST PUSH0 PUSH1 0x20 DUP3 ADD SWAP1 POP DUP2 DUP2 SUB PUSH0 DUP4 ADD MSTORE PUSH2 0x187F DUP2 DUP5 PUSH2 0x17F4 JUMP JUMPDEST SWAP1 POP SWAP3 SWAP2 POP POP JUMP JUMPDEST PUSH0 DUP2 MLOAD SWAP1 POP SWAP2 SWAP1 POP JUMP JUMPDEST PUSH0 DUP3 DUP3 MSTORE PUSH1 0x20 DUP3 ADD SWAP1 POP SWAP3 SWAP2 POP POP JUMP JUMPDEST PUSH0 DUP2 SWAP1 POP PUSH1 0x20 DUP3 ADD SWAP1 POP SWAP2 SWAP1 POP JUMP JUMPDEST PUSH0 PUSH1 0xE0 DUP4 ADD PUSH0 DUP4 ADD MLOAD DUP5 DUP3 SUB PUSH0 DUP7 ADD MSTORE PUSH2 0x18CA DUP3 DUP3 PUSH2 0x16B3 JUMP JUMPDEST SWAP2 POP POP PUSH1 0x20 DUP4 ADD MLOAD DUP5 DUP3 SUB PUSH1 0x20 DUP7 ADD MSTORE PUSH2 0x18E4 DUP3 DUP3 PUSH2 0x16B3 JUMP JUMPDEST SWAP2 POP POP PUSH1 0x40 DUP4 ADD MLOAD PUSH2 0x18F9 PUSH1 0x40 DUP7 ADD DUP3 PUSH2 0x16EB JUMP JUMPDEST POP PUSH1 0x60 DUP4 ADD MLOAD PUSH2 0x190C PUSH1 0x60 DUP7 ADD DUP3 PUSH2 0x1731 JUMP JUMPDEST POP PUSH1 0x80 DUP4 ADD MLOAD PUSH2 0x191F PUSH1 0x80 DUP7 ADD DUP3 PUSH2 0x16EB JUMP JUMPDEST POP PUSH1 0xA0 DUP4 ADD MLOAD PUSH2 0x1932 PUSH1 0xA0 DUP7 ADD DUP3 PUSH2 0x1740 JUMP JUMPDEST POP PUSH1 0xC0 DUP4 ADD MLOAD PUSH2 0x1945 PUSH1 0xC0 DUP7 ADD DUP3 PUSH2 0x16EB JUMP JUMPDEST POP DUP1 SWAP2 POP POP SWAP3 SWAP2 POP POP JUMP JUMPDEST PUSH0 PUSH2 0x195B DUP4 DUP4 PUSH2 0x18B0 JUMP JUMPDEST SWAP1 POP SWAP3 SWAP2 POP POP JUMP JUMPDEST PUSH0 PUSH1 0x20 DUP3 ADD SWAP1 POP SWAP2 SWAP1 POP JUMP JUMPDEST PUSH0 PUSH2 0x1979 DUP3 PUSH2 0x1887 JUMP JUMPDEST PUSH2 0x1983 DUP2 DUP6 PUSH2 0x1891 JUMP JUMPDEST SWAP4 POP DUP4 PUSH1 0x20 DUP3 MUL DUP6 ADD PUSH2 0x1995 DUP6 PUSH2 0x18A1 JUMP JUMPDEST DUP1 PUSH0 JUMPDEST DUP6 DUP2 LT ISZERO PUSH2 0x19D0 JUMPI DUP5 DUP5 SUB DUP10 MSTORE DUP2 MLOAD PUSH2 0x19B1 DUP6 DUP3 PUSH2 0x1950 JUMP JUMPDEST SWAP5 POP PUSH2 0x19BC DUP4 PUSH2 0x1963 JUMP JUMPDEST SWAP3 POP PUSH1 0x20 DUP11 ADD SWAP10 POP POP PUSH1 0x1 DUP2 ADD SWAP1 POP PUSH2 0x1998 JUMP JUMPDEST POP DUP3 SWAP8 POP DUP8 SWAP6 POP POP POP POP POP POP SWAP3 SWAP2 POP POP JUMP JUMPDEST PUSH0 PUSH1 0x20 DUP3 ADD SWAP1 POP DUP2 DUP2 SUB PUSH0 DUP4 ADD MSTORE PUSH2 0x19FA DUP2 DUP5 PUSH2 0x196F JUMP JUMPDEST SWAP1 POP SWAP3 SWAP2 POP POP JUMP JUMPDEST PUSH0 DUP3 DUP3 MSTORE PUSH1 0x20 DUP3 ADD SWAP1 POP SWAP3 SWAP2 POP POP JUMP JUMPDEST PUSH32 0x566F74696E672074696D65206973204F76657200000000000000000000000000 PUSH0 DUP3 ADD MSTORE POP JUMP JUMPDEST PUSH0 PUSH2 0x1A46 PUSH1 0x13 DUP4 PUSH2 0x1A02 JUMP JUMPDEST SWAP2 POP PUSH2 0x1A51 DUP3 PUSH2 0x1A12 JUMP JUMPDEST PUSH1 0x20 DUP3 ADD SWAP1 POP SWAP2 SWAP1 POP JUMP JUMPDEST PUSH0 PUSH1 0x20 DUP3 ADD SWAP1 POP DUP2 DUP2 SUB PUSH0 DUP4 ADD MSTORE PUSH2 0x1A73 DUP2 PUSH2 0x1A3A JUMP JUMPDEST SWAP1 POP SWAP2 SWAP1 POP JUMP JUMPDEST PUSH32 0x566F74696E6720686173206E6F74207374617274656420796574000000000000 PUSH0 DUP3 ADD MSTORE POP JUMP JUMPDEST PUSH0 PUSH2 0x1AAE PUSH1 0x1A DUP4 PUSH2 0x1A02 JUMP JUMPDEST SWAP2 POP PUSH2 0x1AB9 DUP3 PUSH2 0x1A7A JUMP JUMPDEST PUSH1 0x20 DUP3 ADD SWAP1 POP SWAP2 SWAP1 POP JUMP JUMPDEST PUSH0 PUSH1 0x20 DUP3 ADD SWAP1 POP DUP2 DUP2 SUB PUSH0 DUP4 ADD MSTORE PUSH2 0x1ADB DUP2 PUSH2 0x1AA2 JUMP JUMPDEST SWAP1 POP SWAP2 SWAP1 POP JUMP JUMPDEST PUSH32 0x596F75206861766520616C726561647920766F74656420000000000000000000 PUSH0 DUP3 ADD MSTORE POP JUMP JUMPDEST PUSH0 PUSH2 0x1B16 PUSH1 0x17 DUP4 PUSH2 0x1A02 JUMP JUMPDEST SWAP2 POP PUSH2 0x1B21 DUP3 PUSH2 0x1AE2 JUMP JUMPDEST PUSH1 0x20 DUP3 ADD SWAP1 POP SWAP2 SWAP1 POP JUMP JUMPDEST PUSH0 PUSH1 0x20 DUP3 ADD SWAP1 POP DUP2 DUP2 SUB PUSH0 DUP4 ADD MSTORE PUSH2 0x1B43 DUP2 PUSH2 0x1B0A JUMP JUMPDEST SWAP1 POP SWAP2 SWAP1 POP JUMP JUMPDEST PUSH32 0x596F7520617265206E6F7420617574686F72697A656400000000000000000000 PUSH0 DUP3 ADD MSTORE POP JUMP JUMPDEST PUSH0 PUSH2 0x1B7E PUSH1 0x16 DUP4 PUSH2 0x1A02 JUMP JUMPDEST SWAP2 POP PUSH2 0x1B89 DUP3 PUSH2 0x1B4A JUMP JUMPDEST PUSH1 0x20 DUP3 ADD SWAP1 POP SWAP2 SWAP1 POP JUMP JUMPDEST PUSH0 PUSH1 0x20 DUP3 ADD SWAP1 POP DUP2 DUP2 SUB PUSH0 DUP4 ADD MSTORE PUSH2 0x1BAB DUP2 PUSH2 0x1B72 JUMP JUMPDEST SWAP1 POP SWAP2 SWAP1 POP JUMP JUMPDEST PUSH32 0x43616D646964617465204964206973206E6F7420436F72726563742000000000 PUSH0 DUP3 ADD MSTORE POP JUMP JUMPDEST PUSH0 PUSH2 0x1BE6 PUSH1 0x1C DUP4 PUSH2 0x1A02 JUMP JUMPDEST SWAP2 POP PUSH2 0x1BF1 DUP3 PUSH2 0x1BB2 JUMP JUMPDEST PUSH1 0x20 DUP3 ADD SWAP1 POP SWAP2 SWAP1 POP JUMP JUMPDEST PUSH0 PUSH1 0x20 DUP3 ADD SWAP1 POP DUP2 DUP2 SUB PUSH0 DUP4 ADD MSTORE PUSH2 0x1C13 DUP2 PUSH2 0x1BDA JUMP JUMPDEST SWAP1 POP SWAP2 SWAP1 POP JUMP JUMPDEST PUSH32 0x4E487B7100000000000000000000000000000000000000000000000000000000 PUSH0 MSTORE PUSH1 0x11 PUSH1 0x4 MSTORE PUSH1 0x24 PUSH0 REVERT JUMPDEST PUSH0 PUSH2 0x1C51 DUP3 PUSH2 0x1365 JUMP JUMPDEST SWAP2 POP PUSH32 0xFFFFFFFFFFFFFFFFFFFFFFFFFFFFFFFFFFFFFFFFFFFFFFFFFFFFFFFFFFFFFFFF DUP3 SUB PUSH2 0x1C83 JUMPI PUSH2 0x1C82 PUSH2 0x1C1A JUMP JUMPDEST JUMPDEST PUSH1 0x1 DUP3 ADD SWAP1 POP SWAP2 SWAP1 POP JUMP JUMPDEST PUSH32 0x4E6F7420417574687572697A6564000000000000000000000000000000000000 PUSH0 DUP3 ADD MSTORE POP JUMP JUMPDEST PUSH0 PUSH2 0x1CC2 PUSH1 0xE DUP4 PUSH2 0x1A02 JUMP JUMPDEST SWAP2 POP PUSH2 0x1CCD DUP3 PUSH2 0x1C8E JUMP JUMPDEST PUSH1 0x20 DUP3 ADD SWAP1 POP SWAP2 SWAP1 POP JUMP JUMPDEST PUSH0 PUSH1 0x20 DUP3 ADD SWAP1 POP DUP2 DUP2 SUB PUSH0 DUP4 ADD MSTORE PUSH2 0x1CEF DUP2 PUSH2 0x1CB6 JUMP JUMPDEST SWAP1 POP SWAP2 SWAP1 POP JUMP JUMPDEST PUSH32 0x6E6F7420656C696769626C6520666F7220566F74696E67000000000000000000 PUSH0 DUP3 ADD MSTORE POP JUMP JUMPDEST PUSH0 PUSH2 0x1D2A PUSH1 0x17 DUP4 PUSH2 0x1A02 JUMP JUMPDEST SWAP2 POP PUSH2 0x1D35 DUP3 PUSH2 0x1CF6 JUMP JUMPDEST PUSH1 0x20 DUP3 ADD SWAP1 POP SWAP2 SWAP1 POP JUMP JUMPDEST PUSH0 PUSH1 0x20 DUP3 ADD SWAP1 POP DUP2 DUP2 SUB PUSH0 DUP4 ADD MSTORE PUSH2 0x1D57 DUP2 PUSH2 0x1D1E JUMP JUMPDEST SWAP1 POP SWAP2 SWAP1 POP JUMP JUMPDEST PUSH32 0x596F752061726520616C72656164792052656769737465726564000000000000 PUSH0 DUP3 ADD MSTORE POP JUMP JUMPDEST PUSH0 PUSH2 0x1D92 PUSH1 0x1A DUP4 PUSH2 0x1A02 JUMP JUMPDEST SWAP2 POP PUSH2 0x1D9D DUP3 PUSH2 0x1D5E JUMP JUMPDEST PUSH1 0x20 DUP3 ADD SWAP1 POP SWAP2 SWAP1 POP JUMP JUMPDEST PUSH0 PUSH1 0x20 DUP3 ADD SWAP1 POP DUP2 DUP2 SUB PUSH0 DUP4 ADD MSTORE PUSH2 0x1DBF DUP2 PUSH2 0x1D86 JUMP JUMPDEST SWAP1 POP SWAP2 SWAP1 POP JUMP JUMPDEST PUSH32 0x4E487B7100000000000000000000000000000000000000000000000000000000 PUSH0 MSTORE PUSH1 0x41 PUSH1 0x4 MSTORE PUSH1 0x24 PUSH0 REVERT JUMPDEST PUSH32 0x4E487B7100000000000000000000000000000000000000000000000000000000 PUSH0 MSTORE PUSH1 0x22 PUSH1 0x4 MSTORE PUSH1 0x24 PUSH0 REVERT JUMPDEST PUSH0 PUSH1 0x2 DUP3 DIV SWAP1 POP PUSH1 0x1 DUP3 AND DUP1 PUSH2 0x1E37 JUMPI PUSH1 0x7F DUP3 AND SWAP2 POP JUMPDEST PUSH1 0x20 DUP3 LT DUP2 SUB PUSH2 0x1E4A JUMPI PUSH2 0x1E49 PUSH2 0x1DF3 JUMP JUMPDEST JUMPDEST POP SWAP2 SWAP1 POP JUMP JUMPDEST PUSH0 DUP2 SWAP1 POP DUP2 PUSH0 MSTORE PUSH1 0x20 PUSH0 KECCAK256 SWAP1 POP SWAP2 SWAP1 POP JUMP JUMPDEST PUSH0 PUSH1 0x20 PUSH1 0x1F DUP4 ADD DIV SWAP1 POP SWAP2 SWAP1 POP JUMP JUMPDEST PUSH0 DUP3 DUP3 SHL SWAP1 POP SWAP3 SWAP2 POP POP JUMP JUMPDEST PUSH0 PUSH1 0x8 DUP4 MUL PUSH2 0x1EAC PUSH32 0xFFFFFFFFFFFFFFFFFFFFFFFFFFFFFFFFFFFFFFFFFFFFFFFFFFFFFFFFFFFFFFFF DUP3 PUSH2 0x1E71 JUMP JUMPDEST PUSH2 0x1EB6 DUP7 DUP4 PUSH2 0x1E71 JUMP JUMPDEST SWAP6 POP DUP1 NOT DUP5 AND SWAP4 POP DUP1 DUP7 AND DUP5 OR SWAP3 POP POP POP SWAP4 SWAP3 POP POP POP JUMP JUMPDEST PUSH0 DUP2 SWAP1 POP SWAP2 SWAP1 POP JUMP JUMPDEST PUSH0 PUSH2 0x1EF1 PUSH2 0x1EEC PUSH2 0x1EE7 DUP5 PUSH2 0x1365 JUMP JUMPDEST PUSH2 0x1ECE JUMP JUMPDEST PUSH2 0x1365 JUMP JUMPDEST SWAP1 POP SWAP2 SWAP1 POP JUMP JUMPDEST PUSH0 DUP2 SWAP1 POP SWAP2 SWAP1 POP JUMP JUMPDEST PUSH2 0x1F0A DUP4 PUSH2 0x1ED7 JUMP JUMPDEST PUSH2 0x1F1E PUSH2 0x1F16 DUP3 PUSH2 0x1EF8 JUMP JUMPDEST DUP5 DUP5 SLOAD PUSH2 0x1E7D JUMP JUMPDEST DUP3 SSTORE POP POP POP POP JUMP JUMPDEST PUSH0 PUSH0 SWAP1 POP SWAP1 JUMP JUMPDEST PUSH2 0x1F35 PUSH2 0x1F26 JUMP JUMPDEST PUSH2 0x1F40 DUP2 DUP5 DUP5 PUSH2 0x1F01 JUMP JUMPDEST POP POP POP JUMP JUMPDEST JUMPDEST DUP2 DUP2 LT ISZERO PUSH2 0x1F63 JUMPI PUSH2 0x1F58 PUSH0 DUP3 PUSH2 0x1F2D JUMP JUMPDEST PUSH1 0x1 DUP2 ADD SWAP1 POP PUSH2 0x1F46 JUMP JUMPDEST POP POP JUMP JUMPDEST PUSH1 0x1F DUP3 GT ISZERO PUSH2 0x1FA8 JUMPI PUSH2 0x1F79 DUP2 PUSH2 0x1E50 JUMP JUMPDEST PUSH2 0x1F82 DUP5 PUSH2 0x1E62 JUMP JUMPDEST DUP2 ADD PUSH1 0x20 DUP6 LT ISZERO PUSH2 0x1F91 JUMPI DUP2 SWAP1 POP JUMPDEST PUSH2 0x1FA5 PUSH2 0x1F9D DUP6 PUSH2 0x1E62 JUMP JUMPDEST DUP4 ADD DUP3 PUSH2 0x1F45 JUMP JUMPDEST POP POP JUMPDEST POP POP POP JUMP JUMPDEST PUSH0 DUP3 DUP3 SHR SWAP1 POP SWAP3 SWAP2 POP POP JUMP JUMPDEST PUSH0 PUSH2 0x1FC8 PUSH0 NOT DUP5 PUSH1 0x8 MUL PUSH2 0x1FAD JUMP JUMPDEST NOT DUP1 DUP4 AND SWAP2 POP POP SWAP3 SWAP2 POP POP JUMP JUMPDEST PUSH0 PUSH2 0x1FE0 DUP4 DUP4 PUSH2 0x1FB9 JUMP JUMPDEST SWAP2 POP DUP3 PUSH1 0x2 MUL DUP3 OR SWAP1 POP SWAP3 SWAP2 POP POP JUMP JUMPDEST PUSH2 0x1FF9 DUP3 PUSH2 0x167B JUMP JUMPDEST PUSH8 0xFFFFFFFFFFFFFFFF DUP2 GT ISZERO PUSH2 0x2012 JUMPI PUSH2 0x2011 PUSH2 0x1DC6 JUMP JUMPDEST JUMPDEST PUSH2 0x201C DUP3 SLOAD PUSH2 0x1E20 JUMP JUMPDEST PUSH2 0x2027 DUP3 DUP3 DUP6 PUSH2 0x1F67 JUMP JUMPDEST PUSH0 PUSH1 0x20 SWAP1 POP PUSH1 0x1F DUP4 GT PUSH1 0x1 DUP2 EQ PUSH2 0x2058 JUMPI PUSH0 DUP5 ISZERO PUSH2 0x2046 JUMPI DUP3 DUP8 ADD MLOAD SWAP1 POP JUMPDEST PUSH2 0x2050 DUP6 DUP3 PUSH2 0x1FD5 JUMP JUMPDEST DUP7 SSTORE POP PUSH2 0x20B7 JUMP JUMPDEST PUSH1 0x1F NOT DUP5 AND PUSH2 0x2066 DUP7 PUSH2 0x1E50 JUMP JUMPDEST PUSH0 JUMPDEST DUP3 DUP2 LT ISZERO PUSH2 0x208D JUMPI DUP5 DUP10 ADD MLOAD DUP3 SSTORE PUSH1 0x1 DUP3 ADD SWAP2 POP PUSH1 0x20 DUP6 ADD SWAP5 POP PUSH1 0x20 DUP2 ADD SWAP1 POP PUSH2 0x2068 JUMP JUMPDEST DUP7 DUP4 LT ISZERO PUSH2 0x20AA JUMPI DUP5 DUP10 ADD MLOAD PUSH2 0x20A6 PUSH1 0x1F DUP10 AND DUP3 PUSH2 0x1FB9 JUMP JUMPDEST DUP4 SSTORE POP JUMPDEST PUSH1 0x1 PUSH1 0x2 DUP9 MUL ADD DUP9 SSTORE POP POP POP JUMPDEST POP POP POP POP POP POP JUMP JUMPDEST PUSH32 0x596F752061726520616C72656164792072656769737465726564000000000000 PUSH0 DUP3 ADD MSTORE POP JUMP JUMPDEST PUSH0 PUSH2 0x20F3 PUSH1 0x1A DUP4 PUSH2 0x1A02 JUMP JUMPDEST SWAP2 POP PUSH2 0x20FE DUP3 PUSH2 0x20BF JUMP JUMPDEST PUSH1 0x20 DUP3 ADD SWAP1 POP SWAP2 SWAP1 POP JUMP JUMPDEST PUSH0 PUSH1 0x20 DUP3 ADD SWAP1 POP DUP2 DUP2 SUB PUSH0 DUP4 ADD MSTORE PUSH2 0x2120 DUP2 PUSH2 0x20E7 JUMP JUMPDEST SWAP1 POP SWAP2 SWAP1 POP JUMP JUMPDEST PUSH32 0x43616E64696461746520526567697374726174696F6E2046756C6C0000000000 PUSH0 DUP3 ADD MSTORE POP JUMP JUMPDEST PUSH0 PUSH2 0x215B PUSH1 0x1B DUP4 PUSH2 0x1A02 JUMP JUMPDEST SWAP2 POP PUSH2 0x2166 DUP3 PUSH2 0x2127 JUMP JUMPDEST PUSH1 0x20 DUP3 ADD SWAP1 POP SWAP2 SWAP1 POP JUMP JUMPDEST PUSH0 PUSH1 0x20 DUP3 ADD SWAP1 POP DUP2 DUP2 SUB PUSH0 DUP4 ADD MSTORE PUSH2 0x2188 DUP2 PUSH2 0x214F JUMP JUMPDEST SWAP1 POP SWAP2 SWAP1 POP JUMP JUMPDEST PUSH32 0x456C656374696F6E20436F6D6D697373696F6E206E6F7420616C6C6F77656420 PUSH0 DUP3 ADD MSTORE PUSH32 0x746F207265676973746572000000000000000000000000000000000000000000 PUSH1 0x20 DUP3 ADD MSTORE POP JUMP JUMPDEST PUSH0 PUSH2 0x21E9 PUSH1 0x2B DUP4 PUSH2 0x1A02 JUMP JUMPDEST SWAP2 POP PUSH2 0x21F4 DUP3 PUSH2 0x218F JUMP JUMPDEST PUSH1 0x40 DUP3 ADD SWAP1 POP SWAP2 SWAP1 POP JUMP JUMPDEST PUSH0 PUSH1 0x20 DUP3 ADD SWAP1 POP DUP2 DUP2 SUB PUSH0 DUP4 ADD MSTORE PUSH2 0x2216 DUP2 PUSH2 0x21DD JUMP JUMPDEST SWAP1 POP SWAP2 SWAP1 POP JUMP JUMPDEST PUSH32 0x5F656E6454696D654475726174696F6E206D7573742062652067726561746572 PUSH0 DUP3 ADD MSTORE PUSH32 0x207468616E203120486F75720000000000000000000000000000000000000000 PUSH1 0x20 DUP3 ADD MSTORE POP JUMP JUMPDEST PUSH0 PUSH2 0x2277 PUSH1 0x2C DUP4 PUSH2 0x1A02 JUMP JUMPDEST SWAP2 POP PUSH2 0x2282 DUP3 PUSH2 0x221D JUMP JUMPDEST PUSH1 0x40 DUP3 ADD SWAP1 POP SWAP2 SWAP1 POP JUMP JUMPDEST PUSH0 PUSH1 0x20 DUP3 ADD SWAP1 POP DUP2 DUP2 SUB PUSH0 DUP4 ADD MSTORE PUSH2 0x22A4 DUP2 PUSH2 0x226B JUMP JUMPDEST SWAP1 POP SWAP2 SWAP1 POP JUMP JUMPDEST PUSH0 PUSH2 0x22B5 DUP3 PUSH2 0x1365 JUMP JUMPDEST SWAP2 POP PUSH2 0x22C0 DUP4 PUSH2 0x1365 JUMP JUMPDEST SWAP3 POP DUP3 DUP3 ADD SWAP1 POP DUP1 DUP3 GT ISZERO PUSH2 0x22D8 JUMPI PUSH2 0x22D7 PUSH2 0x1C1A JUMP JUMPDEST JUMPDEST SWAP3 SWAP2 POP POP JUMP JUMPDEST PUSH0 PUSH2 0x22E8 DUP3 PUSH2 0x1365 JUMP JUMPDEST SWAP2 POP PUSH2 0x22F3 DUP4 PUSH2 0x1365 JUMP JUMPDEST SWAP3 POP DUP3 DUP3 SUB SWAP1 POP DUP2 DUP2 GT ISZERO PUSH2 0x230B JUMPI PUSH2 0x230A PUSH2 0x1C1A JUMP JUMPDEST JUMPDEST SWAP3 SWAP2 POP POP JUMP JUMPDEST PUSH32 0x4E487B7100000000000000000000000000000000000000000000000000000000 PUSH0 MSTORE PUSH1 0x32 PUSH1 0x4 MSTORE PUSH1 0x24 PUSH0 REVERT INVALID LOG2 PUSH5 0x6970667358 0x22 SLT KECCAK256 DATALOADN 0x4139 GAS DUPN 0xE2 EXTDELEGATECALL LT MSTORE8 CALLER GT BYTE 0x4F 0xBD PUSH14 0x31087DF4AC02CAA42DBFD546F23A 0x4D PUSH1 0x61 PUSH5 0x736F6C6343 STOP ADDMOD 0x1E STOP CALLER "
				},
				"gasEstimates": {
					"creation": {
						"codeDepositCost": "1815200",
						"executionCost": "70386",
						"totalCost": "1885586"
					},
					"external": {
						"announceVotingResult()": "infinite",
						"castVote(uint256,uint256)": "infinite",
						"electionCommission()": "2551",
						"emergencyStopVotin()": "26600",
						"getCandidateList()": "infinite",
						"getVoterList()": "infinite",
						"getVotingStatus()": "6906",
						"registerCandidate(string,string,uint256,uint8)": "infinite",
						"registerVoter(string,uint256,uint8)": "infinite",
						"setVotingPeriod(uint256,uint256)": "infinite",
						"winner()": "2596"
					},
					"internal": {
						"isCandidateNotRegistered(address)": "infinite",
						"isVoterNotRegistered(address)": "infinite"
					}
				},
				"methodIdentifiers": {
					"announceVotingResult()": "6ce2ccc0",
					"castVote(uint256,uint256)": "2c0a3f89",
					"electionCommission()": "aab46b7f",
					"emergencyStopVotin()": "2d7ecc88",
					"getCandidateList()": "fdbc4006",
					"getVoterList()": "b28d92ae",
					"getVotingStatus()": "581c281c",
					"registerCandidate(string,string,uint256,uint8)": "982c777d",
					"registerVoter(string,uint256,uint8)": "81ba732f",
					"setVotingPeriod(uint256,uint256)": "a15a36c7",
					"winner()": "dfbf53ae"
				}
			},
			"storageLayout": {
				"storage": [
					{
						"astId": 33,
						"contract": "contracts/votingProject/voting.sol:Vote",
						"label": "electionCommission",
						"offset": 0,
						"slot": "0",
						"type": "t_address"
					},
					{
						"astId": 35,
						"contract": "contracts/votingProject/voting.sol:Vote",
						"label": "winner",
						"offset": 0,
						"slot": "1",
						"type": "t_address"
					},
					{
						"astId": 38,
						"contract": "contracts/votingProject/voting.sol:Vote",
						"label": "nextVoterId",
						"offset": 0,
						"slot": "2",
						"type": "t_uint256"
					},
					{
						"astId": 41,
						"contract": "contracts/votingProject/voting.sol:Vote",
						"label": "nextCandidateId",
						"offset": 0,
						"slot": "3",
						"type": "t_uint256"
					},
					{
						"astId": 43,
						"contract": "contracts/votingProject/voting.sol:Vote",
						"label": "startTime",
						"offset": 0,
						"slot": "4",
						"type": "t_uint256"
					},
					{
						"astId": 45,
						"contract": "contracts/votingProject/voting.sol:Vote",
						"label": "endTime",
						"offset": 0,
						"slot": "5",
						"type": "t_uint256"
					},
					{
						"astId": 47,
						"contract": "contracts/votingProject/voting.sol:Vote",
						"label": "stopVoting",
						"offset": 0,
						"slot": "6",
						"type": "t_bool"
					},
					{
						"astId": 52,
						"contract": "contracts/votingProject/voting.sol:Vote",
						"label": "voterDetails",
						"offset": 0,
						"slot": "7",
						"type": "t_mapping(t_uint256,t_struct(Voter)15_storage)"
					},
					{
						"astId": 57,
						"contract": "contracts/votingProject/voting.sol:Vote",
						"label": "candidateDetails",
						"offset": 0,
						"slot": "8",
						"type": "t_mapping(t_uint256,t_struct(Candidate)31_storage)"
					}
				],
				"types": {
					"t_address": {
						"encoding": "inplace",
						"label": "address",
						"numberOfBytes": "20"
					},
					"t_bool": {
						"encoding": "inplace",
						"label": "bool",
						"numberOfBytes": "1"
					},
					"t_enum(Gender)66": {
						"encoding": "inplace",
						"label": "enum Vote.Gender",
						"numberOfBytes": "1"
					},
					"t_mapping(t_uint256,t_struct(Candidate)31_storage)": {
						"encoding": "mapping",
						"key": "t_uint256",
						"label": "mapping(uint256 => struct Vote.Candidate)",
						"numberOfBytes": "32",
						"value": "t_struct(Candidate)31_storage"
					},
					"t_mapping(t_uint256,t_struct(Voter)15_storage)": {
						"encoding": "mapping",
						"key": "t_uint256",
						"label": "mapping(uint256 => struct Vote.Voter)",
						"numberOfBytes": "32",
						"value": "t_struct(Voter)15_storage"
					},
					"t_string_storage": {
						"encoding": "bytes",
						"label": "string",
						"numberOfBytes": "32"
					},
					"t_struct(Candidate)31_storage": {
						"encoding": "inplace",
						"label": "struct Vote.Candidate",
						"members": [
							{
								"astId": 17,
								"contract": "contracts/votingProject/voting.sol:Vote",
								"label": "name",
								"offset": 0,
								"slot": "0",
								"type": "t_string_storage"
							},
							{
								"astId": 19,
								"contract": "contracts/votingProject/voting.sol:Vote",
								"label": "party",
								"offset": 0,
								"slot": "1",
								"type": "t_string_storage"
							},
							{
								"astId": 21,
								"contract": "contracts/votingProject/voting.sol:Vote",
								"label": "age",
								"offset": 0,
								"slot": "2",
								"type": "t_uint256"
							},
							{
								"astId": 24,
								"contract": "contracts/votingProject/voting.sol:Vote",
								"label": "gender",
								"offset": 0,
								"slot": "3",
								"type": "t_enum(Gender)66"
							},
							{
								"astId": 26,
								"contract": "contracts/votingProject/voting.sol:Vote",
								"label": "candidateId",
								"offset": 0,
								"slot": "4",
								"type": "t_uint256"
							},
							{
								"astId": 28,
								"contract": "contracts/votingProject/voting.sol:Vote",
								"label": "candidateAddress",
								"offset": 0,
								"slot": "5",
								"type": "t_address"
							},
							{
								"astId": 30,
								"contract": "contracts/votingProject/voting.sol:Vote",
								"label": "votes",
								"offset": 0,
								"slot": "6",
								"type": "t_uint256"
							}
						],
						"numberOfBytes": "224"
					},
					"t_struct(Voter)15_storage": {
						"encoding": "inplace",
						"label": "struct Vote.Voter",
						"members": [
							{
								"astId": 3,
								"contract": "contracts/votingProject/voting.sol:Vote",
								"label": "name",
								"offset": 0,
								"slot": "0",
								"type": "t_string_storage"
							},
							{
								"astId": 5,
								"contract": "contracts/votingProject/voting.sol:Vote",
								"label": "age",
								"offset": 0,
								"slot": "1",
								"type": "t_uint256"
							},
							{
								"astId": 7,
								"contract": "contracts/votingProject/voting.sol:Vote",
								"label": "voterId",
								"offset": 0,
								"slot": "2",
								"type": "t_uint256"
							},
							{
								"astId": 10,
								"contract": "contracts/votingProject/voting.sol:Vote",
								"label": "gender",
								"offset": 0,
								"slot": "3",
								"type": "t_enum(Gender)66"
							},
							{
								"astId": 12,
								"contract": "contracts/votingProject/voting.sol:Vote",
								"label": "voterCandidateId",
								"offset": 0,
								"slot": "4",
								"type": "t_uint256"
							},
							{
								"astId": 14,
								"contract": "contracts/votingProject/voting.sol:Vote",
								"label": "voterAddress",
								"offset": 0,
								"slot": "5",
								"type": "t_address"
							}
						],
						"numberOfBytes": "192"
					},
					"t_uint256": {
						"encoding": "inplace",
						"label": "uint256",
						"numberOfBytes": "32"
					}
				}
			},
			"userdoc": {
				"kind": "user",
				"methods": {},
				"version": 1
			}
		}
	}
}