{
	"contracts/Intermediate/struct.sol": {
		"structExample": {
			"abi": [
				{
					"inputs": [],
					"name": "getDetails",
					"outputs": [
						{
							"components": [
								{
									"internalType": "string",
									"name": "name",
									"type": "string"
								},
								{
									"internalType": "uint256",
									"name": "age",
									"type": "uint256"
								},
								{
									"internalType": "bool",
									"name": "isPassed",
									"type": "bool"
								}
							],
							"internalType": "struct structExample.Student",
							"name": "",
							"type": "tuple"
						}
					],
					"stateMutability": "view",
					"type": "function"
				},
				{
					"inputs": [],
					"name": "s1",
					"outputs": [
						{
							"internalType": "string",
							"name": "name",
							"type": "string"
						},
						{
							"internalType": "uint256",
							"name": "age",
							"type": "uint256"
						},
						{
							"internalType": "bool",
							"name": "isPassed",
							"type": "bool"
						}
					],
					"stateMutability": "view",
					"type": "function"
				},
				{
					"inputs": [
						{
							"internalType": "string",
							"name": "_name",
							"type": "string"
						},
						{
							"internalType": "uint256",
							"name": "_age",
							"type": "uint256"
						},
						{
							"internalType": "bool",
							"name": "_isPassed",
							"type": "bool"
						}
					],
					"name": "setDetails",
					"outputs": [],
					"stateMutability": "nonpayable",
					"type": "function"
				}
			],
			"devdoc": {
				"kind": "dev",
				"methods": {},
				"version": 1
			},
			"evm": {
				"assembly": "    /* \"contracts/Intermediate/struct.sol\":74:597  contract structExample{... */\n  mstore(0x40, 0x80)\n  callvalue\n  dup1\n  iszero\n  tag_1\n  jumpi\n  revert(0x00, 0x00)\ntag_1:\n  pop\n  dataSize(sub_0)\n  dup1\n  dataOffset(sub_0)\n  0x00\n  codecopy\n  0x00\n  return\nstop\n\nsub_0: assembly {\n        /* \"contracts/Intermediate/struct.sol\":74:597  contract structExample{... */\n      mstore(0x40, 0x80)\n      callvalue\n      dup1\n      iszero\n      tag_1\n      jumpi\n      revert(0x00, 0x00)\n    tag_1:\n      pop\n      jumpi(tag_2, lt(calldatasize, 0x04))\n      shr(0xe0, calldataload(0x00))\n      dup1\n      0x2a26dcfb\n      eq\n      tag_3\n      jumpi\n      dup1\n      0x6cc014de\n      eq\n      tag_4\n      jumpi\n      dup1\n      0xfbbf93a0\n      eq\n      tag_5\n      jumpi\n    tag_2:\n      revert(0x00, 0x00)\n        /* \"contracts/Intermediate/struct.sol\":223:449  function setDetails(string memory _name, uint256 _age, bool _isPassed) public{... */\n    tag_3:\n      tag_6\n      0x04\n      dup1\n      calldatasize\n      sub\n      dup2\n      add\n      swap1\n      tag_7\n      swap2\n      swap1\n      tag_8\n      jump\t// in\n    tag_7:\n      tag_9\n      jump\t// in\n    tag_6:\n      stop\n        /* \"contracts/Intermediate/struct.sol\":199:216  Student public s1 */\n    tag_4:\n      tag_10\n      tag_11\n      jump\t// in\n    tag_10:\n      mload(0x40)\n      tag_12\n      swap4\n      swap3\n      swap2\n      swap1\n      tag_13\n      jump\t// in\n    tag_12:\n      mload(0x40)\n      dup1\n      swap2\n      sub\n      swap1\n      return\n        /* \"contracts/Intermediate/struct.sol\":455:594  function getDetails() public view returns(Student memory){... */\n    tag_5:\n      tag_14\n      tag_15\n      jump\t// in\n    tag_14:\n      mload(0x40)\n      tag_16\n      swap2\n      swap1\n      tag_17\n      jump\t// in\n    tag_16:\n      mload(0x40)\n      dup1\n      swap2\n      sub\n      swap1\n      return\n        /* \"contracts/Intermediate/struct.sol\":223:449  function setDetails(string memory _name, uint256 _age, bool _isPassed) public{... */\n    tag_9:\n        /* \"contracts/Intermediate/struct.sol\":316:347  Student(_name, _age, _isPassed) */\n      mload(0x40)\n      dup1\n      0x60\n      add\n      0x40\n      mstore\n      dup1\n        /* \"contracts/Intermediate/struct.sol\":324:329  _name */\n      dup5\n        /* \"contracts/Intermediate/struct.sol\":316:347  Student(_name, _age, _isPassed) */\n      dup2\n      mstore\n      0x20\n      add\n        /* \"contracts/Intermediate/struct.sol\":331:335  _age */\n      dup4\n        /* \"contracts/Intermediate/struct.sol\":316:347  Student(_name, _age, _isPassed) */\n      dup2\n      mstore\n      0x20\n      add\n        /* \"contracts/Intermediate/struct.sol\":337:346  _isPassed */\n      dup3\n        /* \"contracts/Intermediate/struct.sol\":316:347  Student(_name, _age, _isPassed) */\n      iszero\n      iszero\n      dup2\n      mstore\n      pop\n        /* \"contracts/Intermediate/struct.sol\":311:313  s1 */\n      0x00\n        /* \"contracts/Intermediate/struct.sol\":311:347  s1 = Student(_name, _age, _isPassed) */\n      0x00\n      dup3\n      add\n      mload\n      dup2\n      0x00\n      add\n      swap1\n      dup2\n      tag_19\n      swap2\n      swap1\n      tag_20\n      jump\t// in\n    tag_19:\n      pop\n      0x20\n      dup3\n      add\n      mload\n      dup2\n      0x01\n      add\n      sstore\n      0x40\n      dup3\n      add\n      mload\n      dup2\n      0x02\n      add\n      exp(0x0100, 0x00)\n      dup2\n      sload\n      dup2\n      0xff\n      mul\n      not\n      and\n      swap1\n      dup4\n      iszero\n      iszero\n      mul\n      or\n      swap1\n      sstore\n      pop\n      swap1\n      pop\n      pop\n        /* \"contracts/Intermediate/struct.sol\":223:449  function setDetails(string memory _name, uint256 _age, bool _isPassed) public{... */\n      pop\n      pop\n      pop\n      jump\t// out\n        /* \"contracts/Intermediate/struct.sol\":199:216  Student public s1 */\n    tag_11:\n      0x00\n      dup1\n      0x00\n      add\n      dup1\n      sload\n      tag_21\n      swap1\n      tag_22\n      jump\t// in\n    tag_21:\n      dup1\n      0x1f\n      add\n      0x20\n      dup1\n      swap2\n      div\n      mul\n      0x20\n      add\n      mload(0x40)\n      swap1\n      dup2\n      add\n      0x40\n      mstore\n      dup1\n      swap3\n      swap2\n      swap1\n      dup2\n      dup2\n      mstore\n      0x20\n      add\n      dup3\n      dup1\n      sload\n      tag_23\n      swap1\n      tag_22\n      jump\t// in\n    tag_23:\n      dup1\n      iszero\n      tag_24\n      jumpi\n      dup1\n      0x1f\n      lt\n      tag_25\n      jumpi\n      0x0100\n      dup1\n      dup4\n      sload\n      div\n      mul\n      dup4\n      mstore\n      swap2\n      0x20\n      add\n      swap2\n      jump(tag_24)\n    tag_25:\n      dup3\n      add\n      swap2\n      swap1\n      0x00\n      mstore\n      keccak256(0x00, 0x20)\n      swap1\n    tag_26:\n      dup2\n      sload\n      dup2\n      mstore\n      swap1\n      0x01\n      add\n      swap1\n      0x20\n      add\n      dup1\n      dup4\n      gt\n      tag_26\n      jumpi\n      dup3\n      swap1\n      sub\n      0x1f\n      and\n      dup3\n      add\n      swap2\n    tag_24:\n      pop\n      pop\n      pop\n      pop\n      pop\n      swap1\n      dup1\n      0x01\n      add\n      sload\n      swap1\n      dup1\n      0x02\n      add\n      0x00\n      swap1\n      sload\n      swap1\n      0x0100\n      exp\n      swap1\n      div\n      0xff\n      and\n      swap1\n      pop\n      dup4\n      jump\t// out\n        /* \"contracts/Intermediate/struct.sol\":455:594  function getDetails() public view returns(Student memory){... */\n    tag_15:\n        /* \"contracts/Intermediate/struct.sol\":497:511  Student memory */\n      tag_27\n      tag_28\n      jump\t// in\n    tag_27:\n        /* \"contracts/Intermediate/struct.sol\":582:584  s1 */\n      0x00\n        /* \"contracts/Intermediate/struct.sol\":575:584  return s1 */\n      mload(0x40)\n      dup1\n      0x60\n      add\n      0x40\n      mstore\n      swap1\n      dup2\n      0x00\n      dup3\n      add\n      dup1\n      sload\n      tag_30\n      swap1\n      tag_22\n      jump\t// in\n    tag_30:\n      dup1\n      0x1f\n      add\n      0x20\n      dup1\n      swap2\n      div\n      mul\n      0x20\n      add\n      mload(0x40)\n      swap1\n      dup2\n      add\n      0x40\n      mstore\n      dup1\n      swap3\n      swap2\n      swap1\n      dup2\n      dup2\n      mstore\n      0x20\n      add\n      dup3\n      dup1\n      sload\n      tag_31\n      swap1\n      tag_22\n      jump\t// in\n    tag_31:\n      dup1\n      iszero\n      tag_32\n      jumpi\n      dup1\n      0x1f\n      lt\n      tag_33\n      jumpi\n      0x0100\n      dup1\n      dup4\n      sload\n      div\n      mul\n      dup4\n      mstore\n      swap2\n      0x20\n      add\n      swap2\n      jump(tag_32)\n    tag_33:\n      dup3\n      add\n      swap2\n      swap1\n      0x00\n      mstore\n      keccak256(0x00, 0x20)\n      swap1\n    tag_34:\n      dup2\n      sload\n      dup2\n      mstore\n      swap1\n      0x01\n      add\n      swap1\n      0x20\n      add\n      dup1\n      dup4\n      gt\n      tag_34\n      jumpi\n      dup3\n      swap1\n      sub\n      0x1f\n      and\n      dup3\n      add\n      swap2\n    tag_32:\n      pop\n      pop\n      pop\n      pop\n      pop\n      dup2\n      mstore\n      0x20\n      add\n      0x01\n      dup3\n      add\n      sload\n      dup2\n      mstore\n      0x20\n      add\n      0x02\n      dup3\n      add\n      0x00\n      swap1\n      sload\n      swap1\n      0x0100\n      exp\n      swap1\n      div\n      0xff\n      and\n      iszero\n      iszero\n      iszero\n      iszero\n      dup2\n      mstore\n      pop\n      pop\n      swap1\n      pop\n        /* \"contracts/Intermediate/struct.sol\":455:594  function getDetails() public view returns(Student memory){... */\n      swap1\n      jump\t// out\n    tag_28:\n      mload(0x40)\n      dup1\n      0x60\n      add\n      0x40\n      mstore\n      dup1\n      0x60\n      dup2\n      mstore\n      0x20\n      add\n      0x00\n      dup2\n      mstore\n      0x20\n      add\n      iszero(iszero(0x00))\n      dup2\n      mstore\n      pop\n      swap1\n      jump\t// out\n        /* \"#utility.yul\":7:82   */\n    tag_35:\n        /* \"#utility.yul\":40:46   */\n      0x00\n        /* \"#utility.yul\":73:75   */\n      0x40\n        /* \"#utility.yul\":67:76   */\n      mload\n        /* \"#utility.yul\":57:76   */\n      swap1\n      pop\n        /* \"#utility.yul\":7:82   */\n      swap1\n      jump\t// out\n        /* \"#utility.yul\":88:205   */\n    tag_36:\n        /* \"#utility.yul\":197:198   */\n      0x00\n        /* \"#utility.yul\":194:195   */\n      0x00\n        /* \"#utility.yul\":187:199   */\n      revert\n        /* \"#utility.yul\":211:328   */\n    tag_37:\n        /* \"#utility.yul\":320:321   */\n      0x00\n        /* \"#utility.yul\":317:318   */\n      0x00\n        /* \"#utility.yul\":310:322   */\n      revert\n        /* \"#utility.yul\":334:451   */\n    tag_38:\n        /* \"#utility.yul\":443:444   */\n      0x00\n        /* \"#utility.yul\":440:441   */\n      0x00\n        /* \"#utility.yul\":433:445   */\n      revert\n        /* \"#utility.yul\":457:574   */\n    tag_39:\n        /* \"#utility.yul\":566:567   */\n      0x00\n        /* \"#utility.yul\":563:564   */\n      0x00\n        /* \"#utility.yul\":556:568   */\n      revert\n        /* \"#utility.yul\":580:682   */\n    tag_40:\n        /* \"#utility.yul\":621:627   */\n      0x00\n        /* \"#utility.yul\":672:674   */\n      0x1f\n        /* \"#utility.yul\":668:675   */\n      not\n        /* \"#utility.yul\":663:665   */\n      0x1f\n        /* \"#utility.yul\":656:661   */\n      dup4\n        /* \"#utility.yul\":652:666   */\n      add\n        /* \"#utility.yul\":648:676   */\n      and\n        /* \"#utility.yul\":638:676   */\n      swap1\n      pop\n        /* \"#utility.yul\":580:682   */\n      swap2\n      swap1\n      pop\n      jump\t// out\n        /* \"#utility.yul\":688:868   */\n    tag_41:\n        /* \"#utility.yul\":736:813   */\n      0x4e487b7100000000000000000000000000000000000000000000000000000000\n        /* \"#utility.yul\":733:734   */\n      0x00\n        /* \"#utility.yul\":726:814   */\n      mstore\n        /* \"#utility.yul\":833:837   */\n      0x41\n        /* \"#utility.yul\":830:831   */\n      0x04\n        /* \"#utility.yul\":823:838   */\n      mstore\n        /* \"#utility.yul\":857:861   */\n      0x24\n        /* \"#utility.yul\":854:855   */\n      0x00\n        /* \"#utility.yul\":847:862   */\n      revert\n        /* \"#utility.yul\":874:1155   */\n    tag_42:\n        /* \"#utility.yul\":957:984   */\n      tag_90\n        /* \"#utility.yul\":979:983   */\n      dup3\n        /* \"#utility.yul\":957:984   */\n      tag_40\n      jump\t// in\n    tag_90:\n        /* \"#utility.yul\":949:955   */\n      dup2\n        /* \"#utility.yul\":945:985   */\n      add\n        /* \"#utility.yul\":1087:1093   */\n      dup2\n        /* \"#utility.yul\":1075:1085   */\n      dup2\n        /* \"#utility.yul\":1072:1094   */\n      lt\n        /* \"#utility.yul\":1051:1069   */\n      0xffffffffffffffff\n        /* \"#utility.yul\":1039:1049   */\n      dup3\n        /* \"#utility.yul\":1036:1070   */\n      gt\n        /* \"#utility.yul\":1033:1095   */\n      or\n        /* \"#utility.yul\":1030:1118   */\n      iszero\n      tag_91\n      jumpi\n        /* \"#utility.yul\":1098:1116   */\n      tag_92\n      tag_41\n      jump\t// in\n    tag_92:\n        /* \"#utility.yul\":1030:1118   */\n    tag_91:\n        /* \"#utility.yul\":1138:1148   */\n      dup1\n        /* \"#utility.yul\":1134:1136   */\n      0x40\n        /* \"#utility.yul\":1127:1149   */\n      mstore\n        /* \"#utility.yul\":917:1155   */\n      pop\n        /* \"#utility.yul\":874:1155   */\n      pop\n      pop\n      jump\t// out\n        /* \"#utility.yul\":1161:1290   */\n    tag_43:\n        /* \"#utility.yul\":1195:1201   */\n      0x00\n        /* \"#utility.yul\":1222:1242   */\n      tag_94\n      tag_35\n      jump\t// in\n    tag_94:\n        /* \"#utility.yul\":1212:1242   */\n      swap1\n      pop\n        /* \"#utility.yul\":1251:1284   */\n      tag_95\n        /* \"#utility.yul\":1279:1283   */\n      dup3\n        /* \"#utility.yul\":1271:1277   */\n      dup3\n        /* \"#utility.yul\":1251:1284   */\n      tag_42\n      jump\t// in\n    tag_95:\n        /* \"#utility.yul\":1161:1290   */\n      swap2\n      swap1\n      pop\n      jump\t// out\n        /* \"#utility.yul\":1296:1604   */\n    tag_44:\n        /* \"#utility.yul\":1358:1362   */\n      0x00\n        /* \"#utility.yul\":1448:1466   */\n      0xffffffffffffffff\n        /* \"#utility.yul\":1440:1446   */\n      dup3\n        /* \"#utility.yul\":1437:1467   */\n      gt\n        /* \"#utility.yul\":1434:1490   */\n      iszero\n      tag_97\n      jumpi\n        /* \"#utility.yul\":1470:1488   */\n      tag_98\n      tag_41\n      jump\t// in\n    tag_98:\n        /* \"#utility.yul\":1434:1490   */\n    tag_97:\n        /* \"#utility.yul\":1508:1537   */\n      tag_99\n        /* \"#utility.yul\":1530:1536   */\n      dup3\n        /* \"#utility.yul\":1508:1537   */\n      tag_40\n      jump\t// in\n    tag_99:\n        /* \"#utility.yul\":1500:1537   */\n      swap1\n      pop\n        /* \"#utility.yul\":1592:1596   */\n      0x20\n        /* \"#utility.yul\":1586:1590   */\n      dup2\n        /* \"#utility.yul\":1582:1597   */\n      add\n        /* \"#utility.yul\":1574:1597   */\n      swap1\n      pop\n        /* \"#utility.yul\":1296:1604   */\n      swap2\n      swap1\n      pop\n      jump\t// out\n        /* \"#utility.yul\":1610:1758   */\n    tag_45:\n        /* \"#utility.yul\":1708:1714   */\n      dup3\n        /* \"#utility.yul\":1703:1706   */\n      dup2\n        /* \"#utility.yul\":1698:1701   */\n      dup4\n        /* \"#utility.yul\":1685:1715   */\n      calldatacopy\n        /* \"#utility.yul\":1749:1750   */\n      0x00\n        /* \"#utility.yul\":1740:1746   */\n      dup4\n        /* \"#utility.yul\":1735:1738   */\n      dup4\n        /* \"#utility.yul\":1731:1747   */\n      add\n        /* \"#utility.yul\":1724:1751   */\n      mstore\n        /* \"#utility.yul\":1610:1758   */\n      pop\n      pop\n      pop\n      jump\t// out\n        /* \"#utility.yul\":1764:2189   */\n    tag_46:\n        /* \"#utility.yul\":1842:1847   */\n      0x00\n        /* \"#utility.yul\":1867:1933   */\n      tag_102\n        /* \"#utility.yul\":1883:1932   */\n      tag_103\n        /* \"#utility.yul\":1925:1931   */\n      dup5\n        /* \"#utility.yul\":1883:1932   */\n      tag_44\n      jump\t// in\n    tag_103:\n        /* \"#utility.yul\":1867:1933   */\n      tag_43\n      jump\t// in\n    tag_102:\n        /* \"#utility.yul\":1858:1933   */\n      swap1\n      pop\n        /* \"#utility.yul\":1956:1962   */\n      dup3\n        /* \"#utility.yul\":1949:1954   */\n      dup2\n        /* \"#utility.yul\":1942:1963   */\n      mstore\n        /* \"#utility.yul\":1994:1998   */\n      0x20\n        /* \"#utility.yul\":1987:1992   */\n      dup2\n        /* \"#utility.yul\":1983:1999   */\n      add\n        /* \"#utility.yul\":2032:2035   */\n      dup5\n        /* \"#utility.yul\":2023:2029   */\n      dup5\n        /* \"#utility.yul\":2018:2021   */\n      dup5\n        /* \"#utility.yul\":2014:2030   */\n      add\n        /* \"#utility.yul\":2011:2036   */\n      gt\n        /* \"#utility.yul\":2008:2120   */\n      iszero\n      tag_104\n      jumpi\n        /* \"#utility.yul\":2039:2118   */\n      tag_105\n      tag_39\n      jump\t// in\n    tag_105:\n        /* \"#utility.yul\":2008:2120   */\n    tag_104:\n        /* \"#utility.yul\":2129:2183   */\n      tag_106\n        /* \"#utility.yul\":2176:2182   */\n      dup5\n        /* \"#utility.yul\":2171:2174   */\n      dup3\n        /* \"#utility.yul\":2166:2169   */\n      dup6\n        /* \"#utility.yul\":2129:2183   */\n      tag_45\n      jump\t// in\n    tag_106:\n        /* \"#utility.yul\":1848:2189   */\n      pop\n        /* \"#utility.yul\":1764:2189   */\n      swap4\n      swap3\n      pop\n      pop\n      pop\n      jump\t// out\n        /* \"#utility.yul\":2209:2549   */\n    tag_47:\n        /* \"#utility.yul\":2265:2270   */\n      0x00\n        /* \"#utility.yul\":2314:2317   */\n      dup3\n        /* \"#utility.yul\":2307:2311   */\n      0x1f\n        /* \"#utility.yul\":2299:2305   */\n      dup4\n        /* \"#utility.yul\":2295:2312   */\n      add\n        /* \"#utility.yul\":2291:2318   */\n      slt\n        /* \"#utility.yul\":2281:2403   */\n      tag_108\n      jumpi\n        /* \"#utility.yul\":2322:2401   */\n      tag_109\n      tag_38\n      jump\t// in\n    tag_109:\n        /* \"#utility.yul\":2281:2403   */\n    tag_108:\n        /* \"#utility.yul\":2439:2445   */\n      dup2\n        /* \"#utility.yul\":2426:2446   */\n      calldataload\n        /* \"#utility.yul\":2464:2543   */\n      tag_110\n        /* \"#utility.yul\":2539:2542   */\n      dup5\n        /* \"#utility.yul\":2531:2537   */\n      dup3\n        /* \"#utility.yul\":2524:2528   */\n      0x20\n        /* \"#utility.yul\":2516:2522   */\n      dup7\n        /* \"#utility.yul\":2512:2529   */\n      add\n        /* \"#utility.yul\":2464:2543   */\n      tag_46\n      jump\t// in\n    tag_110:\n        /* \"#utility.yul\":2455:2543   */\n      swap2\n      pop\n        /* \"#utility.yul\":2271:2549   */\n      pop\n        /* \"#utility.yul\":2209:2549   */\n      swap3\n      swap2\n      pop\n      pop\n      jump\t// out\n        /* \"#utility.yul\":2555:2632   */\n    tag_48:\n        /* \"#utility.yul\":2592:2599   */\n      0x00\n        /* \"#utility.yul\":2621:2626   */\n      dup2\n        /* \"#utility.yul\":2610:2626   */\n      swap1\n      pop\n        /* \"#utility.yul\":2555:2632   */\n      swap2\n      swap1\n      pop\n      jump\t// out\n        /* \"#utility.yul\":2638:2760   */\n    tag_49:\n        /* \"#utility.yul\":2711:2735   */\n      tag_113\n        /* \"#utility.yul\":2729:2734   */\n      dup2\n        /* \"#utility.yul\":2711:2735   */\n      tag_48\n      jump\t// in\n    tag_113:\n        /* \"#utility.yul\":2704:2709   */\n      dup2\n        /* \"#utility.yul\":2701:2736   */\n      eq\n        /* \"#utility.yul\":2691:2754   */\n      tag_114\n      jumpi\n        /* \"#utility.yul\":2750:2751   */\n      0x00\n        /* \"#utility.yul\":2747:2748   */\n      0x00\n        /* \"#utility.yul\":2740:2752   */\n      revert\n        /* \"#utility.yul\":2691:2754   */\n    tag_114:\n        /* \"#utility.yul\":2638:2760   */\n      pop\n      jump\t// out\n        /* \"#utility.yul\":2766:2905   */\n    tag_50:\n        /* \"#utility.yul\":2812:2817   */\n      0x00\n        /* \"#utility.yul\":2850:2856   */\n      dup2\n        /* \"#utility.yul\":2837:2857   */\n      calldataload\n        /* \"#utility.yul\":2828:2857   */\n      swap1\n      pop\n        /* \"#utility.yul\":2866:2899   */\n      tag_116\n        /* \"#utility.yul\":2893:2898   */\n      dup2\n        /* \"#utility.yul\":2866:2899   */\n      tag_49\n      jump\t// in\n    tag_116:\n        /* \"#utility.yul\":2766:2905   */\n      swap3\n      swap2\n      pop\n      pop\n      jump\t// out\n        /* \"#utility.yul\":2911:3001   */\n    tag_51:\n        /* \"#utility.yul\":2945:2952   */\n      0x00\n        /* \"#utility.yul\":2988:2993   */\n      dup2\n        /* \"#utility.yul\":2981:2994   */\n      iszero\n        /* \"#utility.yul\":2974:2995   */\n      iszero\n        /* \"#utility.yul\":2963:2995   */\n      swap1\n      pop\n        /* \"#utility.yul\":2911:3001   */\n      swap2\n      swap1\n      pop\n      jump\t// out\n        /* \"#utility.yul\":3007:3123   */\n    tag_52:\n        /* \"#utility.yul\":3077:3098   */\n      tag_119\n        /* \"#utility.yul\":3092:3097   */\n      dup2\n        /* \"#utility.yul\":3077:3098   */\n      tag_51\n      jump\t// in\n    tag_119:\n        /* \"#utility.yul\":3070:3075   */\n      dup2\n        /* \"#utility.yul\":3067:3099   */\n      eq\n        /* \"#utility.yul\":3057:3117   */\n      tag_120\n      jumpi\n        /* \"#utility.yul\":3113:3114   */\n      0x00\n        /* \"#utility.yul\":3110:3111   */\n      0x00\n        /* \"#utility.yul\":3103:3115   */\n      revert\n        /* \"#utility.yul\":3057:3117   */\n    tag_120:\n        /* \"#utility.yul\":3007:3123   */\n      pop\n      jump\t// out\n        /* \"#utility.yul\":3129:3262   */\n    tag_53:\n        /* \"#utility.yul\":3172:3177   */\n      0x00\n        /* \"#utility.yul\":3210:3216   */\n      dup2\n        /* \"#utility.yul\":3197:3217   */\n      calldataload\n        /* \"#utility.yul\":3188:3217   */\n      swap1\n      pop\n        /* \"#utility.yul\":3226:3256   */\n      tag_122\n        /* \"#utility.yul\":3250:3255   */\n      dup2\n        /* \"#utility.yul\":3226:3256   */\n      tag_52\n      jump\t// in\n    tag_122:\n        /* \"#utility.yul\":3129:3262   */\n      swap3\n      swap2\n      pop\n      pop\n      jump\t// out\n        /* \"#utility.yul\":3268:4061   */\n    tag_8:\n        /* \"#utility.yul\":3352:3358   */\n      0x00\n        /* \"#utility.yul\":3360:3366   */\n      0x00\n        /* \"#utility.yul\":3368:3374   */\n      0x00\n        /* \"#utility.yul\":3417:3419   */\n      0x60\n        /* \"#utility.yul\":3405:3414   */\n      dup5\n        /* \"#utility.yul\":3396:3403   */\n      dup7\n        /* \"#utility.yul\":3392:3415   */\n      sub\n        /* \"#utility.yul\":3388:3420   */\n      slt\n        /* \"#utility.yul\":3385:3504   */\n      iszero\n      tag_124\n      jumpi\n        /* \"#utility.yul\":3423:3502   */\n      tag_125\n      tag_36\n      jump\t// in\n    tag_125:\n        /* \"#utility.yul\":3385:3504   */\n    tag_124:\n        /* \"#utility.yul\":3571:3572   */\n      0x00\n        /* \"#utility.yul\":3560:3569   */\n      dup5\n        /* \"#utility.yul\":3556:3573   */\n      add\n        /* \"#utility.yul\":3543:3574   */\n      calldataload\n        /* \"#utility.yul\":3601:3619   */\n      0xffffffffffffffff\n        /* \"#utility.yul\":3593:3599   */\n      dup2\n        /* \"#utility.yul\":3590:3620   */\n      gt\n        /* \"#utility.yul\":3587:3704   */\n      iszero\n      tag_126\n      jumpi\n        /* \"#utility.yul\":3623:3702   */\n      tag_127\n      tag_37\n      jump\t// in\n    tag_127:\n        /* \"#utility.yul\":3587:3704   */\n    tag_126:\n        /* \"#utility.yul\":3728:3791   */\n      tag_128\n        /* \"#utility.yul\":3783:3790   */\n      dup7\n        /* \"#utility.yul\":3774:3780   */\n      dup3\n        /* \"#utility.yul\":3763:3772   */\n      dup8\n        /* \"#utility.yul\":3759:3781   */\n      add\n        /* \"#utility.yul\":3728:3791   */\n      tag_47\n      jump\t// in\n    tag_128:\n        /* \"#utility.yul\":3718:3791   */\n      swap4\n      pop\n        /* \"#utility.yul\":3514:3801   */\n      pop\n        /* \"#utility.yul\":3840:3842   */\n      0x20\n        /* \"#utility.yul\":3866:3919   */\n      tag_129\n        /* \"#utility.yul\":3911:3918   */\n      dup7\n        /* \"#utility.yul\":3902:3908   */\n      dup3\n        /* \"#utility.yul\":3891:3900   */\n      dup8\n        /* \"#utility.yul\":3887:3909   */\n      add\n        /* \"#utility.yul\":3866:3919   */\n      tag_50\n      jump\t// in\n    tag_129:\n        /* \"#utility.yul\":3856:3919   */\n      swap3\n      pop\n        /* \"#utility.yul\":3811:3929   */\n      pop\n        /* \"#utility.yul\":3968:3970   */\n      0x40\n        /* \"#utility.yul\":3994:4044   */\n      tag_130\n        /* \"#utility.yul\":4036:4043   */\n      dup7\n        /* \"#utility.yul\":4027:4033   */\n      dup3\n        /* \"#utility.yul\":4016:4025   */\n      dup8\n        /* \"#utility.yul\":4012:4034   */\n      add\n        /* \"#utility.yul\":3994:4044   */\n      tag_53\n      jump\t// in\n    tag_130:\n        /* \"#utility.yul\":3984:4044   */\n      swap2\n      pop\n        /* \"#utility.yul\":3939:4054   */\n      pop\n        /* \"#utility.yul\":3268:4061   */\n      swap3\n      pop\n      swap3\n      pop\n      swap3\n      jump\t// out\n        /* \"#utility.yul\":4067:4166   */\n    tag_54:\n        /* \"#utility.yul\":4119:4125   */\n      0x00\n        /* \"#utility.yul\":4153:4158   */\n      dup2\n        /* \"#utility.yul\":4147:4159   */\n      mload\n        /* \"#utility.yul\":4137:4159   */\n      swap1\n      pop\n        /* \"#utility.yul\":4067:4166   */\n      swap2\n      swap1\n      pop\n      jump\t// out\n        /* \"#utility.yul\":4172:4341   */\n    tag_55:\n        /* \"#utility.yul\":4256:4267   */\n      0x00\n        /* \"#utility.yul\":4290:4296   */\n      dup3\n        /* \"#utility.yul\":4285:4288   */\n      dup3\n        /* \"#utility.yul\":4278:4297   */\n      mstore\n        /* \"#utility.yul\":4330:4334   */\n      0x20\n        /* \"#utility.yul\":4325:4328   */\n      dup3\n        /* \"#utility.yul\":4321:4335   */\n      add\n        /* \"#utility.yul\":4306:4335   */\n      swap1\n      pop\n        /* \"#utility.yul\":4172:4341   */\n      swap3\n      swap2\n      pop\n      pop\n      jump\t// out\n        /* \"#utility.yul\":4347:4486   */\n    tag_56:\n        /* \"#utility.yul\":4436:4442   */\n      dup3\n        /* \"#utility.yul\":4431:4434   */\n      dup2\n        /* \"#utility.yul\":4426:4429   */\n      dup4\n        /* \"#utility.yul\":4420:4443   */\n      mcopy\n        /* \"#utility.yul\":4477:4478   */\n      0x00\n        /* \"#utility.yul\":4468:4474   */\n      dup4\n        /* \"#utility.yul\":4463:4466   */\n      dup4\n        /* \"#utility.yul\":4459:4475   */\n      add\n        /* \"#utility.yul\":4452:4479   */\n      mstore\n        /* \"#utility.yul\":4347:4486   */\n      pop\n      pop\n      pop\n      jump\t// out\n        /* \"#utility.yul\":4492:4869   */\n    tag_57:\n        /* \"#utility.yul\":4580:4583   */\n      0x00\n        /* \"#utility.yul\":4608:4647   */\n      tag_135\n        /* \"#utility.yul\":4641:4646   */\n      dup3\n        /* \"#utility.yul\":4608:4647   */\n      tag_54\n      jump\t// in\n    tag_135:\n        /* \"#utility.yul\":4663:4734   */\n      tag_136\n        /* \"#utility.yul\":4727:4733   */\n      dup2\n        /* \"#utility.yul\":4722:4725   */\n      dup6\n        /* \"#utility.yul\":4663:4734   */\n      tag_55\n      jump\t// in\n    tag_136:\n        /* \"#utility.yul\":4656:4734   */\n      swap4\n      pop\n        /* \"#utility.yul\":4743:4808   */\n      tag_137\n        /* \"#utility.yul\":4801:4807   */\n      dup2\n        /* \"#utility.yul\":4796:4799   */\n      dup6\n        /* \"#utility.yul\":4789:4793   */\n      0x20\n        /* \"#utility.yul\":4782:4787   */\n      dup7\n        /* \"#utility.yul\":4778:4794   */\n      add\n        /* \"#utility.yul\":4743:4808   */\n      tag_56\n      jump\t// in\n    tag_137:\n        /* \"#utility.yul\":4833:4862   */\n      tag_138\n        /* \"#utility.yul\":4855:4861   */\n      dup2\n        /* \"#utility.yul\":4833:4862   */\n      tag_40\n      jump\t// in\n    tag_138:\n        /* \"#utility.yul\":4828:4831   */\n      dup5\n        /* \"#utility.yul\":4824:4863   */\n      add\n        /* \"#utility.yul\":4817:4863   */\n      swap2\n      pop\n        /* \"#utility.yul\":4584:4869   */\n      pop\n        /* \"#utility.yul\":4492:4869   */\n      swap3\n      swap2\n      pop\n      pop\n      jump\t// out\n        /* \"#utility.yul\":4875:4993   */\n    tag_58:\n        /* \"#utility.yul\":4962:4986   */\n      tag_140\n        /* \"#utility.yul\":4980:4985   */\n      dup2\n        /* \"#utility.yul\":4962:4986   */\n      tag_48\n      jump\t// in\n    tag_140:\n        /* \"#utility.yul\":4957:4960   */\n      dup3\n        /* \"#utility.yul\":4950:4987   */\n      mstore\n        /* \"#utility.yul\":4875:4993   */\n      pop\n      pop\n      jump\t// out\n        /* \"#utility.yul\":4999:5108   */\n    tag_59:\n        /* \"#utility.yul\":5080:5101   */\n      tag_142\n        /* \"#utility.yul\":5095:5100   */\n      dup2\n        /* \"#utility.yul\":5080:5101   */\n      tag_51\n      jump\t// in\n    tag_142:\n        /* \"#utility.yul\":5075:5078   */\n      dup3\n        /* \"#utility.yul\":5068:5102   */\n      mstore\n        /* \"#utility.yul\":4999:5108   */\n      pop\n      pop\n      jump\t// out\n        /* \"#utility.yul\":5114:5635   */\n    tag_13:\n        /* \"#utility.yul\":5277:5281   */\n      0x00\n        /* \"#utility.yul\":5315:5317   */\n      0x60\n        /* \"#utility.yul\":5304:5313   */\n      dup3\n        /* \"#utility.yul\":5300:5318   */\n      add\n        /* \"#utility.yul\":5292:5318   */\n      swap1\n      pop\n        /* \"#utility.yul\":5364:5373   */\n      dup2\n        /* \"#utility.yul\":5358:5362   */\n      dup2\n        /* \"#utility.yul\":5354:5374   */\n      sub\n        /* \"#utility.yul\":5350:5351   */\n      0x00\n        /* \"#utility.yul\":5339:5348   */\n      dup4\n        /* \"#utility.yul\":5335:5352   */\n      add\n        /* \"#utility.yul\":5328:5375   */\n      mstore\n        /* \"#utility.yul\":5392:5470   */\n      tag_144\n        /* \"#utility.yul\":5465:5469   */\n      dup2\n        /* \"#utility.yul\":5456:5462   */\n      dup7\n        /* \"#utility.yul\":5392:5470   */\n      tag_57\n      jump\t// in\n    tag_144:\n        /* \"#utility.yul\":5384:5470   */\n      swap1\n      pop\n        /* \"#utility.yul\":5480:5552   */\n      tag_145\n        /* \"#utility.yul\":5548:5550   */\n      0x20\n        /* \"#utility.yul\":5537:5546   */\n      dup4\n        /* \"#utility.yul\":5533:5551   */\n      add\n        /* \"#utility.yul\":5524:5530   */\n      dup6\n        /* \"#utility.yul\":5480:5552   */\n      tag_58\n      jump\t// in\n    tag_145:\n        /* \"#utility.yul\":5562:5628   */\n      tag_146\n        /* \"#utility.yul\":5624:5626   */\n      0x40\n        /* \"#utility.yul\":5613:5622   */\n      dup4\n        /* \"#utility.yul\":5609:5627   */\n      add\n        /* \"#utility.yul\":5600:5606   */\n      dup5\n        /* \"#utility.yul\":5562:5628   */\n      tag_59\n      jump\t// in\n    tag_146:\n        /* \"#utility.yul\":5114:5635   */\n      swap5\n      swap4\n      pop\n      pop\n      pop\n      pop\n      jump\t// out\n        /* \"#utility.yul\":5641:5800   */\n    tag_60:\n        /* \"#utility.yul\":5715:5726   */\n      0x00\n        /* \"#utility.yul\":5749:5755   */\n      dup3\n        /* \"#utility.yul\":5744:5747   */\n      dup3\n        /* \"#utility.yul\":5737:5756   */\n      mstore\n        /* \"#utility.yul\":5789:5793   */\n      0x20\n        /* \"#utility.yul\":5784:5787   */\n      dup3\n        /* \"#utility.yul\":5780:5794   */\n      add\n        /* \"#utility.yul\":5765:5794   */\n      swap1\n      pop\n        /* \"#utility.yul\":5641:5800   */\n      swap3\n      swap2\n      pop\n      pop\n      jump\t// out\n        /* \"#utility.yul\":5806:6163   */\n    tag_61:\n        /* \"#utility.yul\":5884:5887   */\n      0x00\n        /* \"#utility.yul\":5912:5951   */\n      tag_149\n        /* \"#utility.yul\":5945:5950   */\n      dup3\n        /* \"#utility.yul\":5912:5951   */\n      tag_54\n      jump\t// in\n    tag_149:\n        /* \"#utility.yul\":5967:6028   */\n      tag_150\n        /* \"#utility.yul\":6021:6027   */\n      dup2\n        /* \"#utility.yul\":6016:6019   */\n      dup6\n        /* \"#utility.yul\":5967:6028   */\n      tag_60\n      jump\t// in\n    tag_150:\n        /* \"#utility.yul\":5960:6028   */\n      swap4\n      pop\n        /* \"#utility.yul\":6037:6102   */\n      tag_151\n        /* \"#utility.yul\":6095:6101   */\n      dup2\n        /* \"#utility.yul\":6090:6093   */\n      dup6\n        /* \"#utility.yul\":6083:6087   */\n      0x20\n        /* \"#utility.yul\":6076:6081   */\n      dup7\n        /* \"#utility.yul\":6072:6088   */\n      add\n        /* \"#utility.yul\":6037:6102   */\n      tag_56\n      jump\t// in\n    tag_151:\n        /* \"#utility.yul\":6127:6156   */\n      tag_152\n        /* \"#utility.yul\":6149:6155   */\n      dup2\n        /* \"#utility.yul\":6127:6156   */\n      tag_40\n      jump\t// in\n    tag_152:\n        /* \"#utility.yul\":6122:6125   */\n      dup5\n        /* \"#utility.yul\":6118:6157   */\n      add\n        /* \"#utility.yul\":6111:6157   */\n      swap2\n      pop\n        /* \"#utility.yul\":5888:6163   */\n      pop\n        /* \"#utility.yul\":5806:6163   */\n      swap3\n      swap2\n      pop\n      pop\n      jump\t// out\n        /* \"#utility.yul\":6169:6277   */\n    tag_62:\n        /* \"#utility.yul\":6246:6270   */\n      tag_154\n        /* \"#utility.yul\":6264:6269   */\n      dup2\n        /* \"#utility.yul\":6246:6270   */\n      tag_48\n      jump\t// in\n    tag_154:\n        /* \"#utility.yul\":6241:6244   */\n      dup3\n        /* \"#utility.yul\":6234:6271   */\n      mstore\n        /* \"#utility.yul\":6169:6277   */\n      pop\n      pop\n      jump\t// out\n        /* \"#utility.yul\":6283:6382   */\n    tag_63:\n        /* \"#utility.yul\":6354:6375   */\n      tag_156\n        /* \"#utility.yul\":6369:6374   */\n      dup2\n        /* \"#utility.yul\":6354:6375   */\n      tag_51\n      jump\t// in\n    tag_156:\n        /* \"#utility.yul\":6349:6352   */\n      dup3\n        /* \"#utility.yul\":6342:6376   */\n      mstore\n        /* \"#utility.yul\":6283:6382   */\n      pop\n      pop\n      jump\t// out\n        /* \"#utility.yul\":6456:7227   */\n    tag_64:\n        /* \"#utility.yul\":6569:6572   */\n      0x00\n        /* \"#utility.yul\":6605:6609   */\n      0x60\n        /* \"#utility.yul\":6600:6603   */\n      dup4\n        /* \"#utility.yul\":6596:6610   */\n      add\n        /* \"#utility.yul\":6692:6696   */\n      0x00\n        /* \"#utility.yul\":6685:6690   */\n      dup4\n        /* \"#utility.yul\":6681:6697   */\n      add\n        /* \"#utility.yul\":6675:6698   */\n      mload\n        /* \"#utility.yul\":6745:6748   */\n      dup5\n        /* \"#utility.yul\":6739:6743   */\n      dup3\n        /* \"#utility.yul\":6735:6749   */\n      sub\n        /* \"#utility.yul\":6728:6732   */\n      0x00\n        /* \"#utility.yul\":6723:6726   */\n      dup7\n        /* \"#utility.yul\":6719:6733   */\n      add\n        /* \"#utility.yul\":6712:6750   */\n      mstore\n        /* \"#utility.yul\":6771:6844   */\n      tag_158\n        /* \"#utility.yul\":6839:6843   */\n      dup3\n        /* \"#utility.yul\":6825:6837   */\n      dup3\n        /* \"#utility.yul\":6771:6844   */\n      tag_61\n      jump\t// in\n    tag_158:\n        /* \"#utility.yul\":6763:6844   */\n      swap2\n      pop\n        /* \"#utility.yul\":6620:6855   */\n      pop\n        /* \"#utility.yul\":6936:6940   */\n      0x20\n        /* \"#utility.yul\":6929:6934   */\n      dup4\n        /* \"#utility.yul\":6925:6941   */\n      add\n        /* \"#utility.yul\":6919:6942   */\n      mload\n        /* \"#utility.yul\":6955:7018   */\n      tag_159\n        /* \"#utility.yul\":7012:7016   */\n      0x20\n        /* \"#utility.yul\":7007:7010   */\n      dup7\n        /* \"#utility.yul\":7003:7017   */\n      add\n        /* \"#utility.yul\":6989:7001   */\n      dup3\n        /* \"#utility.yul\":6955:7018   */\n      tag_62\n      jump\t// in\n    tag_159:\n        /* \"#utility.yul\":6865:7028   */\n      pop\n        /* \"#utility.yul\":7114:7118   */\n      0x40\n        /* \"#utility.yul\":7107:7112   */\n      dup4\n        /* \"#utility.yul\":7103:7119   */\n      add\n        /* \"#utility.yul\":7097:7120   */\n      mload\n        /* \"#utility.yul\":7133:7190   */\n      tag_160\n        /* \"#utility.yul\":7184:7188   */\n      0x40\n        /* \"#utility.yul\":7179:7182   */\n      dup7\n        /* \"#utility.yul\":7175:7189   */\n      add\n        /* \"#utility.yul\":7161:7173   */\n      dup3\n        /* \"#utility.yul\":7133:7190   */\n      tag_63\n      jump\t// in\n    tag_160:\n        /* \"#utility.yul\":7038:7200   */\n      pop\n        /* \"#utility.yul\":7217:7221   */\n      dup1\n        /* \"#utility.yul\":7210:7221   */\n      swap2\n      pop\n        /* \"#utility.yul\":6574:7227   */\n      pop\n        /* \"#utility.yul\":6456:7227   */\n      swap3\n      swap2\n      pop\n      pop\n      jump\t// out\n        /* \"#utility.yul\":7233:7594   */\n    tag_17:\n        /* \"#utility.yul\":7370:7374   */\n      0x00\n        /* \"#utility.yul\":7408:7410   */\n      0x20\n        /* \"#utility.yul\":7397:7406   */\n      dup3\n        /* \"#utility.yul\":7393:7411   */\n      add\n        /* \"#utility.yul\":7385:7411   */\n      swap1\n      pop\n        /* \"#utility.yul\":7457:7466   */\n      dup2\n        /* \"#utility.yul\":7451:7455   */\n      dup2\n        /* \"#utility.yul\":7447:7467   */\n      sub\n        /* \"#utility.yul\":7443:7444   */\n      0x00\n        /* \"#utility.yul\":7432:7441   */\n      dup4\n        /* \"#utility.yul\":7428:7445   */\n      add\n        /* \"#utility.yul\":7421:7468   */\n      mstore\n        /* \"#utility.yul\":7485:7587   */\n      tag_162\n        /* \"#utility.yul\":7582:7586   */\n      dup2\n        /* \"#utility.yul\":7573:7579   */\n      dup5\n        /* \"#utility.yul\":7485:7587   */\n      tag_64\n      jump\t// in\n    tag_162:\n        /* \"#utility.yul\":7477:7587   */\n      swap1\n      pop\n        /* \"#utility.yul\":7233:7594   */\n      swap3\n      swap2\n      pop\n      pop\n      jump\t// out\n        /* \"#utility.yul\":7600:7780   */\n    tag_65:\n        /* \"#utility.yul\":7648:7725   */\n      0x4e487b7100000000000000000000000000000000000000000000000000000000\n        /* \"#utility.yul\":7645:7646   */\n      0x00\n        /* \"#utility.yul\":7638:7726   */\n      mstore\n        /* \"#utility.yul\":7745:7749   */\n      0x22\n        /* \"#utility.yul\":7742:7743   */\n      0x04\n        /* \"#utility.yul\":7735:7750   */\n      mstore\n        /* \"#utility.yul\":7769:7773   */\n      0x24\n        /* \"#utility.yul\":7766:7767   */\n      0x00\n        /* \"#utility.yul\":7759:7774   */\n      revert\n        /* \"#utility.yul\":7786:8106   */\n    tag_22:\n        /* \"#utility.yul\":7830:7836   */\n      0x00\n        /* \"#utility.yul\":7867:7868   */\n      0x02\n        /* \"#utility.yul\":7861:7865   */\n      dup3\n        /* \"#utility.yul\":7857:7869   */\n      div\n        /* \"#utility.yul\":7847:7869   */\n      swap1\n      pop\n        /* \"#utility.yul\":7914:7915   */\n      0x01\n        /* \"#utility.yul\":7908:7912   */\n      dup3\n        /* \"#utility.yul\":7904:7916   */\n      and\n        /* \"#utility.yul\":7935:7953   */\n      dup1\n        /* \"#utility.yul\":7925:8006   */\n      tag_165\n      jumpi\n        /* \"#utility.yul\":7991:7995   */\n      0x7f\n        /* \"#utility.yul\":7983:7989   */\n      dup3\n        /* \"#utility.yul\":7979:7996   */\n      and\n        /* \"#utility.yul\":7969:7996   */\n      swap2\n      pop\n        /* \"#utility.yul\":7925:8006   */\n    tag_165:\n        /* \"#utility.yul\":8053:8055   */\n      0x20\n        /* \"#utility.yul\":8045:8051   */\n      dup3\n        /* \"#utility.yul\":8042:8056   */\n      lt\n        /* \"#utility.yul\":8022:8040   */\n      dup2\n        /* \"#utility.yul\":8019:8057   */\n      sub\n        /* \"#utility.yul\":8016:8100   */\n      tag_166\n      jumpi\n        /* \"#utility.yul\":8072:8090   */\n      tag_167\n      tag_65\n      jump\t// in\n    tag_167:\n        /* \"#utility.yul\":8016:8100   */\n    tag_166:\n        /* \"#utility.yul\":7837:8106   */\n      pop\n        /* \"#utility.yul\":7786:8106   */\n      swap2\n      swap1\n      pop\n      jump\t// out\n        /* \"#utility.yul\":8112:8253   */\n    tag_66:\n        /* \"#utility.yul\":8161:8165   */\n      0x00\n        /* \"#utility.yul\":8184:8187   */\n      dup2\n        /* \"#utility.yul\":8176:8187   */\n      swap1\n      pop\n        /* \"#utility.yul\":8207:8210   */\n      dup2\n        /* \"#utility.yul\":8204:8205   */\n      0x00\n        /* \"#utility.yul\":8197:8211   */\n      mstore\n        /* \"#utility.yul\":8241:8245   */\n      0x20\n        /* \"#utility.yul\":8238:8239   */\n      0x00\n        /* \"#utility.yul\":8228:8246   */\n      keccak256\n        /* \"#utility.yul\":8220:8246   */\n      swap1\n      pop\n        /* \"#utility.yul\":8112:8253   */\n      swap2\n      swap1\n      pop\n      jump\t// out\n        /* \"#utility.yul\":8259:8352   */\n    tag_67:\n        /* \"#utility.yul\":8296:8302   */\n      0x00\n        /* \"#utility.yul\":8343:8345   */\n      0x20\n        /* \"#utility.yul\":8338:8340   */\n      0x1f\n        /* \"#utility.yul\":8331:8336   */\n      dup4\n        /* \"#utility.yul\":8327:8341   */\n      add\n        /* \"#utility.yul\":8323:8346   */\n      div\n        /* \"#utility.yul\":8313:8346   */\n      swap1\n      pop\n        /* \"#utility.yul\":8259:8352   */\n      swap2\n      swap1\n      pop\n      jump\t// out\n        /* \"#utility.yul\":8358:8465   */\n    tag_68:\n        /* \"#utility.yul\":8402:8410   */\n      0x00\n        /* \"#utility.yul\":8452:8457   */\n      dup3\n        /* \"#utility.yul\":8446:8450   */\n      dup3\n        /* \"#utility.yul\":8442:8458   */\n      shl\n        /* \"#utility.yul\":8421:8458   */\n      swap1\n      pop\n        /* \"#utility.yul\":8358:8465   */\n      swap3\n      swap2\n      pop\n      pop\n      jump\t// out\n        /* \"#utility.yul\":8471:8864   */\n    tag_69:\n        /* \"#utility.yul\":8540:8546   */\n      0x00\n        /* \"#utility.yul\":8590:8591   */\n      0x08\n        /* \"#utility.yul\":8578:8588   */\n      dup4\n        /* \"#utility.yul\":8574:8592   */\n      mul\n        /* \"#utility.yul\":8613:8710   */\n      tag_172\n        /* \"#utility.yul\":8643:8709   */\n      0xffffffffffffffffffffffffffffffffffffffffffffffffffffffffffffffff\n        /* \"#utility.yul\":8632:8641   */\n      dup3\n        /* \"#utility.yul\":8613:8710   */\n      tag_68\n      jump\t// in\n    tag_172:\n        /* \"#utility.yul\":8731:8770   */\n      tag_173\n        /* \"#utility.yul\":8761:8769   */\n      dup7\n        /* \"#utility.yul\":8750:8759   */\n      dup4\n        /* \"#utility.yul\":8731:8770   */\n      tag_68\n      jump\t// in\n    tag_173:\n        /* \"#utility.yul\":8719:8770   */\n      swap6\n      pop\n        /* \"#utility.yul\":8803:8807   */\n      dup1\n        /* \"#utility.yul\":8799:8808   */\n      not\n        /* \"#utility.yul\":8792:8797   */\n      dup5\n        /* \"#utility.yul\":8788:8809   */\n      and\n        /* \"#utility.yul\":8779:8809   */\n      swap4\n      pop\n        /* \"#utility.yul\":8852:8856   */\n      dup1\n        /* \"#utility.yul\":8842:8850   */\n      dup7\n        /* \"#utility.yul\":8838:8857   */\n      and\n        /* \"#utility.yul\":8831:8836   */\n      dup5\n        /* \"#utility.yul\":8828:8858   */\n      or\n        /* \"#utility.yul\":8818:8858   */\n      swap3\n      pop\n        /* \"#utility.yul\":8547:8864   */\n      pop\n      pop\n        /* \"#utility.yul\":8471:8864   */\n      swap4\n      swap3\n      pop\n      pop\n      pop\n      jump\t// out\n        /* \"#utility.yul\":8870:8930   */\n    tag_70:\n        /* \"#utility.yul\":8898:8901   */\n      0x00\n        /* \"#utility.yul\":8919:8924   */\n      dup2\n        /* \"#utility.yul\":8912:8924   */\n      swap1\n      pop\n        /* \"#utility.yul\":8870:8930   */\n      swap2\n      swap1\n      pop\n      jump\t// out\n        /* \"#utility.yul\":8936:9078   */\n    tag_71:\n        /* \"#utility.yul\":8986:8995   */\n      0x00\n        /* \"#utility.yul\":9019:9072   */\n      tag_176\n        /* \"#utility.yul\":9037:9071   */\n      tag_177\n        /* \"#utility.yul\":9046:9070   */\n      tag_178\n        /* \"#utility.yul\":9064:9069   */\n      dup5\n        /* \"#utility.yul\":9046:9070   */\n      tag_48\n      jump\t// in\n    tag_178:\n        /* \"#utility.yul\":9037:9071   */\n      tag_70\n      jump\t// in\n    tag_177:\n        /* \"#utility.yul\":9019:9072   */\n      tag_48\n      jump\t// in\n    tag_176:\n        /* \"#utility.yul\":9006:9072   */\n      swap1\n      pop\n        /* \"#utility.yul\":8936:9078   */\n      swap2\n      swap1\n      pop\n      jump\t// out\n        /* \"#utility.yul\":9084:9159   */\n    tag_72:\n        /* \"#utility.yul\":9127:9130   */\n      0x00\n        /* \"#utility.yul\":9148:9153   */\n      dup2\n        /* \"#utility.yul\":9141:9153   */\n      swap1\n      pop\n        /* \"#utility.yul\":9084:9159   */\n      swap2\n      swap1\n      pop\n      jump\t// out\n        /* \"#utility.yul\":9165:9434   */\n    tag_73:\n        /* \"#utility.yul\":9275:9314   */\n      tag_181\n        /* \"#utility.yul\":9306:9313   */\n      dup4\n        /* \"#utility.yul\":9275:9314   */\n      tag_71\n      jump\t// in\n    tag_181:\n        /* \"#utility.yul\":9336:9427   */\n      tag_182\n        /* \"#utility.yul\":9385:9426   */\n      tag_183\n        /* \"#utility.yul\":9409:9425   */\n      dup3\n        /* \"#utility.yul\":9385:9426   */\n      tag_72\n      jump\t// in\n    tag_183:\n        /* \"#utility.yul\":9377:9383   */\n      dup5\n        /* \"#utility.yul\":9370:9374   */\n      dup5\n        /* \"#utility.yul\":9364:9375   */\n      sload\n        /* \"#utility.yul\":9336:9427   */\n      tag_69\n      jump\t// in\n    tag_182:\n        /* \"#utility.yul\":9330:9334   */\n      dup3\n        /* \"#utility.yul\":9323:9428   */\n      sstore\n        /* \"#utility.yul\":9241:9434   */\n      pop\n        /* \"#utility.yul\":9165:9434   */\n      pop\n      pop\n      pop\n      jump\t// out\n        /* \"#utility.yul\":9440:9513   */\n    tag_74:\n        /* \"#utility.yul\":9485:9488   */\n      0x00\n        /* \"#utility.yul\":9506:9507   */\n      0x00\n        /* \"#utility.yul\":9499:9507   */\n      swap1\n      pop\n        /* \"#utility.yul\":9440:9513   */\n      swap1\n      jump\t// out\n        /* \"#utility.yul\":9519:9708   */\n    tag_75:\n        /* \"#utility.yul\":9596:9628   */\n      tag_186\n      tag_74\n      jump\t// in\n    tag_186:\n        /* \"#utility.yul\":9637:9702   */\n      tag_187\n        /* \"#utility.yul\":9695:9701   */\n      dup2\n        /* \"#utility.yul\":9687:9693   */\n      dup5\n        /* \"#utility.yul\":9681:9685   */\n      dup5\n        /* \"#utility.yul\":9637:9702   */\n      tag_73\n      jump\t// in\n    tag_187:\n        /* \"#utility.yul\":9572:9708   */\n      pop\n        /* \"#utility.yul\":9519:9708   */\n      pop\n      pop\n      jump\t// out\n        /* \"#utility.yul\":9714:9900   */\n    tag_76:\n        /* \"#utility.yul\":9774:9894   */\n    tag_189:\n        /* \"#utility.yul\":9791:9794   */\n      dup2\n        /* \"#utility.yul\":9784:9789   */\n      dup2\n        /* \"#utility.yul\":9781:9795   */\n      lt\n        /* \"#utility.yul\":9774:9894   */\n      iszero\n      tag_191\n      jumpi\n        /* \"#utility.yul\":9845:9884   */\n      tag_192\n        /* \"#utility.yul\":9882:9883   */\n      0x00\n        /* \"#utility.yul\":9875:9880   */\n      dup3\n        /* \"#utility.yul\":9845:9884   */\n      tag_75\n      jump\t// in\n    tag_192:\n        /* \"#utility.yul\":9818:9819   */\n      0x01\n        /* \"#utility.yul\":9811:9816   */\n      dup2\n        /* \"#utility.yul\":9807:9820   */\n      add\n        /* \"#utility.yul\":9798:9820   */\n      swap1\n      pop\n        /* \"#utility.yul\":9774:9894   */\n      jump(tag_189)\n    tag_191:\n        /* \"#utility.yul\":9714:9900   */\n      pop\n      pop\n      jump\t// out\n        /* \"#utility.yul\":9906:10449   */\n    tag_77:\n        /* \"#utility.yul\":10007:10009   */\n      0x1f\n        /* \"#utility.yul\":10002:10005   */\n      dup3\n        /* \"#utility.yul\":9999:10010   */\n      gt\n        /* \"#utility.yul\":9996:10442   */\n      iszero\n      tag_194\n      jumpi\n        /* \"#utility.yul\":10041:10079   */\n      tag_195\n        /* \"#utility.yul\":10073:10078   */\n      dup2\n        /* \"#utility.yul\":10041:10079   */\n      tag_66\n      jump\t// in\n    tag_195:\n        /* \"#utility.yul\":10125:10154   */\n      tag_196\n        /* \"#utility.yul\":10143:10153   */\n      dup5\n        /* \"#utility.yul\":10125:10154   */\n      tag_67\n      jump\t// in\n    tag_196:\n        /* \"#utility.yul\":10115:10123   */\n      dup2\n        /* \"#utility.yul\":10111:10155   */\n      add\n        /* \"#utility.yul\":10308:10310   */\n      0x20\n        /* \"#utility.yul\":10296:10306   */\n      dup6\n        /* \"#utility.yul\":10293:10311   */\n      lt\n        /* \"#utility.yul\":10290:10339   */\n      iszero\n      tag_197\n      jumpi\n        /* \"#utility.yul\":10329:10337   */\n      dup2\n        /* \"#utility.yul\":10314:10337   */\n      swap1\n      pop\n        /* \"#utility.yul\":10290:10339   */\n    tag_197:\n        /* \"#utility.yul\":10352:10432   */\n      tag_198\n        /* \"#utility.yul\":10408:10430   */\n      tag_199\n        /* \"#utility.yul\":10426:10429   */\n      dup6\n        /* \"#utility.yul\":10408:10430   */\n      tag_67\n      jump\t// in\n    tag_199:\n        /* \"#utility.yul\":10398:10406   */\n      dup4\n        /* \"#utility.yul\":10394:10431   */\n      add\n        /* \"#utility.yul\":10381:10392   */\n      dup3\n        /* \"#utility.yul\":10352:10432   */\n      tag_76\n      jump\t// in\n    tag_198:\n        /* \"#utility.yul\":10011:10442   */\n      pop\n      pop\n        /* \"#utility.yul\":9996:10442   */\n    tag_194:\n        /* \"#utility.yul\":9906:10449   */\n      pop\n      pop\n      pop\n      jump\t// out\n        /* \"#utility.yul\":10455:10572   */\n    tag_78:\n        /* \"#utility.yul\":10509:10517   */\n      0x00\n        /* \"#utility.yul\":10559:10564   */\n      dup3\n        /* \"#utility.yul\":10553:10557   */\n      dup3\n        /* \"#utility.yul\":10549:10565   */\n      shr\n        /* \"#utility.yul\":10528:10565   */\n      swap1\n      pop\n        /* \"#utility.yul\":10455:10572   */\n      swap3\n      swap2\n      pop\n      pop\n      jump\t// out\n        /* \"#utility.yul\":10578:10747   */\n    tag_79:\n        /* \"#utility.yul\":10622:10628   */\n      0x00\n        /* \"#utility.yul\":10655:10706   */\n      tag_202\n        /* \"#utility.yul\":10703:10704   */\n      0x00\n        /* \"#utility.yul\":10699:10705   */\n      not\n        /* \"#utility.yul\":10691:10696   */\n      dup5\n        /* \"#utility.yul\":10688:10689   */\n      0x08\n        /* \"#utility.yul\":10684:10697   */\n      mul\n        /* \"#utility.yul\":10655:10706   */\n      tag_78\n      jump\t// in\n    tag_202:\n        /* \"#utility.yul\":10651:10707   */\n      not\n        /* \"#utility.yul\":10736:10740   */\n      dup1\n        /* \"#utility.yul\":10730:10734   */\n      dup4\n        /* \"#utility.yul\":10726:10741   */\n      and\n        /* \"#utility.yul\":10716:10741   */\n      swap2\n      pop\n        /* \"#utility.yul\":10629:10747   */\n      pop\n        /* \"#utility.yul\":10578:10747   */\n      swap3\n      swap2\n      pop\n      pop\n      jump\t// out\n        /* \"#utility.yul\":10752:11047   */\n    tag_80:\n        /* \"#utility.yul\":10828:10832   */\n      0x00\n        /* \"#utility.yul\":10974:11003   */\n      tag_204\n        /* \"#utility.yul\":10999:11002   */\n      dup4\n        /* \"#utility.yul\":10993:10997   */\n      dup4\n        /* \"#utility.yul\":10974:11003   */\n      tag_79\n      jump\t// in\n    tag_204:\n        /* \"#utility.yul\":10966:11003   */\n      swap2\n      pop\n        /* \"#utility.yul\":11036:11039   */\n      dup3\n        /* \"#utility.yul\":11033:11034   */\n      0x02\n        /* \"#utility.yul\":11029:11040   */\n      mul\n        /* \"#utility.yul\":11023:11027   */\n      dup3\n        /* \"#utility.yul\":11020:11041   */\n      or\n        /* \"#utility.yul\":11012:11041   */\n      swap1\n      pop\n        /* \"#utility.yul\":10752:11047   */\n      swap3\n      swap2\n      pop\n      pop\n      jump\t// out\n        /* \"#utility.yul\":11052:12447   */\n    tag_20:\n        /* \"#utility.yul\":11169:11206   */\n      tag_206\n        /* \"#utility.yul\":11202:11205   */\n      dup3\n        /* \"#utility.yul\":11169:11206   */\n      tag_54\n      jump\t// in\n    tag_206:\n        /* \"#utility.yul\":11271:11289   */\n      0xffffffffffffffff\n        /* \"#utility.yul\":11263:11269   */\n      dup2\n        /* \"#utility.yul\":11260:11290   */\n      gt\n        /* \"#utility.yul\":11257:11313   */\n      iszero\n      tag_207\n      jumpi\n        /* \"#utility.yul\":11293:11311   */\n      tag_208\n      tag_41\n      jump\t// in\n    tag_208:\n        /* \"#utility.yul\":11257:11313   */\n    tag_207:\n        /* \"#utility.yul\":11337:11375   */\n      tag_209\n        /* \"#utility.yul\":11369:11373   */\n      dup3\n        /* \"#utility.yul\":11363:11374   */\n      sload\n        /* \"#utility.yul\":11337:11375   */\n      tag_22\n      jump\t// in\n    tag_209:\n        /* \"#utility.yul\":11422:11489   */\n      tag_210\n        /* \"#utility.yul\":11482:11488   */\n      dup3\n        /* \"#utility.yul\":11474:11480   */\n      dup3\n        /* \"#utility.yul\":11468:11472   */\n      dup6\n        /* \"#utility.yul\":11422:11489   */\n      tag_77\n      jump\t// in\n    tag_210:\n        /* \"#utility.yul\":11516:11517   */\n      0x00\n        /* \"#utility.yul\":11540:11544   */\n      0x20\n        /* \"#utility.yul\":11527:11544   */\n      swap1\n      pop\n        /* \"#utility.yul\":11572:11574   */\n      0x1f\n        /* \"#utility.yul\":11564:11570   */\n      dup4\n        /* \"#utility.yul\":11561:11575   */\n      gt\n        /* \"#utility.yul\":11589:11590   */\n      0x01\n        /* \"#utility.yul\":11584:12202   */\n      dup2\n      eq\n      tag_212\n      jumpi\n        /* \"#utility.yul\":12246:12247   */\n      0x00\n        /* \"#utility.yul\":12263:12269   */\n      dup5\n        /* \"#utility.yul\":12260:12337   */\n      iszero\n      tag_213\n      jumpi\n        /* \"#utility.yul\":12312:12321   */\n      dup3\n        /* \"#utility.yul\":12307:12310   */\n      dup8\n        /* \"#utility.yul\":12303:12322   */\n      add\n        /* \"#utility.yul\":12297:12323   */\n      mload\n        /* \"#utility.yul\":12288:12323   */\n      swap1\n      pop\n        /* \"#utility.yul\":12260:12337   */\n    tag_213:\n        /* \"#utility.yul\":12363:12430   */\n      tag_214\n        /* \"#utility.yul\":12423:12429   */\n      dup6\n        /* \"#utility.yul\":12416:12421   */\n      dup3\n        /* \"#utility.yul\":12363:12430   */\n      tag_80\n      jump\t// in\n    tag_214:\n        /* \"#utility.yul\":12357:12361   */\n      dup7\n        /* \"#utility.yul\":12350:12431   */\n      sstore\n        /* \"#utility.yul\":12219:12441   */\n      pop\n        /* \"#utility.yul\":11554:12441   */\n      jump(tag_211)\n        /* \"#utility.yul\":11584:12202   */\n    tag_212:\n        /* \"#utility.yul\":11636:11640   */\n      0x1f\n        /* \"#utility.yul\":11632:11641   */\n      not\n        /* \"#utility.yul\":11624:11630   */\n      dup5\n        /* \"#utility.yul\":11620:11642   */\n      and\n        /* \"#utility.yul\":11670:11707   */\n      tag_215\n        /* \"#utility.yul\":11702:11706   */\n      dup7\n        /* \"#utility.yul\":11670:11707   */\n      tag_66\n      jump\t// in\n    tag_215:\n        /* \"#utility.yul\":11729:11730   */\n      0x00\n        /* \"#utility.yul\":11743:11951   */\n    tag_216:\n        /* \"#utility.yul\":11757:11764   */\n      dup3\n        /* \"#utility.yul\":11754:11755   */\n      dup2\n        /* \"#utility.yul\":11751:11765   */\n      lt\n        /* \"#utility.yul\":11743:11951   */\n      iszero\n      tag_218\n      jumpi\n        /* \"#utility.yul\":11836:11845   */\n      dup5\n        /* \"#utility.yul\":11831:11834   */\n      dup10\n        /* \"#utility.yul\":11827:11846   */\n      add\n        /* \"#utility.yul\":11821:11847   */\n      mload\n        /* \"#utility.yul\":11813:11819   */\n      dup3\n        /* \"#utility.yul\":11806:11848   */\n      sstore\n        /* \"#utility.yul\":11887:11888   */\n      0x01\n        /* \"#utility.yul\":11879:11885   */\n      dup3\n        /* \"#utility.yul\":11875:11889   */\n      add\n        /* \"#utility.yul\":11865:11889   */\n      swap2\n      pop\n        /* \"#utility.yul\":11934:11936   */\n      0x20\n        /* \"#utility.yul\":11923:11932   */\n      dup6\n        /* \"#utility.yul\":11919:11937   */\n      add\n        /* \"#utility.yul\":11906:11937   */\n      swap5\n      pop\n        /* \"#utility.yul\":11780:11784   */\n      0x20\n        /* \"#utility.yul\":11777:11778   */\n      dup2\n        /* \"#utility.yul\":11773:11785   */\n      add\n        /* \"#utility.yul\":11768:11785   */\n      swap1\n      pop\n        /* \"#utility.yul\":11743:11951   */\n      jump(tag_216)\n    tag_218:\n        /* \"#utility.yul\":11979:11985   */\n      dup7\n        /* \"#utility.yul\":11970:11977   */\n      dup4\n        /* \"#utility.yul\":11967:11986   */\n      lt\n        /* \"#utility.yul\":11964:12143   */\n      iszero\n      tag_219\n      jumpi\n        /* \"#utility.yul\":12037:12046   */\n      dup5\n        /* \"#utility.yul\":12032:12035   */\n      dup10\n        /* \"#utility.yul\":12028:12047   */\n      add\n        /* \"#utility.yul\":12022:12048   */\n      mload\n        /* \"#utility.yul\":12080:12128   */\n      tag_220\n        /* \"#utility.yul\":12122:12126   */\n      0x1f\n        /* \"#utility.yul\":12114:12120   */\n      dup10\n        /* \"#utility.yul\":12110:12127   */\n      and\n        /* \"#utility.yul\":12099:12108   */\n      dup3\n        /* \"#utility.yul\":12080:12128   */\n      tag_79\n      jump\t// in\n    tag_220:\n        /* \"#utility.yul\":12072:12078   */\n      dup4\n        /* \"#utility.yul\":12065:12129   */\n      sstore\n        /* \"#utility.yul\":11987:12143   */\n      pop\n        /* \"#utility.yul\":11964:12143   */\n    tag_219:\n        /* \"#utility.yul\":12189:12190   */\n      0x01\n        /* \"#utility.yul\":12185:12186   */\n      0x02\n        /* \"#utility.yul\":12177:12183   */\n      dup9\n        /* \"#utility.yul\":12173:12187   */\n      mul\n        /* \"#utility.yul\":12169:12191   */\n      add\n        /* \"#utility.yul\":12163:12167   */\n      dup9\n        /* \"#utility.yul\":12156:12192   */\n      sstore\n        /* \"#utility.yul\":11591:12202   */\n      pop\n      pop\n      pop\n        /* \"#utility.yul\":11554:12441   */\n    tag_211:\n      pop\n        /* \"#utility.yul\":11144:12447   */\n      pop\n      pop\n      pop\n        /* \"#utility.yul\":11052:12447   */\n      pop\n      pop\n      jump\t// out\n\n    auxdata: 0xa2646970667358221220fb4abbbed004f8d953433a2bb7feac65307cbca452630a382a0c759cd197e09464736f6c634300081e0033\n}\n",
				"bytecode": {
					"linkReferences": {},
					"object": "6080604052348015600e575f5ffd5b506109458061001c5f395ff3fe608060405234801561000f575f5ffd5b506004361061003f575f3560e01c80632a26dcfb146100435780636cc014de1461005f578063fbbf93a01461007f575b5f5ffd5b61005d6004803603810190610058919061044a565b61009d565b005b610067610100565b60405161007693929190610534565b60405180910390f35b6100876101a8565b6040516100949190610623565b60405180910390f35b60405180606001604052808481526020018381526020018215158152505f5f820151815f0190816100ce9190610840565b50602082015181600101556040820151816002015f6101000a81548160ff021916908315150217905550905050505050565b5f805f01805461010f90610670565b80601f016020809104026020016040519081016040528092919081815260200182805461013b90610670565b80156101865780601f1061015d57610100808354040283529160200191610186565b820191905f5260205f20905b81548152906001019060200180831161016957829003601f168201915b505050505090806001015490806002015f9054906101000a900460ff16905083565b6101b0610274565b5f6040518060600160405290815f820180546101cb90610670565b80601f01602080910402602001604051908101604052809291908181526020018280546101f790610670565b80156102425780601f1061021957610100808354040283529160200191610242565b820191905f5260205f20905b81548152906001019060200180831161022557829003601f168201915b5050505050815260200160018201548152602001600282015f9054906101000a900460ff161515151581525050905090565b6040518060600160405280606081526020015f81526020015f151581525090565b5f604051905090565b5f5ffd5b5f5ffd5b5f5ffd5b5f5ffd5b5f601f19601f8301169050919050565b7f4e487b71000000000000000000000000000000000000000000000000000000005f52604160045260245ffd5b6102f4826102ae565b810181811067ffffffffffffffff82111715610313576103126102be565b5b80604052505050565b5f610325610295565b905061033182826102eb565b919050565b5f67ffffffffffffffff8211156103505761034f6102be565b5b610359826102ae565b9050602081019050919050565b828183375f83830152505050565b5f61038661038184610336565b61031c565b9050828152602081018484840111156103a2576103a16102aa565b5b6103ad848285610366565b509392505050565b5f82601f8301126103c9576103c86102a6565b5b81356103d9848260208601610374565b91505092915050565b5f819050919050565b6103f4816103e2565b81146103fe575f5ffd5b50565b5f8135905061040f816103eb565b92915050565b5f8115159050919050565b61042981610415565b8114610433575f5ffd5b50565b5f8135905061044481610420565b92915050565b5f5f5f606084860312156104615761046061029e565b5b5f84013567ffffffffffffffff81111561047e5761047d6102a2565b5b61048a868287016103b5565b935050602061049b86828701610401565b92505060406104ac86828701610436565b9150509250925092565b5f81519050919050565b5f82825260208201905092915050565b8281835e5f83830152505050565b5f6104e8826104b6565b6104f281856104c0565b93506105028185602086016104d0565b61050b816102ae565b840191505092915050565b61051f816103e2565b82525050565b61052e81610415565b82525050565b5f6060820190508181035f83015261054c81866104de565b905061055b6020830185610516565b6105686040830184610525565b949350505050565b5f82825260208201905092915050565b5f61058a826104b6565b6105948185610570565b93506105a48185602086016104d0565b6105ad816102ae565b840191505092915050565b6105c1816103e2565b82525050565b6105d081610415565b82525050565b5f606083015f8301518482035f8601526105f08282610580565b915050602083015161060560208601826105b8565b50604083015161061860408601826105c7565b508091505092915050565b5f6020820190508181035f83015261063b81846105d6565b905092915050565b7f4e487b71000000000000000000000000000000000000000000000000000000005f52602260045260245ffd5b5f600282049050600182168061068757607f821691505b60208210810361069a57610699610643565b5b50919050565b5f819050815f5260205f209050919050565b5f6020601f8301049050919050565b5f82821b905092915050565b5f600883026106fc7fffffffffffffffffffffffffffffffffffffffffffffffffffffffffffffffff826106c1565b61070686836106c1565b95508019841693508086168417925050509392505050565b5f819050919050565b5f61074161073c610737846103e2565b61071e565b6103e2565b9050919050565b5f819050919050565b61075a83610727565b61076e61076682610748565b8484546106cd565b825550505050565b5f5f905090565b610785610776565b610790818484610751565b505050565b5b818110156107b3576107a85f8261077d565b600181019050610796565b5050565b601f8211156107f8576107c9816106a0565b6107d2846106b2565b810160208510156107e1578190505b6107f56107ed856106b2565b830182610795565b50505b505050565b5f82821c905092915050565b5f6108185f19846008026107fd565b1980831691505092915050565b5f6108308383610809565b9150826002028217905092915050565b610849826104b6565b67ffffffffffffffff811115610862576108616102be565b5b61086c8254610670565b6108778282856107b7565b5f60209050601f8311600181146108a8575f8415610896578287015190505b6108a08582610825565b865550610907565b601f1984166108b6866106a0565b5f5b828110156108dd578489015182556001820191506020850194506020810190506108b8565b868310156108fa57848901516108f6601f891682610809565b8355505b6001600288020188555050505b50505050505056fea2646970667358221220fb4abbbed004f8d953433a2bb7feac65307cbca452630a382a0c759cd197e09464736f6c634300081e0033",
					"opcodes": "PUSH1 0x80 PUSH1 0x40 MSTORE CALLVALUE DUP1 ISZERO PUSH1 0xE JUMPI PUSH0 PUSH0 REVERT JUMPDEST POP PUSH2 0x945 DUP1 PUSH2 0x1C PUSH0 CODECOPY PUSH0 RETURN INVALID PUSH1 0x80 PUSH1 0x40 MSTORE CALLVALUE DUP1 ISZERO PUSH2 0xF JUMPI PUSH0 PUSH0 REVERT JUMPDEST POP PUSH1 0x4 CALLDATASIZE LT PUSH2 0x3F JUMPI PUSH0 CALLDATALOAD PUSH1 0xE0 SHR DUP1 PUSH4 0x2A26DCFB EQ PUSH2 0x43 JUMPI DUP1 PUSH4 0x6CC014DE EQ PUSH2 0x5F JUMPI DUP1 PUSH4 0xFBBF93A0 EQ PUSH2 0x7F JUMPI JUMPDEST PUSH0 PUSH0 REVERT JUMPDEST PUSH2 0x5D PUSH1 0x4 DUP1 CALLDATASIZE SUB DUP2 ADD SWAP1 PUSH2 0x58 SWAP2 SWAP1 PUSH2 0x44A JUMP JUMPDEST PUSH2 0x9D JUMP JUMPDEST STOP JUMPDEST PUSH2 0x67 PUSH2 0x100 JUMP JUMPDEST PUSH1 0x40 MLOAD PUSH2 0x76 SWAP4 SWAP3 SWAP2 SWAP1 PUSH2 0x534 JUMP JUMPDEST PUSH1 0x40 MLOAD DUP1 SWAP2 SUB SWAP1 RETURN JUMPDEST PUSH2 0x87 PUSH2 0x1A8 JUMP JUMPDEST PUSH1 0x40 MLOAD PUSH2 0x94 SWAP2 SWAP1 PUSH2 0x623 JUMP JUMPDEST PUSH1 0x40 MLOAD DUP1 SWAP2 SUB SWAP1 RETURN JUMPDEST PUSH1 0x40 MLOAD DUP1 PUSH1 0x60 ADD PUSH1 0x40 MSTORE DUP1 DUP5 DUP2 MSTORE PUSH1 0x20 ADD DUP4 DUP2 MSTORE PUSH1 0x20 ADD DUP3 ISZERO ISZERO DUP2 MSTORE POP PUSH0 PUSH0 DUP3 ADD MLOAD DUP2 PUSH0 ADD SWAP1 DUP2 PUSH2 0xCE SWAP2 SWAP1 PUSH2 0x840 JUMP JUMPDEST POP PUSH1 0x20 DUP3 ADD MLOAD DUP2 PUSH1 0x1 ADD SSTORE PUSH1 0x40 DUP3 ADD MLOAD DUP2 PUSH1 0x2 ADD PUSH0 PUSH2 0x100 EXP DUP2 SLOAD DUP2 PUSH1 0xFF MUL NOT AND SWAP1 DUP4 ISZERO ISZERO MUL OR SWAP1 SSTORE POP SWAP1 POP POP POP POP POP JUMP JUMPDEST PUSH0 DUP1 PUSH0 ADD DUP1 SLOAD PUSH2 0x10F SWAP1 PUSH2 0x670 JUMP JUMPDEST DUP1 PUSH1 0x1F ADD PUSH1 0x20 DUP1 SWAP2 DIV MUL PUSH1 0x20 ADD PUSH1 0x40 MLOAD SWAP1 DUP2 ADD PUSH1 0x40 MSTORE DUP1 SWAP3 SWAP2 SWAP1 DUP2 DUP2 MSTORE PUSH1 0x20 ADD DUP3 DUP1 SLOAD PUSH2 0x13B SWAP1 PUSH2 0x670 JUMP JUMPDEST DUP1 ISZERO PUSH2 0x186 JUMPI DUP1 PUSH1 0x1F LT PUSH2 0x15D JUMPI PUSH2 0x100 DUP1 DUP4 SLOAD DIV MUL DUP4 MSTORE SWAP2 PUSH1 0x20 ADD SWAP2 PUSH2 0x186 JUMP JUMPDEST DUP3 ADD SWAP2 SWAP1 PUSH0 MSTORE PUSH1 0x20 PUSH0 KECCAK256 SWAP1 JUMPDEST DUP2 SLOAD DUP2 MSTORE SWAP1 PUSH1 0x1 ADD SWAP1 PUSH1 0x20 ADD DUP1 DUP4 GT PUSH2 0x169 JUMPI DUP3 SWAP1 SUB PUSH1 0x1F AND DUP3 ADD SWAP2 JUMPDEST POP POP POP POP POP SWAP1 DUP1 PUSH1 0x1 ADD SLOAD SWAP1 DUP1 PUSH1 0x2 ADD PUSH0 SWAP1 SLOAD SWAP1 PUSH2 0x100 EXP SWAP1 DIV PUSH1 0xFF AND SWAP1 POP DUP4 JUMP JUMPDEST PUSH2 0x1B0 PUSH2 0x274 JUMP JUMPDEST PUSH0 PUSH1 0x40 MLOAD DUP1 PUSH1 0x60 ADD PUSH1 0x40 MSTORE SWAP1 DUP2 PUSH0 DUP3 ADD DUP1 SLOAD PUSH2 0x1CB SWAP1 PUSH2 0x670 JUMP JUMPDEST DUP1 PUSH1 0x1F ADD PUSH1 0x20 DUP1 SWAP2 DIV MUL PUSH1 0x20 ADD PUSH1 0x40 MLOAD SWAP1 DUP2 ADD PUSH1 0x40 MSTORE DUP1 SWAP3 SWAP2 SWAP1 DUP2 DUP2 MSTORE PUSH1 0x20 ADD DUP3 DUP1 SLOAD PUSH2 0x1F7 SWAP1 PUSH2 0x670 JUMP JUMPDEST DUP1 ISZERO PUSH2 0x242 JUMPI DUP1 PUSH1 0x1F LT PUSH2 0x219 JUMPI PUSH2 0x100 DUP1 DUP4 SLOAD DIV MUL DUP4 MSTORE SWAP2 PUSH1 0x20 ADD SWAP2 PUSH2 0x242 JUMP JUMPDEST DUP3 ADD SWAP2 SWAP1 PUSH0 MSTORE PUSH1 0x20 PUSH0 KECCAK256 SWAP1 JUMPDEST DUP2 SLOAD DUP2 MSTORE SWAP1 PUSH1 0x1 ADD SWAP1 PUSH1 0x20 ADD DUP1 DUP4 GT PUSH2 0x225 JUMPI DUP3 SWAP1 SUB PUSH1 0x1F AND DUP3 ADD SWAP2 JUMPDEST POP POP POP POP POP DUP2 MSTORE PUSH1 0x20 ADD PUSH1 0x1 DUP3 ADD SLOAD DUP2 MSTORE PUSH1 0x20 ADD PUSH1 0x2 DUP3 ADD PUSH0 SWAP1 SLOAD SWAP1 PUSH2 0x100 EXP SWAP1 DIV PUSH1 0xFF AND ISZERO ISZERO ISZERO ISZERO DUP2 MSTORE POP POP SWAP1 POP SWAP1 JUMP JUMPDEST PUSH1 0x40 MLOAD DUP1 PUSH1 0x60 ADD PUSH1 0x40 MSTORE DUP1 PUSH1 0x60 DUP2 MSTORE PUSH1 0x20 ADD PUSH0 DUP2 MSTORE PUSH1 0x20 ADD PUSH0 ISZERO ISZERO DUP2 MSTORE POP SWAP1 JUMP JUMPDEST PUSH0 PUSH1 0x40 MLOAD SWAP1 POP SWAP1 JUMP JUMPDEST PUSH0 PUSH0 REVERT JUMPDEST PUSH0 PUSH0 REVERT JUMPDEST PUSH0 PUSH0 REVERT JUMPDEST PUSH0 PUSH0 REVERT JUMPDEST PUSH0 PUSH1 0x1F NOT PUSH1 0x1F DUP4 ADD AND SWAP1 POP SWAP2 SWAP1 POP JUMP JUMPDEST PUSH32 0x4E487B7100000000000000000000000000000000000000000000000000000000 PUSH0 MSTORE PUSH1 0x41 PUSH1 0x4 MSTORE PUSH1 0x24 PUSH0 REVERT JUMPDEST PUSH2 0x2F4 DUP3 PUSH2 0x2AE JUMP JUMPDEST DUP2 ADD DUP2 DUP2 LT PUSH8 0xFFFFFFFFFFFFFFFF DUP3 GT OR ISZERO PUSH2 0x313 JUMPI PUSH2 0x312 PUSH2 0x2BE JUMP JUMPDEST JUMPDEST DUP1 PUSH1 0x40 MSTORE POP POP POP JUMP JUMPDEST PUSH0 PUSH2 0x325 PUSH2 0x295 JUMP JUMPDEST SWAP1 POP PUSH2 0x331 DUP3 DUP3 PUSH2 0x2EB JUMP JUMPDEST SWAP2 SWAP1 POP JUMP JUMPDEST PUSH0 PUSH8 0xFFFFFFFFFFFFFFFF DUP3 GT ISZERO PUSH2 0x350 JUMPI PUSH2 0x34F PUSH2 0x2BE JUMP JUMPDEST JUMPDEST PUSH2 0x359 DUP3 PUSH2 0x2AE JUMP JUMPDEST SWAP1 POP PUSH1 0x20 DUP2 ADD SWAP1 POP SWAP2 SWAP1 POP JUMP JUMPDEST DUP3 DUP2 DUP4 CALLDATACOPY PUSH0 DUP4 DUP4 ADD MSTORE POP POP POP JUMP JUMPDEST PUSH0 PUSH2 0x386 PUSH2 0x381 DUP5 PUSH2 0x336 JUMP JUMPDEST PUSH2 0x31C JUMP JUMPDEST SWAP1 POP DUP3 DUP2 MSTORE PUSH1 0x20 DUP2 ADD DUP5 DUP5 DUP5 ADD GT ISZERO PUSH2 0x3A2 JUMPI PUSH2 0x3A1 PUSH2 0x2AA JUMP JUMPDEST JUMPDEST PUSH2 0x3AD DUP5 DUP3 DUP6 PUSH2 0x366 JUMP JUMPDEST POP SWAP4 SWAP3 POP POP POP JUMP JUMPDEST PUSH0 DUP3 PUSH1 0x1F DUP4 ADD SLT PUSH2 0x3C9 JUMPI PUSH2 0x3C8 PUSH2 0x2A6 JUMP JUMPDEST JUMPDEST DUP2 CALLDATALOAD PUSH2 0x3D9 DUP5 DUP3 PUSH1 0x20 DUP7 ADD PUSH2 0x374 JUMP JUMPDEST SWAP2 POP POP SWAP3 SWAP2 POP POP JUMP JUMPDEST PUSH0 DUP2 SWAP1 POP SWAP2 SWAP1 POP JUMP JUMPDEST PUSH2 0x3F4 DUP2 PUSH2 0x3E2 JUMP JUMPDEST DUP2 EQ PUSH2 0x3FE JUMPI PUSH0 PUSH0 REVERT JUMPDEST POP JUMP JUMPDEST PUSH0 DUP2 CALLDATALOAD SWAP1 POP PUSH2 0x40F DUP2 PUSH2 0x3EB JUMP JUMPDEST SWAP3 SWAP2 POP POP JUMP JUMPDEST PUSH0 DUP2 ISZERO ISZERO SWAP1 POP SWAP2 SWAP1 POP JUMP JUMPDEST PUSH2 0x429 DUP2 PUSH2 0x415 JUMP JUMPDEST DUP2 EQ PUSH2 0x433 JUMPI PUSH0 PUSH0 REVERT JUMPDEST POP JUMP JUMPDEST PUSH0 DUP2 CALLDATALOAD SWAP1 POP PUSH2 0x444 DUP2 PUSH2 0x420 JUMP JUMPDEST SWAP3 SWAP2 POP POP JUMP JUMPDEST PUSH0 PUSH0 PUSH0 PUSH1 0x60 DUP5 DUP7 SUB SLT ISZERO PUSH2 0x461 JUMPI PUSH2 0x460 PUSH2 0x29E JUMP JUMPDEST JUMPDEST PUSH0 DUP5 ADD CALLDATALOAD PUSH8 0xFFFFFFFFFFFFFFFF DUP2 GT ISZERO PUSH2 0x47E JUMPI PUSH2 0x47D PUSH2 0x2A2 JUMP JUMPDEST JUMPDEST PUSH2 0x48A DUP7 DUP3 DUP8 ADD PUSH2 0x3B5 JUMP JUMPDEST SWAP4 POP POP PUSH1 0x20 PUSH2 0x49B DUP7 DUP3 DUP8 ADD PUSH2 0x401 JUMP JUMPDEST SWAP3 POP POP PUSH1 0x40 PUSH2 0x4AC DUP7 DUP3 DUP8 ADD PUSH2 0x436 JUMP JUMPDEST SWAP2 POP POP SWAP3 POP SWAP3 POP SWAP3 JUMP JUMPDEST PUSH0 DUP2 MLOAD SWAP1 POP SWAP2 SWAP1 POP JUMP JUMPDEST PUSH0 DUP3 DUP3 MSTORE PUSH1 0x20 DUP3 ADD SWAP1 POP SWAP3 SWAP2 POP POP JUMP JUMPDEST DUP3 DUP2 DUP4 MCOPY PUSH0 DUP4 DUP4 ADD MSTORE POP POP POP JUMP JUMPDEST PUSH0 PUSH2 0x4E8 DUP3 PUSH2 0x4B6 JUMP JUMPDEST PUSH2 0x4F2 DUP2 DUP6 PUSH2 0x4C0 JUMP JUMPDEST SWAP4 POP PUSH2 0x502 DUP2 DUP6 PUSH1 0x20 DUP7 ADD PUSH2 0x4D0 JUMP JUMPDEST PUSH2 0x50B DUP2 PUSH2 0x2AE JUMP JUMPDEST DUP5 ADD SWAP2 POP POP SWAP3 SWAP2 POP POP JUMP JUMPDEST PUSH2 0x51F DUP2 PUSH2 0x3E2 JUMP JUMPDEST DUP3 MSTORE POP POP JUMP JUMPDEST PUSH2 0x52E DUP2 PUSH2 0x415 JUMP JUMPDEST DUP3 MSTORE POP POP JUMP JUMPDEST PUSH0 PUSH1 0x60 DUP3 ADD SWAP1 POP DUP2 DUP2 SUB PUSH0 DUP4 ADD MSTORE PUSH2 0x54C DUP2 DUP7 PUSH2 0x4DE JUMP JUMPDEST SWAP1 POP PUSH2 0x55B PUSH1 0x20 DUP4 ADD DUP6 PUSH2 0x516 JUMP JUMPDEST PUSH2 0x568 PUSH1 0x40 DUP4 ADD DUP5 PUSH2 0x525 JUMP JUMPDEST SWAP5 SWAP4 POP POP POP POP JUMP JUMPDEST PUSH0 DUP3 DUP3 MSTORE PUSH1 0x20 DUP3 ADD SWAP1 POP SWAP3 SWAP2 POP POP JUMP JUMPDEST PUSH0 PUSH2 0x58A DUP3 PUSH2 0x4B6 JUMP JUMPDEST PUSH2 0x594 DUP2 DUP6 PUSH2 0x570 JUMP JUMPDEST SWAP4 POP PUSH2 0x5A4 DUP2 DUP6 PUSH1 0x20 DUP7 ADD PUSH2 0x4D0 JUMP JUMPDEST PUSH2 0x5AD DUP2 PUSH2 0x2AE JUMP JUMPDEST DUP5 ADD SWAP2 POP POP SWAP3 SWAP2 POP POP JUMP JUMPDEST PUSH2 0x5C1 DUP2 PUSH2 0x3E2 JUMP JUMPDEST DUP3 MSTORE POP POP JUMP JUMPDEST PUSH2 0x5D0 DUP2 PUSH2 0x415 JUMP JUMPDEST DUP3 MSTORE POP POP JUMP JUMPDEST PUSH0 PUSH1 0x60 DUP4 ADD PUSH0 DUP4 ADD MLOAD DUP5 DUP3 SUB PUSH0 DUP7 ADD MSTORE PUSH2 0x5F0 DUP3 DUP3 PUSH2 0x580 JUMP JUMPDEST SWAP2 POP POP PUSH1 0x20 DUP4 ADD MLOAD PUSH2 0x605 PUSH1 0x20 DUP7 ADD DUP3 PUSH2 0x5B8 JUMP JUMPDEST POP PUSH1 0x40 DUP4 ADD MLOAD PUSH2 0x618 PUSH1 0x40 DUP7 ADD DUP3 PUSH2 0x5C7 JUMP JUMPDEST POP DUP1 SWAP2 POP POP SWAP3 SWAP2 POP POP JUMP JUMPDEST PUSH0 PUSH1 0x20 DUP3 ADD SWAP1 POP DUP2 DUP2 SUB PUSH0 DUP4 ADD MSTORE PUSH2 0x63B DUP2 DUP5 PUSH2 0x5D6 JUMP JUMPDEST SWAP1 POP SWAP3 SWAP2 POP POP JUMP JUMPDEST PUSH32 0x4E487B7100000000000000000000000000000000000000000000000000000000 PUSH0 MSTORE PUSH1 0x22 PUSH1 0x4 MSTORE PUSH1 0x24 PUSH0 REVERT JUMPDEST PUSH0 PUSH1 0x2 DUP3 DIV SWAP1 POP PUSH1 0x1 DUP3 AND DUP1 PUSH2 0x687 JUMPI PUSH1 0x7F DUP3 AND SWAP2 POP JUMPDEST PUSH1 0x20 DUP3 LT DUP2 SUB PUSH2 0x69A JUMPI PUSH2 0x699 PUSH2 0x643 JUMP JUMPDEST JUMPDEST POP SWAP2 SWAP1 POP JUMP JUMPDEST PUSH0 DUP2 SWAP1 POP DUP2 PUSH0 MSTORE PUSH1 0x20 PUSH0 KECCAK256 SWAP1 POP SWAP2 SWAP1 POP JUMP JUMPDEST PUSH0 PUSH1 0x20 PUSH1 0x1F DUP4 ADD DIV SWAP1 POP SWAP2 SWAP1 POP JUMP JUMPDEST PUSH0 DUP3 DUP3 SHL SWAP1 POP SWAP3 SWAP2 POP POP JUMP JUMPDEST PUSH0 PUSH1 0x8 DUP4 MUL PUSH2 0x6FC PUSH32 0xFFFFFFFFFFFFFFFFFFFFFFFFFFFFFFFFFFFFFFFFFFFFFFFFFFFFFFFFFFFFFFFF DUP3 PUSH2 0x6C1 JUMP JUMPDEST PUSH2 0x706 DUP7 DUP4 PUSH2 0x6C1 JUMP JUMPDEST SWAP6 POP DUP1 NOT DUP5 AND SWAP4 POP DUP1 DUP7 AND DUP5 OR SWAP3 POP POP POP SWAP4 SWAP3 POP POP POP JUMP JUMPDEST PUSH0 DUP2 SWAP1 POP SWAP2 SWAP1 POP JUMP JUMPDEST PUSH0 PUSH2 0x741 PUSH2 0x73C PUSH2 0x737 DUP5 PUSH2 0x3E2 JUMP JUMPDEST PUSH2 0x71E JUMP JUMPDEST PUSH2 0x3E2 JUMP JUMPDEST SWAP1 POP SWAP2 SWAP1 POP JUMP JUMPDEST PUSH0 DUP2 SWAP1 POP SWAP2 SWAP1 POP JUMP JUMPDEST PUSH2 0x75A DUP4 PUSH2 0x727 JUMP JUMPDEST PUSH2 0x76E PUSH2 0x766 DUP3 PUSH2 0x748 JUMP JUMPDEST DUP5 DUP5 SLOAD PUSH2 0x6CD JUMP JUMPDEST DUP3 SSTORE POP POP POP POP JUMP JUMPDEST PUSH0 PUSH0 SWAP1 POP SWAP1 JUMP JUMPDEST PUSH2 0x785 PUSH2 0x776 JUMP JUMPDEST PUSH2 0x790 DUP2 DUP5 DUP5 PUSH2 0x751 JUMP JUMPDEST POP POP POP JUMP JUMPDEST JUMPDEST DUP2 DUP2 LT ISZERO PUSH2 0x7B3 JUMPI PUSH2 0x7A8 PUSH0 DUP3 PUSH2 0x77D JUMP JUMPDEST PUSH1 0x1 DUP2 ADD SWAP1 POP PUSH2 0x796 JUMP JUMPDEST POP POP JUMP JUMPDEST PUSH1 0x1F DUP3 GT ISZERO PUSH2 0x7F8 JUMPI PUSH2 0x7C9 DUP2 PUSH2 0x6A0 JUMP JUMPDEST PUSH2 0x7D2 DUP5 PUSH2 0x6B2 JUMP JUMPDEST DUP2 ADD PUSH1 0x20 DUP6 LT ISZERO PUSH2 0x7E1 JUMPI DUP2 SWAP1 POP JUMPDEST PUSH2 0x7F5 PUSH2 0x7ED DUP6 PUSH2 0x6B2 JUMP JUMPDEST DUP4 ADD DUP3 PUSH2 0x795 JUMP JUMPDEST POP POP JUMPDEST POP POP POP JUMP JUMPDEST PUSH0 DUP3 DUP3 SHR SWAP1 POP SWAP3 SWAP2 POP POP JUMP JUMPDEST PUSH0 PUSH2 0x818 PUSH0 NOT DUP5 PUSH1 0x8 MUL PUSH2 0x7FD JUMP JUMPDEST NOT DUP1 DUP4 AND SWAP2 POP POP SWAP3 SWAP2 POP POP JUMP JUMPDEST PUSH0 PUSH2 0x830 DUP4 DUP4 PUSH2 0x809 JUMP JUMPDEST SWAP2 POP DUP3 PUSH1 0x2 MUL DUP3 OR SWAP1 POP SWAP3 SWAP2 POP POP JUMP JUMPDEST PUSH2 0x849 DUP3 PUSH2 0x4B6 JUMP JUMPDEST PUSH8 0xFFFFFFFFFFFFFFFF DUP2 GT ISZERO PUSH2 0x862 JUMPI PUSH2 0x861 PUSH2 0x2BE JUMP JUMPDEST JUMPDEST PUSH2 0x86C DUP3 SLOAD PUSH2 0x670 JUMP JUMPDEST PUSH2 0x877 DUP3 DUP3 DUP6 PUSH2 0x7B7 JUMP JUMPDEST PUSH0 PUSH1 0x20 SWAP1 POP PUSH1 0x1F DUP4 GT PUSH1 0x1 DUP2 EQ PUSH2 0x8A8 JUMPI PUSH0 DUP5 ISZERO PUSH2 0x896 JUMPI DUP3 DUP8 ADD MLOAD SWAP1 POP JUMPDEST PUSH2 0x8A0 DUP6 DUP3 PUSH2 0x825 JUMP JUMPDEST DUP7 SSTORE POP PUSH2 0x907 JUMP JUMPDEST PUSH1 0x1F NOT DUP5 AND PUSH2 0x8B6 DUP7 PUSH2 0x6A0 JUMP JUMPDEST PUSH0 JUMPDEST DUP3 DUP2 LT ISZERO PUSH2 0x8DD JUMPI DUP5 DUP10 ADD MLOAD DUP3 SSTORE PUSH1 0x1 DUP3 ADD SWAP2 POP PUSH1 0x20 DUP6 ADD SWAP5 POP PUSH1 0x20 DUP2 ADD SWAP1 POP PUSH2 0x8B8 JUMP JUMPDEST DUP7 DUP4 LT ISZERO PUSH2 0x8FA JUMPI DUP5 DUP10 ADD MLOAD PUSH2 0x8F6 PUSH1 0x1F DUP10 AND DUP3 PUSH2 0x809 JUMP JUMPDEST DUP4 SSTORE POP JUMPDEST PUSH1 0x1 PUSH1 0x2 DUP9 MUL ADD DUP9 SSTORE POP POP POP JUMPDEST POP POP POP POP POP POP JUMP INVALID LOG2 PUSH5 0x6970667358 0x22 SLT KECCAK256 EXTSTATICCALL BLOBBASEFEE 0xBB 0xBE 0xD0 DIV EXTCALL 0xD9 MSTORE8 NUMBER GASPRICE 0x2B 0xB7 INVALID 0xAC PUSH6 0x307CBCA45263 EXP CODESIZE 0x2A 0xC PUSH22 0x9CD197E09464736F6C634300081E0033000000000000 "
				},
				"gasEstimates": {
					"creation": {
						"codeDepositCost": "474600",
						"executionCost": "509",
						"totalCost": "475109"
					},
					"external": {
						"getDetails()": "infinite",
						"s1()": "infinite",
						"setDetails(string,uint256,bool)": "infinite"
					}
				},
				"methodIdentifiers": {
					"getDetails()": "fbbf93a0",
					"s1()": "6cc014de",
					"setDetails(string,uint256,bool)": "2a26dcfb"
				}
			},
			"storageLayout": {
				"storage": [
					{
						"astId": 11,
						"contract": "contracts/Intermediate/struct.sol:structExample",
						"label": "s1",
						"offset": 0,
						"slot": "0",
						"type": "t_struct(Student)8_storage"
					}
				],
				"types": {
					"t_bool": {
						"encoding": "inplace",
						"label": "bool",
						"numberOfBytes": "1"
					},
					"t_string_storage": {
						"encoding": "bytes",
						"label": "string",
						"numberOfBytes": "32"
					},
					"t_struct(Student)8_storage": {
						"encoding": "inplace",
						"label": "struct structExample.Student",
						"members": [
							{
								"astId": 3,
								"contract": "contracts/Intermediate/struct.sol:structExample",
								"label": "name",
								"offset": 0,
								"slot": "0",
								"type": "t_string_storage"
							},
							{
								"astId": 5,
								"contract": "contracts/Intermediate/struct.sol:structExample",
								"label": "age",
								"offset": 0,
								"slot": "1",
								"type": "t_uint256"
							},
							{
								"astId": 7,
								"contract": "contracts/Intermediate/struct.sol:structExample",
								"label": "isPassed",
								"offset": 0,
								"slot": "2",
								"type": "t_bool"
							}
						],
						"numberOfBytes": "96"
					},
					"t_uint256": {
						"encoding": "inplace",
						"label": "uint256",
						"numberOfBytes": "32"
					}
				}
			},
			"userdoc": {
				"kind": "user",
				"methods": {},
				"version": 1
			}
		}
	}
}