{
	"contracts/twitter/tweet.sol": {
		"TweeterContract": {
			"abi": [
				{
					"inputs": [
						{
							"internalType": "address",
							"name": "_operator",
							"type": "address"
						}
					],
					"name": "allow",
					"outputs": [],
					"stateMutability": "nonpayable",
					"type": "function"
				},
				{
					"inputs": [
						{
							"internalType": "address",
							"name": "",
							"type": "address"
						},
						{
							"internalType": "uint256",
							"name": "",
							"type": "uint256"
						}
					],
					"name": "conversations",
					"outputs": [
						{
							"internalType": "uint256",
							"name": "id",
							"type": "uint256"
						},
						{
							"internalType": "string",
							"name": "content",
							"type": "string"
						},
						{
							"internalType": "address",
							"name": "from",
							"type": "address"
						},
						{
							"internalType": "address",
							"name": "to",
							"type": "address"
						},
						{
							"internalType": "uint256",
							"name": "createdAt",
							"type": "uint256"
						}
					],
					"stateMutability": "view",
					"type": "function"
				},
				{
					"inputs": [
						{
							"internalType": "address",
							"name": "_operator",
							"type": "address"
						}
					],
					"name": "disAllow",
					"outputs": [],
					"stateMutability": "nonpayable",
					"type": "function"
				},
				{
					"inputs": [
						{
							"internalType": "address",
							"name": "_followed",
							"type": "address"
						}
					],
					"name": "follow",
					"outputs": [],
					"stateMutability": "nonpayable",
					"type": "function"
				},
				{
					"inputs": [
						{
							"internalType": "address",
							"name": "",
							"type": "address"
						},
						{
							"internalType": "uint256",
							"name": "",
							"type": "uint256"
						}
					],
					"name": "following",
					"outputs": [
						{
							"internalType": "address",
							"name": "",
							"type": "address"
						}
					],
					"stateMutability": "view",
					"type": "function"
				},
				{
					"inputs": [
						{
							"internalType": "uint256",
							"name": "count",
							"type": "uint256"
						}
					],
					"name": "getLatestTweets",
					"outputs": [
						{
							"components": [
								{
									"internalType": "uint256",
									"name": "id",
									"type": "uint256"
								},
								{
									"internalType": "address",
									"name": "author",
									"type": "address"
								},
								{
									"internalType": "string",
									"name": "content",
									"type": "string"
								},
								{
									"internalType": "uint256",
									"name": "createdAt",
									"type": "uint256"
								}
							],
							"internalType": "struct TweeterContract.Tweet[]",
							"name": "",
							"type": "tuple[]"
						}
					],
					"stateMutability": "view",
					"type": "function"
				},
				{
					"inputs": [
						{
							"internalType": "address",
							"name": "_user",
							"type": "address"
						},
						{
							"internalType": "uint256",
							"name": "counts",
							"type": "uint256"
						}
					],
					"name": "getLatestTweetsOfUsers",
					"outputs": [
						{
							"components": [
								{
									"internalType": "uint256",
									"name": "id",
									"type": "uint256"
								},
								{
									"internalType": "address",
									"name": "author",
									"type": "address"
								},
								{
									"internalType": "string",
									"name": "content",
									"type": "string"
								},
								{
									"internalType": "uint256",
									"name": "createdAt",
									"type": "uint256"
								}
							],
							"internalType": "struct TweeterContract.Tweet[]",
							"name": "",
							"type": "tuple[]"
						}
					],
					"stateMutability": "view",
					"type": "function"
				},
				{
					"inputs": [
						{
							"internalType": "address",
							"name": "",
							"type": "address"
						},
						{
							"internalType": "address",
							"name": "",
							"type": "address"
						}
					],
					"name": "operators",
					"outputs": [
						{
							"internalType": "bool",
							"name": "",
							"type": "bool"
						}
					],
					"stateMutability": "view",
					"type": "function"
				},
				{
					"inputs": [
						{
							"internalType": "address",
							"name": "_from",
							"type": "address"
						},
						{
							"internalType": "address",
							"name": "_to",
							"type": "address"
						},
						{
							"internalType": "string",
							"name": "_content",
							"type": "string"
						}
					],
					"name": "sendMessage",
					"outputs": [],
					"stateMutability": "nonpayable",
					"type": "function"
				},
				{
					"inputs": [
						{
							"internalType": "string",
							"name": "_content",
							"type": "string"
						},
						{
							"internalType": "address",
							"name": "_to",
							"type": "address"
						}
					],
					"name": "sendMessage",
					"outputs": [],
					"stateMutability": "nonpayable",
					"type": "function"
				},
				{
					"inputs": [
						{
							"internalType": "address",
							"name": "_from",
							"type": "address"
						},
						{
							"internalType": "string",
							"name": "_content",
							"type": "string"
						}
					],
					"name": "tweet",
					"outputs": [],
					"stateMutability": "nonpayable",
					"type": "function"
				},
				{
					"inputs": [
						{
							"internalType": "string",
							"name": "_content",
							"type": "string"
						}
					],
					"name": "tweet",
					"outputs": [],
					"stateMutability": "nonpayable",
					"type": "function"
				},
				{
					"inputs": [
						{
							"internalType": "uint256",
							"name": "",
							"type": "uint256"
						}
					],
					"name": "tweets",
					"outputs": [
						{
							"internalType": "uint256",
							"name": "id",
							"type": "uint256"
						},
						{
							"internalType": "address",
							"name": "author",
							"type": "address"
						},
						{
							"internalType": "string",
							"name": "content",
							"type": "string"
						},
						{
							"internalType": "uint256",
							"name": "createdAt",
							"type": "uint256"
						}
					],
					"stateMutability": "view",
					"type": "function"
				},
				{
					"inputs": [
						{
							"internalType": "address",
							"name": "",
							"type": "address"
						},
						{
							"internalType": "uint256",
							"name": "",
							"type": "uint256"
						}
					],
					"name": "tweetsOf",
					"outputs": [
						{
							"internalType": "uint256",
							"name": "",
							"type": "uint256"
						}
					],
					"stateMutability": "view",
					"type": "function"
				}
			],
			"devdoc": {
				"kind": "dev",
				"methods": {},
				"version": 1
			},
			"evm": {
				"assembly": "    /* \"contracts/twitter/tweet.sol\":74:3227  contract TweeterContract{... */\n  mstore(0x40, 0x80)\n  callvalue\n  dup1\n  iszero\n  tag_1\n  jumpi\n  revert(0x00, 0x00)\ntag_1:\n  pop\n  dataSize(sub_0)\n  dup1\n  dataOffset(sub_0)\n  0x00\n  codecopy\n  0x00\n  return\nstop\n\nsub_0: assembly {\n        /* \"contracts/twitter/tweet.sol\":74:3227  contract TweeterContract{... */\n      mstore(0x40, 0x80)\n      callvalue\n      dup1\n      iszero\n      tag_1\n      jumpi\n      revert(0x00, 0x00)\n    tag_1:\n      pop\n      jumpi(tag_2, lt(calldatasize, 0x04))\n      shr(0xe0, calldataload(0x00))\n      dup1\n      0xc48d6d5e\n      gt\n      tag_17\n      jumpi\n      dup1\n      0xdce9e0f3\n      gt\n      tag_18\n      jumpi\n      dup1\n      0xdce9e0f3\n      eq\n      tag_13\n      jumpi\n      dup1\n      0xe8d857b0\n      eq\n      tag_14\n      jumpi\n      dup1\n      0xfb46d4c5\n      eq\n      tag_15\n      jumpi\n      dup1\n      0xff9913e8\n      eq\n      tag_16\n      jumpi\n      jump(tag_2)\n    tag_18:\n      dup1\n      0xc48d6d5e\n      eq\n      tag_10\n      jumpi\n      dup1\n      0xcf8aacdd\n      eq\n      tag_11\n      jumpi\n      dup1\n      0xd21d1596\n      eq\n      tag_12\n      jumpi\n      jump(tag_2)\n    tag_17:\n      dup1\n      0x4dc0a687\n      gt\n      tag_19\n      jumpi\n      dup1\n      0x4dc0a687\n      eq\n      tag_6\n      jumpi\n      dup1\n      0x9139cda5\n      eq\n      tag_7\n      jumpi\n      dup1\n      0xaf22bf94\n      eq\n      tag_8\n      jumpi\n      dup1\n      0xb88e318d\n      eq\n      tag_9\n      jumpi\n      jump(tag_2)\n    tag_19:\n      dup1\n      0x2637588e\n      eq\n      tag_3\n      jumpi\n      dup1\n      0x3befea09\n      eq\n      tag_4\n      jumpi\n      dup1\n      0x4dbf27cc\n      eq\n      tag_5\n      jumpi\n    tag_2:\n      revert(0x00, 0x00)\n        /* \"contracts/twitter/tweet.sol\":502:562  mapping (address => mapping(address=>bool)) public operators */\n    tag_3:\n      tag_20\n      0x04\n      dup1\n      calldatasize\n      sub\n      dup2\n      add\n      swap1\n      tag_21\n      swap2\n      swap1\n      tag_22\n      jump\t// in\n    tag_21:\n      tag_23\n      jump\t// in\n    tag_20:\n      mload(0x40)\n      tag_24\n      swap2\n      swap1\n      tag_25\n      jump\t// in\n    tag_24:\n      mload(0x40)\n      dup1\n      swap2\n      sub\n      swap1\n      return\n        /* \"contracts/twitter/tweet.sol\":444:495  mapping (address => Message[]) public conversations */\n    tag_4:\n      tag_26\n      0x04\n      dup1\n      calldatasize\n      sub\n      dup2\n      add\n      swap1\n      tag_27\n      swap2\n      swap1\n      tag_28\n      jump\t// in\n    tag_27:\n      tag_29\n      jump\t// in\n    tag_26:\n      mload(0x40)\n      tag_30\n      swap6\n      swap5\n      swap4\n      swap3\n      swap2\n      swap1\n      tag_31\n      jump\t// in\n    tag_30:\n      mload(0x40)\n      dup1\n      swap2\n      sub\n      swap1\n      return\n        /* \"contracts/twitter/tweet.sol\":1598:1708  function follow(address _followed) public {... */\n    tag_5:\n      tag_32\n      0x04\n      dup1\n      calldatasize\n      sub\n      dup2\n      add\n      swap1\n      tag_33\n      swap2\n      swap1\n      tag_34\n      jump\t// in\n    tag_33:\n      tag_35\n      jump\t// in\n    tag_32:\n      stop\n        /* \"contracts/twitter/tweet.sol\":1940:2532  function getLatestTweets(uint count) public view returns (Tweet[] memory){... */\n    tag_6:\n      tag_36\n      0x04\n      dup1\n      calldatasize\n      sub\n      dup2\n      add\n      swap1\n      tag_37\n      swap2\n      swap1\n      tag_38\n      jump\t// in\n    tag_37:\n      tag_39\n      jump\t// in\n    tag_36:\n      mload(0x40)\n      tag_40\n      swap2\n      swap1\n      tag_41\n      jump\t// in\n    tag_40:\n      mload(0x40)\n      dup1\n      swap2\n      sub\n      swap1\n      return\n        /* \"contracts/twitter/tweet.sol\":569:616  mapping (address => address[]) public following */\n    tag_7:\n      tag_42\n      0x04\n      dup1\n      calldatasize\n      sub\n      dup2\n      add\n      swap1\n      tag_43\n      swap2\n      swap1\n      tag_28\n      jump\t// in\n    tag_43:\n      tag_44\n      jump\t// in\n    tag_42:\n      mload(0x40)\n      tag_45\n      swap2\n      swap1\n      tag_46\n      jump\t// in\n    tag_45:\n      mload(0x40)\n      dup1\n      swap2\n      sub\n      swap1\n      return\n        /* \"contracts/twitter/tweet.sol\":394:437  mapping (address => uint[]) public tweetsOf */\n    tag_8:\n      tag_47\n      0x04\n      dup1\n      calldatasize\n      sub\n      dup2\n      add\n      swap1\n      tag_48\n      swap2\n      swap1\n      tag_28\n      jump\t// in\n    tag_48:\n      tag_49\n      jump\t// in\n    tag_47:\n      mload(0x40)\n      tag_50\n      swap2\n      swap1\n      tag_51\n      jump\t// in\n    tag_50:\n      mload(0x40)\n      dup1\n      swap2\n      sub\n      swap1\n      return\n        /* \"contracts/twitter/tweet.sol\":1454:1586  function sendMessage(address _from ,address _to, string memory _content) public{... */\n    tag_9:\n      tag_52\n      0x04\n      dup1\n      calldatasize\n      sub\n      dup2\n      add\n      swap1\n      tag_53\n      swap2\n      swap1\n      tag_54\n      jump\t// in\n    tag_53:\n      tag_55\n      jump\t// in\n    tag_52:\n      stop\n        /* \"contracts/twitter/tweet.sol\":1323:1446  function sendMessage(string memory _content, address _to) public {... */\n    tag_10:\n      tag_56\n      0x04\n      dup1\n      calldatasize\n      sub\n      dup2\n      add\n      swap1\n      tag_57\n      swap2\n      swap1\n      tag_58\n      jump\t// in\n    tag_57:\n      tag_59\n      jump\t// in\n    tag_56:\n      stop\n        /* \"contracts/twitter/tweet.sol\":1826:1930  function disAllow (address _operator) public {... */\n    tag_11:\n      tag_60\n      0x04\n      dup1\n      calldatasize\n      sub\n      dup2\n      add\n      swap1\n      tag_61\n      swap2\n      swap1\n      tag_34\n      jump\t// in\n    tag_61:\n      tag_62\n      jump\t// in\n    tag_60:\n      stop\n        /* \"contracts/twitter/tweet.sol\":1185:1315  function tweet (address _from, string memory _content) public { // Owner => access control... */\n    tag_12:\n      tag_63\n      0x04\n      dup1\n      calldatasize\n      sub\n      dup2\n      add\n      swap1\n      tag_64\n      swap2\n      swap1\n      tag_65\n      jump\t// in\n    tag_64:\n      tag_66\n      jump\t// in\n    tag_63:\n      stop\n        /* \"contracts/twitter/tweet.sol\":2542:3224  function getLatestTweetsOfUsers (address _user , uint counts) public view returns ( Tweet[] memory){... */\n    tag_13:\n      tag_67\n      0x04\n      dup1\n      calldatasize\n      sub\n      dup2\n      add\n      swap1\n      tag_68\n      swap2\n      swap1\n      tag_28\n      jump\t// in\n    tag_68:\n      tag_69\n      jump\t// in\n    tag_67:\n      mload(0x40)\n      tag_70\n      swap2\n      swap1\n      tag_41\n      jump\t// in\n    tag_70:\n      mload(0x40)\n      dup1\n      swap2\n      sub\n      swap1\n      return\n        /* \"contracts/twitter/tweet.sol\":350:387  mapping (uint => Tweet) public tweets */\n    tag_14:\n      tag_71\n      0x04\n      dup1\n      calldatasize\n      sub\n      dup2\n      add\n      swap1\n      tag_72\n      swap2\n      swap1\n      tag_38\n      jump\t// in\n    tag_72:\n      tag_73\n      jump\t// in\n    tag_71:\n      mload(0x40)\n      tag_74\n      swap5\n      swap4\n      swap3\n      swap2\n      swap1\n      tag_75\n      jump\t// in\n    tag_74:\n      mload(0x40)\n      dup1\n      swap2\n      sub\n      swap1\n      return\n        /* \"contracts/twitter/tweet.sol\":1075:1177  function tweet(string memory _content) public{ //Owner ... */\n    tag_15:\n      tag_76\n      0x04\n      dup1\n      calldatasize\n      sub\n      dup2\n      add\n      swap1\n      tag_77\n      swap2\n      swap1\n      tag_78\n      jump\t// in\n    tag_77:\n      tag_79\n      jump\t// in\n    tag_76:\n      stop\n        /* \"contracts/twitter/tweet.sol\":1716:1816  function allow (address _operator) public {... */\n    tag_16:\n      tag_80\n      0x04\n      dup1\n      calldatasize\n      sub\n      dup2\n      add\n      swap1\n      tag_81\n      swap2\n      swap1\n      tag_34\n      jump\t// in\n    tag_81:\n      tag_82\n      jump\t// in\n    tag_80:\n      stop\n        /* \"contracts/twitter/tweet.sol\":502:562  mapping (address => mapping(address=>bool)) public operators */\n    tag_23:\n      mstore(0x20, 0x03)\n      dup2\n      0x00\n      mstore\n      mstore(0x20, keccak256(0x00, 0x40))\n      dup1\n      0x00\n      mstore\n      keccak256(0x00, 0x40)\n      0x00\n      swap2\n      pop\n      swap2\n      pop\n      swap1\n      sload\n      swap1\n      0x0100\n      exp\n      swap1\n      div\n      0xff\n      and\n      dup2\n      jump\t// out\n        /* \"contracts/twitter/tweet.sol\":444:495  mapping (address => Message[]) public conversations */\n    tag_29:\n      mstore(0x20, 0x02)\n      dup2\n      0x00\n      mstore\n      keccak256(0x00, 0x40)\n      dup2\n      dup2\n      sload\n      dup2\n      lt\n      tag_83\n      jumpi\n      0x00\n      dup1\n      revert\n    tag_83:\n      swap1\n      0x00\n      mstore\n      keccak256(0x00, 0x20)\n      swap1\n      0x05\n      mul\n      add\n      0x00\n      swap2\n      pop\n      swap2\n      pop\n      pop\n      dup1\n      0x00\n      add\n      sload\n      swap1\n      dup1\n      0x01\n      add\n      dup1\n      sload\n      tag_85\n      swap1\n      tag_86\n      jump\t// in\n    tag_85:\n      dup1\n      0x1f\n      add\n      0x20\n      dup1\n      swap2\n      div\n      mul\n      0x20\n      add\n      mload(0x40)\n      swap1\n      dup2\n      add\n      0x40\n      mstore\n      dup1\n      swap3\n      swap2\n      swap1\n      dup2\n      dup2\n      mstore\n      0x20\n      add\n      dup3\n      dup1\n      sload\n      tag_87\n      swap1\n      tag_86\n      jump\t// in\n    tag_87:\n      dup1\n      iszero\n      tag_88\n      jumpi\n      dup1\n      0x1f\n      lt\n      tag_89\n      jumpi\n      0x0100\n      dup1\n      dup4\n      sload\n      div\n      mul\n      dup4\n      mstore\n      swap2\n      0x20\n      add\n      swap2\n      jump(tag_88)\n    tag_89:\n      dup3\n      add\n      swap2\n      swap1\n      0x00\n      mstore\n      keccak256(0x00, 0x20)\n      swap1\n    tag_90:\n      dup2\n      sload\n      dup2\n      mstore\n      swap1\n      0x01\n      add\n      swap1\n      0x20\n      add\n      dup1\n      dup4\n      gt\n      tag_90\n      jumpi\n      dup3\n      swap1\n      sub\n      0x1f\n      and\n      dup3\n      add\n      swap2\n    tag_88:\n      pop\n      pop\n      pop\n      pop\n      pop\n      swap1\n      dup1\n      0x02\n      add\n      0x00\n      swap1\n      sload\n      swap1\n      0x0100\n      exp\n      swap1\n      div\n      0xffffffffffffffffffffffffffffffffffffffff\n      and\n      swap1\n      dup1\n      0x03\n      add\n      0x00\n      swap1\n      sload\n      swap1\n      0x0100\n      exp\n      swap1\n      div\n      0xffffffffffffffffffffffffffffffffffffffff\n      and\n      swap1\n      dup1\n      0x04\n      add\n      sload\n      swap1\n      pop\n      dup6\n      jump\t// out\n        /* \"contracts/twitter/tweet.sol\":1598:1708  function follow(address _followed) public {... */\n    tag_35:\n        /* \"contracts/twitter/tweet.sol\":1651:1660  following */\n      0x04\n        /* \"contracts/twitter/tweet.sol\":1651:1673  following [msg.sender] */\n      0x00\n        /* \"contracts/twitter/tweet.sol\":1662:1672  msg.sender */\n      caller\n        /* \"contracts/twitter/tweet.sol\":1651:1673  following [msg.sender] */\n      0xffffffffffffffffffffffffffffffffffffffff\n      and\n      0xffffffffffffffffffffffffffffffffffffffff\n      and\n      dup2\n      mstore\n      0x20\n      add\n      swap1\n      dup2\n      mstore\n      0x20\n      add\n      0x00\n      keccak256\n        /* \"contracts/twitter/tweet.sol\":1680:1689  _followed */\n      dup2\n        /* \"contracts/twitter/tweet.sol\":1651:1690  following [msg.sender].push (_followed) */\n      swap1\n      dup1\n      0x01\n      dup2\n      sload\n      add\n      dup1\n      dup3\n      sstore\n      dup1\n      swap2\n      pop\n      pop\n      0x01\n      swap1\n      sub\n      swap1\n      0x00\n      mstore\n      keccak256(0x00, 0x20)\n      add\n      0x00\n      swap1\n      swap2\n      swap1\n      swap2\n      swap1\n      swap2\n      0x0100\n      exp\n      dup2\n      sload\n      dup2\n      0xffffffffffffffffffffffffffffffffffffffff\n      mul\n      not\n      and\n      swap1\n      dup4\n      0xffffffffffffffffffffffffffffffffffffffff\n      and\n      mul\n      or\n      swap1\n      sstore\n      pop\n        /* \"contracts/twitter/tweet.sol\":1598:1708  function follow(address _followed) public {... */\n      pop\n      jump\t// out\n        /* \"contracts/twitter/tweet.sol\":1940:2532  function getLatestTweets(uint count) public view returns (Tweet[] memory){... */\n    tag_39:\n        /* \"contracts/twitter/tweet.sol\":1998:2012  Tweet[] memory */\n      0x60\n        /* \"contracts/twitter/tweet.sol\":2039:2040  0 */\n      0x00\n        /* \"contracts/twitter/tweet.sol\":2033:2038  count */\n      dup3\n        /* \"contracts/twitter/tweet.sol\":2033:2040  count>0 */\n      gt\n        /* \"contracts/twitter/tweet.sol\":2033:2059  count>0 && count <= nextId */\n      dup1\n      iszero\n      tag_94\n      jumpi\n      pop\n        /* \"contracts/twitter/tweet.sol\":2053:2059  nextId */\n      sload(0x05)\n        /* \"contracts/twitter/tweet.sol\":2044:2049  count */\n      dup3\n        /* \"contracts/twitter/tweet.sol\":2044:2059  count <= nextId */\n      gt\n      iszero\n        /* \"contracts/twitter/tweet.sol\":2033:2059  count>0 && count <= nextId */\n    tag_94:\n        /* \"contracts/twitter/tweet.sol\":2024:2084  require (count>0 && count <= nextId , \"Count is Not Proper\") */\n      tag_95\n      jumpi\n      mload(0x40)\n      0x08c379a000000000000000000000000000000000000000000000000000000000\n      dup2\n      mstore\n      0x04\n      add\n      tag_96\n      swap1\n      tag_97\n      jump\t// in\n    tag_96:\n      mload(0x40)\n      dup1\n      swap2\n      sub\n      swap1\n      revert\n    tag_95:\n        /* \"contracts/twitter/tweet.sol\":2097:2119  Tweet[] memory _tweets */\n      0x00\n        /* \"contracts/twitter/tweet.sol\":2134:2139  count */\n      dup3\n        /* \"contracts/twitter/tweet.sol\":2122:2140  new Tweet[](count) */\n      0xffffffffffffffff\n      dup2\n      gt\n      iszero\n      tag_98\n      jumpi\n      tag_99\n      tag_100\n      jump\t// in\n    tag_99:\n    tag_98:\n      mload(0x40)\n      swap1\n      dup1\n      dup3\n      mstore\n      dup1\n      0x20\n      mul\n      0x20\n      add\n      dup3\n      add\n      0x40\n      mstore\n      dup1\n      iszero\n      tag_101\n      jumpi\n      dup2\n      0x20\n      add\n    tag_102:\n      tag_103\n      tag_104\n      jump\t// in\n    tag_103:\n      dup2\n      mstore\n      0x20\n      add\n      swap1\n      0x01\n      swap1\n      sub\n      swap1\n      dup2\n      tag_102\n      jumpi\n      swap1\n      pop\n    tag_101:\n      pop\n        /* \"contracts/twitter/tweet.sol\":2097:2140  Tweet[] memory _tweets = new Tweet[](count) */\n      swap1\n      pop\n        /* \"contracts/twitter/tweet.sol\":2153:2159  uint j */\n      0x00\n        /* \"contracts/twitter/tweet.sol\":2176:2182  uint i */\n      0x00\n        /* \"contracts/twitter/tweet.sol\":2191:2196  count */\n      dup5\n        /* \"contracts/twitter/tweet.sol\":2184:2190  nextId */\n      sload(0x05)\n        /* \"contracts/twitter/tweet.sol\":2184:2196  nextId-count */\n      tag_108\n      swap2\n      swap1\n      tag_109\n      jump\t// in\n    tag_108:\n        /* \"contracts/twitter/tweet.sol\":2176:2196  uint i =nextId-count */\n      swap1\n      pop\n        /* \"contracts/twitter/tweet.sol\":2172:2500  for(uint i =nextId-count; i<nextId ;i++ ){... */\n    tag_105:\n        /* \"contracts/twitter/tweet.sol\":2200:2206  nextId */\n      sload(0x05)\n        /* \"contracts/twitter/tweet.sol\":2198:2199  i */\n      dup2\n        /* \"contracts/twitter/tweet.sol\":2198:2206  i<nextId */\n      lt\n        /* \"contracts/twitter/tweet.sol\":2172:2500  for(uint i =nextId-count; i<nextId ;i++ ){... */\n      iszero\n      tag_106\n      jumpi\n        /* \"contracts/twitter/tweet.sol\":2230:2254  Tweet storage _structure */\n      0x00\n        /* \"contracts/twitter/tweet.sol\":2257:2263  tweets */\n      0x00\n        /* \"contracts/twitter/tweet.sol\":2257:2266  tweets[i] */\n      0x00\n        /* \"contracts/twitter/tweet.sol\":2264:2265  i */\n      dup4\n        /* \"contracts/twitter/tweet.sol\":2257:2266  tweets[i] */\n      dup2\n      mstore\n      0x20\n      add\n      swap1\n      dup2\n      mstore\n      0x20\n      add\n      0x00\n      keccak256\n        /* \"contracts/twitter/tweet.sol\":2230:2266  Tweet storage _structure = tweets[i] */\n      swap1\n      pop\n        /* \"contracts/twitter/tweet.sol\":2295:2467  Tweet(... */\n      mload(0x40)\n      dup1\n      0x80\n      add\n      0x40\n      mstore\n      dup1\n        /* \"contracts/twitter/tweet.sol\":2319:2329  _structure */\n      dup3\n        /* \"contracts/twitter/tweet.sol\":2319:2332  _structure.id */\n      0x00\n      add\n      sload\n        /* \"contracts/twitter/tweet.sol\":2295:2467  Tweet(... */\n      dup2\n      mstore\n      0x20\n      add\n        /* \"contracts/twitter/tweet.sol\":2352:2362  _structure */\n      dup3\n        /* \"contracts/twitter/tweet.sol\":2352:2369  _structure.author */\n      0x01\n      add\n      0x00\n      swap1\n      sload\n      swap1\n      0x0100\n      exp\n      swap1\n      div\n      0xffffffffffffffffffffffffffffffffffffffff\n      and\n        /* \"contracts/twitter/tweet.sol\":2295:2467  Tweet(... */\n      0xffffffffffffffffffffffffffffffffffffffff\n      and\n      dup2\n      mstore\n      0x20\n      add\n        /* \"contracts/twitter/tweet.sol\":2389:2399  _structure */\n      dup3\n        /* \"contracts/twitter/tweet.sol\":2389:2407  _structure.content */\n      0x02\n      add\n        /* \"contracts/twitter/tweet.sol\":2295:2467  Tweet(... */\n      dup1\n      sload\n      tag_110\n      swap1\n      tag_86\n      jump\t// in\n    tag_110:\n      dup1\n      0x1f\n      add\n      0x20\n      dup1\n      swap2\n      div\n      mul\n      0x20\n      add\n      mload(0x40)\n      swap1\n      dup2\n      add\n      0x40\n      mstore\n      dup1\n      swap3\n      swap2\n      swap1\n      dup2\n      dup2\n      mstore\n      0x20\n      add\n      dup3\n      dup1\n      sload\n      tag_111\n      swap1\n      tag_86\n      jump\t// in\n    tag_111:\n      dup1\n      iszero\n      tag_112\n      jumpi\n      dup1\n      0x1f\n      lt\n      tag_113\n      jumpi\n      0x0100\n      dup1\n      dup4\n      sload\n      div\n      mul\n      dup4\n      mstore\n      swap2\n      0x20\n      add\n      swap2\n      jump(tag_112)\n    tag_113:\n      dup3\n      add\n      swap2\n      swap1\n      0x00\n      mstore\n      keccak256(0x00, 0x20)\n      swap1\n    tag_114:\n      dup2\n      sload\n      dup2\n      mstore\n      swap1\n      0x01\n      add\n      swap1\n      0x20\n      add\n      dup1\n      dup4\n      gt\n      tag_114\n      jumpi\n      dup3\n      swap1\n      sub\n      0x1f\n      and\n      dup3\n      add\n      swap2\n    tag_112:\n      pop\n      pop\n      pop\n      pop\n      pop\n      dup2\n      mstore\n      0x20\n      add\n        /* \"contracts/twitter/tweet.sol\":2428:2438  _structure */\n      dup3\n        /* \"contracts/twitter/tweet.sol\":2428:2448  _structure.createdAt */\n      0x03\n      add\n      sload\n        /* \"contracts/twitter/tweet.sol\":2295:2467  Tweet(... */\n      dup2\n      mstore\n      pop\n        /* \"contracts/twitter/tweet.sol\":2283:2290  _tweets */\n      dup5\n        /* \"contracts/twitter/tweet.sol\":2291:2292  j */\n      dup5\n        /* \"contracts/twitter/tweet.sol\":2283:2293  _tweets[j] */\n      dup2\n      mload\n      dup2\n      lt\n      tag_115\n      jumpi\n      tag_116\n      tag_117\n      jump\t// in\n    tag_116:\n    tag_115:\n      0x20\n      mul\n      0x20\n      add\n      add\n        /* \"contracts/twitter/tweet.sol\":2283:2467  _tweets[j] =Tweet(... */\n      dup2\n      swap1\n      mstore\n      pop\n        /* \"contracts/twitter/tweet.sol\":2487:2488  1 */\n      0x01\n        /* \"contracts/twitter/tweet.sol\":2485:2486  j */\n      dup4\n        /* \"contracts/twitter/tweet.sol\":2485:2488  j+1 */\n      tag_118\n      swap2\n      swap1\n      tag_119\n      jump\t// in\n    tag_118:\n        /* \"contracts/twitter/tweet.sol\":2482:2488  j= j+1 */\n      swap3\n      pop\n        /* \"contracts/twitter/tweet.sol\":2213:2500  {... */\n      pop\n        /* \"contracts/twitter/tweet.sol\":2208:2211  i++ */\n      dup1\n      dup1\n      0x01\n      add\n      swap2\n      pop\n      pop\n        /* \"contracts/twitter/tweet.sol\":2172:2500  for(uint i =nextId-count; i<nextId ;i++ ){... */\n      jump(tag_105)\n    tag_106:\n      pop\n        /* \"contracts/twitter/tweet.sol\":2517:2524  _tweets */\n      dup2\n        /* \"contracts/twitter/tweet.sol\":2510:2524  return _tweets */\n      swap3\n      pop\n      pop\n      pop\n        /* \"contracts/twitter/tweet.sol\":1940:2532  function getLatestTweets(uint count) public view returns (Tweet[] memory){... */\n      swap2\n      swap1\n      pop\n      jump\t// out\n        /* \"contracts/twitter/tweet.sol\":569:616  mapping (address => address[]) public following */\n    tag_44:\n      mstore(0x20, 0x04)\n      dup2\n      0x00\n      mstore\n      keccak256(0x00, 0x40)\n      dup2\n      dup2\n      sload\n      dup2\n      lt\n      tag_120\n      jumpi\n      0x00\n      dup1\n      revert\n    tag_120:\n      swap1\n      0x00\n      mstore\n      keccak256(0x00, 0x20)\n      add\n      0x00\n      swap2\n      pop\n      swap2\n      pop\n      swap1\n      sload\n      swap1\n      0x0100\n      exp\n      swap1\n      div\n      0xffffffffffffffffffffffffffffffffffffffff\n      and\n      dup2\n      jump\t// out\n        /* \"contracts/twitter/tweet.sol\":394:437  mapping (address => uint[]) public tweetsOf */\n    tag_49:\n      mstore(0x20, 0x01)\n      dup2\n      0x00\n      mstore\n      keccak256(0x00, 0x40)\n      dup2\n      dup2\n      sload\n      dup2\n      lt\n      tag_122\n      jumpi\n      0x00\n      dup1\n      revert\n    tag_122:\n      swap1\n      0x00\n      mstore\n      keccak256(0x00, 0x20)\n      add\n      0x00\n      swap2\n      pop\n      swap2\n      pop\n      pop\n      sload\n      dup2\n      jump\t// out\n        /* \"contracts/twitter/tweet.sol\":1454:1586  function sendMessage(address _from ,address _to, string memory _content) public{... */\n    tag_55:\n        /* \"contracts/twitter/tweet.sol\":1544:1578  _sendMessage(_from, _to, _content) */\n      tag_125\n        /* \"contracts/twitter/tweet.sol\":1557:1562  _from */\n      dup4\n        /* \"contracts/twitter/tweet.sol\":1564:1567  _to */\n      dup4\n        /* \"contracts/twitter/tweet.sol\":1569:1577  _content */\n      dup4\n        /* \"contracts/twitter/tweet.sol\":1544:1556  _sendMessage */\n      tag_126\n        /* \"contracts/twitter/tweet.sol\":1544:1578  _sendMessage(_from, _to, _content) */\n      jump\t// in\n    tag_125:\n        /* \"contracts/twitter/tweet.sol\":1454:1586  function sendMessage(address _from ,address _to, string memory _content) public{... */\n      pop\n      pop\n      pop\n      jump\t// out\n        /* \"contracts/twitter/tweet.sol\":1323:1446  function sendMessage(string memory _content, address _to) public {... */\n    tag_59:\n        /* \"contracts/twitter/tweet.sol\":1399:1438  _sendMessage(msg.sender, _to, _content) */\n      tag_128\n        /* \"contracts/twitter/tweet.sol\":1412:1422  msg.sender */\n      caller\n        /* \"contracts/twitter/tweet.sol\":1424:1427  _to */\n      dup3\n        /* \"contracts/twitter/tweet.sol\":1429:1437  _content */\n      dup5\n        /* \"contracts/twitter/tweet.sol\":1399:1411  _sendMessage */\n      tag_126\n        /* \"contracts/twitter/tweet.sol\":1399:1438  _sendMessage(msg.sender, _to, _content) */\n      jump\t// in\n    tag_128:\n        /* \"contracts/twitter/tweet.sol\":1323:1446  function sendMessage(string memory _content, address _to) public {... */\n      pop\n      pop\n      jump\t// out\n        /* \"contracts/twitter/tweet.sol\":1826:1930  function disAllow (address _operator) public {... */\n    tag_62:\n        /* \"contracts/twitter/tweet.sol\":1917:1922  false */\n      0x00\n        /* \"contracts/twitter/tweet.sol\":1882:1891  operators */\n      0x03\n        /* \"contracts/twitter/tweet.sol\":1882:1903  operators[msg.sender] */\n      0x00\n        /* \"contracts/twitter/tweet.sol\":1892:1902  msg.sender */\n      caller\n        /* \"contracts/twitter/tweet.sol\":1882:1903  operators[msg.sender] */\n      0xffffffffffffffffffffffffffffffffffffffff\n      and\n      0xffffffffffffffffffffffffffffffffffffffff\n      and\n      dup2\n      mstore\n      0x20\n      add\n      swap1\n      dup2\n      mstore\n      0x20\n      add\n      0x00\n      keccak256\n        /* \"contracts/twitter/tweet.sol\":1882:1914  operators[msg.sender][_operator] */\n      0x00\n        /* \"contracts/twitter/tweet.sol\":1904:1913  _operator */\n      dup4\n        /* \"contracts/twitter/tweet.sol\":1882:1914  operators[msg.sender][_operator] */\n      0xffffffffffffffffffffffffffffffffffffffff\n      and\n      0xffffffffffffffffffffffffffffffffffffffff\n      and\n      dup2\n      mstore\n      0x20\n      add\n      swap1\n      dup2\n      mstore\n      0x20\n      add\n      0x00\n      keccak256\n      0x00\n        /* \"contracts/twitter/tweet.sol\":1882:1922  operators[msg.sender][_operator] = false */\n      0x0100\n      exp\n      dup2\n      sload\n      dup2\n      0xff\n      mul\n      not\n      and\n      swap1\n      dup4\n      iszero\n      iszero\n      mul\n      or\n      swap1\n      sstore\n      pop\n        /* \"contracts/twitter/tweet.sol\":1826:1930  function disAllow (address _operator) public {... */\n      pop\n      jump\t// out\n        /* \"contracts/twitter/tweet.sol\":1185:1315  function tweet (address _from, string memory _content) public { // Owner => access control... */\n    tag_66:\n        /* \"contracts/twitter/tweet.sol\":1285:1307  _tweet(_from,_content) */\n      tag_131\n        /* \"contracts/twitter/tweet.sol\":1292:1297  _from */\n      dup3\n        /* \"contracts/twitter/tweet.sol\":1298:1306  _content */\n      dup3\n        /* \"contracts/twitter/tweet.sol\":1285:1291  _tweet */\n      tag_132\n        /* \"contracts/twitter/tweet.sol\":1285:1307  _tweet(_from,_content) */\n      jump\t// in\n    tag_131:\n        /* \"contracts/twitter/tweet.sol\":1185:1315  function tweet (address _from, string memory _content) public { // Owner => access control... */\n      pop\n      pop\n      jump\t// out\n        /* \"contracts/twitter/tweet.sol\":2542:3224  function getLatestTweetsOfUsers (address _user , uint counts) public view returns ( Tweet[] memory){... */\n    tag_69:\n        /* \"contracts/twitter/tweet.sol\":2626:2640  Tweet[] memory */\n      0x60\n        /* \"contracts/twitter/tweet.sol\":2654:2676  Tweet[] memory _tweets */\n      0x00\n        /* \"contracts/twitter/tweet.sol\":2691:2697  counts */\n      dup3\n        /* \"contracts/twitter/tweet.sol\":2679:2698  new Tweet[](counts) */\n      0xffffffffffffffff\n      dup2\n      gt\n      iszero\n      tag_134\n      jumpi\n      tag_135\n      tag_100\n      jump\t// in\n    tag_135:\n    tag_134:\n      mload(0x40)\n      swap1\n      dup1\n      dup3\n      mstore\n      dup1\n      0x20\n      mul\n      0x20\n      add\n      dup3\n      add\n      0x40\n      mstore\n      dup1\n      iszero\n      tag_136\n      jumpi\n      dup2\n      0x20\n      add\n    tag_137:\n      tag_138\n      tag_104\n      jump\t// in\n    tag_138:\n      dup2\n      mstore\n      0x20\n      add\n      swap1\n      0x01\n      swap1\n      sub\n      swap1\n      dup2\n      tag_137\n      jumpi\n      swap1\n      pop\n    tag_136:\n      pop\n        /* \"contracts/twitter/tweet.sol\":2654:2698  Tweet[] memory _tweets = new Tweet[](counts) */\n      swap1\n      pop\n        /* \"contracts/twitter/tweet.sol\":2709:2727  uint[] memory  ids */\n      0x00\n        /* \"contracts/twitter/tweet.sol\":2730:2738  tweetsOf */\n      0x01\n        /* \"contracts/twitter/tweet.sol\":2730:2745  tweetsOf[_user] */\n      0x00\n        /* \"contracts/twitter/tweet.sol\":2739:2744  _user */\n      dup7\n        /* \"contracts/twitter/tweet.sol\":2730:2745  tweetsOf[_user] */\n      0xffffffffffffffffffffffffffffffffffffffff\n      and\n      0xffffffffffffffffffffffffffffffffffffffff\n      and\n      dup2\n      mstore\n      0x20\n      add\n      swap1\n      dup2\n      mstore\n      0x20\n      add\n      0x00\n      keccak256\n        /* \"contracts/twitter/tweet.sol\":2709:2745  uint[] memory  ids = tweetsOf[_user] */\n      dup1\n      sload\n      dup1\n      0x20\n      mul\n      0x20\n      add\n      mload(0x40)\n      swap1\n      dup2\n      add\n      0x40\n      mstore\n      dup1\n      swap3\n      swap2\n      swap1\n      dup2\n      dup2\n      mstore\n      0x20\n      add\n      dup3\n      dup1\n      sload\n      dup1\n      iszero\n      tag_139\n      jumpi\n      0x20\n      mul\n      dup3\n      add\n      swap2\n      swap1\n      0x00\n      mstore\n      keccak256(0x00, 0x20)\n      swap1\n    tag_140:\n      dup2\n      sload\n      dup2\n      mstore\n      0x20\n      add\n      swap1\n      0x01\n      add\n      swap1\n      dup1\n      dup4\n      gt\n      tag_140\n      jumpi\n    tag_139:\n      pop\n      pop\n      pop\n      pop\n      pop\n      swap1\n      pop\n        /* \"contracts/twitter/tweet.sol\":2772:2773  0 */\n      0x00\n        /* \"contracts/twitter/tweet.sol\":2765:2771  counts */\n      dup5\n        /* \"contracts/twitter/tweet.sol\":2765:2773  counts>0 */\n      gt\n        /* \"contracts/twitter/tweet.sol\":2765:2797  counts>0 && counts <= ids.length */\n      dup1\n      iszero\n      tag_141\n      jumpi\n      pop\n        /* \"contracts/twitter/tweet.sol\":2787:2790  ids */\n      dup1\n        /* \"contracts/twitter/tweet.sol\":2787:2797  ids.length */\n      mload\n        /* \"contracts/twitter/tweet.sol\":2777:2783  counts */\n      dup5\n        /* \"contracts/twitter/tweet.sol\":2777:2797  counts <= ids.length */\n      gt\n      iszero\n        /* \"contracts/twitter/tweet.sol\":2765:2797  counts>0 && counts <= ids.length */\n    tag_141:\n        /* \"contracts/twitter/tweet.sol\":2756:2823  require (counts>0 && counts <= ids.length , \"Count is Not Defined\") */\n      tag_142\n      jumpi\n      mload(0x40)\n      0x08c379a000000000000000000000000000000000000000000000000000000000\n      dup2\n      mstore\n      0x04\n      add\n      tag_143\n      swap1\n      tag_144\n      jump\t// in\n    tag_143:\n      mload(0x40)\n      dup1\n      swap2\n      sub\n      swap1\n      revert\n    tag_142:\n        /* \"contracts/twitter/tweet.sol\":2834:2840  uint j */\n      0x00\n        /* \"contracts/twitter/tweet.sol\":2855:2861  uint i */\n      0x00\n        /* \"contracts/twitter/tweet.sol\":2875:2881  counts */\n      dup6\n        /* \"contracts/twitter/tweet.sol\":2864:2867  ids */\n      dup4\n        /* \"contracts/twitter/tweet.sol\":2864:2874  ids.length */\n      mload\n        /* \"contracts/twitter/tweet.sol\":2864:2881  ids.length-counts */\n      tag_148\n      swap2\n      swap1\n      tag_109\n      jump\t// in\n    tag_148:\n        /* \"contracts/twitter/tweet.sol\":2855:2881  uint i = ids.length-counts */\n      swap1\n      pop\n        /* \"contracts/twitter/tweet.sol\":2851:3192  for(uint i = ids.length-counts ; i<ids.length ; i++){... */\n    tag_145:\n        /* \"contracts/twitter/tweet.sol\":2886:2889  ids */\n      dup3\n        /* \"contracts/twitter/tweet.sol\":2886:2896  ids.length */\n      mload\n        /* \"contracts/twitter/tweet.sol\":2884:2885  i */\n      dup2\n        /* \"contracts/twitter/tweet.sol\":2884:2896  i<ids.length */\n      lt\n        /* \"contracts/twitter/tweet.sol\":2851:3192  for(uint i = ids.length-counts ; i<ids.length ; i++){... */\n      iszero\n      tag_146\n      jumpi\n        /* \"contracts/twitter/tweet.sol\":2919:2943  Tweet storage _structure */\n      0x00\n        /* \"contracts/twitter/tweet.sol\":2946:2952  tweets */\n      0x00\n        /* \"contracts/twitter/tweet.sol\":2946:2960  tweets[ids[i]] */\n      0x00\n        /* \"contracts/twitter/tweet.sol\":2953:2956  ids */\n      dup6\n        /* \"contracts/twitter/tweet.sol\":2957:2958  i */\n      dup5\n        /* \"contracts/twitter/tweet.sol\":2953:2959  ids[i] */\n      dup2\n      mload\n      dup2\n      lt\n      tag_149\n      jumpi\n      tag_150\n      tag_117\n      jump\t// in\n    tag_150:\n    tag_149:\n      0x20\n      mul\n      0x20\n      add\n      add\n      mload\n        /* \"contracts/twitter/tweet.sol\":2946:2960  tweets[ids[i]] */\n      dup2\n      mstore\n      0x20\n      add\n      swap1\n      dup2\n      mstore\n      0x20\n      add\n      0x00\n      keccak256\n        /* \"contracts/twitter/tweet.sol\":2919:2960  Tweet storage _structure = tweets[ids[i]] */\n      swap1\n      pop\n        /* \"contracts/twitter/tweet.sol\":2987:3159  Tweet(... */\n      mload(0x40)\n      dup1\n      0x80\n      add\n      0x40\n      mstore\n      dup1\n        /* \"contracts/twitter/tweet.sol\":3011:3021  _structure */\n      dup3\n        /* \"contracts/twitter/tweet.sol\":3011:3024  _structure.id */\n      0x00\n      add\n      sload\n        /* \"contracts/twitter/tweet.sol\":2987:3159  Tweet(... */\n      dup2\n      mstore\n      0x20\n      add\n        /* \"contracts/twitter/tweet.sol\":3044:3054  _structure */\n      dup3\n        /* \"contracts/twitter/tweet.sol\":3044:3061  _structure.author */\n      0x01\n      add\n      0x00\n      swap1\n      sload\n      swap1\n      0x0100\n      exp\n      swap1\n      div\n      0xffffffffffffffffffffffffffffffffffffffff\n      and\n        /* \"contracts/twitter/tweet.sol\":2987:3159  Tweet(... */\n      0xffffffffffffffffffffffffffffffffffffffff\n      and\n      dup2\n      mstore\n      0x20\n      add\n        /* \"contracts/twitter/tweet.sol\":3081:3091  _structure */\n      dup3\n        /* \"contracts/twitter/tweet.sol\":3081:3099  _structure.content */\n      0x02\n      add\n        /* \"contracts/twitter/tweet.sol\":2987:3159  Tweet(... */\n      dup1\n      sload\n      tag_151\n      swap1\n      tag_86\n      jump\t// in\n    tag_151:\n      dup1\n      0x1f\n      add\n      0x20\n      dup1\n      swap2\n      div\n      mul\n      0x20\n      add\n      mload(0x40)\n      swap1\n      dup2\n      add\n      0x40\n      mstore\n      dup1\n      swap3\n      swap2\n      swap1\n      dup2\n      dup2\n      mstore\n      0x20\n      add\n      dup3\n      dup1\n      sload\n      tag_152\n      swap1\n      tag_86\n      jump\t// in\n    tag_152:\n      dup1\n      iszero\n      tag_153\n      jumpi\n      dup1\n      0x1f\n      lt\n      tag_154\n      jumpi\n      0x0100\n      dup1\n      dup4\n      sload\n      div\n      mul\n      dup4\n      mstore\n      swap2\n      0x20\n      add\n      swap2\n      jump(tag_153)\n    tag_154:\n      dup3\n      add\n      swap2\n      swap1\n      0x00\n      mstore\n      keccak256(0x00, 0x20)\n      swap1\n    tag_155:\n      dup2\n      sload\n      dup2\n      mstore\n      swap1\n      0x01\n      add\n      swap1\n      0x20\n      add\n      dup1\n      dup4\n      gt\n      tag_155\n      jumpi\n      dup3\n      swap1\n      sub\n      0x1f\n      and\n      dup3\n      add\n      swap2\n    tag_153:\n      pop\n      pop\n      pop\n      pop\n      pop\n      dup2\n      mstore\n      0x20\n      add\n        /* \"contracts/twitter/tweet.sol\":3120:3130  _structure */\n      dup3\n        /* \"contracts/twitter/tweet.sol\":3120:3140  _structure.createdAt */\n      0x03\n      add\n      sload\n        /* \"contracts/twitter/tweet.sol\":2987:3159  Tweet(... */\n      dup2\n      mstore\n      pop\n        /* \"contracts/twitter/tweet.sol\":2975:2982  _tweets */\n      dup6\n        /* \"contracts/twitter/tweet.sol\":2983:2984  j */\n      dup5\n        /* \"contracts/twitter/tweet.sol\":2975:2985  _tweets[j] */\n      dup2\n      mload\n      dup2\n      lt\n      tag_156\n      jumpi\n      tag_157\n      tag_117\n      jump\t// in\n    tag_157:\n    tag_156:\n      0x20\n      mul\n      0x20\n      add\n      add\n        /* \"contracts/twitter/tweet.sol\":2975:3159  _tweets[j] =Tweet(... */\n      dup2\n      swap1\n      mstore\n      pop\n        /* \"contracts/twitter/tweet.sol\":3179:3180  1 */\n      0x01\n        /* \"contracts/twitter/tweet.sol\":3177:3178  j */\n      dup4\n        /* \"contracts/twitter/tweet.sol\":3177:3180  j+1 */\n      tag_158\n      swap2\n      swap1\n      tag_119\n      jump\t// in\n    tag_158:\n        /* \"contracts/twitter/tweet.sol\":3174:3180  j= j+1 */\n      swap3\n      pop\n        /* \"contracts/twitter/tweet.sol\":2903:3192  {... */\n      pop\n        /* \"contracts/twitter/tweet.sol\":2899:2902  i++ */\n      dup1\n      dup1\n      0x01\n      add\n      swap2\n      pop\n      pop\n        /* \"contracts/twitter/tweet.sol\":2851:3192  for(uint i = ids.length-counts ; i<ids.length ; i++){... */\n      jump(tag_145)\n    tag_146:\n      pop\n        /* \"contracts/twitter/tweet.sol\":3209:3216  _tweets */\n      dup3\n        /* \"contracts/twitter/tweet.sol\":3202:3216  return _tweets */\n      swap4\n      pop\n      pop\n      pop\n      pop\n        /* \"contracts/twitter/tweet.sol\":2542:3224  function getLatestTweetsOfUsers (address _user , uint counts) public view returns ( Tweet[] memory){... */\n      swap3\n      swap2\n      pop\n      pop\n      jump\t// out\n        /* \"contracts/twitter/tweet.sol\":350:387  mapping (uint => Tweet) public tweets */\n    tag_73:\n      mstore(0x20, 0x00)\n      dup1\n      0x00\n      mstore\n      keccak256(0x00, 0x40)\n      0x00\n      swap2\n      pop\n      swap1\n      pop\n      dup1\n      0x00\n      add\n      sload\n      swap1\n      dup1\n      0x01\n      add\n      0x00\n      swap1\n      sload\n      swap1\n      0x0100\n      exp\n      swap1\n      div\n      0xffffffffffffffffffffffffffffffffffffffff\n      and\n      swap1\n      dup1\n      0x02\n      add\n      dup1\n      sload\n      tag_159\n      swap1\n      tag_86\n      jump\t// in\n    tag_159:\n      dup1\n      0x1f\n      add\n      0x20\n      dup1\n      swap2\n      div\n      mul\n      0x20\n      add\n      mload(0x40)\n      swap1\n      dup2\n      add\n      0x40\n      mstore\n      dup1\n      swap3\n      swap2\n      swap1\n      dup2\n      dup2\n      mstore\n      0x20\n      add\n      dup3\n      dup1\n      sload\n      tag_160\n      swap1\n      tag_86\n      jump\t// in\n    tag_160:\n      dup1\n      iszero\n      tag_161\n      jumpi\n      dup1\n      0x1f\n      lt\n      tag_162\n      jumpi\n      0x0100\n      dup1\n      dup4\n      sload\n      div\n      mul\n      dup4\n      mstore\n      swap2\n      0x20\n      add\n      swap2\n      jump(tag_161)\n    tag_162:\n      dup3\n      add\n      swap2\n      swap1\n      0x00\n      mstore\n      keccak256(0x00, 0x20)\n      swap1\n    tag_163:\n      dup2\n      sload\n      dup2\n      mstore\n      swap1\n      0x01\n      add\n      swap1\n      0x20\n      add\n      dup1\n      dup4\n      gt\n      tag_163\n      jumpi\n      dup3\n      swap1\n      sub\n      0x1f\n      and\n      dup3\n      add\n      swap2\n    tag_161:\n      pop\n      pop\n      pop\n      pop\n      pop\n      swap1\n      dup1\n      0x03\n      add\n      sload\n      swap1\n      pop\n      dup5\n      jump\t// out\n        /* \"contracts/twitter/tweet.sol\":1075:1177  function tweet(string memory _content) public{ //Owner ... */\n    tag_79:\n        /* \"contracts/twitter/tweet.sol\":1140:1167  _tweet(msg.sender,_content) */\n      tag_165\n        /* \"contracts/twitter/tweet.sol\":1147:1157  msg.sender */\n      caller\n        /* \"contracts/twitter/tweet.sol\":1158:1166  _content */\n      dup3\n        /* \"contracts/twitter/tweet.sol\":1140:1146  _tweet */\n      tag_132\n        /* \"contracts/twitter/tweet.sol\":1140:1167  _tweet(msg.sender,_content) */\n      jump\t// in\n    tag_165:\n        /* \"contracts/twitter/tweet.sol\":1075:1177  function tweet(string memory _content) public{ //Owner ... */\n      pop\n      jump\t// out\n        /* \"contracts/twitter/tweet.sol\":1716:1816  function allow (address _operator) public {... */\n    tag_82:\n        /* \"contracts/twitter/tweet.sol\":1804:1808  true */\n      0x01\n        /* \"contracts/twitter/tweet.sol\":1769:1778  operators */\n      0x03\n        /* \"contracts/twitter/tweet.sol\":1769:1790  operators[msg.sender] */\n      0x00\n        /* \"contracts/twitter/tweet.sol\":1779:1789  msg.sender */\n      caller\n        /* \"contracts/twitter/tweet.sol\":1769:1790  operators[msg.sender] */\n      0xffffffffffffffffffffffffffffffffffffffff\n      and\n      0xffffffffffffffffffffffffffffffffffffffff\n      and\n      dup2\n      mstore\n      0x20\n      add\n      swap1\n      dup2\n      mstore\n      0x20\n      add\n      0x00\n      keccak256\n        /* \"contracts/twitter/tweet.sol\":1769:1801  operators[msg.sender][_operator] */\n      0x00\n        /* \"contracts/twitter/tweet.sol\":1791:1800  _operator */\n      dup4\n        /* \"contracts/twitter/tweet.sol\":1769:1801  operators[msg.sender][_operator] */\n      0xffffffffffffffffffffffffffffffffffffffff\n      and\n      0xffffffffffffffffffffffffffffffffffffffff\n      and\n      dup2\n      mstore\n      0x20\n      add\n      swap1\n      dup2\n      mstore\n      0x20\n      add\n      0x00\n      keccak256\n      0x00\n        /* \"contracts/twitter/tweet.sol\":1769:1808  operators[msg.sender][_operator] = true */\n      0x0100\n      exp\n      dup2\n      sload\n      dup2\n      0xff\n      mul\n      not\n      and\n      swap1\n      dup4\n      iszero\n      iszero\n      mul\n      or\n      swap1\n      sstore\n      pop\n        /* \"contracts/twitter/tweet.sol\":1716:1816  function allow (address _operator) public {... */\n      pop\n      jump\t// out\n        /* \"contracts/twitter/tweet.sol\":853:1067  function _sendMessage(address  _from, address _to, string memory _content) internal {... */\n    tag_126:\n        /* \"contracts/twitter/tweet.sol\":948:961  conversations */\n      0x02\n        /* \"contracts/twitter/tweet.sol\":948:968  conversations[_from] */\n      0x00\n        /* \"contracts/twitter/tweet.sol\":962:967  _from */\n      dup5\n        /* \"contracts/twitter/tweet.sol\":948:968  conversations[_from] */\n      0xffffffffffffffffffffffffffffffffffffffff\n      and\n      0xffffffffffffffffffffffffffffffffffffffff\n      and\n      dup2\n      mstore\n      0x20\n      add\n      swap1\n      dup2\n      mstore\n      0x20\n      add\n      0x00\n      keccak256\n        /* \"contracts/twitter/tweet.sol\":974:1032  Message(nextMessageId,_content,_from ,_to,block.timestamp) */\n      mload(0x40)\n      dup1\n      0xa0\n      add\n      0x40\n      mstore\n      dup1\n        /* \"contracts/twitter/tweet.sol\":982:995  nextMessageId */\n      sload(0x06)\n        /* \"contracts/twitter/tweet.sol\":974:1032  Message(nextMessageId,_content,_from ,_to,block.timestamp) */\n      dup2\n      mstore\n      0x20\n      add\n        /* \"contracts/twitter/tweet.sol\":996:1004  _content */\n      dup4\n        /* \"contracts/twitter/tweet.sol\":974:1032  Message(nextMessageId,_content,_from ,_to,block.timestamp) */\n      dup2\n      mstore\n      0x20\n      add\n        /* \"contracts/twitter/tweet.sol\":1005:1010  _from */\n      dup6\n        /* \"contracts/twitter/tweet.sol\":974:1032  Message(nextMessageId,_content,_from ,_to,block.timestamp) */\n      0xffffffffffffffffffffffffffffffffffffffff\n      and\n      dup2\n      mstore\n      0x20\n      add\n        /* \"contracts/twitter/tweet.sol\":1012:1015  _to */\n      dup5\n        /* \"contracts/twitter/tweet.sol\":974:1032  Message(nextMessageId,_content,_from ,_to,block.timestamp) */\n      0xffffffffffffffffffffffffffffffffffffffff\n      and\n      dup2\n      mstore\n      0x20\n      add\n        /* \"contracts/twitter/tweet.sol\":1016:1031  block.timestamp */\n      timestamp\n        /* \"contracts/twitter/tweet.sol\":974:1032  Message(nextMessageId,_content,_from ,_to,block.timestamp) */\n      dup2\n      mstore\n      pop\n        /* \"contracts/twitter/tweet.sol\":948:1033  conversations[_from].push(Message(nextMessageId,_content,_from ,_to,block.timestamp)) */\n      swap1\n      dup1\n      0x01\n      dup2\n      sload\n      add\n      dup1\n      dup3\n      sstore\n      dup1\n      swap2\n      pop\n      pop\n      0x01\n      swap1\n      sub\n      swap1\n      0x00\n      mstore\n      keccak256(0x00, 0x20)\n      swap1\n      0x05\n      mul\n      add\n      0x00\n      swap1\n      swap2\n      swap1\n      swap2\n      swap1\n      swap2\n      pop\n      0x00\n      dup3\n      add\n      mload\n      dup2\n      0x00\n      add\n      sstore\n      0x20\n      dup3\n      add\n      mload\n      dup2\n      0x01\n      add\n      swap1\n      dup2\n      tag_169\n      swap2\n      swap1\n      tag_170\n      jump\t// in\n    tag_169:\n      pop\n      0x40\n      dup3\n      add\n      mload\n      dup2\n      0x02\n      add\n      exp(0x0100, 0x00)\n      dup2\n      sload\n      dup2\n      0xffffffffffffffffffffffffffffffffffffffff\n      mul\n      not\n      and\n      swap1\n      dup4\n      0xffffffffffffffffffffffffffffffffffffffff\n      and\n      mul\n      or\n      swap1\n      sstore\n      pop\n      0x60\n      dup3\n      add\n      mload\n      dup2\n      0x03\n      add\n      exp(0x0100, 0x00)\n      dup2\n      sload\n      dup2\n      0xffffffffffffffffffffffffffffffffffffffff\n      mul\n      not\n      and\n      swap1\n      dup4\n      0xffffffffffffffffffffffffffffffffffffffff\n      and\n      mul\n      or\n      swap1\n      sstore\n      pop\n      0x80\n      dup3\n      add\n      mload\n      dup2\n      0x04\n      add\n      sstore\n      pop\n      pop\n        /* \"contracts/twitter/tweet.sol\":1044:1057  nextMessageId */\n      0x06\n      0x00\n        /* \"contracts/twitter/tweet.sol\":1044:1059  nextMessageId++ */\n      dup2\n      sload\n      dup1\n      swap3\n      swap2\n      swap1\n      tag_171\n      swap1\n      tag_172\n      jump\t// in\n    tag_171:\n      swap2\n      swap1\n      pop\n      sstore\n      pop\n        /* \"contracts/twitter/tweet.sol\":853:1067  function _sendMessage(address  _from, address _to, string memory _content) internal {... */\n      pop\n      pop\n      pop\n      jump\t// out\n        /* \"contracts/twitter/tweet.sol\":670:845  function _tweet(address _from , string memory _content) internal {... */\n    tag_132:\n        /* \"contracts/twitter/tweet.sol\":763:810  Tweet(nextId, _from, _content, block.timestamp) */\n      mload(0x40)\n      dup1\n      0x80\n      add\n      0x40\n      mstore\n      dup1\n        /* \"contracts/twitter/tweet.sol\":769:775  nextId */\n      sload(0x05)\n        /* \"contracts/twitter/tweet.sol\":763:810  Tweet(nextId, _from, _content, block.timestamp) */\n      dup2\n      mstore\n      0x20\n      add\n        /* \"contracts/twitter/tweet.sol\":777:782  _from */\n      dup4\n        /* \"contracts/twitter/tweet.sol\":763:810  Tweet(nextId, _from, _content, block.timestamp) */\n      0xffffffffffffffffffffffffffffffffffffffff\n      and\n      dup2\n      mstore\n      0x20\n      add\n        /* \"contracts/twitter/tweet.sol\":784:792  _content */\n      dup3\n        /* \"contracts/twitter/tweet.sol\":763:810  Tweet(nextId, _from, _content, block.timestamp) */\n      dup2\n      mstore\n      0x20\n      add\n        /* \"contracts/twitter/tweet.sol\":794:809  block.timestamp */\n      timestamp\n        /* \"contracts/twitter/tweet.sol\":763:810  Tweet(nextId, _from, _content, block.timestamp) */\n      dup2\n      mstore\n      pop\n        /* \"contracts/twitter/tweet.sol\":746:752  tweets */\n      0x00\n        /* \"contracts/twitter/tweet.sol\":746:760  tweets[nextId] */\n      0x00\n        /* \"contracts/twitter/tweet.sol\":753:759  nextId */\n      sload(0x05)\n        /* \"contracts/twitter/tweet.sol\":746:760  tweets[nextId] */\n      dup2\n      mstore\n      0x20\n      add\n      swap1\n      dup2\n      mstore\n      0x20\n      add\n      0x00\n      keccak256\n        /* \"contracts/twitter/tweet.sol\":746:810  tweets[nextId] = Tweet(nextId, _from, _content, block.timestamp) */\n      0x00\n      dup3\n      add\n      mload\n      dup2\n      0x00\n      add\n      sstore\n      0x20\n      dup3\n      add\n      mload\n      dup2\n      0x01\n      add\n      exp(0x0100, 0x00)\n      dup2\n      sload\n      dup2\n      0xffffffffffffffffffffffffffffffffffffffff\n      mul\n      not\n      and\n      swap1\n      dup4\n      0xffffffffffffffffffffffffffffffffffffffff\n      and\n      mul\n      or\n      swap1\n      sstore\n      pop\n      0x40\n      dup3\n      add\n      mload\n      dup2\n      0x02\n      add\n      swap1\n      dup2\n      tag_174\n      swap2\n      swap1\n      tag_170\n      jump\t// in\n    tag_174:\n      pop\n      0x60\n      dup3\n      add\n      mload\n      dup2\n      0x03\n      add\n      sstore\n      swap1\n      pop\n      pop\n        /* \"contracts/twitter/tweet.sol\":836:837  1 */\n      0x01\n        /* \"contracts/twitter/tweet.sol\":829:835  nextId */\n      sload(0x05)\n        /* \"contracts/twitter/tweet.sol\":829:837  nextId+1 */\n      tag_175\n      swap2\n      swap1\n      tag_119\n      jump\t// in\n    tag_175:\n        /* \"contracts/twitter/tweet.sol\":821:827  nextId */\n      0x05\n        /* \"contracts/twitter/tweet.sol\":821:837  nextId= nextId+1 */\n      dup2\n      swap1\n      sstore\n      pop\n        /* \"contracts/twitter/tweet.sol\":670:845  function _tweet(address _from , string memory _content) internal {... */\n      pop\n      pop\n      jump\t// out\n    tag_104:\n      mload(0x40)\n      dup1\n      0x80\n      add\n      0x40\n      mstore\n      dup1\n      0x00\n      dup2\n      mstore\n      0x20\n      add\n      and(0xffffffffffffffffffffffffffffffffffffffff, 0x00)\n      dup2\n      mstore\n      0x20\n      add\n      0x60\n      dup2\n      mstore\n      0x20\n      add\n      0x00\n      dup2\n      mstore\n      pop\n      swap1\n      jump\t// out\n        /* \"#utility.yul\":7:82   */\n    tag_176:\n        /* \"#utility.yul\":40:46   */\n      0x00\n        /* \"#utility.yul\":73:75   */\n      0x40\n        /* \"#utility.yul\":67:76   */\n      mload\n        /* \"#utility.yul\":57:76   */\n      swap1\n      pop\n        /* \"#utility.yul\":7:82   */\n      swap1\n      jump\t// out\n        /* \"#utility.yul\":88:205   */\n    tag_177:\n        /* \"#utility.yul\":197:198   */\n      0x00\n        /* \"#utility.yul\":194:195   */\n      0x00\n        /* \"#utility.yul\":187:199   */\n      revert\n        /* \"#utility.yul\":211:328   */\n    tag_178:\n        /* \"#utility.yul\":320:321   */\n      0x00\n        /* \"#utility.yul\":317:318   */\n      0x00\n        /* \"#utility.yul\":310:322   */\n      revert\n        /* \"#utility.yul\":334:460   */\n    tag_179:\n        /* \"#utility.yul\":371:378   */\n      0x00\n        /* \"#utility.yul\":411:453   */\n      0xffffffffffffffffffffffffffffffffffffffff\n        /* \"#utility.yul\":404:409   */\n      dup3\n        /* \"#utility.yul\":400:454   */\n      and\n        /* \"#utility.yul\":389:454   */\n      swap1\n      pop\n        /* \"#utility.yul\":334:460   */\n      swap2\n      swap1\n      pop\n      jump\t// out\n        /* \"#utility.yul\":466:562   */\n    tag_180:\n        /* \"#utility.yul\":503:510   */\n      0x00\n        /* \"#utility.yul\":532:556   */\n      tag_241\n        /* \"#utility.yul\":550:555   */\n      dup3\n        /* \"#utility.yul\":532:556   */\n      tag_179\n      jump\t// in\n    tag_241:\n        /* \"#utility.yul\":521:556   */\n      swap1\n      pop\n        /* \"#utility.yul\":466:562   */\n      swap2\n      swap1\n      pop\n      jump\t// out\n        /* \"#utility.yul\":568:690   */\n    tag_181:\n        /* \"#utility.yul\":641:665   */\n      tag_243\n        /* \"#utility.yul\":659:664   */\n      dup2\n        /* \"#utility.yul\":641:665   */\n      tag_180\n      jump\t// in\n    tag_243:\n        /* \"#utility.yul\":634:639   */\n      dup2\n        /* \"#utility.yul\":631:666   */\n      eq\n        /* \"#utility.yul\":621:684   */\n      tag_244\n      jumpi\n        /* \"#utility.yul\":680:681   */\n      0x00\n        /* \"#utility.yul\":677:678   */\n      0x00\n        /* \"#utility.yul\":670:682   */\n      revert\n        /* \"#utility.yul\":621:684   */\n    tag_244:\n        /* \"#utility.yul\":568:690   */\n      pop\n      jump\t// out\n        /* \"#utility.yul\":696:835   */\n    tag_182:\n        /* \"#utility.yul\":742:747   */\n      0x00\n        /* \"#utility.yul\":780:786   */\n      dup2\n        /* \"#utility.yul\":767:787   */\n      calldataload\n        /* \"#utility.yul\":758:787   */\n      swap1\n      pop\n        /* \"#utility.yul\":796:829   */\n      tag_246\n        /* \"#utility.yul\":823:828   */\n      dup2\n        /* \"#utility.yul\":796:829   */\n      tag_181\n      jump\t// in\n    tag_246:\n        /* \"#utility.yul\":696:835   */\n      swap3\n      swap2\n      pop\n      pop\n      jump\t// out\n        /* \"#utility.yul\":841:1315   */\n    tag_22:\n        /* \"#utility.yul\":909:915   */\n      0x00\n        /* \"#utility.yul\":917:923   */\n      0x00\n        /* \"#utility.yul\":966:968   */\n      0x40\n        /* \"#utility.yul\":954:963   */\n      dup4\n        /* \"#utility.yul\":945:952   */\n      dup6\n        /* \"#utility.yul\":941:964   */\n      sub\n        /* \"#utility.yul\":937:969   */\n      slt\n        /* \"#utility.yul\":934:1053   */\n      iszero\n      tag_248\n      jumpi\n        /* \"#utility.yul\":972:1051   */\n      tag_249\n      tag_177\n      jump\t// in\n    tag_249:\n        /* \"#utility.yul\":934:1053   */\n    tag_248:\n        /* \"#utility.yul\":1092:1093   */\n      0x00\n        /* \"#utility.yul\":1117:1170   */\n      tag_250\n        /* \"#utility.yul\":1162:1169   */\n      dup6\n        /* \"#utility.yul\":1153:1159   */\n      dup3\n        /* \"#utility.yul\":1142:1151   */\n      dup7\n        /* \"#utility.yul\":1138:1160   */\n      add\n        /* \"#utility.yul\":1117:1170   */\n      tag_182\n      jump\t// in\n    tag_250:\n        /* \"#utility.yul\":1107:1170   */\n      swap3\n      pop\n        /* \"#utility.yul\":1063:1180   */\n      pop\n        /* \"#utility.yul\":1219:1221   */\n      0x20\n        /* \"#utility.yul\":1245:1298   */\n      tag_251\n        /* \"#utility.yul\":1290:1297   */\n      dup6\n        /* \"#utility.yul\":1281:1287   */\n      dup3\n        /* \"#utility.yul\":1270:1279   */\n      dup7\n        /* \"#utility.yul\":1266:1288   */\n      add\n        /* \"#utility.yul\":1245:1298   */\n      tag_182\n      jump\t// in\n    tag_251:\n        /* \"#utility.yul\":1235:1298   */\n      swap2\n      pop\n        /* \"#utility.yul\":1190:1308   */\n      pop\n        /* \"#utility.yul\":841:1315   */\n      swap3\n      pop\n      swap3\n      swap1\n      pop\n      jump\t// out\n        /* \"#utility.yul\":1321:1411   */\n    tag_183:\n        /* \"#utility.yul\":1355:1362   */\n      0x00\n        /* \"#utility.yul\":1398:1403   */\n      dup2\n        /* \"#utility.yul\":1391:1404   */\n      iszero\n        /* \"#utility.yul\":1384:1405   */\n      iszero\n        /* \"#utility.yul\":1373:1405   */\n      swap1\n      pop\n        /* \"#utility.yul\":1321:1411   */\n      swap2\n      swap1\n      pop\n      jump\t// out\n        /* \"#utility.yul\":1417:1526   */\n    tag_184:\n        /* \"#utility.yul\":1498:1519   */\n      tag_254\n        /* \"#utility.yul\":1513:1518   */\n      dup2\n        /* \"#utility.yul\":1498:1519   */\n      tag_183\n      jump\t// in\n    tag_254:\n        /* \"#utility.yul\":1493:1496   */\n      dup3\n        /* \"#utility.yul\":1486:1520   */\n      mstore\n        /* \"#utility.yul\":1417:1526   */\n      pop\n      pop\n      jump\t// out\n        /* \"#utility.yul\":1532:1742   */\n    tag_25:\n        /* \"#utility.yul\":1619:1623   */\n      0x00\n        /* \"#utility.yul\":1657:1659   */\n      0x20\n        /* \"#utility.yul\":1646:1655   */\n      dup3\n        /* \"#utility.yul\":1642:1660   */\n      add\n        /* \"#utility.yul\":1634:1660   */\n      swap1\n      pop\n        /* \"#utility.yul\":1670:1735   */\n      tag_256\n        /* \"#utility.yul\":1732:1733   */\n      0x00\n        /* \"#utility.yul\":1721:1730   */\n      dup4\n        /* \"#utility.yul\":1717:1734   */\n      add\n        /* \"#utility.yul\":1708:1714   */\n      dup5\n        /* \"#utility.yul\":1670:1735   */\n      tag_184\n      jump\t// in\n    tag_256:\n        /* \"#utility.yul\":1532:1742   */\n      swap3\n      swap2\n      pop\n      pop\n      jump\t// out\n        /* \"#utility.yul\":1748:1825   */\n    tag_185:\n        /* \"#utility.yul\":1785:1792   */\n      0x00\n        /* \"#utility.yul\":1814:1819   */\n      dup2\n        /* \"#utility.yul\":1803:1819   */\n      swap1\n      pop\n        /* \"#utility.yul\":1748:1825   */\n      swap2\n      swap1\n      pop\n      jump\t// out\n        /* \"#utility.yul\":1831:1953   */\n    tag_186:\n        /* \"#utility.yul\":1904:1928   */\n      tag_259\n        /* \"#utility.yul\":1922:1927   */\n      dup2\n        /* \"#utility.yul\":1904:1928   */\n      tag_185\n      jump\t// in\n    tag_259:\n        /* \"#utility.yul\":1897:1902   */\n      dup2\n        /* \"#utility.yul\":1894:1929   */\n      eq\n        /* \"#utility.yul\":1884:1947   */\n      tag_260\n      jumpi\n        /* \"#utility.yul\":1943:1944   */\n      0x00\n        /* \"#utility.yul\":1940:1941   */\n      0x00\n        /* \"#utility.yul\":1933:1945   */\n      revert\n        /* \"#utility.yul\":1884:1947   */\n    tag_260:\n        /* \"#utility.yul\":1831:1953   */\n      pop\n      jump\t// out\n        /* \"#utility.yul\":1959:2098   */\n    tag_187:\n        /* \"#utility.yul\":2005:2010   */\n      0x00\n        /* \"#utility.yul\":2043:2049   */\n      dup2\n        /* \"#utility.yul\":2030:2050   */\n      calldataload\n        /* \"#utility.yul\":2021:2050   */\n      swap1\n      pop\n        /* \"#utility.yul\":2059:2092   */\n      tag_262\n        /* \"#utility.yul\":2086:2091   */\n      dup2\n        /* \"#utility.yul\":2059:2092   */\n      tag_186\n      jump\t// in\n    tag_262:\n        /* \"#utility.yul\":1959:2098   */\n      swap3\n      swap2\n      pop\n      pop\n      jump\t// out\n        /* \"#utility.yul\":2104:2578   */\n    tag_28:\n        /* \"#utility.yul\":2172:2178   */\n      0x00\n        /* \"#utility.yul\":2180:2186   */\n      0x00\n        /* \"#utility.yul\":2229:2231   */\n      0x40\n        /* \"#utility.yul\":2217:2226   */\n      dup4\n        /* \"#utility.yul\":2208:2215   */\n      dup6\n        /* \"#utility.yul\":2204:2227   */\n      sub\n        /* \"#utility.yul\":2200:2232   */\n      slt\n        /* \"#utility.yul\":2197:2316   */\n      iszero\n      tag_264\n      jumpi\n        /* \"#utility.yul\":2235:2314   */\n      tag_265\n      tag_177\n      jump\t// in\n    tag_265:\n        /* \"#utility.yul\":2197:2316   */\n    tag_264:\n        /* \"#utility.yul\":2355:2356   */\n      0x00\n        /* \"#utility.yul\":2380:2433   */\n      tag_266\n        /* \"#utility.yul\":2425:2432   */\n      dup6\n        /* \"#utility.yul\":2416:2422   */\n      dup3\n        /* \"#utility.yul\":2405:2414   */\n      dup7\n        /* \"#utility.yul\":2401:2423   */\n      add\n        /* \"#utility.yul\":2380:2433   */\n      tag_182\n      jump\t// in\n    tag_266:\n        /* \"#utility.yul\":2370:2433   */\n      swap3\n      pop\n        /* \"#utility.yul\":2326:2443   */\n      pop\n        /* \"#utility.yul\":2482:2484   */\n      0x20\n        /* \"#utility.yul\":2508:2561   */\n      tag_267\n        /* \"#utility.yul\":2553:2560   */\n      dup6\n        /* \"#utility.yul\":2544:2550   */\n      dup3\n        /* \"#utility.yul\":2533:2542   */\n      dup7\n        /* \"#utility.yul\":2529:2551   */\n      add\n        /* \"#utility.yul\":2508:2561   */\n      tag_187\n      jump\t// in\n    tag_267:\n        /* \"#utility.yul\":2498:2561   */\n      swap2\n      pop\n        /* \"#utility.yul\":2453:2571   */\n      pop\n        /* \"#utility.yul\":2104:2578   */\n      swap3\n      pop\n      swap3\n      swap1\n      pop\n      jump\t// out\n        /* \"#utility.yul\":2584:2702   */\n    tag_188:\n        /* \"#utility.yul\":2671:2695   */\n      tag_269\n        /* \"#utility.yul\":2689:2694   */\n      dup2\n        /* \"#utility.yul\":2671:2695   */\n      tag_185\n      jump\t// in\n    tag_269:\n        /* \"#utility.yul\":2666:2669   */\n      dup3\n        /* \"#utility.yul\":2659:2696   */\n      mstore\n        /* \"#utility.yul\":2584:2702   */\n      pop\n      pop\n      jump\t// out\n        /* \"#utility.yul\":2708:2807   */\n    tag_189:\n        /* \"#utility.yul\":2760:2766   */\n      0x00\n        /* \"#utility.yul\":2794:2799   */\n      dup2\n        /* \"#utility.yul\":2788:2800   */\n      mload\n        /* \"#utility.yul\":2778:2800   */\n      swap1\n      pop\n        /* \"#utility.yul\":2708:2807   */\n      swap2\n      swap1\n      pop\n      jump\t// out\n        /* \"#utility.yul\":2813:2982   */\n    tag_190:\n        /* \"#utility.yul\":2897:2908   */\n      0x00\n        /* \"#utility.yul\":2931:2937   */\n      dup3\n        /* \"#utility.yul\":2926:2929   */\n      dup3\n        /* \"#utility.yul\":2919:2938   */\n      mstore\n        /* \"#utility.yul\":2971:2975   */\n      0x20\n        /* \"#utility.yul\":2966:2969   */\n      dup3\n        /* \"#utility.yul\":2962:2976   */\n      add\n        /* \"#utility.yul\":2947:2976   */\n      swap1\n      pop\n        /* \"#utility.yul\":2813:2982   */\n      swap3\n      swap2\n      pop\n      pop\n      jump\t// out\n        /* \"#utility.yul\":2988:3127   */\n    tag_191:\n        /* \"#utility.yul\":3077:3083   */\n      dup3\n        /* \"#utility.yul\":3072:3075   */\n      dup2\n        /* \"#utility.yul\":3067:3070   */\n      dup4\n        /* \"#utility.yul\":3061:3084   */\n      mcopy\n        /* \"#utility.yul\":3118:3119   */\n      0x00\n        /* \"#utility.yul\":3109:3115   */\n      dup4\n        /* \"#utility.yul\":3104:3107   */\n      dup4\n        /* \"#utility.yul\":3100:3116   */\n      add\n        /* \"#utility.yul\":3093:3120   */\n      mstore\n        /* \"#utility.yul\":2988:3127   */\n      pop\n      pop\n      pop\n      jump\t// out\n        /* \"#utility.yul\":3133:3235   */\n    tag_192:\n        /* \"#utility.yul\":3174:3180   */\n      0x00\n        /* \"#utility.yul\":3225:3227   */\n      0x1f\n        /* \"#utility.yul\":3221:3228   */\n      not\n        /* \"#utility.yul\":3216:3218   */\n      0x1f\n        /* \"#utility.yul\":3209:3214   */\n      dup4\n        /* \"#utility.yul\":3205:3219   */\n      add\n        /* \"#utility.yul\":3201:3229   */\n      and\n        /* \"#utility.yul\":3191:3229   */\n      swap1\n      pop\n        /* \"#utility.yul\":3133:3235   */\n      swap2\n      swap1\n      pop\n      jump\t// out\n        /* \"#utility.yul\":3241:3618   */\n    tag_193:\n        /* \"#utility.yul\":3329:3332   */\n      0x00\n        /* \"#utility.yul\":3357:3396   */\n      tag_275\n        /* \"#utility.yul\":3390:3395   */\n      dup3\n        /* \"#utility.yul\":3357:3396   */\n      tag_189\n      jump\t// in\n    tag_275:\n        /* \"#utility.yul\":3412:3483   */\n      tag_276\n        /* \"#utility.yul\":3476:3482   */\n      dup2\n        /* \"#utility.yul\":3471:3474   */\n      dup6\n        /* \"#utility.yul\":3412:3483   */\n      tag_190\n      jump\t// in\n    tag_276:\n        /* \"#utility.yul\":3405:3483   */\n      swap4\n      pop\n        /* \"#utility.yul\":3492:3557   */\n      tag_277\n        /* \"#utility.yul\":3550:3556   */\n      dup2\n        /* \"#utility.yul\":3545:3548   */\n      dup6\n        /* \"#utility.yul\":3538:3542   */\n      0x20\n        /* \"#utility.yul\":3531:3536   */\n      dup7\n        /* \"#utility.yul\":3527:3543   */\n      add\n        /* \"#utility.yul\":3492:3557   */\n      tag_191\n      jump\t// in\n    tag_277:\n        /* \"#utility.yul\":3582:3611   */\n      tag_278\n        /* \"#utility.yul\":3604:3610   */\n      dup2\n        /* \"#utility.yul\":3582:3611   */\n      tag_192\n      jump\t// in\n    tag_278:\n        /* \"#utility.yul\":3577:3580   */\n      dup5\n        /* \"#utility.yul\":3573:3612   */\n      add\n        /* \"#utility.yul\":3566:3612   */\n      swap2\n      pop\n        /* \"#utility.yul\":3333:3618   */\n      pop\n        /* \"#utility.yul\":3241:3618   */\n      swap3\n      swap2\n      pop\n      pop\n      jump\t// out\n        /* \"#utility.yul\":3624:3742   */\n    tag_194:\n        /* \"#utility.yul\":3711:3735   */\n      tag_280\n        /* \"#utility.yul\":3729:3734   */\n      dup2\n        /* \"#utility.yul\":3711:3735   */\n      tag_180\n      jump\t// in\n    tag_280:\n        /* \"#utility.yul\":3706:3709   */\n      dup3\n        /* \"#utility.yul\":3699:3736   */\n      mstore\n        /* \"#utility.yul\":3624:3742   */\n      pop\n      pop\n      jump\t// out\n        /* \"#utility.yul\":3748:4503   */\n    tag_31:\n        /* \"#utility.yul\":3973:3977   */\n      0x00\n        /* \"#utility.yul\":4011:4014   */\n      0xa0\n        /* \"#utility.yul\":4000:4009   */\n      dup3\n        /* \"#utility.yul\":3996:4015   */\n      add\n        /* \"#utility.yul\":3988:4015   */\n      swap1\n      pop\n        /* \"#utility.yul\":4025:4096   */\n      tag_282\n        /* \"#utility.yul\":4093:4094   */\n      0x00\n        /* \"#utility.yul\":4082:4091   */\n      dup4\n        /* \"#utility.yul\":4078:4095   */\n      add\n        /* \"#utility.yul\":4069:4075   */\n      dup9\n        /* \"#utility.yul\":4025:4096   */\n      tag_188\n      jump\t// in\n    tag_282:\n        /* \"#utility.yul\":4143:4152   */\n      dup2\n        /* \"#utility.yul\":4137:4141   */\n      dup2\n        /* \"#utility.yul\":4133:4153   */\n      sub\n        /* \"#utility.yul\":4128:4130   */\n      0x20\n        /* \"#utility.yul\":4117:4126   */\n      dup4\n        /* \"#utility.yul\":4113:4131   */\n      add\n        /* \"#utility.yul\":4106:4154   */\n      mstore\n        /* \"#utility.yul\":4171:4249   */\n      tag_283\n        /* \"#utility.yul\":4244:4248   */\n      dup2\n        /* \"#utility.yul\":4235:4241   */\n      dup8\n        /* \"#utility.yul\":4171:4249   */\n      tag_193\n      jump\t// in\n    tag_283:\n        /* \"#utility.yul\":4163:4249   */\n      swap1\n      pop\n        /* \"#utility.yul\":4259:4331   */\n      tag_284\n        /* \"#utility.yul\":4327:4329   */\n      0x40\n        /* \"#utility.yul\":4316:4325   */\n      dup4\n        /* \"#utility.yul\":4312:4330   */\n      add\n        /* \"#utility.yul\":4303:4309   */\n      dup7\n        /* \"#utility.yul\":4259:4331   */\n      tag_194\n      jump\t// in\n    tag_284:\n        /* \"#utility.yul\":4341:4413   */\n      tag_285\n        /* \"#utility.yul\":4409:4411   */\n      0x60\n        /* \"#utility.yul\":4398:4407   */\n      dup4\n        /* \"#utility.yul\":4394:4412   */\n      add\n        /* \"#utility.yul\":4385:4391   */\n      dup6\n        /* \"#utility.yul\":4341:4413   */\n      tag_194\n      jump\t// in\n    tag_285:\n        /* \"#utility.yul\":4423:4496   */\n      tag_286\n        /* \"#utility.yul\":4491:4494   */\n      0x80\n        /* \"#utility.yul\":4480:4489   */\n      dup4\n        /* \"#utility.yul\":4476:4495   */\n      add\n        /* \"#utility.yul\":4467:4473   */\n      dup5\n        /* \"#utility.yul\":4423:4496   */\n      tag_188\n      jump\t// in\n    tag_286:\n        /* \"#utility.yul\":3748:4503   */\n      swap7\n      swap6\n      pop\n      pop\n      pop\n      pop\n      pop\n      pop\n      jump\t// out\n        /* \"#utility.yul\":4509:4838   */\n    tag_34:\n        /* \"#utility.yul\":4568:4574   */\n      0x00\n        /* \"#utility.yul\":4617:4619   */\n      0x20\n        /* \"#utility.yul\":4605:4614   */\n      dup3\n        /* \"#utility.yul\":4596:4603   */\n      dup5\n        /* \"#utility.yul\":4592:4615   */\n      sub\n        /* \"#utility.yul\":4588:4620   */\n      slt\n        /* \"#utility.yul\":4585:4704   */\n      iszero\n      tag_288\n      jumpi\n        /* \"#utility.yul\":4623:4702   */\n      tag_289\n      tag_177\n      jump\t// in\n    tag_289:\n        /* \"#utility.yul\":4585:4704   */\n    tag_288:\n        /* \"#utility.yul\":4743:4744   */\n      0x00\n        /* \"#utility.yul\":4768:4821   */\n      tag_290\n        /* \"#utility.yul\":4813:4820   */\n      dup5\n        /* \"#utility.yul\":4804:4810   */\n      dup3\n        /* \"#utility.yul\":4793:4802   */\n      dup6\n        /* \"#utility.yul\":4789:4811   */\n      add\n        /* \"#utility.yul\":4768:4821   */\n      tag_182\n      jump\t// in\n    tag_290:\n        /* \"#utility.yul\":4758:4821   */\n      swap2\n      pop\n        /* \"#utility.yul\":4714:4831   */\n      pop\n        /* \"#utility.yul\":4509:4838   */\n      swap3\n      swap2\n      pop\n      pop\n      jump\t// out\n        /* \"#utility.yul\":4844:5173   */\n    tag_38:\n        /* \"#utility.yul\":4903:4909   */\n      0x00\n        /* \"#utility.yul\":4952:4954   */\n      0x20\n        /* \"#utility.yul\":4940:4949   */\n      dup3\n        /* \"#utility.yul\":4931:4938   */\n      dup5\n        /* \"#utility.yul\":4927:4950   */\n      sub\n        /* \"#utility.yul\":4923:4955   */\n      slt\n        /* \"#utility.yul\":4920:5039   */\n      iszero\n      tag_292\n      jumpi\n        /* \"#utility.yul\":4958:5037   */\n      tag_293\n      tag_177\n      jump\t// in\n    tag_293:\n        /* \"#utility.yul\":4920:5039   */\n    tag_292:\n        /* \"#utility.yul\":5078:5079   */\n      0x00\n        /* \"#utility.yul\":5103:5156   */\n      tag_294\n        /* \"#utility.yul\":5148:5155   */\n      dup5\n        /* \"#utility.yul\":5139:5145   */\n      dup3\n        /* \"#utility.yul\":5128:5137   */\n      dup6\n        /* \"#utility.yul\":5124:5146   */\n      add\n        /* \"#utility.yul\":5103:5156   */\n      tag_187\n      jump\t// in\n    tag_294:\n        /* \"#utility.yul\":5093:5156   */\n      swap2\n      pop\n        /* \"#utility.yul\":5049:5166   */\n      pop\n        /* \"#utility.yul\":4844:5173   */\n      swap3\n      swap2\n      pop\n      pop\n      jump\t// out\n        /* \"#utility.yul\":5179:5314   */\n    tag_195:\n        /* \"#utility.yul\":5267:5273   */\n      0x00\n        /* \"#utility.yul\":5301:5306   */\n      dup2\n        /* \"#utility.yul\":5295:5307   */\n      mload\n        /* \"#utility.yul\":5285:5307   */\n      swap1\n      pop\n        /* \"#utility.yul\":5179:5314   */\n      swap2\n      swap1\n      pop\n      jump\t// out\n        /* \"#utility.yul\":5320:5525   */\n    tag_196:\n        /* \"#utility.yul\":5440:5451   */\n      0x00\n        /* \"#utility.yul\":5474:5480   */\n      dup3\n        /* \"#utility.yul\":5469:5472   */\n      dup3\n        /* \"#utility.yul\":5462:5481   */\n      mstore\n        /* \"#utility.yul\":5514:5518   */\n      0x20\n        /* \"#utility.yul\":5509:5512   */\n      dup3\n        /* \"#utility.yul\":5505:5519   */\n      add\n        /* \"#utility.yul\":5490:5519   */\n      swap1\n      pop\n        /* \"#utility.yul\":5320:5525   */\n      swap3\n      swap2\n      pop\n      pop\n      jump\t// out\n        /* \"#utility.yul\":5531:5684   */\n    tag_197:\n        /* \"#utility.yul\":5619:5623   */\n      0x00\n        /* \"#utility.yul\":5642:5645   */\n      dup2\n        /* \"#utility.yul\":5634:5645   */\n      swap1\n      pop\n        /* \"#utility.yul\":5672:5676   */\n      0x20\n        /* \"#utility.yul\":5667:5670   */\n      dup3\n        /* \"#utility.yul\":5663:5677   */\n      add\n        /* \"#utility.yul\":5655:5677   */\n      swap1\n      pop\n        /* \"#utility.yul\":5531:5684   */\n      swap2\n      swap1\n      pop\n      jump\t// out\n        /* \"#utility.yul\":5690:5798   */\n    tag_198:\n        /* \"#utility.yul\":5767:5791   */\n      tag_299\n        /* \"#utility.yul\":5785:5790   */\n      dup2\n        /* \"#utility.yul\":5767:5791   */\n      tag_185\n      jump\t// in\n    tag_299:\n        /* \"#utility.yul\":5762:5765   */\n      dup3\n        /* \"#utility.yul\":5755:5792   */\n      mstore\n        /* \"#utility.yul\":5690:5798   */\n      pop\n      pop\n      jump\t// out\n        /* \"#utility.yul\":5804:5912   */\n    tag_199:\n        /* \"#utility.yul\":5881:5905   */\n      tag_301\n        /* \"#utility.yul\":5899:5904   */\n      dup2\n        /* \"#utility.yul\":5881:5905   */\n      tag_180\n      jump\t// in\n    tag_301:\n        /* \"#utility.yul\":5876:5879   */\n      dup3\n        /* \"#utility.yul\":5869:5906   */\n      mstore\n        /* \"#utility.yul\":5804:5912   */\n      pop\n      pop\n      jump\t// out\n        /* \"#utility.yul\":5918:6077   */\n    tag_200:\n        /* \"#utility.yul\":5992:6003   */\n      0x00\n        /* \"#utility.yul\":6026:6032   */\n      dup3\n        /* \"#utility.yul\":6021:6024   */\n      dup3\n        /* \"#utility.yul\":6014:6033   */\n      mstore\n        /* \"#utility.yul\":6066:6070   */\n      0x20\n        /* \"#utility.yul\":6061:6064   */\n      dup3\n        /* \"#utility.yul\":6057:6071   */\n      add\n        /* \"#utility.yul\":6042:6071   */\n      swap1\n      pop\n        /* \"#utility.yul\":5918:6077   */\n      swap3\n      swap2\n      pop\n      pop\n      jump\t// out\n        /* \"#utility.yul\":6083:6440   */\n    tag_201:\n        /* \"#utility.yul\":6161:6164   */\n      0x00\n        /* \"#utility.yul\":6189:6228   */\n      tag_304\n        /* \"#utility.yul\":6222:6227   */\n      dup3\n        /* \"#utility.yul\":6189:6228   */\n      tag_189\n      jump\t// in\n    tag_304:\n        /* \"#utility.yul\":6244:6305   */\n      tag_305\n        /* \"#utility.yul\":6298:6304   */\n      dup2\n        /* \"#utility.yul\":6293:6296   */\n      dup6\n        /* \"#utility.yul\":6244:6305   */\n      tag_200\n      jump\t// in\n    tag_305:\n        /* \"#utility.yul\":6237:6305   */\n      swap4\n      pop\n        /* \"#utility.yul\":6314:6379   */\n      tag_306\n        /* \"#utility.yul\":6372:6378   */\n      dup2\n        /* \"#utility.yul\":6367:6370   */\n      dup6\n        /* \"#utility.yul\":6360:6364   */\n      0x20\n        /* \"#utility.yul\":6353:6358   */\n      dup7\n        /* \"#utility.yul\":6349:6365   */\n      add\n        /* \"#utility.yul\":6314:6379   */\n      tag_191\n      jump\t// in\n    tag_306:\n        /* \"#utility.yul\":6404:6433   */\n      tag_307\n        /* \"#utility.yul\":6426:6432   */\n      dup2\n        /* \"#utility.yul\":6404:6433   */\n      tag_192\n      jump\t// in\n    tag_307:\n        /* \"#utility.yul\":6399:6402   */\n      dup5\n        /* \"#utility.yul\":6395:6434   */\n      add\n        /* \"#utility.yul\":6388:6434   */\n      swap2\n      pop\n        /* \"#utility.yul\":6165:6440   */\n      pop\n        /* \"#utility.yul\":6083:6440   */\n      swap3\n      swap2\n      pop\n      pop\n      jump\t// out\n        /* \"#utility.yul\":6514:7458   */\n    tag_202:\n        /* \"#utility.yul\":6615:6618   */\n      0x00\n        /* \"#utility.yul\":6651:6655   */\n      0x80\n        /* \"#utility.yul\":6646:6649   */\n      dup4\n        /* \"#utility.yul\":6642:6656   */\n      add\n        /* \"#utility.yul\":6736:6740   */\n      0x00\n        /* \"#utility.yul\":6729:6734   */\n      dup4\n        /* \"#utility.yul\":6725:6741   */\n      add\n        /* \"#utility.yul\":6719:6742   */\n      mload\n        /* \"#utility.yul\":6755:6818   */\n      tag_309\n        /* \"#utility.yul\":6812:6816   */\n      0x00\n        /* \"#utility.yul\":6807:6810   */\n      dup7\n        /* \"#utility.yul\":6803:6817   */\n      add\n        /* \"#utility.yul\":6789:6801   */\n      dup3\n        /* \"#utility.yul\":6755:6818   */\n      tag_198\n      jump\t// in\n    tag_309:\n        /* \"#utility.yul\":6666:6828   */\n      pop\n        /* \"#utility.yul\":6912:6916   */\n      0x20\n        /* \"#utility.yul\":6905:6910   */\n      dup4\n        /* \"#utility.yul\":6901:6917   */\n      add\n        /* \"#utility.yul\":6895:6918   */\n      mload\n        /* \"#utility.yul\":6931:6994   */\n      tag_310\n        /* \"#utility.yul\":6988:6992   */\n      0x20\n        /* \"#utility.yul\":6983:6986   */\n      dup7\n        /* \"#utility.yul\":6979:6993   */\n      add\n        /* \"#utility.yul\":6965:6977   */\n      dup3\n        /* \"#utility.yul\":6931:6994   */\n      tag_199\n      jump\t// in\n    tag_310:\n        /* \"#utility.yul\":6838:7004   */\n      pop\n        /* \"#utility.yul\":7089:7093   */\n      0x40\n        /* \"#utility.yul\":7082:7087   */\n      dup4\n        /* \"#utility.yul\":7078:7094   */\n      add\n        /* \"#utility.yul\":7072:7095   */\n      mload\n        /* \"#utility.yul\":7142:7145   */\n      dup5\n        /* \"#utility.yul\":7136:7140   */\n      dup3\n        /* \"#utility.yul\":7132:7146   */\n      sub\n        /* \"#utility.yul\":7125:7129   */\n      0x40\n        /* \"#utility.yul\":7120:7123   */\n      dup7\n        /* \"#utility.yul\":7116:7130   */\n      add\n        /* \"#utility.yul\":7109:7147   */\n      mstore\n        /* \"#utility.yul\":7168:7241   */\n      tag_311\n        /* \"#utility.yul\":7236:7240   */\n      dup3\n        /* \"#utility.yul\":7222:7234   */\n      dup3\n        /* \"#utility.yul\":7168:7241   */\n      tag_201\n      jump\t// in\n    tag_311:\n        /* \"#utility.yul\":7160:7241   */\n      swap2\n      pop\n        /* \"#utility.yul\":7014:7252   */\n      pop\n        /* \"#utility.yul\":7339:7343   */\n      0x60\n        /* \"#utility.yul\":7332:7337   */\n      dup4\n        /* \"#utility.yul\":7328:7344   */\n      add\n        /* \"#utility.yul\":7322:7345   */\n      mload\n        /* \"#utility.yul\":7358:7421   */\n      tag_312\n        /* \"#utility.yul\":7415:7419   */\n      0x60\n        /* \"#utility.yul\":7410:7413   */\n      dup7\n        /* \"#utility.yul\":7406:7420   */\n      add\n        /* \"#utility.yul\":7392:7404   */\n      dup3\n        /* \"#utility.yul\":7358:7421   */\n      tag_198\n      jump\t// in\n    tag_312:\n        /* \"#utility.yul\":7262:7431   */\n      pop\n        /* \"#utility.yul\":7448:7452   */\n      dup1\n        /* \"#utility.yul\":7441:7452   */\n      swap2\n      pop\n        /* \"#utility.yul\":6620:7458   */\n      pop\n        /* \"#utility.yul\":6514:7458   */\n      swap3\n      swap2\n      pop\n      pop\n      jump\t// out\n        /* \"#utility.yul\":7464:7704   */\n    tag_203:\n        /* \"#utility.yul\":7575:7585   */\n      0x00\n        /* \"#utility.yul\":7610:7698   */\n      tag_314\n        /* \"#utility.yul\":7694:7697   */\n      dup4\n        /* \"#utility.yul\":7686:7692   */\n      dup4\n        /* \"#utility.yul\":7610:7698   */\n      tag_202\n      jump\t// in\n    tag_314:\n        /* \"#utility.yul\":7596:7698   */\n      swap1\n      pop\n        /* \"#utility.yul\":7464:7704   */\n      swap3\n      swap2\n      pop\n      pop\n      jump\t// out\n        /* \"#utility.yul\":7710:7844   */\n    tag_204:\n        /* \"#utility.yul\":7801:7805   */\n      0x00\n        /* \"#utility.yul\":7833:7837   */\n      0x20\n        /* \"#utility.yul\":7828:7831   */\n      dup3\n        /* \"#utility.yul\":7824:7838   */\n      add\n        /* \"#utility.yul\":7816:7838   */\n      swap1\n      pop\n        /* \"#utility.yul\":7710:7844   */\n      swap2\n      swap1\n      pop\n      jump\t// out\n        /* \"#utility.yul\":7922:9001   */\n    tag_205:\n        /* \"#utility.yul\":8083:8086   */\n      0x00\n        /* \"#utility.yul\":8112:8187   */\n      tag_317\n        /* \"#utility.yul\":8181:8186   */\n      dup3\n        /* \"#utility.yul\":8112:8187   */\n      tag_195\n      jump\t// in\n    tag_317:\n        /* \"#utility.yul\":8203:8310   */\n      tag_318\n        /* \"#utility.yul\":8303:8309   */\n      dup2\n        /* \"#utility.yul\":8298:8301   */\n      dup6\n        /* \"#utility.yul\":8203:8310   */\n      tag_196\n      jump\t// in\n    tag_318:\n        /* \"#utility.yul\":8196:8310   */\n      swap4\n      pop\n        /* \"#utility.yul\":8336:8339   */\n      dup4\n        /* \"#utility.yul\":8381:8385   */\n      0x20\n        /* \"#utility.yul\":8373:8379   */\n      dup3\n        /* \"#utility.yul\":8369:8386   */\n      mul\n        /* \"#utility.yul\":8364:8367   */\n      dup6\n        /* \"#utility.yul\":8360:8387   */\n      add\n        /* \"#utility.yul\":8411:8488   */\n      tag_319\n        /* \"#utility.yul\":8482:8487   */\n      dup6\n        /* \"#utility.yul\":8411:8488   */\n      tag_197\n      jump\t// in\n    tag_319:\n        /* \"#utility.yul\":8511:8518   */\n      dup1\n        /* \"#utility.yul\":8542:8543   */\n      0x00\n        /* \"#utility.yul\":8527:8956   */\n    tag_320:\n        /* \"#utility.yul\":8552:8558   */\n      dup6\n        /* \"#utility.yul\":8549:8550   */\n      dup2\n        /* \"#utility.yul\":8546:8559   */\n      lt\n        /* \"#utility.yul\":8527:8956   */\n      iszero\n      tag_322\n      jumpi\n        /* \"#utility.yul\":8623:8632   */\n      dup5\n        /* \"#utility.yul\":8617:8621   */\n      dup5\n        /* \"#utility.yul\":8613:8633   */\n      sub\n        /* \"#utility.yul\":8608:8611   */\n      dup10\n        /* \"#utility.yul\":8601:8634   */\n      mstore\n        /* \"#utility.yul\":8674:8680   */\n      dup2\n        /* \"#utility.yul\":8668:8681   */\n      mload\n        /* \"#utility.yul\":8702:8808   */\n      tag_323\n        /* \"#utility.yul\":8803:8807   */\n      dup6\n        /* \"#utility.yul\":8788:8801   */\n      dup3\n        /* \"#utility.yul\":8702:8808   */\n      tag_203\n      jump\t// in\n    tag_323:\n        /* \"#utility.yul\":8694:8808   */\n      swap5\n      pop\n        /* \"#utility.yul\":8831:8912   */\n      tag_324\n        /* \"#utility.yul\":8905:8911   */\n      dup4\n        /* \"#utility.yul\":8831:8912   */\n      tag_204\n      jump\t// in\n    tag_324:\n        /* \"#utility.yul\":8821:8912   */\n      swap3\n      pop\n        /* \"#utility.yul\":8941:8945   */\n      0x20\n        /* \"#utility.yul\":8936:8939   */\n      dup11\n        /* \"#utility.yul\":8932:8946   */\n      add\n        /* \"#utility.yul\":8925:8946   */\n      swap10\n      pop\n        /* \"#utility.yul\":8587:8956   */\n      pop\n        /* \"#utility.yul\":8574:8575   */\n      0x01\n        /* \"#utility.yul\":8571:8572   */\n      dup2\n        /* \"#utility.yul\":8567:8576   */\n      add\n        /* \"#utility.yul\":8562:8576   */\n      swap1\n      pop\n        /* \"#utility.yul\":8527:8956   */\n      jump(tag_320)\n    tag_322:\n        /* \"#utility.yul\":8531:8545   */\n      pop\n        /* \"#utility.yul\":8972:8976   */\n      dup3\n        /* \"#utility.yul\":8965:8976   */\n      swap8\n      pop\n        /* \"#utility.yul\":8992:8995   */\n      dup8\n        /* \"#utility.yul\":8985:8995   */\n      swap6\n      pop\n        /* \"#utility.yul\":8088:9001   */\n      pop\n      pop\n      pop\n      pop\n      pop\n        /* \"#utility.yul\":7922:9001   */\n      swap3\n      swap2\n      pop\n      pop\n      jump\t// out\n        /* \"#utility.yul\":9007:9464   */\n    tag_41:\n        /* \"#utility.yul\":9192:9196   */\n      0x00\n        /* \"#utility.yul\":9230:9232   */\n      0x20\n        /* \"#utility.yul\":9219:9228   */\n      dup3\n        /* \"#utility.yul\":9215:9233   */\n      add\n        /* \"#utility.yul\":9207:9233   */\n      swap1\n      pop\n        /* \"#utility.yul\":9279:9288   */\n      dup2\n        /* \"#utility.yul\":9273:9277   */\n      dup2\n        /* \"#utility.yul\":9269:9289   */\n      sub\n        /* \"#utility.yul\":9265:9266   */\n      0x00\n        /* \"#utility.yul\":9254:9263   */\n      dup4\n        /* \"#utility.yul\":9250:9267   */\n      add\n        /* \"#utility.yul\":9243:9290   */\n      mstore\n        /* \"#utility.yul\":9307:9457   */\n      tag_326\n        /* \"#utility.yul\":9452:9456   */\n      dup2\n        /* \"#utility.yul\":9443:9449   */\n      dup5\n        /* \"#utility.yul\":9307:9457   */\n      tag_205\n      jump\t// in\n    tag_326:\n        /* \"#utility.yul\":9299:9457   */\n      swap1\n      pop\n        /* \"#utility.yul\":9007:9464   */\n      swap3\n      swap2\n      pop\n      pop\n      jump\t// out\n        /* \"#utility.yul\":9470:9692   */\n    tag_46:\n        /* \"#utility.yul\":9563:9567   */\n      0x00\n        /* \"#utility.yul\":9601:9603   */\n      0x20\n        /* \"#utility.yul\":9590:9599   */\n      dup3\n        /* \"#utility.yul\":9586:9604   */\n      add\n        /* \"#utility.yul\":9578:9604   */\n      swap1\n      pop\n        /* \"#utility.yul\":9614:9685   */\n      tag_328\n        /* \"#utility.yul\":9682:9683   */\n      0x00\n        /* \"#utility.yul\":9671:9680   */\n      dup4\n        /* \"#utility.yul\":9667:9684   */\n      add\n        /* \"#utility.yul\":9658:9664   */\n      dup5\n        /* \"#utility.yul\":9614:9685   */\n      tag_194\n      jump\t// in\n    tag_328:\n        /* \"#utility.yul\":9470:9692   */\n      swap3\n      swap2\n      pop\n      pop\n      jump\t// out\n        /* \"#utility.yul\":9698:9920   */\n    tag_51:\n        /* \"#utility.yul\":9791:9795   */\n      0x00\n        /* \"#utility.yul\":9829:9831   */\n      0x20\n        /* \"#utility.yul\":9818:9827   */\n      dup3\n        /* \"#utility.yul\":9814:9832   */\n      add\n        /* \"#utility.yul\":9806:9832   */\n      swap1\n      pop\n        /* \"#utility.yul\":9842:9913   */\n      tag_330\n        /* \"#utility.yul\":9910:9911   */\n      0x00\n        /* \"#utility.yul\":9899:9908   */\n      dup4\n        /* \"#utility.yul\":9895:9912   */\n      add\n        /* \"#utility.yul\":9886:9892   */\n      dup5\n        /* \"#utility.yul\":9842:9913   */\n      tag_188\n      jump\t// in\n    tag_330:\n        /* \"#utility.yul\":9698:9920   */\n      swap3\n      swap2\n      pop\n      pop\n      jump\t// out\n        /* \"#utility.yul\":9926:10043   */\n    tag_206:\n        /* \"#utility.yul\":10035:10036   */\n      0x00\n        /* \"#utility.yul\":10032:10033   */\n      0x00\n        /* \"#utility.yul\":10025:10037   */\n      revert\n        /* \"#utility.yul\":10049:10166   */\n    tag_207:\n        /* \"#utility.yul\":10158:10159   */\n      0x00\n        /* \"#utility.yul\":10155:10156   */\n      0x00\n        /* \"#utility.yul\":10148:10160   */\n      revert\n        /* \"#utility.yul\":10172:10352   */\n    tag_100:\n        /* \"#utility.yul\":10220:10297   */\n      0x4e487b7100000000000000000000000000000000000000000000000000000000\n        /* \"#utility.yul\":10217:10218   */\n      0x00\n        /* \"#utility.yul\":10210:10298   */\n      mstore\n        /* \"#utility.yul\":10317:10321   */\n      0x41\n        /* \"#utility.yul\":10314:10315   */\n      0x04\n        /* \"#utility.yul\":10307:10322   */\n      mstore\n        /* \"#utility.yul\":10341:10345   */\n      0x24\n        /* \"#utility.yul\":10338:10339   */\n      0x00\n        /* \"#utility.yul\":10331:10346   */\n      revert\n        /* \"#utility.yul\":10358:10639   */\n    tag_208:\n        /* \"#utility.yul\":10441:10468   */\n      tag_335\n        /* \"#utility.yul\":10463:10467   */\n      dup3\n        /* \"#utility.yul\":10441:10468   */\n      tag_192\n      jump\t// in\n    tag_335:\n        /* \"#utility.yul\":10433:10439   */\n      dup2\n        /* \"#utility.yul\":10429:10469   */\n      add\n        /* \"#utility.yul\":10571:10577   */\n      dup2\n        /* \"#utility.yul\":10559:10569   */\n      dup2\n        /* \"#utility.yul\":10556:10578   */\n      lt\n        /* \"#utility.yul\":10535:10553   */\n      0xffffffffffffffff\n        /* \"#utility.yul\":10523:10533   */\n      dup3\n        /* \"#utility.yul\":10520:10554   */\n      gt\n        /* \"#utility.yul\":10517:10579   */\n      or\n        /* \"#utility.yul\":10514:10602   */\n      iszero\n      tag_336\n      jumpi\n        /* \"#utility.yul\":10582:10600   */\n      tag_337\n      tag_100\n      jump\t// in\n    tag_337:\n        /* \"#utility.yul\":10514:10602   */\n    tag_336:\n        /* \"#utility.yul\":10622:10632   */\n      dup1\n        /* \"#utility.yul\":10618:10620   */\n      0x40\n        /* \"#utility.yul\":10611:10633   */\n      mstore\n        /* \"#utility.yul\":10401:10639   */\n      pop\n        /* \"#utility.yul\":10358:10639   */\n      pop\n      pop\n      jump\t// out\n        /* \"#utility.yul\":10645:10774   */\n    tag_209:\n        /* \"#utility.yul\":10679:10685   */\n      0x00\n        /* \"#utility.yul\":10706:10726   */\n      tag_339\n      tag_176\n      jump\t// in\n    tag_339:\n        /* \"#utility.yul\":10696:10726   */\n      swap1\n      pop\n        /* \"#utility.yul\":10735:10768   */\n      tag_340\n        /* \"#utility.yul\":10763:10767   */\n      dup3\n        /* \"#utility.yul\":10755:10761   */\n      dup3\n        /* \"#utility.yul\":10735:10768   */\n      tag_208\n      jump\t// in\n    tag_340:\n        /* \"#utility.yul\":10645:10774   */\n      swap2\n      swap1\n      pop\n      jump\t// out\n        /* \"#utility.yul\":10780:11088   */\n    tag_210:\n        /* \"#utility.yul\":10842:10846   */\n      0x00\n        /* \"#utility.yul\":10932:10950   */\n      0xffffffffffffffff\n        /* \"#utility.yul\":10924:10930   */\n      dup3\n        /* \"#utility.yul\":10921:10951   */\n      gt\n        /* \"#utility.yul\":10918:10974   */\n      iszero\n      tag_342\n      jumpi\n        /* \"#utility.yul\":10954:10972   */\n      tag_343\n      tag_100\n      jump\t// in\n    tag_343:\n        /* \"#utility.yul\":10918:10974   */\n    tag_342:\n        /* \"#utility.yul\":10992:11021   */\n      tag_344\n        /* \"#utility.yul\":11014:11020   */\n      dup3\n        /* \"#utility.yul\":10992:11021   */\n      tag_192\n      jump\t// in\n    tag_344:\n        /* \"#utility.yul\":10984:11021   */\n      swap1\n      pop\n        /* \"#utility.yul\":11076:11080   */\n      0x20\n        /* \"#utility.yul\":11070:11074   */\n      dup2\n        /* \"#utility.yul\":11066:11081   */\n      add\n        /* \"#utility.yul\":11058:11081   */\n      swap1\n      pop\n        /* \"#utility.yul\":10780:11088   */\n      swap2\n      swap1\n      pop\n      jump\t// out\n        /* \"#utility.yul\":11094:11242   */\n    tag_211:\n        /* \"#utility.yul\":11192:11198   */\n      dup3\n        /* \"#utility.yul\":11187:11190   */\n      dup2\n        /* \"#utility.yul\":11182:11185   */\n      dup4\n        /* \"#utility.yul\":11169:11199   */\n      calldatacopy\n        /* \"#utility.yul\":11233:11234   */\n      0x00\n        /* \"#utility.yul\":11224:11230   */\n      dup4\n        /* \"#utility.yul\":11219:11222   */\n      dup4\n        /* \"#utility.yul\":11215:11231   */\n      add\n        /* \"#utility.yul\":11208:11235   */\n      mstore\n        /* \"#utility.yul\":11094:11242   */\n      pop\n      pop\n      pop\n      jump\t// out\n        /* \"#utility.yul\":11248:11673   */\n    tag_212:\n        /* \"#utility.yul\":11326:11331   */\n      0x00\n        /* \"#utility.yul\":11351:11417   */\n      tag_347\n        /* \"#utility.yul\":11367:11416   */\n      tag_348\n        /* \"#utility.yul\":11409:11415   */\n      dup5\n        /* \"#utility.yul\":11367:11416   */\n      tag_210\n      jump\t// in\n    tag_348:\n        /* \"#utility.yul\":11351:11417   */\n      tag_209\n      jump\t// in\n    tag_347:\n        /* \"#utility.yul\":11342:11417   */\n      swap1\n      pop\n        /* \"#utility.yul\":11440:11446   */\n      dup3\n        /* \"#utility.yul\":11433:11438   */\n      dup2\n        /* \"#utility.yul\":11426:11447   */\n      mstore\n        /* \"#utility.yul\":11478:11482   */\n      0x20\n        /* \"#utility.yul\":11471:11476   */\n      dup2\n        /* \"#utility.yul\":11467:11483   */\n      add\n        /* \"#utility.yul\":11516:11519   */\n      dup5\n        /* \"#utility.yul\":11507:11513   */\n      dup5\n        /* \"#utility.yul\":11502:11505   */\n      dup5\n        /* \"#utility.yul\":11498:11514   */\n      add\n        /* \"#utility.yul\":11495:11520   */\n      gt\n        /* \"#utility.yul\":11492:11604   */\n      iszero\n      tag_349\n      jumpi\n        /* \"#utility.yul\":11523:11602   */\n      tag_350\n      tag_207\n      jump\t// in\n    tag_350:\n        /* \"#utility.yul\":11492:11604   */\n    tag_349:\n        /* \"#utility.yul\":11613:11667   */\n      tag_351\n        /* \"#utility.yul\":11660:11666   */\n      dup5\n        /* \"#utility.yul\":11655:11658   */\n      dup3\n        /* \"#utility.yul\":11650:11653   */\n      dup6\n        /* \"#utility.yul\":11613:11667   */\n      tag_211\n      jump\t// in\n    tag_351:\n        /* \"#utility.yul\":11332:11673   */\n      pop\n        /* \"#utility.yul\":11248:11673   */\n      swap4\n      swap3\n      pop\n      pop\n      pop\n      jump\t// out\n        /* \"#utility.yul\":11693:12033   */\n    tag_213:\n        /* \"#utility.yul\":11749:11754   */\n      0x00\n        /* \"#utility.yul\":11798:11801   */\n      dup3\n        /* \"#utility.yul\":11791:11795   */\n      0x1f\n        /* \"#utility.yul\":11783:11789   */\n      dup4\n        /* \"#utility.yul\":11779:11796   */\n      add\n        /* \"#utility.yul\":11775:11802   */\n      slt\n        /* \"#utility.yul\":11765:11887   */\n      tag_353\n      jumpi\n        /* \"#utility.yul\":11806:11885   */\n      tag_354\n      tag_206\n      jump\t// in\n    tag_354:\n        /* \"#utility.yul\":11765:11887   */\n    tag_353:\n        /* \"#utility.yul\":11923:11929   */\n      dup2\n        /* \"#utility.yul\":11910:11930   */\n      calldataload\n        /* \"#utility.yul\":11948:12027   */\n      tag_355\n        /* \"#utility.yul\":12023:12026   */\n      dup5\n        /* \"#utility.yul\":12015:12021   */\n      dup3\n        /* \"#utility.yul\":12008:12012   */\n      0x20\n        /* \"#utility.yul\":12000:12006   */\n      dup7\n        /* \"#utility.yul\":11996:12013   */\n      add\n        /* \"#utility.yul\":11948:12027   */\n      tag_212\n      jump\t// in\n    tag_355:\n        /* \"#utility.yul\":11939:12027   */\n      swap2\n      pop\n        /* \"#utility.yul\":11755:12033   */\n      pop\n        /* \"#utility.yul\":11693:12033   */\n      swap3\n      swap2\n      pop\n      pop\n      jump\t// out\n        /* \"#utility.yul\":12039:12838   */\n    tag_54:\n        /* \"#utility.yul\":12126:12132   */\n      0x00\n        /* \"#utility.yul\":12134:12140   */\n      0x00\n        /* \"#utility.yul\":12142:12148   */\n      0x00\n        /* \"#utility.yul\":12191:12193   */\n      0x60\n        /* \"#utility.yul\":12179:12188   */\n      dup5\n        /* \"#utility.yul\":12170:12177   */\n      dup7\n        /* \"#utility.yul\":12166:12189   */\n      sub\n        /* \"#utility.yul\":12162:12194   */\n      slt\n        /* \"#utility.yul\":12159:12278   */\n      iszero\n      tag_357\n      jumpi\n        /* \"#utility.yul\":12197:12276   */\n      tag_358\n      tag_177\n      jump\t// in\n    tag_358:\n        /* \"#utility.yul\":12159:12278   */\n    tag_357:\n        /* \"#utility.yul\":12317:12318   */\n      0x00\n        /* \"#utility.yul\":12342:12395   */\n      tag_359\n        /* \"#utility.yul\":12387:12394   */\n      dup7\n        /* \"#utility.yul\":12378:12384   */\n      dup3\n        /* \"#utility.yul\":12367:12376   */\n      dup8\n        /* \"#utility.yul\":12363:12385   */\n      add\n        /* \"#utility.yul\":12342:12395   */\n      tag_182\n      jump\t// in\n    tag_359:\n        /* \"#utility.yul\":12332:12395   */\n      swap4\n      pop\n        /* \"#utility.yul\":12288:12405   */\n      pop\n        /* \"#utility.yul\":12444:12446   */\n      0x20\n        /* \"#utility.yul\":12470:12523   */\n      tag_360\n        /* \"#utility.yul\":12515:12522   */\n      dup7\n        /* \"#utility.yul\":12506:12512   */\n      dup3\n        /* \"#utility.yul\":12495:12504   */\n      dup8\n        /* \"#utility.yul\":12491:12513   */\n      add\n        /* \"#utility.yul\":12470:12523   */\n      tag_182\n      jump\t// in\n    tag_360:\n        /* \"#utility.yul\":12460:12523   */\n      swap3\n      pop\n        /* \"#utility.yul\":12415:12533   */\n      pop\n        /* \"#utility.yul\":12600:12602   */\n      0x40\n        /* \"#utility.yul\":12589:12598   */\n      dup5\n        /* \"#utility.yul\":12585:12603   */\n      add\n        /* \"#utility.yul\":12572:12604   */\n      calldataload\n        /* \"#utility.yul\":12631:12649   */\n      0xffffffffffffffff\n        /* \"#utility.yul\":12623:12629   */\n      dup2\n        /* \"#utility.yul\":12620:12650   */\n      gt\n        /* \"#utility.yul\":12617:12734   */\n      iszero\n      tag_361\n      jumpi\n        /* \"#utility.yul\":12653:12732   */\n      tag_362\n      tag_178\n      jump\t// in\n    tag_362:\n        /* \"#utility.yul\":12617:12734   */\n    tag_361:\n        /* \"#utility.yul\":12758:12821   */\n      tag_363\n        /* \"#utility.yul\":12813:12820   */\n      dup7\n        /* \"#utility.yul\":12804:12810   */\n      dup3\n        /* \"#utility.yul\":12793:12802   */\n      dup8\n        /* \"#utility.yul\":12789:12811   */\n      add\n        /* \"#utility.yul\":12758:12821   */\n      tag_213\n      jump\t// in\n    tag_363:\n        /* \"#utility.yul\":12748:12821   */\n      swap2\n      pop\n        /* \"#utility.yul\":12543:12831   */\n      pop\n        /* \"#utility.yul\":12039:12838   */\n      swap3\n      pop\n      swap3\n      pop\n      swap3\n      jump\t// out\n        /* \"#utility.yul\":12844:13498   */\n    tag_58:\n        /* \"#utility.yul\":12922:12928   */\n      0x00\n        /* \"#utility.yul\":12930:12936   */\n      0x00\n        /* \"#utility.yul\":12979:12981   */\n      0x40\n        /* \"#utility.yul\":12967:12976   */\n      dup4\n        /* \"#utility.yul\":12958:12965   */\n      dup6\n        /* \"#utility.yul\":12954:12977   */\n      sub\n        /* \"#utility.yul\":12950:12982   */\n      slt\n        /* \"#utility.yul\":12947:13066   */\n      iszero\n      tag_365\n      jumpi\n        /* \"#utility.yul\":12985:13064   */\n      tag_366\n      tag_177\n      jump\t// in\n    tag_366:\n        /* \"#utility.yul\":12947:13066   */\n    tag_365:\n        /* \"#utility.yul\":13133:13134   */\n      0x00\n        /* \"#utility.yul\":13122:13131   */\n      dup4\n        /* \"#utility.yul\":13118:13135   */\n      add\n        /* \"#utility.yul\":13105:13136   */\n      calldataload\n        /* \"#utility.yul\":13163:13181   */\n      0xffffffffffffffff\n        /* \"#utility.yul\":13155:13161   */\n      dup2\n        /* \"#utility.yul\":13152:13182   */\n      gt\n        /* \"#utility.yul\":13149:13266   */\n      iszero\n      tag_367\n      jumpi\n        /* \"#utility.yul\":13185:13264   */\n      tag_368\n      tag_178\n      jump\t// in\n    tag_368:\n        /* \"#utility.yul\":13149:13266   */\n    tag_367:\n        /* \"#utility.yul\":13290:13353   */\n      tag_369\n        /* \"#utility.yul\":13345:13352   */\n      dup6\n        /* \"#utility.yul\":13336:13342   */\n      dup3\n        /* \"#utility.yul\":13325:13334   */\n      dup7\n        /* \"#utility.yul\":13321:13343   */\n      add\n        /* \"#utility.yul\":13290:13353   */\n      tag_213\n      jump\t// in\n    tag_369:\n        /* \"#utility.yul\":13280:13353   */\n      swap3\n      pop\n        /* \"#utility.yul\":13076:13363   */\n      pop\n        /* \"#utility.yul\":13402:13404   */\n      0x20\n        /* \"#utility.yul\":13428:13481   */\n      tag_370\n        /* \"#utility.yul\":13473:13480   */\n      dup6\n        /* \"#utility.yul\":13464:13470   */\n      dup3\n        /* \"#utility.yul\":13453:13462   */\n      dup7\n        /* \"#utility.yul\":13449:13471   */\n      add\n        /* \"#utility.yul\":13428:13481   */\n      tag_182\n      jump\t// in\n    tag_370:\n        /* \"#utility.yul\":13418:13481   */\n      swap2\n      pop\n        /* \"#utility.yul\":13373:13491   */\n      pop\n        /* \"#utility.yul\":12844:13498   */\n      swap3\n      pop\n      swap3\n      swap1\n      pop\n      jump\t// out\n        /* \"#utility.yul\":13504:14158   */\n    tag_65:\n        /* \"#utility.yul\":13582:13588   */\n      0x00\n        /* \"#utility.yul\":13590:13596   */\n      0x00\n        /* \"#utility.yul\":13639:13641   */\n      0x40\n        /* \"#utility.yul\":13627:13636   */\n      dup4\n        /* \"#utility.yul\":13618:13625   */\n      dup6\n        /* \"#utility.yul\":13614:13637   */\n      sub\n        /* \"#utility.yul\":13610:13642   */\n      slt\n        /* \"#utility.yul\":13607:13726   */\n      iszero\n      tag_372\n      jumpi\n        /* \"#utility.yul\":13645:13724   */\n      tag_373\n      tag_177\n      jump\t// in\n    tag_373:\n        /* \"#utility.yul\":13607:13726   */\n    tag_372:\n        /* \"#utility.yul\":13765:13766   */\n      0x00\n        /* \"#utility.yul\":13790:13843   */\n      tag_374\n        /* \"#utility.yul\":13835:13842   */\n      dup6\n        /* \"#utility.yul\":13826:13832   */\n      dup3\n        /* \"#utility.yul\":13815:13824   */\n      dup7\n        /* \"#utility.yul\":13811:13833   */\n      add\n        /* \"#utility.yul\":13790:13843   */\n      tag_182\n      jump\t// in\n    tag_374:\n        /* \"#utility.yul\":13780:13843   */\n      swap3\n      pop\n        /* \"#utility.yul\":13736:13853   */\n      pop\n        /* \"#utility.yul\":13920:13922   */\n      0x20\n        /* \"#utility.yul\":13909:13918   */\n      dup4\n        /* \"#utility.yul\":13905:13923   */\n      add\n        /* \"#utility.yul\":13892:13924   */\n      calldataload\n        /* \"#utility.yul\":13951:13969   */\n      0xffffffffffffffff\n        /* \"#utility.yul\":13943:13949   */\n      dup2\n        /* \"#utility.yul\":13940:13970   */\n      gt\n        /* \"#utility.yul\":13937:14054   */\n      iszero\n      tag_375\n      jumpi\n        /* \"#utility.yul\":13973:14052   */\n      tag_376\n      tag_178\n      jump\t// in\n    tag_376:\n        /* \"#utility.yul\":13937:14054   */\n    tag_375:\n        /* \"#utility.yul\":14078:14141   */\n      tag_377\n        /* \"#utility.yul\":14133:14140   */\n      dup6\n        /* \"#utility.yul\":14124:14130   */\n      dup3\n        /* \"#utility.yul\":14113:14122   */\n      dup7\n        /* \"#utility.yul\":14109:14131   */\n      add\n        /* \"#utility.yul\":14078:14141   */\n      tag_213\n      jump\t// in\n    tag_377:\n        /* \"#utility.yul\":14068:14141   */\n      swap2\n      pop\n        /* \"#utility.yul\":13863:14151   */\n      pop\n        /* \"#utility.yul\":13504:14158   */\n      swap3\n      pop\n      swap3\n      swap1\n      pop\n      jump\t// out\n        /* \"#utility.yul\":14164:14808   */\n    tag_75:\n        /* \"#utility.yul\":14361:14365   */\n      0x00\n        /* \"#utility.yul\":14399:14402   */\n      0x80\n        /* \"#utility.yul\":14388:14397   */\n      dup3\n        /* \"#utility.yul\":14384:14403   */\n      add\n        /* \"#utility.yul\":14376:14403   */\n      swap1\n      pop\n        /* \"#utility.yul\":14413:14484   */\n      tag_379\n        /* \"#utility.yul\":14481:14482   */\n      0x00\n        /* \"#utility.yul\":14470:14479   */\n      dup4\n        /* \"#utility.yul\":14466:14483   */\n      add\n        /* \"#utility.yul\":14457:14463   */\n      dup8\n        /* \"#utility.yul\":14413:14484   */\n      tag_188\n      jump\t// in\n    tag_379:\n        /* \"#utility.yul\":14494:14566   */\n      tag_380\n        /* \"#utility.yul\":14562:14564   */\n      0x20\n        /* \"#utility.yul\":14551:14560   */\n      dup4\n        /* \"#utility.yul\":14547:14565   */\n      add\n        /* \"#utility.yul\":14538:14544   */\n      dup7\n        /* \"#utility.yul\":14494:14566   */\n      tag_194\n      jump\t// in\n    tag_380:\n        /* \"#utility.yul\":14613:14622   */\n      dup2\n        /* \"#utility.yul\":14607:14611   */\n      dup2\n        /* \"#utility.yul\":14603:14623   */\n      sub\n        /* \"#utility.yul\":14598:14600   */\n      0x40\n        /* \"#utility.yul\":14587:14596   */\n      dup4\n        /* \"#utility.yul\":14583:14601   */\n      add\n        /* \"#utility.yul\":14576:14624   */\n      mstore\n        /* \"#utility.yul\":14641:14719   */\n      tag_381\n        /* \"#utility.yul\":14714:14718   */\n      dup2\n        /* \"#utility.yul\":14705:14711   */\n      dup6\n        /* \"#utility.yul\":14641:14719   */\n      tag_193\n      jump\t// in\n    tag_381:\n        /* \"#utility.yul\":14633:14719   */\n      swap1\n      pop\n        /* \"#utility.yul\":14729:14801   */\n      tag_382\n        /* \"#utility.yul\":14797:14799   */\n      0x60\n        /* \"#utility.yul\":14786:14795   */\n      dup4\n        /* \"#utility.yul\":14782:14800   */\n      add\n        /* \"#utility.yul\":14773:14779   */\n      dup5\n        /* \"#utility.yul\":14729:14801   */\n      tag_188\n      jump\t// in\n    tag_382:\n        /* \"#utility.yul\":14164:14808   */\n      swap6\n      swap5\n      pop\n      pop\n      pop\n      pop\n      pop\n      jump\t// out\n        /* \"#utility.yul\":14814:15323   */\n    tag_78:\n        /* \"#utility.yul\":14883:14889   */\n      0x00\n        /* \"#utility.yul\":14932:14934   */\n      0x20\n        /* \"#utility.yul\":14920:14929   */\n      dup3\n        /* \"#utility.yul\":14911:14918   */\n      dup5\n        /* \"#utility.yul\":14907:14930   */\n      sub\n        /* \"#utility.yul\":14903:14935   */\n      slt\n        /* \"#utility.yul\":14900:15019   */\n      iszero\n      tag_384\n      jumpi\n        /* \"#utility.yul\":14938:15017   */\n      tag_385\n      tag_177\n      jump\t// in\n    tag_385:\n        /* \"#utility.yul\":14900:15019   */\n    tag_384:\n        /* \"#utility.yul\":15086:15087   */\n      0x00\n        /* \"#utility.yul\":15075:15084   */\n      dup3\n        /* \"#utility.yul\":15071:15088   */\n      add\n        /* \"#utility.yul\":15058:15089   */\n      calldataload\n        /* \"#utility.yul\":15116:15134   */\n      0xffffffffffffffff\n        /* \"#utility.yul\":15108:15114   */\n      dup2\n        /* \"#utility.yul\":15105:15135   */\n      gt\n        /* \"#utility.yul\":15102:15219   */\n      iszero\n      tag_386\n      jumpi\n        /* \"#utility.yul\":15138:15217   */\n      tag_387\n      tag_178\n      jump\t// in\n    tag_387:\n        /* \"#utility.yul\":15102:15219   */\n    tag_386:\n        /* \"#utility.yul\":15243:15306   */\n      tag_388\n        /* \"#utility.yul\":15298:15305   */\n      dup5\n        /* \"#utility.yul\":15289:15295   */\n      dup3\n        /* \"#utility.yul\":15278:15287   */\n      dup6\n        /* \"#utility.yul\":15274:15296   */\n      add\n        /* \"#utility.yul\":15243:15306   */\n      tag_213\n      jump\t// in\n    tag_388:\n        /* \"#utility.yul\":15233:15306   */\n      swap2\n      pop\n        /* \"#utility.yul\":15029:15316   */\n      pop\n        /* \"#utility.yul\":14814:15323   */\n      swap3\n      swap2\n      pop\n      pop\n      jump\t// out\n        /* \"#utility.yul\":15329:15509   */\n    tag_214:\n        /* \"#utility.yul\":15377:15454   */\n      0x4e487b7100000000000000000000000000000000000000000000000000000000\n        /* \"#utility.yul\":15374:15375   */\n      0x00\n        /* \"#utility.yul\":15367:15455   */\n      mstore\n        /* \"#utility.yul\":15474:15478   */\n      0x22\n        /* \"#utility.yul\":15471:15472   */\n      0x04\n        /* \"#utility.yul\":15464:15479   */\n      mstore\n        /* \"#utility.yul\":15498:15502   */\n      0x24\n        /* \"#utility.yul\":15495:15496   */\n      0x00\n        /* \"#utility.yul\":15488:15503   */\n      revert\n        /* \"#utility.yul\":15515:15835   */\n    tag_86:\n        /* \"#utility.yul\":15559:15565   */\n      0x00\n        /* \"#utility.yul\":15596:15597   */\n      0x02\n        /* \"#utility.yul\":15590:15594   */\n      dup3\n        /* \"#utility.yul\":15586:15598   */\n      div\n        /* \"#utility.yul\":15576:15598   */\n      swap1\n      pop\n        /* \"#utility.yul\":15643:15644   */\n      0x01\n        /* \"#utility.yul\":15637:15641   */\n      dup3\n        /* \"#utility.yul\":15633:15645   */\n      and\n        /* \"#utility.yul\":15664:15682   */\n      dup1\n        /* \"#utility.yul\":15654:15735   */\n      tag_391\n      jumpi\n        /* \"#utility.yul\":15720:15724   */\n      0x7f\n        /* \"#utility.yul\":15712:15718   */\n      dup3\n        /* \"#utility.yul\":15708:15725   */\n      and\n        /* \"#utility.yul\":15698:15725   */\n      swap2\n      pop\n        /* \"#utility.yul\":15654:15735   */\n    tag_391:\n        /* \"#utility.yul\":15782:15784   */\n      0x20\n        /* \"#utility.yul\":15774:15780   */\n      dup3\n        /* \"#utility.yul\":15771:15785   */\n      lt\n        /* \"#utility.yul\":15751:15769   */\n      dup2\n        /* \"#utility.yul\":15748:15786   */\n      sub\n        /* \"#utility.yul\":15745:15829   */\n      tag_392\n      jumpi\n        /* \"#utility.yul\":15801:15819   */\n      tag_393\n      tag_214\n      jump\t// in\n    tag_393:\n        /* \"#utility.yul\":15745:15829   */\n    tag_392:\n        /* \"#utility.yul\":15566:15835   */\n      pop\n        /* \"#utility.yul\":15515:15835   */\n      swap2\n      swap1\n      pop\n      jump\t// out\n        /* \"#utility.yul\":15841:16010   */\n    tag_215:\n        /* \"#utility.yul\":15981:16002   */\n      0x436f756e74206973204e6f742050726f70657200000000000000000000000000\n        /* \"#utility.yul\":15977:15978   */\n      0x00\n        /* \"#utility.yul\":15969:15975   */\n      dup3\n        /* \"#utility.yul\":15965:15979   */\n      add\n        /* \"#utility.yul\":15958:16003   */\n      mstore\n        /* \"#utility.yul\":15841:16010   */\n      pop\n      jump\t// out\n        /* \"#utility.yul\":16016:16382   */\n    tag_216:\n        /* \"#utility.yul\":16158:16161   */\n      0x00\n        /* \"#utility.yul\":16179:16246   */\n      tag_396\n        /* \"#utility.yul\":16243:16245   */\n      0x13\n        /* \"#utility.yul\":16238:16241   */\n      dup4\n        /* \"#utility.yul\":16179:16246   */\n      tag_190\n      jump\t// in\n    tag_396:\n        /* \"#utility.yul\":16172:16246   */\n      swap2\n      pop\n        /* \"#utility.yul\":16255:16348   */\n      tag_397\n        /* \"#utility.yul\":16344:16347   */\n      dup3\n        /* \"#utility.yul\":16255:16348   */\n      tag_215\n      jump\t// in\n    tag_397:\n        /* \"#utility.yul\":16373:16375   */\n      0x20\n        /* \"#utility.yul\":16368:16371   */\n      dup3\n        /* \"#utility.yul\":16364:16376   */\n      add\n        /* \"#utility.yul\":16357:16376   */\n      swap1\n      pop\n        /* \"#utility.yul\":16016:16382   */\n      swap2\n      swap1\n      pop\n      jump\t// out\n        /* \"#utility.yul\":16388:16807   */\n    tag_97:\n        /* \"#utility.yul\":16554:16558   */\n      0x00\n        /* \"#utility.yul\":16592:16594   */\n      0x20\n        /* \"#utility.yul\":16581:16590   */\n      dup3\n        /* \"#utility.yul\":16577:16595   */\n      add\n        /* \"#utility.yul\":16569:16595   */\n      swap1\n      pop\n        /* \"#utility.yul\":16641:16650   */\n      dup2\n        /* \"#utility.yul\":16635:16639   */\n      dup2\n        /* \"#utility.yul\":16631:16651   */\n      sub\n        /* \"#utility.yul\":16627:16628   */\n      0x00\n        /* \"#utility.yul\":16616:16625   */\n      dup4\n        /* \"#utility.yul\":16612:16629   */\n      add\n        /* \"#utility.yul\":16605:16652   */\n      mstore\n        /* \"#utility.yul\":16669:16800   */\n      tag_399\n        /* \"#utility.yul\":16795:16799   */\n      dup2\n        /* \"#utility.yul\":16669:16800   */\n      tag_216\n      jump\t// in\n    tag_399:\n        /* \"#utility.yul\":16661:16800   */\n      swap1\n      pop\n        /* \"#utility.yul\":16388:16807   */\n      swap2\n      swap1\n      pop\n      jump\t// out\n        /* \"#utility.yul\":16813:16993   */\n    tag_217:\n        /* \"#utility.yul\":16861:16938   */\n      0x4e487b7100000000000000000000000000000000000000000000000000000000\n        /* \"#utility.yul\":16858:16859   */\n      0x00\n        /* \"#utility.yul\":16851:16939   */\n      mstore\n        /* \"#utility.yul\":16958:16962   */\n      0x11\n        /* \"#utility.yul\":16955:16956   */\n      0x04\n        /* \"#utility.yul\":16948:16963   */\n      mstore\n        /* \"#utility.yul\":16982:16986   */\n      0x24\n        /* \"#utility.yul\":16979:16980   */\n      0x00\n        /* \"#utility.yul\":16972:16987   */\n      revert\n        /* \"#utility.yul\":16999:17193   */\n    tag_109:\n        /* \"#utility.yul\":17039:17043   */\n      0x00\n        /* \"#utility.yul\":17059:17079   */\n      tag_402\n        /* \"#utility.yul\":17077:17078   */\n      dup3\n        /* \"#utility.yul\":17059:17079   */\n      tag_185\n      jump\t// in\n    tag_402:\n        /* \"#utility.yul\":17054:17079   */\n      swap2\n      pop\n        /* \"#utility.yul\":17093:17113   */\n      tag_403\n        /* \"#utility.yul\":17111:17112   */\n      dup4\n        /* \"#utility.yul\":17093:17113   */\n      tag_185\n      jump\t// in\n    tag_403:\n        /* \"#utility.yul\":17088:17113   */\n      swap3\n      pop\n        /* \"#utility.yul\":17137:17138   */\n      dup3\n        /* \"#utility.yul\":17134:17135   */\n      dup3\n        /* \"#utility.yul\":17130:17139   */\n      sub\n        /* \"#utility.yul\":17122:17139   */\n      swap1\n      pop\n        /* \"#utility.yul\":17161:17162   */\n      dup2\n        /* \"#utility.yul\":17155:17159   */\n      dup2\n        /* \"#utility.yul\":17152:17163   */\n      gt\n        /* \"#utility.yul\":17149:17186   */\n      iszero\n      tag_404\n      jumpi\n        /* \"#utility.yul\":17166:17184   */\n      tag_405\n      tag_217\n      jump\t// in\n    tag_405:\n        /* \"#utility.yul\":17149:17186   */\n    tag_404:\n        /* \"#utility.yul\":16999:17193   */\n      swap3\n      swap2\n      pop\n      pop\n      jump\t// out\n        /* \"#utility.yul\":17199:17379   */\n    tag_117:\n        /* \"#utility.yul\":17247:17324   */\n      0x4e487b7100000000000000000000000000000000000000000000000000000000\n        /* \"#utility.yul\":17244:17245   */\n      0x00\n        /* \"#utility.yul\":17237:17325   */\n      mstore\n        /* \"#utility.yul\":17344:17348   */\n      0x32\n        /* \"#utility.yul\":17341:17342   */\n      0x04\n        /* \"#utility.yul\":17334:17349   */\n      mstore\n        /* \"#utility.yul\":17368:17372   */\n      0x24\n        /* \"#utility.yul\":17365:17366   */\n      0x00\n        /* \"#utility.yul\":17358:17373   */\n      revert\n        /* \"#utility.yul\":17385:17576   */\n    tag_119:\n        /* \"#utility.yul\":17425:17428   */\n      0x00\n        /* \"#utility.yul\":17444:17464   */\n      tag_408\n        /* \"#utility.yul\":17462:17463   */\n      dup3\n        /* \"#utility.yul\":17444:17464   */\n      tag_185\n      jump\t// in\n    tag_408:\n        /* \"#utility.yul\":17439:17464   */\n      swap2\n      pop\n        /* \"#utility.yul\":17478:17498   */\n      tag_409\n        /* \"#utility.yul\":17496:17497   */\n      dup4\n        /* \"#utility.yul\":17478:17498   */\n      tag_185\n      jump\t// in\n    tag_409:\n        /* \"#utility.yul\":17473:17498   */\n      swap3\n      pop\n        /* \"#utility.yul\":17521:17522   */\n      dup3\n        /* \"#utility.yul\":17518:17519   */\n      dup3\n        /* \"#utility.yul\":17514:17523   */\n      add\n        /* \"#utility.yul\":17507:17523   */\n      swap1\n      pop\n        /* \"#utility.yul\":17542:17545   */\n      dup1\n        /* \"#utility.yul\":17539:17540   */\n      dup3\n        /* \"#utility.yul\":17536:17546   */\n      gt\n        /* \"#utility.yul\":17533:17569   */\n      iszero\n      tag_410\n      jumpi\n        /* \"#utility.yul\":17549:17567   */\n      tag_411\n      tag_217\n      jump\t// in\n    tag_411:\n        /* \"#utility.yul\":17533:17569   */\n    tag_410:\n        /* \"#utility.yul\":17385:17576   */\n      swap3\n      swap2\n      pop\n      pop\n      jump\t// out\n        /* \"#utility.yul\":17582:17752   */\n    tag_218:\n        /* \"#utility.yul\":17722:17744   */\n      0x436f756e74206973204e6f7420446566696e6564000000000000000000000000\n        /* \"#utility.yul\":17718:17719   */\n      0x00\n        /* \"#utility.yul\":17710:17716   */\n      dup3\n        /* \"#utility.yul\":17706:17720   */\n      add\n        /* \"#utility.yul\":17699:17745   */\n      mstore\n        /* \"#utility.yul\":17582:17752   */\n      pop\n      jump\t// out\n        /* \"#utility.yul\":17758:18124   */\n    tag_219:\n        /* \"#utility.yul\":17900:17903   */\n      0x00\n        /* \"#utility.yul\":17921:17988   */\n      tag_414\n        /* \"#utility.yul\":17985:17987   */\n      0x14\n        /* \"#utility.yul\":17980:17983   */\n      dup4\n        /* \"#utility.yul\":17921:17988   */\n      tag_190\n      jump\t// in\n    tag_414:\n        /* \"#utility.yul\":17914:17988   */\n      swap2\n      pop\n        /* \"#utility.yul\":17997:18090   */\n      tag_415\n        /* \"#utility.yul\":18086:18089   */\n      dup3\n        /* \"#utility.yul\":17997:18090   */\n      tag_218\n      jump\t// in\n    tag_415:\n        /* \"#utility.yul\":18115:18117   */\n      0x20\n        /* \"#utility.yul\":18110:18113   */\n      dup3\n        /* \"#utility.yul\":18106:18118   */\n      add\n        /* \"#utility.yul\":18099:18118   */\n      swap1\n      pop\n        /* \"#utility.yul\":17758:18124   */\n      swap2\n      swap1\n      pop\n      jump\t// out\n        /* \"#utility.yul\":18130:18549   */\n    tag_144:\n        /* \"#utility.yul\":18296:18300   */\n      0x00\n        /* \"#utility.yul\":18334:18336   */\n      0x20\n        /* \"#utility.yul\":18323:18332   */\n      dup3\n        /* \"#utility.yul\":18319:18337   */\n      add\n        /* \"#utility.yul\":18311:18337   */\n      swap1\n      pop\n        /* \"#utility.yul\":18383:18392   */\n      dup2\n        /* \"#utility.yul\":18377:18381   */\n      dup2\n        /* \"#utility.yul\":18373:18393   */\n      sub\n        /* \"#utility.yul\":18369:18370   */\n      0x00\n        /* \"#utility.yul\":18358:18367   */\n      dup4\n        /* \"#utility.yul\":18354:18371   */\n      add\n        /* \"#utility.yul\":18347:18394   */\n      mstore\n        /* \"#utility.yul\":18411:18542   */\n      tag_417\n        /* \"#utility.yul\":18537:18541   */\n      dup2\n        /* \"#utility.yul\":18411:18542   */\n      tag_219\n      jump\t// in\n    tag_417:\n        /* \"#utility.yul\":18403:18542   */\n      swap1\n      pop\n        /* \"#utility.yul\":18130:18549   */\n      swap2\n      swap1\n      pop\n      jump\t// out\n        /* \"#utility.yul\":18555:18696   */\n    tag_220:\n        /* \"#utility.yul\":18604:18608   */\n      0x00\n        /* \"#utility.yul\":18627:18630   */\n      dup2\n        /* \"#utility.yul\":18619:18630   */\n      swap1\n      pop\n        /* \"#utility.yul\":18650:18653   */\n      dup2\n        /* \"#utility.yul\":18647:18648   */\n      0x00\n        /* \"#utility.yul\":18640:18654   */\n      mstore\n        /* \"#utility.yul\":18684:18688   */\n      0x20\n        /* \"#utility.yul\":18681:18682   */\n      0x00\n        /* \"#utility.yul\":18671:18689   */\n      keccak256\n        /* \"#utility.yul\":18663:18689   */\n      swap1\n      pop\n        /* \"#utility.yul\":18555:18696   */\n      swap2\n      swap1\n      pop\n      jump\t// out\n        /* \"#utility.yul\":18702:18795   */\n    tag_221:\n        /* \"#utility.yul\":18739:18745   */\n      0x00\n        /* \"#utility.yul\":18786:18788   */\n      0x20\n        /* \"#utility.yul\":18781:18783   */\n      0x1f\n        /* \"#utility.yul\":18774:18779   */\n      dup4\n        /* \"#utility.yul\":18770:18784   */\n      add\n        /* \"#utility.yul\":18766:18789   */\n      div\n        /* \"#utility.yul\":18756:18789   */\n      swap1\n      pop\n        /* \"#utility.yul\":18702:18795   */\n      swap2\n      swap1\n      pop\n      jump\t// out\n        /* \"#utility.yul\":18801:18908   */\n    tag_222:\n        /* \"#utility.yul\":18845:18853   */\n      0x00\n        /* \"#utility.yul\":18895:18900   */\n      dup3\n        /* \"#utility.yul\":18889:18893   */\n      dup3\n        /* \"#utility.yul\":18885:18901   */\n      shl\n        /* \"#utility.yul\":18864:18901   */\n      swap1\n      pop\n        /* \"#utility.yul\":18801:18908   */\n      swap3\n      swap2\n      pop\n      pop\n      jump\t// out\n        /* \"#utility.yul\":18914:19307   */\n    tag_223:\n        /* \"#utility.yul\":18983:18989   */\n      0x00\n        /* \"#utility.yul\":19033:19034   */\n      0x08\n        /* \"#utility.yul\":19021:19031   */\n      dup4\n        /* \"#utility.yul\":19017:19035   */\n      mul\n        /* \"#utility.yul\":19056:19153   */\n      tag_422\n        /* \"#utility.yul\":19086:19152   */\n      0xffffffffffffffffffffffffffffffffffffffffffffffffffffffffffffffff\n        /* \"#utility.yul\":19075:19084   */\n      dup3\n        /* \"#utility.yul\":19056:19153   */\n      tag_222\n      jump\t// in\n    tag_422:\n        /* \"#utility.yul\":19174:19213   */\n      tag_423\n        /* \"#utility.yul\":19204:19212   */\n      dup7\n        /* \"#utility.yul\":19193:19202   */\n      dup4\n        /* \"#utility.yul\":19174:19213   */\n      tag_222\n      jump\t// in\n    tag_423:\n        /* \"#utility.yul\":19162:19213   */\n      swap6\n      pop\n        /* \"#utility.yul\":19246:19250   */\n      dup1\n        /* \"#utility.yul\":19242:19251   */\n      not\n        /* \"#utility.yul\":19235:19240   */\n      dup5\n        /* \"#utility.yul\":19231:19252   */\n      and\n        /* \"#utility.yul\":19222:19252   */\n      swap4\n      pop\n        /* \"#utility.yul\":19295:19299   */\n      dup1\n        /* \"#utility.yul\":19285:19293   */\n      dup7\n        /* \"#utility.yul\":19281:19300   */\n      and\n        /* \"#utility.yul\":19274:19279   */\n      dup5\n        /* \"#utility.yul\":19271:19301   */\n      or\n        /* \"#utility.yul\":19261:19301   */\n      swap3\n      pop\n        /* \"#utility.yul\":18990:19307   */\n      pop\n      pop\n        /* \"#utility.yul\":18914:19307   */\n      swap4\n      swap3\n      pop\n      pop\n      pop\n      jump\t// out\n        /* \"#utility.yul\":19313:19373   */\n    tag_224:\n        /* \"#utility.yul\":19341:19344   */\n      0x00\n        /* \"#utility.yul\":19362:19367   */\n      dup2\n        /* \"#utility.yul\":19355:19367   */\n      swap1\n      pop\n        /* \"#utility.yul\":19313:19373   */\n      swap2\n      swap1\n      pop\n      jump\t// out\n        /* \"#utility.yul\":19379:19521   */\n    tag_225:\n        /* \"#utility.yul\":19429:19438   */\n      0x00\n        /* \"#utility.yul\":19462:19515   */\n      tag_426\n        /* \"#utility.yul\":19480:19514   */\n      tag_427\n        /* \"#utility.yul\":19489:19513   */\n      tag_428\n        /* \"#utility.yul\":19507:19512   */\n      dup5\n        /* \"#utility.yul\":19489:19513   */\n      tag_185\n      jump\t// in\n    tag_428:\n        /* \"#utility.yul\":19480:19514   */\n      tag_224\n      jump\t// in\n    tag_427:\n        /* \"#utility.yul\":19462:19515   */\n      tag_185\n      jump\t// in\n    tag_426:\n        /* \"#utility.yul\":19449:19515   */\n      swap1\n      pop\n        /* \"#utility.yul\":19379:19521   */\n      swap2\n      swap1\n      pop\n      jump\t// out\n        /* \"#utility.yul\":19527:19602   */\n    tag_226:\n        /* \"#utility.yul\":19570:19573   */\n      0x00\n        /* \"#utility.yul\":19591:19596   */\n      dup2\n        /* \"#utility.yul\":19584:19596   */\n      swap1\n      pop\n        /* \"#utility.yul\":19527:19602   */\n      swap2\n      swap1\n      pop\n      jump\t// out\n        /* \"#utility.yul\":19608:19877   */\n    tag_227:\n        /* \"#utility.yul\":19718:19757   */\n      tag_431\n        /* \"#utility.yul\":19749:19756   */\n      dup4\n        /* \"#utility.yul\":19718:19757   */\n      tag_225\n      jump\t// in\n    tag_431:\n        /* \"#utility.yul\":19779:19870   */\n      tag_432\n        /* \"#utility.yul\":19828:19869   */\n      tag_433\n        /* \"#utility.yul\":19852:19868   */\n      dup3\n        /* \"#utility.yul\":19828:19869   */\n      tag_226\n      jump\t// in\n    tag_433:\n        /* \"#utility.yul\":19820:19826   */\n      dup5\n        /* \"#utility.yul\":19813:19817   */\n      dup5\n        /* \"#utility.yul\":19807:19818   */\n      sload\n        /* \"#utility.yul\":19779:19870   */\n      tag_223\n      jump\t// in\n    tag_432:\n        /* \"#utility.yul\":19773:19777   */\n      dup3\n        /* \"#utility.yul\":19766:19871   */\n      sstore\n        /* \"#utility.yul\":19684:19877   */\n      pop\n        /* \"#utility.yul\":19608:19877   */\n      pop\n      pop\n      pop\n      jump\t// out\n        /* \"#utility.yul\":19883:19956   */\n    tag_228:\n        /* \"#utility.yul\":19928:19931   */\n      0x00\n        /* \"#utility.yul\":19949:19950   */\n      0x00\n        /* \"#utility.yul\":19942:19950   */\n      swap1\n      pop\n        /* \"#utility.yul\":19883:19956   */\n      swap1\n      jump\t// out\n        /* \"#utility.yul\":19962:20151   */\n    tag_229:\n        /* \"#utility.yul\":20039:20071   */\n      tag_436\n      tag_228\n      jump\t// in\n    tag_436:\n        /* \"#utility.yul\":20080:20145   */\n      tag_437\n        /* \"#utility.yul\":20138:20144   */\n      dup2\n        /* \"#utility.yul\":20130:20136   */\n      dup5\n        /* \"#utility.yul\":20124:20128   */\n      dup5\n        /* \"#utility.yul\":20080:20145   */\n      tag_227\n      jump\t// in\n    tag_437:\n        /* \"#utility.yul\":20015:20151   */\n      pop\n        /* \"#utility.yul\":19962:20151   */\n      pop\n      pop\n      jump\t// out\n        /* \"#utility.yul\":20157:20343   */\n    tag_230:\n        /* \"#utility.yul\":20217:20337   */\n    tag_439:\n        /* \"#utility.yul\":20234:20237   */\n      dup2\n        /* \"#utility.yul\":20227:20232   */\n      dup2\n        /* \"#utility.yul\":20224:20238   */\n      lt\n        /* \"#utility.yul\":20217:20337   */\n      iszero\n      tag_441\n      jumpi\n        /* \"#utility.yul\":20288:20327   */\n      tag_442\n        /* \"#utility.yul\":20325:20326   */\n      0x00\n        /* \"#utility.yul\":20318:20323   */\n      dup3\n        /* \"#utility.yul\":20288:20327   */\n      tag_229\n      jump\t// in\n    tag_442:\n        /* \"#utility.yul\":20261:20262   */\n      0x01\n        /* \"#utility.yul\":20254:20259   */\n      dup2\n        /* \"#utility.yul\":20250:20263   */\n      add\n        /* \"#utility.yul\":20241:20263   */\n      swap1\n      pop\n        /* \"#utility.yul\":20217:20337   */\n      jump(tag_439)\n    tag_441:\n        /* \"#utility.yul\":20157:20343   */\n      pop\n      pop\n      jump\t// out\n        /* \"#utility.yul\":20349:20892   */\n    tag_231:\n        /* \"#utility.yul\":20450:20452   */\n      0x1f\n        /* \"#utility.yul\":20445:20448   */\n      dup3\n        /* \"#utility.yul\":20442:20453   */\n      gt\n        /* \"#utility.yul\":20439:20885   */\n      iszero\n      tag_444\n      jumpi\n        /* \"#utility.yul\":20484:20522   */\n      tag_445\n        /* \"#utility.yul\":20516:20521   */\n      dup2\n        /* \"#utility.yul\":20484:20522   */\n      tag_220\n      jump\t// in\n    tag_445:\n        /* \"#utility.yul\":20568:20597   */\n      tag_446\n        /* \"#utility.yul\":20586:20596   */\n      dup5\n        /* \"#utility.yul\":20568:20597   */\n      tag_221\n      jump\t// in\n    tag_446:\n        /* \"#utility.yul\":20558:20566   */\n      dup2\n        /* \"#utility.yul\":20554:20598   */\n      add\n        /* \"#utility.yul\":20751:20753   */\n      0x20\n        /* \"#utility.yul\":20739:20749   */\n      dup6\n        /* \"#utility.yul\":20736:20754   */\n      lt\n        /* \"#utility.yul\":20733:20782   */\n      iszero\n      tag_447\n      jumpi\n        /* \"#utility.yul\":20772:20780   */\n      dup2\n        /* \"#utility.yul\":20757:20780   */\n      swap1\n      pop\n        /* \"#utility.yul\":20733:20782   */\n    tag_447:\n        /* \"#utility.yul\":20795:20875   */\n      tag_448\n        /* \"#utility.yul\":20851:20873   */\n      tag_449\n        /* \"#utility.yul\":20869:20872   */\n      dup6\n        /* \"#utility.yul\":20851:20873   */\n      tag_221\n      jump\t// in\n    tag_449:\n        /* \"#utility.yul\":20841:20849   */\n      dup4\n        /* \"#utility.yul\":20837:20874   */\n      add\n        /* \"#utility.yul\":20824:20835   */\n      dup3\n        /* \"#utility.yul\":20795:20875   */\n      tag_230\n      jump\t// in\n    tag_448:\n        /* \"#utility.yul\":20454:20885   */\n      pop\n      pop\n        /* \"#utility.yul\":20439:20885   */\n    tag_444:\n        /* \"#utility.yul\":20349:20892   */\n      pop\n      pop\n      pop\n      jump\t// out\n        /* \"#utility.yul\":20898:21015   */\n    tag_232:\n        /* \"#utility.yul\":20952:20960   */\n      0x00\n        /* \"#utility.yul\":21002:21007   */\n      dup3\n        /* \"#utility.yul\":20996:21000   */\n      dup3\n        /* \"#utility.yul\":20992:21008   */\n      shr\n        /* \"#utility.yul\":20971:21008   */\n      swap1\n      pop\n        /* \"#utility.yul\":20898:21015   */\n      swap3\n      swap2\n      pop\n      pop\n      jump\t// out\n        /* \"#utility.yul\":21021:21190   */\n    tag_233:\n        /* \"#utility.yul\":21065:21071   */\n      0x00\n        /* \"#utility.yul\":21098:21149   */\n      tag_452\n        /* \"#utility.yul\":21146:21147   */\n      0x00\n        /* \"#utility.yul\":21142:21148   */\n      not\n        /* \"#utility.yul\":21134:21139   */\n      dup5\n        /* \"#utility.yul\":21131:21132   */\n      0x08\n        /* \"#utility.yul\":21127:21140   */\n      mul\n        /* \"#utility.yul\":21098:21149   */\n      tag_232\n      jump\t// in\n    tag_452:\n        /* \"#utility.yul\":21094:21150   */\n      not\n        /* \"#utility.yul\":21179:21183   */\n      dup1\n        /* \"#utility.yul\":21173:21177   */\n      dup4\n        /* \"#utility.yul\":21169:21184   */\n      and\n        /* \"#utility.yul\":21159:21184   */\n      swap2\n      pop\n        /* \"#utility.yul\":21072:21190   */\n      pop\n        /* \"#utility.yul\":21021:21190   */\n      swap3\n      swap2\n      pop\n      pop\n      jump\t// out\n        /* \"#utility.yul\":21195:21490   */\n    tag_234:\n        /* \"#utility.yul\":21271:21275   */\n      0x00\n        /* \"#utility.yul\":21417:21446   */\n      tag_454\n        /* \"#utility.yul\":21442:21445   */\n      dup4\n        /* \"#utility.yul\":21436:21440   */\n      dup4\n        /* \"#utility.yul\":21417:21446   */\n      tag_233\n      jump\t// in\n    tag_454:\n        /* \"#utility.yul\":21409:21446   */\n      swap2\n      pop\n        /* \"#utility.yul\":21479:21482   */\n      dup3\n        /* \"#utility.yul\":21476:21477   */\n      0x02\n        /* \"#utility.yul\":21472:21483   */\n      mul\n        /* \"#utility.yul\":21466:21470   */\n      dup3\n        /* \"#utility.yul\":21463:21484   */\n      or\n        /* \"#utility.yul\":21455:21484   */\n      swap1\n      pop\n        /* \"#utility.yul\":21195:21490   */\n      swap3\n      swap2\n      pop\n      pop\n      jump\t// out\n        /* \"#utility.yul\":21495:22890   */\n    tag_170:\n        /* \"#utility.yul\":21612:21649   */\n      tag_456\n        /* \"#utility.yul\":21645:21648   */\n      dup3\n        /* \"#utility.yul\":21612:21649   */\n      tag_189\n      jump\t// in\n    tag_456:\n        /* \"#utility.yul\":21714:21732   */\n      0xffffffffffffffff\n        /* \"#utility.yul\":21706:21712   */\n      dup2\n        /* \"#utility.yul\":21703:21733   */\n      gt\n        /* \"#utility.yul\":21700:21756   */\n      iszero\n      tag_457\n      jumpi\n        /* \"#utility.yul\":21736:21754   */\n      tag_458\n      tag_100\n      jump\t// in\n    tag_458:\n        /* \"#utility.yul\":21700:21756   */\n    tag_457:\n        /* \"#utility.yul\":21780:21818   */\n      tag_459\n        /* \"#utility.yul\":21812:21816   */\n      dup3\n        /* \"#utility.yul\":21806:21817   */\n      sload\n        /* \"#utility.yul\":21780:21818   */\n      tag_86\n      jump\t// in\n    tag_459:\n        /* \"#utility.yul\":21865:21932   */\n      tag_460\n        /* \"#utility.yul\":21925:21931   */\n      dup3\n        /* \"#utility.yul\":21917:21923   */\n      dup3\n        /* \"#utility.yul\":21911:21915   */\n      dup6\n        /* \"#utility.yul\":21865:21932   */\n      tag_231\n      jump\t// in\n    tag_460:\n        /* \"#utility.yul\":21959:21960   */\n      0x00\n        /* \"#utility.yul\":21983:21987   */\n      0x20\n        /* \"#utility.yul\":21970:21987   */\n      swap1\n      pop\n        /* \"#utility.yul\":22015:22017   */\n      0x1f\n        /* \"#utility.yul\":22007:22013   */\n      dup4\n        /* \"#utility.yul\":22004:22018   */\n      gt\n        /* \"#utility.yul\":22032:22033   */\n      0x01\n        /* \"#utility.yul\":22027:22645   */\n      dup2\n      eq\n      tag_462\n      jumpi\n        /* \"#utility.yul\":22689:22690   */\n      0x00\n        /* \"#utility.yul\":22706:22712   */\n      dup5\n        /* \"#utility.yul\":22703:22780   */\n      iszero\n      tag_463\n      jumpi\n        /* \"#utility.yul\":22755:22764   */\n      dup3\n        /* \"#utility.yul\":22750:22753   */\n      dup8\n        /* \"#utility.yul\":22746:22765   */\n      add\n        /* \"#utility.yul\":22740:22766   */\n      mload\n        /* \"#utility.yul\":22731:22766   */\n      swap1\n      pop\n        /* \"#utility.yul\":22703:22780   */\n    tag_463:\n        /* \"#utility.yul\":22806:22873   */\n      tag_464\n        /* \"#utility.yul\":22866:22872   */\n      dup6\n        /* \"#utility.yul\":22859:22864   */\n      dup3\n        /* \"#utility.yul\":22806:22873   */\n      tag_234\n      jump\t// in\n    tag_464:\n        /* \"#utility.yul\":22800:22804   */\n      dup7\n        /* \"#utility.yul\":22793:22874   */\n      sstore\n        /* \"#utility.yul\":22662:22884   */\n      pop\n        /* \"#utility.yul\":21997:22884   */\n      jump(tag_461)\n        /* \"#utility.yul\":22027:22645   */\n    tag_462:\n        /* \"#utility.yul\":22079:22083   */\n      0x1f\n        /* \"#utility.yul\":22075:22084   */\n      not\n        /* \"#utility.yul\":22067:22073   */\n      dup5\n        /* \"#utility.yul\":22063:22085   */\n      and\n        /* \"#utility.yul\":22113:22150   */\n      tag_465\n        /* \"#utility.yul\":22145:22149   */\n      dup7\n        /* \"#utility.yul\":22113:22150   */\n      tag_220\n      jump\t// in\n    tag_465:\n        /* \"#utility.yul\":22172:22173   */\n      0x00\n        /* \"#utility.yul\":22186:22394   */\n    tag_466:\n        /* \"#utility.yul\":22200:22207   */\n      dup3\n        /* \"#utility.yul\":22197:22198   */\n      dup2\n        /* \"#utility.yul\":22194:22208   */\n      lt\n        /* \"#utility.yul\":22186:22394   */\n      iszero\n      tag_468\n      jumpi\n        /* \"#utility.yul\":22279:22288   */\n      dup5\n        /* \"#utility.yul\":22274:22277   */\n      dup10\n        /* \"#utility.yul\":22270:22289   */\n      add\n        /* \"#utility.yul\":22264:22290   */\n      mload\n        /* \"#utility.yul\":22256:22262   */\n      dup3\n        /* \"#utility.yul\":22249:22291   */\n      sstore\n        /* \"#utility.yul\":22330:22331   */\n      0x01\n        /* \"#utility.yul\":22322:22328   */\n      dup3\n        /* \"#utility.yul\":22318:22332   */\n      add\n        /* \"#utility.yul\":22308:22332   */\n      swap2\n      pop\n        /* \"#utility.yul\":22377:22379   */\n      0x20\n        /* \"#utility.yul\":22366:22375   */\n      dup6\n        /* \"#utility.yul\":22362:22380   */\n      add\n        /* \"#utility.yul\":22349:22380   */\n      swap5\n      pop\n        /* \"#utility.yul\":22223:22227   */\n      0x20\n        /* \"#utility.yul\":22220:22221   */\n      dup2\n        /* \"#utility.yul\":22216:22228   */\n      add\n        /* \"#utility.yul\":22211:22228   */\n      swap1\n      pop\n        /* \"#utility.yul\":22186:22394   */\n      jump(tag_466)\n    tag_468:\n        /* \"#utility.yul\":22422:22428   */\n      dup7\n        /* \"#utility.yul\":22413:22420   */\n      dup4\n        /* \"#utility.yul\":22410:22429   */\n      lt\n        /* \"#utility.yul\":22407:22586   */\n      iszero\n      tag_469\n      jumpi\n        /* \"#utility.yul\":22480:22489   */\n      dup5\n        /* \"#utility.yul\":22475:22478   */\n      dup10\n        /* \"#utility.yul\":22471:22490   */\n      add\n        /* \"#utility.yul\":22465:22491   */\n      mload\n        /* \"#utility.yul\":22523:22571   */\n      tag_470\n        /* \"#utility.yul\":22565:22569   */\n      0x1f\n        /* \"#utility.yul\":22557:22563   */\n      dup10\n        /* \"#utility.yul\":22553:22570   */\n      and\n        /* \"#utility.yul\":22542:22551   */\n      dup3\n        /* \"#utility.yul\":22523:22571   */\n      tag_233\n      jump\t// in\n    tag_470:\n        /* \"#utility.yul\":22515:22521   */\n      dup4\n        /* \"#utility.yul\":22508:22572   */\n      sstore\n        /* \"#utility.yul\":22430:22586   */\n      pop\n        /* \"#utility.yul\":22407:22586   */\n    tag_469:\n        /* \"#utility.yul\":22632:22633   */\n      0x01\n        /* \"#utility.yul\":22628:22629   */\n      0x02\n        /* \"#utility.yul\":22620:22626   */\n      dup9\n        /* \"#utility.yul\":22616:22630   */\n      mul\n        /* \"#utility.yul\":22612:22634   */\n      add\n        /* \"#utility.yul\":22606:22610   */\n      dup9\n        /* \"#utility.yul\":22599:22635   */\n      sstore\n        /* \"#utility.yul\":22034:22645   */\n      pop\n      pop\n      pop\n        /* \"#utility.yul\":21997:22884   */\n    tag_461:\n      pop\n        /* \"#utility.yul\":21587:22890   */\n      pop\n      pop\n      pop\n        /* \"#utility.yul\":21495:22890   */\n      pop\n      pop\n      jump\t// out\n        /* \"#utility.yul\":22896:23129   */\n    tag_172:\n        /* \"#utility.yul\":22935:22938   */\n      0x00\n        /* \"#utility.yul\":22958:22982   */\n      tag_472\n        /* \"#utility.yul\":22976:22981   */\n      dup3\n        /* \"#utility.yul\":22958:22982   */\n      tag_185\n      jump\t// in\n    tag_472:\n        /* \"#utility.yul\":22949:22982   */\n      swap2\n      pop\n        /* \"#utility.yul\":23004:23070   */\n      0xffffffffffffffffffffffffffffffffffffffffffffffffffffffffffffffff\n        /* \"#utility.yul\":22997:23002   */\n      dup3\n        /* \"#utility.yul\":22994:23071   */\n      sub\n        /* \"#utility.yul\":22991:23094   */\n      tag_473\n      jumpi\n        /* \"#utility.yul\":23074:23092   */\n      tag_474\n      tag_217\n      jump\t// in\n    tag_474:\n        /* \"#utility.yul\":22991:23094   */\n    tag_473:\n        /* \"#utility.yul\":23121:23122   */\n      0x01\n        /* \"#utility.yul\":23114:23119   */\n      dup3\n        /* \"#utility.yul\":23110:23123   */\n      add\n        /* \"#utility.yul\":23103:23123   */\n      swap1\n      pop\n        /* \"#utility.yul\":22896:23129   */\n      swap2\n      swap1\n      pop\n      jump\t// out\n\n    auxdata: 0xa264697066735822122056f0719491bd1d07efb57ca88af9f835c12ca1d47da8e87c9ea4c1ff935f2cb764736f6c634300081e0033\n}\n",
				"bytecode": {
					"linkReferences": {},
					"object": "6080604052348015600e575f5ffd5b50611ae78061001c5f395ff3fe608060405234801561000f575f5ffd5b50600436106100e8575f3560e01c8063c48d6d5e1161008a578063dce9e0f311610064578063dce9e0f31461026c578063e8d857b01461029c578063fb46d4c5146102cf578063ff9913e8146102eb576100e8565b8063c48d6d5e14610218578063cf8aacdd14610234578063d21d159614610250576100e8565b80634dc0a687116100c65780634dc0a6871461016c5780639139cda51461019c578063af22bf94146101cc578063b88e318d146101fc576100e8565b80632637588e146100ec5780633befea091461011c5780634dbf27cc14610150575b5f5ffd5b61010660048036038101906101019190610f40565b610307565b6040516101139190610f98565b60405180910390f35b61013660048036038101906101319190610fe4565b610331565b6040516101479594939291906110b0565b60405180910390f35b61016a60048036038101906101659190611108565b610441565b005b61018660048036038101906101819190611133565b6104df565b60405161019391906112df565b60405180910390f35b6101b660048036038101906101b19190610fe4565b6106e9565b6040516101c391906112ff565b60405180910390f35b6101e660048036038101906101e19190610fe4565b610731565b6040516101f39190611318565b60405180910390f35b6102166004803603810190610211919061145d565b61075c565b005b610232600480360381019061022d91906114c9565b61076c565b005b61024e60048036038101906102499190611108565b61077b565b005b61026a60048036038101906102659190611523565b61080d565b005b61028660048036038101906102819190610fe4565b61081b565b60405161029391906112df565b60405180910390f35b6102b660048036038101906102b19190611133565b610acb565b6040516102c6949392919061157d565b60405180910390f35b6102e960048036038101906102e491906115c7565b610b9b565b005b61030560048036038101906103009190611108565b610ba8565b005b6003602052815f5260405f20602052805f5260405f205f915091509054906101000a900460ff1681565b6002602052815f5260405f20818154811061034a575f80fd5b905f5260205f2090600502015f9150915050805f0154908060010180546103709061163b565b80601f016020809104026020016040519081016040528092919081815260200182805461039c9061163b565b80156103e75780601f106103be576101008083540402835291602001916103e7565b820191905f5260205f20905b8154815290600101906020018083116103ca57829003601f168201915b505050505090806002015f9054906101000a900473ffffffffffffffffffffffffffffffffffffffff1690806003015f9054906101000a900473ffffffffffffffffffffffffffffffffffffffff16908060040154905085565b60045f3373ffffffffffffffffffffffffffffffffffffffff1673ffffffffffffffffffffffffffffffffffffffff1681526020019081526020015f2081908060018154018082558091505060019003905f5260205f20015f9091909190916101000a81548173ffffffffffffffffffffffffffffffffffffffff021916908373ffffffffffffffffffffffffffffffffffffffff16021790555050565b60605f821180156104f257506005548211155b610531576040517f08c379a0000000000000000000000000000000000000000000000000000000008152600401610528906116b5565b60405180910390fd5b5f8267ffffffffffffffff81111561054c5761054b611339565b5b60405190808252806020026020018201604052801561058557816020015b610572610e9a565b81526020019060019003908161056a5790505b5090505f5f846005546105989190611700565b90505b6005548110156106de575f5f5f8381526020019081526020015f2090506040518060800160405280825f01548152602001826001015f9054906101000a900473ffffffffffffffffffffffffffffffffffffffff1673ffffffffffffffffffffffffffffffffffffffff16815260200182600201805461061a9061163b565b80601f01602080910402602001604051908101604052809291908181526020018280546106469061163b565b80156106915780601f1061066857610100808354040283529160200191610691565b820191905f5260205f20905b81548152906001019060200180831161067457829003601f168201915b5050505050815260200182600301548152508484815181106106b6576106b5611733565b5b60200260200101819052506001836106ce9190611760565b925050808060010191505061059b565b508192505050919050565b6004602052815f5260405f208181548110610702575f80fd5b905f5260205f20015f915091509054906101000a900473ffffffffffffffffffffffffffffffffffffffff1681565b6001602052815f5260405f20818154811061074a575f80fd5b905f5260205f20015f91509150505481565b610767838383610c3b565b505050565b610777338284610c3b565b5050565b5f60035f3373ffffffffffffffffffffffffffffffffffffffff1673ffffffffffffffffffffffffffffffffffffffff1681526020019081526020015f205f8373ffffffffffffffffffffffffffffffffffffffff1673ffffffffffffffffffffffffffffffffffffffff1681526020019081526020015f205f6101000a81548160ff02191690831515021790555050565b6108178282610dc5565b5050565b60605f8267ffffffffffffffff81111561083857610837611339565b5b60405190808252806020026020018201604052801561087157816020015b61085e610e9a565b8152602001906001900390816108565790505b5090505f60015f8673ffffffffffffffffffffffffffffffffffffffff1673ffffffffffffffffffffffffffffffffffffffff1681526020019081526020015f208054806020026020016040519081016040528092919081815260200182805480156108fa57602002820191905f5260205f20905b8154815260200190600101908083116108e6575b505050505090505f84118015610911575080518411155b610950576040517f08c379a0000000000000000000000000000000000000000000000000000000008152600401610947906117dd565b60405180910390fd5b5f5f85835161095f9190611700565b90505b8251811015610abe575f5f5f85848151811061098157610980611733565b5b602002602001015181526020019081526020015f2090506040518060800160405280825f01548152602001826001015f9054906101000a900473ffffffffffffffffffffffffffffffffffffffff1673ffffffffffffffffffffffffffffffffffffffff1681526020018260020180546109fa9061163b565b80601f0160208091040260200160405190810160405280929190818152602001828054610a269061163b565b8015610a715780601f10610a4857610100808354040283529160200191610a71565b820191905f5260205f20905b815481529060010190602001808311610a5457829003601f168201915b505050505081526020018260030154815250858481518110610a9657610a95611733565b5b6020026020010181905250600183610aae9190611760565b9250508080600101915050610962565b5082935050505092915050565b5f602052805f5260405f205f91509050805f015490806001015f9054906101000a900473ffffffffffffffffffffffffffffffffffffffff1690806002018054610b149061163b565b80601f0160208091040260200160405190810160405280929190818152602001828054610b409061163b565b8015610b8b5780601f10610b6257610100808354040283529160200191610b8b565b820191905f5260205f20905b815481529060010190602001808311610b6e57829003601f168201915b5050505050908060030154905084565b610ba53382610dc5565b50565b600160035f3373ffffffffffffffffffffffffffffffffffffffff1673ffffffffffffffffffffffffffffffffffffffff1681526020019081526020015f205f8373ffffffffffffffffffffffffffffffffffffffff1673ffffffffffffffffffffffffffffffffffffffff1681526020019081526020015f205f6101000a81548160ff02191690831515021790555050565b60025f8473ffffffffffffffffffffffffffffffffffffffff1673ffffffffffffffffffffffffffffffffffffffff1681526020019081526020015f206040518060a0016040528060065481526020018381526020018573ffffffffffffffffffffffffffffffffffffffff1681526020018473ffffffffffffffffffffffffffffffffffffffff16815260200142815250908060018154018082558091505060019003905f5260205f2090600502015f909190919091505f820151815f01556020820151816001019081610d10919061199b565b506040820151816002015f6101000a81548173ffffffffffffffffffffffffffffffffffffffff021916908373ffffffffffffffffffffffffffffffffffffffff1602179055506060820151816003015f6101000a81548173ffffffffffffffffffffffffffffffffffffffff021916908373ffffffffffffffffffffffffffffffffffffffff16021790555060808201518160040155505060065f815480929190610dbb90611a6a565b9190505550505050565b604051806080016040528060055481526020018373ffffffffffffffffffffffffffffffffffffffff168152602001828152602001428152505f5f60055481526020019081526020015f205f820151815f01556020820151816001015f6101000a81548173ffffffffffffffffffffffffffffffffffffffff021916908373ffffffffffffffffffffffffffffffffffffffff1602179055506040820151816002019081610e73919061199b565b50606082015181600301559050506001600554610e909190611760565b6005819055505050565b60405180608001604052805f81526020015f73ffffffffffffffffffffffffffffffffffffffff168152602001606081526020015f81525090565b5f604051905090565b5f5ffd5b5f5ffd5b5f73ffffffffffffffffffffffffffffffffffffffff82169050919050565b5f610f0f82610ee6565b9050919050565b610f1f81610f05565b8114610f29575f5ffd5b50565b5f81359050610f3a81610f16565b92915050565b5f5f60408385031215610f5657610f55610ede565b5b5f610f6385828601610f2c565b9250506020610f7485828601610f2c565b9150509250929050565b5f8115159050919050565b610f9281610f7e565b82525050565b5f602082019050610fab5f830184610f89565b92915050565b5f819050919050565b610fc381610fb1565b8114610fcd575f5ffd5b50565b5f81359050610fde81610fba565b92915050565b5f5f60408385031215610ffa57610ff9610ede565b5b5f61100785828601610f2c565b925050602061101885828601610fd0565b9150509250929050565b61102b81610fb1565b82525050565b5f81519050919050565b5f82825260208201905092915050565b8281835e5f83830152505050565b5f601f19601f8301169050919050565b5f61107382611031565b61107d818561103b565b935061108d81856020860161104b565b61109681611059565b840191505092915050565b6110aa81610f05565b82525050565b5f60a0820190506110c35f830188611022565b81810360208301526110d58187611069565b90506110e460408301866110a1565b6110f160608301856110a1565b6110fe6080830184611022565b9695505050505050565b5f6020828403121561111d5761111c610ede565b5b5f61112a84828501610f2c565b91505092915050565b5f6020828403121561114857611147610ede565b5b5f61115584828501610fd0565b91505092915050565b5f81519050919050565b5f82825260208201905092915050565b5f819050602082019050919050565b61119081610fb1565b82525050565b61119f81610f05565b82525050565b5f82825260208201905092915050565b5f6111bf82611031565b6111c981856111a5565b93506111d981856020860161104b565b6111e281611059565b840191505092915050565b5f608083015f8301516112025f860182611187565b5060208301516112156020860182611196565b506040830151848203604086015261122d82826111b5565b91505060608301516112426060860182611187565b508091505092915050565b5f61125883836111ed565b905092915050565b5f602082019050919050565b5f6112768261115e565b6112808185611168565b93508360208202850161129285611178565b805f5b858110156112cd57848403895281516112ae858261124d565b94506112b983611260565b925060208a01995050600181019050611295565b50829750879550505050505092915050565b5f6020820190508181035f8301526112f7818461126c565b905092915050565b5f6020820190506113125f8301846110a1565b92915050565b5f60208201905061132b5f830184611022565b92915050565b5f5ffd5b5f5ffd5b7f4e487b71000000000000000000000000000000000000000000000000000000005f52604160045260245ffd5b61136f82611059565b810181811067ffffffffffffffff8211171561138e5761138d611339565b5b80604052505050565b5f6113a0610ed5565b90506113ac8282611366565b919050565b5f67ffffffffffffffff8211156113cb576113ca611339565b5b6113d482611059565b9050602081019050919050565b828183375f83830152505050565b5f6114016113fc846113b1565b611397565b90508281526020810184848401111561141d5761141c611335565b5b6114288482856113e1565b509392505050565b5f82601f83011261144457611443611331565b5b81356114548482602086016113ef565b91505092915050565b5f5f5f6060848603121561147457611473610ede565b5b5f61148186828701610f2c565b935050602061149286828701610f2c565b925050604084013567ffffffffffffffff8111156114b3576114b2610ee2565b5b6114bf86828701611430565b9150509250925092565b5f5f604083850312156114df576114de610ede565b5b5f83013567ffffffffffffffff8111156114fc576114fb610ee2565b5b61150885828601611430565b925050602061151985828601610f2c565b9150509250929050565b5f5f6040838503121561153957611538610ede565b5b5f61154685828601610f2c565b925050602083013567ffffffffffffffff81111561156757611566610ee2565b5b61157385828601611430565b9150509250929050565b5f6080820190506115905f830187611022565b61159d60208301866110a1565b81810360408301526115af8185611069565b90506115be6060830184611022565b95945050505050565b5f602082840312156115dc576115db610ede565b5b5f82013567ffffffffffffffff8111156115f9576115f8610ee2565b5b61160584828501611430565b91505092915050565b7f4e487b71000000000000000000000000000000000000000000000000000000005f52602260045260245ffd5b5f600282049050600182168061165257607f821691505b6020821081036116655761166461160e565b5b50919050565b7f436f756e74206973204e6f742050726f706572000000000000000000000000005f82015250565b5f61169f60138361103b565b91506116aa8261166b565b602082019050919050565b5f6020820190508181035f8301526116cc81611693565b9050919050565b7f4e487b71000000000000000000000000000000000000000000000000000000005f52601160045260245ffd5b5f61170a82610fb1565b915061171583610fb1565b925082820390508181111561172d5761172c6116d3565b5b92915050565b7f4e487b71000000000000000000000000000000000000000000000000000000005f52603260045260245ffd5b5f61176a82610fb1565b915061177583610fb1565b925082820190508082111561178d5761178c6116d3565b5b92915050565b7f436f756e74206973204e6f7420446566696e65640000000000000000000000005f82015250565b5f6117c760148361103b565b91506117d282611793565b602082019050919050565b5f6020820190508181035f8301526117f4816117bb565b9050919050565b5f819050815f5260205f209050919050565b5f6020601f8301049050919050565b5f82821b905092915050565b5f600883026118577fffffffffffffffffffffffffffffffffffffffffffffffffffffffffffffffff8261181c565b611861868361181c565b95508019841693508086168417925050509392505050565b5f819050919050565b5f61189c61189761189284610fb1565b611879565b610fb1565b9050919050565b5f819050919050565b6118b583611882565b6118c96118c1826118a3565b848454611828565b825550505050565b5f5f905090565b6118e06118d1565b6118eb8184846118ac565b505050565b5b8181101561190e576119035f826118d8565b6001810190506118f1565b5050565b601f82111561195357611924816117fb565b61192d8461180d565b8101602085101561193c578190505b6119506119488561180d565b8301826118f0565b50505b505050565b5f82821c905092915050565b5f6119735f1984600802611958565b1980831691505092915050565b5f61198b8383611964565b9150826002028217905092915050565b6119a482611031565b67ffffffffffffffff8111156119bd576119bc611339565b5b6119c7825461163b565b6119d2828285611912565b5f60209050601f831160018114611a03575f84156119f1578287015190505b6119fb8582611980565b865550611a62565b601f198416611a11866117fb565b5f5b82811015611a3857848901518255600182019150602085019450602081019050611a13565b86831015611a555784890151611a51601f891682611964565b8355505b6001600288020188555050505b505050505050565b5f611a7482610fb1565b91507fffffffffffffffffffffffffffffffffffffffffffffffffffffffffffffffff8203611aa657611aa56116d3565b5b60018201905091905056fea264697066735822122056f0719491bd1d07efb57ca88af9f835c12ca1d47da8e87c9ea4c1ff935f2cb764736f6c634300081e0033",
					"opcodes": "PUSH1 0x80 PUSH1 0x40 MSTORE CALLVALUE DUP1 ISZERO PUSH1 0xE JUMPI PUSH0 PUSH0 REVERT JUMPDEST POP PUSH2 0x1AE7 DUP1 PUSH2 0x1C PUSH0 CODECOPY PUSH0 RETURN INVALID PUSH1 0x80 PUSH1 0x40 MSTORE CALLVALUE DUP1 ISZERO PUSH2 0xF JUMPI PUSH0 PUSH0 REVERT JUMPDEST POP PUSH1 0x4 CALLDATASIZE LT PUSH2 0xE8 JUMPI PUSH0 CALLDATALOAD PUSH1 0xE0 SHR DUP1 PUSH4 0xC48D6D5E GT PUSH2 0x8A JUMPI DUP1 PUSH4 0xDCE9E0F3 GT PUSH2 0x64 JUMPI DUP1 PUSH4 0xDCE9E0F3 EQ PUSH2 0x26C JUMPI DUP1 PUSH4 0xE8D857B0 EQ PUSH2 0x29C JUMPI DUP1 PUSH4 0xFB46D4C5 EQ PUSH2 0x2CF JUMPI DUP1 PUSH4 0xFF9913E8 EQ PUSH2 0x2EB JUMPI PUSH2 0xE8 JUMP JUMPDEST DUP1 PUSH4 0xC48D6D5E EQ PUSH2 0x218 JUMPI DUP1 PUSH4 0xCF8AACDD EQ PUSH2 0x234 JUMPI DUP1 PUSH4 0xD21D1596 EQ PUSH2 0x250 JUMPI PUSH2 0xE8 JUMP JUMPDEST DUP1 PUSH4 0x4DC0A687 GT PUSH2 0xC6 JUMPI DUP1 PUSH4 0x4DC0A687 EQ PUSH2 0x16C JUMPI DUP1 PUSH4 0x9139CDA5 EQ PUSH2 0x19C JUMPI DUP1 PUSH4 0xAF22BF94 EQ PUSH2 0x1CC JUMPI DUP1 PUSH4 0xB88E318D EQ PUSH2 0x1FC JUMPI PUSH2 0xE8 JUMP JUMPDEST DUP1 PUSH4 0x2637588E EQ PUSH2 0xEC JUMPI DUP1 PUSH4 0x3BEFEA09 EQ PUSH2 0x11C JUMPI DUP1 PUSH4 0x4DBF27CC EQ PUSH2 0x150 JUMPI JUMPDEST PUSH0 PUSH0 REVERT JUMPDEST PUSH2 0x106 PUSH1 0x4 DUP1 CALLDATASIZE SUB DUP2 ADD SWAP1 PUSH2 0x101 SWAP2 SWAP1 PUSH2 0xF40 JUMP JUMPDEST PUSH2 0x307 JUMP JUMPDEST PUSH1 0x40 MLOAD PUSH2 0x113 SWAP2 SWAP1 PUSH2 0xF98 JUMP JUMPDEST PUSH1 0x40 MLOAD DUP1 SWAP2 SUB SWAP1 RETURN JUMPDEST PUSH2 0x136 PUSH1 0x4 DUP1 CALLDATASIZE SUB DUP2 ADD SWAP1 PUSH2 0x131 SWAP2 SWAP1 PUSH2 0xFE4 JUMP JUMPDEST PUSH2 0x331 JUMP JUMPDEST PUSH1 0x40 MLOAD PUSH2 0x147 SWAP6 SWAP5 SWAP4 SWAP3 SWAP2 SWAP1 PUSH2 0x10B0 JUMP JUMPDEST PUSH1 0x40 MLOAD DUP1 SWAP2 SUB SWAP1 RETURN JUMPDEST PUSH2 0x16A PUSH1 0x4 DUP1 CALLDATASIZE SUB DUP2 ADD SWAP1 PUSH2 0x165 SWAP2 SWAP1 PUSH2 0x1108 JUMP JUMPDEST PUSH2 0x441 JUMP JUMPDEST STOP JUMPDEST PUSH2 0x186 PUSH1 0x4 DUP1 CALLDATASIZE SUB DUP2 ADD SWAP1 PUSH2 0x181 SWAP2 SWAP1 PUSH2 0x1133 JUMP JUMPDEST PUSH2 0x4DF JUMP JUMPDEST PUSH1 0x40 MLOAD PUSH2 0x193 SWAP2 SWAP1 PUSH2 0x12DF JUMP JUMPDEST PUSH1 0x40 MLOAD DUP1 SWAP2 SUB SWAP1 RETURN JUMPDEST PUSH2 0x1B6 PUSH1 0x4 DUP1 CALLDATASIZE SUB DUP2 ADD SWAP1 PUSH2 0x1B1 SWAP2 SWAP1 PUSH2 0xFE4 JUMP JUMPDEST PUSH2 0x6E9 JUMP JUMPDEST PUSH1 0x40 MLOAD PUSH2 0x1C3 SWAP2 SWAP1 PUSH2 0x12FF JUMP JUMPDEST PUSH1 0x40 MLOAD DUP1 SWAP2 SUB SWAP1 RETURN JUMPDEST PUSH2 0x1E6 PUSH1 0x4 DUP1 CALLDATASIZE SUB DUP2 ADD SWAP1 PUSH2 0x1E1 SWAP2 SWAP1 PUSH2 0xFE4 JUMP JUMPDEST PUSH2 0x731 JUMP JUMPDEST PUSH1 0x40 MLOAD PUSH2 0x1F3 SWAP2 SWAP1 PUSH2 0x1318 JUMP JUMPDEST PUSH1 0x40 MLOAD DUP1 SWAP2 SUB SWAP1 RETURN JUMPDEST PUSH2 0x216 PUSH1 0x4 DUP1 CALLDATASIZE SUB DUP2 ADD SWAP1 PUSH2 0x211 SWAP2 SWAP1 PUSH2 0x145D JUMP JUMPDEST PUSH2 0x75C JUMP JUMPDEST STOP JUMPDEST PUSH2 0x232 PUSH1 0x4 DUP1 CALLDATASIZE SUB DUP2 ADD SWAP1 PUSH2 0x22D SWAP2 SWAP1 PUSH2 0x14C9 JUMP JUMPDEST PUSH2 0x76C JUMP JUMPDEST STOP JUMPDEST PUSH2 0x24E PUSH1 0x4 DUP1 CALLDATASIZE SUB DUP2 ADD SWAP1 PUSH2 0x249 SWAP2 SWAP1 PUSH2 0x1108 JUMP JUMPDEST PUSH2 0x77B JUMP JUMPDEST STOP JUMPDEST PUSH2 0x26A PUSH1 0x4 DUP1 CALLDATASIZE SUB DUP2 ADD SWAP1 PUSH2 0x265 SWAP2 SWAP1 PUSH2 0x1523 JUMP JUMPDEST PUSH2 0x80D JUMP JUMPDEST STOP JUMPDEST PUSH2 0x286 PUSH1 0x4 DUP1 CALLDATASIZE SUB DUP2 ADD SWAP1 PUSH2 0x281 SWAP2 SWAP1 PUSH2 0xFE4 JUMP JUMPDEST PUSH2 0x81B JUMP JUMPDEST PUSH1 0x40 MLOAD PUSH2 0x293 SWAP2 SWAP1 PUSH2 0x12DF JUMP JUMPDEST PUSH1 0x40 MLOAD DUP1 SWAP2 SUB SWAP1 RETURN JUMPDEST PUSH2 0x2B6 PUSH1 0x4 DUP1 CALLDATASIZE SUB DUP2 ADD SWAP1 PUSH2 0x2B1 SWAP2 SWAP1 PUSH2 0x1133 JUMP JUMPDEST PUSH2 0xACB JUMP JUMPDEST PUSH1 0x40 MLOAD PUSH2 0x2C6 SWAP5 SWAP4 SWAP3 SWAP2 SWAP1 PUSH2 0x157D JUMP JUMPDEST PUSH1 0x40 MLOAD DUP1 SWAP2 SUB SWAP1 RETURN JUMPDEST PUSH2 0x2E9 PUSH1 0x4 DUP1 CALLDATASIZE SUB DUP2 ADD SWAP1 PUSH2 0x2E4 SWAP2 SWAP1 PUSH2 0x15C7 JUMP JUMPDEST PUSH2 0xB9B JUMP JUMPDEST STOP JUMPDEST PUSH2 0x305 PUSH1 0x4 DUP1 CALLDATASIZE SUB DUP2 ADD SWAP1 PUSH2 0x300 SWAP2 SWAP1 PUSH2 0x1108 JUMP JUMPDEST PUSH2 0xBA8 JUMP JUMPDEST STOP JUMPDEST PUSH1 0x3 PUSH1 0x20 MSTORE DUP2 PUSH0 MSTORE PUSH1 0x40 PUSH0 KECCAK256 PUSH1 0x20 MSTORE DUP1 PUSH0 MSTORE PUSH1 0x40 PUSH0 KECCAK256 PUSH0 SWAP2 POP SWAP2 POP SWAP1 SLOAD SWAP1 PUSH2 0x100 EXP SWAP1 DIV PUSH1 0xFF AND DUP2 JUMP JUMPDEST PUSH1 0x2 PUSH1 0x20 MSTORE DUP2 PUSH0 MSTORE PUSH1 0x40 PUSH0 KECCAK256 DUP2 DUP2 SLOAD DUP2 LT PUSH2 0x34A JUMPI PUSH0 DUP1 REVERT JUMPDEST SWAP1 PUSH0 MSTORE PUSH1 0x20 PUSH0 KECCAK256 SWAP1 PUSH1 0x5 MUL ADD PUSH0 SWAP2 POP SWAP2 POP POP DUP1 PUSH0 ADD SLOAD SWAP1 DUP1 PUSH1 0x1 ADD DUP1 SLOAD PUSH2 0x370 SWAP1 PUSH2 0x163B JUMP JUMPDEST DUP1 PUSH1 0x1F ADD PUSH1 0x20 DUP1 SWAP2 DIV MUL PUSH1 0x20 ADD PUSH1 0x40 MLOAD SWAP1 DUP2 ADD PUSH1 0x40 MSTORE DUP1 SWAP3 SWAP2 SWAP1 DUP2 DUP2 MSTORE PUSH1 0x20 ADD DUP3 DUP1 SLOAD PUSH2 0x39C SWAP1 PUSH2 0x163B JUMP JUMPDEST DUP1 ISZERO PUSH2 0x3E7 JUMPI DUP1 PUSH1 0x1F LT PUSH2 0x3BE JUMPI PUSH2 0x100 DUP1 DUP4 SLOAD DIV MUL DUP4 MSTORE SWAP2 PUSH1 0x20 ADD SWAP2 PUSH2 0x3E7 JUMP JUMPDEST DUP3 ADD SWAP2 SWAP1 PUSH0 MSTORE PUSH1 0x20 PUSH0 KECCAK256 SWAP1 JUMPDEST DUP2 SLOAD DUP2 MSTORE SWAP1 PUSH1 0x1 ADD SWAP1 PUSH1 0x20 ADD DUP1 DUP4 GT PUSH2 0x3CA JUMPI DUP3 SWAP1 SUB PUSH1 0x1F AND DUP3 ADD SWAP2 JUMPDEST POP POP POP POP POP SWAP1 DUP1 PUSH1 0x2 ADD PUSH0 SWAP1 SLOAD SWAP1 PUSH2 0x100 EXP SWAP1 DIV PUSH20 0xFFFFFFFFFFFFFFFFFFFFFFFFFFFFFFFFFFFFFFFF AND SWAP1 DUP1 PUSH1 0x3 ADD PUSH0 SWAP1 SLOAD SWAP1 PUSH2 0x100 EXP SWAP1 DIV PUSH20 0xFFFFFFFFFFFFFFFFFFFFFFFFFFFFFFFFFFFFFFFF AND SWAP1 DUP1 PUSH1 0x4 ADD SLOAD SWAP1 POP DUP6 JUMP JUMPDEST PUSH1 0x4 PUSH0 CALLER PUSH20 0xFFFFFFFFFFFFFFFFFFFFFFFFFFFFFFFFFFFFFFFF AND PUSH20 0xFFFFFFFFFFFFFFFFFFFFFFFFFFFFFFFFFFFFFFFF AND DUP2 MSTORE PUSH1 0x20 ADD SWAP1 DUP2 MSTORE PUSH1 0x20 ADD PUSH0 KECCAK256 DUP2 SWAP1 DUP1 PUSH1 0x1 DUP2 SLOAD ADD DUP1 DUP3 SSTORE DUP1 SWAP2 POP POP PUSH1 0x1 SWAP1 SUB SWAP1 PUSH0 MSTORE PUSH1 0x20 PUSH0 KECCAK256 ADD PUSH0 SWAP1 SWAP2 SWAP1 SWAP2 SWAP1 SWAP2 PUSH2 0x100 EXP DUP2 SLOAD DUP2 PUSH20 0xFFFFFFFFFFFFFFFFFFFFFFFFFFFFFFFFFFFFFFFF MUL NOT AND SWAP1 DUP4 PUSH20 0xFFFFFFFFFFFFFFFFFFFFFFFFFFFFFFFFFFFFFFFF AND MUL OR SWAP1 SSTORE POP POP JUMP JUMPDEST PUSH1 0x60 PUSH0 DUP3 GT DUP1 ISZERO PUSH2 0x4F2 JUMPI POP PUSH1 0x5 SLOAD DUP3 GT ISZERO JUMPDEST PUSH2 0x531 JUMPI PUSH1 0x40 MLOAD PUSH32 0x8C379A000000000000000000000000000000000000000000000000000000000 DUP2 MSTORE PUSH1 0x4 ADD PUSH2 0x528 SWAP1 PUSH2 0x16B5 JUMP JUMPDEST PUSH1 0x40 MLOAD DUP1 SWAP2 SUB SWAP1 REVERT JUMPDEST PUSH0 DUP3 PUSH8 0xFFFFFFFFFFFFFFFF DUP2 GT ISZERO PUSH2 0x54C JUMPI PUSH2 0x54B PUSH2 0x1339 JUMP JUMPDEST JUMPDEST PUSH1 0x40 MLOAD SWAP1 DUP1 DUP3 MSTORE DUP1 PUSH1 0x20 MUL PUSH1 0x20 ADD DUP3 ADD PUSH1 0x40 MSTORE DUP1 ISZERO PUSH2 0x585 JUMPI DUP2 PUSH1 0x20 ADD JUMPDEST PUSH2 0x572 PUSH2 0xE9A JUMP JUMPDEST DUP2 MSTORE PUSH1 0x20 ADD SWAP1 PUSH1 0x1 SWAP1 SUB SWAP1 DUP2 PUSH2 0x56A JUMPI SWAP1 POP JUMPDEST POP SWAP1 POP PUSH0 PUSH0 DUP5 PUSH1 0x5 SLOAD PUSH2 0x598 SWAP2 SWAP1 PUSH2 0x1700 JUMP JUMPDEST SWAP1 POP JUMPDEST PUSH1 0x5 SLOAD DUP2 LT ISZERO PUSH2 0x6DE JUMPI PUSH0 PUSH0 PUSH0 DUP4 DUP2 MSTORE PUSH1 0x20 ADD SWAP1 DUP2 MSTORE PUSH1 0x20 ADD PUSH0 KECCAK256 SWAP1 POP PUSH1 0x40 MLOAD DUP1 PUSH1 0x80 ADD PUSH1 0x40 MSTORE DUP1 DUP3 PUSH0 ADD SLOAD DUP2 MSTORE PUSH1 0x20 ADD DUP3 PUSH1 0x1 ADD PUSH0 SWAP1 SLOAD SWAP1 PUSH2 0x100 EXP SWAP1 DIV PUSH20 0xFFFFFFFFFFFFFFFFFFFFFFFFFFFFFFFFFFFFFFFF AND PUSH20 0xFFFFFFFFFFFFFFFFFFFFFFFFFFFFFFFFFFFFFFFF AND DUP2 MSTORE PUSH1 0x20 ADD DUP3 PUSH1 0x2 ADD DUP1 SLOAD PUSH2 0x61A SWAP1 PUSH2 0x163B JUMP JUMPDEST DUP1 PUSH1 0x1F ADD PUSH1 0x20 DUP1 SWAP2 DIV MUL PUSH1 0x20 ADD PUSH1 0x40 MLOAD SWAP1 DUP2 ADD PUSH1 0x40 MSTORE DUP1 SWAP3 SWAP2 SWAP1 DUP2 DUP2 MSTORE PUSH1 0x20 ADD DUP3 DUP1 SLOAD PUSH2 0x646 SWAP1 PUSH2 0x163B JUMP JUMPDEST DUP1 ISZERO PUSH2 0x691 JUMPI DUP1 PUSH1 0x1F LT PUSH2 0x668 JUMPI PUSH2 0x100 DUP1 DUP4 SLOAD DIV MUL DUP4 MSTORE SWAP2 PUSH1 0x20 ADD SWAP2 PUSH2 0x691 JUMP JUMPDEST DUP3 ADD SWAP2 SWAP1 PUSH0 MSTORE PUSH1 0x20 PUSH0 KECCAK256 SWAP1 JUMPDEST DUP2 SLOAD DUP2 MSTORE SWAP1 PUSH1 0x1 ADD SWAP1 PUSH1 0x20 ADD DUP1 DUP4 GT PUSH2 0x674 JUMPI DUP3 SWAP1 SUB PUSH1 0x1F AND DUP3 ADD SWAP2 JUMPDEST POP POP POP POP POP DUP2 MSTORE PUSH1 0x20 ADD DUP3 PUSH1 0x3 ADD SLOAD DUP2 MSTORE POP DUP5 DUP5 DUP2 MLOAD DUP2 LT PUSH2 0x6B6 JUMPI PUSH2 0x6B5 PUSH2 0x1733 JUMP JUMPDEST JUMPDEST PUSH1 0x20 MUL PUSH1 0x20 ADD ADD DUP2 SWAP1 MSTORE POP PUSH1 0x1 DUP4 PUSH2 0x6CE SWAP2 SWAP1 PUSH2 0x1760 JUMP JUMPDEST SWAP3 POP POP DUP1 DUP1 PUSH1 0x1 ADD SWAP2 POP POP PUSH2 0x59B JUMP JUMPDEST POP DUP2 SWAP3 POP POP POP SWAP2 SWAP1 POP JUMP JUMPDEST PUSH1 0x4 PUSH1 0x20 MSTORE DUP2 PUSH0 MSTORE PUSH1 0x40 PUSH0 KECCAK256 DUP2 DUP2 SLOAD DUP2 LT PUSH2 0x702 JUMPI PUSH0 DUP1 REVERT JUMPDEST SWAP1 PUSH0 MSTORE PUSH1 0x20 PUSH0 KECCAK256 ADD PUSH0 SWAP2 POP SWAP2 POP SWAP1 SLOAD SWAP1 PUSH2 0x100 EXP SWAP1 DIV PUSH20 0xFFFFFFFFFFFFFFFFFFFFFFFFFFFFFFFFFFFFFFFF AND DUP2 JUMP JUMPDEST PUSH1 0x1 PUSH1 0x20 MSTORE DUP2 PUSH0 MSTORE PUSH1 0x40 PUSH0 KECCAK256 DUP2 DUP2 SLOAD DUP2 LT PUSH2 0x74A JUMPI PUSH0 DUP1 REVERT JUMPDEST SWAP1 PUSH0 MSTORE PUSH1 0x20 PUSH0 KECCAK256 ADD PUSH0 SWAP2 POP SWAP2 POP POP SLOAD DUP2 JUMP JUMPDEST PUSH2 0x767 DUP4 DUP4 DUP4 PUSH2 0xC3B JUMP JUMPDEST POP POP POP JUMP JUMPDEST PUSH2 0x777 CALLER DUP3 DUP5 PUSH2 0xC3B JUMP JUMPDEST POP POP JUMP JUMPDEST PUSH0 PUSH1 0x3 PUSH0 CALLER PUSH20 0xFFFFFFFFFFFFFFFFFFFFFFFFFFFFFFFFFFFFFFFF AND PUSH20 0xFFFFFFFFFFFFFFFFFFFFFFFFFFFFFFFFFFFFFFFF AND DUP2 MSTORE PUSH1 0x20 ADD SWAP1 DUP2 MSTORE PUSH1 0x20 ADD PUSH0 KECCAK256 PUSH0 DUP4 PUSH20 0xFFFFFFFFFFFFFFFFFFFFFFFFFFFFFFFFFFFFFFFF AND PUSH20 0xFFFFFFFFFFFFFFFFFFFFFFFFFFFFFFFFFFFFFFFF AND DUP2 MSTORE PUSH1 0x20 ADD SWAP1 DUP2 MSTORE PUSH1 0x20 ADD PUSH0 KECCAK256 PUSH0 PUSH2 0x100 EXP DUP2 SLOAD DUP2 PUSH1 0xFF MUL NOT AND SWAP1 DUP4 ISZERO ISZERO MUL OR SWAP1 SSTORE POP POP JUMP JUMPDEST PUSH2 0x817 DUP3 DUP3 PUSH2 0xDC5 JUMP JUMPDEST POP POP JUMP JUMPDEST PUSH1 0x60 PUSH0 DUP3 PUSH8 0xFFFFFFFFFFFFFFFF DUP2 GT ISZERO PUSH2 0x838 JUMPI PUSH2 0x837 PUSH2 0x1339 JUMP JUMPDEST JUMPDEST PUSH1 0x40 MLOAD SWAP1 DUP1 DUP3 MSTORE DUP1 PUSH1 0x20 MUL PUSH1 0x20 ADD DUP3 ADD PUSH1 0x40 MSTORE DUP1 ISZERO PUSH2 0x871 JUMPI DUP2 PUSH1 0x20 ADD JUMPDEST PUSH2 0x85E PUSH2 0xE9A JUMP JUMPDEST DUP2 MSTORE PUSH1 0x20 ADD SWAP1 PUSH1 0x1 SWAP1 SUB SWAP1 DUP2 PUSH2 0x856 JUMPI SWAP1 POP JUMPDEST POP SWAP1 POP PUSH0 PUSH1 0x1 PUSH0 DUP7 PUSH20 0xFFFFFFFFFFFFFFFFFFFFFFFFFFFFFFFFFFFFFFFF AND PUSH20 0xFFFFFFFFFFFFFFFFFFFFFFFFFFFFFFFFFFFFFFFF AND DUP2 MSTORE PUSH1 0x20 ADD SWAP1 DUP2 MSTORE PUSH1 0x20 ADD PUSH0 KECCAK256 DUP1 SLOAD DUP1 PUSH1 0x20 MUL PUSH1 0x20 ADD PUSH1 0x40 MLOAD SWAP1 DUP2 ADD PUSH1 0x40 MSTORE DUP1 SWAP3 SWAP2 SWAP1 DUP2 DUP2 MSTORE PUSH1 0x20 ADD DUP3 DUP1 SLOAD DUP1 ISZERO PUSH2 0x8FA JUMPI PUSH1 0x20 MUL DUP3 ADD SWAP2 SWAP1 PUSH0 MSTORE PUSH1 0x20 PUSH0 KECCAK256 SWAP1 JUMPDEST DUP2 SLOAD DUP2 MSTORE PUSH1 0x20 ADD SWAP1 PUSH1 0x1 ADD SWAP1 DUP1 DUP4 GT PUSH2 0x8E6 JUMPI JUMPDEST POP POP POP POP POP SWAP1 POP PUSH0 DUP5 GT DUP1 ISZERO PUSH2 0x911 JUMPI POP DUP1 MLOAD DUP5 GT ISZERO JUMPDEST PUSH2 0x950 JUMPI PUSH1 0x40 MLOAD PUSH32 0x8C379A000000000000000000000000000000000000000000000000000000000 DUP2 MSTORE PUSH1 0x4 ADD PUSH2 0x947 SWAP1 PUSH2 0x17DD JUMP JUMPDEST PUSH1 0x40 MLOAD DUP1 SWAP2 SUB SWAP1 REVERT JUMPDEST PUSH0 PUSH0 DUP6 DUP4 MLOAD PUSH2 0x95F SWAP2 SWAP1 PUSH2 0x1700 JUMP JUMPDEST SWAP1 POP JUMPDEST DUP3 MLOAD DUP2 LT ISZERO PUSH2 0xABE JUMPI PUSH0 PUSH0 PUSH0 DUP6 DUP5 DUP2 MLOAD DUP2 LT PUSH2 0x981 JUMPI PUSH2 0x980 PUSH2 0x1733 JUMP JUMPDEST JUMPDEST PUSH1 0x20 MUL PUSH1 0x20 ADD ADD MLOAD DUP2 MSTORE PUSH1 0x20 ADD SWAP1 DUP2 MSTORE PUSH1 0x20 ADD PUSH0 KECCAK256 SWAP1 POP PUSH1 0x40 MLOAD DUP1 PUSH1 0x80 ADD PUSH1 0x40 MSTORE DUP1 DUP3 PUSH0 ADD SLOAD DUP2 MSTORE PUSH1 0x20 ADD DUP3 PUSH1 0x1 ADD PUSH0 SWAP1 SLOAD SWAP1 PUSH2 0x100 EXP SWAP1 DIV PUSH20 0xFFFFFFFFFFFFFFFFFFFFFFFFFFFFFFFFFFFFFFFF AND PUSH20 0xFFFFFFFFFFFFFFFFFFFFFFFFFFFFFFFFFFFFFFFF AND DUP2 MSTORE PUSH1 0x20 ADD DUP3 PUSH1 0x2 ADD DUP1 SLOAD PUSH2 0x9FA SWAP1 PUSH2 0x163B JUMP JUMPDEST DUP1 PUSH1 0x1F ADD PUSH1 0x20 DUP1 SWAP2 DIV MUL PUSH1 0x20 ADD PUSH1 0x40 MLOAD SWAP1 DUP2 ADD PUSH1 0x40 MSTORE DUP1 SWAP3 SWAP2 SWAP1 DUP2 DUP2 MSTORE PUSH1 0x20 ADD DUP3 DUP1 SLOAD PUSH2 0xA26 SWAP1 PUSH2 0x163B JUMP JUMPDEST DUP1 ISZERO PUSH2 0xA71 JUMPI DUP1 PUSH1 0x1F LT PUSH2 0xA48 JUMPI PUSH2 0x100 DUP1 DUP4 SLOAD DIV MUL DUP4 MSTORE SWAP2 PUSH1 0x20 ADD SWAP2 PUSH2 0xA71 JUMP JUMPDEST DUP3 ADD SWAP2 SWAP1 PUSH0 MSTORE PUSH1 0x20 PUSH0 KECCAK256 SWAP1 JUMPDEST DUP2 SLOAD DUP2 MSTORE SWAP1 PUSH1 0x1 ADD SWAP1 PUSH1 0x20 ADD DUP1 DUP4 GT PUSH2 0xA54 JUMPI DUP3 SWAP1 SUB PUSH1 0x1F AND DUP3 ADD SWAP2 JUMPDEST POP POP POP POP POP DUP2 MSTORE PUSH1 0x20 ADD DUP3 PUSH1 0x3 ADD SLOAD DUP2 MSTORE POP DUP6 DUP5 DUP2 MLOAD DUP2 LT PUSH2 0xA96 JUMPI PUSH2 0xA95 PUSH2 0x1733 JUMP JUMPDEST JUMPDEST PUSH1 0x20 MUL PUSH1 0x20 ADD ADD DUP2 SWAP1 MSTORE POP PUSH1 0x1 DUP4 PUSH2 0xAAE SWAP2 SWAP1 PUSH2 0x1760 JUMP JUMPDEST SWAP3 POP POP DUP1 DUP1 PUSH1 0x1 ADD SWAP2 POP POP PUSH2 0x962 JUMP JUMPDEST POP DUP3 SWAP4 POP POP POP POP SWAP3 SWAP2 POP POP JUMP JUMPDEST PUSH0 PUSH1 0x20 MSTORE DUP1 PUSH0 MSTORE PUSH1 0x40 PUSH0 KECCAK256 PUSH0 SWAP2 POP SWAP1 POP DUP1 PUSH0 ADD SLOAD SWAP1 DUP1 PUSH1 0x1 ADD PUSH0 SWAP1 SLOAD SWAP1 PUSH2 0x100 EXP SWAP1 DIV PUSH20 0xFFFFFFFFFFFFFFFFFFFFFFFFFFFFFFFFFFFFFFFF AND SWAP1 DUP1 PUSH1 0x2 ADD DUP1 SLOAD PUSH2 0xB14 SWAP1 PUSH2 0x163B JUMP JUMPDEST DUP1 PUSH1 0x1F ADD PUSH1 0x20 DUP1 SWAP2 DIV MUL PUSH1 0x20 ADD PUSH1 0x40 MLOAD SWAP1 DUP2 ADD PUSH1 0x40 MSTORE DUP1 SWAP3 SWAP2 SWAP1 DUP2 DUP2 MSTORE PUSH1 0x20 ADD DUP3 DUP1 SLOAD PUSH2 0xB40 SWAP1 PUSH2 0x163B JUMP JUMPDEST DUP1 ISZERO PUSH2 0xB8B JUMPI DUP1 PUSH1 0x1F LT PUSH2 0xB62 JUMPI PUSH2 0x100 DUP1 DUP4 SLOAD DIV MUL DUP4 MSTORE SWAP2 PUSH1 0x20 ADD SWAP2 PUSH2 0xB8B JUMP JUMPDEST DUP3 ADD SWAP2 SWAP1 PUSH0 MSTORE PUSH1 0x20 PUSH0 KECCAK256 SWAP1 JUMPDEST DUP2 SLOAD DUP2 MSTORE SWAP1 PUSH1 0x1 ADD SWAP1 PUSH1 0x20 ADD DUP1 DUP4 GT PUSH2 0xB6E JUMPI DUP3 SWAP1 SUB PUSH1 0x1F AND DUP3 ADD SWAP2 JUMPDEST POP POP POP POP POP SWAP1 DUP1 PUSH1 0x3 ADD SLOAD SWAP1 POP DUP5 JUMP JUMPDEST PUSH2 0xBA5 CALLER DUP3 PUSH2 0xDC5 JUMP JUMPDEST POP JUMP JUMPDEST PUSH1 0x1 PUSH1 0x3 PUSH0 CALLER PUSH20 0xFFFFFFFFFFFFFFFFFFFFFFFFFFFFFFFFFFFFFFFF AND PUSH20 0xFFFFFFFFFFFFFFFFFFFFFFFFFFFFFFFFFFFFFFFF AND DUP2 MSTORE PUSH1 0x20 ADD SWAP1 DUP2 MSTORE PUSH1 0x20 ADD PUSH0 KECCAK256 PUSH0 DUP4 PUSH20 0xFFFFFFFFFFFFFFFFFFFFFFFFFFFFFFFFFFFFFFFF AND PUSH20 0xFFFFFFFFFFFFFFFFFFFFFFFFFFFFFFFFFFFFFFFF AND DUP2 MSTORE PUSH1 0x20 ADD SWAP1 DUP2 MSTORE PUSH1 0x20 ADD PUSH0 KECCAK256 PUSH0 PUSH2 0x100 EXP DUP2 SLOAD DUP2 PUSH1 0xFF MUL NOT AND SWAP1 DUP4 ISZERO ISZERO MUL OR SWAP1 SSTORE POP POP JUMP JUMPDEST PUSH1 0x2 PUSH0 DUP5 PUSH20 0xFFFFFFFFFFFFFFFFFFFFFFFFFFFFFFFFFFFFFFFF AND PUSH20 0xFFFFFFFFFFFFFFFFFFFFFFFFFFFFFFFFFFFFFFFF AND DUP2 MSTORE PUSH1 0x20 ADD SWAP1 DUP2 MSTORE PUSH1 0x20 ADD PUSH0 KECCAK256 PUSH1 0x40 MLOAD DUP1 PUSH1 0xA0 ADD PUSH1 0x40 MSTORE DUP1 PUSH1 0x6 SLOAD DUP2 MSTORE PUSH1 0x20 ADD DUP4 DUP2 MSTORE PUSH1 0x20 ADD DUP6 PUSH20 0xFFFFFFFFFFFFFFFFFFFFFFFFFFFFFFFFFFFFFFFF AND DUP2 MSTORE PUSH1 0x20 ADD DUP5 PUSH20 0xFFFFFFFFFFFFFFFFFFFFFFFFFFFFFFFFFFFFFFFF AND DUP2 MSTORE PUSH1 0x20 ADD TIMESTAMP DUP2 MSTORE POP SWAP1 DUP1 PUSH1 0x1 DUP2 SLOAD ADD DUP1 DUP3 SSTORE DUP1 SWAP2 POP POP PUSH1 0x1 SWAP1 SUB SWAP1 PUSH0 MSTORE PUSH1 0x20 PUSH0 KECCAK256 SWAP1 PUSH1 0x5 MUL ADD PUSH0 SWAP1 SWAP2 SWAP1 SWAP2 SWAP1 SWAP2 POP PUSH0 DUP3 ADD MLOAD DUP2 PUSH0 ADD SSTORE PUSH1 0x20 DUP3 ADD MLOAD DUP2 PUSH1 0x1 ADD SWAP1 DUP2 PUSH2 0xD10 SWAP2 SWAP1 PUSH2 0x199B JUMP JUMPDEST POP PUSH1 0x40 DUP3 ADD MLOAD DUP2 PUSH1 0x2 ADD PUSH0 PUSH2 0x100 EXP DUP2 SLOAD DUP2 PUSH20 0xFFFFFFFFFFFFFFFFFFFFFFFFFFFFFFFFFFFFFFFF MUL NOT AND SWAP1 DUP4 PUSH20 0xFFFFFFFFFFFFFFFFFFFFFFFFFFFFFFFFFFFFFFFF AND MUL OR SWAP1 SSTORE POP PUSH1 0x60 DUP3 ADD MLOAD DUP2 PUSH1 0x3 ADD PUSH0 PUSH2 0x100 EXP DUP2 SLOAD DUP2 PUSH20 0xFFFFFFFFFFFFFFFFFFFFFFFFFFFFFFFFFFFFFFFF MUL NOT AND SWAP1 DUP4 PUSH20 0xFFFFFFFFFFFFFFFFFFFFFFFFFFFFFFFFFFFFFFFF AND MUL OR SWAP1 SSTORE POP PUSH1 0x80 DUP3 ADD MLOAD DUP2 PUSH1 0x4 ADD SSTORE POP POP PUSH1 0x6 PUSH0 DUP2 SLOAD DUP1 SWAP3 SWAP2 SWAP1 PUSH2 0xDBB SWAP1 PUSH2 0x1A6A JUMP JUMPDEST SWAP2 SWAP1 POP SSTORE POP POP POP POP JUMP JUMPDEST PUSH1 0x40 MLOAD DUP1 PUSH1 0x80 ADD PUSH1 0x40 MSTORE DUP1 PUSH1 0x5 SLOAD DUP2 MSTORE PUSH1 0x20 ADD DUP4 PUSH20 0xFFFFFFFFFFFFFFFFFFFFFFFFFFFFFFFFFFFFFFFF AND DUP2 MSTORE PUSH1 0x20 ADD DUP3 DUP2 MSTORE PUSH1 0x20 ADD TIMESTAMP DUP2 MSTORE POP PUSH0 PUSH0 PUSH1 0x5 SLOAD DUP2 MSTORE PUSH1 0x20 ADD SWAP1 DUP2 MSTORE PUSH1 0x20 ADD PUSH0 KECCAK256 PUSH0 DUP3 ADD MLOAD DUP2 PUSH0 ADD SSTORE PUSH1 0x20 DUP3 ADD MLOAD DUP2 PUSH1 0x1 ADD PUSH0 PUSH2 0x100 EXP DUP2 SLOAD DUP2 PUSH20 0xFFFFFFFFFFFFFFFFFFFFFFFFFFFFFFFFFFFFFFFF MUL NOT AND SWAP1 DUP4 PUSH20 0xFFFFFFFFFFFFFFFFFFFFFFFFFFFFFFFFFFFFFFFF AND MUL OR SWAP1 SSTORE POP PUSH1 0x40 DUP3 ADD MLOAD DUP2 PUSH1 0x2 ADD SWAP1 DUP2 PUSH2 0xE73 SWAP2 SWAP1 PUSH2 0x199B JUMP JUMPDEST POP PUSH1 0x60 DUP3 ADD MLOAD DUP2 PUSH1 0x3 ADD SSTORE SWAP1 POP POP PUSH1 0x1 PUSH1 0x5 SLOAD PUSH2 0xE90 SWAP2 SWAP1 PUSH2 0x1760 JUMP JUMPDEST PUSH1 0x5 DUP2 SWAP1 SSTORE POP POP POP JUMP JUMPDEST PUSH1 0x40 MLOAD DUP1 PUSH1 0x80 ADD PUSH1 0x40 MSTORE DUP1 PUSH0 DUP2 MSTORE PUSH1 0x20 ADD PUSH0 PUSH20 0xFFFFFFFFFFFFFFFFFFFFFFFFFFFFFFFFFFFFFFFF AND DUP2 MSTORE PUSH1 0x20 ADD PUSH1 0x60 DUP2 MSTORE PUSH1 0x20 ADD PUSH0 DUP2 MSTORE POP SWAP1 JUMP JUMPDEST PUSH0 PUSH1 0x40 MLOAD SWAP1 POP SWAP1 JUMP JUMPDEST PUSH0 PUSH0 REVERT JUMPDEST PUSH0 PUSH0 REVERT JUMPDEST PUSH0 PUSH20 0xFFFFFFFFFFFFFFFFFFFFFFFFFFFFFFFFFFFFFFFF DUP3 AND SWAP1 POP SWAP2 SWAP1 POP JUMP JUMPDEST PUSH0 PUSH2 0xF0F DUP3 PUSH2 0xEE6 JUMP JUMPDEST SWAP1 POP SWAP2 SWAP1 POP JUMP JUMPDEST PUSH2 0xF1F DUP2 PUSH2 0xF05 JUMP JUMPDEST DUP2 EQ PUSH2 0xF29 JUMPI PUSH0 PUSH0 REVERT JUMPDEST POP JUMP JUMPDEST PUSH0 DUP2 CALLDATALOAD SWAP1 POP PUSH2 0xF3A DUP2 PUSH2 0xF16 JUMP JUMPDEST SWAP3 SWAP2 POP POP JUMP JUMPDEST PUSH0 PUSH0 PUSH1 0x40 DUP4 DUP6 SUB SLT ISZERO PUSH2 0xF56 JUMPI PUSH2 0xF55 PUSH2 0xEDE JUMP JUMPDEST JUMPDEST PUSH0 PUSH2 0xF63 DUP6 DUP3 DUP7 ADD PUSH2 0xF2C JUMP JUMPDEST SWAP3 POP POP PUSH1 0x20 PUSH2 0xF74 DUP6 DUP3 DUP7 ADD PUSH2 0xF2C JUMP JUMPDEST SWAP2 POP POP SWAP3 POP SWAP3 SWAP1 POP JUMP JUMPDEST PUSH0 DUP2 ISZERO ISZERO SWAP1 POP SWAP2 SWAP1 POP JUMP JUMPDEST PUSH2 0xF92 DUP2 PUSH2 0xF7E JUMP JUMPDEST DUP3 MSTORE POP POP JUMP JUMPDEST PUSH0 PUSH1 0x20 DUP3 ADD SWAP1 POP PUSH2 0xFAB PUSH0 DUP4 ADD DUP5 PUSH2 0xF89 JUMP JUMPDEST SWAP3 SWAP2 POP POP JUMP JUMPDEST PUSH0 DUP2 SWAP1 POP SWAP2 SWAP1 POP JUMP JUMPDEST PUSH2 0xFC3 DUP2 PUSH2 0xFB1 JUMP JUMPDEST DUP2 EQ PUSH2 0xFCD JUMPI PUSH0 PUSH0 REVERT JUMPDEST POP JUMP JUMPDEST PUSH0 DUP2 CALLDATALOAD SWAP1 POP PUSH2 0xFDE DUP2 PUSH2 0xFBA JUMP JUMPDEST SWAP3 SWAP2 POP POP JUMP JUMPDEST PUSH0 PUSH0 PUSH1 0x40 DUP4 DUP6 SUB SLT ISZERO PUSH2 0xFFA JUMPI PUSH2 0xFF9 PUSH2 0xEDE JUMP JUMPDEST JUMPDEST PUSH0 PUSH2 0x1007 DUP6 DUP3 DUP7 ADD PUSH2 0xF2C JUMP JUMPDEST SWAP3 POP POP PUSH1 0x20 PUSH2 0x1018 DUP6 DUP3 DUP7 ADD PUSH2 0xFD0 JUMP JUMPDEST SWAP2 POP POP SWAP3 POP SWAP3 SWAP1 POP JUMP JUMPDEST PUSH2 0x102B DUP2 PUSH2 0xFB1 JUMP JUMPDEST DUP3 MSTORE POP POP JUMP JUMPDEST PUSH0 DUP2 MLOAD SWAP1 POP SWAP2 SWAP1 POP JUMP JUMPDEST PUSH0 DUP3 DUP3 MSTORE PUSH1 0x20 DUP3 ADD SWAP1 POP SWAP3 SWAP2 POP POP JUMP JUMPDEST DUP3 DUP2 DUP4 MCOPY PUSH0 DUP4 DUP4 ADD MSTORE POP POP POP JUMP JUMPDEST PUSH0 PUSH1 0x1F NOT PUSH1 0x1F DUP4 ADD AND SWAP1 POP SWAP2 SWAP1 POP JUMP JUMPDEST PUSH0 PUSH2 0x1073 DUP3 PUSH2 0x1031 JUMP JUMPDEST PUSH2 0x107D DUP2 DUP6 PUSH2 0x103B JUMP JUMPDEST SWAP4 POP PUSH2 0x108D DUP2 DUP6 PUSH1 0x20 DUP7 ADD PUSH2 0x104B JUMP JUMPDEST PUSH2 0x1096 DUP2 PUSH2 0x1059 JUMP JUMPDEST DUP5 ADD SWAP2 POP POP SWAP3 SWAP2 POP POP JUMP JUMPDEST PUSH2 0x10AA DUP2 PUSH2 0xF05 JUMP JUMPDEST DUP3 MSTORE POP POP JUMP JUMPDEST PUSH0 PUSH1 0xA0 DUP3 ADD SWAP1 POP PUSH2 0x10C3 PUSH0 DUP4 ADD DUP9 PUSH2 0x1022 JUMP JUMPDEST DUP2 DUP2 SUB PUSH1 0x20 DUP4 ADD MSTORE PUSH2 0x10D5 DUP2 DUP8 PUSH2 0x1069 JUMP JUMPDEST SWAP1 POP PUSH2 0x10E4 PUSH1 0x40 DUP4 ADD DUP7 PUSH2 0x10A1 JUMP JUMPDEST PUSH2 0x10F1 PUSH1 0x60 DUP4 ADD DUP6 PUSH2 0x10A1 JUMP JUMPDEST PUSH2 0x10FE PUSH1 0x80 DUP4 ADD DUP5 PUSH2 0x1022 JUMP JUMPDEST SWAP7 SWAP6 POP POP POP POP POP POP JUMP JUMPDEST PUSH0 PUSH1 0x20 DUP3 DUP5 SUB SLT ISZERO PUSH2 0x111D JUMPI PUSH2 0x111C PUSH2 0xEDE JUMP JUMPDEST JUMPDEST PUSH0 PUSH2 0x112A DUP5 DUP3 DUP6 ADD PUSH2 0xF2C JUMP JUMPDEST SWAP2 POP POP SWAP3 SWAP2 POP POP JUMP JUMPDEST PUSH0 PUSH1 0x20 DUP3 DUP5 SUB SLT ISZERO PUSH2 0x1148 JUMPI PUSH2 0x1147 PUSH2 0xEDE JUMP JUMPDEST JUMPDEST PUSH0 PUSH2 0x1155 DUP5 DUP3 DUP6 ADD PUSH2 0xFD0 JUMP JUMPDEST SWAP2 POP POP SWAP3 SWAP2 POP POP JUMP JUMPDEST PUSH0 DUP2 MLOAD SWAP1 POP SWAP2 SWAP1 POP JUMP JUMPDEST PUSH0 DUP3 DUP3 MSTORE PUSH1 0x20 DUP3 ADD SWAP1 POP SWAP3 SWAP2 POP POP JUMP JUMPDEST PUSH0 DUP2 SWAP1 POP PUSH1 0x20 DUP3 ADD SWAP1 POP SWAP2 SWAP1 POP JUMP JUMPDEST PUSH2 0x1190 DUP2 PUSH2 0xFB1 JUMP JUMPDEST DUP3 MSTORE POP POP JUMP JUMPDEST PUSH2 0x119F DUP2 PUSH2 0xF05 JUMP JUMPDEST DUP3 MSTORE POP POP JUMP JUMPDEST PUSH0 DUP3 DUP3 MSTORE PUSH1 0x20 DUP3 ADD SWAP1 POP SWAP3 SWAP2 POP POP JUMP JUMPDEST PUSH0 PUSH2 0x11BF DUP3 PUSH2 0x1031 JUMP JUMPDEST PUSH2 0x11C9 DUP2 DUP6 PUSH2 0x11A5 JUMP JUMPDEST SWAP4 POP PUSH2 0x11D9 DUP2 DUP6 PUSH1 0x20 DUP7 ADD PUSH2 0x104B JUMP JUMPDEST PUSH2 0x11E2 DUP2 PUSH2 0x1059 JUMP JUMPDEST DUP5 ADD SWAP2 POP POP SWAP3 SWAP2 POP POP JUMP JUMPDEST PUSH0 PUSH1 0x80 DUP4 ADD PUSH0 DUP4 ADD MLOAD PUSH2 0x1202 PUSH0 DUP7 ADD DUP3 PUSH2 0x1187 JUMP JUMPDEST POP PUSH1 0x20 DUP4 ADD MLOAD PUSH2 0x1215 PUSH1 0x20 DUP7 ADD DUP3 PUSH2 0x1196 JUMP JUMPDEST POP PUSH1 0x40 DUP4 ADD MLOAD DUP5 DUP3 SUB PUSH1 0x40 DUP7 ADD MSTORE PUSH2 0x122D DUP3 DUP3 PUSH2 0x11B5 JUMP JUMPDEST SWAP2 POP POP PUSH1 0x60 DUP4 ADD MLOAD PUSH2 0x1242 PUSH1 0x60 DUP7 ADD DUP3 PUSH2 0x1187 JUMP JUMPDEST POP DUP1 SWAP2 POP POP SWAP3 SWAP2 POP POP JUMP JUMPDEST PUSH0 PUSH2 0x1258 DUP4 DUP4 PUSH2 0x11ED JUMP JUMPDEST SWAP1 POP SWAP3 SWAP2 POP POP JUMP JUMPDEST PUSH0 PUSH1 0x20 DUP3 ADD SWAP1 POP SWAP2 SWAP1 POP JUMP JUMPDEST PUSH0 PUSH2 0x1276 DUP3 PUSH2 0x115E JUMP JUMPDEST PUSH2 0x1280 DUP2 DUP6 PUSH2 0x1168 JUMP JUMPDEST SWAP4 POP DUP4 PUSH1 0x20 DUP3 MUL DUP6 ADD PUSH2 0x1292 DUP6 PUSH2 0x1178 JUMP JUMPDEST DUP1 PUSH0 JUMPDEST DUP6 DUP2 LT ISZERO PUSH2 0x12CD JUMPI DUP5 DUP5 SUB DUP10 MSTORE DUP2 MLOAD PUSH2 0x12AE DUP6 DUP3 PUSH2 0x124D JUMP JUMPDEST SWAP5 POP PUSH2 0x12B9 DUP4 PUSH2 0x1260 JUMP JUMPDEST SWAP3 POP PUSH1 0x20 DUP11 ADD SWAP10 POP POP PUSH1 0x1 DUP2 ADD SWAP1 POP PUSH2 0x1295 JUMP JUMPDEST POP DUP3 SWAP8 POP DUP8 SWAP6 POP POP POP POP POP POP SWAP3 SWAP2 POP POP JUMP JUMPDEST PUSH0 PUSH1 0x20 DUP3 ADD SWAP1 POP DUP2 DUP2 SUB PUSH0 DUP4 ADD MSTORE PUSH2 0x12F7 DUP2 DUP5 PUSH2 0x126C JUMP JUMPDEST SWAP1 POP SWAP3 SWAP2 POP POP JUMP JUMPDEST PUSH0 PUSH1 0x20 DUP3 ADD SWAP1 POP PUSH2 0x1312 PUSH0 DUP4 ADD DUP5 PUSH2 0x10A1 JUMP JUMPDEST SWAP3 SWAP2 POP POP JUMP JUMPDEST PUSH0 PUSH1 0x20 DUP3 ADD SWAP1 POP PUSH2 0x132B PUSH0 DUP4 ADD DUP5 PUSH2 0x1022 JUMP JUMPDEST SWAP3 SWAP2 POP POP JUMP JUMPDEST PUSH0 PUSH0 REVERT JUMPDEST PUSH0 PUSH0 REVERT JUMPDEST PUSH32 0x4E487B7100000000000000000000000000000000000000000000000000000000 PUSH0 MSTORE PUSH1 0x41 PUSH1 0x4 MSTORE PUSH1 0x24 PUSH0 REVERT JUMPDEST PUSH2 0x136F DUP3 PUSH2 0x1059 JUMP JUMPDEST DUP2 ADD DUP2 DUP2 LT PUSH8 0xFFFFFFFFFFFFFFFF DUP3 GT OR ISZERO PUSH2 0x138E JUMPI PUSH2 0x138D PUSH2 0x1339 JUMP JUMPDEST JUMPDEST DUP1 PUSH1 0x40 MSTORE POP POP POP JUMP JUMPDEST PUSH0 PUSH2 0x13A0 PUSH2 0xED5 JUMP JUMPDEST SWAP1 POP PUSH2 0x13AC DUP3 DUP3 PUSH2 0x1366 JUMP JUMPDEST SWAP2 SWAP1 POP JUMP JUMPDEST PUSH0 PUSH8 0xFFFFFFFFFFFFFFFF DUP3 GT ISZERO PUSH2 0x13CB JUMPI PUSH2 0x13CA PUSH2 0x1339 JUMP JUMPDEST JUMPDEST PUSH2 0x13D4 DUP3 PUSH2 0x1059 JUMP JUMPDEST SWAP1 POP PUSH1 0x20 DUP2 ADD SWAP1 POP SWAP2 SWAP1 POP JUMP JUMPDEST DUP3 DUP2 DUP4 CALLDATACOPY PUSH0 DUP4 DUP4 ADD MSTORE POP POP POP JUMP JUMPDEST PUSH0 PUSH2 0x1401 PUSH2 0x13FC DUP5 PUSH2 0x13B1 JUMP JUMPDEST PUSH2 0x1397 JUMP JUMPDEST SWAP1 POP DUP3 DUP2 MSTORE PUSH1 0x20 DUP2 ADD DUP5 DUP5 DUP5 ADD GT ISZERO PUSH2 0x141D JUMPI PUSH2 0x141C PUSH2 0x1335 JUMP JUMPDEST JUMPDEST PUSH2 0x1428 DUP5 DUP3 DUP6 PUSH2 0x13E1 JUMP JUMPDEST POP SWAP4 SWAP3 POP POP POP JUMP JUMPDEST PUSH0 DUP3 PUSH1 0x1F DUP4 ADD SLT PUSH2 0x1444 JUMPI PUSH2 0x1443 PUSH2 0x1331 JUMP JUMPDEST JUMPDEST DUP2 CALLDATALOAD PUSH2 0x1454 DUP5 DUP3 PUSH1 0x20 DUP7 ADD PUSH2 0x13EF JUMP JUMPDEST SWAP2 POP POP SWAP3 SWAP2 POP POP JUMP JUMPDEST PUSH0 PUSH0 PUSH0 PUSH1 0x60 DUP5 DUP7 SUB SLT ISZERO PUSH2 0x1474 JUMPI PUSH2 0x1473 PUSH2 0xEDE JUMP JUMPDEST JUMPDEST PUSH0 PUSH2 0x1481 DUP7 DUP3 DUP8 ADD PUSH2 0xF2C JUMP JUMPDEST SWAP4 POP POP PUSH1 0x20 PUSH2 0x1492 DUP7 DUP3 DUP8 ADD PUSH2 0xF2C JUMP JUMPDEST SWAP3 POP POP PUSH1 0x40 DUP5 ADD CALLDATALOAD PUSH8 0xFFFFFFFFFFFFFFFF DUP2 GT ISZERO PUSH2 0x14B3 JUMPI PUSH2 0x14B2 PUSH2 0xEE2 JUMP JUMPDEST JUMPDEST PUSH2 0x14BF DUP7 DUP3 DUP8 ADD PUSH2 0x1430 JUMP JUMPDEST SWAP2 POP POP SWAP3 POP SWAP3 POP SWAP3 JUMP JUMPDEST PUSH0 PUSH0 PUSH1 0x40 DUP4 DUP6 SUB SLT ISZERO PUSH2 0x14DF JUMPI PUSH2 0x14DE PUSH2 0xEDE JUMP JUMPDEST JUMPDEST PUSH0 DUP4 ADD CALLDATALOAD PUSH8 0xFFFFFFFFFFFFFFFF DUP2 GT ISZERO PUSH2 0x14FC JUMPI PUSH2 0x14FB PUSH2 0xEE2 JUMP JUMPDEST JUMPDEST PUSH2 0x1508 DUP6 DUP3 DUP7 ADD PUSH2 0x1430 JUMP JUMPDEST SWAP3 POP POP PUSH1 0x20 PUSH2 0x1519 DUP6 DUP3 DUP7 ADD PUSH2 0xF2C JUMP JUMPDEST SWAP2 POP POP SWAP3 POP SWAP3 SWAP1 POP JUMP JUMPDEST PUSH0 PUSH0 PUSH1 0x40 DUP4 DUP6 SUB SLT ISZERO PUSH2 0x1539 JUMPI PUSH2 0x1538 PUSH2 0xEDE JUMP JUMPDEST JUMPDEST PUSH0 PUSH2 0x1546 DUP6 DUP3 DUP7 ADD PUSH2 0xF2C JUMP JUMPDEST SWAP3 POP POP PUSH1 0x20 DUP4 ADD CALLDATALOAD PUSH8 0xFFFFFFFFFFFFFFFF DUP2 GT ISZERO PUSH2 0x1567 JUMPI PUSH2 0x1566 PUSH2 0xEE2 JUMP JUMPDEST JUMPDEST PUSH2 0x1573 DUP6 DUP3 DUP7 ADD PUSH2 0x1430 JUMP JUMPDEST SWAP2 POP POP SWAP3 POP SWAP3 SWAP1 POP JUMP JUMPDEST PUSH0 PUSH1 0x80 DUP3 ADD SWAP1 POP PUSH2 0x1590 PUSH0 DUP4 ADD DUP8 PUSH2 0x1022 JUMP JUMPDEST PUSH2 0x159D PUSH1 0x20 DUP4 ADD DUP7 PUSH2 0x10A1 JUMP JUMPDEST DUP2 DUP2 SUB PUSH1 0x40 DUP4 ADD MSTORE PUSH2 0x15AF DUP2 DUP6 PUSH2 0x1069 JUMP JUMPDEST SWAP1 POP PUSH2 0x15BE PUSH1 0x60 DUP4 ADD DUP5 PUSH2 0x1022 JUMP JUMPDEST SWAP6 SWAP5 POP POP POP POP POP JUMP JUMPDEST PUSH0 PUSH1 0x20 DUP3 DUP5 SUB SLT ISZERO PUSH2 0x15DC JUMPI PUSH2 0x15DB PUSH2 0xEDE JUMP JUMPDEST JUMPDEST PUSH0 DUP3 ADD CALLDATALOAD PUSH8 0xFFFFFFFFFFFFFFFF DUP2 GT ISZERO PUSH2 0x15F9 JUMPI PUSH2 0x15F8 PUSH2 0xEE2 JUMP JUMPDEST JUMPDEST PUSH2 0x1605 DUP5 DUP3 DUP6 ADD PUSH2 0x1430 JUMP JUMPDEST SWAP2 POP POP SWAP3 SWAP2 POP POP JUMP JUMPDEST PUSH32 0x4E487B7100000000000000000000000000000000000000000000000000000000 PUSH0 MSTORE PUSH1 0x22 PUSH1 0x4 MSTORE PUSH1 0x24 PUSH0 REVERT JUMPDEST PUSH0 PUSH1 0x2 DUP3 DIV SWAP1 POP PUSH1 0x1 DUP3 AND DUP1 PUSH2 0x1652 JUMPI PUSH1 0x7F DUP3 AND SWAP2 POP JUMPDEST PUSH1 0x20 DUP3 LT DUP2 SUB PUSH2 0x1665 JUMPI PUSH2 0x1664 PUSH2 0x160E JUMP JUMPDEST JUMPDEST POP SWAP2 SWAP1 POP JUMP JUMPDEST PUSH32 0x436F756E74206973204E6F742050726F70657200000000000000000000000000 PUSH0 DUP3 ADD MSTORE POP JUMP JUMPDEST PUSH0 PUSH2 0x169F PUSH1 0x13 DUP4 PUSH2 0x103B JUMP JUMPDEST SWAP2 POP PUSH2 0x16AA DUP3 PUSH2 0x166B JUMP JUMPDEST PUSH1 0x20 DUP3 ADD SWAP1 POP SWAP2 SWAP1 POP JUMP JUMPDEST PUSH0 PUSH1 0x20 DUP3 ADD SWAP1 POP DUP2 DUP2 SUB PUSH0 DUP4 ADD MSTORE PUSH2 0x16CC DUP2 PUSH2 0x1693 JUMP JUMPDEST SWAP1 POP SWAP2 SWAP1 POP JUMP JUMPDEST PUSH32 0x4E487B7100000000000000000000000000000000000000000000000000000000 PUSH0 MSTORE PUSH1 0x11 PUSH1 0x4 MSTORE PUSH1 0x24 PUSH0 REVERT JUMPDEST PUSH0 PUSH2 0x170A DUP3 PUSH2 0xFB1 JUMP JUMPDEST SWAP2 POP PUSH2 0x1715 DUP4 PUSH2 0xFB1 JUMP JUMPDEST SWAP3 POP DUP3 DUP3 SUB SWAP1 POP DUP2 DUP2 GT ISZERO PUSH2 0x172D JUMPI PUSH2 0x172C PUSH2 0x16D3 JUMP JUMPDEST JUMPDEST SWAP3 SWAP2 POP POP JUMP JUMPDEST PUSH32 0x4E487B7100000000000000000000000000000000000000000000000000000000 PUSH0 MSTORE PUSH1 0x32 PUSH1 0x4 MSTORE PUSH1 0x24 PUSH0 REVERT JUMPDEST PUSH0 PUSH2 0x176A DUP3 PUSH2 0xFB1 JUMP JUMPDEST SWAP2 POP PUSH2 0x1775 DUP4 PUSH2 0xFB1 JUMP JUMPDEST SWAP3 POP DUP3 DUP3 ADD SWAP1 POP DUP1 DUP3 GT ISZERO PUSH2 0x178D JUMPI PUSH2 0x178C PUSH2 0x16D3 JUMP JUMPDEST JUMPDEST SWAP3 SWAP2 POP POP JUMP JUMPDEST PUSH32 0x436F756E74206973204E6F7420446566696E6564000000000000000000000000 PUSH0 DUP3 ADD MSTORE POP JUMP JUMPDEST PUSH0 PUSH2 0x17C7 PUSH1 0x14 DUP4 PUSH2 0x103B JUMP JUMPDEST SWAP2 POP PUSH2 0x17D2 DUP3 PUSH2 0x1793 JUMP JUMPDEST PUSH1 0x20 DUP3 ADD SWAP1 POP SWAP2 SWAP1 POP JUMP JUMPDEST PUSH0 PUSH1 0x20 DUP3 ADD SWAP1 POP DUP2 DUP2 SUB PUSH0 DUP4 ADD MSTORE PUSH2 0x17F4 DUP2 PUSH2 0x17BB JUMP JUMPDEST SWAP1 POP SWAP2 SWAP1 POP JUMP JUMPDEST PUSH0 DUP2 SWAP1 POP DUP2 PUSH0 MSTORE PUSH1 0x20 PUSH0 KECCAK256 SWAP1 POP SWAP2 SWAP1 POP JUMP JUMPDEST PUSH0 PUSH1 0x20 PUSH1 0x1F DUP4 ADD DIV SWAP1 POP SWAP2 SWAP1 POP JUMP JUMPDEST PUSH0 DUP3 DUP3 SHL SWAP1 POP SWAP3 SWAP2 POP POP JUMP JUMPDEST PUSH0 PUSH1 0x8 DUP4 MUL PUSH2 0x1857 PUSH32 0xFFFFFFFFFFFFFFFFFFFFFFFFFFFFFFFFFFFFFFFFFFFFFFFFFFFFFFFFFFFFFFFF DUP3 PUSH2 0x181C JUMP JUMPDEST PUSH2 0x1861 DUP7 DUP4 PUSH2 0x181C JUMP JUMPDEST SWAP6 POP DUP1 NOT DUP5 AND SWAP4 POP DUP1 DUP7 AND DUP5 OR SWAP3 POP POP POP SWAP4 SWAP3 POP POP POP JUMP JUMPDEST PUSH0 DUP2 SWAP1 POP SWAP2 SWAP1 POP JUMP JUMPDEST PUSH0 PUSH2 0x189C PUSH2 0x1897 PUSH2 0x1892 DUP5 PUSH2 0xFB1 JUMP JUMPDEST PUSH2 0x1879 JUMP JUMPDEST PUSH2 0xFB1 JUMP JUMPDEST SWAP1 POP SWAP2 SWAP1 POP JUMP JUMPDEST PUSH0 DUP2 SWAP1 POP SWAP2 SWAP1 POP JUMP JUMPDEST PUSH2 0x18B5 DUP4 PUSH2 0x1882 JUMP JUMPDEST PUSH2 0x18C9 PUSH2 0x18C1 DUP3 PUSH2 0x18A3 JUMP JUMPDEST DUP5 DUP5 SLOAD PUSH2 0x1828 JUMP JUMPDEST DUP3 SSTORE POP POP POP POP JUMP JUMPDEST PUSH0 PUSH0 SWAP1 POP SWAP1 JUMP JUMPDEST PUSH2 0x18E0 PUSH2 0x18D1 JUMP JUMPDEST PUSH2 0x18EB DUP2 DUP5 DUP5 PUSH2 0x18AC JUMP JUMPDEST POP POP POP JUMP JUMPDEST JUMPDEST DUP2 DUP2 LT ISZERO PUSH2 0x190E JUMPI PUSH2 0x1903 PUSH0 DUP3 PUSH2 0x18D8 JUMP JUMPDEST PUSH1 0x1 DUP2 ADD SWAP1 POP PUSH2 0x18F1 JUMP JUMPDEST POP POP JUMP JUMPDEST PUSH1 0x1F DUP3 GT ISZERO PUSH2 0x1953 JUMPI PUSH2 0x1924 DUP2 PUSH2 0x17FB JUMP JUMPDEST PUSH2 0x192D DUP5 PUSH2 0x180D JUMP JUMPDEST DUP2 ADD PUSH1 0x20 DUP6 LT ISZERO PUSH2 0x193C JUMPI DUP2 SWAP1 POP JUMPDEST PUSH2 0x1950 PUSH2 0x1948 DUP6 PUSH2 0x180D JUMP JUMPDEST DUP4 ADD DUP3 PUSH2 0x18F0 JUMP JUMPDEST POP POP JUMPDEST POP POP POP JUMP JUMPDEST PUSH0 DUP3 DUP3 SHR SWAP1 POP SWAP3 SWAP2 POP POP JUMP JUMPDEST PUSH0 PUSH2 0x1973 PUSH0 NOT DUP5 PUSH1 0x8 MUL PUSH2 0x1958 JUMP JUMPDEST NOT DUP1 DUP4 AND SWAP2 POP POP SWAP3 SWAP2 POP POP JUMP JUMPDEST PUSH0 PUSH2 0x198B DUP4 DUP4 PUSH2 0x1964 JUMP JUMPDEST SWAP2 POP DUP3 PUSH1 0x2 MUL DUP3 OR SWAP1 POP SWAP3 SWAP2 POP POP JUMP JUMPDEST PUSH2 0x19A4 DUP3 PUSH2 0x1031 JUMP JUMPDEST PUSH8 0xFFFFFFFFFFFFFFFF DUP2 GT ISZERO PUSH2 0x19BD JUMPI PUSH2 0x19BC PUSH2 0x1339 JUMP JUMPDEST JUMPDEST PUSH2 0x19C7 DUP3 SLOAD PUSH2 0x163B JUMP JUMPDEST PUSH2 0x19D2 DUP3 DUP3 DUP6 PUSH2 0x1912 JUMP JUMPDEST PUSH0 PUSH1 0x20 SWAP1 POP PUSH1 0x1F DUP4 GT PUSH1 0x1 DUP2 EQ PUSH2 0x1A03 JUMPI PUSH0 DUP5 ISZERO PUSH2 0x19F1 JUMPI DUP3 DUP8 ADD MLOAD SWAP1 POP JUMPDEST PUSH2 0x19FB DUP6 DUP3 PUSH2 0x1980 JUMP JUMPDEST DUP7 SSTORE POP PUSH2 0x1A62 JUMP JUMPDEST PUSH1 0x1F NOT DUP5 AND PUSH2 0x1A11 DUP7 PUSH2 0x17FB JUMP JUMPDEST PUSH0 JUMPDEST DUP3 DUP2 LT ISZERO PUSH2 0x1A38 JUMPI DUP5 DUP10 ADD MLOAD DUP3 SSTORE PUSH1 0x1 DUP3 ADD SWAP2 POP PUSH1 0x20 DUP6 ADD SWAP5 POP PUSH1 0x20 DUP2 ADD SWAP1 POP PUSH2 0x1A13 JUMP JUMPDEST DUP7 DUP4 LT ISZERO PUSH2 0x1A55 JUMPI DUP5 DUP10 ADD MLOAD PUSH2 0x1A51 PUSH1 0x1F DUP10 AND DUP3 PUSH2 0x1964 JUMP JUMPDEST DUP4 SSTORE POP JUMPDEST PUSH1 0x1 PUSH1 0x2 DUP9 MUL ADD DUP9 SSTORE POP POP POP JUMPDEST POP POP POP POP POP POP JUMP JUMPDEST PUSH0 PUSH2 0x1A74 DUP3 PUSH2 0xFB1 JUMP JUMPDEST SWAP2 POP PUSH32 0xFFFFFFFFFFFFFFFFFFFFFFFFFFFFFFFFFFFFFFFFFFFFFFFFFFFFFFFFFFFFFFFF DUP3 SUB PUSH2 0x1AA6 JUMPI PUSH2 0x1AA5 PUSH2 0x16D3 JUMP JUMPDEST JUMPDEST PUSH1 0x1 DUP3 ADD SWAP1 POP SWAP2 SWAP1 POP JUMP INVALID LOG2 PUSH5 0x6970667358 0x22 SLT KECCAK256 JUMP CREATE PUSH18 0x9491BD1D07EFB57CA88AF9F835C12CA1D47D 0xA8 0xE8 PUSH29 0x9EA4C1FF935F2CB764736F6C634300081E003300000000000000000000 "
				},
				"gasEstimates": {
					"creation": {
						"codeDepositCost": "1377400",
						"executionCost": "1436",
						"totalCost": "1378836"
					},
					"external": {
						"allow(address)": "24978",
						"conversations(address,uint256)": "infinite",
						"disAllow(address)": "24934",
						"follow(address)": "49180",
						"following(address,uint256)": "infinite",
						"getLatestTweets(uint256)": "infinite",
						"getLatestTweetsOfUsers(address,uint256)": "infinite",
						"operators(address,address)": "infinite",
						"sendMessage(address,address,string)": "infinite",
						"sendMessage(string,address)": "infinite",
						"tweet(address,string)": "infinite",
						"tweet(string)": "infinite",
						"tweets(uint256)": "infinite",
						"tweetsOf(address,uint256)": "infinite"
					},
					"internal": {
						"_sendMessage(address,address,string memory)": "infinite",
						"_tweet(address,string memory)": "infinite"
					}
				},
				"methodIdentifiers": {
					"allow(address)": "ff9913e8",
					"conversations(address,uint256)": "3befea09",
					"disAllow(address)": "cf8aacdd",
					"follow(address)": "4dbf27cc",
					"following(address,uint256)": "9139cda5",
					"getLatestTweets(uint256)": "4dc0a687",
					"getLatestTweetsOfUsers(address,uint256)": "dce9e0f3",
					"operators(address,address)": "2637588e",
					"sendMessage(address,address,string)": "b88e318d",
					"sendMessage(string,address)": "c48d6d5e",
					"tweet(address,string)": "d21d1596",
					"tweet(string)": "fb46d4c5",
					"tweets(uint256)": "e8d857b0",
					"tweetsOf(address,uint256)": "af22bf94"
				}
			},
			"storageLayout": {
				"storage": [
					{
						"astId": 26,
						"contract": "contracts/twitter/tweet.sol:TweeterContract",
						"label": "tweets",
						"offset": 0,
						"slot": "0",
						"type": "t_mapping(t_uint256,t_struct(Tweet)10_storage)"
					},
					{
						"astId": 31,
						"contract": "contracts/twitter/tweet.sol:TweeterContract",
						"label": "tweetsOf",
						"offset": 0,
						"slot": "1",
						"type": "t_mapping(t_address,t_array(t_uint256)dyn_storage)"
					},
					{
						"astId": 37,
						"contract": "contracts/twitter/tweet.sol:TweeterContract",
						"label": "conversations",
						"offset": 0,
						"slot": "2",
						"type": "t_mapping(t_address,t_array(t_struct(Message)21_storage)dyn_storage)"
					},
					{
						"astId": 43,
						"contract": "contracts/twitter/tweet.sol:TweeterContract",
						"label": "operators",
						"offset": 0,
						"slot": "3",
						"type": "t_mapping(t_address,t_mapping(t_address,t_bool))"
					},
					{
						"astId": 48,
						"contract": "contracts/twitter/tweet.sol:TweeterContract",
						"label": "following",
						"offset": 0,
						"slot": "4",
						"type": "t_mapping(t_address,t_array(t_address)dyn_storage)"
					},
					{
						"astId": 50,
						"contract": "contracts/twitter/tweet.sol:TweeterContract",
						"label": "nextId",
						"offset": 0,
						"slot": "5",
						"type": "t_uint256"
					},
					{
						"astId": 52,
						"contract": "contracts/twitter/tweet.sol:TweeterContract",
						"label": "nextMessageId",
						"offset": 0,
						"slot": "6",
						"type": "t_uint256"
					}
				],
				"types": {
					"t_address": {
						"encoding": "inplace",
						"label": "address",
						"numberOfBytes": "20"
					},
					"t_array(t_address)dyn_storage": {
						"base": "t_address",
						"encoding": "dynamic_array",
						"label": "address[]",
						"numberOfBytes": "32"
					},
					"t_array(t_struct(Message)21_storage)dyn_storage": {
						"base": "t_struct(Message)21_storage",
						"encoding": "dynamic_array",
						"label": "struct TweeterContract.Message[]",
						"numberOfBytes": "32"
					},
					"t_array(t_uint256)dyn_storage": {
						"base": "t_uint256",
						"encoding": "dynamic_array",
						"label": "uint256[]",
						"numberOfBytes": "32"
					},
					"t_bool": {
						"encoding": "inplace",
						"label": "bool",
						"numberOfBytes": "1"
					},
					"t_mapping(t_address,t_array(t_address)dyn_storage)": {
						"encoding": "mapping",
						"key": "t_address",
						"label": "mapping(address => address[])",
						"numberOfBytes": "32",
						"value": "t_array(t_address)dyn_storage"
					},
					"t_mapping(t_address,t_array(t_struct(Message)21_storage)dyn_storage)": {
						"encoding": "mapping",
						"key": "t_address",
						"label": "mapping(address => struct TweeterContract.Message[])",
						"numberOfBytes": "32",
						"value": "t_array(t_struct(Message)21_storage)dyn_storage"
					},
					"t_mapping(t_address,t_array(t_uint256)dyn_storage)": {
						"encoding": "mapping",
						"key": "t_address",
						"label": "mapping(address => uint256[])",
						"numberOfBytes": "32",
						"value": "t_array(t_uint256)dyn_storage"
					},
					"t_mapping(t_address,t_bool)": {
						"encoding": "mapping",
						"key": "t_address",
						"label": "mapping(address => bool)",
						"numberOfBytes": "32",
						"value": "t_bool"
					},
					"t_mapping(t_address,t_mapping(t_address,t_bool))": {
						"encoding": "mapping",
						"key": "t_address",
						"label": "mapping(address => mapping(address => bool))",
						"numberOfBytes": "32",
						"value": "t_mapping(t_address,t_bool)"
					},
					"t_mapping(t_uint256,t_struct(Tweet)10_storage)": {
						"encoding": "mapping",
						"key": "t_uint256",
						"label": "mapping(uint256 => struct TweeterContract.Tweet)",
						"numberOfBytes": "32",
						"value": "t_struct(Tweet)10_storage"
					},
					"t_string_storage": {
						"encoding": "bytes",
						"label": "string",
						"numberOfBytes": "32"
					},
					"t_struct(Message)21_storage": {
						"encoding": "inplace",
						"label": "struct TweeterContract.Message",
						"members": [
							{
								"astId": 12,
								"contract": "contracts/twitter/tweet.sol:TweeterContract",
								"label": "id",
								"offset": 0,
								"slot": "0",
								"type": "t_uint256"
							},
							{
								"astId": 14,
								"contract": "contracts/twitter/tweet.sol:TweeterContract",
								"label": "content",
								"offset": 0,
								"slot": "1",
								"type": "t_string_storage"
							},
							{
								"astId": 16,
								"contract": "contracts/twitter/tweet.sol:TweeterContract",
								"label": "from",
								"offset": 0,
								"slot": "2",
								"type": "t_address"
							},
							{
								"astId": 18,
								"contract": "contracts/twitter/tweet.sol:TweeterContract",
								"label": "to",
								"offset": 0,
								"slot": "3",
								"type": "t_address"
							},
							{
								"astId": 20,
								"contract": "contracts/twitter/tweet.sol:TweeterContract",
								"label": "createdAt",
								"offset": 0,
								"slot": "4",
								"type": "t_uint256"
							}
						],
						"numberOfBytes": "160"
					},
					"t_struct(Tweet)10_storage": {
						"encoding": "inplace",
						"label": "struct TweeterContract.Tweet",
						"members": [
							{
								"astId": 3,
								"contract": "contracts/twitter/tweet.sol:TweeterContract",
								"label": "id",
								"offset": 0,
								"slot": "0",
								"type": "t_uint256"
							},
							{
								"astId": 5,
								"contract": "contracts/twitter/tweet.sol:TweeterContract",
								"label": "author",
								"offset": 0,
								"slot": "1",
								"type": "t_address"
							},
							{
								"astId": 7,
								"contract": "contracts/twitter/tweet.sol:TweeterContract",
								"label": "content",
								"offset": 0,
								"slot": "2",
								"type": "t_string_storage"
							},
							{
								"astId": 9,
								"contract": "contracts/twitter/tweet.sol:TweeterContract",
								"label": "createdAt",
								"offset": 0,
								"slot": "3",
								"type": "t_uint256"
							}
						],
						"numberOfBytes": "128"
					},
					"t_uint256": {
						"encoding": "inplace",
						"label": "uint256",
						"numberOfBytes": "32"
					}
				}
			},
			"userdoc": {
				"kind": "user",
				"methods": {},
				"version": 1
			}
		}
	}
}