{
	"contracts/OOPS/book.sol": {
		"D": {
			"abi": [
				{
					"inputs": [],
					"name": "getInstances",
					"outputs": [
						{
							"internalType": "contract Book",
							"name": "",
							"type": "address"
						}
					],
					"stateMutability": "view",
					"type": "function"
				},
				{
					"inputs": [],
					"name": "readDimension",
					"outputs": [
						{
							"internalType": "uint256",
							"name": "",
							"type": "uint256"
						},
						{
							"internalType": "uint256",
							"name": "",
							"type": "uint256"
						},
						{
							"internalType": "uint256",
							"name": "",
							"type": "uint256"
						}
					],
					"stateMutability": "view",
					"type": "function"
				},
				{
					"inputs": [
						{
							"internalType": "uint256",
							"name": "_length",
							"type": "uint256"
						},
						{
							"internalType": "uint256",
							"name": "_breadth",
							"type": "uint256"
						},
						{
							"internalType": "uint256",
							"name": "_height",
							"type": "uint256"
						}
					],
					"name": "writeDimension",
					"outputs": [],
					"stateMutability": "nonpayable",
					"type": "function"
				}
			],
			"devdoc": {
				"kind": "dev",
				"methods": {},
				"version": 1
			},
			"evm": {
				"assembly": "    /* \"contracts/OOPS/book.sol\":542:973  contract D{... */\n  mstore(0x40, 0x80)\n    /* \"contracts/OOPS/book.sol\":574:584  new Book() */\n  mload(0x40)\n  tag_1\n  swap1\n  tag_2\n  jump\t// in\ntag_1:\n  mload(0x40)\n  dup1\n  swap2\n  sub\n  swap1\n  0x00\n  create\n  dup1\n  iszero\n  dup1\n  iszero\n  tag_3\n  jumpi\n  returndatacopy(0x00, 0x00, returndatasize)\n  revert(0x00, returndatasize)\ntag_3:\n  pop\n    /* \"contracts/OOPS/book.sol\":563:584  Book obj = new Book() */\n  0x00\n  exp(0x0100, 0x00)\n  dup2\n  sload\n  dup2\n  0xffffffffffffffffffffffffffffffffffffffff\n  mul\n  not\n  and\n  swap1\n  dup4\n  0xffffffffffffffffffffffffffffffffffffffff\n  and\n  mul\n  or\n  swap1\n  sstore\n  pop\n    /* \"contracts/OOPS/book.sol\":542:973  contract D{... */\n  callvalue\n  dup1\n  iszero\n  tag_4\n  jumpi\n  revert(0x00, 0x00)\ntag_4:\n  pop\n  jump(tag_5)\ntag_2:\n  dataSize(sub_1)\n  dup1\n  dataOffset(sub_1)\n  dup4\n  codecopy\n  add\n  swap1\n  jump\t// out\ntag_5:\n  dataSize(sub_0)\n  dup1\n  dataOffset(sub_0)\n  0x00\n  codecopy\n  0x00\n  return\nstop\n\nsub_0: assembly {\n        /* \"contracts/OOPS/book.sol\":542:973  contract D{... */\n      mstore(0x40, 0x80)\n      callvalue\n      dup1\n      iszero\n      tag_1\n      jumpi\n      revert(0x00, 0x00)\n    tag_1:\n      pop\n      jumpi(tag_2, lt(calldatasize, 0x04))\n      shr(0xe0, calldataload(0x00))\n      dup1\n      0x29e2190d\n      eq\n      tag_3\n      jumpi\n      dup1\n      0xa0c6e028\n      eq\n      tag_4\n      jumpi\n      dup1\n      0xd35fdd79\n      eq\n      tag_5\n      jumpi\n    tag_2:\n      revert(0x00, 0x00)\n        /* \"contracts/OOPS/book.sol\":849:966  function readDimension() public view returns(uint , uint , uint ){... */\n    tag_3:\n      tag_6\n      tag_7\n      jump\t// in\n    tag_6:\n      mload(0x40)\n      tag_8\n      swap4\n      swap3\n      swap2\n      swap1\n      tag_9\n      jump\t// in\n    tag_8:\n      mload(0x40)\n      dup1\n      swap2\n      sub\n      swap1\n      return\n        /* \"contracts/OOPS/book.sol\":694:839  function writeDimension(uint _length, uint _breadth, uint _height) external {... */\n    tag_4:\n      tag_10\n      0x04\n      dup1\n      calldatasize\n      sub\n      dup2\n      add\n      swap1\n      tag_11\n      swap2\n      swap1\n      tag_12\n      jump\t// in\n    tag_11:\n      tag_13\n      jump\t// in\n    tag_10:\n      stop\n        /* \"contracts/OOPS/book.sol\":595:684  function getInstances() external view returns (Book){... */\n    tag_5:\n      tag_14\n      tag_15\n      jump\t// in\n    tag_14:\n      mload(0x40)\n      tag_16\n      swap2\n      swap1\n      tag_17\n      jump\t// in\n    tag_16:\n      mload(0x40)\n      dup1\n      swap2\n      sub\n      swap1\n      return\n        /* \"contracts/OOPS/book.sol\":849:966  function readDimension() public view returns(uint , uint , uint ){... */\n    tag_7:\n        /* \"contracts/OOPS/book.sol\":894:898  uint */\n      0x00\n        /* \"contracts/OOPS/book.sol\":901:905  uint */\n      0x00\n        /* \"contracts/OOPS/book.sol\":908:912  uint */\n      0x00\n        /* \"contracts/OOPS/book.sol\":936:939  obj */\n      0x00\n      0x00\n      swap1\n      sload\n      swap1\n      0x0100\n      exp\n      swap1\n      div\n      0xffffffffffffffffffffffffffffffffffffffff\n      and\n        /* \"contracts/OOPS/book.sol\":936:952  obj.getDimension */\n      0xffffffffffffffffffffffffffffffffffffffff\n      and\n      0xf02782dc\n        /* \"contracts/OOPS/book.sol\":936:954  obj.getDimension() */\n      mload(0x40)\n      dup2\n      0xffffffff\n      and\n      0xe0\n      shl\n      dup2\n      mstore\n      0x04\n      add\n      0x60\n      mload(0x40)\n      dup1\n      dup4\n      sub\n      dup2\n      dup7\n      gas\n      staticcall\n      iszero\n      dup1\n      iszero\n      tag_20\n      jumpi\n      returndatacopy(0x00, 0x00, returndatasize)\n      revert(0x00, returndatasize)\n    tag_20:\n      pop\n      pop\n      pop\n      pop\n      mload(0x40)\n      returndatasize\n      not(0x1f)\n      0x1f\n      dup3\n      add\n      and\n      dup3\n      add\n      dup1\n      0x40\n      mstore\n      pop\n      dup2\n      add\n      swap1\n      tag_21\n      swap2\n      swap1\n      tag_22\n      jump\t// in\n    tag_21:\n        /* \"contracts/OOPS/book.sol\":929:954  return obj.getDimension() */\n      swap3\n      pop\n      swap3\n      pop\n      swap3\n      pop\n        /* \"contracts/OOPS/book.sol\":849:966  function readDimension() public view returns(uint , uint , uint ){... */\n      swap1\n      swap2\n      swap3\n      jump\t// out\n        /* \"contracts/OOPS/book.sol\":694:839  function writeDimension(uint _length, uint _breadth, uint _height) external {... */\n    tag_13:\n        /* \"contracts/OOPS/book.sol\":785:788  obj */\n      0x00\n      0x00\n      swap1\n      sload\n      swap1\n      0x0100\n      exp\n      swap1\n      div\n      0xffffffffffffffffffffffffffffffffffffffff\n      and\n        /* \"contracts/OOPS/book.sol\":785:801  obj.setDimension */\n      0xffffffffffffffffffffffffffffffffffffffff\n      and\n      0x4948863c\n        /* \"contracts/OOPS/book.sol\":802:809  _length */\n      dup5\n        /* \"contracts/OOPS/book.sol\":810:818  _breadth */\n      dup5\n        /* \"contracts/OOPS/book.sol\":819:826  _height */\n      dup5\n        /* \"contracts/OOPS/book.sol\":785:827  obj.setDimension(_length,_breadth,_height) */\n      mload(0x40)\n      dup5\n      0xffffffff\n      and\n      0xe0\n      shl\n      dup2\n      mstore\n      0x04\n      add\n      tag_24\n      swap4\n      swap3\n      swap2\n      swap1\n      tag_9\n      jump\t// in\n    tag_24:\n      0x00\n      mload(0x40)\n      dup1\n      dup4\n      sub\n      dup2\n      0x00\n      dup8\n      dup1\n      extcodesize\n      iszero\n      dup1\n      iszero\n      tag_25\n      jumpi\n      revert(0x00, 0x00)\n    tag_25:\n      pop\n      gas\n      call\n      iszero\n      dup1\n      iszero\n      tag_27\n      jumpi\n      returndatacopy(0x00, 0x00, returndatasize)\n      revert(0x00, returndatasize)\n    tag_27:\n      pop\n      pop\n      pop\n      pop\n        /* \"contracts/OOPS/book.sol\":694:839  function writeDimension(uint _length, uint _breadth, uint _height) external {... */\n      pop\n      pop\n      pop\n      jump\t// out\n        /* \"contracts/OOPS/book.sol\":595:684  function getInstances() external view returns (Book){... */\n    tag_15:\n        /* \"contracts/OOPS/book.sol\":642:646  Book */\n      0x00\n        /* \"contracts/OOPS/book.sol\":669:672  obj */\n      0x00\n      0x00\n      swap1\n      sload\n      swap1\n      0x0100\n      exp\n      swap1\n      div\n      0xffffffffffffffffffffffffffffffffffffffff\n      and\n        /* \"contracts/OOPS/book.sol\":662:672  return obj */\n      swap1\n      pop\n        /* \"contracts/OOPS/book.sol\":595:684  function getInstances() external view returns (Book){... */\n      swap1\n      jump\t// out\n        /* \"#utility.yul\":7:84   */\n    tag_29:\n        /* \"#utility.yul\":44:51   */\n      0x00\n        /* \"#utility.yul\":73:78   */\n      dup2\n        /* \"#utility.yul\":62:78   */\n      swap1\n      pop\n        /* \"#utility.yul\":7:84   */\n      swap2\n      swap1\n      pop\n      jump\t// out\n        /* \"#utility.yul\":90:208   */\n    tag_30:\n        /* \"#utility.yul\":177:201   */\n      tag_46\n        /* \"#utility.yul\":195:200   */\n      dup2\n        /* \"#utility.yul\":177:201   */\n      tag_29\n      jump\t// in\n    tag_46:\n        /* \"#utility.yul\":172:175   */\n      dup3\n        /* \"#utility.yul\":165:202   */\n      mstore\n        /* \"#utility.yul\":90:208   */\n      pop\n      pop\n      jump\t// out\n        /* \"#utility.yul\":214:656   */\n    tag_9:\n        /* \"#utility.yul\":363:367   */\n      0x00\n        /* \"#utility.yul\":401:403   */\n      0x60\n        /* \"#utility.yul\":390:399   */\n      dup3\n        /* \"#utility.yul\":386:404   */\n      add\n        /* \"#utility.yul\":378:404   */\n      swap1\n      pop\n        /* \"#utility.yul\":414:485   */\n      tag_48\n        /* \"#utility.yul\":482:483   */\n      0x00\n        /* \"#utility.yul\":471:480   */\n      dup4\n        /* \"#utility.yul\":467:484   */\n      add\n        /* \"#utility.yul\":458:464   */\n      dup7\n        /* \"#utility.yul\":414:485   */\n      tag_30\n      jump\t// in\n    tag_48:\n        /* \"#utility.yul\":495:567   */\n      tag_49\n        /* \"#utility.yul\":563:565   */\n      0x20\n        /* \"#utility.yul\":552:561   */\n      dup4\n        /* \"#utility.yul\":548:566   */\n      add\n        /* \"#utility.yul\":539:545   */\n      dup6\n        /* \"#utility.yul\":495:567   */\n      tag_30\n      jump\t// in\n    tag_49:\n        /* \"#utility.yul\":577:649   */\n      tag_50\n        /* \"#utility.yul\":645:647   */\n      0x40\n        /* \"#utility.yul\":634:643   */\n      dup4\n        /* \"#utility.yul\":630:648   */\n      add\n        /* \"#utility.yul\":621:627   */\n      dup5\n        /* \"#utility.yul\":577:649   */\n      tag_30\n      jump\t// in\n    tag_50:\n        /* \"#utility.yul\":214:656   */\n      swap5\n      swap4\n      pop\n      pop\n      pop\n      pop\n      jump\t// out\n        /* \"#utility.yul\":743:860   */\n    tag_32:\n        /* \"#utility.yul\":852:853   */\n      0x00\n        /* \"#utility.yul\":849:850   */\n      0x00\n        /* \"#utility.yul\":842:854   */\n      revert\n        /* \"#utility.yul\":989:1111   */\n    tag_34:\n        /* \"#utility.yul\":1062:1086   */\n      tag_55\n        /* \"#utility.yul\":1080:1085   */\n      dup2\n        /* \"#utility.yul\":1062:1086   */\n      tag_29\n      jump\t// in\n    tag_55:\n        /* \"#utility.yul\":1055:1060   */\n      dup2\n        /* \"#utility.yul\":1052:1087   */\n      eq\n        /* \"#utility.yul\":1042:1105   */\n      tag_56\n      jumpi\n        /* \"#utility.yul\":1101:1102   */\n      0x00\n        /* \"#utility.yul\":1098:1099   */\n      0x00\n        /* \"#utility.yul\":1091:1103   */\n      revert\n        /* \"#utility.yul\":1042:1105   */\n    tag_56:\n        /* \"#utility.yul\":989:1111   */\n      pop\n      jump\t// out\n        /* \"#utility.yul\":1117:1256   */\n    tag_35:\n        /* \"#utility.yul\":1163:1168   */\n      0x00\n        /* \"#utility.yul\":1201:1207   */\n      dup2\n        /* \"#utility.yul\":1188:1208   */\n      calldataload\n        /* \"#utility.yul\":1179:1208   */\n      swap1\n      pop\n        /* \"#utility.yul\":1217:1250   */\n      tag_58\n        /* \"#utility.yul\":1244:1249   */\n      dup2\n        /* \"#utility.yul\":1217:1250   */\n      tag_34\n      jump\t// in\n    tag_58:\n        /* \"#utility.yul\":1117:1256   */\n      swap3\n      swap2\n      pop\n      pop\n      jump\t// out\n        /* \"#utility.yul\":1262:1881   */\n    tag_12:\n        /* \"#utility.yul\":1339:1345   */\n      0x00\n        /* \"#utility.yul\":1347:1353   */\n      0x00\n        /* \"#utility.yul\":1355:1361   */\n      0x00\n        /* \"#utility.yul\":1404:1406   */\n      0x60\n        /* \"#utility.yul\":1392:1401   */\n      dup5\n        /* \"#utility.yul\":1383:1390   */\n      dup7\n        /* \"#utility.yul\":1379:1402   */\n      sub\n        /* \"#utility.yul\":1375:1407   */\n      slt\n        /* \"#utility.yul\":1372:1491   */\n      iszero\n      tag_60\n      jumpi\n        /* \"#utility.yul\":1410:1489   */\n      tag_61\n      tag_32\n      jump\t// in\n    tag_61:\n        /* \"#utility.yul\":1372:1491   */\n    tag_60:\n        /* \"#utility.yul\":1530:1531   */\n      0x00\n        /* \"#utility.yul\":1555:1608   */\n      tag_62\n        /* \"#utility.yul\":1600:1607   */\n      dup7\n        /* \"#utility.yul\":1591:1597   */\n      dup3\n        /* \"#utility.yul\":1580:1589   */\n      dup8\n        /* \"#utility.yul\":1576:1598   */\n      add\n        /* \"#utility.yul\":1555:1608   */\n      tag_35\n      jump\t// in\n    tag_62:\n        /* \"#utility.yul\":1545:1608   */\n      swap4\n      pop\n        /* \"#utility.yul\":1501:1618   */\n      pop\n        /* \"#utility.yul\":1657:1659   */\n      0x20\n        /* \"#utility.yul\":1683:1736   */\n      tag_63\n        /* \"#utility.yul\":1728:1735   */\n      dup7\n        /* \"#utility.yul\":1719:1725   */\n      dup3\n        /* \"#utility.yul\":1708:1717   */\n      dup8\n        /* \"#utility.yul\":1704:1726   */\n      add\n        /* \"#utility.yul\":1683:1736   */\n      tag_35\n      jump\t// in\n    tag_63:\n        /* \"#utility.yul\":1673:1736   */\n      swap3\n      pop\n        /* \"#utility.yul\":1628:1746   */\n      pop\n        /* \"#utility.yul\":1785:1787   */\n      0x40\n        /* \"#utility.yul\":1811:1864   */\n      tag_64\n        /* \"#utility.yul\":1856:1863   */\n      dup7\n        /* \"#utility.yul\":1847:1853   */\n      dup3\n        /* \"#utility.yul\":1836:1845   */\n      dup8\n        /* \"#utility.yul\":1832:1854   */\n      add\n        /* \"#utility.yul\":1811:1864   */\n      tag_35\n      jump\t// in\n    tag_64:\n        /* \"#utility.yul\":1801:1864   */\n      swap2\n      pop\n        /* \"#utility.yul\":1756:1874   */\n      pop\n        /* \"#utility.yul\":1262:1881   */\n      swap3\n      pop\n      swap3\n      pop\n      swap3\n      jump\t// out\n        /* \"#utility.yul\":1887:2013   */\n    tag_36:\n        /* \"#utility.yul\":1924:1931   */\n      0x00\n        /* \"#utility.yul\":1964:2006   */\n      0xffffffffffffffffffffffffffffffffffffffff\n        /* \"#utility.yul\":1957:1962   */\n      dup3\n        /* \"#utility.yul\":1953:2007   */\n      and\n        /* \"#utility.yul\":1942:2007   */\n      swap1\n      pop\n        /* \"#utility.yul\":1887:2013   */\n      swap2\n      swap1\n      pop\n      jump\t// out\n        /* \"#utility.yul\":2019:2079   */\n    tag_37:\n        /* \"#utility.yul\":2047:2050   */\n      0x00\n        /* \"#utility.yul\":2068:2073   */\n      dup2\n        /* \"#utility.yul\":2061:2073   */\n      swap1\n      pop\n        /* \"#utility.yul\":2019:2079   */\n      swap2\n      swap1\n      pop\n      jump\t// out\n        /* \"#utility.yul\":2085:2227   */\n    tag_38:\n        /* \"#utility.yul\":2135:2144   */\n      0x00\n        /* \"#utility.yul\":2168:2221   */\n      tag_68\n        /* \"#utility.yul\":2186:2220   */\n      tag_69\n        /* \"#utility.yul\":2195:2219   */\n      tag_70\n        /* \"#utility.yul\":2213:2218   */\n      dup5\n        /* \"#utility.yul\":2195:2219   */\n      tag_36\n      jump\t// in\n    tag_70:\n        /* \"#utility.yul\":2186:2220   */\n      tag_37\n      jump\t// in\n    tag_69:\n        /* \"#utility.yul\":2168:2221   */\n      tag_36\n      jump\t// in\n    tag_68:\n        /* \"#utility.yul\":2155:2221   */\n      swap1\n      pop\n        /* \"#utility.yul\":2085:2227   */\n      swap2\n      swap1\n      pop\n      jump\t// out\n        /* \"#utility.yul\":2233:2359   */\n    tag_39:\n        /* \"#utility.yul\":2283:2292   */\n      0x00\n        /* \"#utility.yul\":2316:2353   */\n      tag_72\n        /* \"#utility.yul\":2347:2352   */\n      dup3\n        /* \"#utility.yul\":2316:2353   */\n      tag_38\n      jump\t// in\n    tag_72:\n        /* \"#utility.yul\":2303:2353   */\n      swap1\n      pop\n        /* \"#utility.yul\":2233:2359   */\n      swap2\n      swap1\n      pop\n      jump\t// out\n        /* \"#utility.yul\":2365:2502   */\n    tag_40:\n        /* \"#utility.yul\":2426:2435   */\n      0x00\n        /* \"#utility.yul\":2459:2496   */\n      tag_74\n        /* \"#utility.yul\":2490:2495   */\n      dup3\n        /* \"#utility.yul\":2459:2496   */\n      tag_39\n      jump\t// in\n    tag_74:\n        /* \"#utility.yul\":2446:2496   */\n      swap1\n      pop\n        /* \"#utility.yul\":2365:2502   */\n      swap2\n      swap1\n      pop\n      jump\t// out\n        /* \"#utility.yul\":2508:2661   */\n    tag_41:\n        /* \"#utility.yul\":2606:2654   */\n      tag_76\n        /* \"#utility.yul\":2648:2653   */\n      dup2\n        /* \"#utility.yul\":2606:2654   */\n      tag_40\n      jump\t// in\n    tag_76:\n        /* \"#utility.yul\":2601:2604   */\n      dup3\n        /* \"#utility.yul\":2594:2655   */\n      mstore\n        /* \"#utility.yul\":2508:2661   */\n      pop\n      pop\n      jump\t// out\n        /* \"#utility.yul\":2667:2911   */\n    tag_17:\n        /* \"#utility.yul\":2771:2775   */\n      0x00\n        /* \"#utility.yul\":2809:2811   */\n      0x20\n        /* \"#utility.yul\":2798:2807   */\n      dup3\n        /* \"#utility.yul\":2794:2812   */\n      add\n        /* \"#utility.yul\":2786:2812   */\n      swap1\n      pop\n        /* \"#utility.yul\":2822:2904   */\n      tag_78\n        /* \"#utility.yul\":2901:2902   */\n      0x00\n        /* \"#utility.yul\":2890:2899   */\n      dup4\n        /* \"#utility.yul\":2886:2903   */\n      add\n        /* \"#utility.yul\":2877:2883   */\n      dup5\n        /* \"#utility.yul\":2822:2904   */\n      tag_41\n      jump\t// in\n    tag_78:\n        /* \"#utility.yul\":2667:2911   */\n      swap3\n      swap2\n      pop\n      pop\n      jump\t// out\n        /* \"#utility.yul\":2917:3060   */\n    tag_42:\n        /* \"#utility.yul\":2974:2979   */\n      0x00\n        /* \"#utility.yul\":3005:3011   */\n      dup2\n        /* \"#utility.yul\":2999:3012   */\n      mload\n        /* \"#utility.yul\":2990:3012   */\n      swap1\n      pop\n        /* \"#utility.yul\":3021:3054   */\n      tag_80\n        /* \"#utility.yul\":3048:3053   */\n      dup2\n        /* \"#utility.yul\":3021:3054   */\n      tag_34\n      jump\t// in\n    tag_80:\n        /* \"#utility.yul\":2917:3060   */\n      swap3\n      swap2\n      pop\n      pop\n      jump\t// out\n        /* \"#utility.yul\":3066:3729   */\n    tag_22:\n        /* \"#utility.yul\":3154:3160   */\n      0x00\n        /* \"#utility.yul\":3162:3168   */\n      0x00\n        /* \"#utility.yul\":3170:3176   */\n      0x00\n        /* \"#utility.yul\":3219:3221   */\n      0x60\n        /* \"#utility.yul\":3207:3216   */\n      dup5\n        /* \"#utility.yul\":3198:3205   */\n      dup7\n        /* \"#utility.yul\":3194:3217   */\n      sub\n        /* \"#utility.yul\":3190:3222   */\n      slt\n        /* \"#utility.yul\":3187:3306   */\n      iszero\n      tag_82\n      jumpi\n        /* \"#utility.yul\":3225:3304   */\n      tag_83\n      tag_32\n      jump\t// in\n    tag_83:\n        /* \"#utility.yul\":3187:3306   */\n    tag_82:\n        /* \"#utility.yul\":3345:3346   */\n      0x00\n        /* \"#utility.yul\":3370:3434   */\n      tag_84\n        /* \"#utility.yul\":3426:3433   */\n      dup7\n        /* \"#utility.yul\":3417:3423   */\n      dup3\n        /* \"#utility.yul\":3406:3415   */\n      dup8\n        /* \"#utility.yul\":3402:3424   */\n      add\n        /* \"#utility.yul\":3370:3434   */\n      tag_42\n      jump\t// in\n    tag_84:\n        /* \"#utility.yul\":3360:3434   */\n      swap4\n      pop\n        /* \"#utility.yul\":3316:3444   */\n      pop\n        /* \"#utility.yul\":3483:3485   */\n      0x20\n        /* \"#utility.yul\":3509:3573   */\n      tag_85\n        /* \"#utility.yul\":3565:3572   */\n      dup7\n        /* \"#utility.yul\":3556:3562   */\n      dup3\n        /* \"#utility.yul\":3545:3554   */\n      dup8\n        /* \"#utility.yul\":3541:3563   */\n      add\n        /* \"#utility.yul\":3509:3573   */\n      tag_42\n      jump\t// in\n    tag_85:\n        /* \"#utility.yul\":3499:3573   */\n      swap3\n      pop\n        /* \"#utility.yul\":3454:3583   */\n      pop\n        /* \"#utility.yul\":3622:3624   */\n      0x40\n        /* \"#utility.yul\":3648:3712   */\n      tag_86\n        /* \"#utility.yul\":3704:3711   */\n      dup7\n        /* \"#utility.yul\":3695:3701   */\n      dup3\n        /* \"#utility.yul\":3684:3693   */\n      dup8\n        /* \"#utility.yul\":3680:3702   */\n      add\n        /* \"#utility.yul\":3648:3712   */\n      tag_42\n      jump\t// in\n    tag_86:\n        /* \"#utility.yul\":3638:3712   */\n      swap2\n      pop\n        /* \"#utility.yul\":3593:3722   */\n      pop\n        /* \"#utility.yul\":3066:3729   */\n      swap3\n      pop\n      swap3\n      pop\n      swap3\n      jump\t// out\n\n    auxdata: 0xa264697066735822122035aec52986ea2e1b49686aa1b4a050f4e21aebf2f9fb4a9972389fae6b566ec464736f6c634300081e0033\n}\n\nsub_1: assembly {\n        /* \"contracts/OOPS/book.sol\":164:534  contract Book{... */\n      mstore(0x40, 0x80)\n      callvalue\n      dup1\n      iszero\n      tag_1\n      jumpi\n      revert(0x00, 0x00)\n    tag_1:\n      pop\n      dataSize(sub_0)\n      dup1\n      dataOffset(sub_0)\n      0x00\n      codecopy\n      0x00\n      return\n    stop\n\n    sub_0: assembly {\n            /* \"contracts/OOPS/book.sol\":164:534  contract Book{... */\n          mstore(0x40, 0x80)\n          callvalue\n          dup1\n          iszero\n          tag_1\n          jumpi\n          revert(0x00, 0x00)\n        tag_1:\n          pop\n          jumpi(tag_2, lt(calldatasize, 0x04))\n          shr(0xe0, calldataload(0x00))\n          dup1\n          0x4948863c\n          eq\n          tag_3\n          jumpi\n          dup1\n          0xf02782dc\n          eq\n          tag_4\n          jumpi\n        tag_2:\n          revert(0x00, 0x00)\n            /* \"contracts/OOPS/book.sol\":241:405  function setDimension (uint _length, uint _breadth, uint _height) public {... */\n        tag_3:\n          tag_5\n          0x04\n          dup1\n          calldatasize\n          sub\n          dup2\n          add\n          swap1\n          tag_6\n          swap2\n          swap1\n          tag_7\n          jump\t// in\n        tag_6:\n          tag_8\n          jump\t// in\n        tag_5:\n          stop\n            /* \"contracts/OOPS/book.sol\":413:529  function getDimension () public view returns (uint , uint ,uint ){... */\n        tag_4:\n          tag_9\n          tag_10\n          jump\t// in\n        tag_9:\n          mload(0x40)\n          tag_11\n          swap4\n          swap3\n          swap2\n          swap1\n          tag_12\n          jump\t// in\n        tag_11:\n          mload(0x40)\n          dup1\n          swap2\n          sub\n          swap1\n          return\n            /* \"contracts/OOPS/book.sol\":241:405  function setDimension (uint _length, uint _breadth, uint _height) public {... */\n        tag_8:\n            /* \"contracts/OOPS/book.sol\":334:341  _length */\n          dup3\n            /* \"contracts/OOPS/book.sol\":325:331  length */\n          0x00\n            /* \"contracts/OOPS/book.sol\":325:341  length = _length */\n          dup2\n          swap1\n          sstore\n          pop\n            /* \"contracts/OOPS/book.sol\":362:370  _breadth */\n          dup2\n            /* \"contracts/OOPS/book.sol\":352:359  breadth */\n          0x01\n            /* \"contracts/OOPS/book.sol\":352:370  breadth = _breadth */\n          dup2\n          swap1\n          sstore\n          pop\n            /* \"contracts/OOPS/book.sol\":390:397  _height */\n          dup1\n            /* \"contracts/OOPS/book.sol\":381:387  height */\n          0x02\n            /* \"contracts/OOPS/book.sol\":381:397  height = _height */\n          dup2\n          swap1\n          sstore\n          pop\n            /* \"contracts/OOPS/book.sol\":241:405  function setDimension (uint _length, uint _breadth, uint _height) public {... */\n          pop\n          pop\n          pop\n          jump\t// out\n            /* \"contracts/OOPS/book.sol\":413:529  function getDimension () public view returns (uint , uint ,uint ){... */\n        tag_10:\n            /* \"contracts/OOPS/book.sol\":459:463  uint */\n          0x00\n            /* \"contracts/OOPS/book.sol\":466:470  uint */\n          0x00\n            /* \"contracts/OOPS/book.sol\":472:476  uint */\n          0x00\n            /* \"contracts/OOPS/book.sol\":497:503  length */\n          sload(0x00)\n            /* \"contracts/OOPS/book.sol\":505:512  breadth */\n          sload(0x01)\n            /* \"contracts/OOPS/book.sol\":514:520  height */\n          sload(0x02)\n            /* \"contracts/OOPS/book.sol\":489:521  return (length, breadth, height) */\n          swap3\n          pop\n          swap3\n          pop\n          swap3\n          pop\n            /* \"contracts/OOPS/book.sol\":413:529  function getDimension () public view returns (uint , uint ,uint ){... */\n          swap1\n          swap2\n          swap3\n          jump\t// out\n            /* \"#utility.yul\":88:205   */\n        tag_16:\n            /* \"#utility.yul\":197:198   */\n          0x00\n            /* \"#utility.yul\":194:195   */\n          0x00\n            /* \"#utility.yul\":187:199   */\n          revert\n            /* \"#utility.yul\":334:411   */\n        tag_18:\n            /* \"#utility.yul\":371:378   */\n          0x00\n            /* \"#utility.yul\":400:405   */\n          dup2\n            /* \"#utility.yul\":389:405   */\n          swap1\n          pop\n            /* \"#utility.yul\":334:411   */\n          swap2\n          swap1\n          pop\n          jump\t// out\n            /* \"#utility.yul\":417:539   */\n        tag_19:\n            /* \"#utility.yul\":490:514   */\n          tag_28\n            /* \"#utility.yul\":508:513   */\n          dup2\n            /* \"#utility.yul\":490:514   */\n          tag_18\n          jump\t// in\n        tag_28:\n            /* \"#utility.yul\":483:488   */\n          dup2\n            /* \"#utility.yul\":480:515   */\n          eq\n            /* \"#utility.yul\":470:533   */\n          tag_29\n          jumpi\n            /* \"#utility.yul\":529:530   */\n          0x00\n            /* \"#utility.yul\":526:527   */\n          0x00\n            /* \"#utility.yul\":519:531   */\n          revert\n            /* \"#utility.yul\":470:533   */\n        tag_29:\n            /* \"#utility.yul\":417:539   */\n          pop\n          jump\t// out\n            /* \"#utility.yul\":545:684   */\n        tag_20:\n            /* \"#utility.yul\":591:596   */\n          0x00\n            /* \"#utility.yul\":629:635   */\n          dup2\n            /* \"#utility.yul\":616:636   */\n          calldataload\n            /* \"#utility.yul\":607:636   */\n          swap1\n          pop\n            /* \"#utility.yul\":645:678   */\n          tag_31\n            /* \"#utility.yul\":672:677   */\n          dup2\n            /* \"#utility.yul\":645:678   */\n          tag_19\n          jump\t// in\n        tag_31:\n            /* \"#utility.yul\":545:684   */\n          swap3\n          swap2\n          pop\n          pop\n          jump\t// out\n            /* \"#utility.yul\":690:1309   */\n        tag_7:\n            /* \"#utility.yul\":767:773   */\n          0x00\n            /* \"#utility.yul\":775:781   */\n          0x00\n            /* \"#utility.yul\":783:789   */\n          0x00\n            /* \"#utility.yul\":832:834   */\n          0x60\n            /* \"#utility.yul\":820:829   */\n          dup5\n            /* \"#utility.yul\":811:818   */\n          dup7\n            /* \"#utility.yul\":807:830   */\n          sub\n            /* \"#utility.yul\":803:835   */\n          slt\n            /* \"#utility.yul\":800:919   */\n          iszero\n          tag_33\n          jumpi\n            /* \"#utility.yul\":838:917   */\n          tag_34\n          tag_16\n          jump\t// in\n        tag_34:\n            /* \"#utility.yul\":800:919   */\n        tag_33:\n            /* \"#utility.yul\":958:959   */\n          0x00\n            /* \"#utility.yul\":983:1036   */\n          tag_35\n            /* \"#utility.yul\":1028:1035   */\n          dup7\n            /* \"#utility.yul\":1019:1025   */\n          dup3\n            /* \"#utility.yul\":1008:1017   */\n          dup8\n            /* \"#utility.yul\":1004:1026   */\n          add\n            /* \"#utility.yul\":983:1036   */\n          tag_20\n          jump\t// in\n        tag_35:\n            /* \"#utility.yul\":973:1036   */\n          swap4\n          pop\n            /* \"#utility.yul\":929:1046   */\n          pop\n            /* \"#utility.yul\":1085:1087   */\n          0x20\n            /* \"#utility.yul\":1111:1164   */\n          tag_36\n            /* \"#utility.yul\":1156:1163   */\n          dup7\n            /* \"#utility.yul\":1147:1153   */\n          dup3\n            /* \"#utility.yul\":1136:1145   */\n          dup8\n            /* \"#utility.yul\":1132:1154   */\n          add\n            /* \"#utility.yul\":1111:1164   */\n          tag_20\n          jump\t// in\n        tag_36:\n            /* \"#utility.yul\":1101:1164   */\n          swap3\n          pop\n            /* \"#utility.yul\":1056:1174   */\n          pop\n            /* \"#utility.yul\":1213:1215   */\n          0x40\n            /* \"#utility.yul\":1239:1292   */\n          tag_37\n            /* \"#utility.yul\":1284:1291   */\n          dup7\n            /* \"#utility.yul\":1275:1281   */\n          dup3\n            /* \"#utility.yul\":1264:1273   */\n          dup8\n            /* \"#utility.yul\":1260:1282   */\n          add\n            /* \"#utility.yul\":1239:1292   */\n          tag_20\n          jump\t// in\n        tag_37:\n            /* \"#utility.yul\":1229:1292   */\n          swap2\n          pop\n            /* \"#utility.yul\":1184:1302   */\n          pop\n            /* \"#utility.yul\":690:1309   */\n          swap3\n          pop\n          swap3\n          pop\n          swap3\n          jump\t// out\n            /* \"#utility.yul\":1315:1433   */\n        tag_21:\n            /* \"#utility.yul\":1402:1426   */\n          tag_39\n            /* \"#utility.yul\":1420:1425   */\n          dup2\n            /* \"#utility.yul\":1402:1426   */\n          tag_18\n          jump\t// in\n        tag_39:\n            /* \"#utility.yul\":1397:1400   */\n          dup3\n            /* \"#utility.yul\":1390:1427   */\n          mstore\n            /* \"#utility.yul\":1315:1433   */\n          pop\n          pop\n          jump\t// out\n            /* \"#utility.yul\":1439:1881   */\n        tag_12:\n            /* \"#utility.yul\":1588:1592   */\n          0x00\n            /* \"#utility.yul\":1626:1628   */\n          0x60\n            /* \"#utility.yul\":1615:1624   */\n          dup3\n            /* \"#utility.yul\":1611:1629   */\n          add\n            /* \"#utility.yul\":1603:1629   */\n          swap1\n          pop\n            /* \"#utility.yul\":1639:1710   */\n          tag_41\n            /* \"#utility.yul\":1707:1708   */\n          0x00\n            /* \"#utility.yul\":1696:1705   */\n          dup4\n            /* \"#utility.yul\":1692:1709   */\n          add\n            /* \"#utility.yul\":1683:1689   */\n          dup7\n            /* \"#utility.yul\":1639:1710   */\n          tag_21\n          jump\t// in\n        tag_41:\n            /* \"#utility.yul\":1720:1792   */\n          tag_42\n            /* \"#utility.yul\":1788:1790   */\n          0x20\n            /* \"#utility.yul\":1777:1786   */\n          dup4\n            /* \"#utility.yul\":1773:1791   */\n          add\n            /* \"#utility.yul\":1764:1770   */\n          dup6\n            /* \"#utility.yul\":1720:1792   */\n          tag_21\n          jump\t// in\n        tag_42:\n            /* \"#utility.yul\":1802:1874   */\n          tag_43\n            /* \"#utility.yul\":1870:1872   */\n          0x40\n            /* \"#utility.yul\":1859:1868   */\n          dup4\n            /* \"#utility.yul\":1855:1873   */\n          add\n            /* \"#utility.yul\":1846:1852   */\n          dup5\n            /* \"#utility.yul\":1802:1874   */\n          tag_21\n          jump\t// in\n        tag_43:\n            /* \"#utility.yul\":1439:1881   */\n          swap5\n          swap4\n          pop\n          pop\n          pop\n          pop\n          jump\t// out\n\n        auxdata: 0xa26469706673582212201a8b6f6c52bfe230c48d13cc35a2d7bbbccf20c01ca01cef97551c97e912802c64736f6c634300081e0033\n    }\n}\n",
				"bytecode": {
					"linkReferences": {},
					"object": "6080604052604051600e906074565b604051809103905ff0801580156026573d5f5f3e3d5ffd5b505f5f6101000a81548173ffffffffffffffffffffffffffffffffffffffff021916908373ffffffffffffffffffffffffffffffffffffffff160217905550348015606f575f5ffd5b506081565b6101c08061047483390190565b6103e68061008e5f395ff3fe608060405234801561000f575f5ffd5b506004361061003f575f3560e01c806329e2190d14610043578063a0c6e02814610063578063d35fdd791461007f575b5f5ffd5b61004b61009d565b60405161005a93929190610206565b60405180910390f35b61007d60048036038101906100789190610269565b610138565b005b6100876101c7565b6040516100949190610333565b60405180910390f35b5f5f5f5f5f9054906101000a900473ffffffffffffffffffffffffffffffffffffffff1673ffffffffffffffffffffffffffffffffffffffff1663f02782dc6040518163ffffffff1660e01b8152600401606060405180830381865afa158015610109573d5f5f3e3d5ffd5b505050506040513d601f19601f8201168201806040525081019061012d9190610360565b925092509250909192565b5f5f9054906101000a900473ffffffffffffffffffffffffffffffffffffffff1673ffffffffffffffffffffffffffffffffffffffff16634948863c8484846040518463ffffffff1660e01b815260040161019593929190610206565b5f604051808303815f87803b1580156101ac575f5ffd5b505af11580156101be573d5f5f3e3d5ffd5b50505050505050565b5f5f5f9054906101000a900473ffffffffffffffffffffffffffffffffffffffff16905090565b5f819050919050565b610200816101ee565b82525050565b5f6060820190506102195f8301866101f7565b61022660208301856101f7565b61023360408301846101f7565b949350505050565b5f5ffd5b610248816101ee565b8114610252575f5ffd5b50565b5f813590506102638161023f565b92915050565b5f5f5f606084860312156102805761027f61023b565b5b5f61028d86828701610255565b935050602061029e86828701610255565b92505060406102af86828701610255565b9150509250925092565b5f73ffffffffffffffffffffffffffffffffffffffff82169050919050565b5f819050919050565b5f6102fb6102f66102f1846102b9565b6102d8565b6102b9565b9050919050565b5f61030c826102e1565b9050919050565b5f61031d82610302565b9050919050565b61032d81610313565b82525050565b5f6020820190506103465f830184610324565b92915050565b5f8151905061035a8161023f565b92915050565b5f5f5f606084860312156103775761037661023b565b5b5f6103848682870161034c565b93505060206103958682870161034c565b92505060406103a68682870161034c565b915050925092509256fea264697066735822122035aec52986ea2e1b49686aa1b4a050f4e21aebf2f9fb4a9972389fae6b566ec464736f6c634300081e00336080604052348015600e575f5ffd5b506101a48061001c5f395ff3fe608060405234801561000f575f5ffd5b5060043610610034575f3560e01c80634948863c14610038578063f02782dc14610054575b5f5ffd5b610052600480360381019061004d91906100da565b610074565b005b61005c61008d565b60405161006b93929190610139565b60405180910390f35b825f819055508160018190555080600281905550505050565b5f5f5f5f54600154600254925092509250909192565b5f5ffd5b5f819050919050565b6100b9816100a7565b81146100c3575f5ffd5b50565b5f813590506100d4816100b0565b92915050565b5f5f5f606084860312156100f1576100f06100a3565b5b5f6100fe868287016100c6565b935050602061010f868287016100c6565b9250506040610120868287016100c6565b9150509250925092565b610133816100a7565b82525050565b5f60608201905061014c5f83018661012a565b610159602083018561012a565b610166604083018461012a565b94935050505056fea26469706673582212201a8b6f6c52bfe230c48d13cc35a2d7bbbccf20c01ca01cef97551c97e912802c64736f6c634300081e0033",
					"opcodes": "PUSH1 0x80 PUSH1 0x40 MSTORE PUSH1 0x40 MLOAD PUSH1 0xE SWAP1 PUSH1 0x74 JUMP JUMPDEST PUSH1 0x40 MLOAD DUP1 SWAP2 SUB SWAP1 PUSH0 CREATE DUP1 ISZERO DUP1 ISZERO PUSH1 0x26 JUMPI RETURNDATASIZE PUSH0 PUSH0 RETURNDATACOPY RETURNDATASIZE PUSH0 REVERT JUMPDEST POP PUSH0 PUSH0 PUSH2 0x100 EXP DUP2 SLOAD DUP2 PUSH20 0xFFFFFFFFFFFFFFFFFFFFFFFFFFFFFFFFFFFFFFFF MUL NOT AND SWAP1 DUP4 PUSH20 0xFFFFFFFFFFFFFFFFFFFFFFFFFFFFFFFFFFFFFFFF AND MUL OR SWAP1 SSTORE POP CALLVALUE DUP1 ISZERO PUSH1 0x6F JUMPI PUSH0 PUSH0 REVERT JUMPDEST POP PUSH1 0x81 JUMP JUMPDEST PUSH2 0x1C0 DUP1 PUSH2 0x474 DUP4 CODECOPY ADD SWAP1 JUMP JUMPDEST PUSH2 0x3E6 DUP1 PUSH2 0x8E PUSH0 CODECOPY PUSH0 RETURN INVALID PUSH1 0x80 PUSH1 0x40 MSTORE CALLVALUE DUP1 ISZERO PUSH2 0xF JUMPI PUSH0 PUSH0 REVERT JUMPDEST POP PUSH1 0x4 CALLDATASIZE LT PUSH2 0x3F JUMPI PUSH0 CALLDATALOAD PUSH1 0xE0 SHR DUP1 PUSH4 0x29E2190D EQ PUSH2 0x43 JUMPI DUP1 PUSH4 0xA0C6E028 EQ PUSH2 0x63 JUMPI DUP1 PUSH4 0xD35FDD79 EQ PUSH2 0x7F JUMPI JUMPDEST PUSH0 PUSH0 REVERT JUMPDEST PUSH2 0x4B PUSH2 0x9D JUMP JUMPDEST PUSH1 0x40 MLOAD PUSH2 0x5A SWAP4 SWAP3 SWAP2 SWAP1 PUSH2 0x206 JUMP JUMPDEST PUSH1 0x40 MLOAD DUP1 SWAP2 SUB SWAP1 RETURN JUMPDEST PUSH2 0x7D PUSH1 0x4 DUP1 CALLDATASIZE SUB DUP2 ADD SWAP1 PUSH2 0x78 SWAP2 SWAP1 PUSH2 0x269 JUMP JUMPDEST PUSH2 0x138 JUMP JUMPDEST STOP JUMPDEST PUSH2 0x87 PUSH2 0x1C7 JUMP JUMPDEST PUSH1 0x40 MLOAD PUSH2 0x94 SWAP2 SWAP1 PUSH2 0x333 JUMP JUMPDEST PUSH1 0x40 MLOAD DUP1 SWAP2 SUB SWAP1 RETURN JUMPDEST PUSH0 PUSH0 PUSH0 PUSH0 PUSH0 SWAP1 SLOAD SWAP1 PUSH2 0x100 EXP SWAP1 DIV PUSH20 0xFFFFFFFFFFFFFFFFFFFFFFFFFFFFFFFFFFFFFFFF AND PUSH20 0xFFFFFFFFFFFFFFFFFFFFFFFFFFFFFFFFFFFFFFFF AND PUSH4 0xF02782DC PUSH1 0x40 MLOAD DUP2 PUSH4 0xFFFFFFFF AND PUSH1 0xE0 SHL DUP2 MSTORE PUSH1 0x4 ADD PUSH1 0x60 PUSH1 0x40 MLOAD DUP1 DUP4 SUB DUP2 DUP7 GAS STATICCALL ISZERO DUP1 ISZERO PUSH2 0x109 JUMPI RETURNDATASIZE PUSH0 PUSH0 RETURNDATACOPY RETURNDATASIZE PUSH0 REVERT JUMPDEST POP POP POP POP PUSH1 0x40 MLOAD RETURNDATASIZE PUSH1 0x1F NOT PUSH1 0x1F DUP3 ADD AND DUP3 ADD DUP1 PUSH1 0x40 MSTORE POP DUP2 ADD SWAP1 PUSH2 0x12D SWAP2 SWAP1 PUSH2 0x360 JUMP JUMPDEST SWAP3 POP SWAP3 POP SWAP3 POP SWAP1 SWAP2 SWAP3 JUMP JUMPDEST PUSH0 PUSH0 SWAP1 SLOAD SWAP1 PUSH2 0x100 EXP SWAP1 DIV PUSH20 0xFFFFFFFFFFFFFFFFFFFFFFFFFFFFFFFFFFFFFFFF AND PUSH20 0xFFFFFFFFFFFFFFFFFFFFFFFFFFFFFFFFFFFFFFFF AND PUSH4 0x4948863C DUP5 DUP5 DUP5 PUSH1 0x40 MLOAD DUP5 PUSH4 0xFFFFFFFF AND PUSH1 0xE0 SHL DUP2 MSTORE PUSH1 0x4 ADD PUSH2 0x195 SWAP4 SWAP3 SWAP2 SWAP1 PUSH2 0x206 JUMP JUMPDEST PUSH0 PUSH1 0x40 MLOAD DUP1 DUP4 SUB DUP2 PUSH0 DUP8 DUP1 EXTCODESIZE ISZERO DUP1 ISZERO PUSH2 0x1AC JUMPI PUSH0 PUSH0 REVERT JUMPDEST POP GAS CALL ISZERO DUP1 ISZERO PUSH2 0x1BE JUMPI RETURNDATASIZE PUSH0 PUSH0 RETURNDATACOPY RETURNDATASIZE PUSH0 REVERT JUMPDEST POP POP POP POP POP POP POP JUMP JUMPDEST PUSH0 PUSH0 PUSH0 SWAP1 SLOAD SWAP1 PUSH2 0x100 EXP SWAP1 DIV PUSH20 0xFFFFFFFFFFFFFFFFFFFFFFFFFFFFFFFFFFFFFFFF AND SWAP1 POP SWAP1 JUMP JUMPDEST PUSH0 DUP2 SWAP1 POP SWAP2 SWAP1 POP JUMP JUMPDEST PUSH2 0x200 DUP2 PUSH2 0x1EE JUMP JUMPDEST DUP3 MSTORE POP POP JUMP JUMPDEST PUSH0 PUSH1 0x60 DUP3 ADD SWAP1 POP PUSH2 0x219 PUSH0 DUP4 ADD DUP7 PUSH2 0x1F7 JUMP JUMPDEST PUSH2 0x226 PUSH1 0x20 DUP4 ADD DUP6 PUSH2 0x1F7 JUMP JUMPDEST PUSH2 0x233 PUSH1 0x40 DUP4 ADD DUP5 PUSH2 0x1F7 JUMP JUMPDEST SWAP5 SWAP4 POP POP POP POP JUMP JUMPDEST PUSH0 PUSH0 REVERT JUMPDEST PUSH2 0x248 DUP2 PUSH2 0x1EE JUMP JUMPDEST DUP2 EQ PUSH2 0x252 JUMPI PUSH0 PUSH0 REVERT JUMPDEST POP JUMP JUMPDEST PUSH0 DUP2 CALLDATALOAD SWAP1 POP PUSH2 0x263 DUP2 PUSH2 0x23F JUMP JUMPDEST SWAP3 SWAP2 POP POP JUMP JUMPDEST PUSH0 PUSH0 PUSH0 PUSH1 0x60 DUP5 DUP7 SUB SLT ISZERO PUSH2 0x280 JUMPI PUSH2 0x27F PUSH2 0x23B JUMP JUMPDEST JUMPDEST PUSH0 PUSH2 0x28D DUP7 DUP3 DUP8 ADD PUSH2 0x255 JUMP JUMPDEST SWAP4 POP POP PUSH1 0x20 PUSH2 0x29E DUP7 DUP3 DUP8 ADD PUSH2 0x255 JUMP JUMPDEST SWAP3 POP POP PUSH1 0x40 PUSH2 0x2AF DUP7 DUP3 DUP8 ADD PUSH2 0x255 JUMP JUMPDEST SWAP2 POP POP SWAP3 POP SWAP3 POP SWAP3 JUMP JUMPDEST PUSH0 PUSH20 0xFFFFFFFFFFFFFFFFFFFFFFFFFFFFFFFFFFFFFFFF DUP3 AND SWAP1 POP SWAP2 SWAP1 POP JUMP JUMPDEST PUSH0 DUP2 SWAP1 POP SWAP2 SWAP1 POP JUMP JUMPDEST PUSH0 PUSH2 0x2FB PUSH2 0x2F6 PUSH2 0x2F1 DUP5 PUSH2 0x2B9 JUMP JUMPDEST PUSH2 0x2D8 JUMP JUMPDEST PUSH2 0x2B9 JUMP JUMPDEST SWAP1 POP SWAP2 SWAP1 POP JUMP JUMPDEST PUSH0 PUSH2 0x30C DUP3 PUSH2 0x2E1 JUMP JUMPDEST SWAP1 POP SWAP2 SWAP1 POP JUMP JUMPDEST PUSH0 PUSH2 0x31D DUP3 PUSH2 0x302 JUMP JUMPDEST SWAP1 POP SWAP2 SWAP1 POP JUMP JUMPDEST PUSH2 0x32D DUP2 PUSH2 0x313 JUMP JUMPDEST DUP3 MSTORE POP POP JUMP JUMPDEST PUSH0 PUSH1 0x20 DUP3 ADD SWAP1 POP PUSH2 0x346 PUSH0 DUP4 ADD DUP5 PUSH2 0x324 JUMP JUMPDEST SWAP3 SWAP2 POP POP JUMP JUMPDEST PUSH0 DUP2 MLOAD SWAP1 POP PUSH2 0x35A DUP2 PUSH2 0x23F JUMP JUMPDEST SWAP3 SWAP2 POP POP JUMP JUMPDEST PUSH0 PUSH0 PUSH0 PUSH1 0x60 DUP5 DUP7 SUB SLT ISZERO PUSH2 0x377 JUMPI PUSH2 0x376 PUSH2 0x23B JUMP JUMPDEST JUMPDEST PUSH0 PUSH2 0x384 DUP7 DUP3 DUP8 ADD PUSH2 0x34C JUMP JUMPDEST SWAP4 POP POP PUSH1 0x20 PUSH2 0x395 DUP7 DUP3 DUP8 ADD PUSH2 0x34C JUMP JUMPDEST SWAP3 POP POP PUSH1 0x40 PUSH2 0x3A6 DUP7 DUP3 DUP8 ADD PUSH2 0x34C JUMP JUMPDEST SWAP2 POP POP SWAP3 POP SWAP3 POP SWAP3 JUMP INVALID LOG2 PUSH5 0x6970667358 0x22 SLT KECCAK256 CALLDATALOAD 0xAE 0xC5 0x29 DUP7 0xEA 0x2E SHL BLOBHASH PUSH9 0x6AA1B4A050F4E21AEB CALLCODE EXTDELEGATECALL EXTSTATICCALL BLOBBASEFEE SWAP10 PUSH19 0x389FAE6B566EC464736F6C634300081E003360 DUP1 PUSH1 0x40 MSTORE CALLVALUE DUP1 ISZERO PUSH1 0xE JUMPI PUSH0 PUSH0 REVERT JUMPDEST POP PUSH2 0x1A4 DUP1 PUSH2 0x1C PUSH0 CODECOPY PUSH0 RETURN INVALID PUSH1 0x80 PUSH1 0x40 MSTORE CALLVALUE DUP1 ISZERO PUSH2 0xF JUMPI PUSH0 PUSH0 REVERT JUMPDEST POP PUSH1 0x4 CALLDATASIZE LT PUSH2 0x34 JUMPI PUSH0 CALLDATALOAD PUSH1 0xE0 SHR DUP1 PUSH4 0x4948863C EQ PUSH2 0x38 JUMPI DUP1 PUSH4 0xF02782DC EQ PUSH2 0x54 JUMPI JUMPDEST PUSH0 PUSH0 REVERT JUMPDEST PUSH2 0x52 PUSH1 0x4 DUP1 CALLDATASIZE SUB DUP2 ADD SWAP1 PUSH2 0x4D SWAP2 SWAP1 PUSH2 0xDA JUMP JUMPDEST PUSH2 0x74 JUMP JUMPDEST STOP JUMPDEST PUSH2 0x5C PUSH2 0x8D JUMP JUMPDEST PUSH1 0x40 MLOAD PUSH2 0x6B SWAP4 SWAP3 SWAP2 SWAP1 PUSH2 0x139 JUMP JUMPDEST PUSH1 0x40 MLOAD DUP1 SWAP2 SUB SWAP1 RETURN JUMPDEST DUP3 PUSH0 DUP2 SWAP1 SSTORE POP DUP2 PUSH1 0x1 DUP2 SWAP1 SSTORE POP DUP1 PUSH1 0x2 DUP2 SWAP1 SSTORE POP POP POP POP JUMP JUMPDEST PUSH0 PUSH0 PUSH0 PUSH0 SLOAD PUSH1 0x1 SLOAD PUSH1 0x2 SLOAD SWAP3 POP SWAP3 POP SWAP3 POP SWAP1 SWAP2 SWAP3 JUMP JUMPDEST PUSH0 PUSH0 REVERT JUMPDEST PUSH0 DUP2 SWAP1 POP SWAP2 SWAP1 POP JUMP JUMPDEST PUSH2 0xB9 DUP2 PUSH2 0xA7 JUMP JUMPDEST DUP2 EQ PUSH2 0xC3 JUMPI PUSH0 PUSH0 REVERT JUMPDEST POP JUMP JUMPDEST PUSH0 DUP2 CALLDATALOAD SWAP1 POP PUSH2 0xD4 DUP2 PUSH2 0xB0 JUMP JUMPDEST SWAP3 SWAP2 POP POP JUMP JUMPDEST PUSH0 PUSH0 PUSH0 PUSH1 0x60 DUP5 DUP7 SUB SLT ISZERO PUSH2 0xF1 JUMPI PUSH2 0xF0 PUSH2 0xA3 JUMP JUMPDEST JUMPDEST PUSH0 PUSH2 0xFE DUP7 DUP3 DUP8 ADD PUSH2 0xC6 JUMP JUMPDEST SWAP4 POP POP PUSH1 0x20 PUSH2 0x10F DUP7 DUP3 DUP8 ADD PUSH2 0xC6 JUMP JUMPDEST SWAP3 POP POP PUSH1 0x40 PUSH2 0x120 DUP7 DUP3 DUP8 ADD PUSH2 0xC6 JUMP JUMPDEST SWAP2 POP POP SWAP3 POP SWAP3 POP SWAP3 JUMP JUMPDEST PUSH2 0x133 DUP2 PUSH2 0xA7 JUMP JUMPDEST DUP3 MSTORE POP POP JUMP JUMPDEST PUSH0 PUSH1 0x60 DUP3 ADD SWAP1 POP PUSH2 0x14C PUSH0 DUP4 ADD DUP7 PUSH2 0x12A JUMP JUMPDEST PUSH2 0x159 PUSH1 0x20 DUP4 ADD DUP6 PUSH2 0x12A JUMP JUMPDEST PUSH2 0x166 PUSH1 0x40 DUP4 ADD DUP5 PUSH2 0x12A JUMP JUMPDEST SWAP5 SWAP4 POP POP POP POP JUMP INVALID LOG2 PUSH5 0x6970667358 0x22 SLT KECCAK256 BYTE DUP12 PUSH16 0x6C52BFE230C48D13CC35A2D7BBBCCF20 0xC0 SHR LOG0 SHR 0xEF SWAP8 SSTORE SHR SWAP8 0xE9 SLT DUP1 0x2C PUSH5 0x736F6C6343 STOP ADDMOD 0x1E STOP CALLER "
				},
				"gasEstimates": {
					"creation": {
						"codeDepositCost": "199600",
						"executionCost": "infinite",
						"totalCost": "infinite"
					},
					"external": {
						"getInstances()": "infinite",
						"readDimension()": "infinite",
						"writeDimension(uint256,uint256,uint256)": "infinite"
					}
				},
				"methodIdentifiers": {
					"getInstances()": "d35fdd79",
					"readDimension()": "29e2190d",
					"writeDimension(uint256,uint256,uint256)": "a0c6e028"
				}
			},
			"storageLayout": {
				"storage": [
					{
						"astId": 52,
						"contract": "contracts/OOPS/book.sol:D",
						"label": "obj",
						"offset": 0,
						"slot": "0",
						"type": "t_contract(Book)45"
					}
				],
				"types": {
					"t_contract(Book)45": {
						"encoding": "inplace",
						"label": "contract Book",
						"numberOfBytes": "20"
					}
				}
			},
			"userdoc": {
				"kind": "user",
				"methods": {},
				"version": 1
			}
		}
	}
}