{
	"contracts/Wallet/wallet.sol": {
		"SimpleWallet": {
			"abi": [
				{
					"inputs": [],
					"stateMutability": "nonpayable",
					"type": "constructor"
				},
				{
					"anonymous": false,
					"inputs": [
						{
							"indexed": false,
							"internalType": "bool",
							"name": "status",
							"type": "bool"
						}
					],
					"name": "EmergencyStatusChanged",
					"type": "event"
				},
				{
					"anonymous": false,
					"inputs": [
						{
							"indexed": false,
							"internalType": "address",
							"name": "sender",
							"type": "address"
						},
						{
							"indexed": false,
							"internalType": "uint256",
							"name": "amount",
							"type": "uint256"
						}
					],
					"name": "Receiver",
					"type": "event"
				},
				{
					"anonymous": false,
					"inputs": [
						{
							"indexed": false,
							"internalType": "address",
							"name": "sender",
							"type": "address"
						},
						{
							"indexed": false,
							"internalType": "address",
							"name": "receiver",
							"type": "address"
						},
						{
							"indexed": false,
							"internalType": "uint256",
							"name": "amount",
							"type": "uint256"
						}
					],
					"name": "ReceiverUser",
					"type": "event"
				},
				{
					"anonymous": false,
					"inputs": [
						{
							"indexed": false,
							"internalType": "address",
							"name": "receiver",
							"type": "address"
						},
						{
							"indexed": false,
							"internalType": "uint256",
							"name": "amount",
							"type": "uint256"
						}
					],
					"name": "Transfer",
					"type": "event"
				},
				{
					"stateMutability": "payable",
					"type": "fallback"
				},
				{
					"inputs": [
						{
							"internalType": "address",
							"name": "newOwner",
							"type": "address"
						}
					],
					"name": "changeOwner",
					"outputs": [],
					"stateMutability": "nonpayable",
					"type": "function"
				},
				{
					"inputs": [],
					"name": "emergencyWithdraw",
					"outputs": [],
					"stateMutability": "nonpayable",
					"type": "function"
				},
				{
					"inputs": [],
					"name": "getContractBalanceInWei",
					"outputs": [
						{
							"internalType": "uint256",
							"name": "",
							"type": "uint256"
						}
					],
					"stateMutability": "view",
					"type": "function"
				},
				{
					"inputs": [],
					"name": "getOwnerBalanceWei",
					"outputs": [
						{
							"internalType": "uint256",
							"name": "",
							"type": "uint256"
						}
					],
					"stateMutability": "view",
					"type": "function"
				},
				{
					"inputs": [],
					"name": "getTransactionHistory",
					"outputs": [
						{
							"components": [
								{
									"internalType": "address",
									"name": "from",
									"type": "address"
								},
								{
									"internalType": "address",
									"name": "to",
									"type": "address"
								},
								{
									"internalType": "uint256",
									"name": "timestamp",
									"type": "uint256"
								},
								{
									"internalType": "uint256",
									"name": "amount",
									"type": "uint256"
								}
							],
							"internalType": "struct SimpleWallet.Transaction[]",
							"name": "",
							"type": "tuple[]"
						}
					],
					"stateMutability": "view",
					"type": "function"
				},
				{
					"inputs": [],
					"name": "owner",
					"outputs": [
						{
							"internalType": "address",
							"name": "",
							"type": "address"
						}
					],
					"stateMutability": "view",
					"type": "function"
				},
				{
					"inputs": [],
					"name": "receiveFromUser",
					"outputs": [],
					"stateMutability": "payable",
					"type": "function"
				},
				{
					"inputs": [],
					"name": "stop",
					"outputs": [
						{
							"internalType": "bool",
							"name": "",
							"type": "bool"
						}
					],
					"stateMutability": "view",
					"type": "function"
				},
				{
					"inputs": [
						{
							"internalType": "address",
							"name": "_sender",
							"type": "address"
						}
					],
					"name": "suspiciousActivity",
					"outputs": [],
					"stateMutability": "nonpayable",
					"type": "function"
				},
				{
					"inputs": [
						{
							"internalType": "address",
							"name": "",
							"type": "address"
						}
					],
					"name": "suspiciousUser",
					"outputs": [
						{
							"internalType": "uint256",
							"name": "",
							"type": "uint256"
						}
					],
					"stateMutability": "view",
					"type": "function"
				},
				{
					"inputs": [],
					"name": "toggleStop",
					"outputs": [],
					"stateMutability": "nonpayable",
					"type": "function"
				},
				{
					"inputs": [
						{
							"internalType": "uint256",
							"name": "",
							"type": "uint256"
						}
					],
					"name": "transactionHistory",
					"outputs": [
						{
							"internalType": "address",
							"name": "from",
							"type": "address"
						},
						{
							"internalType": "address",
							"name": "to",
							"type": "address"
						},
						{
							"internalType": "uint256",
							"name": "timestamp",
							"type": "uint256"
						},
						{
							"internalType": "uint256",
							"name": "amount",
							"type": "uint256"
						}
					],
					"stateMutability": "view",
					"type": "function"
				},
				{
					"inputs": [
						{
							"internalType": "uint256",
							"name": "_startTime",
							"type": "uint256"
						}
					],
					"name": "transferToContract",
					"outputs": [],
					"stateMutability": "payable",
					"type": "function"
				},
				{
					"inputs": [
						{
							"internalType": "address payable",
							"name": "_to",
							"type": "address"
						},
						{
							"internalType": "uint256",
							"name": "_weiAmount",
							"type": "uint256"
						}
					],
					"name": "transferToUserViaContract",
					"outputs": [],
					"stateMutability": "nonpayable",
					"type": "function"
				},
				{
					"inputs": [
						{
							"internalType": "address",
							"name": "_to",
							"type": "address"
						}
					],
					"name": "transferToUserViaMsgValue",
					"outputs": [],
					"stateMutability": "payable",
					"type": "function"
				},
				{
					"inputs": [
						{
							"internalType": "uint256",
							"name": "_weiAmount",
							"type": "uint256"
						}
					],
					"name": "withdrawFromContract",
					"outputs": [],
					"stateMutability": "nonpayable",
					"type": "function"
				},
				{
					"stateMutability": "payable",
					"type": "receive"
				}
			],
			"devdoc": {
				"kind": "dev",
				"methods": {},
				"version": 1
			},
			"evm": {
				"assembly": "    /* \"contracts/Wallet/wallet.sol\":72:4011  contract SimpleWallet {... */\n  mstore(0x40, 0x80)\n    /* \"contracts/Wallet/wallet.sol\":551:602  constructor() {... */\n  callvalue\n  dup1\n  iszero\n  tag_1\n  jumpi\n  revert(0x00, 0x00)\ntag_1:\n  pop\n    /* \"contracts/Wallet/wallet.sol\":584:594  msg.sender */\n  caller\n    /* \"contracts/Wallet/wallet.sol\":576:581  owner */\n  0x01\n  0x00\n    /* \"contracts/Wallet/wallet.sol\":576:594  owner = msg.sender */\n  0x0100\n  exp\n  dup2\n  sload\n  dup2\n  0xffffffffffffffffffffffffffffffffffffffff\n  mul\n  not\n  and\n  swap1\n  dup4\n  0xffffffffffffffffffffffffffffffffffffffff\n  and\n  mul\n  or\n  swap1\n  sstore\n  pop\n    /* \"contracts/Wallet/wallet.sol\":72:4011  contract SimpleWallet {... */\n  dataSize(sub_0)\n  dup1\n  dataOffset(sub_0)\n  0x00\n  codecopy\n  0x00\n  return\nstop\n\nsub_0: assembly {\n        /* \"contracts/Wallet/wallet.sol\":72:4011  contract SimpleWallet {... */\n      mstore(0x40, 0x80)\n      jumpi(tag_1, lt(calldatasize, 0x04))\n      shr(0xe0, calldataload(0x00))\n      dup1\n      0xb76d4fc3\n      gt\n      tag_19\n      jumpi\n      dup1\n      0xd2b53948\n      gt\n      tag_20\n      jumpi\n      dup1\n      0xd2b53948\n      eq\n      tag_15\n      jumpi\n      dup1\n      0xd555d473\n      eq\n      tag_16\n      jumpi\n      dup1\n      0xdb2e21bc\n      eq\n      tag_17\n      jumpi\n      dup1\n      0xe7c54d0c\n      eq\n      tag_18\n      jumpi\n      jump(tag_2)\n    tag_20:\n      dup1\n      0xb76d4fc3\n      eq\n      tag_11\n      jumpi\n      dup1\n      0xb9709431\n      eq\n      tag_12\n      jumpi\n      dup1\n      0xbfa698de\n      eq\n      tag_13\n      jumpi\n      dup1\n      0xcf87f052\n      eq\n      tag_14\n      jumpi\n      jump(tag_2)\n    tag_19:\n      dup1\n      0x8da5cb5b\n      gt\n      tag_21\n      jumpi\n      dup1\n      0x8da5cb5b\n      eq\n      tag_7\n      jumpi\n      dup1\n      0x9a70eef1\n      eq\n      tag_8\n      jumpi\n      dup1\n      0xa6f9dae1\n      eq\n      tag_9\n      jumpi\n      dup1\n      0xaeae547d\n      eq\n      tag_10\n      jumpi\n      jump(tag_2)\n    tag_21:\n      dup1\n      0x07da68f5\n      eq\n      tag_3\n      jumpi\n      dup1\n      0x243e7a87\n      eq\n      tag_4\n      jumpi\n      dup1\n      0x47cdcc1f\n      eq\n      tag_5\n      jumpi\n      dup1\n      0x6f3f42ac\n      eq\n      tag_6\n      jumpi\n      jump(tag_2)\n    tag_1:\n      jumpi(tag_2, calldatasize)\n        /* \"contracts/Wallet/wallet.sol\":3305:3323  transactionHistory */\n      0x00\n        /* \"contracts/Wallet/wallet.sol\":3343:3409  Transaction(msg.sender, address(this), block.timestamp, msg.value) */\n      mload(0x40)\n      dup1\n      0x80\n      add\n      0x40\n      mstore\n      dup1\n        /* \"contracts/Wallet/wallet.sol\":3355:3365  msg.sender */\n      caller\n        /* \"contracts/Wallet/wallet.sol\":3343:3409  Transaction(msg.sender, address(this), block.timestamp, msg.value) */\n      0xffffffffffffffffffffffffffffffffffffffff\n      and\n      dup2\n      mstore\n      0x20\n      add\n        /* \"contracts/Wallet/wallet.sol\":3375:3379  this */\n      address\n        /* \"contracts/Wallet/wallet.sol\":3343:3409  Transaction(msg.sender, address(this), block.timestamp, msg.value) */\n      0xffffffffffffffffffffffffffffffffffffffff\n      and\n      dup2\n      mstore\n      0x20\n      add\n        /* \"contracts/Wallet/wallet.sol\":3382:3397  block.timestamp */\n      timestamp\n        /* \"contracts/Wallet/wallet.sol\":3343:3409  Transaction(msg.sender, address(this), block.timestamp, msg.value) */\n      dup2\n      mstore\n      0x20\n      add\n        /* \"contracts/Wallet/wallet.sol\":3399:3408  msg.value */\n      callvalue\n        /* \"contracts/Wallet/wallet.sol\":3343:3409  Transaction(msg.sender, address(this), block.timestamp, msg.value) */\n      dup2\n      mstore\n      pop\n        /* \"contracts/Wallet/wallet.sol\":3305:3420  transactionHistory.push(... */\n      swap1\n      dup1\n      0x01\n      dup2\n      sload\n      add\n      dup1\n      dup3\n      sstore\n      dup1\n      swap2\n      pop\n      pop\n      0x01\n      swap1\n      sub\n      swap1\n      0x00\n      mstore\n      keccak256(0x00, 0x20)\n      swap1\n      0x04\n      mul\n      add\n      0x00\n      swap1\n      swap2\n      swap1\n      swap2\n      swap1\n      swap2\n      pop\n      0x00\n      dup3\n      add\n      mload\n      dup2\n      0x00\n      add\n      exp(0x0100, 0x00)\n      dup2\n      sload\n      dup2\n      0xffffffffffffffffffffffffffffffffffffffff\n      mul\n      not\n      and\n      swap1\n      dup4\n      0xffffffffffffffffffffffffffffffffffffffff\n      and\n      mul\n      or\n      swap1\n      sstore\n      pop\n      0x20\n      dup3\n      add\n      mload\n      dup2\n      0x01\n      add\n      exp(0x0100, 0x00)\n      dup2\n      sload\n      dup2\n      0xffffffffffffffffffffffffffffffffffffffff\n      mul\n      not\n      and\n      swap1\n      dup4\n      0xffffffffffffffffffffffffffffffffffffffff\n      and\n      mul\n      or\n      swap1\n      sstore\n      pop\n      0x40\n      dup3\n      add\n      mload\n      dup2\n      0x02\n      add\n      sstore\n      0x60\n      dup3\n      add\n      mload\n      dup2\n      0x03\n      add\n      sstore\n      pop\n      pop\n        /* \"contracts/Wallet/wallet.sol\":3436:3467  Receiver(msg.sender, msg.value) */\n      0x06fe3d87908d219dd2a21804fbb17f09c7e5b035f267faa393203a44fde23e96\n        /* \"contracts/Wallet/wallet.sol\":3445:3455  msg.sender */\n      caller\n        /* \"contracts/Wallet/wallet.sol\":3457:3466  msg.value */\n      callvalue\n        /* \"contracts/Wallet/wallet.sol\":3436:3467  Receiver(msg.sender, msg.value) */\n      mload(0x40)\n      tag_25\n      swap3\n      swap2\n      swap1\n      tag_26\n      jump\t// in\n    tag_25:\n      mload(0x40)\n      dup1\n      swap2\n      sub\n      swap1\n      log1\n        /* \"contracts/Wallet/wallet.sol\":72:4011  contract SimpleWallet {... */\n      stop\n    tag_2:\n        /* \"contracts/Wallet/wallet.sol\":3629:3659  suspiciousActivity(msg.sender) */\n      tag_29\n        /* \"contracts/Wallet/wallet.sol\":3648:3658  msg.sender */\n      caller\n        /* \"contracts/Wallet/wallet.sol\":3629:3647  suspiciousActivity */\n      tag_30\n        /* \"contracts/Wallet/wallet.sol\":3629:3659  suspiciousActivity(msg.sender) */\n      jump\t// in\n    tag_29:\n        /* \"contracts/Wallet/wallet.sol\":72:4011  contract SimpleWallet {... */\n      stop\n        /* \"contracts/Wallet/wallet.sol\":302:318  bool public stop */\n    tag_3:\n      callvalue\n      dup1\n      iszero\n      tag_31\n      jumpi\n      revert(0x00, 0x00)\n    tag_31:\n      pop\n      tag_32\n      tag_33\n      jump\t// in\n    tag_32:\n      mload(0x40)\n      tag_34\n      swap2\n      swap1\n      tag_35\n      jump\t// in\n    tag_34:\n      mload(0x40)\n      dup1\n      swap2\n      sub\n      swap1\n      return\n        /* \"contracts/Wallet/wallet.sol\":227:266  Transaction[] public transactionHistory */\n    tag_4:\n      callvalue\n      dup1\n      iszero\n      tag_36\n      jumpi\n      revert(0x00, 0x00)\n    tag_36:\n      pop\n      tag_37\n      0x04\n      dup1\n      calldatasize\n      sub\n      dup2\n      add\n      swap1\n      tag_38\n      swap2\n      swap1\n      tag_39\n      jump\t// in\n    tag_38:\n      tag_40\n      jump\t// in\n    tag_37:\n      mload(0x40)\n      tag_41\n      swap5\n      swap4\n      swap3\n      swap2\n      swap1\n      tag_42\n      jump\t// in\n    tag_41:\n      mload(0x40)\n      dup1\n      swap2\n      sub\n      swap1\n      return\n        /* \"contracts/Wallet/wallet.sol\":1678:2073  function transferToUserViaContract(address payable _to, uint _weiAmount)... */\n    tag_5:\n      callvalue\n      dup1\n      iszero\n      tag_43\n      jumpi\n      revert(0x00, 0x00)\n    tag_43:\n      pop\n      tag_44\n      0x04\n      dup1\n      calldatasize\n      sub\n      dup2\n      add\n      swap1\n      tag_45\n      swap2\n      swap1\n      tag_46\n      jump\t// in\n    tag_45:\n      tag_47\n      jump\t// in\n    tag_44:\n      stop\n        /* \"contracts/Wallet/wallet.sol\":2529:2817  function transferToUserViaMsgValue(address _to) external payable {... */\n    tag_6:\n      tag_48\n      0x04\n      dup1\n      calldatasize\n      sub\n      dup2\n      add\n      swap1\n      tag_49\n      swap2\n      swap1\n      tag_50\n      jump\t// in\n    tag_49:\n      tag_51\n      jump\t// in\n    tag_48:\n      stop\n        /* \"contracts/Wallet/wallet.sol\":275:295  address public owner */\n    tag_7:\n      callvalue\n      dup1\n      iszero\n      tag_52\n      jumpi\n      revert(0x00, 0x00)\n    tag_52:\n      pop\n      tag_53\n      tag_54\n      jump\t// in\n    tag_53:\n      mload(0x40)\n      tag_55\n      swap2\n      swap1\n      tag_56\n      jump\t// in\n    tag_55:\n      mload(0x40)\n      dup1\n      swap2\n      sub\n      swap1\n      return\n        /* \"contracts/Wallet/wallet.sol\":1033:1149  function toggleStop() external onlyOwner {... */\n    tag_8:\n      callvalue\n      dup1\n      iszero\n      tag_57\n      jumpi\n      revert(0x00, 0x00)\n    tag_57:\n      pop\n      tag_58\n      tag_59\n      jump\t// in\n    tag_58:\n      stop\n        /* \"contracts/Wallet/wallet.sol\":1157:1330  function changeOwner(address newOwner) public onlyOwner isNotEmergency {... */\n    tag_9:\n      callvalue\n      dup1\n      iszero\n      tag_60\n      jumpi\n      revert(0x00, 0x00)\n    tag_60:\n      pop\n      tag_61\n      0x04\n      dup1\n      calldatasize\n      sub\n      dup2\n      add\n      swap1\n      tag_62\n      swap2\n      swap1\n      tag_50\n      jump\t// in\n    tag_62:\n      tag_63\n      jump\t// in\n    tag_61:\n      stop\n        /* \"contracts/Wallet/wallet.sol\":2081:2402  function withdrawFromContract(uint _weiAmount) external onlyOwner {... */\n    tag_10:\n      callvalue\n      dup1\n      iszero\n      tag_64\n      jumpi\n      revert(0x00, 0x00)\n    tag_64:\n      pop\n      tag_65\n      0x04\n      dup1\n      calldatasize\n      sub\n      dup2\n      add\n      swap1\n      tag_66\n      swap2\n      swap1\n      tag_39\n      jump\t// in\n    tag_66:\n      tag_67\n      jump\t// in\n    tag_65:\n      stop\n        /* \"contracts/Wallet/wallet.sol\":3675:3829  function getTransactionHistory()... */\n    tag_11:\n      callvalue\n      dup1\n      iszero\n      tag_68\n      jumpi\n      revert(0x00, 0x00)\n    tag_68:\n      pop\n      tag_69\n      tag_70\n      jump\t// in\n    tag_69:\n      mload(0x40)\n      tag_71\n      swap2\n      swap1\n      tag_72\n      jump\t// in\n    tag_71:\n      mload(0x40)\n      dup1\n      swap2\n      sub\n      swap1\n      return\n        /* \"contracts/Wallet/wallet.sol\":723:769  mapping(address => uint) public suspiciousUser */\n    tag_12:\n      callvalue\n      dup1\n      iszero\n      tag_73\n      jumpi\n      revert(0x00, 0x00)\n    tag_73:\n      pop\n      tag_74\n      0x04\n      dup1\n      calldatasize\n      sub\n      dup2\n      add\n      swap1\n      tag_75\n      swap2\n      swap1\n      tag_50\n      jump\t// in\n    tag_75:\n      tag_76\n      jump\t// in\n    tag_74:\n      mload(0x40)\n      tag_77\n      swap2\n      swap1\n      tag_78\n      jump\t// in\n    tag_77:\n      mload(0x40)\n      dup1\n      swap2\n      sub\n      swap1\n      return\n        /* \"contracts/Wallet/wallet.sol\":2410:2521  function getContractBalanceInWei() external view returns (uint) {... */\n    tag_13:\n      callvalue\n      dup1\n      iszero\n      tag_79\n      jumpi\n      revert(0x00, 0x00)\n    tag_79:\n      pop\n      tag_80\n      tag_81\n      jump\t// in\n    tag_80:\n      mload(0x40)\n      tag_82\n      swap2\n      swap1\n      tag_78\n      jump\t// in\n    tag_82:\n      mload(0x40)\n      dup1\n      swap2\n      sub\n      swap1\n      return\n        /* \"contracts/Wallet/wallet.sol\":3483:3582  function suspiciousActivity(address _sender) public {... */\n    tag_14:\n      callvalue\n      dup1\n      iszero\n      tag_83\n      jumpi\n      revert(0x00, 0x00)\n    tag_83:\n      pop\n      tag_84\n      0x04\n      dup1\n      calldatasize\n      sub\n      dup2\n      add\n      swap1\n      tag_85\n      swap2\n      swap1\n      tag_50\n      jump\t// in\n    tag_85:\n      tag_30\n      jump\t// in\n    tag_84:\n      stop\n        /* \"contracts/Wallet/wallet.sol\":2825:3153  function receiveFromUser() external payable {... */\n    tag_15:\n      tag_86\n      tag_87\n      jump\t// in\n    tag_86:\n      stop\n        /* \"contracts/Wallet/wallet.sol\":1338:1670  function transferToContract(uint _startTime)... */\n    tag_16:\n      tag_88\n      0x04\n      dup1\n      calldatasize\n      sub\n      dup2\n      add\n      swap1\n      tag_89\n      swap2\n      swap1\n      tag_39\n      jump\t// in\n    tag_89:\n      tag_90\n      jump\t// in\n    tag_88:\n      stop\n        /* \"contracts/Wallet/wallet.sol\":3837:4008  function emergencyWithdraw() external onlyOwner {... */\n    tag_17:\n      callvalue\n      dup1\n      iszero\n      tag_91\n      jumpi\n      revert(0x00, 0x00)\n    tag_91:\n      pop\n      tag_92\n      tag_93\n      jump\t// in\n    tag_92:\n      stop\n        /* \"contracts/Wallet/wallet.sol\":3161:3259  function getOwnerBalanceWei() external view returns (uint) {... */\n    tag_18:\n      callvalue\n      dup1\n      iszero\n      tag_94\n      jumpi\n      revert(0x00, 0x00)\n    tag_94:\n      pop\n      tag_95\n      tag_96\n      jump\t// in\n    tag_95:\n      mload(0x40)\n      tag_97\n      swap2\n      swap1\n      tag_78\n      jump\t// in\n    tag_97:\n      mload(0x40)\n      dup1\n      swap2\n      sub\n      swap1\n      return\n        /* \"contracts/Wallet/wallet.sol\":3483:3582  function suspiciousActivity(address _sender) public {... */\n    tag_30:\n        /* \"contracts/Wallet/wallet.sol\":3573:3574  1 */\n      0x01\n        /* \"contracts/Wallet/wallet.sol\":3546:3560  suspiciousUser */\n      0x02\n        /* \"contracts/Wallet/wallet.sol\":3546:3569  suspiciousUser[_sender] */\n      0x00\n        /* \"contracts/Wallet/wallet.sol\":3561:3568  _sender */\n      dup4\n        /* \"contracts/Wallet/wallet.sol\":3546:3569  suspiciousUser[_sender] */\n      0xffffffffffffffffffffffffffffffffffffffff\n      and\n      0xffffffffffffffffffffffffffffffffffffffff\n      and\n      dup2\n      mstore\n      0x20\n      add\n      swap1\n      dup2\n      mstore\n      0x20\n      add\n      0x00\n      keccak256\n      0x00\n        /* \"contracts/Wallet/wallet.sol\":3546:3574  suspiciousUser[_sender] += 1 */\n      dup3\n      dup3\n      sload\n      tag_99\n      swap2\n      swap1\n      tag_100\n      jump\t// in\n    tag_99:\n      swap3\n      pop\n      pop\n      dup2\n      swap1\n      sstore\n      pop\n        /* \"contracts/Wallet/wallet.sol\":3483:3582  function suspiciousActivity(address _sender) public {... */\n      pop\n      jump\t// out\n        /* \"contracts/Wallet/wallet.sol\":302:318  bool public stop */\n    tag_33:\n      0x01\n      0x14\n      swap1\n      sload\n      swap1\n      0x0100\n      exp\n      swap1\n      div\n      0xff\n      and\n      dup2\n      jump\t// out\n        /* \"contracts/Wallet/wallet.sol\":227:266  Transaction[] public transactionHistory */\n    tag_40:\n      0x00\n      dup2\n      dup2\n      sload\n      dup2\n      lt\n      tag_101\n      jumpi\n      0x00\n      dup1\n      revert\n    tag_101:\n      swap1\n      0x00\n      mstore\n      keccak256(0x00, 0x20)\n      swap1\n      0x04\n      mul\n      add\n      0x00\n      swap2\n      pop\n      swap1\n      pop\n      dup1\n      0x00\n      add\n      0x00\n      swap1\n      sload\n      swap1\n      0x0100\n      exp\n      swap1\n      div\n      0xffffffffffffffffffffffffffffffffffffffff\n      and\n      swap1\n      dup1\n      0x01\n      add\n      0x00\n      swap1\n      sload\n      swap1\n      0x0100\n      exp\n      swap1\n      div\n      0xffffffffffffffffffffffffffffffffffffffff\n      and\n      swap1\n      dup1\n      0x02\n      add\n      sload\n      swap1\n      dup1\n      0x03\n      add\n      sload\n      swap1\n      pop\n      dup5\n      jump\t// out\n        /* \"contracts/Wallet/wallet.sol\":1678:2073  function transferToUserViaContract(address payable _to, uint _weiAmount)... */\n    tag_47:\n        /* \"contracts/Wallet/wallet.sol\":664:669  owner */\n      0x01\n      0x00\n      swap1\n      sload\n      swap1\n      0x0100\n      exp\n      swap1\n      div\n      0xffffffffffffffffffffffffffffffffffffffff\n      and\n        /* \"contracts/Wallet/wallet.sol\":650:669  msg.sender == owner */\n      0xffffffffffffffffffffffffffffffffffffffff\n      and\n        /* \"contracts/Wallet/wallet.sol\":650:660  msg.sender */\n      caller\n        /* \"contracts/Wallet/wallet.sol\":650:669  msg.sender == owner */\n      0xffffffffffffffffffffffffffffffffffffffff\n      and\n      eq\n        /* \"contracts/Wallet/wallet.sol\":642:695  require(msg.sender == owner, \"You don't have access\") */\n      tag_104\n      jumpi\n      mload(0x40)\n      0x08c379a000000000000000000000000000000000000000000000000000000000\n      dup2\n      mstore\n      0x04\n      add\n      tag_105\n      swap1\n      tag_106\n      jump\t// in\n    tag_105:\n      mload(0x40)\n      dup1\n      swap2\n      sub\n      swap1\n      revert\n    tag_104:\n        /* \"contracts/Wallet/wallet.sol\":1837:1847  _weiAmount */\n      dup1\n        /* \"contracts/Wallet/wallet.sol\":1812:1833  address(this).balance */\n      selfbalance\n        /* \"contracts/Wallet/wallet.sol\":1812:1847  address(this).balance >= _weiAmount */\n      lt\n      iszero\n        /* \"contracts/Wallet/wallet.sol\":1804:1872  require(address(this).balance >= _weiAmount, \"Insufficient balance\") */\n      tag_108\n      jumpi\n      mload(0x40)\n      0x08c379a000000000000000000000000000000000000000000000000000000000\n      dup2\n      mstore\n      0x04\n      add\n      tag_109\n      swap1\n      tag_110\n      jump\t// in\n    tag_109:\n      mload(0x40)\n      dup1\n      swap2\n      sub\n      swap1\n      revert\n    tag_108:\n        /* \"contracts/Wallet/wallet.sol\":1883:1886  _to */\n      dup2\n        /* \"contracts/Wallet/wallet.sol\":1883:1895  _to.transfer */\n      0xffffffffffffffffffffffffffffffffffffffff\n      and\n        /* \"contracts/Wallet/wallet.sol\":1883:1907  _to.transfer(_weiAmount) */\n      0x08fc\n        /* \"contracts/Wallet/wallet.sol\":1896:1906  _weiAmount */\n      dup3\n        /* \"contracts/Wallet/wallet.sol\":1883:1907  _to.transfer(_weiAmount) */\n      swap1\n      dup2\n      iszero\n      mul\n      swap1\n      mload(0x40)\n      0x00\n      mload(0x40)\n      dup1\n      dup4\n      sub\n      dup2\n      dup6\n      dup9\n      dup9\n      call\n      swap4\n      pop\n      pop\n      pop\n      pop\n      iszero\n      dup1\n      iszero\n      tag_112\n      jumpi\n      returndatacopy(0x00, 0x00, returndatasize)\n      revert(0x00, returndatasize)\n    tag_112:\n      pop\n        /* \"contracts/Wallet/wallet.sol\":1918:1936  transactionHistory */\n      0x00\n        /* \"contracts/Wallet/wallet.sol\":1956:2013  Transaction(msg.sender, _to, block.timestamp, _weiAmount) */\n      mload(0x40)\n      dup1\n      0x80\n      add\n      0x40\n      mstore\n      dup1\n        /* \"contracts/Wallet/wallet.sol\":1968:1978  msg.sender */\n      caller\n        /* \"contracts/Wallet/wallet.sol\":1956:2013  Transaction(msg.sender, _to, block.timestamp, _weiAmount) */\n      0xffffffffffffffffffffffffffffffffffffffff\n      and\n      dup2\n      mstore\n      0x20\n      add\n        /* \"contracts/Wallet/wallet.sol\":1980:1983  _to */\n      dup5\n        /* \"contracts/Wallet/wallet.sol\":1956:2013  Transaction(msg.sender, _to, block.timestamp, _weiAmount) */\n      0xffffffffffffffffffffffffffffffffffffffff\n      and\n      dup2\n      mstore\n      0x20\n      add\n        /* \"contracts/Wallet/wallet.sol\":1985:2000  block.timestamp */\n      timestamp\n        /* \"contracts/Wallet/wallet.sol\":1956:2013  Transaction(msg.sender, _to, block.timestamp, _weiAmount) */\n      dup2\n      mstore\n      0x20\n      add\n        /* \"contracts/Wallet/wallet.sol\":2002:2012  _weiAmount */\n      dup4\n        /* \"contracts/Wallet/wallet.sol\":1956:2013  Transaction(msg.sender, _to, block.timestamp, _weiAmount) */\n      dup2\n      mstore\n      pop\n        /* \"contracts/Wallet/wallet.sol\":1918:2024  transactionHistory.push(... */\n      swap1\n      dup1\n      0x01\n      dup2\n      sload\n      add\n      dup1\n      dup3\n      sstore\n      dup1\n      swap2\n      pop\n      pop\n      0x01\n      swap1\n      sub\n      swap1\n      0x00\n      mstore\n      keccak256(0x00, 0x20)\n      swap1\n      0x04\n      mul\n      add\n      0x00\n      swap1\n      swap2\n      swap1\n      swap2\n      swap1\n      swap2\n      pop\n      0x00\n      dup3\n      add\n      mload\n      dup2\n      0x00\n      add\n      exp(0x0100, 0x00)\n      dup2\n      sload\n      dup2\n      0xffffffffffffffffffffffffffffffffffffffff\n      mul\n      not\n      and\n      swap1\n      dup4\n      0xffffffffffffffffffffffffffffffffffffffff\n      and\n      mul\n      or\n      swap1\n      sstore\n      pop\n      0x20\n      dup3\n      add\n      mload\n      dup2\n      0x01\n      add\n      exp(0x0100, 0x00)\n      dup2\n      sload\n      dup2\n      0xffffffffffffffffffffffffffffffffffffffff\n      mul\n      not\n      and\n      swap1\n      dup4\n      0xffffffffffffffffffffffffffffffffffffffff\n      and\n      mul\n      or\n      swap1\n      sstore\n      pop\n      0x40\n      dup3\n      add\n      mload\n      dup2\n      0x02\n      add\n      sstore\n      0x60\n      dup3\n      add\n      mload\n      dup2\n      0x03\n      add\n      sstore\n      pop\n      pop\n        /* \"contracts/Wallet/wallet.sol\":2040:2065  Transfer(_to, _weiAmount) */\n      0x69ca02dd4edd7bf0a4abb9ed3b7af3f14778db5d61921c7dc7cd545266326de2\n        /* \"contracts/Wallet/wallet.sol\":2049:2052  _to */\n      dup3\n        /* \"contracts/Wallet/wallet.sol\":2054:2064  _weiAmount */\n      dup3\n        /* \"contracts/Wallet/wallet.sol\":2040:2065  Transfer(_to, _weiAmount) */\n      mload(0x40)\n      tag_114\n      swap3\n      swap2\n      swap1\n      tag_115\n      jump\t// in\n    tag_114:\n      mload(0x40)\n      dup1\n      swap2\n      sub\n      swap1\n      log1\n        /* \"contracts/Wallet/wallet.sol\":1678:2073  function transferToUserViaContract(address payable _to, uint _weiAmount)... */\n      pop\n      pop\n      jump\t// out\n        /* \"contracts/Wallet/wallet.sol\":2529:2817  function transferToUserViaMsgValue(address _to) external payable {... */\n    tag_51:\n        /* \"contracts/Wallet/wallet.sol\":2628:2629  0 */\n      0x00\n        /* \"contracts/Wallet/wallet.sol\":2613:2630  _to != address(0) */\n      0xffffffffffffffffffffffffffffffffffffffff\n      and\n        /* \"contracts/Wallet/wallet.sol\":2613:2616  _to */\n      dup2\n        /* \"contracts/Wallet/wallet.sol\":2613:2630  _to != address(0) */\n      0xffffffffffffffffffffffffffffffffffffffff\n      and\n      sub\n        /* \"contracts/Wallet/wallet.sol\":2605:2650  require(_to != address(0), \"Invalid address\") */\n      tag_117\n      jumpi\n      mload(0x40)\n      0x08c379a000000000000000000000000000000000000000000000000000000000\n      dup2\n      mstore\n      0x04\n      add\n      tag_118\n      swap1\n      tag_119\n      jump\t// in\n    tag_118:\n      mload(0x40)\n      dup1\n      swap2\n      sub\n      swap1\n      revert\n    tag_117:\n        /* \"contracts/Wallet/wallet.sol\":2669:2672  _to */\n      dup1\n        /* \"contracts/Wallet/wallet.sol\":2661:2682  payable(_to).transfer */\n      0xffffffffffffffffffffffffffffffffffffffff\n      and\n        /* \"contracts/Wallet/wallet.sol\":2661:2693  payable(_to).transfer(msg.value) */\n      0x08fc\n        /* \"contracts/Wallet/wallet.sol\":2683:2692  msg.value */\n      callvalue\n        /* \"contracts/Wallet/wallet.sol\":2661:2693  payable(_to).transfer(msg.value) */\n      swap1\n      dup2\n      iszero\n      mul\n      swap1\n      mload(0x40)\n      0x00\n      mload(0x40)\n      dup1\n      dup4\n      sub\n      dup2\n      dup6\n      dup9\n      dup9\n      call\n      swap4\n      pop\n      pop\n      pop\n      pop\n      iszero\n      dup1\n      iszero\n      tag_121\n      jumpi\n      returndatacopy(0x00, 0x00, returndatasize)\n      revert(0x00, returndatasize)\n    tag_121:\n      pop\n        /* \"contracts/Wallet/wallet.sol\":2704:2722  transactionHistory */\n      0x00\n        /* \"contracts/Wallet/wallet.sol\":2742:2798  Transaction(msg.sender, _to, block.timestamp, msg.value) */\n      mload(0x40)\n      dup1\n      0x80\n      add\n      0x40\n      mstore\n      dup1\n        /* \"contracts/Wallet/wallet.sol\":2754:2764  msg.sender */\n      caller\n        /* \"contracts/Wallet/wallet.sol\":2742:2798  Transaction(msg.sender, _to, block.timestamp, msg.value) */\n      0xffffffffffffffffffffffffffffffffffffffff\n      and\n      dup2\n      mstore\n      0x20\n      add\n        /* \"contracts/Wallet/wallet.sol\":2766:2769  _to */\n      dup4\n        /* \"contracts/Wallet/wallet.sol\":2742:2798  Transaction(msg.sender, _to, block.timestamp, msg.value) */\n      0xffffffffffffffffffffffffffffffffffffffff\n      and\n      dup2\n      mstore\n      0x20\n      add\n        /* \"contracts/Wallet/wallet.sol\":2771:2786  block.timestamp */\n      timestamp\n        /* \"contracts/Wallet/wallet.sol\":2742:2798  Transaction(msg.sender, _to, block.timestamp, msg.value) */\n      dup2\n      mstore\n      0x20\n      add\n        /* \"contracts/Wallet/wallet.sol\":2788:2797  msg.value */\n      callvalue\n        /* \"contracts/Wallet/wallet.sol\":2742:2798  Transaction(msg.sender, _to, block.timestamp, msg.value) */\n      dup2\n      mstore\n      pop\n        /* \"contracts/Wallet/wallet.sol\":2704:2809  transactionHistory.push(... */\n      swap1\n      dup1\n      0x01\n      dup2\n      sload\n      add\n      dup1\n      dup3\n      sstore\n      dup1\n      swap2\n      pop\n      pop\n      0x01\n      swap1\n      sub\n      swap1\n      0x00\n      mstore\n      keccak256(0x00, 0x20)\n      swap1\n      0x04\n      mul\n      add\n      0x00\n      swap1\n      swap2\n      swap1\n      swap2\n      swap1\n      swap2\n      pop\n      0x00\n      dup3\n      add\n      mload\n      dup2\n      0x00\n      add\n      exp(0x0100, 0x00)\n      dup2\n      sload\n      dup2\n      0xffffffffffffffffffffffffffffffffffffffff\n      mul\n      not\n      and\n      swap1\n      dup4\n      0xffffffffffffffffffffffffffffffffffffffff\n      and\n      mul\n      or\n      swap1\n      sstore\n      pop\n      0x20\n      dup3\n      add\n      mload\n      dup2\n      0x01\n      add\n      exp(0x0100, 0x00)\n      dup2\n      sload\n      dup2\n      0xffffffffffffffffffffffffffffffffffffffff\n      mul\n      not\n      and\n      swap1\n      dup4\n      0xffffffffffffffffffffffffffffffffffffffff\n      and\n      mul\n      or\n      swap1\n      sstore\n      pop\n      0x40\n      dup3\n      add\n      mload\n      dup2\n      0x02\n      add\n      sstore\n      0x60\n      dup3\n      add\n      mload\n      dup2\n      0x03\n      add\n      sstore\n      pop\n      pop\n        /* \"contracts/Wallet/wallet.sol\":2529:2817  function transferToUserViaMsgValue(address _to) external payable {... */\n      pop\n      jump\t// out\n        /* \"contracts/Wallet/wallet.sol\":275:295  address public owner */\n    tag_54:\n      0x01\n      0x00\n      swap1\n      sload\n      swap1\n      0x0100\n      exp\n      swap1\n      div\n      0xffffffffffffffffffffffffffffffffffffffff\n      and\n      dup2\n      jump\t// out\n        /* \"contracts/Wallet/wallet.sol\":1033:1149  function toggleStop() external onlyOwner {... */\n    tag_59:\n        /* \"contracts/Wallet/wallet.sol\":664:669  owner */\n      0x01\n      0x00\n      swap1\n      sload\n      swap1\n      0x0100\n      exp\n      swap1\n      div\n      0xffffffffffffffffffffffffffffffffffffffff\n      and\n        /* \"contracts/Wallet/wallet.sol\":650:669  msg.sender == owner */\n      0xffffffffffffffffffffffffffffffffffffffff\n      and\n        /* \"contracts/Wallet/wallet.sol\":650:660  msg.sender */\n      caller\n        /* \"contracts/Wallet/wallet.sol\":650:669  msg.sender == owner */\n      0xffffffffffffffffffffffffffffffffffffffff\n      and\n      eq\n        /* \"contracts/Wallet/wallet.sol\":642:695  require(msg.sender == owner, \"You don't have access\") */\n      tag_124\n      jumpi\n      mload(0x40)\n      0x08c379a000000000000000000000000000000000000000000000000000000000\n      dup2\n      mstore\n      0x04\n      add\n      tag_125\n      swap1\n      tag_106\n      jump\t// in\n    tag_125:\n      mload(0x40)\n      dup1\n      swap2\n      sub\n      swap1\n      revert\n    tag_124:\n        /* \"contracts/Wallet/wallet.sol\":1093:1097  stop */\n      0x01\n      0x14\n      swap1\n      sload\n      swap1\n      0x0100\n      exp\n      swap1\n      div\n      0xff\n      and\n        /* \"contracts/Wallet/wallet.sol\":1092:1097  !stop */\n      iszero\n        /* \"contracts/Wallet/wallet.sol\":1085:1089  stop */\n      0x01\n      0x14\n        /* \"contracts/Wallet/wallet.sol\":1085:1097  stop = !stop */\n      0x0100\n      exp\n      dup2\n      sload\n      dup2\n      0xff\n      mul\n      not\n      and\n      swap1\n      dup4\n      iszero\n      iszero\n      mul\n      or\n      swap1\n      sstore\n      pop\n        /* \"contracts/Wallet/wallet.sol\":1113:1141  EmergencyStatusChanged(stop) */\n      0x7a59f3d9b570b5d7464526b9724b380a8b5f006931c518f8a143e84e966d2c32\n        /* \"contracts/Wallet/wallet.sol\":1136:1140  stop */\n      0x01\n      0x14\n      swap1\n      sload\n      swap1\n      0x0100\n      exp\n      swap1\n      div\n      0xff\n      and\n        /* \"contracts/Wallet/wallet.sol\":1113:1141  EmergencyStatusChanged(stop) */\n      mload(0x40)\n      tag_127\n      swap2\n      swap1\n      tag_35\n      jump\t// in\n    tag_127:\n      mload(0x40)\n      dup1\n      swap2\n      sub\n      swap1\n      log1\n        /* \"contracts/Wallet/wallet.sol\":1033:1149  function toggleStop() external onlyOwner {... */\n      jump\t// out\n        /* \"contracts/Wallet/wallet.sol\":1157:1330  function changeOwner(address newOwner) public onlyOwner isNotEmergency {... */\n    tag_63:\n        /* \"contracts/Wallet/wallet.sol\":664:669  owner */\n      0x01\n      0x00\n      swap1\n      sload\n      swap1\n      0x0100\n      exp\n      swap1\n      div\n      0xffffffffffffffffffffffffffffffffffffffff\n      and\n        /* \"contracts/Wallet/wallet.sol\":650:669  msg.sender == owner */\n      0xffffffffffffffffffffffffffffffffffffffff\n      and\n        /* \"contracts/Wallet/wallet.sol\":650:660  msg.sender */\n      caller\n        /* \"contracts/Wallet/wallet.sol\":650:669  msg.sender == owner */\n      0xffffffffffffffffffffffffffffffffffffffff\n      and\n      eq\n        /* \"contracts/Wallet/wallet.sol\":642:695  require(msg.sender == owner, \"You don't have access\") */\n      tag_129\n      jumpi\n      mload(0x40)\n      0x08c379a000000000000000000000000000000000000000000000000000000000\n      dup2\n      mstore\n      0x04\n      add\n      tag_130\n      swap1\n      tag_106\n      jump\t// in\n    tag_130:\n      mload(0x40)\n      dup1\n      swap2\n      sub\n      swap1\n      revert\n    tag_129:\n        /* \"contracts/Wallet/wallet.sol\":977:981  stop */\n      0x01\n      0x14\n      swap1\n      sload\n      swap1\n      0x0100\n      exp\n      swap1\n      div\n      0xff\n      and\n        /* \"contracts/Wallet/wallet.sol\":976:981  !stop */\n      iszero\n        /* \"contracts/Wallet/wallet.sol\":968:1005  require(!stop, \"Emergency declared!\") */\n      tag_132\n      jumpi\n      mload(0x40)\n      0x08c379a000000000000000000000000000000000000000000000000000000000\n      dup2\n      mstore\n      0x04\n      add\n      tag_133\n      swap1\n      tag_134\n      jump\t// in\n    tag_133:\n      mload(0x40)\n      dup1\n      swap2\n      sub\n      swap1\n      revert\n    tag_132:\n        /* \"contracts/Wallet/wallet.sol\":1267:1268  0 */\n      0x00\n        /* \"contracts/Wallet/wallet.sol\":1247:1269  newOwner != address(0) */\n      0xffffffffffffffffffffffffffffffffffffffff\n      and\n        /* \"contracts/Wallet/wallet.sol\":1247:1255  newOwner */\n      dup2\n        /* \"contracts/Wallet/wallet.sol\":1247:1269  newOwner != address(0) */\n      0xffffffffffffffffffffffffffffffffffffffff\n      and\n      sub\n        /* \"contracts/Wallet/wallet.sol\":1239:1295  require(newOwner != address(0), \"Invalid owner address\") */\n      tag_136\n      jumpi\n      mload(0x40)\n      0x08c379a000000000000000000000000000000000000000000000000000000000\n      dup2\n      mstore\n      0x04\n      add\n      tag_137\n      swap1\n      tag_138\n      jump\t// in\n    tag_137:\n      mload(0x40)\n      dup1\n      swap2\n      sub\n      swap1\n      revert\n    tag_136:\n        /* \"contracts/Wallet/wallet.sol\":1314:1322  newOwner */\n      dup1\n        /* \"contracts/Wallet/wallet.sol\":1306:1311  owner */\n      0x01\n      0x00\n        /* \"contracts/Wallet/wallet.sol\":1306:1322  owner = newOwner */\n      0x0100\n      exp\n      dup2\n      sload\n      dup2\n      0xffffffffffffffffffffffffffffffffffffffff\n      mul\n      not\n      and\n      swap1\n      dup4\n      0xffffffffffffffffffffffffffffffffffffffff\n      and\n      mul\n      or\n      swap1\n      sstore\n      pop\n        /* \"contracts/Wallet/wallet.sol\":1157:1330  function changeOwner(address newOwner) public onlyOwner isNotEmergency {... */\n      pop\n      jump\t// out\n        /* \"contracts/Wallet/wallet.sol\":2081:2402  function withdrawFromContract(uint _weiAmount) external onlyOwner {... */\n    tag_67:\n        /* \"contracts/Wallet/wallet.sol\":664:669  owner */\n      0x01\n      0x00\n      swap1\n      sload\n      swap1\n      0x0100\n      exp\n      swap1\n      div\n      0xffffffffffffffffffffffffffffffffffffffff\n      and\n        /* \"contracts/Wallet/wallet.sol\":650:669  msg.sender == owner */\n      0xffffffffffffffffffffffffffffffffffffffff\n      and\n        /* \"contracts/Wallet/wallet.sol\":650:660  msg.sender */\n      caller\n        /* \"contracts/Wallet/wallet.sol\":650:669  msg.sender == owner */\n      0xffffffffffffffffffffffffffffffffffffffff\n      and\n      eq\n        /* \"contracts/Wallet/wallet.sol\":642:695  require(msg.sender == owner, \"You don't have access\") */\n      tag_140\n      jumpi\n      mload(0x40)\n      0x08c379a000000000000000000000000000000000000000000000000000000000\n      dup2\n      mstore\n      0x04\n      add\n      tag_141\n      swap1\n      tag_106\n      jump\t// in\n    tag_141:\n      mload(0x40)\n      dup1\n      swap2\n      sub\n      swap1\n      revert\n    tag_140:\n        /* \"contracts/Wallet/wallet.sol\":2191:2201  _weiAmount */\n      dup1\n        /* \"contracts/Wallet/wallet.sol\":2166:2187  address(this).balance */\n      selfbalance\n        /* \"contracts/Wallet/wallet.sol\":2166:2201  address(this).balance >= _weiAmount */\n      lt\n      iszero\n        /* \"contracts/Wallet/wallet.sol\":2158:2226  require(address(this).balance >= _weiAmount, \"Insufficient balance\") */\n      tag_143\n      jumpi\n      mload(0x40)\n      0x08c379a000000000000000000000000000000000000000000000000000000000\n      dup2\n      mstore\n      0x04\n      add\n      tag_144\n      swap1\n      tag_110\n      jump\t// in\n    tag_144:\n      mload(0x40)\n      dup1\n      swap2\n      sub\n      swap1\n      revert\n    tag_143:\n        /* \"contracts/Wallet/wallet.sol\":2245:2250  owner */\n      0x01\n      0x00\n      swap1\n      sload\n      swap1\n      0x0100\n      exp\n      swap1\n      div\n      0xffffffffffffffffffffffffffffffffffffffff\n      and\n        /* \"contracts/Wallet/wallet.sol\":2237:2260  payable(owner).transfer */\n      0xffffffffffffffffffffffffffffffffffffffff\n      and\n        /* \"contracts/Wallet/wallet.sol\":2237:2272  payable(owner).transfer(_weiAmount) */\n      0x08fc\n        /* \"contracts/Wallet/wallet.sol\":2261:2271  _weiAmount */\n      dup3\n        /* \"contracts/Wallet/wallet.sol\":2237:2272  payable(owner).transfer(_weiAmount) */\n      swap1\n      dup2\n      iszero\n      mul\n      swap1\n      mload(0x40)\n      0x00\n      mload(0x40)\n      dup1\n      dup4\n      sub\n      dup2\n      dup6\n      dup9\n      dup9\n      call\n      swap4\n      pop\n      pop\n      pop\n      pop\n      iszero\n      dup1\n      iszero\n      tag_146\n      jumpi\n      returndatacopy(0x00, 0x00, returndatasize)\n      revert(0x00, returndatasize)\n    tag_146:\n      pop\n        /* \"contracts/Wallet/wallet.sol\":2283:2301  transactionHistory */\n      0x00\n        /* \"contracts/Wallet/wallet.sol\":2321:2383  Transaction(address(this), owner, block.timestamp, _weiAmount) */\n      mload(0x40)\n      dup1\n      0x80\n      add\n      0x40\n      mstore\n      dup1\n        /* \"contracts/Wallet/wallet.sol\":2341:2345  this */\n      address\n        /* \"contracts/Wallet/wallet.sol\":2321:2383  Transaction(address(this), owner, block.timestamp, _weiAmount) */\n      0xffffffffffffffffffffffffffffffffffffffff\n      and\n      dup2\n      mstore\n      0x20\n      add\n        /* \"contracts/Wallet/wallet.sol\":2348:2353  owner */\n      0x01\n      0x00\n      swap1\n      sload\n      swap1\n      0x0100\n      exp\n      swap1\n      div\n      0xffffffffffffffffffffffffffffffffffffffff\n      and\n        /* \"contracts/Wallet/wallet.sol\":2321:2383  Transaction(address(this), owner, block.timestamp, _weiAmount) */\n      0xffffffffffffffffffffffffffffffffffffffff\n      and\n      dup2\n      mstore\n      0x20\n      add\n        /* \"contracts/Wallet/wallet.sol\":2355:2370  block.timestamp */\n      timestamp\n        /* \"contracts/Wallet/wallet.sol\":2321:2383  Transaction(address(this), owner, block.timestamp, _weiAmount) */\n      dup2\n      mstore\n      0x20\n      add\n        /* \"contracts/Wallet/wallet.sol\":2372:2382  _weiAmount */\n      dup4\n        /* \"contracts/Wallet/wallet.sol\":2321:2383  Transaction(address(this), owner, block.timestamp, _weiAmount) */\n      dup2\n      mstore\n      pop\n        /* \"contracts/Wallet/wallet.sol\":2283:2394  transactionHistory.push(... */\n      swap1\n      dup1\n      0x01\n      dup2\n      sload\n      add\n      dup1\n      dup3\n      sstore\n      dup1\n      swap2\n      pop\n      pop\n      0x01\n      swap1\n      sub\n      swap1\n      0x00\n      mstore\n      keccak256(0x00, 0x20)\n      swap1\n      0x04\n      mul\n      add\n      0x00\n      swap1\n      swap2\n      swap1\n      swap2\n      swap1\n      swap2\n      pop\n      0x00\n      dup3\n      add\n      mload\n      dup2\n      0x00\n      add\n      exp(0x0100, 0x00)\n      dup2\n      sload\n      dup2\n      0xffffffffffffffffffffffffffffffffffffffff\n      mul\n      not\n      and\n      swap1\n      dup4\n      0xffffffffffffffffffffffffffffffffffffffff\n      and\n      mul\n      or\n      swap1\n      sstore\n      pop\n      0x20\n      dup3\n      add\n      mload\n      dup2\n      0x01\n      add\n      exp(0x0100, 0x00)\n      dup2\n      sload\n      dup2\n      0xffffffffffffffffffffffffffffffffffffffff\n      mul\n      not\n      and\n      swap1\n      dup4\n      0xffffffffffffffffffffffffffffffffffffffff\n      and\n      mul\n      or\n      swap1\n      sstore\n      pop\n      0x40\n      dup3\n      add\n      mload\n      dup2\n      0x02\n      add\n      sstore\n      0x60\n      dup3\n      add\n      mload\n      dup2\n      0x03\n      add\n      sstore\n      pop\n      pop\n        /* \"contracts/Wallet/wallet.sol\":2081:2402  function withdrawFromContract(uint _weiAmount) external onlyOwner {... */\n      pop\n      jump\t// out\n        /* \"contracts/Wallet/wallet.sol\":3675:3829  function getTransactionHistory()... */\n    tag_70:\n        /* \"contracts/Wallet/wallet.sol\":3758:3778  Transaction[] memory */\n      0x60\n        /* \"contracts/Wallet/wallet.sol\":3803:3821  transactionHistory */\n      0x00\n        /* \"contracts/Wallet/wallet.sol\":3796:3821  return transactionHistory */\n      dup1\n      sload\n      dup1\n      0x20\n      mul\n      0x20\n      add\n      mload(0x40)\n      swap1\n      dup2\n      add\n      0x40\n      mstore\n      dup1\n      swap3\n      swap2\n      swap1\n      dup2\n      dup2\n      mstore\n      0x20\n      add\n      0x00\n      swap1\n    tag_149:\n      dup3\n      dup3\n      lt\n      iszero\n      tag_150\n      jumpi\n      dup4\n      dup3\n      swap1\n      0x00\n      mstore\n      keccak256(0x00, 0x20)\n      swap1\n      0x04\n      mul\n      add\n      mload(0x40)\n      dup1\n      0x80\n      add\n      0x40\n      mstore\n      swap1\n      dup2\n      0x00\n      dup3\n      add\n      0x00\n      swap1\n      sload\n      swap1\n      0x0100\n      exp\n      swap1\n      div\n      0xffffffffffffffffffffffffffffffffffffffff\n      and\n      0xffffffffffffffffffffffffffffffffffffffff\n      and\n      0xffffffffffffffffffffffffffffffffffffffff\n      and\n      dup2\n      mstore\n      0x20\n      add\n      0x01\n      dup3\n      add\n      0x00\n      swap1\n      sload\n      swap1\n      0x0100\n      exp\n      swap1\n      div\n      0xffffffffffffffffffffffffffffffffffffffff\n      and\n      0xffffffffffffffffffffffffffffffffffffffff\n      and\n      0xffffffffffffffffffffffffffffffffffffffff\n      and\n      dup2\n      mstore\n      0x20\n      add\n      0x02\n      dup3\n      add\n      sload\n      dup2\n      mstore\n      0x20\n      add\n      0x03\n      dup3\n      add\n      sload\n      dup2\n      mstore\n      pop\n      pop\n      dup2\n      mstore\n      0x20\n      add\n      swap1\n      0x01\n      add\n      swap1\n      jump(tag_149)\n    tag_150:\n      pop\n      pop\n      pop\n      pop\n      swap1\n      pop\n        /* \"contracts/Wallet/wallet.sol\":3675:3829  function getTransactionHistory()... */\n      swap1\n      jump\t// out\n        /* \"contracts/Wallet/wallet.sol\":723:769  mapping(address => uint) public suspiciousUser */\n    tag_76:\n      mstore(0x20, 0x02)\n      dup1\n      0x00\n      mstore\n      keccak256(0x00, 0x40)\n      0x00\n      swap2\n      pop\n      swap1\n      pop\n      sload\n      dup2\n      jump\t// out\n        /* \"contracts/Wallet/wallet.sol\":2410:2521  function getContractBalanceInWei() external view returns (uint) {... */\n    tag_81:\n        /* \"contracts/Wallet/wallet.sol\":2468:2472  uint */\n      0x00\n        /* \"contracts/Wallet/wallet.sol\":2492:2513  address(this).balance */\n      selfbalance\n        /* \"contracts/Wallet/wallet.sol\":2485:2513  return address(this).balance */\n      swap1\n      pop\n        /* \"contracts/Wallet/wallet.sol\":2410:2521  function getContractBalanceInWei() external view returns (uint) {... */\n      swap1\n      jump\t// out\n        /* \"contracts/Wallet/wallet.sol\":2825:3153  function receiveFromUser() external payable {... */\n    tag_87:\n        /* \"contracts/Wallet/wallet.sol\":2900:2901  0 */\n      0x00\n        /* \"contracts/Wallet/wallet.sol\":2888:2897  msg.value */\n      callvalue\n        /* \"contracts/Wallet/wallet.sol\":2888:2901  msg.value > 0 */\n      gt\n        /* \"contracts/Wallet/wallet.sol\":2880:2924  require(msg.value > 0, \"Amount must be > 0\") */\n      tag_154\n      jumpi\n      mload(0x40)\n      0x08c379a000000000000000000000000000000000000000000000000000000000\n      dup2\n      mstore\n      0x04\n      add\n      tag_155\n      swap1\n      tag_156\n      jump\t// in\n    tag_155:\n      mload(0x40)\n      dup1\n      swap2\n      sub\n      swap1\n      revert\n    tag_154:\n        /* \"contracts/Wallet/wallet.sol\":2943:2948  owner */\n      0x01\n      0x00\n      swap1\n      sload\n      swap1\n      0x0100\n      exp\n      swap1\n      div\n      0xffffffffffffffffffffffffffffffffffffffff\n      and\n        /* \"contracts/Wallet/wallet.sol\":2935:2958  payable(owner).transfer */\n      0xffffffffffffffffffffffffffffffffffffffff\n      and\n        /* \"contracts/Wallet/wallet.sol\":2935:2969  payable(owner).transfer(msg.value) */\n      0x08fc\n        /* \"contracts/Wallet/wallet.sol\":2959:2968  msg.value */\n      callvalue\n        /* \"contracts/Wallet/wallet.sol\":2935:2969  payable(owner).transfer(msg.value) */\n      swap1\n      dup2\n      iszero\n      mul\n      swap1\n      mload(0x40)\n      0x00\n      mload(0x40)\n      dup1\n      dup4\n      sub\n      dup2\n      dup6\n      dup9\n      dup9\n      call\n      swap4\n      pop\n      pop\n      pop\n      pop\n      iszero\n      dup1\n      iszero\n      tag_158\n      jumpi\n      returndatacopy(0x00, 0x00, returndatasize)\n      revert(0x00, returndatasize)\n    tag_158:\n      pop\n        /* \"contracts/Wallet/wallet.sol\":2985:3027  ReceiverUser(msg.sender, owner, msg.value) */\n      0x1c3b5a69fb0f252f94cb82044a3e84ed1640cc4913574be977dc964c8851a54d\n        /* \"contracts/Wallet/wallet.sol\":2998:3008  msg.sender */\n      caller\n        /* \"contracts/Wallet/wallet.sol\":3010:3015  owner */\n      0x01\n      0x00\n      swap1\n      sload\n      swap1\n      0x0100\n      exp\n      swap1\n      div\n      0xffffffffffffffffffffffffffffffffffffffff\n      and\n        /* \"contracts/Wallet/wallet.sol\":3017:3026  msg.value */\n      callvalue\n        /* \"contracts/Wallet/wallet.sol\":2985:3027  ReceiverUser(msg.sender, owner, msg.value) */\n      mload(0x40)\n      tag_159\n      swap4\n      swap3\n      swap2\n      swap1\n      tag_160\n      jump\t// in\n    tag_159:\n      mload(0x40)\n      dup1\n      swap2\n      sub\n      swap1\n      log1\n        /* \"contracts/Wallet/wallet.sol\":3038:3056  transactionHistory */\n      0x00\n        /* \"contracts/Wallet/wallet.sol\":3076:3134  Transaction(msg.sender, owner, block.timestamp, msg.value) */\n      mload(0x40)\n      dup1\n      0x80\n      add\n      0x40\n      mstore\n      dup1\n        /* \"contracts/Wallet/wallet.sol\":3088:3098  msg.sender */\n      caller\n        /* \"contracts/Wallet/wallet.sol\":3076:3134  Transaction(msg.sender, owner, block.timestamp, msg.value) */\n      0xffffffffffffffffffffffffffffffffffffffff\n      and\n      dup2\n      mstore\n      0x20\n      add\n        /* \"contracts/Wallet/wallet.sol\":3100:3105  owner */\n      0x01\n      0x00\n      swap1\n      sload\n      swap1\n      0x0100\n      exp\n      swap1\n      div\n      0xffffffffffffffffffffffffffffffffffffffff\n      and\n        /* \"contracts/Wallet/wallet.sol\":3076:3134  Transaction(msg.sender, owner, block.timestamp, msg.value) */\n      0xffffffffffffffffffffffffffffffffffffffff\n      and\n      dup2\n      mstore\n      0x20\n      add\n        /* \"contracts/Wallet/wallet.sol\":3107:3122  block.timestamp */\n      timestamp\n        /* \"contracts/Wallet/wallet.sol\":3076:3134  Transaction(msg.sender, owner, block.timestamp, msg.value) */\n      dup2\n      mstore\n      0x20\n      add\n        /* \"contracts/Wallet/wallet.sol\":3124:3133  msg.value */\n      callvalue\n        /* \"contracts/Wallet/wallet.sol\":3076:3134  Transaction(msg.sender, owner, block.timestamp, msg.value) */\n      dup2\n      mstore\n      pop\n        /* \"contracts/Wallet/wallet.sol\":3038:3145  transactionHistory.push(... */\n      swap1\n      dup1\n      0x01\n      dup2\n      sload\n      add\n      dup1\n      dup3\n      sstore\n      dup1\n      swap2\n      pop\n      pop\n      0x01\n      swap1\n      sub\n      swap1\n      0x00\n      mstore\n      keccak256(0x00, 0x20)\n      swap1\n      0x04\n      mul\n      add\n      0x00\n      swap1\n      swap2\n      swap1\n      swap2\n      swap1\n      swap2\n      pop\n      0x00\n      dup3\n      add\n      mload\n      dup2\n      0x00\n      add\n      exp(0x0100, 0x00)\n      dup2\n      sload\n      dup2\n      0xffffffffffffffffffffffffffffffffffffffff\n      mul\n      not\n      and\n      swap1\n      dup4\n      0xffffffffffffffffffffffffffffffffffffffff\n      and\n      mul\n      or\n      swap1\n      sstore\n      pop\n      0x20\n      dup3\n      add\n      mload\n      dup2\n      0x01\n      add\n      exp(0x0100, 0x00)\n      dup2\n      sload\n      dup2\n      0xffffffffffffffffffffffffffffffffffffffff\n      mul\n      not\n      and\n      swap1\n      dup4\n      0xffffffffffffffffffffffffffffffffffffffff\n      and\n      mul\n      or\n      swap1\n      sstore\n      pop\n      0x40\n      dup3\n      add\n      mload\n      dup2\n      0x02\n      add\n      sstore\n      0x60\n      dup3\n      add\n      mload\n      dup2\n      0x03\n      add\n      sstore\n      pop\n      pop\n        /* \"contracts/Wallet/wallet.sol\":2825:3153  function receiveFromUser() external payable {... */\n      jump\t// out\n        /* \"contracts/Wallet/wallet.sol\":1338:1670  function transferToContract(uint _startTime)... */\n    tag_90:\n        /* \"contracts/Wallet/wallet.sol\":1445:1455  msg.sender */\n      caller\n        /* \"contracts/Wallet/wallet.sol\":867:868  5 */\n      0x05\n        /* \"contracts/Wallet/wallet.sol\":841:855  suspiciousUser */\n      0x02\n        /* \"contracts/Wallet/wallet.sol\":841:864  suspiciousUser[_sender] */\n      0x00\n        /* \"contracts/Wallet/wallet.sol\":856:863  _sender */\n      dup4\n        /* \"contracts/Wallet/wallet.sol\":841:864  suspiciousUser[_sender] */\n      0xffffffffffffffffffffffffffffffffffffffff\n      and\n      0xffffffffffffffffffffffffffffffffffffffff\n      and\n      dup2\n      mstore\n      0x20\n      add\n      swap1\n      dup2\n      mstore\n      0x20\n      add\n      0x00\n      keccak256\n      sload\n        /* \"contracts/Wallet/wallet.sol\":841:868  suspiciousUser[_sender] < 5 */\n      lt\n        /* \"contracts/Wallet/wallet.sol\":833:903  require(suspiciousUser[_sender] < 5, \"Activity suspicious, try later\") */\n      tag_163\n      jumpi\n      mload(0x40)\n      0x08c379a000000000000000000000000000000000000000000000000000000000\n      dup2\n      mstore\n      0x04\n      add\n      tag_164\n      swap1\n      tag_165\n      jump\t// in\n    tag_164:\n      mload(0x40)\n      dup1\n      swap2\n      sub\n      swap1\n      revert\n    tag_163:\n        /* \"contracts/Wallet/wallet.sol\":1500:1510  _startTime */\n      dup2\n        /* \"contracts/Wallet/wallet.sol\":1481:1496  block.timestamp */\n      timestamp\n        /* \"contracts/Wallet/wallet.sol\":1481:1510  block.timestamp >= _startTime */\n      lt\n      iszero\n        /* \"contracts/Wallet/wallet.sol\":1473:1536  require(block.timestamp >= _startTime, \"Send after start time\") */\n      tag_167\n      jumpi\n      mload(0x40)\n      0x08c379a000000000000000000000000000000000000000000000000000000000\n      dup2\n      mstore\n      0x04\n      add\n      tag_168\n      swap1\n      tag_169\n      jump\t// in\n    tag_168:\n      mload(0x40)\n      dup1\n      swap2\n      sub\n      swap1\n      revert\n    tag_167:\n        /* \"contracts/Wallet/wallet.sol\":1547:1565  transactionHistory */\n      0x00\n        /* \"contracts/Wallet/wallet.sol\":1585:1651  Transaction(msg.sender, address(this), block.timestamp, msg.value) */\n      mload(0x40)\n      dup1\n      0x80\n      add\n      0x40\n      mstore\n      dup1\n        /* \"contracts/Wallet/wallet.sol\":1597:1607  msg.sender */\n      caller\n        /* \"contracts/Wallet/wallet.sol\":1585:1651  Transaction(msg.sender, address(this), block.timestamp, msg.value) */\n      0xffffffffffffffffffffffffffffffffffffffff\n      and\n      dup2\n      mstore\n      0x20\n      add\n        /* \"contracts/Wallet/wallet.sol\":1617:1621  this */\n      address\n        /* \"contracts/Wallet/wallet.sol\":1585:1651  Transaction(msg.sender, address(this), block.timestamp, msg.value) */\n      0xffffffffffffffffffffffffffffffffffffffff\n      and\n      dup2\n      mstore\n      0x20\n      add\n        /* \"contracts/Wallet/wallet.sol\":1624:1639  block.timestamp */\n      timestamp\n        /* \"contracts/Wallet/wallet.sol\":1585:1651  Transaction(msg.sender, address(this), block.timestamp, msg.value) */\n      dup2\n      mstore\n      0x20\n      add\n        /* \"contracts/Wallet/wallet.sol\":1641:1650  msg.value */\n      callvalue\n        /* \"contracts/Wallet/wallet.sol\":1585:1651  Transaction(msg.sender, address(this), block.timestamp, msg.value) */\n      dup2\n      mstore\n      pop\n        /* \"contracts/Wallet/wallet.sol\":1547:1662  transactionHistory.push(... */\n      swap1\n      dup1\n      0x01\n      dup2\n      sload\n      add\n      dup1\n      dup3\n      sstore\n      dup1\n      swap2\n      pop\n      pop\n      0x01\n      swap1\n      sub\n      swap1\n      0x00\n      mstore\n      keccak256(0x00, 0x20)\n      swap1\n      0x04\n      mul\n      add\n      0x00\n      swap1\n      swap2\n      swap1\n      swap2\n      swap1\n      swap2\n      pop\n      0x00\n      dup3\n      add\n      mload\n      dup2\n      0x00\n      add\n      exp(0x0100, 0x00)\n      dup2\n      sload\n      dup2\n      0xffffffffffffffffffffffffffffffffffffffff\n      mul\n      not\n      and\n      swap1\n      dup4\n      0xffffffffffffffffffffffffffffffffffffffff\n      and\n      mul\n      or\n      swap1\n      sstore\n      pop\n      0x20\n      dup3\n      add\n      mload\n      dup2\n      0x01\n      add\n      exp(0x0100, 0x00)\n      dup2\n      sload\n      dup2\n      0xffffffffffffffffffffffffffffffffffffffff\n      mul\n      not\n      and\n      swap1\n      dup4\n      0xffffffffffffffffffffffffffffffffffffffff\n      and\n      mul\n      or\n      swap1\n      sstore\n      pop\n      0x40\n      dup3\n      add\n      mload\n      dup2\n      0x02\n      add\n      sstore\n      0x60\n      dup3\n      add\n      mload\n      dup2\n      0x03\n      add\n      sstore\n      pop\n      pop\n        /* \"contracts/Wallet/wallet.sol\":1338:1670  function transferToContract(uint _startTime)... */\n      pop\n      pop\n      jump\t// out\n        /* \"contracts/Wallet/wallet.sol\":3837:4008  function emergencyWithdraw() external onlyOwner {... */\n    tag_93:\n        /* \"contracts/Wallet/wallet.sol\":664:669  owner */\n      0x01\n      0x00\n      swap1\n      sload\n      swap1\n      0x0100\n      exp\n      swap1\n      div\n      0xffffffffffffffffffffffffffffffffffffffff\n      and\n        /* \"contracts/Wallet/wallet.sol\":650:669  msg.sender == owner */\n      0xffffffffffffffffffffffffffffffffffffffff\n      and\n        /* \"contracts/Wallet/wallet.sol\":650:660  msg.sender */\n      caller\n        /* \"contracts/Wallet/wallet.sol\":650:669  msg.sender == owner */\n      0xffffffffffffffffffffffffffffffffffffffff\n      and\n      eq\n        /* \"contracts/Wallet/wallet.sol\":642:695  require(msg.sender == owner, \"You don't have access\") */\n      tag_172\n      jumpi\n      mload(0x40)\n      0x08c379a000000000000000000000000000000000000000000000000000000000\n      dup2\n      mstore\n      0x04\n      add\n      tag_173\n      swap1\n      tag_106\n      jump\t// in\n    tag_173:\n      mload(0x40)\n      dup1\n      swap2\n      sub\n      swap1\n      revert\n    tag_172:\n        /* \"contracts/Wallet/wallet.sol\":3912:3916  true */\n      0x01\n        /* \"contracts/Wallet/wallet.sol\":3904:3916  stop == true */\n      iszero\n      iszero\n        /* \"contracts/Wallet/wallet.sol\":3904:3908  stop */\n      0x01\n      0x14\n      swap1\n      sload\n      swap1\n      0x0100\n      exp\n      swap1\n      div\n      0xff\n      and\n        /* \"contracts/Wallet/wallet.sol\":3904:3916  stop == true */\n      iszero\n      iszero\n      eq\n        /* \"contracts/Wallet/wallet.sol\":3896:3943  require(stop == true, \"Emergency not declared\") */\n      tag_175\n      jumpi\n      mload(0x40)\n      0x08c379a000000000000000000000000000000000000000000000000000000000\n      dup2\n      mstore\n      0x04\n      add\n      tag_176\n      swap1\n      tag_177\n      jump\t// in\n    tag_176:\n      mload(0x40)\n      dup1\n      swap2\n      sub\n      swap1\n      revert\n    tag_175:\n        /* \"contracts/Wallet/wallet.sol\":3962:3967  owner */\n      0x01\n      0x00\n      swap1\n      sload\n      swap1\n      0x0100\n      exp\n      swap1\n      div\n      0xffffffffffffffffffffffffffffffffffffffff\n      and\n        /* \"contracts/Wallet/wallet.sol\":3954:3977  payable(owner).transfer */\n      0xffffffffffffffffffffffffffffffffffffffff\n      and\n        /* \"contracts/Wallet/wallet.sol\":3954:4000  payable(owner).transfer(address(this).balance) */\n      0x08fc\n        /* \"contracts/Wallet/wallet.sol\":3978:3999  address(this).balance */\n      selfbalance\n        /* \"contracts/Wallet/wallet.sol\":3954:4000  payable(owner).transfer(address(this).balance) */\n      swap1\n      dup2\n      iszero\n      mul\n      swap1\n      mload(0x40)\n      0x00\n      mload(0x40)\n      dup1\n      dup4\n      sub\n      dup2\n      dup6\n      dup9\n      dup9\n      call\n      swap4\n      pop\n      pop\n      pop\n      pop\n      iszero\n      dup1\n      iszero\n      tag_179\n      jumpi\n      returndatacopy(0x00, 0x00, returndatasize)\n      revert(0x00, returndatasize)\n    tag_179:\n      pop\n        /* \"contracts/Wallet/wallet.sol\":3837:4008  function emergencyWithdraw() external onlyOwner {... */\n      jump\t// out\n        /* \"contracts/Wallet/wallet.sol\":3161:3259  function getOwnerBalanceWei() external view returns (uint) {... */\n    tag_96:\n        /* \"contracts/Wallet/wallet.sol\":3214:3218  uint */\n      0x00\n        /* \"contracts/Wallet/wallet.sol\":3238:3243  owner */\n      0x01\n      0x00\n      swap1\n      sload\n      swap1\n      0x0100\n      exp\n      swap1\n      div\n      0xffffffffffffffffffffffffffffffffffffffff\n      and\n        /* \"contracts/Wallet/wallet.sol\":3238:3251  owner.balance */\n      0xffffffffffffffffffffffffffffffffffffffff\n      and\n      balance\n        /* \"contracts/Wallet/wallet.sol\":3231:3251  return owner.balance */\n      swap1\n      pop\n        /* \"contracts/Wallet/wallet.sol\":3161:3259  function getOwnerBalanceWei() external view returns (uint) {... */\n      swap1\n      jump\t// out\n        /* \"#utility.yul\":7:133   */\n    tag_181:\n        /* \"#utility.yul\":44:51   */\n      0x00\n        /* \"#utility.yul\":84:126   */\n      0xffffffffffffffffffffffffffffffffffffffff\n        /* \"#utility.yul\":77:82   */\n      dup3\n        /* \"#utility.yul\":73:127   */\n      and\n        /* \"#utility.yul\":62:127   */\n      swap1\n      pop\n        /* \"#utility.yul\":7:133   */\n      swap2\n      swap1\n      pop\n      jump\t// out\n        /* \"#utility.yul\":139:235   */\n    tag_182:\n        /* \"#utility.yul\":176:183   */\n      0x00\n        /* \"#utility.yul\":205:229   */\n      tag_235\n        /* \"#utility.yul\":223:228   */\n      dup3\n        /* \"#utility.yul\":205:229   */\n      tag_181\n      jump\t// in\n    tag_235:\n        /* \"#utility.yul\":194:229   */\n      swap1\n      pop\n        /* \"#utility.yul\":139:235   */\n      swap2\n      swap1\n      pop\n      jump\t// out\n        /* \"#utility.yul\":241:359   */\n    tag_183:\n        /* \"#utility.yul\":328:352   */\n      tag_237\n        /* \"#utility.yul\":346:351   */\n      dup2\n        /* \"#utility.yul\":328:352   */\n      tag_182\n      jump\t// in\n    tag_237:\n        /* \"#utility.yul\":323:326   */\n      dup3\n        /* \"#utility.yul\":316:353   */\n      mstore\n        /* \"#utility.yul\":241:359   */\n      pop\n      pop\n      jump\t// out\n        /* \"#utility.yul\":365:442   */\n    tag_184:\n        /* \"#utility.yul\":402:409   */\n      0x00\n        /* \"#utility.yul\":431:436   */\n      dup2\n        /* \"#utility.yul\":420:436   */\n      swap1\n      pop\n        /* \"#utility.yul\":365:442   */\n      swap2\n      swap1\n      pop\n      jump\t// out\n        /* \"#utility.yul\":448:566   */\n    tag_185:\n        /* \"#utility.yul\":535:559   */\n      tag_240\n        /* \"#utility.yul\":553:558   */\n      dup2\n        /* \"#utility.yul\":535:559   */\n      tag_184\n      jump\t// in\n    tag_240:\n        /* \"#utility.yul\":530:533   */\n      dup3\n        /* \"#utility.yul\":523:560   */\n      mstore\n        /* \"#utility.yul\":448:566   */\n      pop\n      pop\n      jump\t// out\n        /* \"#utility.yul\":572:904   */\n    tag_26:\n        /* \"#utility.yul\":693:697   */\n      0x00\n        /* \"#utility.yul\":731:733   */\n      0x40\n        /* \"#utility.yul\":720:729   */\n      dup3\n        /* \"#utility.yul\":716:734   */\n      add\n        /* \"#utility.yul\":708:734   */\n      swap1\n      pop\n        /* \"#utility.yul\":744:815   */\n      tag_242\n        /* \"#utility.yul\":812:813   */\n      0x00\n        /* \"#utility.yul\":801:810   */\n      dup4\n        /* \"#utility.yul\":797:814   */\n      add\n        /* \"#utility.yul\":788:794   */\n      dup6\n        /* \"#utility.yul\":744:815   */\n      tag_183\n      jump\t// in\n    tag_242:\n        /* \"#utility.yul\":825:897   */\n      tag_243\n        /* \"#utility.yul\":893:895   */\n      0x20\n        /* \"#utility.yul\":882:891   */\n      dup4\n        /* \"#utility.yul\":878:896   */\n      add\n        /* \"#utility.yul\":869:875   */\n      dup5\n        /* \"#utility.yul\":825:897   */\n      tag_185\n      jump\t// in\n    tag_243:\n        /* \"#utility.yul\":572:904   */\n      swap4\n      swap3\n      pop\n      pop\n      pop\n      jump\t// out\n        /* \"#utility.yul\":910:1000   */\n    tag_186:\n        /* \"#utility.yul\":944:951   */\n      0x00\n        /* \"#utility.yul\":987:992   */\n      dup2\n        /* \"#utility.yul\":980:993   */\n      iszero\n        /* \"#utility.yul\":973:994   */\n      iszero\n        /* \"#utility.yul\":962:994   */\n      swap1\n      pop\n        /* \"#utility.yul\":910:1000   */\n      swap2\n      swap1\n      pop\n      jump\t// out\n        /* \"#utility.yul\":1006:1115   */\n    tag_187:\n        /* \"#utility.yul\":1087:1108   */\n      tag_246\n        /* \"#utility.yul\":1102:1107   */\n      dup2\n        /* \"#utility.yul\":1087:1108   */\n      tag_186\n      jump\t// in\n    tag_246:\n        /* \"#utility.yul\":1082:1085   */\n      dup3\n        /* \"#utility.yul\":1075:1109   */\n      mstore\n        /* \"#utility.yul\":1006:1115   */\n      pop\n      pop\n      jump\t// out\n        /* \"#utility.yul\":1121:1331   */\n    tag_35:\n        /* \"#utility.yul\":1208:1212   */\n      0x00\n        /* \"#utility.yul\":1246:1248   */\n      0x20\n        /* \"#utility.yul\":1235:1244   */\n      dup3\n        /* \"#utility.yul\":1231:1249   */\n      add\n        /* \"#utility.yul\":1223:1249   */\n      swap1\n      pop\n        /* \"#utility.yul\":1259:1324   */\n      tag_248\n        /* \"#utility.yul\":1321:1322   */\n      0x00\n        /* \"#utility.yul\":1310:1319   */\n      dup4\n        /* \"#utility.yul\":1306:1323   */\n      add\n        /* \"#utility.yul\":1297:1303   */\n      dup5\n        /* \"#utility.yul\":1259:1324   */\n      tag_187\n      jump\t// in\n    tag_248:\n        /* \"#utility.yul\":1121:1331   */\n      swap3\n      swap2\n      pop\n      pop\n      jump\t// out\n        /* \"#utility.yul\":1418:1535   */\n    tag_189:\n        /* \"#utility.yul\":1527:1528   */\n      0x00\n        /* \"#utility.yul\":1524:1525   */\n      0x00\n        /* \"#utility.yul\":1517:1529   */\n      revert\n        /* \"#utility.yul\":1664:1786   */\n    tag_191:\n        /* \"#utility.yul\":1737:1761   */\n      tag_253\n        /* \"#utility.yul\":1755:1760   */\n      dup2\n        /* \"#utility.yul\":1737:1761   */\n      tag_184\n      jump\t// in\n    tag_253:\n        /* \"#utility.yul\":1730:1735   */\n      dup2\n        /* \"#utility.yul\":1727:1762   */\n      eq\n        /* \"#utility.yul\":1717:1780   */\n      tag_254\n      jumpi\n        /* \"#utility.yul\":1776:1777   */\n      0x00\n        /* \"#utility.yul\":1773:1774   */\n      0x00\n        /* \"#utility.yul\":1766:1778   */\n      revert\n        /* \"#utility.yul\":1717:1780   */\n    tag_254:\n        /* \"#utility.yul\":1664:1786   */\n      pop\n      jump\t// out\n        /* \"#utility.yul\":1792:1931   */\n    tag_192:\n        /* \"#utility.yul\":1838:1843   */\n      0x00\n        /* \"#utility.yul\":1876:1882   */\n      dup2\n        /* \"#utility.yul\":1863:1883   */\n      calldataload\n        /* \"#utility.yul\":1854:1883   */\n      swap1\n      pop\n        /* \"#utility.yul\":1892:1925   */\n      tag_256\n        /* \"#utility.yul\":1919:1924   */\n      dup2\n        /* \"#utility.yul\":1892:1925   */\n      tag_191\n      jump\t// in\n    tag_256:\n        /* \"#utility.yul\":1792:1931   */\n      swap3\n      swap2\n      pop\n      pop\n      jump\t// out\n        /* \"#utility.yul\":1937:2266   */\n    tag_39:\n        /* \"#utility.yul\":1996:2002   */\n      0x00\n        /* \"#utility.yul\":2045:2047   */\n      0x20\n        /* \"#utility.yul\":2033:2042   */\n      dup3\n        /* \"#utility.yul\":2024:2031   */\n      dup5\n        /* \"#utility.yul\":2020:2043   */\n      sub\n        /* \"#utility.yul\":2016:2048   */\n      slt\n        /* \"#utility.yul\":2013:2132   */\n      iszero\n      tag_258\n      jumpi\n        /* \"#utility.yul\":2051:2130   */\n      tag_259\n      tag_189\n      jump\t// in\n    tag_259:\n        /* \"#utility.yul\":2013:2132   */\n    tag_258:\n        /* \"#utility.yul\":2171:2172   */\n      0x00\n        /* \"#utility.yul\":2196:2249   */\n      tag_260\n        /* \"#utility.yul\":2241:2248   */\n      dup5\n        /* \"#utility.yul\":2232:2238   */\n      dup3\n        /* \"#utility.yul\":2221:2230   */\n      dup6\n        /* \"#utility.yul\":2217:2239   */\n      add\n        /* \"#utility.yul\":2196:2249   */\n      tag_192\n      jump\t// in\n    tag_260:\n        /* \"#utility.yul\":2186:2249   */\n      swap2\n      pop\n        /* \"#utility.yul\":2142:2259   */\n      pop\n        /* \"#utility.yul\":1937:2266   */\n      swap3\n      swap2\n      pop\n      pop\n      jump\t// out\n        /* \"#utility.yul\":2272:2825   */\n    tag_42:\n        /* \"#utility.yul\":2449:2453   */\n      0x00\n        /* \"#utility.yul\":2487:2490   */\n      0x80\n        /* \"#utility.yul\":2476:2485   */\n      dup3\n        /* \"#utility.yul\":2472:2491   */\n      add\n        /* \"#utility.yul\":2464:2491   */\n      swap1\n      pop\n        /* \"#utility.yul\":2501:2572   */\n      tag_262\n        /* \"#utility.yul\":2569:2570   */\n      0x00\n        /* \"#utility.yul\":2558:2567   */\n      dup4\n        /* \"#utility.yul\":2554:2571   */\n      add\n        /* \"#utility.yul\":2545:2551   */\n      dup8\n        /* \"#utility.yul\":2501:2572   */\n      tag_183\n      jump\t// in\n    tag_262:\n        /* \"#utility.yul\":2582:2654   */\n      tag_263\n        /* \"#utility.yul\":2650:2652   */\n      0x20\n        /* \"#utility.yul\":2639:2648   */\n      dup4\n        /* \"#utility.yul\":2635:2653   */\n      add\n        /* \"#utility.yul\":2626:2632   */\n      dup7\n        /* \"#utility.yul\":2582:2654   */\n      tag_183\n      jump\t// in\n    tag_263:\n        /* \"#utility.yul\":2664:2736   */\n      tag_264\n        /* \"#utility.yul\":2732:2734   */\n      0x40\n        /* \"#utility.yul\":2721:2730   */\n      dup4\n        /* \"#utility.yul\":2717:2735   */\n      add\n        /* \"#utility.yul\":2708:2714   */\n      dup6\n        /* \"#utility.yul\":2664:2736   */\n      tag_185\n      jump\t// in\n    tag_264:\n        /* \"#utility.yul\":2746:2818   */\n      tag_265\n        /* \"#utility.yul\":2814:2816   */\n      0x60\n        /* \"#utility.yul\":2803:2812   */\n      dup4\n        /* \"#utility.yul\":2799:2817   */\n      add\n        /* \"#utility.yul\":2790:2796   */\n      dup5\n        /* \"#utility.yul\":2746:2818   */\n      tag_185\n      jump\t// in\n    tag_265:\n        /* \"#utility.yul\":2272:2825   */\n      swap6\n      swap5\n      pop\n      pop\n      pop\n      pop\n      pop\n      jump\t// out\n        /* \"#utility.yul\":2831:2935   */\n    tag_193:\n        /* \"#utility.yul\":2876:2883   */\n      0x00\n        /* \"#utility.yul\":2905:2929   */\n      tag_267\n        /* \"#utility.yul\":2923:2928   */\n      dup3\n        /* \"#utility.yul\":2905:2929   */\n      tag_181\n      jump\t// in\n    tag_267:\n        /* \"#utility.yul\":2894:2929   */\n      swap1\n      pop\n        /* \"#utility.yul\":2831:2935   */\n      swap2\n      swap1\n      pop\n      jump\t// out\n        /* \"#utility.yul\":2941:3079   */\n    tag_194:\n        /* \"#utility.yul\":3022:3054   */\n      tag_269\n        /* \"#utility.yul\":3048:3053   */\n      dup2\n        /* \"#utility.yul\":3022:3054   */\n      tag_193\n      jump\t// in\n    tag_269:\n        /* \"#utility.yul\":3015:3020   */\n      dup2\n        /* \"#utility.yul\":3012:3055   */\n      eq\n        /* \"#utility.yul\":3002:3073   */\n      tag_270\n      jumpi\n        /* \"#utility.yul\":3069:3070   */\n      0x00\n        /* \"#utility.yul\":3066:3067   */\n      0x00\n        /* \"#utility.yul\":3059:3071   */\n      revert\n        /* \"#utility.yul\":3002:3073   */\n    tag_270:\n        /* \"#utility.yul\":2941:3079   */\n      pop\n      jump\t// out\n        /* \"#utility.yul\":3085:3240   */\n    tag_195:\n        /* \"#utility.yul\":3139:3144   */\n      0x00\n        /* \"#utility.yul\":3177:3183   */\n      dup2\n        /* \"#utility.yul\":3164:3184   */\n      calldataload\n        /* \"#utility.yul\":3155:3184   */\n      swap1\n      pop\n        /* \"#utility.yul\":3193:3234   */\n      tag_272\n        /* \"#utility.yul\":3228:3233   */\n      dup2\n        /* \"#utility.yul\":3193:3234   */\n      tag_194\n      jump\t// in\n    tag_272:\n        /* \"#utility.yul\":3085:3240   */\n      swap3\n      swap2\n      pop\n      pop\n      jump\t// out\n        /* \"#utility.yul\":3246:3736   */\n    tag_46:\n        /* \"#utility.yul\":3322:3328   */\n      0x00\n        /* \"#utility.yul\":3330:3336   */\n      0x00\n        /* \"#utility.yul\":3379:3381   */\n      0x40\n        /* \"#utility.yul\":3367:3376   */\n      dup4\n        /* \"#utility.yul\":3358:3365   */\n      dup6\n        /* \"#utility.yul\":3354:3377   */\n      sub\n        /* \"#utility.yul\":3350:3382   */\n      slt\n        /* \"#utility.yul\":3347:3466   */\n      iszero\n      tag_274\n      jumpi\n        /* \"#utility.yul\":3385:3464   */\n      tag_275\n      tag_189\n      jump\t// in\n    tag_275:\n        /* \"#utility.yul\":3347:3466   */\n    tag_274:\n        /* \"#utility.yul\":3505:3506   */\n      0x00\n        /* \"#utility.yul\":3530:3591   */\n      tag_276\n        /* \"#utility.yul\":3583:3590   */\n      dup6\n        /* \"#utility.yul\":3574:3580   */\n      dup3\n        /* \"#utility.yul\":3563:3572   */\n      dup7\n        /* \"#utility.yul\":3559:3581   */\n      add\n        /* \"#utility.yul\":3530:3591   */\n      tag_195\n      jump\t// in\n    tag_276:\n        /* \"#utility.yul\":3520:3591   */\n      swap3\n      pop\n        /* \"#utility.yul\":3476:3601   */\n      pop\n        /* \"#utility.yul\":3640:3642   */\n      0x20\n        /* \"#utility.yul\":3666:3719   */\n      tag_277\n        /* \"#utility.yul\":3711:3718   */\n      dup6\n        /* \"#utility.yul\":3702:3708   */\n      dup3\n        /* \"#utility.yul\":3691:3700   */\n      dup7\n        /* \"#utility.yul\":3687:3709   */\n      add\n        /* \"#utility.yul\":3666:3719   */\n      tag_192\n      jump\t// in\n    tag_277:\n        /* \"#utility.yul\":3656:3719   */\n      swap2\n      pop\n        /* \"#utility.yul\":3611:3729   */\n      pop\n        /* \"#utility.yul\":3246:3736   */\n      swap3\n      pop\n      swap3\n      swap1\n      pop\n      jump\t// out\n        /* \"#utility.yul\":3742:3864   */\n    tag_196:\n        /* \"#utility.yul\":3815:3839   */\n      tag_279\n        /* \"#utility.yul\":3833:3838   */\n      dup2\n        /* \"#utility.yul\":3815:3839   */\n      tag_182\n      jump\t// in\n    tag_279:\n        /* \"#utility.yul\":3808:3813   */\n      dup2\n        /* \"#utility.yul\":3805:3840   */\n      eq\n        /* \"#utility.yul\":3795:3858   */\n      tag_280\n      jumpi\n        /* \"#utility.yul\":3854:3855   */\n      0x00\n        /* \"#utility.yul\":3851:3852   */\n      0x00\n        /* \"#utility.yul\":3844:3856   */\n      revert\n        /* \"#utility.yul\":3795:3858   */\n    tag_280:\n        /* \"#utility.yul\":3742:3864   */\n      pop\n      jump\t// out\n        /* \"#utility.yul\":3870:4009   */\n    tag_197:\n        /* \"#utility.yul\":3916:3921   */\n      0x00\n        /* \"#utility.yul\":3954:3960   */\n      dup2\n        /* \"#utility.yul\":3941:3961   */\n      calldataload\n        /* \"#utility.yul\":3932:3961   */\n      swap1\n      pop\n        /* \"#utility.yul\":3970:4003   */\n      tag_282\n        /* \"#utility.yul\":3997:4002   */\n      dup2\n        /* \"#utility.yul\":3970:4003   */\n      tag_196\n      jump\t// in\n    tag_282:\n        /* \"#utility.yul\":3870:4009   */\n      swap3\n      swap2\n      pop\n      pop\n      jump\t// out\n        /* \"#utility.yul\":4015:4344   */\n    tag_50:\n        /* \"#utility.yul\":4074:4080   */\n      0x00\n        /* \"#utility.yul\":4123:4125   */\n      0x20\n        /* \"#utility.yul\":4111:4120   */\n      dup3\n        /* \"#utility.yul\":4102:4109   */\n      dup5\n        /* \"#utility.yul\":4098:4121   */\n      sub\n        /* \"#utility.yul\":4094:4126   */\n      slt\n        /* \"#utility.yul\":4091:4210   */\n      iszero\n      tag_284\n      jumpi\n        /* \"#utility.yul\":4129:4208   */\n      tag_285\n      tag_189\n      jump\t// in\n    tag_285:\n        /* \"#utility.yul\":4091:4210   */\n    tag_284:\n        /* \"#utility.yul\":4249:4250   */\n      0x00\n        /* \"#utility.yul\":4274:4327   */\n      tag_286\n        /* \"#utility.yul\":4319:4326   */\n      dup5\n        /* \"#utility.yul\":4310:4316   */\n      dup3\n        /* \"#utility.yul\":4299:4308   */\n      dup6\n        /* \"#utility.yul\":4295:4317   */\n      add\n        /* \"#utility.yul\":4274:4327   */\n      tag_197\n      jump\t// in\n    tag_286:\n        /* \"#utility.yul\":4264:4327   */\n      swap2\n      pop\n        /* \"#utility.yul\":4220:4337   */\n      pop\n        /* \"#utility.yul\":4015:4344   */\n      swap3\n      swap2\n      pop\n      pop\n      jump\t// out\n        /* \"#utility.yul\":4350:4572   */\n    tag_56:\n        /* \"#utility.yul\":4443:4447   */\n      0x00\n        /* \"#utility.yul\":4481:4483   */\n      0x20\n        /* \"#utility.yul\":4470:4479   */\n      dup3\n        /* \"#utility.yul\":4466:4484   */\n      add\n        /* \"#utility.yul\":4458:4484   */\n      swap1\n      pop\n        /* \"#utility.yul\":4494:4565   */\n      tag_288\n        /* \"#utility.yul\":4562:4563   */\n      0x00\n        /* \"#utility.yul\":4551:4560   */\n      dup4\n        /* \"#utility.yul\":4547:4564   */\n      add\n        /* \"#utility.yul\":4538:4544   */\n      dup5\n        /* \"#utility.yul\":4494:4565   */\n      tag_183\n      jump\t// in\n    tag_288:\n        /* \"#utility.yul\":4350:4572   */\n      swap3\n      swap2\n      pop\n      pop\n      jump\t// out\n        /* \"#utility.yul\":4578:4719   */\n    tag_198:\n        /* \"#utility.yul\":4672:4678   */\n      0x00\n        /* \"#utility.yul\":4706:4711   */\n      dup2\n        /* \"#utility.yul\":4700:4712   */\n      mload\n        /* \"#utility.yul\":4690:4712   */\n      swap1\n      pop\n        /* \"#utility.yul\":4578:4719   */\n      swap2\n      swap1\n      pop\n      jump\t// out\n        /* \"#utility.yul\":4725:4936   */\n    tag_199:\n        /* \"#utility.yul\":4851:4862   */\n      0x00\n        /* \"#utility.yul\":4885:4891   */\n      dup3\n        /* \"#utility.yul\":4880:4883   */\n      dup3\n        /* \"#utility.yul\":4873:4892   */\n      mstore\n        /* \"#utility.yul\":4925:4929   */\n      0x20\n        /* \"#utility.yul\":4920:4923   */\n      dup3\n        /* \"#utility.yul\":4916:4930   */\n      add\n        /* \"#utility.yul\":4901:4930   */\n      swap1\n      pop\n        /* \"#utility.yul\":4725:4936   */\n      swap3\n      swap2\n      pop\n      pop\n      jump\t// out\n        /* \"#utility.yul\":4942:5101   */\n    tag_200:\n        /* \"#utility.yul\":5036:5040   */\n      0x00\n        /* \"#utility.yul\":5059:5062   */\n      dup2\n        /* \"#utility.yul\":5051:5062   */\n      swap1\n      pop\n        /* \"#utility.yul\":5089:5093   */\n      0x20\n        /* \"#utility.yul\":5084:5087   */\n      dup3\n        /* \"#utility.yul\":5080:5094   */\n      add\n        /* \"#utility.yul\":5072:5094   */\n      swap1\n      pop\n        /* \"#utility.yul\":4942:5101   */\n      swap2\n      swap1\n      pop\n      jump\t// out\n        /* \"#utility.yul\":5107:5215   */\n    tag_201:\n        /* \"#utility.yul\":5184:5208   */\n      tag_293\n        /* \"#utility.yul\":5202:5207   */\n      dup2\n        /* \"#utility.yul\":5184:5208   */\n      tag_182\n      jump\t// in\n    tag_293:\n        /* \"#utility.yul\":5179:5182   */\n      dup3\n        /* \"#utility.yul\":5172:5209   */\n      mstore\n        /* \"#utility.yul\":5107:5215   */\n      pop\n      pop\n      jump\t// out\n        /* \"#utility.yul\":5221:5329   */\n    tag_202:\n        /* \"#utility.yul\":5298:5322   */\n      tag_295\n        /* \"#utility.yul\":5316:5321   */\n      dup2\n        /* \"#utility.yul\":5298:5322   */\n      tag_184\n      jump\t// in\n    tag_295:\n        /* \"#utility.yul\":5293:5296   */\n      dup3\n        /* \"#utility.yul\":5286:5323   */\n      mstore\n        /* \"#utility.yul\":5221:5329   */\n      pop\n      pop\n      jump\t// out\n        /* \"#utility.yul\":5409:6263   */\n    tag_203:\n        /* \"#utility.yul\":5550:5554   */\n      0x80\n        /* \"#utility.yul\":5545:5548   */\n      dup3\n        /* \"#utility.yul\":5541:5555   */\n      add\n        /* \"#utility.yul\":5637:5641   */\n      0x00\n        /* \"#utility.yul\":5630:5635   */\n      dup3\n        /* \"#utility.yul\":5626:5642   */\n      add\n        /* \"#utility.yul\":5620:5643   */\n      mload\n        /* \"#utility.yul\":5656:5719   */\n      tag_297\n        /* \"#utility.yul\":5713:5717   */\n      0x00\n        /* \"#utility.yul\":5708:5711   */\n      dup6\n        /* \"#utility.yul\":5704:5718   */\n      add\n        /* \"#utility.yul\":5690:5702   */\n      dup3\n        /* \"#utility.yul\":5656:5719   */\n      tag_201\n      jump\t// in\n    tag_297:\n        /* \"#utility.yul\":5565:5729   */\n      pop\n        /* \"#utility.yul\":5809:5813   */\n      0x20\n        /* \"#utility.yul\":5802:5807   */\n      dup3\n        /* \"#utility.yul\":5798:5814   */\n      add\n        /* \"#utility.yul\":5792:5815   */\n      mload\n        /* \"#utility.yul\":5828:5891   */\n      tag_298\n        /* \"#utility.yul\":5885:5889   */\n      0x20\n        /* \"#utility.yul\":5880:5883   */\n      dup6\n        /* \"#utility.yul\":5876:5890   */\n      add\n        /* \"#utility.yul\":5862:5874   */\n      dup3\n        /* \"#utility.yul\":5828:5891   */\n      tag_201\n      jump\t// in\n    tag_298:\n        /* \"#utility.yul\":5739:5901   */\n      pop\n        /* \"#utility.yul\":5988:5992   */\n      0x40\n        /* \"#utility.yul\":5981:5986   */\n      dup3\n        /* \"#utility.yul\":5977:5993   */\n      add\n        /* \"#utility.yul\":5971:5994   */\n      mload\n        /* \"#utility.yul\":6007:6070   */\n      tag_299\n        /* \"#utility.yul\":6064:6068   */\n      0x40\n        /* \"#utility.yul\":6059:6062   */\n      dup6\n        /* \"#utility.yul\":6055:6069   */\n      add\n        /* \"#utility.yul\":6041:6053   */\n      dup3\n        /* \"#utility.yul\":6007:6070   */\n      tag_202\n      jump\t// in\n    tag_299:\n        /* \"#utility.yul\":5911:6080   */\n      pop\n        /* \"#utility.yul\":6164:6168   */\n      0x60\n        /* \"#utility.yul\":6157:6162   */\n      dup3\n        /* \"#utility.yul\":6153:6169   */\n      add\n        /* \"#utility.yul\":6147:6170   */\n      mload\n        /* \"#utility.yul\":6183:6246   */\n      tag_300\n        /* \"#utility.yul\":6240:6244   */\n      0x60\n        /* \"#utility.yul\":6235:6238   */\n      dup6\n        /* \"#utility.yul\":6231:6245   */\n      add\n        /* \"#utility.yul\":6217:6229   */\n      dup3\n        /* \"#utility.yul\":6183:6246   */\n      tag_202\n      jump\t// in\n    tag_300:\n        /* \"#utility.yul\":6090:6256   */\n      pop\n        /* \"#utility.yul\":5519:6263   */\n      pop\n        /* \"#utility.yul\":5409:6263   */\n      pop\n      pop\n      jump\t// out\n        /* \"#utility.yul\":6269:6556   */\n    tag_204:\n        /* \"#utility.yul\":6392:6402   */\n      0x00\n        /* \"#utility.yul\":6413:6513   */\n      tag_302\n        /* \"#utility.yul\":6509:6512   */\n      dup4\n        /* \"#utility.yul\":6501:6507   */\n      dup4\n        /* \"#utility.yul\":6413:6513   */\n      tag_203\n      jump\t// in\n    tag_302:\n        /* \"#utility.yul\":6545:6549   */\n      0x80\n        /* \"#utility.yul\":6540:6543   */\n      dup4\n        /* \"#utility.yul\":6536:6550   */\n      add\n        /* \"#utility.yul\":6522:6550   */\n      swap1\n      pop\n        /* \"#utility.yul\":6269:6556   */\n      swap3\n      swap2\n      pop\n      pop\n      jump\t// out\n        /* \"#utility.yul\":6562:6702   */\n    tag_205:\n        /* \"#utility.yul\":6659:6663   */\n      0x00\n        /* \"#utility.yul\":6691:6695   */\n      0x20\n        /* \"#utility.yul\":6686:6689   */\n      dup3\n        /* \"#utility.yul\":6682:6696   */\n      add\n        /* \"#utility.yul\":6674:6696   */\n      swap1\n      pop\n        /* \"#utility.yul\":6562:6702   */\n      swap2\n      swap1\n      pop\n      jump\t// out\n        /* \"#utility.yul\":6786:7734   */\n    tag_206:\n        /* \"#utility.yul\":6959:6962   */\n      0x00\n        /* \"#utility.yul\":6988:7069   */\n      tag_305\n        /* \"#utility.yul\":7063:7068   */\n      dup3\n        /* \"#utility.yul\":6988:7069   */\n      tag_198\n      jump\t// in\n    tag_305:\n        /* \"#utility.yul\":7085:7198   */\n      tag_306\n        /* \"#utility.yul\":7191:7197   */\n      dup2\n        /* \"#utility.yul\":7186:7189   */\n      dup6\n        /* \"#utility.yul\":7085:7198   */\n      tag_199\n      jump\t// in\n    tag_306:\n        /* \"#utility.yul\":7078:7198   */\n      swap4\n      pop\n        /* \"#utility.yul\":7222:7305   */\n      tag_307\n        /* \"#utility.yul\":7299:7304   */\n      dup4\n        /* \"#utility.yul\":7222:7305   */\n      tag_200\n      jump\t// in\n    tag_307:\n        /* \"#utility.yul\":7328:7335   */\n      dup1\n        /* \"#utility.yul\":7359:7360   */\n      0x00\n        /* \"#utility.yul\":7344:7709   */\n    tag_308:\n        /* \"#utility.yul\":7369:7375   */\n      dup4\n        /* \"#utility.yul\":7366:7367   */\n      dup2\n        /* \"#utility.yul\":7363:7376   */\n      lt\n        /* \"#utility.yul\":7344:7709   */\n      iszero\n      tag_310\n      jumpi\n        /* \"#utility.yul\":7445:7451   */\n      dup2\n        /* \"#utility.yul\":7439:7452   */\n      mload\n        /* \"#utility.yul\":7472:7589   */\n      tag_311\n        /* \"#utility.yul\":7585:7588   */\n      dup9\n        /* \"#utility.yul\":7570:7583   */\n      dup3\n        /* \"#utility.yul\":7472:7589   */\n      tag_204\n      jump\t// in\n    tag_311:\n        /* \"#utility.yul\":7465:7589   */\n      swap8\n      pop\n        /* \"#utility.yul\":7612:7699   */\n      tag_312\n        /* \"#utility.yul\":7692:7698   */\n      dup4\n        /* \"#utility.yul\":7612:7699   */\n      tag_205\n      jump\t// in\n    tag_312:\n        /* \"#utility.yul\":7602:7699   */\n      swap3\n      pop\n        /* \"#utility.yul\":7404:7709   */\n      pop\n        /* \"#utility.yul\":7391:7392   */\n      0x01\n        /* \"#utility.yul\":7388:7389   */\n      dup2\n        /* \"#utility.yul\":7384:7393   */\n      add\n        /* \"#utility.yul\":7379:7393   */\n      swap1\n      pop\n        /* \"#utility.yul\":7344:7709   */\n      jump(tag_308)\n    tag_310:\n        /* \"#utility.yul\":7348:7362   */\n      pop\n        /* \"#utility.yul\":7725:7728   */\n      dup6\n        /* \"#utility.yul\":7718:7728   */\n      swap4\n      pop\n        /* \"#utility.yul\":6964:7734   */\n      pop\n      pop\n      pop\n        /* \"#utility.yul\":6786:7734   */\n      swap3\n      swap2\n      pop\n      pop\n      jump\t// out\n        /* \"#utility.yul\":7740:8221   */\n    tag_72:\n        /* \"#utility.yul\":7937:7941   */\n      0x00\n        /* \"#utility.yul\":7975:7977   */\n      0x20\n        /* \"#utility.yul\":7964:7973   */\n      dup3\n        /* \"#utility.yul\":7960:7978   */\n      add\n        /* \"#utility.yul\":7952:7978   */\n      swap1\n      pop\n        /* \"#utility.yul\":8024:8033   */\n      dup2\n        /* \"#utility.yul\":8018:8022   */\n      dup2\n        /* \"#utility.yul\":8014:8034   */\n      sub\n        /* \"#utility.yul\":8010:8011   */\n      0x00\n        /* \"#utility.yul\":7999:8008   */\n      dup4\n        /* \"#utility.yul\":7995:8012   */\n      add\n        /* \"#utility.yul\":7988:8035   */\n      mstore\n        /* \"#utility.yul\":8052:8214   */\n      tag_314\n        /* \"#utility.yul\":8209:8213   */\n      dup2\n        /* \"#utility.yul\":8200:8206   */\n      dup5\n        /* \"#utility.yul\":8052:8214   */\n      tag_206\n      jump\t// in\n    tag_314:\n        /* \"#utility.yul\":8044:8214   */\n      swap1\n      pop\n        /* \"#utility.yul\":7740:8221   */\n      swap3\n      swap2\n      pop\n      pop\n      jump\t// out\n        /* \"#utility.yul\":8227:8449   */\n    tag_78:\n        /* \"#utility.yul\":8320:8324   */\n      0x00\n        /* \"#utility.yul\":8358:8360   */\n      0x20\n        /* \"#utility.yul\":8347:8356   */\n      dup3\n        /* \"#utility.yul\":8343:8361   */\n      add\n        /* \"#utility.yul\":8335:8361   */\n      swap1\n      pop\n        /* \"#utility.yul\":8371:8442   */\n      tag_316\n        /* \"#utility.yul\":8439:8440   */\n      0x00\n        /* \"#utility.yul\":8428:8437   */\n      dup4\n        /* \"#utility.yul\":8424:8441   */\n      add\n        /* \"#utility.yul\":8415:8421   */\n      dup5\n        /* \"#utility.yul\":8371:8442   */\n      tag_185\n      jump\t// in\n    tag_316:\n        /* \"#utility.yul\":8227:8449   */\n      swap3\n      swap2\n      pop\n      pop\n      jump\t// out\n        /* \"#utility.yul\":8455:8635   */\n    tag_207:\n        /* \"#utility.yul\":8503:8580   */\n      0x4e487b7100000000000000000000000000000000000000000000000000000000\n        /* \"#utility.yul\":8500:8501   */\n      0x00\n        /* \"#utility.yul\":8493:8581   */\n      mstore\n        /* \"#utility.yul\":8600:8604   */\n      0x11\n        /* \"#utility.yul\":8597:8598   */\n      0x04\n        /* \"#utility.yul\":8590:8605   */\n      mstore\n        /* \"#utility.yul\":8624:8628   */\n      0x24\n        /* \"#utility.yul\":8621:8622   */\n      0x00\n        /* \"#utility.yul\":8614:8629   */\n      revert\n        /* \"#utility.yul\":8641:8832   */\n    tag_100:\n        /* \"#utility.yul\":8681:8684   */\n      0x00\n        /* \"#utility.yul\":8700:8720   */\n      tag_319\n        /* \"#utility.yul\":8718:8719   */\n      dup3\n        /* \"#utility.yul\":8700:8720   */\n      tag_184\n      jump\t// in\n    tag_319:\n        /* \"#utility.yul\":8695:8720   */\n      swap2\n      pop\n        /* \"#utility.yul\":8734:8754   */\n      tag_320\n        /* \"#utility.yul\":8752:8753   */\n      dup4\n        /* \"#utility.yul\":8734:8754   */\n      tag_184\n      jump\t// in\n    tag_320:\n        /* \"#utility.yul\":8729:8754   */\n      swap3\n      pop\n        /* \"#utility.yul\":8777:8778   */\n      dup3\n        /* \"#utility.yul\":8774:8775   */\n      dup3\n        /* \"#utility.yul\":8770:8779   */\n      add\n        /* \"#utility.yul\":8763:8779   */\n      swap1\n      pop\n        /* \"#utility.yul\":8798:8801   */\n      dup1\n        /* \"#utility.yul\":8795:8796   */\n      dup3\n        /* \"#utility.yul\":8792:8802   */\n      gt\n        /* \"#utility.yul\":8789:8825   */\n      iszero\n      tag_321\n      jumpi\n        /* \"#utility.yul\":8805:8823   */\n      tag_322\n      tag_207\n      jump\t// in\n    tag_322:\n        /* \"#utility.yul\":8789:8825   */\n    tag_321:\n        /* \"#utility.yul\":8641:8832   */\n      swap3\n      swap2\n      pop\n      pop\n      jump\t// out\n        /* \"#utility.yul\":8838:9007   */\n    tag_208:\n        /* \"#utility.yul\":8922:8933   */\n      0x00\n        /* \"#utility.yul\":8956:8962   */\n      dup3\n        /* \"#utility.yul\":8951:8954   */\n      dup3\n        /* \"#utility.yul\":8944:8963   */\n      mstore\n        /* \"#utility.yul\":8996:9000   */\n      0x20\n        /* \"#utility.yul\":8991:8994   */\n      dup3\n        /* \"#utility.yul\":8987:9001   */\n      add\n        /* \"#utility.yul\":8972:9001   */\n      swap1\n      pop\n        /* \"#utility.yul\":8838:9007   */\n      swap3\n      swap2\n      pop\n      pop\n      jump\t// out\n        /* \"#utility.yul\":9013:9184   */\n    tag_209:\n        /* \"#utility.yul\":9153:9176   */\n      0x596f7520646f6e27742068617665206163636573730000000000000000000000\n        /* \"#utility.yul\":9149:9150   */\n      0x00\n        /* \"#utility.yul\":9141:9147   */\n      dup3\n        /* \"#utility.yul\":9137:9151   */\n      add\n        /* \"#utility.yul\":9130:9177   */\n      mstore\n        /* \"#utility.yul\":9013:9184   */\n      pop\n      jump\t// out\n        /* \"#utility.yul\":9190:9556   */\n    tag_210:\n        /* \"#utility.yul\":9332:9335   */\n      0x00\n        /* \"#utility.yul\":9353:9420   */\n      tag_326\n        /* \"#utility.yul\":9417:9419   */\n      0x15\n        /* \"#utility.yul\":9412:9415   */\n      dup4\n        /* \"#utility.yul\":9353:9420   */\n      tag_208\n      jump\t// in\n    tag_326:\n        /* \"#utility.yul\":9346:9420   */\n      swap2\n      pop\n        /* \"#utility.yul\":9429:9522   */\n      tag_327\n        /* \"#utility.yul\":9518:9521   */\n      dup3\n        /* \"#utility.yul\":9429:9522   */\n      tag_209\n      jump\t// in\n    tag_327:\n        /* \"#utility.yul\":9547:9549   */\n      0x20\n        /* \"#utility.yul\":9542:9545   */\n      dup3\n        /* \"#utility.yul\":9538:9550   */\n      add\n        /* \"#utility.yul\":9531:9550   */\n      swap1\n      pop\n        /* \"#utility.yul\":9190:9556   */\n      swap2\n      swap1\n      pop\n      jump\t// out\n        /* \"#utility.yul\":9562:9981   */\n    tag_106:\n        /* \"#utility.yul\":9728:9732   */\n      0x00\n        /* \"#utility.yul\":9766:9768   */\n      0x20\n        /* \"#utility.yul\":9755:9764   */\n      dup3\n        /* \"#utility.yul\":9751:9769   */\n      add\n        /* \"#utility.yul\":9743:9769   */\n      swap1\n      pop\n        /* \"#utility.yul\":9815:9824   */\n      dup2\n        /* \"#utility.yul\":9809:9813   */\n      dup2\n        /* \"#utility.yul\":9805:9825   */\n      sub\n        /* \"#utility.yul\":9801:9802   */\n      0x00\n        /* \"#utility.yul\":9790:9799   */\n      dup4\n        /* \"#utility.yul\":9786:9803   */\n      add\n        /* \"#utility.yul\":9779:9826   */\n      mstore\n        /* \"#utility.yul\":9843:9974   */\n      tag_329\n        /* \"#utility.yul\":9969:9973   */\n      dup2\n        /* \"#utility.yul\":9843:9974   */\n      tag_210\n      jump\t// in\n    tag_329:\n        /* \"#utility.yul\":9835:9974   */\n      swap1\n      pop\n        /* \"#utility.yul\":9562:9981   */\n      swap2\n      swap1\n      pop\n      jump\t// out\n        /* \"#utility.yul\":9987:10157   */\n    tag_211:\n        /* \"#utility.yul\":10127:10149   */\n      0x496e73756666696369656e742062616c616e6365000000000000000000000000\n        /* \"#utility.yul\":10123:10124   */\n      0x00\n        /* \"#utility.yul\":10115:10121   */\n      dup3\n        /* \"#utility.yul\":10111:10125   */\n      add\n        /* \"#utility.yul\":10104:10150   */\n      mstore\n        /* \"#utility.yul\":9987:10157   */\n      pop\n      jump\t// out\n        /* \"#utility.yul\":10163:10529   */\n    tag_212:\n        /* \"#utility.yul\":10305:10308   */\n      0x00\n        /* \"#utility.yul\":10326:10393   */\n      tag_332\n        /* \"#utility.yul\":10390:10392   */\n      0x14\n        /* \"#utility.yul\":10385:10388   */\n      dup4\n        /* \"#utility.yul\":10326:10393   */\n      tag_208\n      jump\t// in\n    tag_332:\n        /* \"#utility.yul\":10319:10393   */\n      swap2\n      pop\n        /* \"#utility.yul\":10402:10495   */\n      tag_333\n        /* \"#utility.yul\":10491:10494   */\n      dup3\n        /* \"#utility.yul\":10402:10495   */\n      tag_211\n      jump\t// in\n    tag_333:\n        /* \"#utility.yul\":10520:10522   */\n      0x20\n        /* \"#utility.yul\":10515:10518   */\n      dup3\n        /* \"#utility.yul\":10511:10523   */\n      add\n        /* \"#utility.yul\":10504:10523   */\n      swap1\n      pop\n        /* \"#utility.yul\":10163:10529   */\n      swap2\n      swap1\n      pop\n      jump\t// out\n        /* \"#utility.yul\":10535:10954   */\n    tag_110:\n        /* \"#utility.yul\":10701:10705   */\n      0x00\n        /* \"#utility.yul\":10739:10741   */\n      0x20\n        /* \"#utility.yul\":10728:10737   */\n      dup3\n        /* \"#utility.yul\":10724:10742   */\n      add\n        /* \"#utility.yul\":10716:10742   */\n      swap1\n      pop\n        /* \"#utility.yul\":10788:10797   */\n      dup2\n        /* \"#utility.yul\":10782:10786   */\n      dup2\n        /* \"#utility.yul\":10778:10798   */\n      sub\n        /* \"#utility.yul\":10774:10775   */\n      0x00\n        /* \"#utility.yul\":10763:10772   */\n      dup4\n        /* \"#utility.yul\":10759:10776   */\n      add\n        /* \"#utility.yul\":10752:10799   */\n      mstore\n        /* \"#utility.yul\":10816:10947   */\n      tag_335\n        /* \"#utility.yul\":10942:10946   */\n      dup2\n        /* \"#utility.yul\":10816:10947   */\n      tag_212\n      jump\t// in\n    tag_335:\n        /* \"#utility.yul\":10808:10947   */\n      swap1\n      pop\n        /* \"#utility.yul\":10535:10954   */\n      swap2\n      swap1\n      pop\n      jump\t// out\n        /* \"#utility.yul\":10960:11020   */\n    tag_213:\n        /* \"#utility.yul\":10988:10991   */\n      0x00\n        /* \"#utility.yul\":11009:11014   */\n      dup2\n        /* \"#utility.yul\":11002:11014   */\n      swap1\n      pop\n        /* \"#utility.yul\":10960:11020   */\n      swap2\n      swap1\n      pop\n      jump\t// out\n        /* \"#utility.yul\":11026:11168   */\n    tag_214:\n        /* \"#utility.yul\":11076:11085   */\n      0x00\n        /* \"#utility.yul\":11109:11162   */\n      tag_338\n        /* \"#utility.yul\":11127:11161   */\n      tag_339\n        /* \"#utility.yul\":11136:11160   */\n      tag_340\n        /* \"#utility.yul\":11154:11159   */\n      dup5\n        /* \"#utility.yul\":11136:11160   */\n      tag_181\n      jump\t// in\n    tag_340:\n        /* \"#utility.yul\":11127:11161   */\n      tag_213\n      jump\t// in\n    tag_339:\n        /* \"#utility.yul\":11109:11162   */\n      tag_181\n      jump\t// in\n    tag_338:\n        /* \"#utility.yul\":11096:11162   */\n      swap1\n      pop\n        /* \"#utility.yul\":11026:11168   */\n      swap2\n      swap1\n      pop\n      jump\t// out\n        /* \"#utility.yul\":11174:11300   */\n    tag_215:\n        /* \"#utility.yul\":11224:11233   */\n      0x00\n        /* \"#utility.yul\":11257:11294   */\n      tag_342\n        /* \"#utility.yul\":11288:11293   */\n      dup3\n        /* \"#utility.yul\":11257:11294   */\n      tag_214\n      jump\t// in\n    tag_342:\n        /* \"#utility.yul\":11244:11294   */\n      swap1\n      pop\n        /* \"#utility.yul\":11174:11300   */\n      swap2\n      swap1\n      pop\n      jump\t// out\n        /* \"#utility.yul\":11306:11440   */\n    tag_216:\n        /* \"#utility.yul\":11364:11373   */\n      0x00\n        /* \"#utility.yul\":11397:11434   */\n      tag_344\n        /* \"#utility.yul\":11428:11433   */\n      dup3\n        /* \"#utility.yul\":11397:11434   */\n      tag_215\n      jump\t// in\n    tag_344:\n        /* \"#utility.yul\":11384:11434   */\n      swap1\n      pop\n        /* \"#utility.yul\":11306:11440   */\n      swap2\n      swap1\n      pop\n      jump\t// out\n        /* \"#utility.yul\":11446:11593   */\n    tag_217:\n        /* \"#utility.yul\":11541:11586   */\n      tag_346\n        /* \"#utility.yul\":11580:11585   */\n      dup2\n        /* \"#utility.yul\":11541:11586   */\n      tag_216\n      jump\t// in\n    tag_346:\n        /* \"#utility.yul\":11536:11539   */\n      dup3\n        /* \"#utility.yul\":11529:11587   */\n      mstore\n        /* \"#utility.yul\":11446:11593   */\n      pop\n      pop\n      jump\t// out\n        /* \"#utility.yul\":11599:11947   */\n    tag_115:\n        /* \"#utility.yul\":11728:11732   */\n      0x00\n        /* \"#utility.yul\":11766:11768   */\n      0x40\n        /* \"#utility.yul\":11755:11764   */\n      dup3\n        /* \"#utility.yul\":11751:11769   */\n      add\n        /* \"#utility.yul\":11743:11769   */\n      swap1\n      pop\n        /* \"#utility.yul\":11779:11858   */\n      tag_348\n        /* \"#utility.yul\":11855:11856   */\n      0x00\n        /* \"#utility.yul\":11844:11853   */\n      dup4\n        /* \"#utility.yul\":11840:11857   */\n      add\n        /* \"#utility.yul\":11831:11837   */\n      dup6\n        /* \"#utility.yul\":11779:11858   */\n      tag_217\n      jump\t// in\n    tag_348:\n        /* \"#utility.yul\":11868:11940   */\n      tag_349\n        /* \"#utility.yul\":11936:11938   */\n      0x20\n        /* \"#utility.yul\":11925:11934   */\n      dup4\n        /* \"#utility.yul\":11921:11939   */\n      add\n        /* \"#utility.yul\":11912:11918   */\n      dup5\n        /* \"#utility.yul\":11868:11940   */\n      tag_185\n      jump\t// in\n    tag_349:\n        /* \"#utility.yul\":11599:11947   */\n      swap4\n      swap3\n      pop\n      pop\n      pop\n      jump\t// out\n        /* \"#utility.yul\":11953:12118   */\n    tag_218:\n        /* \"#utility.yul\":12093:12110   */\n      0x496e76616c696420616464726573730000000000000000000000000000000000\n        /* \"#utility.yul\":12089:12090   */\n      0x00\n        /* \"#utility.yul\":12081:12087   */\n      dup3\n        /* \"#utility.yul\":12077:12091   */\n      add\n        /* \"#utility.yul\":12070:12111   */\n      mstore\n        /* \"#utility.yul\":11953:12118   */\n      pop\n      jump\t// out\n        /* \"#utility.yul\":12124:12490   */\n    tag_219:\n        /* \"#utility.yul\":12266:12269   */\n      0x00\n        /* \"#utility.yul\":12287:12354   */\n      tag_352\n        /* \"#utility.yul\":12351:12353   */\n      0x0f\n        /* \"#utility.yul\":12346:12349   */\n      dup4\n        /* \"#utility.yul\":12287:12354   */\n      tag_208\n      jump\t// in\n    tag_352:\n        /* \"#utility.yul\":12280:12354   */\n      swap2\n      pop\n        /* \"#utility.yul\":12363:12456   */\n      tag_353\n        /* \"#utility.yul\":12452:12455   */\n      dup3\n        /* \"#utility.yul\":12363:12456   */\n      tag_218\n      jump\t// in\n    tag_353:\n        /* \"#utility.yul\":12481:12483   */\n      0x20\n        /* \"#utility.yul\":12476:12479   */\n      dup3\n        /* \"#utility.yul\":12472:12484   */\n      add\n        /* \"#utility.yul\":12465:12484   */\n      swap1\n      pop\n        /* \"#utility.yul\":12124:12490   */\n      swap2\n      swap1\n      pop\n      jump\t// out\n        /* \"#utility.yul\":12496:12915   */\n    tag_119:\n        /* \"#utility.yul\":12662:12666   */\n      0x00\n        /* \"#utility.yul\":12700:12702   */\n      0x20\n        /* \"#utility.yul\":12689:12698   */\n      dup3\n        /* \"#utility.yul\":12685:12703   */\n      add\n        /* \"#utility.yul\":12677:12703   */\n      swap1\n      pop\n        /* \"#utility.yul\":12749:12758   */\n      dup2\n        /* \"#utility.yul\":12743:12747   */\n      dup2\n        /* \"#utility.yul\":12739:12759   */\n      sub\n        /* \"#utility.yul\":12735:12736   */\n      0x00\n        /* \"#utility.yul\":12724:12733   */\n      dup4\n        /* \"#utility.yul\":12720:12737   */\n      add\n        /* \"#utility.yul\":12713:12760   */\n      mstore\n        /* \"#utility.yul\":12777:12908   */\n      tag_355\n        /* \"#utility.yul\":12903:12907   */\n      dup2\n        /* \"#utility.yul\":12777:12908   */\n      tag_219\n      jump\t// in\n    tag_355:\n        /* \"#utility.yul\":12769:12908   */\n      swap1\n      pop\n        /* \"#utility.yul\":12496:12915   */\n      swap2\n      swap1\n      pop\n      jump\t// out\n        /* \"#utility.yul\":12921:13090   */\n    tag_220:\n        /* \"#utility.yul\":13061:13082   */\n      0x456d657267656e6379206465636c617265642100000000000000000000000000\n        /* \"#utility.yul\":13057:13058   */\n      0x00\n        /* \"#utility.yul\":13049:13055   */\n      dup3\n        /* \"#utility.yul\":13045:13059   */\n      add\n        /* \"#utility.yul\":13038:13083   */\n      mstore\n        /* \"#utility.yul\":12921:13090   */\n      pop\n      jump\t// out\n        /* \"#utility.yul\":13096:13462   */\n    tag_221:\n        /* \"#utility.yul\":13238:13241   */\n      0x00\n        /* \"#utility.yul\":13259:13326   */\n      tag_358\n        /* \"#utility.yul\":13323:13325   */\n      0x13\n        /* \"#utility.yul\":13318:13321   */\n      dup4\n        /* \"#utility.yul\":13259:13326   */\n      tag_208\n      jump\t// in\n    tag_358:\n        /* \"#utility.yul\":13252:13326   */\n      swap2\n      pop\n        /* \"#utility.yul\":13335:13428   */\n      tag_359\n        /* \"#utility.yul\":13424:13427   */\n      dup3\n        /* \"#utility.yul\":13335:13428   */\n      tag_220\n      jump\t// in\n    tag_359:\n        /* \"#utility.yul\":13453:13455   */\n      0x20\n        /* \"#utility.yul\":13448:13451   */\n      dup3\n        /* \"#utility.yul\":13444:13456   */\n      add\n        /* \"#utility.yul\":13437:13456   */\n      swap1\n      pop\n        /* \"#utility.yul\":13096:13462   */\n      swap2\n      swap1\n      pop\n      jump\t// out\n        /* \"#utility.yul\":13468:13887   */\n    tag_134:\n        /* \"#utility.yul\":13634:13638   */\n      0x00\n        /* \"#utility.yul\":13672:13674   */\n      0x20\n        /* \"#utility.yul\":13661:13670   */\n      dup3\n        /* \"#utility.yul\":13657:13675   */\n      add\n        /* \"#utility.yul\":13649:13675   */\n      swap1\n      pop\n        /* \"#utility.yul\":13721:13730   */\n      dup2\n        /* \"#utility.yul\":13715:13719   */\n      dup2\n        /* \"#utility.yul\":13711:13731   */\n      sub\n        /* \"#utility.yul\":13707:13708   */\n      0x00\n        /* \"#utility.yul\":13696:13705   */\n      dup4\n        /* \"#utility.yul\":13692:13709   */\n      add\n        /* \"#utility.yul\":13685:13732   */\n      mstore\n        /* \"#utility.yul\":13749:13880   */\n      tag_361\n        /* \"#utility.yul\":13875:13879   */\n      dup2\n        /* \"#utility.yul\":13749:13880   */\n      tag_221\n      jump\t// in\n    tag_361:\n        /* \"#utility.yul\":13741:13880   */\n      swap1\n      pop\n        /* \"#utility.yul\":13468:13887   */\n      swap2\n      swap1\n      pop\n      jump\t// out\n        /* \"#utility.yul\":13893:14064   */\n    tag_222:\n        /* \"#utility.yul\":14033:14056   */\n      0x496e76616c6964206f776e657220616464726573730000000000000000000000\n        /* \"#utility.yul\":14029:14030   */\n      0x00\n        /* \"#utility.yul\":14021:14027   */\n      dup3\n        /* \"#utility.yul\":14017:14031   */\n      add\n        /* \"#utility.yul\":14010:14057   */\n      mstore\n        /* \"#utility.yul\":13893:14064   */\n      pop\n      jump\t// out\n        /* \"#utility.yul\":14070:14436   */\n    tag_223:\n        /* \"#utility.yul\":14212:14215   */\n      0x00\n        /* \"#utility.yul\":14233:14300   */\n      tag_364\n        /* \"#utility.yul\":14297:14299   */\n      0x15\n        /* \"#utility.yul\":14292:14295   */\n      dup4\n        /* \"#utility.yul\":14233:14300   */\n      tag_208\n      jump\t// in\n    tag_364:\n        /* \"#utility.yul\":14226:14300   */\n      swap2\n      pop\n        /* \"#utility.yul\":14309:14402   */\n      tag_365\n        /* \"#utility.yul\":14398:14401   */\n      dup3\n        /* \"#utility.yul\":14309:14402   */\n      tag_222\n      jump\t// in\n    tag_365:\n        /* \"#utility.yul\":14427:14429   */\n      0x20\n        /* \"#utility.yul\":14422:14425   */\n      dup3\n        /* \"#utility.yul\":14418:14430   */\n      add\n        /* \"#utility.yul\":14411:14430   */\n      swap1\n      pop\n        /* \"#utility.yul\":14070:14436   */\n      swap2\n      swap1\n      pop\n      jump\t// out\n        /* \"#utility.yul\":14442:14861   */\n    tag_138:\n        /* \"#utility.yul\":14608:14612   */\n      0x00\n        /* \"#utility.yul\":14646:14648   */\n      0x20\n        /* \"#utility.yul\":14635:14644   */\n      dup3\n        /* \"#utility.yul\":14631:14649   */\n      add\n        /* \"#utility.yul\":14623:14649   */\n      swap1\n      pop\n        /* \"#utility.yul\":14695:14704   */\n      dup2\n        /* \"#utility.yul\":14689:14693   */\n      dup2\n        /* \"#utility.yul\":14685:14705   */\n      sub\n        /* \"#utility.yul\":14681:14682   */\n      0x00\n        /* \"#utility.yul\":14670:14679   */\n      dup4\n        /* \"#utility.yul\":14666:14683   */\n      add\n        /* \"#utility.yul\":14659:14706   */\n      mstore\n        /* \"#utility.yul\":14723:14854   */\n      tag_367\n        /* \"#utility.yul\":14849:14853   */\n      dup2\n        /* \"#utility.yul\":14723:14854   */\n      tag_223\n      jump\t// in\n    tag_367:\n        /* \"#utility.yul\":14715:14854   */\n      swap1\n      pop\n        /* \"#utility.yul\":14442:14861   */\n      swap2\n      swap1\n      pop\n      jump\t// out\n        /* \"#utility.yul\":14867:15035   */\n    tag_224:\n        /* \"#utility.yul\":15007:15027   */\n      0x416d6f756e74206d757374206265203e20300000000000000000000000000000\n        /* \"#utility.yul\":15003:15004   */\n      0x00\n        /* \"#utility.yul\":14995:15001   */\n      dup3\n        /* \"#utility.yul\":14991:15005   */\n      add\n        /* \"#utility.yul\":14984:15028   */\n      mstore\n        /* \"#utility.yul\":14867:15035   */\n      pop\n      jump\t// out\n        /* \"#utility.yul\":15041:15407   */\n    tag_225:\n        /* \"#utility.yul\":15183:15186   */\n      0x00\n        /* \"#utility.yul\":15204:15271   */\n      tag_370\n        /* \"#utility.yul\":15268:15270   */\n      0x12\n        /* \"#utility.yul\":15263:15266   */\n      dup4\n        /* \"#utility.yul\":15204:15271   */\n      tag_208\n      jump\t// in\n    tag_370:\n        /* \"#utility.yul\":15197:15271   */\n      swap2\n      pop\n        /* \"#utility.yul\":15280:15373   */\n      tag_371\n        /* \"#utility.yul\":15369:15372   */\n      dup3\n        /* \"#utility.yul\":15280:15373   */\n      tag_224\n      jump\t// in\n    tag_371:\n        /* \"#utility.yul\":15398:15400   */\n      0x20\n        /* \"#utility.yul\":15393:15396   */\n      dup3\n        /* \"#utility.yul\":15389:15401   */\n      add\n        /* \"#utility.yul\":15382:15401   */\n      swap1\n      pop\n        /* \"#utility.yul\":15041:15407   */\n      swap2\n      swap1\n      pop\n      jump\t// out\n        /* \"#utility.yul\":15413:15832   */\n    tag_156:\n        /* \"#utility.yul\":15579:15583   */\n      0x00\n        /* \"#utility.yul\":15617:15619   */\n      0x20\n        /* \"#utility.yul\":15606:15615   */\n      dup3\n        /* \"#utility.yul\":15602:15620   */\n      add\n        /* \"#utility.yul\":15594:15620   */\n      swap1\n      pop\n        /* \"#utility.yul\":15666:15675   */\n      dup2\n        /* \"#utility.yul\":15660:15664   */\n      dup2\n        /* \"#utility.yul\":15656:15676   */\n      sub\n        /* \"#utility.yul\":15652:15653   */\n      0x00\n        /* \"#utility.yul\":15641:15650   */\n      dup4\n        /* \"#utility.yul\":15637:15654   */\n      add\n        /* \"#utility.yul\":15630:15677   */\n      mstore\n        /* \"#utility.yul\":15694:15825   */\n      tag_373\n        /* \"#utility.yul\":15820:15824   */\n      dup2\n        /* \"#utility.yul\":15694:15825   */\n      tag_225\n      jump\t// in\n    tag_373:\n        /* \"#utility.yul\":15686:15825   */\n      swap1\n      pop\n        /* \"#utility.yul\":15413:15832   */\n      swap2\n      swap1\n      pop\n      jump\t// out\n        /* \"#utility.yul\":15838:16280   */\n    tag_160:\n        /* \"#utility.yul\":15987:15991   */\n      0x00\n        /* \"#utility.yul\":16025:16027   */\n      0x60\n        /* \"#utility.yul\":16014:16023   */\n      dup3\n        /* \"#utility.yul\":16010:16028   */\n      add\n        /* \"#utility.yul\":16002:16028   */\n      swap1\n      pop\n        /* \"#utility.yul\":16038:16109   */\n      tag_375\n        /* \"#utility.yul\":16106:16107   */\n      0x00\n        /* \"#utility.yul\":16095:16104   */\n      dup4\n        /* \"#utility.yul\":16091:16108   */\n      add\n        /* \"#utility.yul\":16082:16088   */\n      dup7\n        /* \"#utility.yul\":16038:16109   */\n      tag_183\n      jump\t// in\n    tag_375:\n        /* \"#utility.yul\":16119:16191   */\n      tag_376\n        /* \"#utility.yul\":16187:16189   */\n      0x20\n        /* \"#utility.yul\":16176:16185   */\n      dup4\n        /* \"#utility.yul\":16172:16190   */\n      add\n        /* \"#utility.yul\":16163:16169   */\n      dup6\n        /* \"#utility.yul\":16119:16191   */\n      tag_183\n      jump\t// in\n    tag_376:\n        /* \"#utility.yul\":16201:16273   */\n      tag_377\n        /* \"#utility.yul\":16269:16271   */\n      0x40\n        /* \"#utility.yul\":16258:16267   */\n      dup4\n        /* \"#utility.yul\":16254:16272   */\n      add\n        /* \"#utility.yul\":16245:16251   */\n      dup5\n        /* \"#utility.yul\":16201:16273   */\n      tag_185\n      jump\t// in\n    tag_377:\n        /* \"#utility.yul\":15838:16280   */\n      swap5\n      swap4\n      pop\n      pop\n      pop\n      pop\n      jump\t// out\n        /* \"#utility.yul\":16286:16466   */\n    tag_226:\n        /* \"#utility.yul\":16426:16458   */\n      0x416374697669747920737573706963696f75732c20747279206c617465720000\n        /* \"#utility.yul\":16422:16423   */\n      0x00\n        /* \"#utility.yul\":16414:16420   */\n      dup3\n        /* \"#utility.yul\":16410:16424   */\n      add\n        /* \"#utility.yul\":16403:16459   */\n      mstore\n        /* \"#utility.yul\":16286:16466   */\n      pop\n      jump\t// out\n        /* \"#utility.yul\":16472:16838   */\n    tag_227:\n        /* \"#utility.yul\":16614:16617   */\n      0x00\n        /* \"#utility.yul\":16635:16702   */\n      tag_380\n        /* \"#utility.yul\":16699:16701   */\n      0x1e\n        /* \"#utility.yul\":16694:16697   */\n      dup4\n        /* \"#utility.yul\":16635:16702   */\n      tag_208\n      jump\t// in\n    tag_380:\n        /* \"#utility.yul\":16628:16702   */\n      swap2\n      pop\n        /* \"#utility.yul\":16711:16804   */\n      tag_381\n        /* \"#utility.yul\":16800:16803   */\n      dup3\n        /* \"#utility.yul\":16711:16804   */\n      tag_226\n      jump\t// in\n    tag_381:\n        /* \"#utility.yul\":16829:16831   */\n      0x20\n        /* \"#utility.yul\":16824:16827   */\n      dup3\n        /* \"#utility.yul\":16820:16832   */\n      add\n        /* \"#utility.yul\":16813:16832   */\n      swap1\n      pop\n        /* \"#utility.yul\":16472:16838   */\n      swap2\n      swap1\n      pop\n      jump\t// out\n        /* \"#utility.yul\":16844:17263   */\n    tag_165:\n        /* \"#utility.yul\":17010:17014   */\n      0x00\n        /* \"#utility.yul\":17048:17050   */\n      0x20\n        /* \"#utility.yul\":17037:17046   */\n      dup3\n        /* \"#utility.yul\":17033:17051   */\n      add\n        /* \"#utility.yul\":17025:17051   */\n      swap1\n      pop\n        /* \"#utility.yul\":17097:17106   */\n      dup2\n        /* \"#utility.yul\":17091:17095   */\n      dup2\n        /* \"#utility.yul\":17087:17107   */\n      sub\n        /* \"#utility.yul\":17083:17084   */\n      0x00\n        /* \"#utility.yul\":17072:17081   */\n      dup4\n        /* \"#utility.yul\":17068:17085   */\n      add\n        /* \"#utility.yul\":17061:17108   */\n      mstore\n        /* \"#utility.yul\":17125:17256   */\n      tag_383\n        /* \"#utility.yul\":17251:17255   */\n      dup2\n        /* \"#utility.yul\":17125:17256   */\n      tag_227\n      jump\t// in\n    tag_383:\n        /* \"#utility.yul\":17117:17256   */\n      swap1\n      pop\n        /* \"#utility.yul\":16844:17263   */\n      swap2\n      swap1\n      pop\n      jump\t// out\n        /* \"#utility.yul\":17269:17440   */\n    tag_228:\n        /* \"#utility.yul\":17409:17432   */\n      0x53656e642061667465722073746172742074696d650000000000000000000000\n        /* \"#utility.yul\":17405:17406   */\n      0x00\n        /* \"#utility.yul\":17397:17403   */\n      dup3\n        /* \"#utility.yul\":17393:17407   */\n      add\n        /* \"#utility.yul\":17386:17433   */\n      mstore\n        /* \"#utility.yul\":17269:17440   */\n      pop\n      jump\t// out\n        /* \"#utility.yul\":17446:17812   */\n    tag_229:\n        /* \"#utility.yul\":17588:17591   */\n      0x00\n        /* \"#utility.yul\":17609:17676   */\n      tag_386\n        /* \"#utility.yul\":17673:17675   */\n      0x15\n        /* \"#utility.yul\":17668:17671   */\n      dup4\n        /* \"#utility.yul\":17609:17676   */\n      tag_208\n      jump\t// in\n    tag_386:\n        /* \"#utility.yul\":17602:17676   */\n      swap2\n      pop\n        /* \"#utility.yul\":17685:17778   */\n      tag_387\n        /* \"#utility.yul\":17774:17777   */\n      dup3\n        /* \"#utility.yul\":17685:17778   */\n      tag_228\n      jump\t// in\n    tag_387:\n        /* \"#utility.yul\":17803:17805   */\n      0x20\n        /* \"#utility.yul\":17798:17801   */\n      dup3\n        /* \"#utility.yul\":17794:17806   */\n      add\n        /* \"#utility.yul\":17787:17806   */\n      swap1\n      pop\n        /* \"#utility.yul\":17446:17812   */\n      swap2\n      swap1\n      pop\n      jump\t// out\n        /* \"#utility.yul\":17818:18237   */\n    tag_169:\n        /* \"#utility.yul\":17984:17988   */\n      0x00\n        /* \"#utility.yul\":18022:18024   */\n      0x20\n        /* \"#utility.yul\":18011:18020   */\n      dup3\n        /* \"#utility.yul\":18007:18025   */\n      add\n        /* \"#utility.yul\":17999:18025   */\n      swap1\n      pop\n        /* \"#utility.yul\":18071:18080   */\n      dup2\n        /* \"#utility.yul\":18065:18069   */\n      dup2\n        /* \"#utility.yul\":18061:18081   */\n      sub\n        /* \"#utility.yul\":18057:18058   */\n      0x00\n        /* \"#utility.yul\":18046:18055   */\n      dup4\n        /* \"#utility.yul\":18042:18059   */\n      add\n        /* \"#utility.yul\":18035:18082   */\n      mstore\n        /* \"#utility.yul\":18099:18230   */\n      tag_389\n        /* \"#utility.yul\":18225:18229   */\n      dup2\n        /* \"#utility.yul\":18099:18230   */\n      tag_229\n      jump\t// in\n    tag_389:\n        /* \"#utility.yul\":18091:18230   */\n      swap1\n      pop\n        /* \"#utility.yul\":17818:18237   */\n      swap2\n      swap1\n      pop\n      jump\t// out\n        /* \"#utility.yul\":18243:18415   */\n    tag_230:\n        /* \"#utility.yul\":18383:18407   */\n      0x456d657267656e6379206e6f74206465636c6172656400000000000000000000\n        /* \"#utility.yul\":18379:18380   */\n      0x00\n        /* \"#utility.yul\":18371:18377   */\n      dup3\n        /* \"#utility.yul\":18367:18381   */\n      add\n        /* \"#utility.yul\":18360:18408   */\n      mstore\n        /* \"#utility.yul\":18243:18415   */\n      pop\n      jump\t// out\n        /* \"#utility.yul\":18421:18787   */\n    tag_231:\n        /* \"#utility.yul\":18563:18566   */\n      0x00\n        /* \"#utility.yul\":18584:18651   */\n      tag_392\n        /* \"#utility.yul\":18648:18650   */\n      0x16\n        /* \"#utility.yul\":18643:18646   */\n      dup4\n        /* \"#utility.yul\":18584:18651   */\n      tag_208\n      jump\t// in\n    tag_392:\n        /* \"#utility.yul\":18577:18651   */\n      swap2\n      pop\n        /* \"#utility.yul\":18660:18753   */\n      tag_393\n        /* \"#utility.yul\":18749:18752   */\n      dup3\n        /* \"#utility.yul\":18660:18753   */\n      tag_230\n      jump\t// in\n    tag_393:\n        /* \"#utility.yul\":18778:18780   */\n      0x20\n        /* \"#utility.yul\":18773:18776   */\n      dup3\n        /* \"#utility.yul\":18769:18781   */\n      add\n        /* \"#utility.yul\":18762:18781   */\n      swap1\n      pop\n        /* \"#utility.yul\":18421:18787   */\n      swap2\n      swap1\n      pop\n      jump\t// out\n        /* \"#utility.yul\":18793:19212   */\n    tag_177:\n        /* \"#utility.yul\":18959:18963   */\n      0x00\n        /* \"#utility.yul\":18997:18999   */\n      0x20\n        /* \"#utility.yul\":18986:18995   */\n      dup3\n        /* \"#utility.yul\":18982:19000   */\n      add\n        /* \"#utility.yul\":18974:19000   */\n      swap1\n      pop\n        /* \"#utility.yul\":19046:19055   */\n      dup2\n        /* \"#utility.yul\":19040:19044   */\n      dup2\n        /* \"#utility.yul\":19036:19056   */\n      sub\n        /* \"#utility.yul\":19032:19033   */\n      0x00\n        /* \"#utility.yul\":19021:19030   */\n      dup4\n        /* \"#utility.yul\":19017:19034   */\n      add\n        /* \"#utility.yul\":19010:19057   */\n      mstore\n        /* \"#utility.yul\":19074:19205   */\n      tag_395\n        /* \"#utility.yul\":19200:19204   */\n      dup2\n        /* \"#utility.yul\":19074:19205   */\n      tag_231\n      jump\t// in\n    tag_395:\n        /* \"#utility.yul\":19066:19205   */\n      swap1\n      pop\n        /* \"#utility.yul\":18793:19212   */\n      swap2\n      swap1\n      pop\n      jump\t// out\n\n    auxdata: 0xa2646970667358221220aaa44dad438a1178e2a14f0c185b04fe4c7d4b8bb73b1acbbd8bb830680b451764736f6c634300081e0033\n}\n",
				"bytecode": {
					"linkReferences": {},
					"object": "6080604052348015600e575f5ffd5b503360015f6101000a81548173ffffffffffffffffffffffffffffffffffffffff021916908373ffffffffffffffffffffffffffffffffffffffff160217905550611e478061005c5f395ff3fe6080604052600436106100f6575f3560e01c8063b76d4fc311610089578063d2b5394811610058578063d2b539481461044a578063d555d47314610454578063db2e21bc14610470578063e7c54d0c146104865761024a565b8063b76d4fc314610392578063b9709431146103bc578063bfa698de146103f8578063cf87f052146104225761024a565b80638da5cb5b116100c55780638da5cb5b146103025780639a70eef11461032c578063a6f9dae114610342578063aeae547d1461036a5761024a565b806307da68f514610255578063243e7a871461027f57806347cdcc1f146102be5780636f3f42ac146102e65761024a565b3661024a575f60405180608001604052803373ffffffffffffffffffffffffffffffffffffffff1681526020013073ffffffffffffffffffffffffffffffffffffffff16815260200142815260200134815250908060018154018082558091505060019003905f5260205f2090600402015f909190919091505f820151815f015f6101000a81548173ffffffffffffffffffffffffffffffffffffffff021916908373ffffffffffffffffffffffffffffffffffffffff1602179055506020820151816001015f6101000a81548173ffffffffffffffffffffffffffffffffffffffff021916908373ffffffffffffffffffffffffffffffffffffffff160217905550604082015181600201556060820151816003015550507f06fe3d87908d219dd2a21804fbb17f09c7e5b035f267faa393203a44fde23e963334604051610240929190611613565b60405180910390a1005b610253336104b0565b005b348015610260575f5ffd5b50610269610507565b6040516102769190611654565b60405180910390f35b34801561028a575f5ffd5b506102a560048036038101906102a0919061169b565b61051a565b6040516102b594939291906116c6565b60405180910390f35b3480156102c9575f5ffd5b506102e460048036038101906102df9190611744565b610592565b005b61030060048036038101906102fb91906117ac565b6107f9565b005b34801561030d575f5ffd5b506103166109c2565b60405161032391906117d7565b60405180910390f35b348015610337575f5ffd5b506103406109e7565b005b34801561034d575f5ffd5b50610368600480360381019061036391906117ac565b610ae8565b005b348015610375575f5ffd5b50610390600480360381019061038b919061169b565b610c78565b005b34801561039d575f5ffd5b506103a6610ee7565b6040516103b39190611909565b60405180910390f35b3480156103c7575f5ffd5b506103e260048036038101906103dd91906117ac565b610fff565b6040516103ef9190611929565b60405180910390f35b348015610403575f5ffd5b5061040c611014565b6040516104199190611929565b60405180910390f35b34801561042d575f5ffd5b50610448600480360381019061044391906117ac565b6104b0565b005b61045261101b565b005b61046e6004803603810190610469919061169b565b611255565b005b34801561047b575f5ffd5b50610484611431565b005b348015610491575f5ffd5b5061049a61157d565b6040516104a79190611929565b60405180910390f35b600160025f8373ffffffffffffffffffffffffffffffffffffffff1673ffffffffffffffffffffffffffffffffffffffff1681526020019081526020015f205f8282546104fd919061196f565b9250508190555050565b600160149054906101000a900460ff1681565b5f8181548110610528575f80fd5b905f5260205f2090600402015f91509050805f015f9054906101000a900473ffffffffffffffffffffffffffffffffffffffff1690806001015f9054906101000a900473ffffffffffffffffffffffffffffffffffffffff16908060020154908060030154905084565b60015f9054906101000a900473ffffffffffffffffffffffffffffffffffffffff1673ffffffffffffffffffffffffffffffffffffffff163373ffffffffffffffffffffffffffffffffffffffff1614610621576040517f08c379a0000000000000000000000000000000000000000000000000000000008152600401610618906119fc565b60405180910390fd5b80471015610664576040517f08c379a000000000000000000000000000000000000000000000000000000000815260040161065b90611a64565b60405180910390fd5b8173ffffffffffffffffffffffffffffffffffffffff166108fc8290811502906040515f60405180830381858888f193505050501580156106a7573d5f5f3e3d5ffd5b505f60405180608001604052803373ffffffffffffffffffffffffffffffffffffffff1681526020018473ffffffffffffffffffffffffffffffffffffffff16815260200142815260200183815250908060018154018082558091505060019003905f5260205f2090600402015f909190919091505f820151815f015f6101000a81548173ffffffffffffffffffffffffffffffffffffffff021916908373ffffffffffffffffffffffffffffffffffffffff1602179055506020820151816001015f6101000a81548173ffffffffffffffffffffffffffffffffffffffff021916908373ffffffffffffffffffffffffffffffffffffffff160217905550604082015181600201556060820151816003015550507f69ca02dd4edd7bf0a4abb9ed3b7af3f14778db5d61921c7dc7cd545266326de282826040516107ed929190611add565b60405180910390a15050565b5f73ffffffffffffffffffffffffffffffffffffffff168173ffffffffffffffffffffffffffffffffffffffff1603610867576040517f08c379a000000000000000000000000000000000000000000000000000000000815260040161085e90611b4e565b60405180910390fd5b8073ffffffffffffffffffffffffffffffffffffffff166108fc3490811502906040515f60405180830381858888f193505050501580156108aa573d5f5f3e3d5ffd5b505f60405180608001604052803373ffffffffffffffffffffffffffffffffffffffff1681526020018373ffffffffffffffffffffffffffffffffffffffff16815260200142815260200134815250908060018154018082558091505060019003905f5260205f2090600402015f909190919091505f820151815f015f6101000a81548173ffffffffffffffffffffffffffffffffffffffff021916908373ffffffffffffffffffffffffffffffffffffffff1602179055506020820151816001015f6101000a81548173ffffffffffffffffffffffffffffffffffffffff021916908373ffffffffffffffffffffffffffffffffffffffff1602179055506040820151816002015560608201518160030155505050565b60015f9054906101000a900473ffffffffffffffffffffffffffffffffffffffff1681565b60015f9054906101000a900473ffffffffffffffffffffffffffffffffffffffff1673ffffffffffffffffffffffffffffffffffffffff163373ffffffffffffffffffffffffffffffffffffffff1614610a76576040517f08c379a0000000000000000000000000000000000000000000000000000000008152600401610a6d906119fc565b60405180910390fd5b600160149054906101000a900460ff1615600160146101000a81548160ff0219169083151502179055507f7a59f3d9b570b5d7464526b9724b380a8b5f006931c518f8a143e84e966d2c32600160149054906101000a900460ff16604051610ade9190611654565b60405180910390a1565b60015f9054906101000a900473ffffffffffffffffffffffffffffffffffffffff1673ffffffffffffffffffffffffffffffffffffffff163373ffffffffffffffffffffffffffffffffffffffff1614610b77576040517f08c379a0000000000000000000000000000000000000000000000000000000008152600401610b6e906119fc565b60405180910390fd5b600160149054906101000a900460ff1615610bc7576040517f08c379a0000000000000000000000000000000000000000000000000000000008152600401610bbe90611bb6565b60405180910390fd5b5f73ffffffffffffffffffffffffffffffffffffffff168173ffffffffffffffffffffffffffffffffffffffff1603610c35576040517f08c379a0000000000000000000000000000000000000000000000000000000008152600401610c2c90611c1e565b60405180910390fd5b8060015f6101000a81548173ffffffffffffffffffffffffffffffffffffffff021916908373ffffffffffffffffffffffffffffffffffffffff16021790555050565b60015f9054906101000a900473ffffffffffffffffffffffffffffffffffffffff1673ffffffffffffffffffffffffffffffffffffffff163373ffffffffffffffffffffffffffffffffffffffff1614610d07576040517f08c379a0000000000000000000000000000000000000000000000000000000008152600401610cfe906119fc565b60405180910390fd5b80471015610d4a576040517f08c379a0000000000000000000000000000000000000000000000000000000008152600401610d4190611a64565b60405180910390fd5b60015f9054906101000a900473ffffffffffffffffffffffffffffffffffffffff1673ffffffffffffffffffffffffffffffffffffffff166108fc8290811502906040515f60405180830381858888f19350505050158015610dae573d5f5f3e3d5ffd5b505f60405180608001604052803073ffffffffffffffffffffffffffffffffffffffff16815260200160015f9054906101000a900473ffffffffffffffffffffffffffffffffffffffff1673ffffffffffffffffffffffffffffffffffffffff16815260200142815260200183815250908060018154018082558091505060019003905f5260205f2090600402015f909190919091505f820151815f015f6101000a81548173ffffffffffffffffffffffffffffffffffffffff021916908373ffffffffffffffffffffffffffffffffffffffff1602179055506020820151816001015f6101000a81548173ffffffffffffffffffffffffffffffffffffffff021916908373ffffffffffffffffffffffffffffffffffffffff1602179055506040820151816002015560608201518160030155505050565b60605f805480602002602001604051908101604052809291908181526020015f905b82821015610ff6578382905f5260205f2090600402016040518060800160405290815f82015f9054906101000a900473ffffffffffffffffffffffffffffffffffffffff1673ffffffffffffffffffffffffffffffffffffffff1673ffffffffffffffffffffffffffffffffffffffff168152602001600182015f9054906101000a900473ffffffffffffffffffffffffffffffffffffffff1673ffffffffffffffffffffffffffffffffffffffff1673ffffffffffffffffffffffffffffffffffffffff1681526020016002820154815260200160038201548152505081526020019060010190610f09565b50505050905090565b6002602052805f5260405f205f915090505481565b5f47905090565b5f341161105d576040517f08c379a000000000000000000000000000000000000000000000000000000000815260040161105490611c86565b60405180910390fd5b60015f9054906101000a900473ffffffffffffffffffffffffffffffffffffffff1673ffffffffffffffffffffffffffffffffffffffff166108fc3490811502906040515f60405180830381858888f193505050501580156110c1573d5f5f3e3d5ffd5b507f1c3b5a69fb0f252f94cb82044a3e84ed1640cc4913574be977dc964c8851a54d3360015f9054906101000a900473ffffffffffffffffffffffffffffffffffffffff163460405161111693929190611ca4565b60405180910390a15f60405180608001604052803373ffffffffffffffffffffffffffffffffffffffff16815260200160015f9054906101000a900473ffffffffffffffffffffffffffffffffffffffff1673ffffffffffffffffffffffffffffffffffffffff16815260200142815260200134815250908060018154018082558091505060019003905f5260205f2090600402015f909190919091505f820151815f015f6101000a81548173ffffffffffffffffffffffffffffffffffffffff021916908373ffffffffffffffffffffffffffffffffffffffff1602179055506020820151816001015f6101000a81548173ffffffffffffffffffffffffffffffffffffffff021916908373ffffffffffffffffffffffffffffffffffffffff16021790555060408201518160020155606082015181600301555050565b33600560025f8373ffffffffffffffffffffffffffffffffffffffff1673ffffffffffffffffffffffffffffffffffffffff1681526020019081526020015f2054106112d6576040517f08c379a00000000000000000000000000000000000000000000000000000000081526004016112cd90611d23565b60405180910390fd5b81421015611319576040517f08c379a000000000000000000000000000000000000000000000000000000000815260040161131090611d8b565b60405180910390fd5b5f60405180608001604052803373ffffffffffffffffffffffffffffffffffffffff1681526020013073ffffffffffffffffffffffffffffffffffffffff16815260200142815260200134815250908060018154018082558091505060019003905f5260205f2090600402015f909190919091505f820151815f015f6101000a81548173ffffffffffffffffffffffffffffffffffffffff021916908373ffffffffffffffffffffffffffffffffffffffff1602179055506020820151816001015f6101000a81548173ffffffffffffffffffffffffffffffffffffffff021916908373ffffffffffffffffffffffffffffffffffffffff160217905550604082015181600201556060820151816003015550505050565b60015f9054906101000a900473ffffffffffffffffffffffffffffffffffffffff1673ffffffffffffffffffffffffffffffffffffffff163373ffffffffffffffffffffffffffffffffffffffff16146114c0576040517f08c379a00000000000000000000000000000000000000000000000000000000081526004016114b7906119fc565b60405180910390fd5b60011515600160149054906101000a900460ff16151514611516576040517f08c379a000000000000000000000000000000000000000000000000000000000815260040161150d90611df3565b60405180910390fd5b60015f9054906101000a900473ffffffffffffffffffffffffffffffffffffffff1673ffffffffffffffffffffffffffffffffffffffff166108fc4790811502906040515f60405180830381858888f1935050505015801561157a573d5f5f3e3d5ffd5b50565b5f60015f9054906101000a900473ffffffffffffffffffffffffffffffffffffffff1673ffffffffffffffffffffffffffffffffffffffff1631905090565b5f73ffffffffffffffffffffffffffffffffffffffff82169050919050565b5f6115e5826115bc565b9050919050565b6115f5816115db565b82525050565b5f819050919050565b61160d816115fb565b82525050565b5f6040820190506116265f8301856115ec565b6116336020830184611604565b9392505050565b5f8115159050919050565b61164e8161163a565b82525050565b5f6020820190506116675f830184611645565b92915050565b5f5ffd5b61167a816115fb565b8114611684575f5ffd5b50565b5f8135905061169581611671565b92915050565b5f602082840312156116b0576116af61166d565b5b5f6116bd84828501611687565b91505092915050565b5f6080820190506116d95f8301876115ec565b6116e660208301866115ec565b6116f36040830185611604565b6117006060830184611604565b95945050505050565b5f611713826115bc565b9050919050565b61172381611709565b811461172d575f5ffd5b50565b5f8135905061173e8161171a565b92915050565b5f5f6040838503121561175a5761175961166d565b5b5f61176785828601611730565b925050602061177885828601611687565b9150509250929050565b61178b816115db565b8114611795575f5ffd5b50565b5f813590506117a681611782565b92915050565b5f602082840312156117c1576117c061166d565b5b5f6117ce84828501611798565b91505092915050565b5f6020820190506117ea5f8301846115ec565b92915050565b5f81519050919050565b5f82825260208201905092915050565b5f819050602082019050919050565b611822816115db565b82525050565b611831816115fb565b82525050565b608082015f82015161184b5f850182611819565b50602082015161185e6020850182611819565b5060408201516118716040850182611828565b5060608201516118846060850182611828565b50505050565b5f6118958383611837565b60808301905092915050565b5f602082019050919050565b5f6118b7826117f0565b6118c181856117fa565b93506118cc8361180a565b805f5b838110156118fc5781516118e3888261188a565b97506118ee836118a1565b9250506001810190506118cf565b5085935050505092915050565b5f6020820190508181035f83015261192181846118ad565b905092915050565b5f60208201905061193c5f830184611604565b92915050565b7f4e487b71000000000000000000000000000000000000000000000000000000005f52601160045260245ffd5b5f611979826115fb565b9150611984836115fb565b925082820190508082111561199c5761199b611942565b5b92915050565b5f82825260208201905092915050565b7f596f7520646f6e277420686176652061636365737300000000000000000000005f82015250565b5f6119e66015836119a2565b91506119f1826119b2565b602082019050919050565b5f6020820190508181035f830152611a13816119da565b9050919050565b7f496e73756666696369656e742062616c616e63650000000000000000000000005f82015250565b5f611a4e6014836119a2565b9150611a5982611a1a565b602082019050919050565b5f6020820190508181035f830152611a7b81611a42565b9050919050565b5f819050919050565b5f611aa5611aa0611a9b846115bc565b611a82565b6115bc565b9050919050565b5f611ab682611a8b565b9050919050565b5f611ac782611aac565b9050919050565b611ad781611abd565b82525050565b5f604082019050611af05f830185611ace565b611afd6020830184611604565b9392505050565b7f496e76616c6964206164647265737300000000000000000000000000000000005f82015250565b5f611b38600f836119a2565b9150611b4382611b04565b602082019050919050565b5f6020820190508181035f830152611b6581611b2c565b9050919050565b7f456d657267656e6379206465636c6172656421000000000000000000000000005f82015250565b5f611ba06013836119a2565b9150611bab82611b6c565b602082019050919050565b5f6020820190508181035f830152611bcd81611b94565b9050919050565b7f496e76616c6964206f776e6572206164647265737300000000000000000000005f82015250565b5f611c086015836119a2565b9150611c1382611bd4565b602082019050919050565b5f6020820190508181035f830152611c3581611bfc565b9050919050565b7f416d6f756e74206d757374206265203e203000000000000000000000000000005f82015250565b5f611c706012836119a2565b9150611c7b82611c3c565b602082019050919050565b5f6020820190508181035f830152611c9d81611c64565b9050919050565b5f606082019050611cb75f8301866115ec565b611cc460208301856115ec565b611cd16040830184611604565b949350505050565b7f416374697669747920737573706963696f75732c20747279206c6174657200005f82015250565b5f611d0d601e836119a2565b9150611d1882611cd9565b602082019050919050565b5f6020820190508181035f830152611d3a81611d01565b9050919050565b7f53656e642061667465722073746172742074696d6500000000000000000000005f82015250565b5f611d756015836119a2565b9150611d8082611d41565b602082019050919050565b5f6020820190508181035f830152611da281611d69565b9050919050565b7f456d657267656e6379206e6f74206465636c61726564000000000000000000005f82015250565b5f611ddd6016836119a2565b9150611de882611da9565b602082019050919050565b5f6020820190508181035f830152611e0a81611dd1565b905091905056fea2646970667358221220aaa44dad438a1178e2a14f0c185b04fe4c7d4b8bb73b1acbbd8bb830680b451764736f6c634300081e0033",
					"opcodes": "PUSH1 0x80 PUSH1 0x40 MSTORE CALLVALUE DUP1 ISZERO PUSH1 0xE JUMPI PUSH0 PUSH0 REVERT JUMPDEST POP CALLER PUSH1 0x1 PUSH0 PUSH2 0x100 EXP DUP2 SLOAD DUP2 PUSH20 0xFFFFFFFFFFFFFFFFFFFFFFFFFFFFFFFFFFFFFFFF MUL NOT AND SWAP1 DUP4 PUSH20 0xFFFFFFFFFFFFFFFFFFFFFFFFFFFFFFFFFFFFFFFF AND MUL OR SWAP1 SSTORE POP PUSH2 0x1E47 DUP1 PUSH2 0x5C PUSH0 CODECOPY PUSH0 RETURN INVALID PUSH1 0x80 PUSH1 0x40 MSTORE PUSH1 0x4 CALLDATASIZE LT PUSH2 0xF6 JUMPI PUSH0 CALLDATALOAD PUSH1 0xE0 SHR DUP1 PUSH4 0xB76D4FC3 GT PUSH2 0x89 JUMPI DUP1 PUSH4 0xD2B53948 GT PUSH2 0x58 JUMPI DUP1 PUSH4 0xD2B53948 EQ PUSH2 0x44A JUMPI DUP1 PUSH4 0xD555D473 EQ PUSH2 0x454 JUMPI DUP1 PUSH4 0xDB2E21BC EQ PUSH2 0x470 JUMPI DUP1 PUSH4 0xE7C54D0C EQ PUSH2 0x486 JUMPI PUSH2 0x24A JUMP JUMPDEST DUP1 PUSH4 0xB76D4FC3 EQ PUSH2 0x392 JUMPI DUP1 PUSH4 0xB9709431 EQ PUSH2 0x3BC JUMPI DUP1 PUSH4 0xBFA698DE EQ PUSH2 0x3F8 JUMPI DUP1 PUSH4 0xCF87F052 EQ PUSH2 0x422 JUMPI PUSH2 0x24A JUMP JUMPDEST DUP1 PUSH4 0x8DA5CB5B GT PUSH2 0xC5 JUMPI DUP1 PUSH4 0x8DA5CB5B EQ PUSH2 0x302 JUMPI DUP1 PUSH4 0x9A70EEF1 EQ PUSH2 0x32C JUMPI DUP1 PUSH4 0xA6F9DAE1 EQ PUSH2 0x342 JUMPI DUP1 PUSH4 0xAEAE547D EQ PUSH2 0x36A JUMPI PUSH2 0x24A JUMP JUMPDEST DUP1 PUSH4 0x7DA68F5 EQ PUSH2 0x255 JUMPI DUP1 PUSH4 0x243E7A87 EQ PUSH2 0x27F JUMPI DUP1 PUSH4 0x47CDCC1F EQ PUSH2 0x2BE JUMPI DUP1 PUSH4 0x6F3F42AC EQ PUSH2 0x2E6 JUMPI PUSH2 0x24A JUMP JUMPDEST CALLDATASIZE PUSH2 0x24A JUMPI PUSH0 PUSH1 0x40 MLOAD DUP1 PUSH1 0x80 ADD PUSH1 0x40 MSTORE DUP1 CALLER PUSH20 0xFFFFFFFFFFFFFFFFFFFFFFFFFFFFFFFFFFFFFFFF AND DUP2 MSTORE PUSH1 0x20 ADD ADDRESS PUSH20 0xFFFFFFFFFFFFFFFFFFFFFFFFFFFFFFFFFFFFFFFF AND DUP2 MSTORE PUSH1 0x20 ADD TIMESTAMP DUP2 MSTORE PUSH1 0x20 ADD CALLVALUE DUP2 MSTORE POP SWAP1 DUP1 PUSH1 0x1 DUP2 SLOAD ADD DUP1 DUP3 SSTORE DUP1 SWAP2 POP POP PUSH1 0x1 SWAP1 SUB SWAP1 PUSH0 MSTORE PUSH1 0x20 PUSH0 KECCAK256 SWAP1 PUSH1 0x4 MUL ADD PUSH0 SWAP1 SWAP2 SWAP1 SWAP2 SWAP1 SWAP2 POP PUSH0 DUP3 ADD MLOAD DUP2 PUSH0 ADD PUSH0 PUSH2 0x100 EXP DUP2 SLOAD DUP2 PUSH20 0xFFFFFFFFFFFFFFFFFFFFFFFFFFFFFFFFFFFFFFFF MUL NOT AND SWAP1 DUP4 PUSH20 0xFFFFFFFFFFFFFFFFFFFFFFFFFFFFFFFFFFFFFFFF AND MUL OR SWAP1 SSTORE POP PUSH1 0x20 DUP3 ADD MLOAD DUP2 PUSH1 0x1 ADD PUSH0 PUSH2 0x100 EXP DUP2 SLOAD DUP2 PUSH20 0xFFFFFFFFFFFFFFFFFFFFFFFFFFFFFFFFFFFFFFFF MUL NOT AND SWAP1 DUP4 PUSH20 0xFFFFFFFFFFFFFFFFFFFFFFFFFFFFFFFFFFFFFFFF AND MUL OR SWAP1 SSTORE POP PUSH1 0x40 DUP3 ADD MLOAD DUP2 PUSH1 0x2 ADD SSTORE PUSH1 0x60 DUP3 ADD MLOAD DUP2 PUSH1 0x3 ADD SSTORE POP POP PUSH32 0x6FE3D87908D219DD2A21804FBB17F09C7E5B035F267FAA393203A44FDE23E96 CALLER CALLVALUE PUSH1 0x40 MLOAD PUSH2 0x240 SWAP3 SWAP2 SWAP1 PUSH2 0x1613 JUMP JUMPDEST PUSH1 0x40 MLOAD DUP1 SWAP2 SUB SWAP1 LOG1 STOP JUMPDEST PUSH2 0x253 CALLER PUSH2 0x4B0 JUMP JUMPDEST STOP JUMPDEST CALLVALUE DUP1 ISZERO PUSH2 0x260 JUMPI PUSH0 PUSH0 REVERT JUMPDEST POP PUSH2 0x269 PUSH2 0x507 JUMP JUMPDEST PUSH1 0x40 MLOAD PUSH2 0x276 SWAP2 SWAP1 PUSH2 0x1654 JUMP JUMPDEST PUSH1 0x40 MLOAD DUP1 SWAP2 SUB SWAP1 RETURN JUMPDEST CALLVALUE DUP1 ISZERO PUSH2 0x28A JUMPI PUSH0 PUSH0 REVERT JUMPDEST POP PUSH2 0x2A5 PUSH1 0x4 DUP1 CALLDATASIZE SUB DUP2 ADD SWAP1 PUSH2 0x2A0 SWAP2 SWAP1 PUSH2 0x169B JUMP JUMPDEST PUSH2 0x51A JUMP JUMPDEST PUSH1 0x40 MLOAD PUSH2 0x2B5 SWAP5 SWAP4 SWAP3 SWAP2 SWAP1 PUSH2 0x16C6 JUMP JUMPDEST PUSH1 0x40 MLOAD DUP1 SWAP2 SUB SWAP1 RETURN JUMPDEST CALLVALUE DUP1 ISZERO PUSH2 0x2C9 JUMPI PUSH0 PUSH0 REVERT JUMPDEST POP PUSH2 0x2E4 PUSH1 0x4 DUP1 CALLDATASIZE SUB DUP2 ADD SWAP1 PUSH2 0x2DF SWAP2 SWAP1 PUSH2 0x1744 JUMP JUMPDEST PUSH2 0x592 JUMP JUMPDEST STOP JUMPDEST PUSH2 0x300 PUSH1 0x4 DUP1 CALLDATASIZE SUB DUP2 ADD SWAP1 PUSH2 0x2FB SWAP2 SWAP1 PUSH2 0x17AC JUMP JUMPDEST PUSH2 0x7F9 JUMP JUMPDEST STOP JUMPDEST CALLVALUE DUP1 ISZERO PUSH2 0x30D JUMPI PUSH0 PUSH0 REVERT JUMPDEST POP PUSH2 0x316 PUSH2 0x9C2 JUMP JUMPDEST PUSH1 0x40 MLOAD PUSH2 0x323 SWAP2 SWAP1 PUSH2 0x17D7 JUMP JUMPDEST PUSH1 0x40 MLOAD DUP1 SWAP2 SUB SWAP1 RETURN JUMPDEST CALLVALUE DUP1 ISZERO PUSH2 0x337 JUMPI PUSH0 PUSH0 REVERT JUMPDEST POP PUSH2 0x340 PUSH2 0x9E7 JUMP JUMPDEST STOP JUMPDEST CALLVALUE DUP1 ISZERO PUSH2 0x34D JUMPI PUSH0 PUSH0 REVERT JUMPDEST POP PUSH2 0x368 PUSH1 0x4 DUP1 CALLDATASIZE SUB DUP2 ADD SWAP1 PUSH2 0x363 SWAP2 SWAP1 PUSH2 0x17AC JUMP JUMPDEST PUSH2 0xAE8 JUMP JUMPDEST STOP JUMPDEST CALLVALUE DUP1 ISZERO PUSH2 0x375 JUMPI PUSH0 PUSH0 REVERT JUMPDEST POP PUSH2 0x390 PUSH1 0x4 DUP1 CALLDATASIZE SUB DUP2 ADD SWAP1 PUSH2 0x38B SWAP2 SWAP1 PUSH2 0x169B JUMP JUMPDEST PUSH2 0xC78 JUMP JUMPDEST STOP JUMPDEST CALLVALUE DUP1 ISZERO PUSH2 0x39D JUMPI PUSH0 PUSH0 REVERT JUMPDEST POP PUSH2 0x3A6 PUSH2 0xEE7 JUMP JUMPDEST PUSH1 0x40 MLOAD PUSH2 0x3B3 SWAP2 SWAP1 PUSH2 0x1909 JUMP JUMPDEST PUSH1 0x40 MLOAD DUP1 SWAP2 SUB SWAP1 RETURN JUMPDEST CALLVALUE DUP1 ISZERO PUSH2 0x3C7 JUMPI PUSH0 PUSH0 REVERT JUMPDEST POP PUSH2 0x3E2 PUSH1 0x4 DUP1 CALLDATASIZE SUB DUP2 ADD SWAP1 PUSH2 0x3DD SWAP2 SWAP1 PUSH2 0x17AC JUMP JUMPDEST PUSH2 0xFFF JUMP JUMPDEST PUSH1 0x40 MLOAD PUSH2 0x3EF SWAP2 SWAP1 PUSH2 0x1929 JUMP JUMPDEST PUSH1 0x40 MLOAD DUP1 SWAP2 SUB SWAP1 RETURN JUMPDEST CALLVALUE DUP1 ISZERO PUSH2 0x403 JUMPI PUSH0 PUSH0 REVERT JUMPDEST POP PUSH2 0x40C PUSH2 0x1014 JUMP JUMPDEST PUSH1 0x40 MLOAD PUSH2 0x419 SWAP2 SWAP1 PUSH2 0x1929 JUMP JUMPDEST PUSH1 0x40 MLOAD DUP1 SWAP2 SUB SWAP1 RETURN JUMPDEST CALLVALUE DUP1 ISZERO PUSH2 0x42D JUMPI PUSH0 PUSH0 REVERT JUMPDEST POP PUSH2 0x448 PUSH1 0x4 DUP1 CALLDATASIZE SUB DUP2 ADD SWAP1 PUSH2 0x443 SWAP2 SWAP1 PUSH2 0x17AC JUMP JUMPDEST PUSH2 0x4B0 JUMP JUMPDEST STOP JUMPDEST PUSH2 0x452 PUSH2 0x101B JUMP JUMPDEST STOP JUMPDEST PUSH2 0x46E PUSH1 0x4 DUP1 CALLDATASIZE SUB DUP2 ADD SWAP1 PUSH2 0x469 SWAP2 SWAP1 PUSH2 0x169B JUMP JUMPDEST PUSH2 0x1255 JUMP JUMPDEST STOP JUMPDEST CALLVALUE DUP1 ISZERO PUSH2 0x47B JUMPI PUSH0 PUSH0 REVERT JUMPDEST POP PUSH2 0x484 PUSH2 0x1431 JUMP JUMPDEST STOP JUMPDEST CALLVALUE DUP1 ISZERO PUSH2 0x491 JUMPI PUSH0 PUSH0 REVERT JUMPDEST POP PUSH2 0x49A PUSH2 0x157D JUMP JUMPDEST PUSH1 0x40 MLOAD PUSH2 0x4A7 SWAP2 SWAP1 PUSH2 0x1929 JUMP JUMPDEST PUSH1 0x40 MLOAD DUP1 SWAP2 SUB SWAP1 RETURN JUMPDEST PUSH1 0x1 PUSH1 0x2 PUSH0 DUP4 PUSH20 0xFFFFFFFFFFFFFFFFFFFFFFFFFFFFFFFFFFFFFFFF AND PUSH20 0xFFFFFFFFFFFFFFFFFFFFFFFFFFFFFFFFFFFFFFFF AND DUP2 MSTORE PUSH1 0x20 ADD SWAP1 DUP2 MSTORE PUSH1 0x20 ADD PUSH0 KECCAK256 PUSH0 DUP3 DUP3 SLOAD PUSH2 0x4FD SWAP2 SWAP1 PUSH2 0x196F JUMP JUMPDEST SWAP3 POP POP DUP2 SWAP1 SSTORE POP POP JUMP JUMPDEST PUSH1 0x1 PUSH1 0x14 SWAP1 SLOAD SWAP1 PUSH2 0x100 EXP SWAP1 DIV PUSH1 0xFF AND DUP2 JUMP JUMPDEST PUSH0 DUP2 DUP2 SLOAD DUP2 LT PUSH2 0x528 JUMPI PUSH0 DUP1 REVERT JUMPDEST SWAP1 PUSH0 MSTORE PUSH1 0x20 PUSH0 KECCAK256 SWAP1 PUSH1 0x4 MUL ADD PUSH0 SWAP2 POP SWAP1 POP DUP1 PUSH0 ADD PUSH0 SWAP1 SLOAD SWAP1 PUSH2 0x100 EXP SWAP1 DIV PUSH20 0xFFFFFFFFFFFFFFFFFFFFFFFFFFFFFFFFFFFFFFFF AND SWAP1 DUP1 PUSH1 0x1 ADD PUSH0 SWAP1 SLOAD SWAP1 PUSH2 0x100 EXP SWAP1 DIV PUSH20 0xFFFFFFFFFFFFFFFFFFFFFFFFFFFFFFFFFFFFFFFF AND SWAP1 DUP1 PUSH1 0x2 ADD SLOAD SWAP1 DUP1 PUSH1 0x3 ADD SLOAD SWAP1 POP DUP5 JUMP JUMPDEST PUSH1 0x1 PUSH0 SWAP1 SLOAD SWAP1 PUSH2 0x100 EXP SWAP1 DIV PUSH20 0xFFFFFFFFFFFFFFFFFFFFFFFFFFFFFFFFFFFFFFFF AND PUSH20 0xFFFFFFFFFFFFFFFFFFFFFFFFFFFFFFFFFFFFFFFF AND CALLER PUSH20 0xFFFFFFFFFFFFFFFFFFFFFFFFFFFFFFFFFFFFFFFF AND EQ PUSH2 0x621 JUMPI PUSH1 0x40 MLOAD PUSH32 0x8C379A000000000000000000000000000000000000000000000000000000000 DUP2 MSTORE PUSH1 0x4 ADD PUSH2 0x618 SWAP1 PUSH2 0x19FC JUMP JUMPDEST PUSH1 0x40 MLOAD DUP1 SWAP2 SUB SWAP1 REVERT JUMPDEST DUP1 SELFBALANCE LT ISZERO PUSH2 0x664 JUMPI PUSH1 0x40 MLOAD PUSH32 0x8C379A000000000000000000000000000000000000000000000000000000000 DUP2 MSTORE PUSH1 0x4 ADD PUSH2 0x65B SWAP1 PUSH2 0x1A64 JUMP JUMPDEST PUSH1 0x40 MLOAD DUP1 SWAP2 SUB SWAP1 REVERT JUMPDEST DUP2 PUSH20 0xFFFFFFFFFFFFFFFFFFFFFFFFFFFFFFFFFFFFFFFF AND PUSH2 0x8FC DUP3 SWAP1 DUP2 ISZERO MUL SWAP1 PUSH1 0x40 MLOAD PUSH0 PUSH1 0x40 MLOAD DUP1 DUP4 SUB DUP2 DUP6 DUP9 DUP9 CALL SWAP4 POP POP POP POP ISZERO DUP1 ISZERO PUSH2 0x6A7 JUMPI RETURNDATASIZE PUSH0 PUSH0 RETURNDATACOPY RETURNDATASIZE PUSH0 REVERT JUMPDEST POP PUSH0 PUSH1 0x40 MLOAD DUP1 PUSH1 0x80 ADD PUSH1 0x40 MSTORE DUP1 CALLER PUSH20 0xFFFFFFFFFFFFFFFFFFFFFFFFFFFFFFFFFFFFFFFF AND DUP2 MSTORE PUSH1 0x20 ADD DUP5 PUSH20 0xFFFFFFFFFFFFFFFFFFFFFFFFFFFFFFFFFFFFFFFF AND DUP2 MSTORE PUSH1 0x20 ADD TIMESTAMP DUP2 MSTORE PUSH1 0x20 ADD DUP4 DUP2 MSTORE POP SWAP1 DUP1 PUSH1 0x1 DUP2 SLOAD ADD DUP1 DUP3 SSTORE DUP1 SWAP2 POP POP PUSH1 0x1 SWAP1 SUB SWAP1 PUSH0 MSTORE PUSH1 0x20 PUSH0 KECCAK256 SWAP1 PUSH1 0x4 MUL ADD PUSH0 SWAP1 SWAP2 SWAP1 SWAP2 SWAP1 SWAP2 POP PUSH0 DUP3 ADD MLOAD DUP2 PUSH0 ADD PUSH0 PUSH2 0x100 EXP DUP2 SLOAD DUP2 PUSH20 0xFFFFFFFFFFFFFFFFFFFFFFFFFFFFFFFFFFFFFFFF MUL NOT AND SWAP1 DUP4 PUSH20 0xFFFFFFFFFFFFFFFFFFFFFFFFFFFFFFFFFFFFFFFF AND MUL OR SWAP1 SSTORE POP PUSH1 0x20 DUP3 ADD MLOAD DUP2 PUSH1 0x1 ADD PUSH0 PUSH2 0x100 EXP DUP2 SLOAD DUP2 PUSH20 0xFFFFFFFFFFFFFFFFFFFFFFFFFFFFFFFFFFFFFFFF MUL NOT AND SWAP1 DUP4 PUSH20 0xFFFFFFFFFFFFFFFFFFFFFFFFFFFFFFFFFFFFFFFF AND MUL OR SWAP1 SSTORE POP PUSH1 0x40 DUP3 ADD MLOAD DUP2 PUSH1 0x2 ADD SSTORE PUSH1 0x60 DUP3 ADD MLOAD DUP2 PUSH1 0x3 ADD SSTORE POP POP PUSH32 0x69CA02DD4EDD7BF0A4ABB9ED3B7AF3F14778DB5D61921C7DC7CD545266326DE2 DUP3 DUP3 PUSH1 0x40 MLOAD PUSH2 0x7ED SWAP3 SWAP2 SWAP1 PUSH2 0x1ADD JUMP JUMPDEST PUSH1 0x40 MLOAD DUP1 SWAP2 SUB SWAP1 LOG1 POP POP JUMP JUMPDEST PUSH0 PUSH20 0xFFFFFFFFFFFFFFFFFFFFFFFFFFFFFFFFFFFFFFFF AND DUP2 PUSH20 0xFFFFFFFFFFFFFFFFFFFFFFFFFFFFFFFFFFFFFFFF AND SUB PUSH2 0x867 JUMPI PUSH1 0x40 MLOAD PUSH32 0x8C379A000000000000000000000000000000000000000000000000000000000 DUP2 MSTORE PUSH1 0x4 ADD PUSH2 0x85E SWAP1 PUSH2 0x1B4E JUMP JUMPDEST PUSH1 0x40 MLOAD DUP1 SWAP2 SUB SWAP1 REVERT JUMPDEST DUP1 PUSH20 0xFFFFFFFFFFFFFFFFFFFFFFFFFFFFFFFFFFFFFFFF AND PUSH2 0x8FC CALLVALUE SWAP1 DUP2 ISZERO MUL SWAP1 PUSH1 0x40 MLOAD PUSH0 PUSH1 0x40 MLOAD DUP1 DUP4 SUB DUP2 DUP6 DUP9 DUP9 CALL SWAP4 POP POP POP POP ISZERO DUP1 ISZERO PUSH2 0x8AA JUMPI RETURNDATASIZE PUSH0 PUSH0 RETURNDATACOPY RETURNDATASIZE PUSH0 REVERT JUMPDEST POP PUSH0 PUSH1 0x40 MLOAD DUP1 PUSH1 0x80 ADD PUSH1 0x40 MSTORE DUP1 CALLER PUSH20 0xFFFFFFFFFFFFFFFFFFFFFFFFFFFFFFFFFFFFFFFF AND DUP2 MSTORE PUSH1 0x20 ADD DUP4 PUSH20 0xFFFFFFFFFFFFFFFFFFFFFFFFFFFFFFFFFFFFFFFF AND DUP2 MSTORE PUSH1 0x20 ADD TIMESTAMP DUP2 MSTORE PUSH1 0x20 ADD CALLVALUE DUP2 MSTORE POP SWAP1 DUP1 PUSH1 0x1 DUP2 SLOAD ADD DUP1 DUP3 SSTORE DUP1 SWAP2 POP POP PUSH1 0x1 SWAP1 SUB SWAP1 PUSH0 MSTORE PUSH1 0x20 PUSH0 KECCAK256 SWAP1 PUSH1 0x4 MUL ADD PUSH0 SWAP1 SWAP2 SWAP1 SWAP2 SWAP1 SWAP2 POP PUSH0 DUP3 ADD MLOAD DUP2 PUSH0 ADD PUSH0 PUSH2 0x100 EXP DUP2 SLOAD DUP2 PUSH20 0xFFFFFFFFFFFFFFFFFFFFFFFFFFFFFFFFFFFFFFFF MUL NOT AND SWAP1 DUP4 PUSH20 0xFFFFFFFFFFFFFFFFFFFFFFFFFFFFFFFFFFFFFFFF AND MUL OR SWAP1 SSTORE POP PUSH1 0x20 DUP3 ADD MLOAD DUP2 PUSH1 0x1 ADD PUSH0 PUSH2 0x100 EXP DUP2 SLOAD DUP2 PUSH20 0xFFFFFFFFFFFFFFFFFFFFFFFFFFFFFFFFFFFFFFFF MUL NOT AND SWAP1 DUP4 PUSH20 0xFFFFFFFFFFFFFFFFFFFFFFFFFFFFFFFFFFFFFFFF AND MUL OR SWAP1 SSTORE POP PUSH1 0x40 DUP3 ADD MLOAD DUP2 PUSH1 0x2 ADD SSTORE PUSH1 0x60 DUP3 ADD MLOAD DUP2 PUSH1 0x3 ADD SSTORE POP POP POP JUMP JUMPDEST PUSH1 0x1 PUSH0 SWAP1 SLOAD SWAP1 PUSH2 0x100 EXP SWAP1 DIV PUSH20 0xFFFFFFFFFFFFFFFFFFFFFFFFFFFFFFFFFFFFFFFF AND DUP2 JUMP JUMPDEST PUSH1 0x1 PUSH0 SWAP1 SLOAD SWAP1 PUSH2 0x100 EXP SWAP1 DIV PUSH20 0xFFFFFFFFFFFFFFFFFFFFFFFFFFFFFFFFFFFFFFFF AND PUSH20 0xFFFFFFFFFFFFFFFFFFFFFFFFFFFFFFFFFFFFFFFF AND CALLER PUSH20 0xFFFFFFFFFFFFFFFFFFFFFFFFFFFFFFFFFFFFFFFF AND EQ PUSH2 0xA76 JUMPI PUSH1 0x40 MLOAD PUSH32 0x8C379A000000000000000000000000000000000000000000000000000000000 DUP2 MSTORE PUSH1 0x4 ADD PUSH2 0xA6D SWAP1 PUSH2 0x19FC JUMP JUMPDEST PUSH1 0x40 MLOAD DUP1 SWAP2 SUB SWAP1 REVERT JUMPDEST PUSH1 0x1 PUSH1 0x14 SWAP1 SLOAD SWAP1 PUSH2 0x100 EXP SWAP1 DIV PUSH1 0xFF AND ISZERO PUSH1 0x1 PUSH1 0x14 PUSH2 0x100 EXP DUP2 SLOAD DUP2 PUSH1 0xFF MUL NOT AND SWAP1 DUP4 ISZERO ISZERO MUL OR SWAP1 SSTORE POP PUSH32 0x7A59F3D9B570B5D7464526B9724B380A8B5F006931C518F8A143E84E966D2C32 PUSH1 0x1 PUSH1 0x14 SWAP1 SLOAD SWAP1 PUSH2 0x100 EXP SWAP1 DIV PUSH1 0xFF AND PUSH1 0x40 MLOAD PUSH2 0xADE SWAP2 SWAP1 PUSH2 0x1654 JUMP JUMPDEST PUSH1 0x40 MLOAD DUP1 SWAP2 SUB SWAP1 LOG1 JUMP JUMPDEST PUSH1 0x1 PUSH0 SWAP1 SLOAD SWAP1 PUSH2 0x100 EXP SWAP1 DIV PUSH20 0xFFFFFFFFFFFFFFFFFFFFFFFFFFFFFFFFFFFFFFFF AND PUSH20 0xFFFFFFFFFFFFFFFFFFFFFFFFFFFFFFFFFFFFFFFF AND CALLER PUSH20 0xFFFFFFFFFFFFFFFFFFFFFFFFFFFFFFFFFFFFFFFF AND EQ PUSH2 0xB77 JUMPI PUSH1 0x40 MLOAD PUSH32 0x8C379A000000000000000000000000000000000000000000000000000000000 DUP2 MSTORE PUSH1 0x4 ADD PUSH2 0xB6E SWAP1 PUSH2 0x19FC JUMP JUMPDEST PUSH1 0x40 MLOAD DUP1 SWAP2 SUB SWAP1 REVERT JUMPDEST PUSH1 0x1 PUSH1 0x14 SWAP1 SLOAD SWAP1 PUSH2 0x100 EXP SWAP1 DIV PUSH1 0xFF AND ISZERO PUSH2 0xBC7 JUMPI PUSH1 0x40 MLOAD PUSH32 0x8C379A000000000000000000000000000000000000000000000000000000000 DUP2 MSTORE PUSH1 0x4 ADD PUSH2 0xBBE SWAP1 PUSH2 0x1BB6 JUMP JUMPDEST PUSH1 0x40 MLOAD DUP1 SWAP2 SUB SWAP1 REVERT JUMPDEST PUSH0 PUSH20 0xFFFFFFFFFFFFFFFFFFFFFFFFFFFFFFFFFFFFFFFF AND DUP2 PUSH20 0xFFFFFFFFFFFFFFFFFFFFFFFFFFFFFFFFFFFFFFFF AND SUB PUSH2 0xC35 JUMPI PUSH1 0x40 MLOAD PUSH32 0x8C379A000000000000000000000000000000000000000000000000000000000 DUP2 MSTORE PUSH1 0x4 ADD PUSH2 0xC2C SWAP1 PUSH2 0x1C1E JUMP JUMPDEST PUSH1 0x40 MLOAD DUP1 SWAP2 SUB SWAP1 REVERT JUMPDEST DUP1 PUSH1 0x1 PUSH0 PUSH2 0x100 EXP DUP2 SLOAD DUP2 PUSH20 0xFFFFFFFFFFFFFFFFFFFFFFFFFFFFFFFFFFFFFFFF MUL NOT AND SWAP1 DUP4 PUSH20 0xFFFFFFFFFFFFFFFFFFFFFFFFFFFFFFFFFFFFFFFF AND MUL OR SWAP1 SSTORE POP POP JUMP JUMPDEST PUSH1 0x1 PUSH0 SWAP1 SLOAD SWAP1 PUSH2 0x100 EXP SWAP1 DIV PUSH20 0xFFFFFFFFFFFFFFFFFFFFFFFFFFFFFFFFFFFFFFFF AND PUSH20 0xFFFFFFFFFFFFFFFFFFFFFFFFFFFFFFFFFFFFFFFF AND CALLER PUSH20 0xFFFFFFFFFFFFFFFFFFFFFFFFFFFFFFFFFFFFFFFF AND EQ PUSH2 0xD07 JUMPI PUSH1 0x40 MLOAD PUSH32 0x8C379A000000000000000000000000000000000000000000000000000000000 DUP2 MSTORE PUSH1 0x4 ADD PUSH2 0xCFE SWAP1 PUSH2 0x19FC JUMP JUMPDEST PUSH1 0x40 MLOAD DUP1 SWAP2 SUB SWAP1 REVERT JUMPDEST DUP1 SELFBALANCE LT ISZERO PUSH2 0xD4A JUMPI PUSH1 0x40 MLOAD PUSH32 0x8C379A000000000000000000000000000000000000000000000000000000000 DUP2 MSTORE PUSH1 0x4 ADD PUSH2 0xD41 SWAP1 PUSH2 0x1A64 JUMP JUMPDEST PUSH1 0x40 MLOAD DUP1 SWAP2 SUB SWAP1 REVERT JUMPDEST PUSH1 0x1 PUSH0 SWAP1 SLOAD SWAP1 PUSH2 0x100 EXP SWAP1 DIV PUSH20 0xFFFFFFFFFFFFFFFFFFFFFFFFFFFFFFFFFFFFFFFF AND PUSH20 0xFFFFFFFFFFFFFFFFFFFFFFFFFFFFFFFFFFFFFFFF AND PUSH2 0x8FC DUP3 SWAP1 DUP2 ISZERO MUL SWAP1 PUSH1 0x40 MLOAD PUSH0 PUSH1 0x40 MLOAD DUP1 DUP4 SUB DUP2 DUP6 DUP9 DUP9 CALL SWAP4 POP POP POP POP ISZERO DUP1 ISZERO PUSH2 0xDAE JUMPI RETURNDATASIZE PUSH0 PUSH0 RETURNDATACOPY RETURNDATASIZE PUSH0 REVERT JUMPDEST POP PUSH0 PUSH1 0x40 MLOAD DUP1 PUSH1 0x80 ADD PUSH1 0x40 MSTORE DUP1 ADDRESS PUSH20 0xFFFFFFFFFFFFFFFFFFFFFFFFFFFFFFFFFFFFFFFF AND DUP2 MSTORE PUSH1 0x20 ADD PUSH1 0x1 PUSH0 SWAP1 SLOAD SWAP1 PUSH2 0x100 EXP SWAP1 DIV PUSH20 0xFFFFFFFFFFFFFFFFFFFFFFFFFFFFFFFFFFFFFFFF AND PUSH20 0xFFFFFFFFFFFFFFFFFFFFFFFFFFFFFFFFFFFFFFFF AND DUP2 MSTORE PUSH1 0x20 ADD TIMESTAMP DUP2 MSTORE PUSH1 0x20 ADD DUP4 DUP2 MSTORE POP SWAP1 DUP1 PUSH1 0x1 DUP2 SLOAD ADD DUP1 DUP3 SSTORE DUP1 SWAP2 POP POP PUSH1 0x1 SWAP1 SUB SWAP1 PUSH0 MSTORE PUSH1 0x20 PUSH0 KECCAK256 SWAP1 PUSH1 0x4 MUL ADD PUSH0 SWAP1 SWAP2 SWAP1 SWAP2 SWAP1 SWAP2 POP PUSH0 DUP3 ADD MLOAD DUP2 PUSH0 ADD PUSH0 PUSH2 0x100 EXP DUP2 SLOAD DUP2 PUSH20 0xFFFFFFFFFFFFFFFFFFFFFFFFFFFFFFFFFFFFFFFF MUL NOT AND SWAP1 DUP4 PUSH20 0xFFFFFFFFFFFFFFFFFFFFFFFFFFFFFFFFFFFFFFFF AND MUL OR SWAP1 SSTORE POP PUSH1 0x20 DUP3 ADD MLOAD DUP2 PUSH1 0x1 ADD PUSH0 PUSH2 0x100 EXP DUP2 SLOAD DUP2 PUSH20 0xFFFFFFFFFFFFFFFFFFFFFFFFFFFFFFFFFFFFFFFF MUL NOT AND SWAP1 DUP4 PUSH20 0xFFFFFFFFFFFFFFFFFFFFFFFFFFFFFFFFFFFFFFFF AND MUL OR SWAP1 SSTORE POP PUSH1 0x40 DUP3 ADD MLOAD DUP2 PUSH1 0x2 ADD SSTORE PUSH1 0x60 DUP3 ADD MLOAD DUP2 PUSH1 0x3 ADD SSTORE POP POP POP JUMP JUMPDEST PUSH1 0x60 PUSH0 DUP1 SLOAD DUP1 PUSH1 0x20 MUL PUSH1 0x20 ADD PUSH1 0x40 MLOAD SWAP1 DUP2 ADD PUSH1 0x40 MSTORE DUP1 SWAP3 SWAP2 SWAP1 DUP2 DUP2 MSTORE PUSH1 0x20 ADD PUSH0 SWAP1 JUMPDEST DUP3 DUP3 LT ISZERO PUSH2 0xFF6 JUMPI DUP4 DUP3 SWAP1 PUSH0 MSTORE PUSH1 0x20 PUSH0 KECCAK256 SWAP1 PUSH1 0x4 MUL ADD PUSH1 0x40 MLOAD DUP1 PUSH1 0x80 ADD PUSH1 0x40 MSTORE SWAP1 DUP2 PUSH0 DUP3 ADD PUSH0 SWAP1 SLOAD SWAP1 PUSH2 0x100 EXP SWAP1 DIV PUSH20 0xFFFFFFFFFFFFFFFFFFFFFFFFFFFFFFFFFFFFFFFF AND PUSH20 0xFFFFFFFFFFFFFFFFFFFFFFFFFFFFFFFFFFFFFFFF AND PUSH20 0xFFFFFFFFFFFFFFFFFFFFFFFFFFFFFFFFFFFFFFFF AND DUP2 MSTORE PUSH1 0x20 ADD PUSH1 0x1 DUP3 ADD PUSH0 SWAP1 SLOAD SWAP1 PUSH2 0x100 EXP SWAP1 DIV PUSH20 0xFFFFFFFFFFFFFFFFFFFFFFFFFFFFFFFFFFFFFFFF AND PUSH20 0xFFFFFFFFFFFFFFFFFFFFFFFFFFFFFFFFFFFFFFFF AND PUSH20 0xFFFFFFFFFFFFFFFFFFFFFFFFFFFFFFFFFFFFFFFF AND DUP2 MSTORE PUSH1 0x20 ADD PUSH1 0x2 DUP3 ADD SLOAD DUP2 MSTORE PUSH1 0x20 ADD PUSH1 0x3 DUP3 ADD SLOAD DUP2 MSTORE POP POP DUP2 MSTORE PUSH1 0x20 ADD SWAP1 PUSH1 0x1 ADD SWAP1 PUSH2 0xF09 JUMP JUMPDEST POP POP POP POP SWAP1 POP SWAP1 JUMP JUMPDEST PUSH1 0x2 PUSH1 0x20 MSTORE DUP1 PUSH0 MSTORE PUSH1 0x40 PUSH0 KECCAK256 PUSH0 SWAP2 POP SWAP1 POP SLOAD DUP2 JUMP JUMPDEST PUSH0 SELFBALANCE SWAP1 POP SWAP1 JUMP JUMPDEST PUSH0 CALLVALUE GT PUSH2 0x105D JUMPI PUSH1 0x40 MLOAD PUSH32 0x8C379A000000000000000000000000000000000000000000000000000000000 DUP2 MSTORE PUSH1 0x4 ADD PUSH2 0x1054 SWAP1 PUSH2 0x1C86 JUMP JUMPDEST PUSH1 0x40 MLOAD DUP1 SWAP2 SUB SWAP1 REVERT JUMPDEST PUSH1 0x1 PUSH0 SWAP1 SLOAD SWAP1 PUSH2 0x100 EXP SWAP1 DIV PUSH20 0xFFFFFFFFFFFFFFFFFFFFFFFFFFFFFFFFFFFFFFFF AND PUSH20 0xFFFFFFFFFFFFFFFFFFFFFFFFFFFFFFFFFFFFFFFF AND PUSH2 0x8FC CALLVALUE SWAP1 DUP2 ISZERO MUL SWAP1 PUSH1 0x40 MLOAD PUSH0 PUSH1 0x40 MLOAD DUP1 DUP4 SUB DUP2 DUP6 DUP9 DUP9 CALL SWAP4 POP POP POP POP ISZERO DUP1 ISZERO PUSH2 0x10C1 JUMPI RETURNDATASIZE PUSH0 PUSH0 RETURNDATACOPY RETURNDATASIZE PUSH0 REVERT JUMPDEST POP PUSH32 0x1C3B5A69FB0F252F94CB82044A3E84ED1640CC4913574BE977DC964C8851A54D CALLER PUSH1 0x1 PUSH0 SWAP1 SLOAD SWAP1 PUSH2 0x100 EXP SWAP1 DIV PUSH20 0xFFFFFFFFFFFFFFFFFFFFFFFFFFFFFFFFFFFFFFFF AND CALLVALUE PUSH1 0x40 MLOAD PUSH2 0x1116 SWAP4 SWAP3 SWAP2 SWAP1 PUSH2 0x1CA4 JUMP JUMPDEST PUSH1 0x40 MLOAD DUP1 SWAP2 SUB SWAP1 LOG1 PUSH0 PUSH1 0x40 MLOAD DUP1 PUSH1 0x80 ADD PUSH1 0x40 MSTORE DUP1 CALLER PUSH20 0xFFFFFFFFFFFFFFFFFFFFFFFFFFFFFFFFFFFFFFFF AND DUP2 MSTORE PUSH1 0x20 ADD PUSH1 0x1 PUSH0 SWAP1 SLOAD SWAP1 PUSH2 0x100 EXP SWAP1 DIV PUSH20 0xFFFFFFFFFFFFFFFFFFFFFFFFFFFFFFFFFFFFFFFF AND PUSH20 0xFFFFFFFFFFFFFFFFFFFFFFFFFFFFFFFFFFFFFFFF AND DUP2 MSTORE PUSH1 0x20 ADD TIMESTAMP DUP2 MSTORE PUSH1 0x20 ADD CALLVALUE DUP2 MSTORE POP SWAP1 DUP1 PUSH1 0x1 DUP2 SLOAD ADD DUP1 DUP3 SSTORE DUP1 SWAP2 POP POP PUSH1 0x1 SWAP1 SUB SWAP1 PUSH0 MSTORE PUSH1 0x20 PUSH0 KECCAK256 SWAP1 PUSH1 0x4 MUL ADD PUSH0 SWAP1 SWAP2 SWAP1 SWAP2 SWAP1 SWAP2 POP PUSH0 DUP3 ADD MLOAD DUP2 PUSH0 ADD PUSH0 PUSH2 0x100 EXP DUP2 SLOAD DUP2 PUSH20 0xFFFFFFFFFFFFFFFFFFFFFFFFFFFFFFFFFFFFFFFF MUL NOT AND SWAP1 DUP4 PUSH20 0xFFFFFFFFFFFFFFFFFFFFFFFFFFFFFFFFFFFFFFFF AND MUL OR SWAP1 SSTORE POP PUSH1 0x20 DUP3 ADD MLOAD DUP2 PUSH1 0x1 ADD PUSH0 PUSH2 0x100 EXP DUP2 SLOAD DUP2 PUSH20 0xFFFFFFFFFFFFFFFFFFFFFFFFFFFFFFFFFFFFFFFF MUL NOT AND SWAP1 DUP4 PUSH20 0xFFFFFFFFFFFFFFFFFFFFFFFFFFFFFFFFFFFFFFFF AND MUL OR SWAP1 SSTORE POP PUSH1 0x40 DUP3 ADD MLOAD DUP2 PUSH1 0x2 ADD SSTORE PUSH1 0x60 DUP3 ADD MLOAD DUP2 PUSH1 0x3 ADD SSTORE POP POP JUMP JUMPDEST CALLER PUSH1 0x5 PUSH1 0x2 PUSH0 DUP4 PUSH20 0xFFFFFFFFFFFFFFFFFFFFFFFFFFFFFFFFFFFFFFFF AND PUSH20 0xFFFFFFFFFFFFFFFFFFFFFFFFFFFFFFFFFFFFFFFF AND DUP2 MSTORE PUSH1 0x20 ADD SWAP1 DUP2 MSTORE PUSH1 0x20 ADD PUSH0 KECCAK256 SLOAD LT PUSH2 0x12D6 JUMPI PUSH1 0x40 MLOAD PUSH32 0x8C379A000000000000000000000000000000000000000000000000000000000 DUP2 MSTORE PUSH1 0x4 ADD PUSH2 0x12CD SWAP1 PUSH2 0x1D23 JUMP JUMPDEST PUSH1 0x40 MLOAD DUP1 SWAP2 SUB SWAP1 REVERT JUMPDEST DUP2 TIMESTAMP LT ISZERO PUSH2 0x1319 JUMPI PUSH1 0x40 MLOAD PUSH32 0x8C379A000000000000000000000000000000000000000000000000000000000 DUP2 MSTORE PUSH1 0x4 ADD PUSH2 0x1310 SWAP1 PUSH2 0x1D8B JUMP JUMPDEST PUSH1 0x40 MLOAD DUP1 SWAP2 SUB SWAP1 REVERT JUMPDEST PUSH0 PUSH1 0x40 MLOAD DUP1 PUSH1 0x80 ADD PUSH1 0x40 MSTORE DUP1 CALLER PUSH20 0xFFFFFFFFFFFFFFFFFFFFFFFFFFFFFFFFFFFFFFFF AND DUP2 MSTORE PUSH1 0x20 ADD ADDRESS PUSH20 0xFFFFFFFFFFFFFFFFFFFFFFFFFFFFFFFFFFFFFFFF AND DUP2 MSTORE PUSH1 0x20 ADD TIMESTAMP DUP2 MSTORE PUSH1 0x20 ADD CALLVALUE DUP2 MSTORE POP SWAP1 DUP1 PUSH1 0x1 DUP2 SLOAD ADD DUP1 DUP3 SSTORE DUP1 SWAP2 POP POP PUSH1 0x1 SWAP1 SUB SWAP1 PUSH0 MSTORE PUSH1 0x20 PUSH0 KECCAK256 SWAP1 PUSH1 0x4 MUL ADD PUSH0 SWAP1 SWAP2 SWAP1 SWAP2 SWAP1 SWAP2 POP PUSH0 DUP3 ADD MLOAD DUP2 PUSH0 ADD PUSH0 PUSH2 0x100 EXP DUP2 SLOAD DUP2 PUSH20 0xFFFFFFFFFFFFFFFFFFFFFFFFFFFFFFFFFFFFFFFF MUL NOT AND SWAP1 DUP4 PUSH20 0xFFFFFFFFFFFFFFFFFFFFFFFFFFFFFFFFFFFFFFFF AND MUL OR SWAP1 SSTORE POP PUSH1 0x20 DUP3 ADD MLOAD DUP2 PUSH1 0x1 ADD PUSH0 PUSH2 0x100 EXP DUP2 SLOAD DUP2 PUSH20 0xFFFFFFFFFFFFFFFFFFFFFFFFFFFFFFFFFFFFFFFF MUL NOT AND SWAP1 DUP4 PUSH20 0xFFFFFFFFFFFFFFFFFFFFFFFFFFFFFFFFFFFFFFFF AND MUL OR SWAP1 SSTORE POP PUSH1 0x40 DUP3 ADD MLOAD DUP2 PUSH1 0x2 ADD SSTORE PUSH1 0x60 DUP3 ADD MLOAD DUP2 PUSH1 0x3 ADD SSTORE POP POP POP POP JUMP JUMPDEST PUSH1 0x1 PUSH0 SWAP1 SLOAD SWAP1 PUSH2 0x100 EXP SWAP1 DIV PUSH20 0xFFFFFFFFFFFFFFFFFFFFFFFFFFFFFFFFFFFFFFFF AND PUSH20 0xFFFFFFFFFFFFFFFFFFFFFFFFFFFFFFFFFFFFFFFF AND CALLER PUSH20 0xFFFFFFFFFFFFFFFFFFFFFFFFFFFFFFFFFFFFFFFF AND EQ PUSH2 0x14C0 JUMPI PUSH1 0x40 MLOAD PUSH32 0x8C379A000000000000000000000000000000000000000000000000000000000 DUP2 MSTORE PUSH1 0x4 ADD PUSH2 0x14B7 SWAP1 PUSH2 0x19FC JUMP JUMPDEST PUSH1 0x40 MLOAD DUP1 SWAP2 SUB SWAP1 REVERT JUMPDEST PUSH1 0x1 ISZERO ISZERO PUSH1 0x1 PUSH1 0x14 SWAP1 SLOAD SWAP1 PUSH2 0x100 EXP SWAP1 DIV PUSH1 0xFF AND ISZERO ISZERO EQ PUSH2 0x1516 JUMPI PUSH1 0x40 MLOAD PUSH32 0x8C379A000000000000000000000000000000000000000000000000000000000 DUP2 MSTORE PUSH1 0x4 ADD PUSH2 0x150D SWAP1 PUSH2 0x1DF3 JUMP JUMPDEST PUSH1 0x40 MLOAD DUP1 SWAP2 SUB SWAP1 REVERT JUMPDEST PUSH1 0x1 PUSH0 SWAP1 SLOAD SWAP1 PUSH2 0x100 EXP SWAP1 DIV PUSH20 0xFFFFFFFFFFFFFFFFFFFFFFFFFFFFFFFFFFFFFFFF AND PUSH20 0xFFFFFFFFFFFFFFFFFFFFFFFFFFFFFFFFFFFFFFFF AND PUSH2 0x8FC SELFBALANCE SWAP1 DUP2 ISZERO MUL SWAP1 PUSH1 0x40 MLOAD PUSH0 PUSH1 0x40 MLOAD DUP1 DUP4 SUB DUP2 DUP6 DUP9 DUP9 CALL SWAP4 POP POP POP POP ISZERO DUP1 ISZERO PUSH2 0x157A JUMPI RETURNDATASIZE PUSH0 PUSH0 RETURNDATACOPY RETURNDATASIZE PUSH0 REVERT JUMPDEST POP JUMP JUMPDEST PUSH0 PUSH1 0x1 PUSH0 SWAP1 SLOAD SWAP1 PUSH2 0x100 EXP SWAP1 DIV PUSH20 0xFFFFFFFFFFFFFFFFFFFFFFFFFFFFFFFFFFFFFFFF AND PUSH20 0xFFFFFFFFFFFFFFFFFFFFFFFFFFFFFFFFFFFFFFFF AND BALANCE SWAP1 POP SWAP1 JUMP JUMPDEST PUSH0 PUSH20 0xFFFFFFFFFFFFFFFFFFFFFFFFFFFFFFFFFFFFFFFF DUP3 AND SWAP1 POP SWAP2 SWAP1 POP JUMP JUMPDEST PUSH0 PUSH2 0x15E5 DUP3 PUSH2 0x15BC JUMP JUMPDEST SWAP1 POP SWAP2 SWAP1 POP JUMP JUMPDEST PUSH2 0x15F5 DUP2 PUSH2 0x15DB JUMP JUMPDEST DUP3 MSTORE POP POP JUMP JUMPDEST PUSH0 DUP2 SWAP1 POP SWAP2 SWAP1 POP JUMP JUMPDEST PUSH2 0x160D DUP2 PUSH2 0x15FB JUMP JUMPDEST DUP3 MSTORE POP POP JUMP JUMPDEST PUSH0 PUSH1 0x40 DUP3 ADD SWAP1 POP PUSH2 0x1626 PUSH0 DUP4 ADD DUP6 PUSH2 0x15EC JUMP JUMPDEST PUSH2 0x1633 PUSH1 0x20 DUP4 ADD DUP5 PUSH2 0x1604 JUMP JUMPDEST SWAP4 SWAP3 POP POP POP JUMP JUMPDEST PUSH0 DUP2 ISZERO ISZERO SWAP1 POP SWAP2 SWAP1 POP JUMP JUMPDEST PUSH2 0x164E DUP2 PUSH2 0x163A JUMP JUMPDEST DUP3 MSTORE POP POP JUMP JUMPDEST PUSH0 PUSH1 0x20 DUP3 ADD SWAP1 POP PUSH2 0x1667 PUSH0 DUP4 ADD DUP5 PUSH2 0x1645 JUMP JUMPDEST SWAP3 SWAP2 POP POP JUMP JUMPDEST PUSH0 PUSH0 REVERT JUMPDEST PUSH2 0x167A DUP2 PUSH2 0x15FB JUMP JUMPDEST DUP2 EQ PUSH2 0x1684 JUMPI PUSH0 PUSH0 REVERT JUMPDEST POP JUMP JUMPDEST PUSH0 DUP2 CALLDATALOAD SWAP1 POP PUSH2 0x1695 DUP2 PUSH2 0x1671 JUMP JUMPDEST SWAP3 SWAP2 POP POP JUMP JUMPDEST PUSH0 PUSH1 0x20 DUP3 DUP5 SUB SLT ISZERO PUSH2 0x16B0 JUMPI PUSH2 0x16AF PUSH2 0x166D JUMP JUMPDEST JUMPDEST PUSH0 PUSH2 0x16BD DUP5 DUP3 DUP6 ADD PUSH2 0x1687 JUMP JUMPDEST SWAP2 POP POP SWAP3 SWAP2 POP POP JUMP JUMPDEST PUSH0 PUSH1 0x80 DUP3 ADD SWAP1 POP PUSH2 0x16D9 PUSH0 DUP4 ADD DUP8 PUSH2 0x15EC JUMP JUMPDEST PUSH2 0x16E6 PUSH1 0x20 DUP4 ADD DUP7 PUSH2 0x15EC JUMP JUMPDEST PUSH2 0x16F3 PUSH1 0x40 DUP4 ADD DUP6 PUSH2 0x1604 JUMP JUMPDEST PUSH2 0x1700 PUSH1 0x60 DUP4 ADD DUP5 PUSH2 0x1604 JUMP JUMPDEST SWAP6 SWAP5 POP POP POP POP POP JUMP JUMPDEST PUSH0 PUSH2 0x1713 DUP3 PUSH2 0x15BC JUMP JUMPDEST SWAP1 POP SWAP2 SWAP1 POP JUMP JUMPDEST PUSH2 0x1723 DUP2 PUSH2 0x1709 JUMP JUMPDEST DUP2 EQ PUSH2 0x172D JUMPI PUSH0 PUSH0 REVERT JUMPDEST POP JUMP JUMPDEST PUSH0 DUP2 CALLDATALOAD SWAP1 POP PUSH2 0x173E DUP2 PUSH2 0x171A JUMP JUMPDEST SWAP3 SWAP2 POP POP JUMP JUMPDEST PUSH0 PUSH0 PUSH1 0x40 DUP4 DUP6 SUB SLT ISZERO PUSH2 0x175A JUMPI PUSH2 0x1759 PUSH2 0x166D JUMP JUMPDEST JUMPDEST PUSH0 PUSH2 0x1767 DUP6 DUP3 DUP7 ADD PUSH2 0x1730 JUMP JUMPDEST SWAP3 POP POP PUSH1 0x20 PUSH2 0x1778 DUP6 DUP3 DUP7 ADD PUSH2 0x1687 JUMP JUMPDEST SWAP2 POP POP SWAP3 POP SWAP3 SWAP1 POP JUMP JUMPDEST PUSH2 0x178B DUP2 PUSH2 0x15DB JUMP JUMPDEST DUP2 EQ PUSH2 0x1795 JUMPI PUSH0 PUSH0 REVERT JUMPDEST POP JUMP JUMPDEST PUSH0 DUP2 CALLDATALOAD SWAP1 POP PUSH2 0x17A6 DUP2 PUSH2 0x1782 JUMP JUMPDEST SWAP3 SWAP2 POP POP JUMP JUMPDEST PUSH0 PUSH1 0x20 DUP3 DUP5 SUB SLT ISZERO PUSH2 0x17C1 JUMPI PUSH2 0x17C0 PUSH2 0x166D JUMP JUMPDEST JUMPDEST PUSH0 PUSH2 0x17CE DUP5 DUP3 DUP6 ADD PUSH2 0x1798 JUMP JUMPDEST SWAP2 POP POP SWAP3 SWAP2 POP POP JUMP JUMPDEST PUSH0 PUSH1 0x20 DUP3 ADD SWAP1 POP PUSH2 0x17EA PUSH0 DUP4 ADD DUP5 PUSH2 0x15EC JUMP JUMPDEST SWAP3 SWAP2 POP POP JUMP JUMPDEST PUSH0 DUP2 MLOAD SWAP1 POP SWAP2 SWAP1 POP JUMP JUMPDEST PUSH0 DUP3 DUP3 MSTORE PUSH1 0x20 DUP3 ADD SWAP1 POP SWAP3 SWAP2 POP POP JUMP JUMPDEST PUSH0 DUP2 SWAP1 POP PUSH1 0x20 DUP3 ADD SWAP1 POP SWAP2 SWAP1 POP JUMP JUMPDEST PUSH2 0x1822 DUP2 PUSH2 0x15DB JUMP JUMPDEST DUP3 MSTORE POP POP JUMP JUMPDEST PUSH2 0x1831 DUP2 PUSH2 0x15FB JUMP JUMPDEST DUP3 MSTORE POP POP JUMP JUMPDEST PUSH1 0x80 DUP3 ADD PUSH0 DUP3 ADD MLOAD PUSH2 0x184B PUSH0 DUP6 ADD DUP3 PUSH2 0x1819 JUMP JUMPDEST POP PUSH1 0x20 DUP3 ADD MLOAD PUSH2 0x185E PUSH1 0x20 DUP6 ADD DUP3 PUSH2 0x1819 JUMP JUMPDEST POP PUSH1 0x40 DUP3 ADD MLOAD PUSH2 0x1871 PUSH1 0x40 DUP6 ADD DUP3 PUSH2 0x1828 JUMP JUMPDEST POP PUSH1 0x60 DUP3 ADD MLOAD PUSH2 0x1884 PUSH1 0x60 DUP6 ADD DUP3 PUSH2 0x1828 JUMP JUMPDEST POP POP POP POP JUMP JUMPDEST PUSH0 PUSH2 0x1895 DUP4 DUP4 PUSH2 0x1837 JUMP JUMPDEST PUSH1 0x80 DUP4 ADD SWAP1 POP SWAP3 SWAP2 POP POP JUMP JUMPDEST PUSH0 PUSH1 0x20 DUP3 ADD SWAP1 POP SWAP2 SWAP1 POP JUMP JUMPDEST PUSH0 PUSH2 0x18B7 DUP3 PUSH2 0x17F0 JUMP JUMPDEST PUSH2 0x18C1 DUP2 DUP6 PUSH2 0x17FA JUMP JUMPDEST SWAP4 POP PUSH2 0x18CC DUP4 PUSH2 0x180A JUMP JUMPDEST DUP1 PUSH0 JUMPDEST DUP4 DUP2 LT ISZERO PUSH2 0x18FC JUMPI DUP2 MLOAD PUSH2 0x18E3 DUP9 DUP3 PUSH2 0x188A JUMP JUMPDEST SWAP8 POP PUSH2 0x18EE DUP4 PUSH2 0x18A1 JUMP JUMPDEST SWAP3 POP POP PUSH1 0x1 DUP2 ADD SWAP1 POP PUSH2 0x18CF JUMP JUMPDEST POP DUP6 SWAP4 POP POP POP POP SWAP3 SWAP2 POP POP JUMP JUMPDEST PUSH0 PUSH1 0x20 DUP3 ADD SWAP1 POP DUP2 DUP2 SUB PUSH0 DUP4 ADD MSTORE PUSH2 0x1921 DUP2 DUP5 PUSH2 0x18AD JUMP JUMPDEST SWAP1 POP SWAP3 SWAP2 POP POP JUMP JUMPDEST PUSH0 PUSH1 0x20 DUP3 ADD SWAP1 POP PUSH2 0x193C PUSH0 DUP4 ADD DUP5 PUSH2 0x1604 JUMP JUMPDEST SWAP3 SWAP2 POP POP JUMP JUMPDEST PUSH32 0x4E487B7100000000000000000000000000000000000000000000000000000000 PUSH0 MSTORE PUSH1 0x11 PUSH1 0x4 MSTORE PUSH1 0x24 PUSH0 REVERT JUMPDEST PUSH0 PUSH2 0x1979 DUP3 PUSH2 0x15FB JUMP JUMPDEST SWAP2 POP PUSH2 0x1984 DUP4 PUSH2 0x15FB JUMP JUMPDEST SWAP3 POP DUP3 DUP3 ADD SWAP1 POP DUP1 DUP3 GT ISZERO PUSH2 0x199C JUMPI PUSH2 0x199B PUSH2 0x1942 JUMP JUMPDEST JUMPDEST SWAP3 SWAP2 POP POP JUMP JUMPDEST PUSH0 DUP3 DUP3 MSTORE PUSH1 0x20 DUP3 ADD SWAP1 POP SWAP3 SWAP2 POP POP JUMP JUMPDEST PUSH32 0x596F7520646F6E27742068617665206163636573730000000000000000000000 PUSH0 DUP3 ADD MSTORE POP JUMP JUMPDEST PUSH0 PUSH2 0x19E6 PUSH1 0x15 DUP4 PUSH2 0x19A2 JUMP JUMPDEST SWAP2 POP PUSH2 0x19F1 DUP3 PUSH2 0x19B2 JUMP JUMPDEST PUSH1 0x20 DUP3 ADD SWAP1 POP SWAP2 SWAP1 POP JUMP JUMPDEST PUSH0 PUSH1 0x20 DUP3 ADD SWAP1 POP DUP2 DUP2 SUB PUSH0 DUP4 ADD MSTORE PUSH2 0x1A13 DUP2 PUSH2 0x19DA JUMP JUMPDEST SWAP1 POP SWAP2 SWAP1 POP JUMP JUMPDEST PUSH32 0x496E73756666696369656E742062616C616E6365000000000000000000000000 PUSH0 DUP3 ADD MSTORE POP JUMP JUMPDEST PUSH0 PUSH2 0x1A4E PUSH1 0x14 DUP4 PUSH2 0x19A2 JUMP JUMPDEST SWAP2 POP PUSH2 0x1A59 DUP3 PUSH2 0x1A1A JUMP JUMPDEST PUSH1 0x20 DUP3 ADD SWAP1 POP SWAP2 SWAP1 POP JUMP JUMPDEST PUSH0 PUSH1 0x20 DUP3 ADD SWAP1 POP DUP2 DUP2 SUB PUSH0 DUP4 ADD MSTORE PUSH2 0x1A7B DUP2 PUSH2 0x1A42 JUMP JUMPDEST SWAP1 POP SWAP2 SWAP1 POP JUMP JUMPDEST PUSH0 DUP2 SWAP1 POP SWAP2 SWAP1 POP JUMP JUMPDEST PUSH0 PUSH2 0x1AA5 PUSH2 0x1AA0 PUSH2 0x1A9B DUP5 PUSH2 0x15BC JUMP JUMPDEST PUSH2 0x1A82 JUMP JUMPDEST PUSH2 0x15BC JUMP JUMPDEST SWAP1 POP SWAP2 SWAP1 POP JUMP JUMPDEST PUSH0 PUSH2 0x1AB6 DUP3 PUSH2 0x1A8B JUMP JUMPDEST SWAP1 POP SWAP2 SWAP1 POP JUMP JUMPDEST PUSH0 PUSH2 0x1AC7 DUP3 PUSH2 0x1AAC JUMP JUMPDEST SWAP1 POP SWAP2 SWAP1 POP JUMP JUMPDEST PUSH2 0x1AD7 DUP2 PUSH2 0x1ABD JUMP JUMPDEST DUP3 MSTORE POP POP JUMP JUMPDEST PUSH0 PUSH1 0x40 DUP3 ADD SWAP1 POP PUSH2 0x1AF0 PUSH0 DUP4 ADD DUP6 PUSH2 0x1ACE JUMP JUMPDEST PUSH2 0x1AFD PUSH1 0x20 DUP4 ADD DUP5 PUSH2 0x1604 JUMP JUMPDEST SWAP4 SWAP3 POP POP POP JUMP JUMPDEST PUSH32 0x496E76616C696420616464726573730000000000000000000000000000000000 PUSH0 DUP3 ADD MSTORE POP JUMP JUMPDEST PUSH0 PUSH2 0x1B38 PUSH1 0xF DUP4 PUSH2 0x19A2 JUMP JUMPDEST SWAP2 POP PUSH2 0x1B43 DUP3 PUSH2 0x1B04 JUMP JUMPDEST PUSH1 0x20 DUP3 ADD SWAP1 POP SWAP2 SWAP1 POP JUMP JUMPDEST PUSH0 PUSH1 0x20 DUP3 ADD SWAP1 POP DUP2 DUP2 SUB PUSH0 DUP4 ADD MSTORE PUSH2 0x1B65 DUP2 PUSH2 0x1B2C JUMP JUMPDEST SWAP1 POP SWAP2 SWAP1 POP JUMP JUMPDEST PUSH32 0x456D657267656E6379206465636C617265642100000000000000000000000000 PUSH0 DUP3 ADD MSTORE POP JUMP JUMPDEST PUSH0 PUSH2 0x1BA0 PUSH1 0x13 DUP4 PUSH2 0x19A2 JUMP JUMPDEST SWAP2 POP PUSH2 0x1BAB DUP3 PUSH2 0x1B6C JUMP JUMPDEST PUSH1 0x20 DUP3 ADD SWAP1 POP SWAP2 SWAP1 POP JUMP JUMPDEST PUSH0 PUSH1 0x20 DUP3 ADD SWAP1 POP DUP2 DUP2 SUB PUSH0 DUP4 ADD MSTORE PUSH2 0x1BCD DUP2 PUSH2 0x1B94 JUMP JUMPDEST SWAP1 POP SWAP2 SWAP1 POP JUMP JUMPDEST PUSH32 0x496E76616C6964206F776E657220616464726573730000000000000000000000 PUSH0 DUP3 ADD MSTORE POP JUMP JUMPDEST PUSH0 PUSH2 0x1C08 PUSH1 0x15 DUP4 PUSH2 0x19A2 JUMP JUMPDEST SWAP2 POP PUSH2 0x1C13 DUP3 PUSH2 0x1BD4 JUMP JUMPDEST PUSH1 0x20 DUP3 ADD SWAP1 POP SWAP2 SWAP1 POP JUMP JUMPDEST PUSH0 PUSH1 0x20 DUP3 ADD SWAP1 POP DUP2 DUP2 SUB PUSH0 DUP4 ADD MSTORE PUSH2 0x1C35 DUP2 PUSH2 0x1BFC JUMP JUMPDEST SWAP1 POP SWAP2 SWAP1 POP JUMP JUMPDEST PUSH32 0x416D6F756E74206D757374206265203E20300000000000000000000000000000 PUSH0 DUP3 ADD MSTORE POP JUMP JUMPDEST PUSH0 PUSH2 0x1C70 PUSH1 0x12 DUP4 PUSH2 0x19A2 JUMP JUMPDEST SWAP2 POP PUSH2 0x1C7B DUP3 PUSH2 0x1C3C JUMP JUMPDEST PUSH1 0x20 DUP3 ADD SWAP1 POP SWAP2 SWAP1 POP JUMP JUMPDEST PUSH0 PUSH1 0x20 DUP3 ADD SWAP1 POP DUP2 DUP2 SUB PUSH0 DUP4 ADD MSTORE PUSH2 0x1C9D DUP2 PUSH2 0x1C64 JUMP JUMPDEST SWAP1 POP SWAP2 SWAP1 POP JUMP JUMPDEST PUSH0 PUSH1 0x60 DUP3 ADD SWAP1 POP PUSH2 0x1CB7 PUSH0 DUP4 ADD DUP7 PUSH2 0x15EC JUMP JUMPDEST PUSH2 0x1CC4 PUSH1 0x20 DUP4 ADD DUP6 PUSH2 0x15EC JUMP JUMPDEST PUSH2 0x1CD1 PUSH1 0x40 DUP4 ADD DUP5 PUSH2 0x1604 JUMP JUMPDEST SWAP5 SWAP4 POP POP POP POP JUMP JUMPDEST PUSH32 0x416374697669747920737573706963696F75732C20747279206C617465720000 PUSH0 DUP3 ADD MSTORE POP JUMP JUMPDEST PUSH0 PUSH2 0x1D0D PUSH1 0x1E DUP4 PUSH2 0x19A2 JUMP JUMPDEST SWAP2 POP PUSH2 0x1D18 DUP3 PUSH2 0x1CD9 JUMP JUMPDEST PUSH1 0x20 DUP3 ADD SWAP1 POP SWAP2 SWAP1 POP JUMP JUMPDEST PUSH0 PUSH1 0x20 DUP3 ADD SWAP1 POP DUP2 DUP2 SUB PUSH0 DUP4 ADD MSTORE PUSH2 0x1D3A DUP2 PUSH2 0x1D01 JUMP JUMPDEST SWAP1 POP SWAP2 SWAP1 POP JUMP JUMPDEST PUSH32 0x53656E642061667465722073746172742074696D650000000000000000000000 PUSH0 DUP3 ADD MSTORE POP JUMP JUMPDEST PUSH0 PUSH2 0x1D75 PUSH1 0x15 DUP4 PUSH2 0x19A2 JUMP JUMPDEST SWAP2 POP PUSH2 0x1D80 DUP3 PUSH2 0x1D41 JUMP JUMPDEST PUSH1 0x20 DUP3 ADD SWAP1 POP SWAP2 SWAP1 POP JUMP JUMPDEST PUSH0 PUSH1 0x20 DUP3 ADD SWAP1 POP DUP2 DUP2 SUB PUSH0 DUP4 ADD MSTORE PUSH2 0x1DA2 DUP2 PUSH2 0x1D69 JUMP JUMPDEST SWAP1 POP SWAP2 SWAP1 POP JUMP JUMPDEST PUSH32 0x456D657267656E6379206E6F74206465636C6172656400000000000000000000 PUSH0 DUP3 ADD MSTORE POP JUMP JUMPDEST PUSH0 PUSH2 0x1DDD PUSH1 0x16 DUP4 PUSH2 0x19A2 JUMP JUMPDEST SWAP2 POP PUSH2 0x1DE8 DUP3 PUSH2 0x1DA9 JUMP JUMPDEST PUSH1 0x20 DUP3 ADD SWAP1 POP SWAP2 SWAP1 POP JUMP JUMPDEST PUSH0 PUSH1 0x20 DUP3 ADD SWAP1 POP DUP2 DUP2 SUB PUSH0 DUP4 ADD MSTORE PUSH2 0x1E0A DUP2 PUSH2 0x1DD1 JUMP JUMPDEST SWAP1 POP SWAP2 SWAP1 POP JUMP INVALID LOG2 PUSH5 0x6970667358 0x22 SLT KECCAK256 0xAA LOG4 0x4D 0xAD NUMBER DUP11 GT PUSH25 0xE2A14F0C185B04FE4C7D4B8BB73B1ACBBD8BB830680B451764 PUSH20 0x6F6C634300081E00330000000000000000000000 "
				},
				"gasEstimates": {
					"creation": {
						"codeDepositCost": "1550200",
						"executionCost": "25887",
						"totalCost": "1576087"
					},
					"external": {
						"": "infinite",
						"changeOwner(address)": "29191",
						"emergencyWithdraw()": "infinite",
						"getContractBalanceInWei()": "401",
						"getOwnerBalanceWei()": "5161",
						"getTransactionHistory()": "infinite",
						"owner()": "2531",
						"receiveFromUser()": "infinite",
						"stop()": "2541",
						"suspiciousActivity(address)": "infinite",
						"suspiciousUser(address)": "2847",
						"toggleStop()": "32243",
						"transactionHistory(uint256)": "infinite",
						"transferToContract(uint256)": "119897",
						"transferToUserViaContract(address,uint256)": "infinite",
						"transferToUserViaMsgValue(address)": "infinite",
						"withdrawFromContract(uint256)": "infinite"
					}
				},
				"methodIdentifiers": {
					"changeOwner(address)": "a6f9dae1",
					"emergencyWithdraw()": "db2e21bc",
					"getContractBalanceInWei()": "bfa698de",
					"getOwnerBalanceWei()": "e7c54d0c",
					"getTransactionHistory()": "b76d4fc3",
					"owner()": "8da5cb5b",
					"receiveFromUser()": "d2b53948",
					"stop()": "07da68f5",
					"suspiciousActivity(address)": "cf87f052",
					"suspiciousUser(address)": "b9709431",
					"toggleStop()": "9a70eef1",
					"transactionHistory(uint256)": "243e7a87",
					"transferToContract(uint256)": "d555d473",
					"transferToUserViaContract(address,uint256)": "47cdcc1f",
					"transferToUserViaMsgValue(address)": "6f3f42ac",
					"withdrawFromContract(uint256)": "aeae547d"
				}
			},
			"storageLayout": {
				"storage": [
					{
						"astId": 14,
						"contract": "contracts/Wallet/wallet.sol:SimpleWallet",
						"label": "transactionHistory",
						"offset": 0,
						"slot": "0",
						"type": "t_array(t_struct(Transaction)10_storage)dyn_storage"
					},
					{
						"astId": 16,
						"contract": "contracts/Wallet/wallet.sol:SimpleWallet",
						"label": "owner",
						"offset": 0,
						"slot": "1",
						"type": "t_address"
					},
					{
						"astId": 18,
						"contract": "contracts/Wallet/wallet.sol:SimpleWallet",
						"label": "stop",
						"offset": 20,
						"slot": "1",
						"type": "t_bool"
					},
					{
						"astId": 67,
						"contract": "contracts/Wallet/wallet.sol:SimpleWallet",
						"label": "suspiciousUser",
						"offset": 0,
						"slot": "2",
						"type": "t_mapping(t_address,t_uint256)"
					}
				],
				"types": {
					"t_address": {
						"encoding": "inplace",
						"label": "address",
						"numberOfBytes": "20"
					},
					"t_array(t_struct(Transaction)10_storage)dyn_storage": {
						"base": "t_struct(Transaction)10_storage",
						"encoding": "dynamic_array",
						"label": "struct SimpleWallet.Transaction[]",
						"numberOfBytes": "32"
					},
					"t_bool": {
						"encoding": "inplace",
						"label": "bool",
						"numberOfBytes": "1"
					},
					"t_mapping(t_address,t_uint256)": {
						"encoding": "mapping",
						"key": "t_address",
						"label": "mapping(address => uint256)",
						"numberOfBytes": "32",
						"value": "t_uint256"
					},
					"t_struct(Transaction)10_storage": {
						"encoding": "inplace",
						"label": "struct SimpleWallet.Transaction",
						"members": [
							{
								"astId": 3,
								"contract": "contracts/Wallet/wallet.sol:SimpleWallet",
								"label": "from",
								"offset": 0,
								"slot": "0",
								"type": "t_address"
							},
							{
								"astId": 5,
								"contract": "contracts/Wallet/wallet.sol:SimpleWallet",
								"label": "to",
								"offset": 0,
								"slot": "1",
								"type": "t_address"
							},
							{
								"astId": 7,
								"contract": "contracts/Wallet/wallet.sol:SimpleWallet",
								"label": "timestamp",
								"offset": 0,
								"slot": "2",
								"type": "t_uint256"
							},
							{
								"astId": 9,
								"contract": "contracts/Wallet/wallet.sol:SimpleWallet",
								"label": "amount",
								"offset": 0,
								"slot": "3",
								"type": "t_uint256"
							}
						],
						"numberOfBytes": "128"
					},
					"t_uint256": {
						"encoding": "inplace",
						"label": "uint256",
						"numberOfBytes": "32"
					}
				}
			},
			"userdoc": {
				"kind": "user",
				"methods": {},
				"version": 1
			}
		}
	}
}