{
	"data": {
		"bytecode": {
			"linkReferences": {},
			"object": "6080604052348015600e575f5ffd5b506101a48061001c5f395ff3fe608060405234801561000f575f5ffd5b5060043610610034575f3560e01c80634948863c14610038578063f02782dc14610054575b5f5ffd5b610052600480360381019061004d91906100da565b610074565b005b61005c61008d565b60405161006b93929190610139565b60405180910390f35b825f819055508160018190555080600281905550505050565b5f5f5f5f54600154600254925092509250909192565b5f5ffd5b5f819050919050565b6100b9816100a7565b81146100c3575f5ffd5b50565b5f813590506100d4816100b0565b92915050565b5f5f5f606084860312156100f1576100f06100a3565b5b5f6100fe868287016100c6565b935050602061010f868287016100c6565b9250506040610120868287016100c6565b9150509250925092565b610133816100a7565b82525050565b5f60608201905061014c5f83018661012a565b610159602083018561012a565b610166604083018461012a565b94935050505056fea26469706673582212201a8b6f6c52bfe230c48d13cc35a2d7bbbccf20c01ca01cef97551c97e912802c64736f6c634300081e0033",
			"opcodes": "PUSH1 0x80 PUSH1 0x40 MSTORE CALLVALUE DUP1 ISZERO PUSH1 0xE JUMPI PUSH0 PUSH0 REVERT JUMPDEST POP PUSH2 0x1A4 DUP1 PUSH2 0x1C PUSH0 CODECOPY PUSH0 RETURN INVALID PUSH1 0x80 PUSH1 0x40 MSTORE CALLVALUE DUP1 ISZERO PUSH2 0xF JUMPI PUSH0 PUSH0 REVERT JUMPDEST POP PUSH1 0x4 CALLDATASIZE LT PUSH2 0x34 JUMPI PUSH0 CALLDATALOAD PUSH1 0xE0 SHR DUP1 PUSH4 0x4948863C EQ PUSH2 0x38 JUMPI DUP1 PUSH4 0xF02782DC EQ PUSH2 0x54 JUMPI JUMPDEST PUSH0 PUSH0 REVERT JUMPDEST PUSH2 0x52 PUSH1 0x4 DUP1 CALLDATASIZE SUB DUP2 ADD SWAP1 PUSH2 0x4D SWAP2 SWAP1 PUSH2 0xDA JUMP JUMPDEST PUSH2 0x74 JUMP JUMPDEST STOP JUMPDEST PUSH2 0x5C PUSH2 0x8D JUMP JUMPDEST PUSH1 0x40 MLOAD PUSH2 0x6B SWAP4 SWAP3 SWAP2 SWAP1 PUSH2 0x139 JUMP JUMPDEST PUSH1 0x40 MLOAD DUP1 SWAP2 SUB SWAP1 RETURN JUMPDEST DUP3 PUSH0 DUP2 SWAP1 SSTORE POP DUP2 PUSH1 0x1 DUP2 SWAP1 SSTORE POP DUP1 PUSH1 0x2 DUP2 SWAP1 SSTORE POP POP POP POP JUMP JUMPDEST PUSH0 PUSH0 PUSH0 PUSH0 SLOAD PUSH1 0x1 SLOAD PUSH1 0x2 SLOAD SWAP3 POP SWAP3 POP SWAP3 POP SWAP1 SWAP2 SWAP3 JUMP JUMPDEST PUSH0 PUSH0 REVERT JUMPDEST PUSH0 DUP2 SWAP1 POP SWAP2 SWAP1 POP JUMP JUMPDEST PUSH2 0xB9 DUP2 PUSH2 0xA7 JUMP JUMPDEST DUP2 EQ PUSH2 0xC3 JUMPI PUSH0 PUSH0 REVERT JUMPDEST POP JUMP JUMPDEST PUSH0 DUP2 CALLDATALOAD SWAP1 POP PUSH2 0xD4 DUP2 PUSH2 0xB0 JUMP JUMPDEST SWAP3 SWAP2 POP POP JUMP JUMPDEST PUSH0 PUSH0 PUSH0 PUSH1 0x60 DUP5 DUP7 SUB SLT ISZERO PUSH2 0xF1 JUMPI PUSH2 0xF0 PUSH2 0xA3 JUMP JUMPDEST JUMPDEST PUSH0 PUSH2 0xFE DUP7 DUP3 DUP8 ADD PUSH2 0xC6 JUMP JUMPDEST SWAP4 POP POP PUSH1 0x20 PUSH2 0x10F DUP7 DUP3 DUP8 ADD PUSH2 0xC6 JUMP JUMPDEST SWAP3 POP POP PUSH1 0x40 PUSH2 0x120 DUP7 DUP3 DUP8 ADD PUSH2 0xC6 JUMP JUMPDEST SWAP2 POP POP SWAP3 POP SWAP3 POP SWAP3 JUMP JUMPDEST PUSH2 0x133 DUP2 PUSH2 0xA7 JUMP JUMPDEST DUP3 MSTORE POP POP JUMP JUMPDEST PUSH0 PUSH1 0x60 DUP3 ADD SWAP1 POP PUSH2 0x14C PUSH0 DUP4 ADD DUP7 PUSH2 0x12A JUMP JUMPDEST PUSH2 0x159 PUSH1 0x20 DUP4 ADD DUP6 PUSH2 0x12A JUMP JUMPDEST PUSH2 0x166 PUSH1 0x40 DUP4 ADD DUP5 PUSH2 0x12A JUMP JUMPDEST SWAP5 SWAP4 POP POP POP POP JUMP INVALID LOG2 PUSH5 0x6970667358 0x22 SLT KECCAK256 BYTE DUP12 PUSH16 0x6C52BFE230C48D13CC35A2D7BBBCCF20 0xC0 SHR LOG0 SHR 0xEF SWAP8 SSTORE SHR SWAP8 0xE9 SLT DUP1 0x2C PUSH5 0x736F6C6343 STOP ADDMOD 0x1E STOP CALLER "
		},
		"gasEstimates": {
			"creation": {
				"codeDepositCost": "84000",
				"executionCost": "133",
				"totalCost": "84133"
			},
			"external": {
				"getDimension()": "infinite",
				"setDimension(uint256,uint256,uint256)": "infinite"
			}
		},
		"methodIdentifiers": {
			"getDimension()": "f02782dc",
			"setDimension(uint256,uint256,uint256)": "4948863c"
		}
	},
	"abi": [
		{
			"inputs": [],
			"name": "getDimension",
			"outputs": [
				{
					"internalType": "uint256",
					"name": "",
					"type": "uint256"
				},
				{
					"internalType": "uint256",
					"name": "",
					"type": "uint256"
				},
				{
					"internalType": "uint256",
					"name": "",
					"type": "uint256"
				}
			],
			"stateMutability": "view",
			"type": "function"
		},
		{
			"inputs": [
				{
					"internalType": "uint256",
					"name": "_length",
					"type": "uint256"
				},
				{
					"internalType": "uint256",
					"name": "_breadth",
					"type": "uint256"
				},
				{
					"internalType": "uint256",
					"name": "_height",
					"type": "uint256"
				}
			],
			"name": "setDimension",
			"outputs": [],
			"stateMutability": "nonpayable",
			"type": "function"
		}
	]
}