{
	"data": {
		"bytecode": {
			"linkReferences": {},
			"object": "6080604052348015600e575f5ffd5b50610a808061001c5f395ff3fe608060405234801561000f575f5ffd5b5060043610610034575f3560e01c8063081148a814610038578063447a06f514610068575b5f5ffd5b610052600480360381019061004d9190610425565b61009b565b60405161005f9190610521565b60405180910390f35b610082600480360381019061007d91906105df565b6100cd565b60405161009294939291906107bd565b60405180910390f35b6060848484846040516020016100b494939291906107bd565b6040516020818303038152906040529050949350505050565b5f60606100d8610111565b60605f5f5f5f888060200190518101906100f291906109ae565b9350935093509350838383839750975097509750505050509193509193565b6040518060400160405280600290602082028036833780820191505090505090565b5f604051905090565b5f5ffd5b5f5ffd5b5f819050919050565b61015681610144565b8114610160575f5ffd5b50565b5f813590506101718161014d565b92915050565b5f5ffd5b5f5ffd5b5f601f19601f8301169050919050565b7f4e487b71000000000000000000000000000000000000000000000000000000005f52604160045260245ffd5b6101c58261017f565b810181811067ffffffffffffffff821117156101e4576101e361018f565b5b80604052505050565b5f6101f6610133565b905061020282826101bc565b919050565b5f67ffffffffffffffff8211156102215761022061018f565b5b61022a8261017f565b9050602081019050919050565b828183375f83830152505050565b5f61025761025284610207565b6101ed565b9050828152602081018484840111156102735761027261017b565b5b61027e848285610237565b509392505050565b5f82601f83011261029a57610299610177565b5b81356102aa848260208601610245565b91505092915050565b5f67ffffffffffffffff8211156102cd576102cc61018f565b5b602082029050919050565b5f5ffd5b5f6102ee6102e9846102b3565b6101ed565b90508060208402830185811115610308576103076102d8565b5b835b81811015610331578061031d8882610163565b84526020840193505060208101905061030a565b5050509392505050565b5f82601f83011261034f5761034e610177565b5b600261035c8482856102dc565b91505092915050565b5f67ffffffffffffffff82111561037f5761037e61018f565b5b602082029050602081019050919050565b5f6103a261039d84610365565b6101ed565b905080838252602082019050602084028301858111156103c5576103c46102d8565b5b835b818110156103ee57806103da8882610163565b8452602084019350506020810190506103c7565b5050509392505050565b5f82601f83011261040c5761040b610177565b5b813561041c848260208601610390565b91505092915050565b5f5f5f5f60a0858703121561043d5761043c61013c565b5b5f61044a87828801610163565b945050602085013567ffffffffffffffff81111561046b5761046a610140565b5b61047787828801610286565b93505060406104888782880161033b565b925050608085013567ffffffffffffffff8111156104a9576104a8610140565b5b6104b5878288016103f8565b91505092959194509250565b5f81519050919050565b5f82825260208201905092915050565b8281835e5f83830152505050565b5f6104f3826104c1565b6104fd81856104cb565b935061050d8185602086016104db565b6105168161017f565b840191505092915050565b5f6020820190508181035f83015261053981846104e9565b905092915050565b5f67ffffffffffffffff82111561055b5761055a61018f565b5b6105648261017f565b9050602081019050919050565b5f61058361057e84610541565b6101ed565b90508281526020810184848401111561059f5761059e61017b565b5b6105aa848285610237565b509392505050565b5f82601f8301126105c6576105c5610177565b5b81356105d6848260208601610571565b91505092915050565b5f602082840312156105f4576105f361013c565b5b5f82013567ffffffffffffffff81111561061157610610610140565b5b61061d848285016105b2565b91505092915050565b61062f81610144565b82525050565b5f81519050919050565b5f82825260208201905092915050565b5f61065982610635565b610663818561063f565b93506106738185602086016104db565b61067c8161017f565b840191505092915050565b5f60029050919050565b5f81905092915050565b5f819050919050565b6106ad81610144565b82525050565b5f6106be83836106a4565b60208301905092915050565b5f602082019050919050565b6106df81610687565b6106e98184610691565b92506106f48261069b565b805f5b8381101561072457815161070b87826106b3565b9650610716836106ca565b9250506001810190506106f7565b505050505050565b5f81519050919050565b5f82825260208201905092915050565b5f819050602082019050919050565b5f602082019050919050565b5f61076b8261072c565b6107758185610736565b935061078083610746565b805f5b838110156107b057815161079788826106b3565b97506107a283610755565b925050600181019050610783565b5085935050505092915050565b5f60a0820190506107d05f830187610626565b81810360208301526107e2818661064f565b90506107f160408301856106d6565b81810360808301526108038184610761565b905095945050505050565b5f8151905061081c8161014d565b92915050565b5f61083461082f84610207565b6101ed565b9050828152602081018484840111156108505761084f61017b565b5b61085b8482856104db565b509392505050565b5f82601f83011261087757610876610177565b5b8151610887848260208601610822565b91505092915050565b5f6108a261089d846102b3565b6101ed565b905080602084028301858111156108bc576108bb6102d8565b5b835b818110156108e557806108d1888261080e565b8452602084019350506020810190506108be565b5050509392505050565b5f82601f83011261090357610902610177565b5b6002610910848285610890565b91505092915050565b5f61092b61092684610365565b6101ed565b9050808382526020820190506020840283018581111561094e5761094d6102d8565b5b835b818110156109775780610963888261080e565b845260208401935050602081019050610950565b5050509392505050565b5f82601f83011261099557610994610177565b5b81516109a5848260208601610919565b91505092915050565b5f5f5f5f60a085870312156109c6576109c561013c565b5b5f6109d38782880161080e565b945050602085015167ffffffffffffffff8111156109f4576109f3610140565b5b610a0087828801610863565b9350506040610a11878288016108ef565b925050608085015167ffffffffffffffff811115610a3257610a31610140565b5b610a3e87828801610981565b9150509295919450925056fea2646970667358221220e90ea39be757f02095982c38d43ccea3aa9d9a86c42d0cccb5e83ec5afb1e3d364736f6c634300081e0033",
			"opcodes": "PUSH1 0x80 PUSH1 0x40 MSTORE CALLVALUE DUP1 ISZERO PUSH1 0xE JUMPI PUSH0 PUSH0 REVERT JUMPDEST POP PUSH2 0xA80 DUP1 PUSH2 0x1C PUSH0 CODECOPY PUSH0 RETURN INVALID PUSH1 0x80 PUSH1 0x40 MSTORE CALLVALUE DUP1 ISZERO PUSH2 0xF JUMPI PUSH0 PUSH0 REVERT JUMPDEST POP PUSH1 0x4 CALLDATASIZE LT PUSH2 0x34 JUMPI PUSH0 CALLDATALOAD PUSH1 0xE0 SHR DUP1 PUSH4 0x81148A8 EQ PUSH2 0x38 JUMPI DUP1 PUSH4 0x447A06F5 EQ PUSH2 0x68 JUMPI JUMPDEST PUSH0 PUSH0 REVERT JUMPDEST PUSH2 0x52 PUSH1 0x4 DUP1 CALLDATASIZE SUB DUP2 ADD SWAP1 PUSH2 0x4D SWAP2 SWAP1 PUSH2 0x425 JUMP JUMPDEST PUSH2 0x9B JUMP JUMPDEST PUSH1 0x40 MLOAD PUSH2 0x5F SWAP2 SWAP1 PUSH2 0x521 JUMP JUMPDEST PUSH1 0x40 MLOAD DUP1 SWAP2 SUB SWAP1 RETURN JUMPDEST PUSH2 0x82 PUSH1 0x4 DUP1 CALLDATASIZE SUB DUP2 ADD SWAP1 PUSH2 0x7D SWAP2 SWAP1 PUSH2 0x5DF JUMP JUMPDEST PUSH2 0xCD JUMP JUMPDEST PUSH1 0x40 MLOAD PUSH2 0x92 SWAP5 SWAP4 SWAP3 SWAP2 SWAP1 PUSH2 0x7BD JUMP JUMPDEST PUSH1 0x40 MLOAD DUP1 SWAP2 SUB SWAP1 RETURN JUMPDEST PUSH1 0x60 DUP5 DUP5 DUP5 DUP5 PUSH1 0x40 MLOAD PUSH1 0x20 ADD PUSH2 0xB4 SWAP5 SWAP4 SWAP3 SWAP2 SWAP1 PUSH2 0x7BD JUMP JUMPDEST PUSH1 0x40 MLOAD PUSH1 0x20 DUP2 DUP4 SUB SUB DUP2 MSTORE SWAP1 PUSH1 0x40 MSTORE SWAP1 POP SWAP5 SWAP4 POP POP POP POP JUMP JUMPDEST PUSH0 PUSH1 0x60 PUSH2 0xD8 PUSH2 0x111 JUMP JUMPDEST PUSH1 0x60 PUSH0 PUSH0 PUSH0 PUSH0 DUP9 DUP1 PUSH1 0x20 ADD SWAP1 MLOAD DUP2 ADD SWAP1 PUSH2 0xF2 SWAP2 SWAP1 PUSH2 0x9AE JUMP JUMPDEST SWAP4 POP SWAP4 POP SWAP4 POP SWAP4 POP DUP4 DUP4 DUP4 DUP4 SWAP8 POP SWAP8 POP SWAP8 POP SWAP8 POP POP POP POP POP SWAP2 SWAP4 POP SWAP2 SWAP4 JUMP JUMPDEST PUSH1 0x40 MLOAD DUP1 PUSH1 0x40 ADD PUSH1 0x40 MSTORE DUP1 PUSH1 0x2 SWAP1 PUSH1 0x20 DUP3 MUL DUP1 CALLDATASIZE DUP4 CALLDATACOPY DUP1 DUP3 ADD SWAP2 POP POP SWAP1 POP POP SWAP1 JUMP JUMPDEST PUSH0 PUSH1 0x40 MLOAD SWAP1 POP SWAP1 JUMP JUMPDEST PUSH0 PUSH0 REVERT JUMPDEST PUSH0 PUSH0 REVERT JUMPDEST PUSH0 DUP2 SWAP1 POP SWAP2 SWAP1 POP JUMP JUMPDEST PUSH2 0x156 DUP2 PUSH2 0x144 JUMP JUMPDEST DUP2 EQ PUSH2 0x160 JUMPI PUSH0 PUSH0 REVERT JUMPDEST POP JUMP JUMPDEST PUSH0 DUP2 CALLDATALOAD SWAP1 POP PUSH2 0x171 DUP2 PUSH2 0x14D JUMP JUMPDEST SWAP3 SWAP2 POP POP JUMP JUMPDEST PUSH0 PUSH0 REVERT JUMPDEST PUSH0 PUSH0 REVERT JUMPDEST PUSH0 PUSH1 0x1F NOT PUSH1 0x1F DUP4 ADD AND SWAP1 POP SWAP2 SWAP1 POP JUMP JUMPDEST PUSH32 0x4E487B7100000000000000000000000000000000000000000000000000000000 PUSH0 MSTORE PUSH1 0x41 PUSH1 0x4 MSTORE PUSH1 0x24 PUSH0 REVERT JUMPDEST PUSH2 0x1C5 DUP3 PUSH2 0x17F JUMP JUMPDEST DUP2 ADD DUP2 DUP2 LT PUSH8 0xFFFFFFFFFFFFFFFF DUP3 GT OR ISZERO PUSH2 0x1E4 JUMPI PUSH2 0x1E3 PUSH2 0x18F JUMP JUMPDEST JUMPDEST DUP1 PUSH1 0x40 MSTORE POP POP POP JUMP JUMPDEST PUSH0 PUSH2 0x1F6 PUSH2 0x133 JUMP JUMPDEST SWAP1 POP PUSH2 0x202 DUP3 DUP3 PUSH2 0x1BC JUMP JUMPDEST SWAP2 SWAP1 POP JUMP JUMPDEST PUSH0 PUSH8 0xFFFFFFFFFFFFFFFF DUP3 GT ISZERO PUSH2 0x221 JUMPI PUSH2 0x220 PUSH2 0x18F JUMP JUMPDEST JUMPDEST PUSH2 0x22A DUP3 PUSH2 0x17F JUMP JUMPDEST SWAP1 POP PUSH1 0x20 DUP2 ADD SWAP1 POP SWAP2 SWAP1 POP JUMP JUMPDEST DUP3 DUP2 DUP4 CALLDATACOPY PUSH0 DUP4 DUP4 ADD MSTORE POP POP POP JUMP JUMPDEST PUSH0 PUSH2 0x257 PUSH2 0x252 DUP5 PUSH2 0x207 JUMP JUMPDEST PUSH2 0x1ED JUMP JUMPDEST SWAP1 POP DUP3 DUP2 MSTORE PUSH1 0x20 DUP2 ADD DUP5 DUP5 DUP5 ADD GT ISZERO PUSH2 0x273 JUMPI PUSH2 0x272 PUSH2 0x17B JUMP JUMPDEST JUMPDEST PUSH2 0x27E DUP5 DUP3 DUP6 PUSH2 0x237 JUMP JUMPDEST POP SWAP4 SWAP3 POP POP POP JUMP JUMPDEST PUSH0 DUP3 PUSH1 0x1F DUP4 ADD SLT PUSH2 0x29A JUMPI PUSH2 0x299 PUSH2 0x177 JUMP JUMPDEST JUMPDEST DUP2 CALLDATALOAD PUSH2 0x2AA DUP5 DUP3 PUSH1 0x20 DUP7 ADD PUSH2 0x245 JUMP JUMPDEST SWAP2 POP POP SWAP3 SWAP2 POP POP JUMP JUMPDEST PUSH0 PUSH8 0xFFFFFFFFFFFFFFFF DUP3 GT ISZERO PUSH2 0x2CD JUMPI PUSH2 0x2CC PUSH2 0x18F JUMP JUMPDEST JUMPDEST PUSH1 0x20 DUP3 MUL SWAP1 POP SWAP2 SWAP1 POP JUMP JUMPDEST PUSH0 PUSH0 REVERT JUMPDEST PUSH0 PUSH2 0x2EE PUSH2 0x2E9 DUP5 PUSH2 0x2B3 JUMP JUMPDEST PUSH2 0x1ED JUMP JUMPDEST SWAP1 POP DUP1 PUSH1 0x20 DUP5 MUL DUP4 ADD DUP6 DUP2 GT ISZERO PUSH2 0x308 JUMPI PUSH2 0x307 PUSH2 0x2D8 JUMP JUMPDEST JUMPDEST DUP4 JUMPDEST DUP2 DUP2 LT ISZERO PUSH2 0x331 JUMPI DUP1 PUSH2 0x31D DUP9 DUP3 PUSH2 0x163 JUMP JUMPDEST DUP5 MSTORE PUSH1 0x20 DUP5 ADD SWAP4 POP POP PUSH1 0x20 DUP2 ADD SWAP1 POP PUSH2 0x30A JUMP JUMPDEST POP POP POP SWAP4 SWAP3 POP POP POP JUMP JUMPDEST PUSH0 DUP3 PUSH1 0x1F DUP4 ADD SLT PUSH2 0x34F JUMPI PUSH2 0x34E PUSH2 0x177 JUMP JUMPDEST JUMPDEST PUSH1 0x2 PUSH2 0x35C DUP5 DUP3 DUP6 PUSH2 0x2DC JUMP JUMPDEST SWAP2 POP POP SWAP3 SWAP2 POP POP JUMP JUMPDEST PUSH0 PUSH8 0xFFFFFFFFFFFFFFFF DUP3 GT ISZERO PUSH2 0x37F JUMPI PUSH2 0x37E PUSH2 0x18F JUMP JUMPDEST JUMPDEST PUSH1 0x20 DUP3 MUL SWAP1 POP PUSH1 0x20 DUP2 ADD SWAP1 POP SWAP2 SWAP1 POP JUMP JUMPDEST PUSH0 PUSH2 0x3A2 PUSH2 0x39D DUP5 PUSH2 0x365 JUMP JUMPDEST PUSH2 0x1ED JUMP JUMPDEST SWAP1 POP DUP1 DUP4 DUP3 MSTORE PUSH1 0x20 DUP3 ADD SWAP1 POP PUSH1 0x20 DUP5 MUL DUP4 ADD DUP6 DUP2 GT ISZERO PUSH2 0x3C5 JUMPI PUSH2 0x3C4 PUSH2 0x2D8 JUMP JUMPDEST JUMPDEST DUP4 JUMPDEST DUP2 DUP2 LT ISZERO PUSH2 0x3EE JUMPI DUP1 PUSH2 0x3DA DUP9 DUP3 PUSH2 0x163 JUMP JUMPDEST DUP5 MSTORE PUSH1 0x20 DUP5 ADD SWAP4 POP POP PUSH1 0x20 DUP2 ADD SWAP1 POP PUSH2 0x3C7 JUMP JUMPDEST POP POP POP SWAP4 SWAP3 POP POP POP JUMP JUMPDEST PUSH0 DUP3 PUSH1 0x1F DUP4 ADD SLT PUSH2 0x40C JUMPI PUSH2 0x40B PUSH2 0x177 JUMP JUMPDEST JUMPDEST DUP2 CALLDATALOAD PUSH2 0x41C DUP5 DUP3 PUSH1 0x20 DUP7 ADD PUSH2 0x390 JUMP JUMPDEST SWAP2 POP POP SWAP3 SWAP2 POP POP JUMP JUMPDEST PUSH0 PUSH0 PUSH0 PUSH0 PUSH1 0xA0 DUP6 DUP8 SUB SLT ISZERO PUSH2 0x43D JUMPI PUSH2 0x43C PUSH2 0x13C JUMP JUMPDEST JUMPDEST PUSH0 PUSH2 0x44A DUP8 DUP3 DUP9 ADD PUSH2 0x163 JUMP JUMPDEST SWAP5 POP POP PUSH1 0x20 DUP6 ADD CALLDATALOAD PUSH8 0xFFFFFFFFFFFFFFFF DUP2 GT ISZERO PUSH2 0x46B JUMPI PUSH2 0x46A PUSH2 0x140 JUMP JUMPDEST JUMPDEST PUSH2 0x477 DUP8 DUP3 DUP9 ADD PUSH2 0x286 JUMP JUMPDEST SWAP4 POP POP PUSH1 0x40 PUSH2 0x488 DUP8 DUP3 DUP9 ADD PUSH2 0x33B JUMP JUMPDEST SWAP3 POP POP PUSH1 0x80 DUP6 ADD CALLDATALOAD PUSH8 0xFFFFFFFFFFFFFFFF DUP2 GT ISZERO PUSH2 0x4A9 JUMPI PUSH2 0x4A8 PUSH2 0x140 JUMP JUMPDEST JUMPDEST PUSH2 0x4B5 DUP8 DUP3 DUP9 ADD PUSH2 0x3F8 JUMP JUMPDEST SWAP2 POP POP SWAP3 SWAP6 SWAP2 SWAP5 POP SWAP3 POP JUMP JUMPDEST PUSH0 DUP2 MLOAD SWAP1 POP SWAP2 SWAP1 POP JUMP JUMPDEST PUSH0 DUP3 DUP3 MSTORE PUSH1 0x20 DUP3 ADD SWAP1 POP SWAP3 SWAP2 POP POP JUMP JUMPDEST DUP3 DUP2 DUP4 MCOPY PUSH0 DUP4 DUP4 ADD MSTORE POP POP POP JUMP JUMPDEST PUSH0 PUSH2 0x4F3 DUP3 PUSH2 0x4C1 JUMP JUMPDEST PUSH2 0x4FD DUP2 DUP6 PUSH2 0x4CB JUMP JUMPDEST SWAP4 POP PUSH2 0x50D DUP2 DUP6 PUSH1 0x20 DUP7 ADD PUSH2 0x4DB JUMP JUMPDEST PUSH2 0x516 DUP2 PUSH2 0x17F JUMP JUMPDEST DUP5 ADD SWAP2 POP POP SWAP3 SWAP2 POP POP JUMP JUMPDEST PUSH0 PUSH1 0x20 DUP3 ADD SWAP1 POP DUP2 DUP2 SUB PUSH0 DUP4 ADD MSTORE PUSH2 0x539 DUP2 DUP5 PUSH2 0x4E9 JUMP JUMPDEST SWAP1 POP SWAP3 SWAP2 POP POP JUMP JUMPDEST PUSH0 PUSH8 0xFFFFFFFFFFFFFFFF DUP3 GT ISZERO PUSH2 0x55B JUMPI PUSH2 0x55A PUSH2 0x18F JUMP JUMPDEST JUMPDEST PUSH2 0x564 DUP3 PUSH2 0x17F JUMP JUMPDEST SWAP1 POP PUSH1 0x20 DUP2 ADD SWAP1 POP SWAP2 SWAP1 POP JUMP JUMPDEST PUSH0 PUSH2 0x583 PUSH2 0x57E DUP5 PUSH2 0x541 JUMP JUMPDEST PUSH2 0x1ED JUMP JUMPDEST SWAP1 POP DUP3 DUP2 MSTORE PUSH1 0x20 DUP2 ADD DUP5 DUP5 DUP5 ADD GT ISZERO PUSH2 0x59F JUMPI PUSH2 0x59E PUSH2 0x17B JUMP JUMPDEST JUMPDEST PUSH2 0x5AA DUP5 DUP3 DUP6 PUSH2 0x237 JUMP JUMPDEST POP SWAP4 SWAP3 POP POP POP JUMP JUMPDEST PUSH0 DUP3 PUSH1 0x1F DUP4 ADD SLT PUSH2 0x5C6 JUMPI PUSH2 0x5C5 PUSH2 0x177 JUMP JUMPDEST JUMPDEST DUP2 CALLDATALOAD PUSH2 0x5D6 DUP5 DUP3 PUSH1 0x20 DUP7 ADD PUSH2 0x571 JUMP JUMPDEST SWAP2 POP POP SWAP3 SWAP2 POP POP JUMP JUMPDEST PUSH0 PUSH1 0x20 DUP3 DUP5 SUB SLT ISZERO PUSH2 0x5F4 JUMPI PUSH2 0x5F3 PUSH2 0x13C JUMP JUMPDEST JUMPDEST PUSH0 DUP3 ADD CALLDATALOAD PUSH8 0xFFFFFFFFFFFFFFFF DUP2 GT ISZERO PUSH2 0x611 JUMPI PUSH2 0x610 PUSH2 0x140 JUMP JUMPDEST JUMPDEST PUSH2 0x61D DUP5 DUP3 DUP6 ADD PUSH2 0x5B2 JUMP JUMPDEST SWAP2 POP POP SWAP3 SWAP2 POP POP JUMP JUMPDEST PUSH2 0x62F DUP2 PUSH2 0x144 JUMP JUMPDEST DUP3 MSTORE POP POP JUMP JUMPDEST PUSH0 DUP2 MLOAD SWAP1 POP SWAP2 SWAP1 POP JUMP JUMPDEST PUSH0 DUP3 DUP3 MSTORE PUSH1 0x20 DUP3 ADD SWAP1 POP SWAP3 SWAP2 POP POP JUMP JUMPDEST PUSH0 PUSH2 0x659 DUP3 PUSH2 0x635 JUMP JUMPDEST PUSH2 0x663 DUP2 DUP6 PUSH2 0x63F JUMP JUMPDEST SWAP4 POP PUSH2 0x673 DUP2 DUP6 PUSH1 0x20 DUP7 ADD PUSH2 0x4DB JUMP JUMPDEST PUSH2 0x67C DUP2 PUSH2 0x17F JUMP JUMPDEST DUP5 ADD SWAP2 POP POP SWAP3 SWAP2 POP POP JUMP JUMPDEST PUSH0 PUSH1 0x2 SWAP1 POP SWAP2 SWAP1 POP JUMP JUMPDEST PUSH0 DUP2 SWAP1 POP SWAP3 SWAP2 POP POP JUMP JUMPDEST PUSH0 DUP2 SWAP1 POP SWAP2 SWAP1 POP JUMP JUMPDEST PUSH2 0x6AD DUP2 PUSH2 0x144 JUMP JUMPDEST DUP3 MSTORE POP POP JUMP JUMPDEST PUSH0 PUSH2 0x6BE DUP4 DUP4 PUSH2 0x6A4 JUMP JUMPDEST PUSH1 0x20 DUP4 ADD SWAP1 POP SWAP3 SWAP2 POP POP JUMP JUMPDEST PUSH0 PUSH1 0x20 DUP3 ADD SWAP1 POP SWAP2 SWAP1 POP JUMP JUMPDEST PUSH2 0x6DF DUP2 PUSH2 0x687 JUMP JUMPDEST PUSH2 0x6E9 DUP2 DUP5 PUSH2 0x691 JUMP JUMPDEST SWAP3 POP PUSH2 0x6F4 DUP3 PUSH2 0x69B JUMP JUMPDEST DUP1 PUSH0 JUMPDEST DUP4 DUP2 LT ISZERO PUSH2 0x724 JUMPI DUP2 MLOAD PUSH2 0x70B DUP8 DUP3 PUSH2 0x6B3 JUMP JUMPDEST SWAP7 POP PUSH2 0x716 DUP4 PUSH2 0x6CA JUMP JUMPDEST SWAP3 POP POP PUSH1 0x1 DUP2 ADD SWAP1 POP PUSH2 0x6F7 JUMP JUMPDEST POP POP POP POP POP POP JUMP JUMPDEST PUSH0 DUP2 MLOAD SWAP1 POP SWAP2 SWAP1 POP JUMP JUMPDEST PUSH0 DUP3 DUP3 MSTORE PUSH1 0x20 DUP3 ADD SWAP1 POP SWAP3 SWAP2 POP POP JUMP JUMPDEST PUSH0 DUP2 SWAP1 POP PUSH1 0x20 DUP3 ADD SWAP1 POP SWAP2 SWAP1 POP JUMP JUMPDEST PUSH0 PUSH1 0x20 DUP3 ADD SWAP1 POP SWAP2 SWAP1 POP JUMP JUMPDEST PUSH0 PUSH2 0x76B DUP3 PUSH2 0x72C JUMP JUMPDEST PUSH2 0x775 DUP2 DUP6 PUSH2 0x736 JUMP JUMPDEST SWAP4 POP PUSH2 0x780 DUP4 PUSH2 0x746 JUMP JUMPDEST DUP1 PUSH0 JUMPDEST DUP4 DUP2 LT ISZERO PUSH2 0x7B0 JUMPI DUP2 MLOAD PUSH2 0x797 DUP9 DUP3 PUSH2 0x6B3 JUMP JUMPDEST SWAP8 POP PUSH2 0x7A2 DUP4 PUSH2 0x755 JUMP JUMPDEST SWAP3 POP POP PUSH1 0x1 DUP2 ADD SWAP1 POP PUSH2 0x783 JUMP JUMPDEST POP DUP6 SWAP4 POP POP POP POP SWAP3 SWAP2 POP POP JUMP JUMPDEST PUSH0 PUSH1 0xA0 DUP3 ADD SWAP1 POP PUSH2 0x7D0 PUSH0 DUP4 ADD DUP8 PUSH2 0x626 JUMP JUMPDEST DUP2 DUP2 SUB PUSH1 0x20 DUP4 ADD MSTORE PUSH2 0x7E2 DUP2 DUP7 PUSH2 0x64F JUMP JUMPDEST SWAP1 POP PUSH2 0x7F1 PUSH1 0x40 DUP4 ADD DUP6 PUSH2 0x6D6 JUMP JUMPDEST DUP2 DUP2 SUB PUSH1 0x80 DUP4 ADD MSTORE PUSH2 0x803 DUP2 DUP5 PUSH2 0x761 JUMP JUMPDEST SWAP1 POP SWAP6 SWAP5 POP POP POP POP POP JUMP JUMPDEST PUSH0 DUP2 MLOAD SWAP1 POP PUSH2 0x81C DUP2 PUSH2 0x14D JUMP JUMPDEST SWAP3 SWAP2 POP POP JUMP JUMPDEST PUSH0 PUSH2 0x834 PUSH2 0x82F DUP5 PUSH2 0x207 JUMP JUMPDEST PUSH2 0x1ED JUMP JUMPDEST SWAP1 POP DUP3 DUP2 MSTORE PUSH1 0x20 DUP2 ADD DUP5 DUP5 DUP5 ADD GT ISZERO PUSH2 0x850 JUMPI PUSH2 0x84F PUSH2 0x17B JUMP JUMPDEST JUMPDEST PUSH2 0x85B DUP5 DUP3 DUP6 PUSH2 0x4DB JUMP JUMPDEST POP SWAP4 SWAP3 POP POP POP JUMP JUMPDEST PUSH0 DUP3 PUSH1 0x1F DUP4 ADD SLT PUSH2 0x877 JUMPI PUSH2 0x876 PUSH2 0x177 JUMP JUMPDEST JUMPDEST DUP2 MLOAD PUSH2 0x887 DUP5 DUP3 PUSH1 0x20 DUP7 ADD PUSH2 0x822 JUMP JUMPDEST SWAP2 POP POP SWAP3 SWAP2 POP POP JUMP JUMPDEST PUSH0 PUSH2 0x8A2 PUSH2 0x89D DUP5 PUSH2 0x2B3 JUMP JUMPDEST PUSH2 0x1ED JUMP JUMPDEST SWAP1 POP DUP1 PUSH1 0x20 DUP5 MUL DUP4 ADD DUP6 DUP2 GT ISZERO PUSH2 0x8BC JUMPI PUSH2 0x8BB PUSH2 0x2D8 JUMP JUMPDEST JUMPDEST DUP4 JUMPDEST DUP2 DUP2 LT ISZERO PUSH2 0x8E5 JUMPI DUP1 PUSH2 0x8D1 DUP9 DUP3 PUSH2 0x80E JUMP JUMPDEST DUP5 MSTORE PUSH1 0x20 DUP5 ADD SWAP4 POP POP PUSH1 0x20 DUP2 ADD SWAP1 POP PUSH2 0x8BE JUMP JUMPDEST POP POP POP SWAP4 SWAP3 POP POP POP JUMP JUMPDEST PUSH0 DUP3 PUSH1 0x1F DUP4 ADD SLT PUSH2 0x903 JUMPI PUSH2 0x902 PUSH2 0x177 JUMP JUMPDEST JUMPDEST PUSH1 0x2 PUSH2 0x910 DUP5 DUP3 DUP6 PUSH2 0x890 JUMP JUMPDEST SWAP2 POP POP SWAP3 SWAP2 POP POP JUMP JUMPDEST PUSH0 PUSH2 0x92B PUSH2 0x926 DUP5 PUSH2 0x365 JUMP JUMPDEST PUSH2 0x1ED JUMP JUMPDEST SWAP1 POP DUP1 DUP4 DUP3 MSTORE PUSH1 0x20 DUP3 ADD SWAP1 POP PUSH1 0x20 DUP5 MUL DUP4 ADD DUP6 DUP2 GT ISZERO PUSH2 0x94E JUMPI PUSH2 0x94D PUSH2 0x2D8 JUMP JUMPDEST JUMPDEST DUP4 JUMPDEST DUP2 DUP2 LT ISZERO PUSH2 0x977 JUMPI DUP1 PUSH2 0x963 DUP9 DUP3 PUSH2 0x80E JUMP JUMPDEST DUP5 MSTORE PUSH1 0x20 DUP5 ADD SWAP4 POP POP PUSH1 0x20 DUP2 ADD SWAP1 POP PUSH2 0x950 JUMP JUMPDEST POP POP POP SWAP4 SWAP3 POP POP POP JUMP JUMPDEST PUSH0 DUP3 PUSH1 0x1F DUP4 ADD SLT PUSH2 0x995 JUMPI PUSH2 0x994 PUSH2 0x177 JUMP JUMPDEST JUMPDEST DUP2 MLOAD PUSH2 0x9A5 DUP5 DUP3 PUSH1 0x20 DUP7 ADD PUSH2 0x919 JUMP JUMPDEST SWAP2 POP POP SWAP3 SWAP2 POP POP JUMP JUMPDEST PUSH0 PUSH0 PUSH0 PUSH0 PUSH1 0xA0 DUP6 DUP8 SUB SLT ISZERO PUSH2 0x9C6 JUMPI PUSH2 0x9C5 PUSH2 0x13C JUMP JUMPDEST JUMPDEST PUSH0 PUSH2 0x9D3 DUP8 DUP3 DUP9 ADD PUSH2 0x80E JUMP JUMPDEST SWAP5 POP POP PUSH1 0x20 DUP6 ADD MLOAD PUSH8 0xFFFFFFFFFFFFFFFF DUP2 GT ISZERO PUSH2 0x9F4 JUMPI PUSH2 0x9F3 PUSH2 0x140 JUMP JUMPDEST JUMPDEST PUSH2 0xA00 DUP8 DUP3 DUP9 ADD PUSH2 0x863 JUMP JUMPDEST SWAP4 POP POP PUSH1 0x40 PUSH2 0xA11 DUP8 DUP3 DUP9 ADD PUSH2 0x8EF JUMP JUMPDEST SWAP3 POP POP PUSH1 0x80 DUP6 ADD MLOAD PUSH8 0xFFFFFFFFFFFFFFFF DUP2 GT ISZERO PUSH2 0xA32 JUMPI PUSH2 0xA31 PUSH2 0x140 JUMP JUMPDEST JUMPDEST PUSH2 0xA3E DUP8 DUP3 DUP9 ADD PUSH2 0x981 JUMP JUMPDEST SWAP2 POP POP SWAP3 SWAP6 SWAP2 SWAP5 POP SWAP3 POP JUMP INVALID LOG2 PUSH5 0x6970667358 0x22 SLT KECCAK256 0xE9 0xE LOG3 SWAP12 SWAPN 0x57 CREATE KECCAK256 SWAP6 SWAP9 0x2C CODESIZE 0xD4 EXTCODECOPY 0xCE LOG3 0xAA SWAP14 SWAP11 DUP7 0xC4 0x2D 0xC 0xCC 0xB5 0xE8 RETURNDATACOPY 0xC5 0xAF 0xB1 CALLF 0xD364 PUSH20 0x6F6C634300081E00330000000000000000000000 "
		},
		"gasEstimates": {
			"creation": {
				"codeDepositCost": "537600",
				"executionCost": "566",
				"totalCost": "538166"
			},
			"external": {
				"decodeData(bytes)": "infinite",
				"encodeData(uint256,string,uint256[2],uint256[])": "infinite"
			}
		},
		"methodIdentifiers": {
			"decodeData(bytes)": "447a06f5",
			"encodeData(uint256,string,uint256[2],uint256[])": "081148a8"
		}
	},
	"abi": [
		{
			"inputs": [
				{
					"internalType": "bytes",
					"name": "data",
					"type": "bytes"
				}
			],
			"name": "decodeData",
			"outputs": [
				{
					"internalType": "uint256",
					"name": "",
					"type": "uint256"
				},
				{
					"internalType": "string",
					"name": "",
					"type": "string"
				},
				{
					"internalType": "uint256[2]",
					"name": "",
					"type": "uint256[2]"
				},
				{
					"internalType": "uint256[]",
					"name": "",
					"type": "uint256[]"
				}
			],
			"stateMutability": "pure",
			"type": "function"
		},
		{
			"inputs": [
				{
					"internalType": "uint256",
					"name": "fixedNumber",
					"type": "uint256"
				},
				{
					"internalType": "string",
					"name": "dynamicString",
					"type": "string"
				},
				{
					"internalType": "uint256[2]",
					"name": "fixedArray",
					"type": "uint256[2]"
				},
				{
					"internalType": "uint256[]",
					"name": "dynamicArray",
					"type": "uint256[]"
				}
			],
			"name": "encodeData",
			"outputs": [
				{
					"internalType": "bytes",
					"name": "",
					"type": "bytes"
				}
			],
			"stateMutability": "pure",
			"type": "function"
		}
	]
}